:100000000C945A060C94A1060C94A1060C94153479
:100010000C94A1060C94A1060C94A1060C94A106C4
:100020000C94A1060C94A1060C94301C0C94EC1BAF
:100030000C94E9280C94A1060C94A1060C94A1063A
:100040000C94A1060C94A1060C94A1060C94A10694
:100050000C94A1060C94091D0C94A1060C94A10605
:100060000C94A1060C94A1060C94A1060C94A10674
:100070000C94A1060C94A1060C94A1060C94A10664
:100080000C94A1060C94A1060C94A1060C94A10654
:100090000C94A1060C94A1060C94A1060C94A10644
:1000A0000C94A1060C94A1060C94A106050109026A
:1000B000A10185020901A1000509190129081500FE
:1000C0002501950875018102050109300931158165
:1000D000257F95027508810609381581257F9501D0
:1000E00075088106050C0A38021581257F95017572
:1000F000088106C0C00660FF0961A1010962150000
:1001000026FF009520750881020963150026FF006F
:10011000952075089102C005010906A1010507197E
:10012000E029E71500250195087501810295017503
:100130000881010507190029FF150026FF00950613
:1001400075088100050819012905950575019102B9
:10015000950175039101C00000000000000000003F
:10016000000000000000000000000000000000008F
:1001700000000000000000000000007E0F00D4FF1F
:10018000FFFFC70000007800000000000000002A08
:100190002B2800000000000000000000000000000C
:1001A000000029000000002C1E34202122243426C7
:1001B00027252E362D3738271E1F202122232425C0
:1001C000263333362E37381F0405060708090A0B75
:1001D0000C0D0E0F101112131415161718191A1BE7
:1001E0001C1D2F3130232D350405060708090A0B85
:1001F0000C0D0E0F101112131415161718191A1BC7
:100200001C1D2F3130354C00DA0281FFD9F1DB2083
:10021000A4A62EAF00A0C000A1C800AED580A81F24
:10022000D300408D1420006162636465666768696D
:100230006A6B6C6D6E6F70717273747576777879A6
:100240007A31323334353637383930524542545F9B
:100250002D3D5B5D5C233B27602C2E2F202027004B
:10026000204B00202043004B6579203A202052008B
:100270002020440030302020530020202020204324
:1002800050490042616C6C3A0052543A002F004DC4
:10029000563A004C3A00808182838485868788891B
:1002A0008A8B8C8D8E8F9091929394A0A1A2A3A4FF
:1002B000A5A6A7A8A9AAABACADAEAFB0B1B2B3B476
:1002C000C0C1C2C3C4C5C6C7C8C9CACBCCCDCECFB6
:1002D000D0D1D2D3D40000010101010101010101FB
:1002E00002020202020202020203030303030303E7
:1002F00003040404040404040505050505060606B4
:100300000606070707070708080808090909090A70
:100310000A0A0B0B0B0C0C0C0D0D0D0E0E0E0F0F15
:100320000F101011111112121313141415151616A3
:100330001717181819191A1A1B1B1C1D1D1E1E1F12
:100340002020212222232424252626272829292A61
:100350002B2C2D2D2E2F3031323233343536373889
:10036000393A3B3C3D3E3F40414243444546474885
:10037000494A4C4D4E4F50515354555658595A5B5B
:100380005D5E5F616264656668696B6C6D6F7072FB
:10039000737577787A7B7D7E8082838587888A8C67
:1003A0008E8F91939596989A9C9EA0A2A3A5A7A99B
:1003B000ABADAFB1B3B5B7BABCBEC0C2C4C6C9CB92
:1003C000CDCFD1D4D6D8DBDDDFE2E4E7E9EBEEF048
:1003D000F3F5F8FAFDFF0000000000003E5B4F5B04
:1003E0003E003E6B4F6B3E001C3E7C3E1C00183CAA
:1003F0007E3C18001C577D571C001C5E7F5E1C0055
:1004000000183C180000FFE7C3E7FF00001824189D
:100410000000FFE7DBE7FF0030483A060E00262920
:1004200079292600407F05050700407F05253F000C
:100430005A3CE73C5A007F3E1C1C0800081C1C3E2E
:100440007F0014227F2214005F5F005F5F000609B7
:100450007F017F00006689956A00606060606000CF
:1004600094A2FFA2940008047E04080010207E20BD
:10047000100008082A1C0800081C2A0808001E1082
:10048000101010000C1E0C1E0C0030383E383000CE
:10049000060E3E0E060000000000000000005F0097
:1004A0000000000700070000147F147F1400242AB6
:1004B0007F2A120023130864620036495620500038
:1004C000000807030000001C224100000041221C1C
:1004D00000002A1C7F1C2A0008083E080800008033
:1004E0007030000008080808080000006060000084
:1004F0002010080402003E5149453E0000427F4062
:1005000000007249494946002141494D3300181401
:10051000127F10002745454539003C4A49493100C2
:100520004121110907003649494936004649492900
:100530001E0000001400000000403400000000080D
:100540001422410014141414140000412214080051
:100550000201590906003E415D594E007C121112FC
:100560007C007F49494936003E41414122007F419C
:1005700041413E007F49494941007F090909010085
:100580003E41415173007F0808087F0000417F41D0
:1005900000002040413F01007F08142241007F40BD
:1005A000404040007F021C027F007F0408107F0053
:1005B0003E4141413E007F09090906003E4151216B
:1005C0005E007F0919294600264949493200030186
:1005D0007F0103003F4040403F001F2040201F009C
:1005E0003F4038403F00631408146300030478045C
:1005F00003006159494D4300007F4141410002041D
:1006000008102000004141417F0004020102040063
:100610004040404040000003070800002054547848
:1006200040007F284444380038444444280038447B
:1006300044287F0038545454180000087E090200F2
:100640001824241C78007F080404780000447D40AE
:1006500000002040403D00007E1028440000004182
:100660007F4000007C04780478007C080404780053
:100670003844444438007C182424180018242418D2
:100680007C007C08040408004854545424000404EA
:100690003F4424003C4040207C001C2040201C00A3
:1006A0003C4030403C004428102844004C9090903E
:1006B0007C004464544C44000008364100000000B3
:1006C0007700000000413608000002010204020029
:1006D0003C2623263C000000000000000000000033
:1006E00000000000000000F81E030101020C0808D1
:1006F000080808101010101804020206FC00000080
:100700000000000000000000000000F01E030101D6
:10071000030C0808080808080808080C060301016B
:1007200003FE0000000000000000000000000000C8
:10073000F03E030103060C0C0C0808080808080822
:10074000080C060101031EE000000000000000008C
:1007500000000000E0F0F0F0E0ECEEF7F3702000B5
:100760007C7C7C7E007E7E7E7F7F7F000080C0E080
:100770007E5B4F5BFEC00000C000DCD7DEDEDED754
:10078000DC00C000000000000000000000000000CD
:100790000000000000000000000000000000C02079
:1007A000008060180000C07F00000000000002020E
:1007B00000000000000000020200000007F8000036
:1007C000000000C020008060100000FF000000005A
:1007D000000003030000000000000003030000000D
:1007E0000003FE0000000000C02000806010000038
:1007F000FF000000000000030300000000000000F4
:1008000000030300000000FF0000000000000000E3
:10081000000000000F1F3F7F7F7F7F7F3F1E0C0087
:100820001F1F1F3F003F3F3F7F7F7F00307B7F7850
:1008300030202030787F3B0003000F7F0F0F0F7FA9
:100840000F00030000000000000000000000000096
:100850000000000000000000000000000007182059
:100860000007182000001F3020301808102020300A
:10087000181020202030180810204020301F0000C1
:1008800000000718200007182000001F302020104B
:1008900008081020203008080810302030180818E8
:1008A00030201F000000000718200007182000005B
:1008B0001F30203018183020301808302030180829
:1008C0000818302020380807000000000000000051
:1008D0000000000000000000000000000000000018
:1008E0000000000000000000000000000000000008
:1008F00000000000000000000000000000000000F8
:1009000000000000000000000000000000000000E7
:1009100000000000000000AF00AE29001E001F0014
:10092000000020002100220000002B0014001A000B
:1009300002530800150017002800E000040016000C
:100940000000070009000A00000001511D001B0003
:1009500000000600190005003000E200E30000007E
:1009600000000608904391412C424F005000510076
:10097000520000000000000000002D0027002600AB
:10098000000025002400230000002F0013001200A7
:1009900028000C0018001C002900340033000F0050
:1009A00000000E000D000B0000008700380037002B
:1009B0000000360010001100320089002E000000F7
:1009C00000001908E30028002A002B022B001D0A52
:1009D0001D08000000000000000029021E022F0078
:1009E000000020022102220200002B0214021A023F
:1009F00001000802150217020100E00204021602BB
:100A00000000070209020A02000001001D021B0289
:100A100000000602190205023002E202E3020000B1
:100A200000000100010001000100010001000100BF
:100A300001000000000000000000870227022602DB
:100A4000000025022402230200002F0213021202DA
:100A500001000C0218021C020100340233020F02D2
:100A600000000E020D020B0200008702380237025E
:100A70000000360210021102320289022E0200002A
:100A8000000001000100010001000100010001005F
:100A90000100000000000000000001003A003B00DF
:100AA00000003C003D003E00000001000100240069
:100AB00001002500260001000100010001002100C5
:100AC00000002200230033020000010001001E008C
:100AD00000001F0020002D0225020100010000007F
:100AE000000001000100010001002B002B020100A9
:100AF000010000000000000000004400430042002C
:100B00000000410040003F000000450001004E0091
:100B1000010052004B000100010001004D004F0098
:100B20000000510050004A00000001000100F600E2
:100B30000000F500F400F800F700010001000000DB
:100B4000000001000100010001000100010001009E
:100B500001000000000000000000C25C0100010074
:100B600000000100010001000000C35CC55CC75C1F
:100B70000100C95C010001000100C45CC65CC85CE6
:100B80000000CA5CAC5DAB5D0000B05DB15DB25D04
:100B90000000B35DAE5DAD5DDE5C005CAF5D00008E
:100BA000000001000100010001000100010001003E
:100BB00001000000000000000000D25CD15CD05CAD
:100BC0000000CF5CCE5CCD5C0000010001005D5DEB
:100BD0000100D55CD45CD35C0100A55DA65DA95D78
:100BE0000000A75DA85DAA5D0000010001000100F2
:100BF0000000010001000100DE5C010001000000B6
:100C000000000100010001000100010001000100DD
:100C10000100000000000000000009025B00030169
:100C200000A0FA09040000010301010009211101DB
:100C300000012240000705810308000A09040100A1
:100C40000203000000092111010001222200070512
:100C500082032000010705030320000109040200AC
:100C600001030000000921110100012249000705CC
:100C7000840320000A1201000200000008594D0000
:100C8000010200010200010E036D0074006B0036CA
:100C90000034006500000016036D0065006E0074EE
:100CA0000061006B006F005F0079006100000004CC
:100CB0000309040011241FBECFEFDAE0DEBFCDBF71
:100CC00004B603FE27C080919B0690919C06A091DC
:100CD0009D06B0919E068730904BA740B04BD1F453
:100CE00010929B0610929C0610929D0610929E06F2
:100CF00014BE84B7877F84BF0FB6F894A8958091FF
:100D00006000886180936000109260000FBEE0E098
:100D1000F8E3099511E0A0E0B1E0E4E5FDE602C0EA
:100D200005900D92A43EB107D9F726E0A4EEB1E0FC
:100D300001C01D92AB39B207E1F70E9410290C9453
:100D400067360C9400008F929F92AF92BF92CF9221
:100D5000DF92EF92FF929091A601981305C09091B7
:100D60008B06903209F44BC08093A60190E29093D9
:100D70008B06C82ED12CF12CE12C10928A06C701CB
:100D8000B6012AE030E040E050E00E94D135605DDD
:100D9000603331F0C114D104E104F10409F460E2DC
:100DA0006093890660E28AE0C816D104E104F10488
:100DB00090F08AE0882E912CA12CB12CC701B601AD
:100DC000A50194010E94D135CA01B901A501940180
:100DD0000E94D135605D6093880620E284E6C816E3
:100DE000D104E104F10448F0C701B60124E630E083
:100DF00040E050E00E94D135205D2093870687E8CF
:100E000096E0FF90EF90DF90CF90BF90AF909F90D3
:100E10008F900895E8EDF0E080818E7F80831092BE
:100E2000E2001092DA001092E100A0EEB0E08C91A6
:100E300081608C9380818F77808319BCA7EDB0E0AF
:100E40008C918E7F8C9380818F7E808310926E0632
:100E500008952091E4003091E50095E6A9012091E4
:100E6000EC00822F817020FF06C08091E80080FF97
:100E700006C080E008952091E80022FD1AC080910C
:100E80007C06882389F0853089F08091EB0085FD10
:100E90000FC02091E4003091E50042175307F9F2AA
:100EA0009150E1F684E0089582E0089583E008958A
:100EB00081E00895EF92FF920F931F93CF937C01EF
:100EC0008B010E942907C82F811117C08091E8006B
:100ED00085FD0BC08091E8008E778093E8000E942A
:100EE0002907882399F3C82F08C0F70181917F0152
:100EF0008093F1000150110949F78C2FCF911F9178
:100F00000F91FF90EF90089580917E0687FF13C0A8
:100F10008091E80082FF06C08091E8008B77809383
:100F2000E80004C080917C068111F2CF0895809181
:100F30007C068823D9F38091E80080FFF8CF809168
:100F4000E8008E77ECCF982F9093E900242F762F2E
:100F500050E0891731F07091EC002091ED00509134
:100F6000F00021FD07C09F5F973071F78093E90083
:100F700081E008953091EB003E7F3093EB0030919B
:100F8000ED003D7F3093ED003091EB003160309308
:100F9000EB007093EC002093ED005093F000209153
:100FA000EE0027FDE0CF80E00895CF92DF92EF9230
:100FB000FF920F931F93CF93DF93C8EDD0E088810A
:100FC0008F7E8883E7EDF0E080818160808384E01C
:100FD00082BF81E080936E0688818E7F888302EED7
:100FE00010E0F80110821092DA0081EEC82ED12CA8
:100FF000F601108288818F77888388818068888352
:1010000088818F7D888319BC10927C0610927D06A2
:1010100010927B0610927A0690EEE92EF12CF701E1
:1010200080818B7F808388818160888342E060E05B
:1010300080E00E94A307F60180818E7F8083F80103
:10104000808181608083808188608083F7018081D6
:101050008E7F8083888180618883DF91CF911F910B
:101060000F91FF90EF90DF90CF900895FC01809159
:1010700084069091850686179707A0F06115710583
:1010800029F49091E8009E779093E80090E0611534
:10109000710551F4911108C08091E80082FF34C0BD
:1010A00080E00895BC01F2CF80917C068823C1F1D5
:1010B0008530C1F18091E80083FD30C08091E80067
:1010C00082FDEACF8091E80080FFE1CF8091F300BC
:1010D0002091F200382F6115710519F02830310583
:1010E00058F091E02830310509F090E02091E800B7
:1010F0002E772093E800CBCF81918093F10061504F
:1011000071092F5F3F4FE7CF80917C06882341F024
:10111000853041F08091E80083FFBECF81E00895E3
:1011200082E0089583E008950895089508958091D8
:101130007106089587E797E7909301088093000868
:1011400088E19AE00FB6F894A895809360000FBEEE
:1011500090936000FFCF2FB7F89460916A0670916A
:101160006B0680916C0690916D062FBF08959C01CF
:10117000FC0132969FEF80E04191461751F09F3F6E
:1011800019F4411101C0982F8F5F8630A9F79F3F56
:1011900009F40895290F311D97FD3A95F9016283ED
:1011A0000895FC01680F791F8FEF91E32191822749
:1011B00028E030E087FF09C0880F892721503109D6
:1011C000C9F7E617F70791F70895880FF7CFFA01E7
:1011D000811101C0FB01099480915104982F9E7FD9
:1011E00071F48091510481708260809351048091E8
:1011F0005404893718F088E78093540408958430A4
:1012000080F7F5CFCF93DF93E5E3F3E0838194811B
:10121000A581B681E90188839983AA83BB8314825F
:10122000138216821582DF91CF91089580E0089590
:1012300078940895E0917F02ED30A4F48AE0E8020A
:10124000F0011124E55FFE4F0084F185E02D309719
:1012500049F022EA32E04091810262E872E0809136
:10126000800209940895E9E6F2E0878980935301AA
:10127000808D80936A0108959091DE0292FF06C0EE
:10128000282F28712830F9F4877F846093FF06C0E7
:10129000282F28712831F1F4877E84612091DF02A4
:1012A00020FF06C0382F38713830D9F4877F81602D
:1012B00021FF06C0282F28712831D1F4877E816153
:1012C00094FD877E0895282F24712430F9F68B7FB2
:1012D0008860DCCF282F2471243101F78B7E886150
:1012E000DDCF382F3171313019F78E7F8860E0CF34
:1012F000282F2171213121F78E7E8861E1CFCF9394
:10130000DF93EC018238910589F1B8F581339105BD
:1013100009F492C028F58932910509F486C08A97AC
:1013200009F491C0C11523E5D20708F0ACC0C1157E
:1013300032E5D30708F011C1C11540E2D40708F027
:1013400090C0C11581E0D80730F5C53AD10508F045
:1013500081C0C430D105F8F4C130D105E1F040C0FE
:101360008533910509F45AC0C997E1F68091DE02F0
:10137000837089F0C0EED0E00EC0833E910599F1F4
:1013800070F4803E910501F1823E910559F68091FD
:10139000DE0282FD21C0CE01DF91CF910895863E0D
:1013A000910561F1873E910571F1843E910509F047
:1013B000B9CF8091DF0281FFEECF8091DE02C7EED0
:1013C000D0E084FD0DC0E7CF8091DE0280FDF4C047
:1013D0009091DF0290FFDFCFC3EED0E084FFDBCF40
:1013E000D0E0C0E0D8CF8091DE0282FDE8C09091CD
:1013F000DF0290FDBFCF84FFCECFF2CF8091DE021F
:1014000083FDDDCFC8CF8091DE0283FDDBC09091EC
:10141000DF0291FFF0CFC4EED0E0BDCF8091DE02BD
:1014200085FFB9CFC9E2D0E0B6CF8091DE0285FF5B
:10143000B2CFC5E3D0E0AFCF8091DE0286FFABCF65
:10144000CAE2D0E0A8CF8091DE0286FFA4CFC1E33C
:10145000D0E0A1CFCE01805E9109089708F49BCF20
:10146000BFCFC11591E5D90708F072C0C11520E5BD
:10147000D20708F050C0C11530E4D30708F4B0CF4C
:10148000DF70D06A88CFC11546E5D407F0F4C115E6
:1014900085E5D80708F077C0C11594E5D90708F0AD
:1014A0006DC0CE018370992721E030E002C0220F89
:1014B000331F8A95E2F7C695C69590E2C99FE00171
:1014C0001124C22BD32BDA6866CFC1152AE5D207C7
:1014D00078F4C11539E5D30708F060C0C11548E5B7
:1014E000D40708F47DCFDC2FCC27C06FD06A53CF50
:1014F000CE0190568115904208F072CF8D2F8F71DA
:101500000E943C0990E0982F882788279F719C01B2
:101510002C2BE90141C0CE01E4E096958795EA9530
:10152000E1F783702C2F26952695237040E2249FA7
:1015300090011124382B8C2F8370C1E0D0E002C0C1
:10154000CC0FDD1F8A95E2F7C22BD32BDC6823CFAB
:10155000DC2FCC27C16FD06A1ECFCE0183709927B4
:1015600021E030E002C0220F331F8A95E2F7C695D2
:10157000C69580E2C89FE0011124E6CFDC2FCC277E
:10158000C46FD06A08CF8C2F0E943C09C82FD0E0CE
:10159000DC2FCC27CC27DF71D062FDCE8C2F8F7053
:1015A0000E943C0934E0D695C7953A95E1F7CF7093
:1015B0009C2FEC01D069EFCEC9E3D0E0ECCEC2EEB7
:1015C000D0E0E9CEC6EED0E0E6CE0C94AB08809138
:1015D00066028111109266020895809590916F06BF
:1015E000982390936F06089580916F0690916502FD
:1015F000892B90916402892B8093E6019091660279
:10160000992391F0892B8093E60120E088EE91E008
:10161000FC013191CF0131112F5FF1E08E3E9F0728
:10162000B9F721110E94E70AE0916706F091680678
:10163000309731F00280F381E02D86EE91E009943D
:1016400008958091620290913102981301C008952B
:101650008F5F8770FACF990F990F990F890F982F85
:10166000977086958695869523E0829FF0011124D8
:10167000E95FFD4F50E040E080E0219130E0092E2D
:1016800002C0369527950A94E2F721703327042E7D
:1016900001C0220F0A94EAF7822B4F5F5F4F43305D
:1016A000510559F70895990F990F990F890F982FA0
:1016B000977041E001C0440F9A95EAF786958695A8
:1016C000869593E0899FF0011124E95FFD4F30E09A
:1016D00020E070E05191DF011197CB01022E02C092
:1016E000969587950A94E2F78170819585278423E2
:1016F00085278C932F5F3F4F2330310559F708958D
:101700008093670210926502109264020C94F40AAE
:10171000882341F08095909165028923809365022A
:101720000C94F40A0895882339F090916502982B5F
:10173000909365020C94F40A0895882321F00E9486
:10174000ED0A0C94F40A0895882339F090916F06FD
:10175000982B90936F060C94F40A0895882309F44B
:1017600052C09CEF980F913A78F4E8EEF1E02EEE3B
:1017700031E09191891303C0DF0111971C922E175C
:101780003F07B9F70C94F40A90E2980F983050F4A0
:10179000877091E001C0990F8A95EAF7892F0E941E
:1017A000ED0AF0CF9BE5980F9330B0F480910302DF
:1017B00090910402892B39F11092040210920302D5
:1017C000E0916706F09168063097E9F00680F781AE
:1017D000E02D90E080E00994885A8731A0F4809150
:1017E000050290910602892B71F010920602109268
:1017F0000502E0916706F0916806309721F00084B9
:10180000F185E02DE6CF0895CF93C82F8823A1F16D
:101810008CEF8C0F813AF8F4E8EEF1E0DF018D9166
:10182000C81761F081E0AE3EB807C9F76C2F86EEAD
:1018300091E00E94B708CF910C94F40A8191C813EB
:1018400003C0DF0111971C9281E0EE3EF807B1F76B
:101850000E94F40AEBCF80E28C0F883068F4C770E6
:1018600021E030E001C0220FCA95EAF780916F06AF
:10187000822B80936F06DFCFCF910895982F92959A
:101880009F7011F0892F94E0282F2695269511F04E
:101890009E5F822F869509F09F5F892F08959C0196
:1018A0003A9521153F4150F5FC01EE27F170BC013E
:1018B00066277270AC01442754709C01222738704F
:1018C00094FF0EC080E1EF2B09F480E0672B09F054
:1018D0008062452B09F08064232B89F0806808958D
:1018E00081E0EF2B09F480E0672B09F08260452B43
:1018F00009F08460232B19F08860089580E0089532
:10190000CF93C82F809142038C1751F00E94AB08EF
:10191000609343037093440380934503909346037D
:10192000C0934203CF910895CF93C82F0E943E0CDD
:1019300091E0833009F090E0892F0E94800C809123
:101940006303823031F4109263038C2F8B7F09F094
:10195000C82F8C2FCF9108950E94940C80938606F7
:1019600010926502109264020C94F40A809186062B
:10197000982F9670963019F488600C94AC0C877F81
:10198000FCCF21E030E001C0220F8A95EAF72095D4
:101990008091860682230C94AC0C90916302809512
:1019A000892380936302282F277091F4282F082E13
:1019B000000C330B9217130659F09091DF0292FD41
:1019C00007C08595859585950E94C10C109263028C
:1019D000089521E030E001C0220F8A95EAF7809156
:1019E0008606822B0C94AC0CCF92DF92EF92FF9282
:1019F0000F931F93CF93DF93FC01EB01909147036B
:101A0000911101C094E06081718191509B01092E78
:101A100002C0359527950A94E2F7D901092E02C034
:101A2000AA0FBB1F0A94E2F76A1B7B0B71836083CA
:101A3000628173818B01092E02C0159507950A9466
:101A4000E2F7D80102C0AA0FBB1F9A95E2F76A1B02
:101A50007B0B7383628381E80138BFEF1B072CF097
:101A6000802F003811050CF08FE78D8321389FEF10
:101A7000390774F1203831056CF5922F91959C83CC
:101A8000442319F081958D832C830E94AB082D810E
:101A9000211103C02C812223F9F060934803709335
:101AA000490380934A0390934B0380914C039BE03E
:101AB000980F973120F4080F00934C031D82DF919B
:101AC000CF911F910F91FF90EF90DF90CF900895ED
:101AD00021E8D3CF2FE7D1CFC0904803D09049035E
:101AE000E0904A03F0904B036C197D098E099F0921
:101AF0006436710581059105C0F210924C03D5CF73
:101B0000FC01DB012281338191E821388FEF380716
:101B10002CF0922F203831050CF09FE712969C9301
:101B200012972081318121388FEF3807A4F02038B7
:101B300031059CF413962C931397442339F0919517
:101B400012969C931297219513962C9311821082D2
:101B500013821282089521E8EDCF2FE7EBCF382FC3
:101B600020E287FF02C031952DE24AE0832F642FE7
:101B70000E94AF35905D9093FC0181110BC02093C2
:101B8000FB0120E22093FA0120E22093F90189EF82
:101B900091E00895642F0E94AF35905D9093FB0112
:101BA000832F64E60E94AF35882361F3805D8093C4
:101BB000FA01EBCF9C01860F971F37FD07C077FD19
:101BC00004C097FF02C08FEF9FE7089577FFFDCF16
:101BD00097FDFBCF80E090E80895E82FE295EF7045
:101BE000F0E031A1282F2F7081E090E001C0880F34
:101BF0002A95EAF7382B31A392A18095892382A3F5
:101C00000895E82FE295EF70F0E031A1282F2F70B2
:101C100081E090E001C0880F2A95EAF7982F90950F
:101C2000932391A392A1892B82A30895AF92BF928F
:101C3000CF92DF92EF92FF921F93CF93DF936C01CD
:101C40005B0180918C06EE24E394F12C8A3018F429
:101C50008AE0E82EF12CC1E0D0E0F89463E976E068
:101C6000C601F5010995182F0E941809111104C029
:101C70002196EC16FD065CF4812FDF91CF911F9128
:101C8000FF90EF90DF90CF90BF90AF900895CC9FE2
:101C90009001CD9F300D300D112490E080E045E3A0
:101CA0004A95F1F70000019682179307C1F7D5CF47
:101CB0009C0184E08093E9009FEF8091E8009150BF
:101CC00085FD06C085ED8A95F1F700009111F5CFED
:101CD0008091E80085FF0CC050E040E066E070E0D5
:101CE000C9010E945A078091E8008E778093E8002E
:101CF0000895CF93DF93EC0181E08093E9008FEFAB
:101D00009091E800815095FD06C095ED9A95F1F708
:101D100000008111F5CF8091E80085FF14C050E0EC
:101D200040E068E070E0CE010E945A078091E80030
:101D30008E778093E80088E0FE01A2E7B6E001908C
:101D40000D928A95E1F7DF91CF9108956091A201FC
:101D50008091510480FF20C08091A10143E0849FC5
:101D6000C00111248D589C4F539A2BB1277F3BB152
:101D700038605FB7F894FC01649FE00DF11D1124F9
:101D8000BF0168177907D1F45FBF8FE594E0019731
:101D9000F1F700C0000008958091A3019091A40183
:101DA00023E0829FF0011124ED58FC4F8917A0F623
:101DB0001182108212828F5F3396F8CFFC0141911D
:101DC000CF01E8E03BB9000000C047FF2BB9440F4A
:101DD000000000C000C000C02BB900C0EA9591F718
:101DE000D0CFE1E5F4E080818E7F8083E0E7F3E00F
:101DF0008281816082832FEF80E792E021508040D2
:101E00009040E1F700C000000C94A60E809168029B
:101E1000811118C082E39091E30097FD10C0EFE3B9
:101E2000FCE93197F1F700C000008150A1F782E092
:101E3000809368020E940A0710927C0603C081E02A
:101E40008093680281E090916802913011F080E007
:101E5000089508950E94060F882351F0E0916706C7
:101E6000F0916806309721F00190F081E02D0994FF
:101E700080E0089557985F9A879A8F9825E02A9571
:101E8000F1F7000089B187988F9A90EA9A95F1F757
:101E900090E0880F892F881F990B21E0822781709D
:101EA00008950E943A0F882371F080E08093A10189
:101EB00082E28093A2011092A30184E48093A401A2
:101EC0008093A501089582E2F1CF80913503F90155
:101ED00080830C94510F1F93CF93DF93182FEB0146
:101EE0000E94040C8FE99FE00197F1F700C0000009
:101EF0002197C1F7812FDF91CF911F910C94AE0BE9
:101F0000CF92DF92EF92FF920F931F93CF93DF93C5
:101F10006C017B0164E670E088E70E946C32EC01A2
:101F200097FD12C010E000E0F601E00FF11F849170
:101F300064E670E00E94E632EC01892B29F40F5F21
:101F40001F4F0E151F0581F70E946933CE01DF91E7
:101F5000CF911F910F91FF90EF90DF90CF90089558
:101F60008091650690916606911103C091E08927E2
:101F70000895882369F062E070E088E199E00E94AA
:101F8000800F892B19F080916506089510926506DF
:101F900080916506EBCFCF93C09165068091660670
:101FA0008823D1F00E94AB08605A75418F4F9F4F34
:101FB0006093610670936206809363069093640653
:101FC000C11108C062E070E086E199E00E94800FD4
:101FD000892B29F0C09165068C2FCF91089581E05F
:101FE00080936506F7CFCF93DF93C7E2D3E060E03D
:101FF000CE010E9433362196C11584E0D807B9F787
:10200000DF91CF9108956F927F928F929F92AF92BE
:10201000BF92CF92DF92EF92FF920F931F93CF93D5
:10202000DF938AE1C82E89E0D82E07EF10E0E8019F
:10203000C05CD10936011CC0F50185909490692DD2
:10204000C7010E943336682DC70101960E943336BE
:1020500082E0A80EB11C82E0E80EF11CCE15DF056F
:1020600059F780E1680E711C60960C171D0731F05E
:102070007E0180E1E81AF1085301DECF00541F4FC2
:1020800080ECC80ED11C073F83E0180781F6DF9172
:10209000CF911F910F91FF90EF90DF90CF90BF9065
:1020A000AF909F908F907F906F90089586E290E020
:1020B0000C943336CF93C82F6FEF811163E283E224
:1020C00090E00E9433366FEFC11162E084E290E04D
:1020D0000E9433366FEFC11165E285E290E0CF9147
:1020E0000C94333680E00E945A1060E070E0CB011F
:1020F0000E9456100E9403100E94F30F81E00C947E
:102100005A10CF93C091DF02C2FB992790F998171C
:1021100099F080FBC2F9C093DF026091DE0284E097
:1021200090E00E9433366C2F82E290E00E943336BA
:1021300082E0CF910C94CD0CCF9108950F931F9313
:10214000CF93DF9320E1629FE001112450E0440F20
:10215000551FC40FD51F30EC839FC00DD11D112416
:10216000CE0187960E941F36082F10E0102F0027FF
:10217000CE0188960E941F369801282BC901DF9155
:10218000CF911F910F910895462F843038F47C3001
:1021900028F4683018F4672F0C949E1090E080E0CB
:1021A0000895CF92DF92FF920F931F93CF93DF9307
:1021B0006C010091860680916702082BC7E0D0E091
:1021C00010E0FC2EC8010C2E02C0959587950A944C
:1021D000E2F780FD0CC02197A0F7F12C8F2DDF9145
:1021E000CF911F910F91FF90DF90CF900895B6018E
:1021F0008C2F0E94C4100E947F09019761F3EECFDB
:10220000CF93DF93EC010E94D110BE010E94C41055
:10221000DF91CF910C947F09FC01808191810E9414
:102220000011292F2F7092959F7092509E3078F454
:10223000E92FF0E0E759F94C0C94F335803F19F0A1
:1022400020F4883E20F481E00895843FE1F380E0AB
:102250000895883EC0F3813FD1F7F5CF822F869550
:102260008695869508950F931F93CF93DF93909152
:10227000E2029923B1F1813009F43FC08823B9F11A
:10228000823009F440C0833009F43FC08D2F9C2F69
:102290000E94D1106D2F7C2F0E94C410EC018C0184
:1022A000005E11090830110510F0009781F50E94B9
:1022B0004F0C0E94A40B8C2F0E94040C8FE19EE413
:1022C0000197F1F700C000008C2F0E94AE0BCE01E9
:1022D0000E944F0C0830110510F0CD2BE9F40E943C
:1022E0009D0B81E0DF91CF911F910F910895C5E083
:1022F000D2E06111CBCFD3E0C9CFC5E0D0E061110E
:10230000C5CFD1E0C3CFCBE0F3CFCBE0F7CF0E9476
:102310004F0C0E94930BCFCF0E94880BE2CF83E239
:1023200090E00E941F36833289F484E290E00E949C
:102330001F36823059F485E290E00E941F3691E00A
:10234000853209F090E0892F8170089580E0FCCFFC
:102350001F93CF93DF93162F8A3031F481E0DF9102
:10236000CF911F910C9469128D3011F480E0F7CF5A
:10237000C0915F06D091600696E0FE01A9E5B6E047
:1023800001900D929A95E1F7803EA8F186E0FE015A
:1023900011928A95E9F7C0915F06D09160061111FC
:1023A00036C046E050E0BE0189E596E00E9409365D
:1023B0009E0129553440892BA9F52A5F3F4F409152
:1023C0005604642F70E0C9010E948F35481B4630C7
:1023D00010F4240F311D211572E0370710F030E0A2
:1023E00020E0275A3B4F3093600620935F06DF9131
:1023F000CF911F910895F6E08F9FB00111246A528A
:102400007C4F46E050E0CE010E940036C4CF9E01D2
:102410002A5F3F4FFE012E173F0719F280818095FA
:102420008193F9CFC90145E0969587954A95E1F7E3
:1024300041E050E0BA0102C0660F771F8A95E2F7CB
:10244000CB016091570470915804862B972BB901EA
:102450006B5F7F4FE5E076956795EA95E1F702C0FF
:10246000440F551F6A95E2F7842B952B90935804DF
:1024700080935704A2CF1F93CF93DF93EC01162FC5
:10248000FE018491811104C0DF91CF911F910895C5
:10249000612F0E94A8112196F3CFFF920F931F93F3
:1024A000CF93DF93EC01F62EFC0101900020E9F7B9
:1024B0008F0101501109C017D10730F0DF91CF9182
:1024C0001F910F91FF9008956F2D89910E94A8117F
:1024D000F2CFCF93382FE0915F06F0916006E95577
:1024E000F44020915604622F70E0CF010E948F3596
:1024F000281B822F332369F066E00E94A335C82F82
:10250000C15010F4CF91089560E080E20E94A811BC
:10251000F7CF9F01280F311D2115324018F080E0C0
:10252000F0E0E0E08E0F9F2F911D875A9B4F909314
:10253000600680935F06E6CFE8EEF1E086E0DF011B
:102540001D928A95E9F710926502109264020C942C
:10255000F40A1F93CF93DF93CDB7DEB7AA970FB6D8
:10256000F894DEBF0FBECDBF8EE796E02091F1005C
:10257000DC012D93CD01B6E086389B07B9F7809139
:102580007F06833009F472C0B8F4813009F449C081
:10259000823009F4B5C08091E80083FF8DC280913C
:1025A0007E0690917F069A3008F086C2E92FF0E00F
:1025B000E958F94C0C94F3358A3009F490C08B300B
:1025C00009F471C0893039F780917E06813219F79C
:1025D0008091820690918306009711F00297D9F6B8
:1025E0008091E800877F8093E8008091E80082FF77
:1025F00038C09091F3008091F200029731F48091FD
:10260000F100813011F0863021F48091F100809347
:1026100071068091E8008B778093E8000E94840720
:10262000BACF80917E06813A09F0B5CF8091E8005B
:10263000877F8093E8008091820690918306892BA2
:1026400061F468E082E796E070E00E9436088091CD
:10265000E8008B778093E8009ECF60E090E080E018
:10266000F3CF80917C068111C0CF95CF80917E06FB
:10267000813A09F090CF8091820690918306892B50
:1026800009F089CF8091E800877F8093E8008091EE
:10269000E80080FFFCCF8091A0018093F100809141
:1026A000E8008E77B9CF80917E06813209F073CF32
:1026B0008091820690918306892B09F06CCF8091DE
:1026C000E800877F8093E8000E948407809180065D
:1026D0008093A00110926F060E949C125CCF8091A3
:1026E0007E06813209F057CF8091E800877F809382
:1026F000E8000E94840780918106809370064BCF8A
:1027000080917E06813A09F046CF8091E800877F6C
:102710008093E8008091E80080FFFCCF80917006F4
:10272000BCCF803899F0823809F0C6C1809182060A
:102730008F70873008F0C0C18093E9008091EB0072
:1027400085FB882780F91092E90006C080917A06FF
:1027500090917B06911182609091E800977F909311
:10276000E8008093F1001092F1008091E8008E77EC
:102770009FC1882309F48DC1823009F09DC18091E9
:102780008006811190C1809182068F702FEF280FF3
:10279000263008F091C18093E9002091EB0020FFE2
:1027A00082C1933031F48091EB0080628093EB0022
:1027B0007AC19091EB0090619093EB0021E030E0C2
:1027C00001C0220F8A95EAF72093EA001092EA00EE
:1027D0008091EB008860EACF81116EC11091800674
:1027E0001F778091E3008078812B8093E3008091B4
:1027F000E800877F8093E8000E9484078091E800CA
:1028000080FFFCCF8091E30080688093E30082E04A
:10281000111183E080937C064FC18058823008F00C
:102820004BC120918006309181062C3DE3E03E07AC
:10283000A1F583E08A838AE289834FB7F894DE01A9
:10284000139620E03EE051E2E32FF0E05093570072
:10285000E49120FF03C0E295EF703F5FEF708E2F91
:1028600090E0EA30C0F0C7968D939D932F5F24319E
:1028700059F74FBF8091E800877F8093E8006AE2B4
:1028800070E0CE0101960E9436088091E8008B77B7
:102890008093E80011C1C096E7CF809182069091A5
:1028A0008306432F55274330510509F44AC078F574
:1028B0004130510509F47AC08BE590E0EAE1FCE093
:1028C0004230510509F0F8C02091E800277F20939D
:1028D000E80020918406309185068217930708F45A
:1028E0009C0140E02115310509F065C0411163C02C
:1028F0008091E80082FDC9CF80917C06882329F26F
:10290000853019F28091E80083FFF2CFBECF4132CB
:10291000510509F43CC04232510509F0CDC0833065
:10292000910508F0C9C0FC01EE0FFF1FE952FE4FF0
:102930000190F081E02D8C529E4FDC018C9190E053
:102940001AC0332721303105D1F02115310561F04E
:102950002230310509F0B0C0E7E8FCE0E4918E2FA9
:1029600090E0E7E8FCE007C0EFEAFCE0E4918E2F9E
:1029700090E0EFEAFCE0009709F49EC0A5CFE7E9FC
:10298000FCE0E4918E2F90E0E7E9FCE0F4CF8330A7
:10299000910508F091C0880F991FFC01E352FE4F8A
:1029A0000190F081E02D89E090E08ECF82E190E00F
:1029B000E5E7FCE089CF80917C06882309F465CFA8
:1029C000853009F462CF8091E80083FD5ECF80916D
:1029D000E80082FD8DCF8091E80080FF83CF909149
:1029E000F3008091F2002115310519F0883091052E
:1029F00050F041E0089709F040E08091E8008E77C0
:102A00008093E8006FCF44914093F10031962150BC
:102A100031090196E8CF803809F04EC08091E80076
:102A2000877F8093E80080917D068093F1009DCEA2
:102A3000811142C0109180061230F0F58091E800BB
:102A4000877F8093E80010937D060E9484071123FE
:102A500011F084E005C08091E30087FDFACF81E0AA
:102A600080937C0642E061EC81E00E94A30742E291
:102A700061EC84E00E94A30742E261EC82E00E94E4
:102A8000A30742E260EC83E00E94A30780917C06EA
:102A900013C080918006813079F481E0933009F091
:102AA00080E080937B061092E9008091E800877FA8
:102AB0008093E8000E9484078091E80083FF0AC0A9
:102AC0008091E800877F8093E8008091EB0080622E
:102AD0008093EB00AA960FB6F894DEBF0FBECDBF71
:102AE000DF91CF911F910895CF92DF92EF92FF92E5
:102AF0006B017C010E94EC08B701A60188E090E020
:102B0000FF90EF90DF90CF900C9445368F929F927C
:102B1000AF92BF92CF92DF92EF92FF920F931F93EB
:102B2000CF93DF93182FC62FD42F822E00915104FC
:102B300000FFD8C0E02FE695F0E0EE52FE4F808116
:102B400080937003802F8E7F8230E9F4E42F493721
:102B500008F0E8E7F0E0EA52FD4FC11144C02491CB
:102B6000F22FE22F00FF0FC08091A3019091A401EA
:102B700033E0839FD0011124AD58BC4F891708F46E
:102B8000A7C00E94A60E80915204811308C08091B4
:102B900053048C1304C0809154048D1729F0809144
:102BA000720382608093720310935204C0935304A3
:102BB000D0935404882009F495C060915104709119
:102BC00052048091530490915404DF91CF911F914E
:102BD0000F91FF90EF90DF90CF90BF90AF909F90BC
:102BE0008F900C947415EC2EF12CE4919E2ECE2E29
:102BF000D12C26E0129FC00111242FEF30E0B90143
:102C00000E948F35812F90E0880F991FF5E5F69F80
:102C1000A001F79F500D1124841B950BB82EBB0CFF
:102C2000B80EA9014E195F094C9DC0014D9D900D34
:102C30005C9D900D1124F92FCB9DA0011124452FEF
:102C40005527D901A41BB50BAC9DA001AD9D500D1E
:102C5000BC9D500D1124D901AB19B1095D01AE9C89
:102C6000D001AF9CB00DBE9CB00D1124AB2FBB2783
:102C70002A1B3B0B2C9DD0012D9DB00D3C9DB00D12
:102C800011242B2F62307105A1F050F461157105EC
:102C900009F468CF6130710581F0292FF52F62CFDB
:102CA0006430710569F080F06630710509F45ACF1F
:102CB000F4CF2E2FE92FFB2F55CF2E2FE52F52CFFC
:102CC000292FFE2FEB2F4ECFE92FF92D252F4ACF9D
:102CD0001196EC9311972C931296FC9312978F5F99
:102CE00013964CCFDF91CF911F910F91FF90EF90F2
:102CF000DF90CF90BF90AF909F908F900895E1E5C7
:102D0000F4E043812CE0421B08F440E021E06281C2
:102D100081810C948615E1E5F4E043812CE0420FBB
:102D200008F44FEF21E0628181810C948615E1E582
:102D3000F4E0628121E1621B08F460E021E043815C
:102D400081810C948615E1E5F4E0628121E1620F56
:102D500008F46FEF21E0438181810C948615E1E551
:102D6000F4E0818121E04381628181510C948615D8
:102D7000E1E5F4E0818121E0438162818F5E0C9482
:102D8000861580915504882319F08150809355044D
:102D900060915104709152048091530490915404B5
:102DA0000C94741580915504833018F48F5F8093D0
:102DB0005504609151047091520480915304909194
:102DC00054040C9474158091510480FF1EC08170CE
:102DD00082608093510480917203816080937203BA
:102DE000662351F060915104709152048091530414
:102DF000909154040E94741520E040915404609115
:102E00005304809152040C948615089580915104C6
:102E10008695815009F481E061E00C94E31661E04D
:102E200081E00C94E316E1E5F4E083E08083118215
:102E30008FEF828388E783831482A0E7B3E0129642
:102E40008C911297836012968C936081718182813C
:102E500093810C94741569EE7EEF90E080E00E94FF
:102E6000513660E082E090E00E94333660E083E01B
:102E700090E00E9433361092670260E084E090E0B8
:102E80000E94333660E082E290E00E94333660E0D8
:102E900085E090E00E94333660E086E090E00E949A
:102EA00033366FEF87E090E00E94333640E050E029
:102EB000BA0188E090E00E94453660E08DE090E045
:102EC0000E94333640E050E0BA0188E190E00E9471
:102ED000453660E087E190E00E94333640E050E004
:102EE000BA018CE190E00E94453670E060E080E23B
:102EF00090E00E94513640E050E0BA0188E190E055
:102F00000E94453680E00E945A100E94721040E0F4
:102F100050E0BA018FE090E00E944536E9E5F3E029
:102F200015821682178281E0808382E390E092838B
:102F300081838AE090E09483838340815181628120
:102F4000738183E190E00C944536EF92FF920F93EA
:102F50001F93CF93DF937901C82F880FDD0B4115A5
:102F60005105A9F08AE08C9FF0018D9FF00D11248E
:102F7000E55FFE4F8381948187599D4F228130E028
:102F80004217530708F49A01A9010E941636CE0190
:102F90000E94DB34892B11F501151105E9F08AE057
:102FA0008C9FF0018D9FF00D1124E55FFE4F458150
:102FB00050E00417150708F4A8018AE08C9FF0017F
:102FC0008D9FF00D1124E55FFE4F66817781675973
:102FD0007D4FC7010E94163681E001C080E0DF917D
:102FE000CF911F910F91FF90EF900895AF92BF92F4
:102FF000CF92DF92EF92FF920F931F93CF93DF93C5
:1030000000D000D0CDB7DEB78C83E62E5A01F22E69
:10301000680180918C068A3080F080E00F900F90DC
:103020000F900F90DF91CF911F910F91FF90EF9034
:10303000DF90CF90BF90AF9008958C818A306CF371
:1030400089836A832B836093530120936A0110E084
:1030500000E030E020E043E050E0BE016F5F7F4FD2
:1030600086E00E94A5178823C1F24E2D50E030E083
:1030700020E0B50187E00E94A517882371F230E0B7
:1030800020E041E050E0BE016C5F7F4F88E00E948D
:10309000A517882311F20F2D10E0960150E040E0B3
:1030A00070E060E089E00E94A517B8CF0F931F93EE
:1030B000CF93DF93CDB7DEB728970FB6F894DEBF76
:1030C0000FBECDBF85E0E1E5F4E0DE011196019091
:1030D0000D928A95E1F78091700390917103A09110
:1030E00072038E839F83A88728854091D4025091D4
:1030F000D5026091D6027091D7023FB7F8948091C3
:103100006A0690916B06A0916C06B0916D063FBF68
:10311000841B950BA60BB70B84369105A105B10551
:1031200010F42223C1F010E000E030E020E048E09D
:1031300050E0BE016F5F7F4F85E00E94A517882396
:1031400069F00E94AB086093D4027093D50280931B
:10315000D6029093D7021092720381E028960FB6A0
:10316000F894DEBF0FBECDBFDF91CF911F910F91BD
:1031700008950F931F93CF93DF9300D000D0CDB766
:10318000DEB74091D0025091D1026091D20270918D
:10319000D3022FB7F89480916A0690916B06A091A4
:1031A0006C06B0916D062FBF841B950BA60BB70B59
:1031B00011E084369105A105B10538F10E94060F92
:1031C000882369F10E94AB086E5F7F4F8F4F9F4F3E
:1031D00069837A838B839C8310E000E030E020E0F9
:1031E00044E050E0BE016F5F7F4F84E00E94A5176E
:1031F000182F882351F00E94AB086093D00270937F
:10320000D1028093D2029093D302812F0F900F901E
:103210000F900F90DF91CF911F910F9108950E9411
:10322000AB080091D8021091D9022091DA023091B6
:10323000DB02600F711F821F931FC6CF7F928F9298
:103240009F92AF92BF92CF92DF92EF92FF920F9335
:103250001F93CF93DF930F92CDB7DEB7762E4A013F
:103260005901680101E010E09E012F5F3F4F50E0DF
:1032700040E070E060E00E94A517182F882309F451
:103280004BC0F40140815181628173812FB7F89462
:1032900080916A0690916B06A0916C06B0916D06C4
:1032A0002FBF841B950BA60BB70B84369105A10588
:1032B000B10538F4B701C6010E94D1089981891778
:1032C00059F18701950150E040E070E060E0872D02
:1032D0000E94A517B82EB701C6010E94D10811E0BF
:1032E0009981981310E01B2139F00E94AB08F4017A
:1032F0006083718382839383812F0F90DF91CF91BD
:103300001F910F91FF90EF90DF90CF90BF90AF9003
:103310009F908F907F900895A701B601C5010E94EC
:103320001636EACF9F92AF92BF92CF92DF92EF9282
:10333000FF920F931F93CF93DF9300D0CDB7DEB7EB
:1033400082E0E82EF12C01E712E09E012F5F3F4F53
:103350004CEC52E063E082E00E941E19B82E8823F4
:1033600021F1AE014F5F5F4F6A0180E0A12C009117
:10337000E1020A0DF60111916F01202F30E0A90141
:103380004D515D4F7A01FA019081191B912E19144C
:10339000F4F0912F17FD90E0191B111123C0F1E0FB
:1033A000AF1212C081110E94E50A8B2D0F900F9071
:1033B000DF91CF911F910F91FF90EF90DF90CF9011
:1033C000BF90AF909F900895AA24A394D0CF9A94D1
:1033D000F70180818F5F808360E0802F0E9433112E
:1033E0008B2DD5CF1F5FF70180818150808361E0F5
:1033F000802F0E9433118B2DD0CFCF92DF92EF928E
:10340000FF920F931F93CF93DF9300D000D000D093
:10341000CDB7DEB76B0186E0E82EF12C0AE612E0AC
:103420009E012F5F3F4F48EC52E061E080E00E9438
:103430001E19882349F096E0FE013196A2ECB2E015
:1034400001900D929A95E1F796E0E2ECF2E0D60158
:1034500001900D929A95E1F726960FB6F894DEBF8B
:103460000FBECDBFDF91CF911F910F91FF90EF90D5
:10347000DF90CF90089590E080E00E942D36893E45
:103480009E4F11F40C948F1180E0089528E030E0F5
:1034900043E060E086E30C949431CF92DF92EF92A8
:1034A000FF920F931F93CF93DF93CDB7DEB72C9787
:1034B0000FB6F894DEBF0FBECDBF4F835887698724
:1034C0007A878B879C8780913503882399F00E94A7
:1034D000461A80E50E940C328AEB8A95F1F700C00B
:1034E0000E942432887899278038910509F492C087
:1034F0000E943C320E94060F882309F46BC00E9490
:10350000AB080091FE011091FF0120910002309163
:1035100001026B017C01C01AD10AE20AF30A970189
:103520008601083011052105310508F453C0609368
:10353000FE017093FF0180930002909301020091BD
:103540004303109144032091450330914603601BCF
:10355000710B820B930B623371058105910580F429
:10356000109239031092380310923B0310923A03E1
:1035700010923D0310923C0310923F0310923E03C1
:10358000109142030E943A0F482FBE01695F7F4F9E
:1035900088E393E0112309F46BC00E94F40C0091BE
:1035A0004203109135030E943A0F41E04827BE01C3
:1035B000695F7F4F8CE393E0011709F45CC00E94C0
:1035C000F40C86E0FE013796A1E5B3E001900D9280
:1035D0008A95E1F786E0FE013796DE0111960190AB
:1035E0000D928A95E1F729813A814B815C816D8149
:1035F0007E8180E090E02C960FB6F894DEBF0FBE7F
:10360000CDBFDF91CF911F910F91FF90EF90DF9091
:10361000CF9008950E9424320E9424327C010E949F
:10362000243220E0E22AF82A0E9424328C010E94EF
:10363000243220E0022B182B0E943C32F894B70170
:1036400080913803909139030E94DA0D90933903E9
:1036500080933803B80180913A0390913B030E9414
:10366000DA0D90933B0380933A030E94180942CFEE
:103670000E94800D94CF0E94800DA3CFCF93DF9343
:10368000D82FC62F0E94461A8D2F80680E940C32B8
:103690008C2F0E940C320E943C328FEC92E00197FA
:1036A000F1F700C00000DF91CF910895682F8937AE
:1036B00008F068E76093400391E090934103909194
:1036C0003503992359F06150811101C064E08FE006
:1036D0000E943E1B60E080E50C943E1B0895FB01B8
:1036E00080810C94561B90914003911101C095E08C
:1036F000282F880F330BA901490F511DCA01181635
:10370000190614F081E090E00C94561BCF93C82F5B
:103710000E94461A8C2F0E940C328FE792E001978C
:10372000F1F700C000000E942432C82F0E943C32F2
:103730009AE69A95F1F700C08C2FCF910895CF9318
:10374000DF930E943A0F811144C00E948C31269A67
:103750000E94461A6AE58AE30E943E1B2FEF80E72B
:1037600092E0215080409040E1F700C0000082E0EC
:103770000E94861B83E00E94861B84E00E94861BB9
:1037800085E00E94861B86E00E94861B60E080E147
:103790000E943E1B80E00E94861BD82F81E00E9481
:1037A000861BC82F0E943C32D23419F481E0C1300C
:1037B00009F080E0817080933503882351F064E044
:1037C0008FE00E943E1B60E080E5DF91CF910C947A
:1037D0003E1BDF91CF9108951F920F920FB60F926B
:1037E00011242F933F934F935F936F937F938F9306
:1037F0009F93AF93BF93CF93DF93EF93FF93D091BA
:10380000E900DF708091EC00C82FC17080FDC0E836
:103810001092E9008091F000877F8093F000789407
:103820000E94A9121092E9008091F00088608093B4
:10383000F000CD2BCF70C093E900FF91EF91DF91A5
:10384000CF91BF91AF919F918F917F916F915F9138
:103850004F913F912F910F900FBE0F901F90189591
:103860001F920F920FB60F9211242F933F934F93F5
:103870005F936F937F938F939F93AF93BF93EF93D8
:10388000FF938091E10082FF09C08091E20082FFF6
:1038900005C08091E1008B7F8093E1008091DA0088
:1038A00080FF24C08091D80080FF20C08091DA0082
:1038B0008E7F8093DA008091D90080FF9DC080E1E7
:1038C00089BD82E189BD09B400FEFDCF81E080930E
:1038D0007C0680916E06811109C00E940A070E9431
:1038E000D5078091E20084608093E2008091E1003E
:1038F00080FF17C08091E20080FF13C08091E2003A
:103900008E7F8093E2008091E20080618093E200EC
:103910008091D80080628093D80019BC85E08093A4
:103920007C068091E10084FF2BC08091E20084FF3F
:1039300027C080E189BD82E189BD89B5982F91704A
:1039400080FFFBCF8091D8008F7D8093D80080913D
:10395000E1008F7E8093E1008091E2008F7E809372
:10396000E2008091E20081608093E20080917D0618
:10397000882309F447C084E080937C0680917C060C
:103980008091E10083FF27C08091E20083FF23C084
:103990008091E100877F8093E10082E080937C0644
:1039A00010927D068091E1008E7F8093E1008091EE
:1039B000E2008E7F8093E2008091E200806180933C
:1039C000E20042E060E080E00E94A3078091F00006
:1039D00088608093F000FF91EF91BF91AF919F912C
:1039E0008F917F916F915F914F913F912F910F90A8
:1039F0000FBE0F901F90189519BC10927C06109264
:103A00006E0674CF8091E30087FD93E090937C066F
:103A1000B5CF78941F921FB61F9211248F939F9356
:103A2000AF93BF9380916A0690916B06A0916C064C
:103A3000B0916D060196A11DB11D80936A06909309
:103A40006B06A0936C06B0936D06BF91AF919F91EA
:103A50008F911F901FBE1F9018959C014FB7F8942F
:103A600080916A0690916B06A0916C06B0916D06EC
:103A70004FBF821B930B08952FB7F89480916A066D
:103A800090916B06A0916C06B0916D062FBF0895C2
:103A900082E00E94E90C0E943C1D90936203809397
:103AA000610382E08093630308950F931F93CF9384
:103AB000DF93CDB7DEB768970FB6F894DEBF0FBEC1
:103AC000CDBF40916A0350916B0360916C0370917C
:103AD0006D0380916E0390916F030E944D1A2093A5
:103AE0006A0330936B0340936C0350936D036093B0
:103AF0006E0370936F0386E0EAE6F3E0DE0117964B
:103B000001900D928A95E1F786E0FE013796DE017D
:103B1000119601900D928A95E1F719850A85912FEA
:103B2000902B80916303992309F4BCC0813009F480
:103B300075C0823009F0A8C00E943C1D90936203BA
:103B40008093610386E0FE013196DE011D960190AF
:103B50000D928A95E1F786E0FE013D96DE015396CF
:103B600001900D928A95E1F786E0FE017396DE01E1
:103B7000119601900D928A95E1F786E0FE0131964B
:103B8000AAE6B3E001900D928A95E1F786E0EAE6B5
:103B9000F3E0DE01179601900D928A95E1F786E039
:103BA000E4E6F3E0DE01119601900D928A95E1F7CB
:103BB00046E050E0BE016F5F7F4FCE0107960E9446
:103BC0000936892B79F0E0916706F0916806309705
:103BD00049F082E080936A030480F581E02D8AE653
:103BE00093E0099510926C0310926D0310926E038E
:103BF00010926F0386E0EAE6F3E0A4E6B3E00190FA
:103C00000D928A95E1F768960FB6F894DEBF0FBE65
:103C1000CDBFDF91CF911F910F91089580915903EE
:103C2000882309F48FCF809186060E943E0C811173
:103C300089CF812F110F990B97FF03C09195819523
:103C40009109002E000C110B17FF03C0119501956F
:103C50001109800F911F2091570330915803820F53
:103C6000931F909358038093570320915A033091E8
:103C70005B03821793070CF465CF109258031092E0
:103C800057030E94481D5ECF0E943C1D9093620323
:103C90008093610381E08093630310925803109234
:103CA000570350CF8130E1F0823019F580916103E4
:103CB000909162030E942D1D40915C0350915D0321
:103CC00064E6649F9001659F300D11242817390721
:103CD00008F038CF1092630382E00E94C10C32CF0B
:103CE00080916103909162030E942D1DC39708F497
:103CF00029CF10925803109257031092630322CFDA
:103D00003F924F925F926F927F928F929F92AF926B
:103D1000BF92CF92DF92EF92FF920F931F93CF93B8
:103D2000DF93CDB7DEB762970FB6F894DEBF0FBE54
:103D3000CDBF8C01DC0113968D919C911497892B3A
:103D400039F08C9111969C9189238F3F09F0D7C54A
:103D500062960FB6F894DEBF0FBECDBFDF91CF9154
:103D60001F910F91FF90EF90DF90CF90BF90AF9099
:103D70009F908F907F906F905F904F903F900895AD
:103D80000E94D110F82E682F89819A810E94530BCE
:103D900069817A818F2D0E94C4107C01F801828193
:103DA000882309F49EC5C70182519F45409708F0BA
:103DB0003FC58FEF93E00E941F36FEEEEF0E57E2F5
:103DC000852E53E0952E8823A9F180916302877098
:103DD00009F4BECFF8018281882309F4B9CF80911C
:103DE000DF0282FDB5CF82E062960FB6F894DEBFA7
:103DF0000FBECDBFDF91CF911F910F91FF90EF903C
:103E0000DF90CF90BF90AF909F908F907F906F90FA
:103E10005F904F903F900C94CD0C811424E092065B
:103E2000A1F2C4010E941F36811101C0EA943FEF44
:103E3000831A930AE110F1CF1C821B82442443941D
:103E40004AE0342E74018FEFE81AF80AC4010E9488
:103E50001F3689831A82882309F4B7CF9FEF980F02
:103E6000933030F58A83498292E0890E911CC70114
:103E70000E941F368B83882309F4A7CFDE01119699
:103E80007D01F70120812223E9F2213009F050C0A1
:103E900091818281913071F4F2E0EF0EF11C65E0C6
:103EA00070E0893311F460E570E00E946B0F09C087
:103EB0004701E4CF923049F422E0E20EF11C0E9467
:103EC000040CFFEFEF1AFF0ADCCF933031F432E03D
:103ED000E30EF11C0E94AE0BF4CF943021F08FEF73
:103EE000E81AF80AEECF92E0E90EF11C30E020E08B
:103EF000B7016F5F7F4FD70111964C918053990B9B
:103F00008A30910550F021503109D8F2EFE9FFE0F5
:103F10003197F1F700C00000F6CF329EF001339EDA
:103F2000F00D11249C012E0F3F1F842F7B01E0CF49
:103F3000E22FF0E0E957FE4F5490822F8695869548
:103F4000869590E0FC01E958FE4F64902770712C33
:103F5000022E02C0759467940A94E2F731E063225E
:103F60007724FC01E959FE4FA490B12C022E02C027
:103F7000B594A7940A94E2F7A1E0AA22BB24FC011D
:103F8000E95AFE4FC490D12C02C0D594C7942A950B
:103F9000E2F7B1E0CB22DD246114710419F081EE67
:103FA0000E94040CA114B10419F086EE0E94040CC6
:103FB000E9E365E070E05E1202C060E570E0852D27
:103FC0000E946B0FAB2819F086EE0E94AE0B67289B
:103FD00019F081EE0E94AE0BCD2809F472CF65E096
:103FE00070E08CE262CF81E00E94E90C0E94B60C86
:103FF000ECCE81E00E94C10CF9CF82E0F5CF32EB2C
:10400000E3163DE5F30609F446C093EBE9169DE59A
:10401000F90609F03BC4882309F4D7CE80915C03EC
:1040200090915D030197181619060CF440C081E0C9
:1040300090E03DC0882309F4C8CE8091590391E0F7
:104040008927809359034091590350915A036091F5
:104050005B0370915C0383E190E00E944536B5CE2E
:10406000882309F4B2CE80915A0390915B030596A0
:1040700090935B0380935A03E6CF882309F4A5CE7F
:1040800080915A0390915B0305978530910584F7E1
:1040900085E090E0EDCF882309F497CE80915C0312
:1040A00090915D030196883EA3E09A072CF49093CB
:1040B0005D0380935C03C7CF87EE93E0F8CFE45FA6
:1040C000F10921E030E001C0220FEA95EAF796E01D
:1040D000EAE6F3E0DE01179601900D929A95E1F77A
:1040E00096E0FE013796DE011D9601900D929A959D
:1040F000E1F79885882389F1292B2E8786E0FE0138
:104100003D96DE01119601900D928A95E1F786E0C9
:10411000FE013196AAE6B3E001900D928A95E1F78F
:10412000F8018281F6E1EF16FCE5FF0609F067C0B1
:10413000882309F44FC080916F068A7A91E009F4D0
:1041400090E09093020269E2811165E386EE91E0CE
:104150000E94B7080E94F40A38CE20952923CDCFBB
:1041600080E00E94561B109247032FCE40914003DF
:104170005091470350FB47F95695537060E070E04B
:104180008FE090E06ACF81E00E94731B1ECE8FEF1C
:10419000FBCF8AE0F9CF86EFF7CF9091420381E021
:1041A00089270E94800C11CE80914703811101C0A4
:1041B00084E08F5F18160CF081E0883008F087E00B
:1041C0008093470302CE80914703811101C084E0B0
:1041D0008150F0CF8091020281110FC089E2E8EE98
:1041E000F1E02EEE31E09191891303C0DF011197C8
:1041F0001C922E173F07B9F7ADCF85E3F0CF8111A1
:10420000F3C080916F06827229ECE2162CE5F2066B
:1042100009F4E2C008F079C095ECE9169CE5F906CE
:1042200009F4D5C008F058C0B3ECEB16BCE5FB06AA
:1042300009F4C1C008F0C6C0F2ECEF16FCE5FF06B9
:1042400009F48FC0D80112968C911297ED90FC90D2
:10425000882309F404C1C7010E94D110D82E682F09
:10426000C7010E94530BB7018D2D0E94C4100E94FC
:104270007F097C01882EF801C280B580B2943FE0AE
:10428000B322809163028770C1F0AC2CCC20B1F0D6
:104290008F2D807F803421F080E28E0D883068F091
:1042A0008091DF0282FD09C082E00E94CD0C8091E6
:1042B00063028770AA24A3948111A12C9F2C92944D
:1042C0002FE09222FBE0F91508F43CC1E92DF0E063
:1042D000EF57F94C0C94F33547E956E163EA76E180
:1042E00027ECE2162CE5F20609F469C048EB56E12A
:1042F0006FEA76E138ECE3163CE5F30608F45FC0BC
:1043000043EA56E167E976E15AC09DECE9169CE57F
:10431000F90609F466C0C8F441EC56E162ED76E1B5
:10432000BBECEB16BCE5FB0609F449C04BE856E1D3
:104330006FE776E1ECECEE16ECE5FE0608F43FC024
:1043400042ED56E161EC76E13AC0F6EDEF16FCE5A0
:10435000FF0608F43ACD2DE5E216F20609F435CD54
:1043600071CF8091510480FF1EC08E7F80935104D5
:1043700060915104709152048091530490915404BF
:104380000E947415809172038160809372033FEFE5
:1043900080E792E0315080409040E1F700C000009B
:1043A0000E94A60E12CD81608093510461E0869533
:1043B0000E94E3160ACD46E057E16FE077E10E94E4
:1043C000E70803CD4FE057E166E077E1F8CF4FEA29
:1043D00056E168EB76E1F3CF4FE756E16BE876E123
:1043E000EECF61E081E0E4CFAAE5EA16ADE5FA069A
:1043F00091F168F4E114ECE5FE06F1F0FEEDEF1644
:10440000FCE5FF0609F01ECF0E942B17DECC2BE542
:10441000E2162DE5F20609F13CE5E3163DE5F3066B
:1044200009F010CF8091DF0282FB882780F991E0AC
:1044300089270E94811006CF10926F060E949C125D
:104440008FEF94E3ACE081509040A040E1F700C0D2
:1044500000000E949A0881E0ECCF80E0EACFC7011B
:104460000E942B0BD82EFFCE2F2D2F70D22E8F2DEA
:10447000807F19F0D29490EFD922CC20B9F0DD20C2
:1044800069F080E28E0D883010F0811009C08091B3
:104490006F06D82AD0926F060E94F40A8E2D50C063
:1044A00080916502D82AD0926502F6CF8E2D0E94A7
:1044B000AE0BDD2009F446C080E28E0D883010F08E
:1044C000811004C08D2D0E94ED0A06C0D094809109
:1044D0006502D822D09265020E94F40A33C03F2DB3
:1044E0003F70D32E8F2D807F803219F0D29480EFD1
:1044F000D8228820A1F081E0881609F482C0CC205F
:1045000009F48CC0BB2009F482C0D80115968C91A7
:10451000159780FFC3CF8F7015968C9378C020912C
:10452000DF0222FF4BC0CC2009F442C0DD2039F06D
:1045300080916F06D82AD0926F060E94F40A80E01C
:104540000E94040CA92DA850BB0B149710F40E94D4
:104550002A0FAA2009F4FCCB8091630280FDF8CBDE
:10456000F80112828595859585950E94E90CC80110
:104570000E94801E8091630285958595859562963F
:104580000FB6F894DEBF0FBECDBFDF91CF911F9164
:104590000F91FF90EF90DF90CF90BF90AF909F90E2
:1045A0008F907F906F905F904F903F900C94C10CD4
:1045B00080E00E94AE0BDD2029F284CFCC20A1F058
:1045C000909166028D2D892BB11003C00E94A40B1F
:1045D000B9CFA1E0BA12FACF22FDB4CF981709F4EF
:1045E000B1CF80936602AECFB11006C00E94E70A39
:1045F0008D2D0E949D0BA6CFB1E0BB1609F4A2CF72
:10460000F5CFCC2031F0E5E0EB1508F49BCF8D2DF4
:10461000DDCFF4E0FB1508F495CFEACFBB2041F3E2
:10462000B9E38B12FDC0EFEFF7EE23E0E150F0406D
:104630002040E1F700C000008E2D0E94AE0B82CF1B
:104640008F2D837091F5C1107DCF4E2D42954695EB
:104650004770440F440F8E2D8F70042E01C0880FB9
:104660000A94EAF72E2D2071E4FE07C02FE030E017
:1046700001C0220F4A95EAF720953F2D36953695D1
:104680003370323069F050F440916702313029F0D4
:10469000822B84230E94800B55CF842B822BFACF50
:1046A000282B809167028227F5CF8695CC2011F0C8
:1046B0008F2D8170882309F445CF4E2D4295469564
:1046C0004770440F440F8E2D8F70042E01C0880F49
:1046D0000A94EAF72E2D2071E4FE07C02FE030E0A7
:1046E00001C0220F4A95EAF720953F2D3695369561
:1046F0003370323069F050F440918606313029F041
:10470000822B84230E94AC0C1DCF842B822BFACFEA
:10471000282B809186068227F5CF9F2D9F70F92E3A
:10472000CC2029F0892F0E94E90C8E2D4FCF8E2DA1
:104730000E949D0B8F2D0E94C10C04CF8E2DA2EFE5
:104740008A16B1F1A81570F0B0EF8B16D1F0E1EF39
:104750008E1691F0CC2009F45EC0B1109FCE8F2D43
:104760008F712AC0F3EF8F1651F124EF8212F2CF2E
:104770008091DF0282FF2FC08F2D8F71CC20D9F264
:104780001BC0CC2081F034E03B1508F4DBCE2F2D8C
:104790002F7181E090E001C0880F2A95EAF790918F
:1047A00086068927AFCF85E08B1508F4CBCEEFCFF7
:1047B0008F2D8F71C110BFCF0E94E90CC3CE80E056
:1047C000CC2009F49FCF9F2D9F7181E001C0880FFD
:1047D0009A95EAF797CFCC2099F09F2D9F71F92EEB
:1047E000892F0E94E90C8091DF0282FD07C0A8E0BA
:1047F000FA9EC00111248360809363028F2DDCCF69
:1048000081E00E94CD0CB1E0BB1508F09BCE82E0A8
:104810000E94CD0C97CEBB2041F0893309F403CF21
:104820008FE19EE40197F1F705CF8F2D8F7183CF34
:10483000F0E1EF16FFE5FF0609F4D5CB21E1E21622
:104840002FE5F20609F4D9CBF0924E03E0924D0326
:10485000D8018D919C9111979093500380934F03B1
:1048600012968C91B1EBEB16BDE5FB0609F405CC75
:1048700008F0C5CBFFEAEF16FDE5FF0609F4DACB39
:1048800020EBE2162DE5F20609F4EACB882331F09D
:1048900080916303823011F40E94481DC7019A95EC
:1048A000F70181159F4108F4FF27D80112968C91DA
:1048B000E43FF10548F0E93FF10508F400CCEC3A9B
:1048C000BDE5FB0709F46DCC882309F429CCE55A32
:1048D000FD45EA30F10508F023CCE357F94C0C9480
:1048E000F33530E1E3163FE5F30609F482CB81E1CD
:1048F000E8168FE5F80609F0A7CF82E07BCB85E0CC
:10490000F801DE01119601900D928A95E1F7D80128
:1049100012962C9189819A81211132CA0E942B0B07
:10492000F82E36CA1F93CF93DF9380913002807F99
:10493000A9F480912D02882389F080916202D091A0
:10494000310260912B0270912C02A0912E02B09145
:104950002F02C62FC72316E0D81304C0DF91CF91D2
:104960001F91089590E0109711F0CF3F19F4019630
:104970008770F2CF189F9001199F300D1124F90113
:10498000EE5CFD4F41814713F2CF40814613EFCFDC
:1049900042814111ECCF438154814A1B5B0B483C5F
:1049A000510528F7809130028F708061809330022A
:1049B000F901E95CFD4F80818F70806180838BE21B
:1049C00092E00E94801EDF91CF911F910C94210BE9
:1049D000AF92BF92CF92DF92EF92FF920F931F930D
:1049E000CF93DF93CDB7DEB761970FB6F894DEBFF4
:1049F0000FBECDBF8C0185E0F801DE011D96019050
:104A00000D928A95E1F7F801E2808BE2A82E82E010
:104A1000B82E60912E0270912F026115710509F474
:104A200032C190912B0240912C02892F84238F3F19
:104A300009F429C120813181C380D480F0902D02F6
:104A4000F601E61BF70BFF2009F4E8C08091300265
:104A5000582F507FE83CF10508F0ABC0511177C0EA
:104A6000FE2C431321C092131FC0E1101DC08F7094
:104A7000806180933002C5010E94801E80913002C7
:104A8000F80185838F2D61960FB6F894DEBF0FBEB7
:104A9000CDBFDF91CF911F910F91FF90EF90DF90ED
:104AA000CF90BF90AF900895CD2829F0822F832317
:104AB0008F3F09F003C180E0F82FF170DF2E80FFF7
:104AC0003CC0809162024091310256E0841315C0CF
:104AD0002D873E878D859E850E940011292F229566
:104AE0002F702230F0F0243018F59F70F1F0F801AB
:104AF0009581907FD1F4D12C1EC090E0589FF00199
:104B0000599FF00D1124EE5CFD4F6181361306C0F4
:104B10006081261303C06281E6120FC00196877080
:104B2000D5CF9F7011F0882331F3805E883018F361
:104B3000C8010E94801EFD2CA5CFEE2009F4A2CF53
:104B400080913002816080933002F12C9BCF43131F
:104B500006C0921304C0F801EE2009F479C0C80120
:104B60000E940C11882309F1EE20F9F080913002A7
:104B7000803270F020912B0230912C0238872F83E5
:104B80001986DB86CA868C87CE0107960E94801E16
:104B900086E0F801ABE2B2E001900D928A95E1F770
:104BA0000E949224FF24F3946DCFC8010E94801EBE
:104BB000F9CF51110AC08BE292E00E94801E86E07C
:104BC000F50111928A95E9F7C0CF43130FC09213F4
:104BD0000DC0E1100BC0F8018583C8010E94801E42
:104BE00086E0F50111928A95E9F74CCFC8010E9441
:104BF0000C118823D1F2EE20C1F280913002803274
:104C000038F220912B0230912C023A8329831B82A7
:104C1000DD82CC828E83CE010196B8CFE83CF105CF
:104C2000F8F6FE2CEE2009F243131FC092131DC0AC
:104C30008091300280FD10C0982F907F69F0F801BC
:104C40008583903F31F0982F907F905F8F70892BF4
:104C50008583C8010E94801E86E0F801ABE2B2E0C5
:104C600001900D928A95E1F70DCFC8010E940C11B9
:104C700081118ECF80913002816080933002C80113
:104C80000E94801EFFCEEE2009F48FCFC8010E9443
:104C90000C11F82E882309F488CF86E0F801ABE2E6
:104CA000B2E001900D928A95E1F780912B029091EC
:104CB0002C020E9400110E949224E4CE81E08E25F5
:104CC000FBCE1F93CF93DF93CDB7DEB767970FB6B9
:104CD000F894DEBF0FBECDBF4B8B5C8B6D8B7E8B94
:104CE0008F8B6111109265021A8A198A85E0FE0184
:104CF0007396DE011D9601900D928A95E1F786E08C
:104D0000FE013D96DE01179601900D928A95E1F71E
:104D1000CE0107960E94E824882389F016E080914E
:104D200062029091310289134BC067960FB6F894D6
:104D3000DEBF0FBECDBFDF91CF911F91089586E0FA
:104D4000FE013796DE01119601900D928A95E1F7EA
:104D50008A859B85892B11F38F81988589238F3FC5
:104D6000E9F22091310230E0C9010196877099275C
:104D7000409162024817190681F410926F060E9452
:104D80009C12109231021092620286E0EBE2F2E095
:104D9000DF011D928A95E9F7C1CF96E0929FD0017D
:104DA000939FB00D1124AE5CBD4FFE013196019072
:104DB0000D929A95E1F7809331020E94210BAECFBC
:104DC000819FC00111248E5C9D4F0E94E82488239E
:104DD00009F4ABCF8091620290E001968770992729
:104DE000809362029CCF4F925F926F927F928F92DC
:104DF0009F92AF92BF92CF92DF92EF92FF920F936A
:104E00001F93CF93DF9300D0CDB7DEB74DE8C42E0C
:104E100046E0D42E460150E0E52E51E0F52E512C0F
:104E200066246394712CD7018D917D010E94ED0D54
:104E300000C0F40141904F0136E0A32E31E0B32EC3
:104E4000F50110E000E04191A42FA295AF70B0E011
:104E500090968C919301002E01C0220F0A94EAF7DC
:104E600090E04F7002C0959587954A95E2F780FDD6
:104E70008AC0422A0F5F1F4F0430110521F7F70146
:104E8000319780810E94010EF0EAFA95F1F7F40162
:104E90008291841519F040825524539426E0E2163D
:104EA00021E0F20609F0BFCFEE24E394F12CD50106
:104EB0008D915D010E94ED0D00C0C701002E01C063
:104EC000880F0A94EAF7582FADE8B6E090E0892EF3
:104ED00091E0992E482F4095F40121914F01822FA6
:104EE00082958F7090E0FC0180A13D9190E02F7041
:104EF00002C0959587952A95E2F7BD016150710929
:104F000080FD44C0852F832BFB018083808138176F
:104F100011F055245394F6E08F16F1E09F06E1F668
:104F2000F501319780810E94010E20EA2A95F1F760
:104F30000F5F1F4F0830110509F0B9CF1091DD0246
:104F4000552039F181E08093F1010E943C1D90933E
:104F5000F0018093EF018091EF019091F0010E94A8
:104F60002D1D0597D0F0E12FF0E0E25EFC4F83E9C4
:104F700096E0D6012D916D0121938A179B07C9F701
:104F80001092F1010AC02095422274CF842F83230E
:104F9000BBCF8091F1018111DECF0E94060FF82E68
:104FA000E091DD0281119BC0F0E0E25EFC4FF894DD
:104FB00086E0AAE6B2E001900D928A95E1F766E0FC
:104FC00070E08AE692E00E94D108809369020E9414
:104FD0001809F894E091E902F0E0ED51FD4F80816D
:104FE00091819A838983909372028093710262E027
:104FF00070E0CE0101960E94D108809370020E9459
:105000001809F894C0907302D0907402E090750271
:10501000F09076028091F2019091F301A091F40159
:10502000B091F501C816D906EA06FB06D1F0C09288
:10503000F201D092F301E092F401F092F5010E94A6
:10504000060F81110EC00E94AB08C61AD70AE80AE3
:10505000F90AC092D802D092D902E092DA02F09214
:10506000DB020E941809F89480917E028823F1F0F7
:1050700080FF0DC08091770280FF2EC09091510477
:1050800091609093510460E086950E94E3168091B0
:105090007E0281FF09C020E040917A02609179028E
:1050A000809178020E94861510927E020E94180953
:1050B000852D0F900F90DF91CF911F910F91FF9051
:1050C000EF90DF90CF90BF90AF909F908F907F90A8
:1050D0006F905F904F9008950E94F10ED8CF23E912
:1050E00036E086E0D9011D928A95E9F70E2F10E08F
:1050F000025E1C4F80918C068A30E8F56DEF79E1F5
:10510000C8010E94160E882309F452C062E979E1B1
:10511000C8010E94160E882309F44AC069EB78E1A1
:10512000C8010E94160E882309F442C066E578E1A2
:10513000C8010E94160E8823D9F110928C0681E0D6
:105140008093F8010091DC0210E0025E1C4F46E003
:1051500050E063E976E0C8010E940936892B09F422
:10516000A7CF86E0E3E9F6E0D80101900D928A9599
:10517000E1F75F2C9DCF8091F6019091F7010E949D
:105180002D1D843F914008F0B9CF8091F80188230C
:1051900009F48ECF1092F801E091DC02F0E0E25EBB
:1051A000FC4F96E0DF011D929A95E9F7582E80CFCB
:1051B00080918C068F3F31F08F5F80938C068A3010
:1051C00008F4BDCF0E943C1D9093F7018093F60137
:1051D000DCCF1F921FB61F9211248F939F93AF9322
:1051E000BF9380916906811113C080916A069091E6
:1051F0006B06A0916C06B0916D064196A11DB11D84
:1052000080936A0690936B06A0936C06B0936D062C
:10521000BF91AF919F918F911F901FBE1F901895C6
:10522000CDB7DEB7AF970FB6F894DEBF0FBECDBFD8
:1052300084B7877F84BF0FB6F894A89580916000EB
:10524000886180936000109260000FBE80E890E05B
:105250000FB6F89480936100909361000FBE85B7FC
:10526000806885BF85B7806885BF86E199E09093A7
:10527000E5018093E4010E940A070E94D50780910E
:10528000E20084608093E200789480917C06882319
:10529000A1F01091E9001F709091EC00892F8170AE
:1052A00090FD80E8182B1092E9008091E80083FDC2
:1052B0000E94A9121F701093E90082E084BD93E060
:1052C00095BD9AEF97BD80936E001092D802109210
:1052D000D9021092DA021092DB020E948F11811122
:1052E00002C00E9472100E943A0F80930A018091BE
:1052F0000A01882309F475C01092A10185E2809308
:10530000A2010E94060F81110E94CE3380910601F6
:105310000E94010E809107010E94010E80910801F8
:105320000E94010E809109010E94010E00E011E02F
:1053300046E0E42E41E0F42ED8018D918D010E94CB
:10534000010EE016F106C1F780910A0196E0811185
:1053500090E09093DD0286E0891B8093DC020E943E
:10536000060F811102C00E94D133EDE8F6E089E911
:1053700096E0AEE1B3E011921D928E179F07D9F728
:105380000E943B1A811102C00E942B1782E090E01C
:105390000E941F368093110384E090E00E941F3624
:1053A000182F82E290E00E941F36982F812F909351
:1053B000DF028093DE020E94F326EFE3FCE93197DF
:1053C000F1F700C000000E94F32680911E0380FFC9
:1053D0000CC06FEF7FEF90E080E00E9451360E949A
:1053E0009A0885E28093A1018ACF83E090E00E9431
:1053F0001F360E94800B809186060E94940C0E94AA
:10540000060F882309F451C380E080930C0380E8E1
:10541000809356040E9466326DE070E08AE192E06B
:105420000E94800F892BE9F580910C0363E070E006
:1054300081FD3DC387E192E00E94800F892B89F5B1
:105440006DE070E087E092E00E94800F892B49F5C3
:105450000E94AB08605A75418F4F9F4F6093610661
:10546000709362068093630690936406E9E5F4E026
:1054700080E092E0DF019C011D9221503040E1F775
:10548000F0936006E0935F068FEF9FEF90935804D0
:105490008093570481E0809366068093650610929E
:1054A0000D038091E002811136C00E943B1A8111E8
:1054B00004C00E942B170E94131788E090E00E94FE
:1054C0002736609351047093520480935304909351
:1054D0005404809172038360809372036E7F71F431
:1054E0000E94131788E090E00E94273660935104D1
:1054F0007093520480935304909354040E94EC08D8
:105500008091510480FF04C060E086950E94E316FC
:1055100081E08093E0026EEB71E03AEE832E32E0A0
:10552000932E2AEB31E0ECEBF1E041E050E01191F9
:10553000812F82958F7090E0DC019196FC9091977D
:105540001F70E12E6A0101C0CC0C1A95EAF70C2DF0
:1055500000950F2191960C93919792961C9192979A
:105560001C2992961C93D901FD909D010F2D029547
:105570000F7010E0D8019196BC90BF2DBF70FB2E2C
:105580006A0101C0CC0CBA95EAF7DC2CD094DB2080
:10559000D8019196DC9291979296DC909297DC28B4
:1055A0009296DC92DC0190968C9190E002C09595E9
:1055B0008795EA94E2F78170D80190960C9110E0FB
:1055C00002C015950795FA94E2F790E000FD92E08D
:1055D000892BD4018D934D016E177F0709F0A7CF5A
:1055E00080910A0192E0811190E09093E90282E0BB
:1055F000891B8093E1020E949F1B0E94060F81116C
:105600002EC085E69FE0909378018093770129E191
:1056100030E0309373012093720189E390E090931E
:1056200076018093750142E059E0509382014093E6
:10563000810130937D0120937C01909380018093C0
:105640007F014FE65BE150938C0140938B013093D7
:1056500087012093860190938A01809389010E949B
:105660003B1A882389F08FE090E00E9427368B0157
:10567000862F8F770E94561B001F0027001F137074
:10568000110F102B109347030E94510F83E190E0FC
:105690000E9427368B019C016093590310935A0393
:1056A00080935B0330935C0310925D0310925E0362
:1056B00010925F031092600381E08093E2028DE814
:1056C00091E0909368068093670680917C0600E1E4
:1056D00012E1853009F431C20E94F326682E81114F
:1056E0000E94AB0826EC31E03CA72BA742E153E037
:1056F000D9012EE133E010E000E0C02EF901F19075
:105700009F018D91F822FA018191AF018F1509F463
:1057100025C28F25D12CEE24E394982F9E2109F4E5
:1057200018C20E94060F882399F0D9A2CAA2FE20AF
:1057300081E009F480E08BA30E943C1D8160782FFA
:105740009DA38CA349A15AA16BA18DA10E946126A2
:10575000F801EE5EFC4F8081E826E08207EE12E061
:10576000AAEBCA2EA1E0DA2EBCEBAB2EB1E0BB2E29
:105770008AEEE82E82E0F82E412C712CD701ED91B3
:105780007D01EE0FEE0FD5012D915D01A22FA295A7
:10579000AF70B0E090968C9190E02F7002C095951C
:1057A00087952A95E2F781709927D6014D916D0171
:1057B000A42FA295AF70B0E090962C9130E04F707E
:1057C00002C0359527954A95E2F7A9014170552702
:1057D00020FF02C042E050E0842BE82BD701119754
:1057E000EC935090E902540C4801EF70F0E0E6555C
:1057F000FE4F8081F8019081890F808320E0823004
:1058000064F0E52DF0E0ED51FD4F80818F5F8083E6
:1058100060E0852D0E94331121E0D8018C918F3FEB
:1058200064F4E52DF0E0ED51FD4F808181508083DF
:1058300061E0852D0E94331121E00F5F1F4FF801B9
:105840003197D4018C91082E000C990B62E070E026
:105850000E94BD358083722AB1E04B1296C111F0CF
:105860000E94E50A80916606882351F180910E031B
:1058700090910F030E942D1DC29708F089C12091BD
:105880005704309158042115310509F086C28091E2
:1058900065068823A9F00E94AB080091610610916B
:1058A00062062091630630916406601B710B820BC7
:1058B000930B6F3F7F4F8F4F9F4710F40E94B00FA5
:1058C000611001C071100E94CB0F0E94551D0E94F3
:1058D0002A0F90911003891721F00E942A0F8093BC
:1058E000100380917C06843009F42CC30E94060FBB
:1058F000882309F4EACE0E94AB08209130032111DD
:105900006FC000912C0310912D0320912E03309134
:105910002F036B017C01C01AD10AE20AF30A970136
:105920008601043F11402105310508F459C06093F8
:105930002C0370932D0380932E0390932F0380915B
:105940002A0390912B03019690932B0380932A03B3
:1059500019828E010F5F1F4F21E050E040E060E0B0
:105960008AE00E94F617811106C080912A03909167
:105970002B030A97ACF181E08093300380933603C8
:105980009981911101C080E08093370380913503A4
:1059900010E0882329F00E943A0F11E0811112E0F3
:1059A00080913703882309F492C40E943A0F811131
:1059B00090C482E0182B86E290E00E941F36C82E29
:1059C000D12CF12CE12CC701B6016C7F612B6C1539
:1059D0007D058E059F0511F00E9456100E94510F03
:1059E00080913703882309F470CE0E94AB086B01C5
:1059F0007C018091310390913203A0913303B091E7
:105A00003403A7019601281B390B4A0B5B0BDA0103
:105A1000C9010497A105B10580F119821A821B8280
:105A20001C828E010F5F1F4F24E050E040E060E0D9
:105A30008BE00E94F6178823C1F069817A818091FA
:105A40003C0390913D030E94DA0D90933D038093B7
:105A50003C036B817C8180913E0390913F030E94C7
:105A6000DA0D90933F0380933E03C0923103D092AE
:105A70003203E0923303F092340380914103882390
:105A800009F423CE80914003898310E000E020E0F8
:105A9000AE014F5F5F4F61E08CE00E94F6178823F4
:105AA00009F413CE1092410310CE82E0AECC84E113
:105AB00092E0C2CC80917C06843049F10E94B00F04
:105AC0000E94551D10926906E8E1F0E020E4C22E24
:105AD0000FB6F894A895E09360000FBEC0926000E6
