:100000000C94DC060C94F9060C94F9060C948434D8
:100010000C94F9060C94F9060C94F9060C94F90664
:100020000C94F9060C94F9060C94D71D0C94931DAE
:100030000C944D290C94F9060C94F9060C94F906CD
:100040000C94F9060C94F9060C94F9060C94F90634
:100050000C94F9060C94B01E0C94F9060C94F90655
:100060000C94F9060C94F9060C94F9060C94F90614
:100070000C94F9060C94F9060C94F9060C94F90604
:100080000C94F9060C94F9060C94F9060C94F906F4
:100090000C94F9060C94F9060C94F9060C94F906E4
:1000A0000C94F9060C94F9060C94F9060501090262
:1000B000A10185020901A1000509190129081500FE
:1000C0002501950875018102050109300931158165
:1000D000257F95027508810609381581257F9501D0
:1000E00075088106050C0A38021581257F95017572
:1000F000088106C0C00660FF0961A1010962150000
:1001000026FF009520750881020963150026FF006F
:10011000952075089102C005010906A1010507197E
:10012000E029E71500250195087501810295017503
:100130000881010507190029FF150026FF00950613
:1001400075088100050819012905950575019102B9
:10015000950175039101C00000000000000000003F
:10016000000000000000000000000000000000008F
:1001700000000000000000000000007E0F00D4FF1F
:10018000FFFFC70000007800000000000000002A08
:100190002B2800000000000000000000000000000C
:1001A000000029000000002C1E34202122243426C7
:1001B00027252E362D3738271E1F202122232425C0
:1001C000263333362E37381F0405060708090A0B75
:1001D0000C0D0E0F101112131415161718191A1BE7
:1001E0001C1D2F3130232D350405060708090A0B85
:1001F0000C0D0E0F101112131415161718191A1BC7
:100200001C1D2F3130354C00DA0281FFD9F1DB2083
:10021000A4A62EAF00A0C000A1C800AED580A81F24
:10022000D300408D1420007F3F1F643214783C1EA1
:100230001E140A056162636465666768696A6B6CAF
:100240006D6E6F707172737475767778797A3132FA
:100250003334353637383930524542545F2D3D5BA3
:100260005D5C233B27602C2E2F20202700204B0095
:10027000202043004B6579203A2020520020204462
:1002800000303020205300202020202043504900FF
:1002900042616C6C3A00808182838485868788897C
:1002A0008A8B8C8D8E8F9091929394A0A1A2A3A4FF
:1002B000A5A6A7A8A9AAABACADAEAFB0B1B2B3B476
:1002C000C0C1C2C3C4C5C6C7C8C9CACBCCCDCECFB6
:1002D000D0D1D2D3D40000010101010101010101FB
:1002E00002020202020202020203030303030303E7
:1002F00003040404040404040505050505060606B4
:100300000606070707070708080808090909090A70
:100310000A0A0B0B0B0C0C0C0D0D0D0E0E0E0F0F15
:100320000F101011111112121313141415151616A3
:100330001717181819191A1A1B1B1C1D1D1E1E1F12
:100340002020212222232424252626272829292A61
:100350002B2C2D2D2E2F3031323233343536373889
:10036000393A3B3C3D3E3F40414243444546474885
:10037000494A4C4D4E4F50515354555658595A5B5B
:100380005D5E5F616264656668696B6C6D6F7072FB
:10039000737577787A7B7D7E8082838587888A8C67
:1003A0008E8F91939596989A9C9EA0A2A3A5A7A99B
:1003B000ABADAFB1B3B5B7BABCBEC0C2C4C6C9CB92
:1003C000CDCFD1D4D6D8DBDDDFE2E4E7E9EBEEF048
:1003D000F3F5F8FAFDFFFFAA7F55402223252628D2
:1003E000292A2C2D2F3032333536383A3B3D3E40CA
:1003F00042434547494A4C4E5051535557595A5C10
:100400005E6062646668696B6D6F71737577797B26
:100410007D7F81838587898A8C8E90929496989A25
:100420009C9E9FA1A3A5A7A8AAACAEAFB1B3B4B63A
:10043000B8B9BBBCBEBFC1C2C3C5C6C7C9CACBCC95
:10044000CDCED0D1D2D2D3D4D5D6D7D7D8D9D9DA68
:10045000DADBDBDBDCDCDCDCDCDDDDDDDDDCDCDCDD
:10046000DCDCDBDBDBDADAD9D9D8D7D7D6D5D4D305
:10047000D2D2D1D0CECDCCCBCAC9C7C6C5C3C2C1DA
:10048000BFBEBCBBB9B8B6B4B3B1AFAEACAAA8A737
:10049000A5A3A19F9E9C9A98969492908E8C8A89EF
:1004A000878583817F7D7B79777573716F6D6B69CC
:1004B00068666462605E5C5A5957555351504E4CA1
:1004C0004A4947454342403E3D3B3A383635333250
:1004D000302F2D2C2A29282625232200AF00AE29D3
:1004E000001E001F00000020002100220000002B41
:1004F0000014001A0002500800150017002800E040
:1005000000040016000000070009000A00000001B6
:10051000511D001B0000000600190005003000E21C
:1005200000E300000000000608904391412C424F78
:100530000050005100520000000000000000002D9B
:100540000027002600000025002400230000002FC3
:10055000001300120028000C0018001C00290034B1
:100560000033000F0000000E000D000B00000035EE
:1005700002380037000000360010001100320089F8
:1005800000E600000000001908E30028002A002B04
:10059000022B001D0A1D08000000000000000029B9
:1005A000021E022F00000020022102220200002B66
:1005B0000214021A0201000802150217020100E0EB
:1005C00002040216020000070209020A02000001EA
:1005D000001D021B0200000602190205023002E2A1
:1005E00002E302000000000100010001000100011F
:1005F0000001000100010000000000000000008771
:100600000227022602000025022402230200002FF6
:10061000021302120201000C0218021C0201003433
:100620000233020F0200000E020D020B0200003521
:10063000023802370200003602100211023202892B
:1006400002E60200000000010001000100010001BB
:100650000001000100010000000000000000000196
:10066000003A003B0000003C003D003E000000015D
:1006700000010024000050250026000100010001B7
:1006800000010021000000220023003302000001CD
:100690000001001E0000001F0020002D02250201A5
:1006A0000001000000000001000100010001000144
:1006B00000010001000100000000000000000044F3
:1006C00000430042000000410040003F00000045A0
:1006D0000001004F00010052005000010001000124
:1006E00000F600F50000005100F4004B000000018E
:1006F00000010001000000010001004E002602017F
:1007000000010000000000010001000100010001E3
:10071000000100010001000000000000000000C214
:100720005C0100010000000100010001000000C3A5
:100730005CC55CC75C0100C95C010001000100C42C
:100740005CC65CC85C0000CA5C01000100000001DE
:10075000000100BA5D0000B95DB85DB75DDE5C0008
:100760005C01000000000001000100010001000127
:10077000000100010001000000000000000000D2A4
:100780005CD15CD05C0000CF5CCE5CCD5C00000135
:100790000001005D5D0100D55CD45CD35C0100B15B
:1007A0005DB25DB55D0000B35DB45DB65D00000196
:1007B00000010001000000010001000100DE5C01F9
:1007C0000001000000000001000100010001000123
:1007D000000100010001000000000000000000090D
:1007E000025B00030100A0FA0904000001030101FB
:1007F00000092111010001224000070581030800C2
:100800000109040100020300000009211101000197
:1008100022220007058203200001070503032000B0
:100820000109040200010300000009211101000177
:100830002249000705840320000112010002000084
:100840000008594D00010200010200010E036D0075
:1008500074006B00360034006500000016036D0064
:1008600065006E00740061006B006F005F0079002E
:1008700061000000040309040000000000003E5B6A
:100880004F5B3E003E6B4F6B3E001C3E7C3E1C00AF
:10089000183C7E3C18001C577D571C001C5E7F5E78
:1008A0001C0000183C180000FFE7C3E7FF00001819
:1008B00024180000FFE7DBE7FF0030483A060E008F
:1008C000262979292600407F05050700407F052558
:1008D0003F005A3CE73C5A007F3E1C1C0800081CA5
:1008E0001C3E7F0014227F2214005F5F005F5F00C8
:1008F00006097F017F00006689956A00606060607C
:10090000600094A2FFA2940008047E040800102056
:100910007E20100008082A1C0800081C2A0808006D
:100920001E10101010000C1E0C1E0C0030383E382B
:100930003000060E3E0E0600000000000000000021
:100940005F000000000700070000147F147F140000
:10095000242A7F2A12002313086462003649562095
:100960005000000807030000001C22410000004165
:10097000221C00002A1C7F1C2A0008083E080800D0
:10098000008070300000080808080800000060605F
:1009900000002010080402003E5149453E0000427C
:1009A0007F4000007249494946002141494D3300CA
:1009B0001814127F10002745454539003C4A494923
:1009C000310041211109070036494949360046499D
:1009D00049291E00000014000000004034000000FF
:1009E00000081422410014141414140000412214AD
:1009F00008000201590906003E415D594E007C1273
:100A000011127C007F49494936003E414141220094
:100A10007F4141413E007F49494941007F09090921
:100A200001003E41415173007F0808087F000041EA
:100A30007F4100002040413F01007F081422410017
:100A40007F40404040007F021C027F007F0408106E
:100A50007F003E4141413E007F09090906003E41B9
:100A600051215E007F091929460026494949320073
:100A700003017F0103003F4040403F001F20402012
:100A80001F003F4038403F00631408146300030414
:100A9000780403006159494D4300007F4141410002
:100AA000020408102000004141417F0004020102BD
:100AB000040040404040400000030708000020546C
:100AC000547840007F284444380038444444280087
:100AD000384444287F0038545454180000087E09D4
:100AE00002001824241C78007F08040478000044C5
:100AF0007D4000002040403D00007E102844000062
:100B000000417F4000007C04780478007C080404E5
:100B100078003844444438007C18242418001824F1
:100B200024187C007C080404080048545454240011
:100B300004043F4424003C4040207C001C20402012
:100B40001C003C4030403C004428102844004C909D
:100B500090907C004464544C4400000836410000EE
:100B60000000770000000041360800000201020486
:100B700002003C2623263C0000000000000000008C
:100B8000000000000000000000F81E030101020C3C
:100B90000808080808101010101804020206FC00CB
:100BA00000000000000000000000000000F01E0334
:100BB0000101030C0808080808080808080C0603C7
:100BC000010103FE00000000000000000000000022
:100BD0000000F03E030103060C0C0C08080808088E
:100BE0000808080C060101031EE0000000000000D8
:100BF000000000000000E0F0F0F0E0ECEEF7F37031
:100C000020007C7C7C7E007E7E7E7F7F7F0000805B
:100C1000C0E07E5B4F5BFEC00000C000DCD7DEDEC4
:100C2000DED7DC00C0000000000000000000000073
:100C300000000000000000000000000000000000B4
:100C4000C020008060180000C07F0000000000008D
:100C5000020200000000000000020200000007F88D
:100C60000000000000C020008060100000FF0000B5
:100C70000000000003030000000000000003030068
:100C800000000003FE0000000000C0200080601093
:100C90000000FF000000000000030300000000004F
:100CA000000000030300000000FF0000000000003F
:100CB0000000000000000F1F3F7F7F7F7F7F3F1EEF
:100CC0000C001F1F1F3F003F3F3F7F7F7F00307B97
:100CD0007F7830202030787F3B0003000F7F0F0F9C
:100CE0000F7F0F0003000000000000000000000064
:100CF00000000000000000000000000000000007ED
:100D000018200007182000001F302030180810207D
:100D10002030181020202030180810204020301FCC
:100D2000000000000718200007182000001F3020D6
:100D30002010080810202030080808103020301833
:100D4000081830201F000000000718200007182096
:100D500000001F30203018183020301808302030A4
:100D6000180808183020203808070000000000008C
:100D70000000000000000000000000000000000073
:100D80000000000000000000000000000000000063
:100D90000000000000000000000000000000000053
:100DA0000000000000000000000000000000000043
:100DB000000000000000000011241FBECFEFDAE0A9
:100DC000DEBFCDBF11E0A0E0B1E0EEE9FDE602C07C
:100DD00005900D92A03FB107D9F726E0A0EFB1E052
:100DE00001C01D92AD3AB207E1F70E9474290C943C
:100DF0009A360C940000E8EDF0E080818E7F8083CD
:100E00001092E2001092DA001092E100A0EEB0E041
:100E10008C9181608C9380818F77808319BCA7ED42
:100E2000B0E08C918E7F8C9380818F7E8083109236
:100E3000580408952091E4003091E50095E6A90159
:100E40002091EC00822F817020FF06C08091E80085
:100E500080FF06C080E008952091E80022FD1AC0BE
:100E600080916604882389F0853089F08091EB00B9
:100E700085FD0FC02091E4003091E5004217530733
:100E8000F9F29150E1F684E0089582E0089583E05C
:100E9000089581E00895EF92FF920F931F93CF93EF
:100EA0007C018B010E941A07C82F811117C0809105
:100EB000E80085FD0BC08091E8008E778093E80004
:100EC0000E941A07882399F3C82F08C0F70181915F
:100ED0007F018093F1000150110949F78C2FCF91C8
:100EE0001F910F91FF90EF9008958091680487FF04
:100EF00013C08091E80082FF06C08091E8008B77E4
:100F00008093E80004C0809166048111F2CF0895B7
:100F1000809166048823D9F38091E80080FFF8CFA0
:100F20008091E8008E77ECCF982F9093E900242FE2
:100F3000762F50E0891731F07091EC002091ED0090
:100F40005091F00021FD07C09F5F973071F78093AB
:100F5000E90081E008953091EB003E7F3093EB0093
:100F60003091ED003D7F3093ED003091EB0031602A
:100F70003093EB007093EC002093ED005093F00061
:100F80002091EE0027FDE0CF80E00895B0E0A0E0E2
:100F9000ECECF7E00C94BE35C8EDD0E088818F7E94
:100FA0008883E7EDF0E080818160808384E082BF08
:100FB00081E08093580488818E7F888302EE10E060
:100FC000F80110821092DA0081EEC82ED12CF601C1
:100FD000108288818F778883888180688883888160
:100FE0008F7D888319BC109266041092670410925A
:100FF00065041092640490EEE92EF12CF7018081D3
:101000008B7F808388818160888342E060E080E01C
:101010000E949407F60180818E7F8083F801808191
:1010200081608083808188608083F70180818E7FEA
:101030008083888180618883CDB7DEB7E8E00C9437
:10104000DA35FC0180916E0490916F048617970742
:10105000A0F06115710529F49091E8009E779093B6
:10106000E80090E06115710551F4911108C080917C
:10107000E80082FF34C080E00895BC01F2CF809187
:1010800066048823C1F18530C1F18091E80083FDB9
:1010900030C08091E80082FDEACF8091E80080FFB7
:1010A000E1CF8091F3002091F200382F6115710596
:1010B00019F02830310558F091E02830310509F059
:1010C00090E02091E8002E772093E800CBCF81912B
:1010D0008093F100615071092F5F3F4FE7CF8091FE
:1010E0006604882341F0853041F08091E80083FF59
:1010F000BECF81E0089582E0089583E008950895C9
:101100000895089580915B04089587E797E7909389
:1011100001088093000888E19AE00FB6F894A8953A
:10112000809360000FBE90936000FFCF2FB7F894BC
:101130006091540470915504809156049091570425
:101140002FBF08959C01FC0132969FEF80E04191F2
:10115000461751F09F3F19F4411101C0982F8F5F3E
:101160008630A9F79F3F09F40895290F311D97FD97
:101170003A95F90162830895FC01680F791F8FEF9A
:1011800091E32191822728E030E087FF09C0880F92
:10119000892721503109C9F7E617F70791F7089514
:1011A000880FF7CFFA01811101C0FB01099508955D
:1011B0000895E4E6F3E011828281846082830895D9
:1011C00080914604982F9E7F61F4817082608093A5
:1011D000460480914904893718F088E780934904D0
:1011E00008958833B0F381708663F1CFAF92BF92D8
:1011F000DF92EF92FF920F931F93CF93DF93082F0D
:10120000162FE901E42FF0E0EA52FD4F611110C002
:10121000E4915E2F4E2F4983E8835A83DF91CF916B
:101220001F910F91FF90EF90DF90BF90AF900895C6
:10123000E62EF12C4491D42EE42FF0E026E0829F9C
:10124000C00111242FEF30E0B9010E94A035802F9A
:1012500090E0880F991F55E5569FD001579FB00D1C
:1012600011248A1B9B0B982F990F890F5901AE18D7
:10127000BF08AE9ED001AF9EB00DBE9EB00D112432
:101280005B2F189F80011124012F11275901A01AEB
:10129000B10AAE9E8001AF9E100DBE9E100D1124AE
:1012A0005901A81AB108AE9CC001AF9C900DBE9C1C
:1012B000900D1124892F9927281B390B2E9FC001CF
:1012C0002F9F900D3E9F900D1124E92F62307105E4
:1012D000A1F050F46115710509F49DCF61307105DD
:1012E00081F0EB2F512F97CF6430710569F080F0BA
:1012F0006630710509F48FCFF4CFE42F4B2F592FAF
:101300008ACFE42F412F87CFEB2F542F492F83CF44
:101310004B2F5D2DE12F7FCFCF93DF93E1E7F4E0FB
:1013200083819481A581B681E90188839983AA8309
:10133000BB831482138216821582DF91CF910895A8
:1013400080E0089563E070E082E992E00E94BC08CA
:1013500090919102891318C0E0919202ED30A4F4AB
:1013600088E0E802F0011124E55FFE4F0680F78176
:10137000E02D309749F025EB32E04091940265E989
:1013800072E08091930209950895EBE7F2E0808D79
:1013900080934301818D8093560108959091F102CD
:1013A00092FF06C0282F28712830F9F4877F8460C7
:1013B00093FF06C0282F28712831F1F4877E8461BD
:1013C0002091F20220FF06C0382F38713830D9F44E
:1013D000877F816021FF06C0282F28712831D1F432
:1013E000877E816194FD877E0895282F24712430A3
:1013F000F9F68B7F8860DCCF282F2471243101F728
:101400008B7E8861DDCF382F3171313019F78E7FB7
:101410008860E0CF282F2171213121F78E7E8861ED
:10142000E1CFCF93DF93EC018238910589F1E0F5AC
:101430008133910509F499C028F58932910509F4A1
:1014400089C08A9709F498C0C11523E5D20708F02E
:10145000B3C0C11532E5D30708F00FC1C11540E292
:10146000D40708F097C0C11581E0D80758F5C53AF0
:10147000D10508F088C0C430D10520F5C130D105B0
:1014800009F145C08533910509F45FC0C997E1F6BC
:101490008091F102837009F025C18091F20283FFEF
:1014A00011C0C9E2D0E00EC0833E910599F170F4FD
:1014B000803E910501F1823E910531F68091F10265
:1014C00082FD21C0CE01DF91CF910895863E910526
:1014D00061F1873E910571F1843E910509F0B4CF29
:1014E0008091F20281FFEECF8091F102C7EED0E051
:1014F00084FD0DC0E7CF8091F10280FD33C0909153
:10150000F20290FFDFCFC3EED0E084FFDBCFD0E06C
:10151000C0E0D8CF8091F10282FDE1C09091F2024B
:1015200090FDE0C084FFCECFF2CF8091F10283FD29
:10153000DDCFC8CF8091F10283FDD7C09091F20238
:1015400091FFF0CFC4EED0E0BDCF8091F10285FFD6
:10155000B9CFA7CF8091F10285FDCAC08091F20278
:1015600083FFB0CFC9E3D0E0ADCF8091F10286FF19
:10157000A9CFCAE2D0E0A6CF8091F10286FFA2CF28
:10158000C1E3D0E09FCFCE01815E9109079708F4B7
:1015900099CFBDCFC11521E5D20708F069C0C115AB
:1015A00030E5D30708F050C0C11540E4D40708F473
:1015B000AECFDF70D06A86CFC11586E5D807F0F4CC
:1015C000C11525E5D20708F071C0C11534E5D30770
:1015D00008F067C0CE018370992721E030E002C097
:1015E000220F331F8A95E2F7C695C69540E2C49F45
:1015F000E0011124C22BD32BDA6864CFC1154AE570
:10160000D40778F4C11589E5D80708F05AC0C11588
:1016100028E5D20708F47BCFDC2FCC27C06FD06A37
:1016200051CFCE0190568115904208F070CF8D2F8A
:101630008F710E94CE0990E0982F882788279F718C
:101640009C012C2BE9013BC0CE018370992721E03E
:1016500030E002C0220F331F8A95E2F7C695C69587
:1016600040E2C49FE0011124C22BD32BDD682ACFB6
:10167000DC2FCC27C16FD06A25CFCE01837099278C
:1016800021E030E002C0220F331F8A95E2F7C695B1
:10169000C69580E2C89FE0011124C22BD32BDC68E1
:1016A00011CFDC2FCC27C46FD06A0CCF8C2F0E94B7
:1016B000CE09C82FD0E0DC2FCC27CC27DF71D06239
:1016C00001CF8C2F8F700E94CE0934E0D695C7953C
:1016D0003A95E1F7CF709C2FEC01D069F3CEC2EEC2
:1016E000D0E0F0CEC0EED0E0EDCEC6EED0E0EACE57
:1016F000C5E3D0E0E7CE0E94960808958091780275
:101700008111109278020895809590915904982340
:1017100090935904089580916D0290913C02981322
:1017200001C008958F5F8770FACF9C3080F58830B4
:1017300070F548E0949F90011124820F932F911D22
:10174000682F677023E0969587952A95E1F7FC014D
:10175000EE0FFF1FE80FF91FEE5EFD4F50E040E077
:1017600080E0219130E0062E02C0369527950A943C
:10177000E2F721703327042E01C0220F0A94EAF702
:10178000822B4F5F5F4F4330510559F7089580E03A
:1017900008959C3098F5883088F548E0949F900132
:1017A0001124820F932F911D282F277041E001C033
:1017B000440F2A95EAF723E0969587952A95E1F755
:1017C000FC01EE0FFF1FE80FF91FEE5EFD4F90E0EA
:1017D00080E070E05191DF0111979B01082E02C05B
:1017E000369527950A94E2F7217021952527242321
:1017F00025272C9301968330910561F70895982F42
:1018000092959F7011F0892F94E0282F26952695A8
:1018100011F09E5F822F869509F09F5F892F0895B2
:101820009C013A9521153F4150F5FC01EE27F170DE
:10183000BC0166277270AC01442754709C012227BA
:10184000387094FF0EC080E1EF2B09F480E0672B25
:1018500009F08062452B09F08064232B89F08068B1
:10186000089581E0EF2B09F480E0672B09F0826096
:10187000452B09F08460232B19F08860089580E0DF
:101880000895CF93C82F80917E048C1751F00E9449
:10189000960860937F0470938004809381049093F2
:1018A0008204C0937E04CF910895B0E0A0E0EBE500
:1018B000FCE00C94BE35FC01EB0190918304911186
:1018C00001C094E06081718191509B01092E02C09A
:1018D000359527950A94E2F7D901092E02C0AA0F7F
:1018E000BB1F0A94E2F76A1B7B0B718360836281E2
:1018F00073818B01092E02C0159507950A94E2F7B2
:10190000D80102C0AA0FBB1F9A95E2F76A1B7B0B96
:101910007383628381E80138BFEF1B072CF0802FAF
:10192000003811050CF08FE78D8321389FEF3907C0
:1019300054F1203831054CF5922F91959C83442326
:1019400019F081958D832C830E9496082D81211199
:1019500003C02C812223D9F0609384047093850402
:101960008093860490938704809188049BE0980F6D
:10197000973120F4080F009388041D82CDB7DEB79D
:10198000E8E00C94DA3521E8D7CF2FE7D5CFC09027
:101990008404D0908504E0908604F09087046C194C
:1019A0007D098E099F096436710581059105E0F274
:1019B00010928804D9CFFC01DB012281338191E8A8
:1019C00021388FEF38072CF0922F203831050CF09A
:1019D0009FE712969C9312972081318121388FEFD7
:1019E0003807A4F0203831059CF413962C931397F4
:1019F000442339F0919512969C9312972195139652
:101A00002C931182108213821282089521E8EDCF67
:101A10002FE7EBCF382F20E287FF02C031952DE270
:101A20004AE0832F642F0E94F735905D9093070260
:101A300081110BC02093060220E22093050220E2D0
:101A40002093040284E092E00895642F0E94F73509
:101A5000905D90930602832F64E60E94F7358823F9
:101A600061F3805D80930502EBCF9C01860F971F89
:101A700037FD07C077FD04C097FF02C08FEF9FE7D7
:101A8000089577FFFDCF97FDFBCF80E090E80895A4
:101A9000E82FE295EF70F0E031A1282F2F7081E060
:101AA00090E001C0880F2A95EAF7382B31A392A164
:101AB0008095892382A30895E82FE295EF70F0E0E6
:101AC00031A1282F2F7081E090E001C0880F2A9566
:101AD000EAF7982F9095932391A392A1892B82A343
:101AE0000895B0E0A0E0E7E7FDE00C94BE357C018E
:101AF0006B0180919E0601E010E08A3010F40AE04C
:101B000010E0C1E0D0E065EA76E0C701F601099592
:101B1000811104C021960C171D072CF4CDB7DEB738
:101B2000E8E00C94DA35CC9F9001CD9F300D300D5C
:101B3000112490E080E045E34A95F1F7000001961A
:101B400082179307C1F7DFCF9C0184E08093E900FF
:101B50009FEF8091E800915085FD06C085ED8A9544
:101B6000F1F700009111F5CF8091E80085FF0CC0DE
:101B700050E040E066E070E0C9010E944B078091B0
:101B8000E8008E778093E8000895CF93DF93EC010F
:101B900081E08093E9008FEF9091E800815095FDFE
:101BA00006C095ED9A95F1F700008111F5CF80916F
:101BB000E80085FF14C050E040E068E070E0CE012E
:101BC0000E944B078091E8008E778093E80088E0C0
:101BD000FE01ACE5B4E001900D928A95E1F7DF914A
:101BE000CF910895609195018091460480FF20C0B7
:101BF0008091940143E0849FC001112489599C4F36
:101C0000539A2BB1277F3BB138605FB7F894FC0142
:101C1000649FE00DF11D1124BF0168177907D1F40D
:101C20005FBF8FE594E00197F1F700C000000895D1
:101C3000809196019091970123E0829FF0011124F9
:101C4000E959FC4F8917A0F61182108212828F5F2A
:101C50003396F8CFFC014191CF01E8E03BB9000099
:101C600000C047FF2BB9440F000000C000C000C0F7
:101C70002BB900C0EA9591F7D0CFEF92FF920F9366
:101C80001F93CF93DF93EC018C81811109C081E018
:101C90008C831092450492E090939201809391017D
:101CA000809196019091970123E0829FF001112489
:101CB000E959FC4F891758F110E003E06091980151
:101CC000161758F10E94F20D809191012091450460
:101CD000280F2093450490919201980F90939201C0
:101CE000191654F4022E000C330B40919801415008
:101CF000550B2417350734F081958093910181307D
:101D000009F41C82CDB7DEB7E6E00C94DC35118215
:101D1000108212828F5F3396CDCFE12EF12C70E0CE
:101D2000C7010E94053620919601820F482F50E08E
:101D300020914504022E000C330BE216F306D4F07A
:101D400020919201022E000C330B2E153F0594F0CA
:101D5000809F9001112429593C4F409149044937F3
:101D600008F048E760914804809147040E94F60813
:101D70001F5FA4CFFA01EE0FFF1FE40FF51FE95913
:101D8000FC4F118210821282F3CFEF92FF921F93C9
:101D9000CF93DF93EC0110E0EE24EA94F12C6091F4
:101DA0009801161770F00E94F20D9A818C8190FFB5
:101DB0002AC08F5F8C83DF91CF911F91FF90EF90AE
:101DC000089520919601422F410F5527551FCA01B2
:101DD0009A01220F331F280F391F29593C4F409178
:101DE0004904493708F048E770E0C7010E9405360A
:101DF000962F8C8160914804199F800D11240E94B8
:101E0000F6081F5FCCCF8150D5CF9091460490FF4C
:101E10000EC0909196012091970133E0939FF001BD
:101E20001124E959FC4F921718F00E94F20D089501
:101E30008183608342839F5F3396F5CFA3E0B0E058
:101E4000E4E2FFE00C94C4359091460490FF0DC08D
:101E5000493708F048E79E012F5F3F4F0E94F60880
:101E60004B8169818A810E94050F2396E2E00C94E0
:101E7000E035CF93DF93EC01E6E4F4E04381628147
:101E80008C810E941E0F8C818F5F8C83DF91CF919C
:101E90000895CF93DF93EC01EC81F0E0E552FC4F25
:101EA0004491E6E4F4E0628181810E941E0F8C81FE
:101EB0008F5F8C83DF91CF910895E6E4F4E0808119
:101EC0008E7F80830E94D908E4E6F3E082818160FE
:101ED00082832FEF80E792E0215080409040E1F72D
:101EE00000C000000E94F20D089580917A028111D5
:101EF00019C082E390E02091E30027FD10C0EFE3DA
:101F0000FCE93197F1F700C000000197A1F782E0EA
:101F100080937A020E94FB061092660403C081E05F
:101F200080937A0281E090917A02913011F080E002
:101F3000089508950E94750F882359F0E091510487
:101F4000F0915204309729F00190F081E02D09952D
:101F5000089580E008950F931F930E94750F8823C2
:101F600029F00E9496081F910F9108950E949608EB
:101F70000091EB021091EC022091ED023091EE0203
:101F8000600F711F821F931FEECF57985F9A879A39
:101F90008F9825E02A95F1F7000089B187988F9AEC
:101FA00090EA9A95F1F790E0880F892F881F990B96
:101FB00021E0822781700895CF93DF93809171048F
:101FC000C5E28111C2E280917204D0E0882329F039
:101FD00080917304D5E28111D2E20E94C50F811174
:101FE0000FC08D2F80939401C0939501CD0F109257
:101FF0009601C0939701C0939801DF91CF91089506
:1020000080E0F0CF80917104F90180830E94DC0FA1
:102010000895CF93DF93682F81E06A3019F06D3017
:1020200031F480E00E949710DF91CF910895809164
:102030009C0690919D0626E0FC01A6E9B6E0019081
:102040000D922A95E1F7603E08F458C026E0FC01A5
:1020500011922A95E9F7C0919C06D0919D0646E021
:1020600050E0BE0186E996E00E943C369E0126596A
:102070003440892B41F1C90145E0969587954A95F1
:10208000E1F741E050E0BA0102C0660F771F8A9580
:10209000E2F7CB016091940470919504862B972B05
:1020A000B9016B5F7F4FE5E076956795EA95E1F7BB
:1020B00002C0440F551F6A95E2F7842B952B90932D
:1020C0009504809394042A5F3F4F40919304642FBA
:1020D00070E0C9010E94A035481B463010F4240F5F
:1020E000311D211572E0370710F030E020E02A564C
:1020F0003B4F30939D0620939C0696CFF6E06F9F52
:10210000B00111246858774F46E050E00E9426360F
:10211000A2CFCF93DF93EC01FE018491811103C024
:10212000DF91CF9108950E9409102196F5CFCF93AA
:10213000382FE0919C06F0919D06E659F4402091DD
:102140009304622F70E0CF010E94A035281B822FDC
:10215000332361F066E00E94EB35C82FC15010F4C4
:10216000CF91089580E20E940910F8CF9F01280FB7
:10217000311D2115324018F080E0F0E0E0E08E0FD4
:102180009F2F911D8A569B4F90939D0680939C068E
:10219000E7CFAEE1B0E0EFECF0E10C94C435409154
:1021A00058035091590360915A0370915B038091D9
:1021B0005C0390915D030E940A1C209358033093A6
:1021C000590340935A0350935B0360935C037093ED
:1021D0005D0386E0E8E5F3E0DE01179601900D92DD
:1021E0008A95E1F786E0FE013796DE011D960190A3
:1021F0000D928A95E1F786E0FE013D96DE0111968B
:1022000001900D928A95E1F786E0FE013196A8E5EE
:10221000B3E001900D928A95E1F786E0E8E5F3E0FE
:10222000DE01599601900D928A95E1F786E0FE0154
:102230007996DE01179601900D928A95E1F786E076
:10224000FE013796DE01119601900D928A95E1F715
:1022500086E0FE013196DE01539601900D928A953B
:10226000E1F786E0FE017396DE01179601900D926C
:102270008A95E1F786E0FE013796A8E5B3E0019084
:102280000D928A95E1F746E050E062E573E088E55B
:1022900093E00E943C36892B79F0E0915104F09153
:1022A0005204309749F082E0809358030480F5810E
:1022B000E02D88E593E0099510925A0310925B0394
:1022C00010925C0310925D0386E0E8E5F3E0A2E57E
:1022D000B3E001900D928A95E1F76E96E2E00C94DE
:1022E000E0358091590490917702892B8093F20117
:1022F00090917802992391F0892B8093F20120E04C
:1023000084EF91E0FC013191CF0131112F5FF1E0B9
:102310008A3F9F07B9F721110E947E0B48E050E0E9
:102320006FE672E082EF91E00E943C36892BA9F0C3
:1023300088E0E2EFF1E0AFE6B2E001900D928A951D
:10234000E1F7E0915104F0915204309731F00280AE
:10235000F381E02D82EF91E009950895E4EFF1E03B
:1023600086E0DF011D928A95E9F7109277020E94BC
:1023700071110895AAE2B0E0E0ECF1E10C94C335EC
:1023800088E694E02091F100DC012D93CD01B4E0CA
:1023900080379B07B9F780916904833009F472C0D4
:1023A000B8F4813009F449C0823009F4B5C0809195
:1023B000E80083FF8DC280916804909169049A308F
:1023C00008F086C2E92FF0E0E456F94C0C94193677
:1023D0008A3009F490C08B3009F471C0893039F724
:1023E00080916804813219F780916C0490916D049A
:1023F000009711F00297D9F68091E800877F8093CB
:10240000E8008091E80082FF38C09091F30080914D
:10241000F200029731F48091F100813011F08630A2
:1024200021F48091F10080935B048091E8008B7728
:102430008093E8000E947507BACF80916804813AC2
:1024400009F0B5CF8091E800877F8093E800809104
:102450006C0490916D04892B61F468E08CE594E044
:1024600070E00E9421088091E8008B778093E8005B
:102470009ECF60E090E080E0F3CF80916604811110
:10248000C0CF95CF80916804813A09F090CF8091B8
:102490006C0490916D04892B09F089CF8091E8003C
:1024A000877F8093E8008091E80080FFFCCF8091D7
:1024B00093018093F1008091E8008E77B9CF8091ED
:1024C0006804813209F073CF80916C0490916D049F
:1024D000892B09F06CCF8091E800877F8093E8001A
:1024E0000E94750780916A048093930110925904A9
:1024F0000E94AE115CCF80916804813209F057CF01
:102500008091E800877F8093E8000E9475078091A2
:102510006B0480935A044BCF80916804813A09F090
:1025200046CF8091E800877F8093E8008091E800A3
:1025300080FFFCCF80915A04BCCF803899F082385C
:1025400009F0C6C180916C048F70873008F0C0C15B
:102550008093E9008091EB0085FB882780F9109239
:10256000E90006C080916404909165049111826035
:102570009091E800977F9093E8008093F10010928B
:10258000F1008091E8008E779FC1882309F48DC106
:10259000823009F09DC180916A04811190C18091BF
:1025A0006C048F702FEF280F263008F091C18093B4
:1025B000E9002091EB0020FF82C1933031F480913B
:1025C000EB0080628093EB007AC19091EB00906108
:1025D0009093EB0021E030E001C0220F8A95EAF7EA
:1025E0002093EA001092EA008091EB008860EACF25
:1025F00081116EC110916A041F778091E300807889
:10260000812B8093E3008091E800877F8093E8002E
:102610000E9475078091E80080FFFCCF8091E30065
:1026200080688093E30082E0111183E08093660468
:102630004FC18058823008F04BC120916A0430911C
:102640006B042C3DE3E03E07A1F583E08A838AE238
:1026500089834FB7F894DE01139620E03EE051E203
:10266000E32FF0E050935700E49120FF03C0E29580
:10267000EF703F5FEF708E2F90E0EA30C0F0C796AA
:102680008D939D932F5F243159F74FBF8091E800C0
:10269000877F8093E8006AE270E0CE0101960E9495
:1026A00021088091E8008B778093E80011C1C096E3
:1026B000E7CF80916C0490916D04432F55274330F0
:1026C000510509F44AC078F54130510509F47AC042
:1026D0008BE590E0EFEDF7E04230510509F0F8C0EE
:1026E0002091E800277F2093E80020916E0430912C
:1026F0006F048217930708F49C0140E0211531050F
:1027000009F065C0411163C08091E80082FDC9CF26
:1027100080916604882329F2853019F28091E800BF
:1027200083FFF2CFBECF4132510509F43CC04232A3
:10273000510509F0CDC08330910508F0C9C0FC01F6
:10274000EE0FFF1FED51FE4F0190F081E02D805202
:102750009E4FDC018C9190E01AC033272130310567
:10276000D1F02115310561F02230310509F0B0C0FA
:10277000ECE4F8E0E4918E2F90E0ECE4F8E007C0A0
:10278000E4E7F8E0E4918E2F90E0E4E7F8E00097CA
:1027900009F49EC0A5CFECE5F8E0E4918E2F90E01F
:1027A000ECE5F8E0F4CF8330910508F091C0880F94
:1027B000991FFC01E751FE4F0190F081E02D89E067
:1027C00090E08ECF82E190E0EAE3F8E089CF80915B
:1027D0006604882309F465CF853009F462CF8091BF
:1027E000E80083FD5ECF8091E80082FD8DCF80916F
:1027F000E80080FF83CF9091F3008091F2002115D3
:10280000310519F08830910550F041E0089709F042
:1028100040E08091E8008E778093E8006FCF44918C
:102820004093F1003196215031090196E8CF80386C
:1028300009F04EC08091E800877F8093E800809186
:1028400067048093F1009DCE811142C010916A040B
:102850001230F0F58091E800877F8093E8001093B4
:1028600067040E947507112311F084E005C0809170
:10287000E30087FDFACF81E08093660442E061ECDB
:1028800081E00E94940742E261EC84E00E94940798
:1028900042E261EC82E00E94940742E260EC83E055
:1028A0000E9494078091660413C080916A0481306D
:1028B00079F481E0933009F080E080936504109210
:1028C000E9008091E800877F8093E8000E94750707
:1028D0008091E80083FF0AC08091E800877F8093A1
:1028E000E8008091EB0080628093EB00AA96E3E021
:1028F0000C94DF35109259040E94AE112FEF84E33F
:102900009CE0215080409040E1F700C0000088E149
:102910009AE00FB6F894A895809360000FBE90934C
:102920006000FFCFCF93C82F0E94FF0B91E0833050
:1029300009F090E0892F0E94410CC093700410921E
:1029400077020E947111CF91089580917004982FA1
:102950009670963021F488600E9492140895877FC3
:10296000FBCF21E030E001C0220F8A95EAF72095E5
:102970008091700482230E949214089590916E02B7
:102980008095892380936E02282F277091F4282F39
:10299000082E000C330B9217130659F09091F20297
:1029A00092FF07C08595859585950E94B114109278
:1029B0006E02089521E030E001C0220F8A95EAF707
:1029C00080917004822B0E94921408958093790262
:1029D000109277020E9471110895882341F080952A
:1029E000909177028923809377020E947111089554
:1029F000882339F090917702982B909377020E9468
:102A000071110895882321F00E94840B0E94711196
:102A10000895882339F090915904982B9093590484
:102A20000E94711108958823E1F19CEF980F913A6B
:102A300080F4E4EFF1E02AEF31E09191891303C0D3
:102A4000DF0111971C922E173F07B9F70E947111F1
:102A5000089590E2980F983050F4877091E001C08B
:102A6000990F8A95EAF7892F0E94840BEFCF9BE597
:102A7000980F9330B8F480910E0290910F02892B39
:102A800081F010920F0210920E02E0915104F09129
:102A90005204309731F00680F781E02D90E080E01D
:102AA00009950895885A8731E0F780911002909136
:102AB0001102892BB1F31092110210921002E091D1
:102AC0005104F0915204309761F30084F185E02DB8
:102AD000E5CFCF93C82F8823A9F08CEF8C0F813AD4
:102AE00000F5E4EFF1E0DF018D91C81769F081E0B6
:102AF000AA3FB807C9F76C2F82EF91E00E94A208A5
:102B00000E947111CF9108958191C81303C0DF0114
:102B100011971C9281E0EA3FF807B1F70E9471110A
:102B2000EACF80E28C0F883068F7C77021E030E090
:102B300001C0220FCA95EAF780915904822B809335
:102B40005904DECF1F93CF93DF93182FEB010E9420
:102B500069158FE99FE00197F1F700C00000219708
:102B6000C1F7812F0E941315DF91CF911F91089516
:102B70000F931F93CF93DF93EC01FC010190002092
:102B8000E9F78F0101501109C017D10728F0DF9133
:102B9000CF911F910F91089589910E940910F4CF50
:102BA000B0E0A0E0E6EDF5E10C94BE356C017B01F0
:102BB00064E670E088E70E94FE32EC0197FD12C0E7
:102BC00010E000E0F601E00FF11F849164E670E090
:102BD0000E946A33EC01892B29F40F5F1F4F0E15F9
:102BE0001F0581F70E94E033CE01CDB7DEB7E8E0E4
:102BF0000C94DA3580914F0490915004911103C0E8
:102C000091E089270895882369F062E070E08DEDF6
:102C100094E00E94D015892B19F080914F040895FB
:102C200010924F0480914F04EBCFCF93C0914F048B
:102C3000809150048823D1F00E949608605A754113
:102C40008F4F9F4F60934B0470934C0480934D04BF
:102C500090934E04C11108C062E070E08BED94E0E7
:102C60000E94D015892B29F0C0914F048C2FCF9151
:102C7000089581E080934F04F7CFCF93DF93C7E2AD
:102C8000D3E060E0CE010E9466362196C11584E053
:102C9000D807B9F7DF91CF9108951F93CF93DF93B2
:102CA000122F8430E0F46C30D0F44830C0F490E15E
:102CB000699FE001112450E0440F551FC40FD51F38
:102CC00090EC899FC00DD11D1124632FCE018796F2
:102CD0000E946636612FCE0188960E946636DF918B
:102CE000CF911F910895AF92BF92CF92DF92EF9252
:102CF000FF921F93CF93DF938FEDC82E84E0D82EE1
:102D0000D0E07601C0E014C0F50125913491412F47
:102D10006C2F8D2F0E944D1682E0A80EB11C1F5FF4
:102D2000183091F780E1E80EF11CCF5FCC3019F03C
:102D3000570110E0E9CFDF5F80ECC80ED11CD43022
:102D400001F7DF91CF911F91FF90EF90DF90CF902F
:102D5000BF90AF90089586E290E00E946636089595
:102D6000CF93C82F6FEF811163E283E290E00E945E
:102D700066366FEFC11161E084E290E00E94663632
:102D80006FEFC11162E085E290E00E946636CF915C
:102D9000089580E00E94B01660E070E0CB010E94D0
:102DA000AB160E9473160E943D1681E00E94B01679
:102DB0000895CF93C091F202C2FB992790F998171A
:102DC00091F080FBC2F9C093F2026091F10284E0BD
:102DD00090E00E9466366C2F82E290E00E94663698
:102DE00082E00E94BE14CF9108950F931F93CF935A
:102DF000DF93843030F56C3020F5483010F520E159
:102E0000629F8001112450E0440F551F040F151FCD
:102E100030EC839F000D111D1124C80187960E947C
:102E20005236C82FD0E0DC2FCC27C80188960E94EC
:102E300052369E01282BC901DF91CF911F910F912E
:102E4000089590E080E0F8CF462F843040F47C3045
:102E500030F4683020F4672F0E94F516089590E052
:102E600080E00895CF92DF92FF920F931F93CF934C
:102E7000DF936C010091700480917902082BC7E008
:102E8000D0E010E0FC2EC8010C2E02C0959587956D
:102E90000A94E2F780FD0CC02197A0F7F12C8F2D4A
:102EA000DF91CF911F910F91FF90DF90CF90089508
:102EB000B6018C2F0E9424170E94110A019761F31A
:102EC000EECFCF93DF93EC010E943217BE010E9438
:102ED00024170E94110ADF91CF910895FC0183818C
:102EE0009481892B29F08081918189238F3F51F42E
:102EF00080E00895843FE1F717C0883EA8F0813F45
:102F0000B9F712C0808191810E94611792959F70DC
:102F1000963099F358F4925F9F70923048F7803F53
:102F200019F040F7883E20F781E008959A5FF4CFCA
:102F3000CF92DF92EF92FF921F93CF93DF93813076
:102F400009F453C0882309F44AC0823009F453C0FD
:102F5000833009F452C08D2F9C2F0E9432176D2FA1
:102F60007C2F0E942417EC0195E0E92EF12CC93347
:102F7000D10519F480E5E82EF12C6E0180EEC81A17
:102F8000D108CE010E94100C182F98E0C916D10468
:102F900010F02097A1F50E9409158C2F0E94691549
:102FA0008FE99FE00197F1F700C0000091E0E91A76
:102FB000F108B1F78C2F0E94131588E0C816D104D0
:102FC00010F0CD2BF9F4812F0E94021581E0DF91E2
:102FD000CF911F91FF90EF90DF90CF900895C5E0C3
:102FE000D2E06111B8CFD3E0B6CFC5E0D0E0611137
:102FF000B2CFD1E0B0CFCBE0F3CFCBE0F7CF0E94A0
:10300000F814CBCF812F0E94ED14E0CF86E290E040
:103010000E945236682F70E090E080E0089583E2CD
:1030200090E00E945236833289F484E290E00E945C
:103030005236813059F485E290E00E94523691E098
:10304000823009F090E0892F8170089580E0FCCFF4
:10305000CF92DF92EF92FF926B017C010E94E00819
:10306000B701A60188E090E00E947836FF90EF90CB
:10307000DF90CF900895A3E0B0E0E1E4F8E10C9494
:10308000BD35F82ED62E042FC22E9091460490FF07
:103090003EC0E92FE695AE2FB0E0AC53BE4F8C9109
:1030A000809364039E7F9230B1F5493708F048E77A
:1030B0009E012F5F3F4F6D2D8F2D0E94F6084B8193
:1030C00069818A810E94050F809147048F1108C091
:1030D000809148048D1104C080914904801729F023
:1030E00080916603826080936603F0924704D092D9
:1030F000480400934904CC2051F06091460470913B
:10310000470480914804909149040E94281823960E
:10311000E9E00C94D935823019F400914904D4CFF8
:10312000863019F4F0904704CFCF8930D9F382313B
:1031300059F6E2516E2F6170B62EE695F0E0EA5234
:10314000FC4F1491E12C60919801E61618F00E9452
:10315000F20DBACFE19EC001112470E00E94A035AB
:103160008F2DB11017C0860F20919601622F6E0D22
:103170007727771F9B01220F331F260F371F2959EF
:103180003C4F402F093708F048E76D2D0E94F608A4
:10319000E394D9CF861BE8CFE6E4F4E043812CE04A
:1031A000421B08F440E021E0628181810E943B18CB
:1031B0000895E6E4F4E043812CE0420F08F44FEF79
:1031C00021E0628181810E943B180895E6E4F4E0E9
:1031D000628121E1621B08F460E021E0438181818A
:1031E0000E943B180895E6E4F4E0628121E1620F59
:1031F00008F46FEF21E0438181810E943B1808951C
:10320000E6E4F4E0818121E04381628181510E9402
:103210003B180895E6E4F4E0818121E04381628176
:103220008F5E0E943B18089580914A04882319F00C
:10323000815080934A0460914604709147048091C4
:103240004804909149040E942818089580914A04E6
:10325000833018F48F5F80934A0460914604709124
:10326000470480914804909149040E9428180895C9
:10327000E6E4F4E083E0808311828FEF828388E7C5
:1032800083831482A4E6B3E012968C911297836034
:1032900012968C9360817181828193810E9428189B
:1032A000089568EE7EEF90E080E00E94843660E052
:1032B00082E090E00E94663660E083E090E00E9449
:1032C00066361092790260E084E090E00E946636F3
:1032D00064E082E290E00E94663660E085E090E083
:1032E0000E94663660E086E090E00E9466366FEFEE
:1032F00087E090E00E94663640E050E0BA0188E046
:1033000090E00E94783660E08DE090E00E946636A2
:1033100040E050E0BA0188E190E00E94783660E039
:1033200087E190E00E94663640E050E0BA018CE10F
:1033300090E00E94783670E060E080E290E00E94C9
:10334000843640E050E0BA0188E190E00E9478368F
:1033500080E00E94B0160E94C91640E050E0BA0119
:103360008FE090E00E94783640E050E0BA0183E1BF
:1033700090E00E9478360895B0E0A0E0E2ECF9E138
:103380000C94BF357901C82F880FDD0B411551050D
:10339000A9F0FE0193E0EE0FFF1F9A95E1F7E55FBC
:1033A000FE4F8181928185589D4F208130E04217E8
:1033B000530708F49A01A9010E944936CE010E94E0
:1033C0002A35D82E8823D1F001151105B9F083E0F4
:1033D000CC0FDD1F8A95E1F7FE01E55FFE4F4381CB
:1033E00050E00417150708F4A801C55FDE4F6C8193
:1033F0007D8165587D4FC7010E9449368D2DCDB71F
:10340000DEB7E7E00C94DB35A5E0B0E0EAE0FAE1F6
:103410000C94BC358D83E62E5A01F22E6801809102
:103420009E068A3028F080E02596EAE00C94D83594
:103430008D818A30C4F31A8219828A836B832C832C
:1034400063E070E0CE0102960E94BC088983E0929E
:103450004301F092560110E000E030E020E044E04B
:1034600050E0BE016F5F7F4F86E00E94BC19882349
:10347000D1F24E2D50E030E020E0B50187E00E940F
:10348000BC19882381F230E020E041E050E0BE0129
:103490006B5F7F4F88E00E94BC19882321F20F2DBB
:1034A00010E0960150E040E070E060E089E00E94AA
:1034B000BC19BACFA8E0B0E0E0E6FAE10C94C2355E
:1034C00085E0E6E4F4E0DE01119601900D928A9524
:1034D000E1F78091640390916503A09166038E8368
:1034E0009F83A88728854091E7025091E802609168
:1034F000E9027091EA023FB7F894809154049091E8
:103500005504A0915604B09157043FBF841B950BFE
:10351000A60BB70B84369105A105B10510F4222343
:10352000C1F010E000E030E020E048E050E0BE01F3
:103530006F5F7F4F85E00E94BC19882369F00E946D
:1035400096086093E7027093E8028093E9029093F3
:10355000EA021092660381E02896E4E00C94DE35DE
:10356000A4E0B0E0E6EBFAE10C94C2354091E3024E
:103570005091E4026091E5027091E6022FB7F89451
:103580008091540490915504A0915604B091570431
:103590002FBF841B950BA60BB70B11E0843691054A
:1035A000A105B10518F10E94AB0F6E5F7F4F8F4FE1
:1035B0009F4F69837A838B839C8310E000E030E027
:1035C00020E044E050E0BE016F5F7F4F84E00E9446
:1035D000BC19182F882351F00E9496086093E302CB
:1035E0007093E4028093E5029093E602812F249683
:1035F000E4E00C94DE35A1E0B0E0E1E0FBE10C9406
:10360000B935762E4A015901680101E010E09E01AA
:103610002F5F3F4F50E040E070E060E00E94BC1937
:10362000182F882309F440C0F40140815181628140
:1036300073812FB7F8948091540490915504A09110
:103640005604B09157042FBF841B950BA60BB70BE4
:1036500084369105A105B10538F4B701C6010E9471
:10366000BC089981891701F18701950150E040E07C
:1036700070E060E0872D0E94BC19B82EB701C6012A
:103680000E94BC0811E09981981310E01B2139F0C9
:103690000E949608F4016083718382839383812F53
:1036A0002196EDE00C94D535A701B601C5010E9425
:1036B0004936F5CFA2E0B0E0E0E6FBE10C94BD3581
:1036C00082E0E82EF12C03E812E09E012F5F3F4FCD
:1036D0004FED52E063E082E00E94FB1AC82E88237F
:1036E00039F100E080E01DC0D090F502D00E2D2D04
:1036F00030E0A901485F5C4F7A01E1E0F0E0EC0FB7
:10370000FD1FE00FF11D1081FA019081191BB12EF0
:103710001B149CF0912F17FD90E0191B111118C07C
:103720000F5F9091F4020917F8F281110E947B0B50
:103730008C2D2296E9E00C94D935BA94F70180815A
:103740008F5F808360E08D2D0E9498178C2DE0CFD5
:103750001F5FF70180818150808361E08D2D0E9481
:1037600098178C2DDBCFA6E0B0E0E9EBFBE10C94E1
:10377000BE356B0186E0E82EF12C0CE712E09E01CD
:103780002F5F3F4F4BED52E061E080E00E94FB1A5B
:10379000882349F096E0FE013196A5EDB2E0019054
:1037A0000D929A95E1F796E0E5EDF2E0D6010190F1
:1037B0000D929A95E1F72696E8E00C94DA350E948E
:1037C000C50F80930A0180910A01882359F0109255
:1037D000940185E2809395010E94750F81110E94EA
:1037E0003E34089585E280939401F4CF90E080E028
:1037F0000E946036883E9E4F19F40E940F1808956B
:1038000080E0089528E030E043E060E086E30E9435
:1038100026320895ACE0B0E0E0E1FCE10C94BE3566
:103820004F83588769877A878B879C87809171043B
:10383000882399F00E94021C80E50E949E328AEB48
:103840008A95F1F700C00E94B632887899278038AF
:10385000910509F487C00E94CE320E94750F88231B
:1038600009F46BC00E9496080091090210910A02A7
:1038700020910B0230910C026B017C01C01AD10A1D
:10388000E20AF30A97018601083011052105310586
:1038900008F453C06093090270930A0280930B02EC
:1038A00090930C0200917F04109180042091810478
:1038B00030918204601B710B820B930B6233710594
:1038C0008105910580F41092750410927404109291
:1038D0007704109276041092790410927804109272
:1038E0007B0410927A0410917E040E94C50F482F29
:1038F000BE01695F7F4F84E794E0112309F45FC044
:103900000E94550C00917E04109171040E94C50F15
:1039100041E04827BE01695F7F4F88E794E00117C7
:1039200009F450C00E94550C86E0FE013796ADE8C0
:10393000B4E001900D928A95E1F786E0FE0137969A
:10394000DE01119601900D928A95E1F729813A8165
:103950004B815C816D817E8180E090E02C96E8E077
:103960000C94DA350E94B6320E94B6327C010E9475
:10397000B63220E0E22AF82A0E94B6328C010E9478
:10398000B63220E0022B182B0E94CE32F894B701F9
:1039900080917404909175040E94350D9093750484
:1039A00080937404B80180917604909177040E940A
:1039B000350D909377048093760478944ECF0E94CF
:1039C000DB0CA0CF0E94DB0CAFCFCF93DF93D82FBF
:1039D000C62F0E94021C8D2F80680E949E328C2F61
:1039E0000E949E320E94CE328FEC92E00197F1F756
:1039F00000C00000DF91CF910895682F893708F04B
:103A000068E760937C0491E090937D049091710449
:103A1000992359F06150811101C064E08FE00E9448
:103A2000E51C60E080E50E94E51C0895FB018081B3
:103A30000E94FD1C089590917C04911101C095E0B5
:103A4000282F880F330BA901490F511DCA011816E1
:103A5000190614F081E090E00E94FD1C0895CF93B8
:103A6000C82F0E94021C8C2F0E949E328FE792E08A
:103A70000197F1F700C000000E94B632C82F0E94E3
:103A8000CE329AE69A95F1F700C08C2FCF91089527
:103A9000CF93DF930E94C50F811142C00E941E3256
:103AA000269A0E94021C6AE58AE30E94E51C2FEF19
:103AB00080E792E0215080409040E1F700C0000094
:103AC00082E00E942F1D83E00E942F1D84E00E944F
:103AD0002F1D85E00E942F1D86E00E942F1D60E0B3
:103AE00080E10E94E51C80E00E942F1DD82F81E01C
:103AF0000E942F1DC82F0E94CE32D23419F481E0CB
:103B0000C13009F080E0817080937104882341F016
:103B100064E08FE00E94E51C60E080E50E94E51C07
:103B2000DF91CF9108951F920F920FB60F9211243B
:103B30002F933F934F935F936F937F938F939F93B5
:103B4000AF93BF93CF93DF93EF93FF93D091E900AF
:103B5000DF708091EC00C82FC17080FDC0E810922A
:103B6000E9008091F000877F8093F00078940E94B4
:103B7000BA111092E9008091F00088608093F00003
:103B8000CD2BCF70C093E900FF91EF91DF91CF91E2
:103B9000BF91AF919F918F917F916F915F914F9165
:103BA0003F912F910F900FBE0F901F9018951F926D
:103BB0000F920FB60F9211242F933F934F935F9361
:103BC0006F937F938F939F93AF93BF93EF93FF93E5
:103BD0008091E10082FF09C08091E20082FF05C070
:103BE0008091E1008B7F8093E1008091DA0080FF7B
:103BF00024C08091D80080FF20C08091DA008E7FA1
:103C00008093DA008091D90080FF9DC080E189BD5A
:103C100082E189BD09B400FEFDCF81E08093660496
:103C200080915804811109C00E94FB060E94C607BA
:103C30008091E20084608093E2008091E10080FF47
:103C400017C08091E20080FF13C08091E2008E7F58
:103C50008093E2008091E20080618093E200809195
:103C6000D80080628093D80019BC85E080936604F8
:103C70008091E10084FF2BC08091E20084FF27C087
:103C800080E189BD82E189BD89B5982F917080FF5F
:103C9000FBCF8091D8008F7D8093D8008091E10088
:103CA0008F7E8093E1008091E2008F7E8093E2001E
:103CB0008091E20081608093E20080916704882314
:103CC00009F447C084E08093660480916604809183
:103CD000E10083FF27C08091E20083FF23C0809131
:103CE000E100877F8093E10082E080936604109278
:103CF00067048091E1008E7F8093E1008091E20073
:103D00008E7F8093E2008091E20080618093E200E8
:103D100042E060E080E00E9494078091F0008860BB
:103D20008093F000FF91EF91BF91AF919F918F91A0
:103D30007F916F915F914F913F912F910F900FBEA7
:103D40000F901F90189519BC109266041092580499
:103D500074CF8091E30087FD93E090936604B5CF24
:103D600078941F921FB61F9211248F939F93AF9345
:103D7000BF938091540490915504A0915604B09142
:103D800057040196A11DB11D8093540490935504CE
:103D9000A0935604B0935704BF91AF919F918F9118
:103DA0001F901FBE1F9018959C014FB7F8948091EB
:103DB000540490915504A0915604B09157044FBFFC
:103DC000821B930B08952FB7F8948091540490911F
:103DD0005504A0915604B09157042FBF08950E9436
:103DE000750F882319F00E94E31E08950E94AB0FFF
:103DF000CB01089560914604669570E04BE050E079
:103E000086E891E00E942F36892B19F481E0809397
:103E100065030E94EF1E90935F0380935E03809181
:103E2000660384608093660308959091460490FF32
:103E300031C0917081112FC092609093460480919F
:103E40006603816080936603662351F060914604A7
:103E50007091470480914804909149040E94281869
:103E600060914604669570E04BE050E086E891E092
:103E70000E942F36892BB1F00E94D90881E08093EF
:103E8000610320E040914904609148048091470417
:103E90000E943B1808958C3110F09663CECF880FA6
:103EA000982BCBCF0E94FA1EE9CF809146048695CD
:103EB000815009F48BE161E00E94151F0895809103
:103EC000460486958F5F8C3108F081E061E00E94A6
:103ED000151F08959091460490FF08C09695981775
:103EE00028F0961718F40E945F1F089561E00E9461
:103EF000151F0895A2E1B0E0E0E8FFE10C94B535AC
:103F00008C01FC0183819481892B31F08081918126
:103F100089238F3F09F06EC56296E1E10C94D1359B
:103F20000E943217F82E682F89819A810E94C90B4E
:103F300069817A818F2D0E9424177C01F80182818A
:103F4000882309F44AC5C70182519F45409708F06C
:103F50000FC58FEF93E00E945236811128C0FEEE0C
:103F6000EF0E57E2852E53E0952EE11032C01C82F1
:103F70001B82442443944AE0342E74018FEFE81AE4
:103F8000F80AC4010E94523689831A82882379F084
:103F90009FEF980F933058F58A83498292E0890EFB
:103FA000911CC7010E9452368B83811121C08091E0
:103FB0006E02877009F4B0CFF8018281882309F47A
:103FC000ABCF8091F20282FFA7CF82E00E94BE14A5
:103FD000A3CF811424E0920651F3C4010E9452360B
:103FE000811101C0EA943FEF831A930ABECF4701C3
:103FF000FE0131967F01F7012081222309F4BDCF14
:10400000213009F06CC091818281913061F4F2E03D
:10401000EF0EF11C65E070E0893311F460E570E0AB
:104020000E94A21507C0923039F522E0E20EF11C81
:104030000E9469158FEFE81AF80AEFE9FFE031975F
:10404000F1F700C000008FE99FE00197F1F700C091
:104050000000EFE9FFE03197F1F700C000008FE9C1
:104060009FE00197F1F700C00000EFE9FFE0319712
:10407000F1F700C00000BFCF933031F432E0E30E1F
:10408000F11C0E941315D6CF943021F08FEFE81A5F
:10409000F80AD0CF92E0E90EF11C30E020E0B70141
:1040A0006F5F7F4FF70141818053990B8A309105F3
:1040B00058F02150310908F4BDCF8FE99FE00197F6
:1040C000F1F700C00000F5CF329EF001339EF00DF5
:1040D00011249C012E0F3F1F842F7B01E0CFE22F84
:1040E000F0E0E957FE4F5490822F8695869586958D
:1040F00090E0FC01E958FE4F64902770712C022E6D
:1041000002C0759467940A94E2F7E1E06E22772486
:10411000FC01E959FE4FA490B12C022E02C0B594C7
:10412000A7940A94E2F7F1E0AF22BB24FC01E95A1C
:10413000FE4FC490D12C02C0D594C7942A95E2F7C3
:1041400021E0C222DD246114710419F081EE0E9485
:104150006915A114B10419F086EE0E94691539E3BE
:1041600065E070E0531202C060E570E0852D0E94AA
:10417000A215A114B10419F086EE0E941315611462
:10418000710419F081EE0E941315C114D10409F4D1
:1041900051CF65E070E08CE243CF81E00E94DA14F9
:1041A0000E94A51404CF81E00E94B114F9CF82E0EF
:1041B000F5CF84EFE81AF10881E090E00E2C01C001
:1041C000880F0A94EAF7F801328126E0E8E5F3E087
:1041D000DE01179601900D922A95E1F726E0FE0187
:1041E0003796DE011D9601900D922A95E1F72885FC
:1041F0003323A9F0822B8E8786E0FE013D96DE01F7
:10420000119601900D928A95E1F786E0FE013196B4
:10421000A8E5B3E001900D928A95E1F7C8CE8095AC
:104220008223E9CFF80182810E94410CC0CE80E058
:104230000E94FD1C10928304BACE40917C045091E0
:10424000830450FB47F95695537060E070E08FE0AF
:1042500090E00E947836ABCE81E00E941B1DA7CE75
:104260008FEFFBCF8AE0F9CF86EFF7CF90917E04F6
:1042700081E08927D9CF80918304811101C084E036
:104280008F5F18160CF081E0883008F087E080938B
:1042900083048DCE80918304811101C084E081501C
:1042A000F0CFF6E1EF16FCE5FF0609F055C180916D
:1042B00059048A7A91E009F490E090930D0269E242
:1042C000811165E382EF91E00E94A2080E947111C2
:1042D0006ECE85E3ABC38091590482722CECE2165A
:1042E0002CE5F20609F424C108F098C096ECE91612
:1042F0009CE5F90609F408C108F069C0F3ECEF1673
:10430000FCE5FF0609F4F6C008F04EC032ECE316F7
:104310003CE5F30609F4C2C0F8018281E080F18037
:10432000882309F457C1C7010E943217D82E682F7D
:10433000C7010E94C90BB7018D2D0E9424170E944E
:10434000110A7C01882EF801C280B580B2943FE04A
:10435000B32280916E028770C1F0AC2CCC20B1F0FA
:104360008F2D807F803421F080E28E0D883068F0C0
:104370008091F20282FF09C082E00E94BE14809107
:104380006E028770AA24A3948111A12C9F2C929471
:104390002FE09222FBE0F91508F48BC1E92DF0E043
:1043A000EA55F94C0C94193694ECE9169CE5F9069B
:1043B00009F4A5C040E059E16AE079E1E5ECEE16C8
:1043C000ECE5FE0609F0A8CF0E94D208F0CDF9EC8A
:1043D000EF16FCE5FF0609F4A1C080F437ECE31604
:1043E0003CE5F30609F495C043EF58E166EE78E149
:1043F00098ECE9169CE5F90639F38ECFEAECEE1657
:10440000ECE5FE0609F48FC044E159E166E279E18A
:10441000FBECEF16FCE5FF06B9F27ECF21EDE216CC
:104420002CE5F20609F4C3CDC8F48EECE8168CE551
:10443000F80609F485C008F480C0EFECEE16ECE550
:10444000FE0609F480C06EE089E0F0EDEF16FCE5B1
:10445000FF0609F061CF0E946A1FA9CD24EDE21684
:104460002CE5F20609F475C068F482EDE8168CE5D7
:10447000F80609F46BC093EDE9169CE5F90609F41A
:1044800096CD4ACFE5EDEE16ECE5FE0609F48FCDAC
:10449000FDE5EF16FF0609F48ACD3ECF8091460474
:1044A00080FF20C08E7F8093460460914604709107
:1044B000470480914804909149040E9428180E9462
:1044C000D908809166038160809366032FEF30E7FF
:1044D00082E0215030408040E1F700C000000E949F
:1044E000F20D65CD81608093460461E086950E945F
:1044F000151F5DCD45E55FE16FE57FE165CF4FE5D8
:104500005FE165E57FE160CF4AE059E160E079E194
:104510005BCF46EE58E163EF78E156CF4CEC58E1C3
:1045200069ED78E151CF49ED58E16CEC78E14CCF81
:1045300046E259E164E179E147CF61E081E0D7CF1C
:1045400065E082E088CF68E086E085CF61E18FE0BA
:1045500082CF6BE182E17FCF9AE5E9169DE5F9060E
:10456000A9F168F4E114FCE5FF06B9F02EEDE216BE
:104570002CE5F20609F0D0CE0E9451190CC03CE5A2
:10458000E3163DE5F306C1F018F197EAE9169DE55B
:10459000F90609F0C1CE0E947A14109259040E94C3
:1045A000AE11EFEFF4E32CE0E150F0402040E1F7F2
:1045B00000C000000E9485088091F20282FB8827DB
:1045C00080F991E089270E94D916A6CE81E0FBCF21
:1045D00080E0F9CFC7010E94950BD82EACCE2F2DCD
:1045E0002F70D22E8F2D807F19F0D29490EFD92288
:1045F000CC20B9F0DD2069F080E28E0D883010F01B
:10460000811009C080915904D82AD09259040E947F
:1046100071118E2D4CC080917702D82AD0927702EA
:10462000F6CF8E2D0E941315DD2009F442C080E2E2
:104630008E0D883010F0811004C08D2D0E94840BE7
:1046400006C0D09480917702D822D09277020E943F
:1046500071112FC03F2D3F70D32E8F2D807F803260
:1046600019F0D29480EFD822882089F081E0881652
:1046700009F468C0CC2009F472C0BB2009F468C0FA
:10468000F801858180FFC5CF8F70858361C020913F
:10469000F20222FD35C0CC2069F1DD2039F0809195
:1046A0005904D82AD09259040E94711180E00E94C6
:1046B0006915292D2850330B2430310510F40E9440
:1046C0009A0FAA2009F428CC80916E0280FD24CC98
:1046D000F80112828595859585950E94DA14C801A6
:1046E0000E947A1F80916E028595859585950E941E
:1046F000B11412CC80E00E941315DD20D1F29DCFC1
:10470000CC2099F0909178028D2D892BB11003C0A7
:104710000E940915CECFE1E0BE12FACF22FFC9CF29
:10472000891739F280937802C4CFB11006C00E9475
:104730007E0B8D2D0E940215BCCFF1E0BF1609F44F
:10474000B8CFF5CFCC2031F025E02B1508F4B1CF50
:104750008D2DDECF34E03B1508F4ABCFEACFBB2084
:1047600041F3F9E38F12FCC02FEF37EE83E02150C5
:1047700030408040E1F700C000008E2D0E941315EC
:1047800098CF8F2D837091F5C11093CF4E2D429508
:1047900046954770440F440F8E2D8F70042E01C034
:1047A000880F0A94EAF72E2D2071E4FE07C02FE04F
:1047B00030E001C0220F4A95EAF720953F2D36954B
:1047C00036953370323069F050F4409179023130CF
:1047D00029F0822B84230E94E6146BCF842B822B3A
:1047E000FACF282B809179028227F5CF8695CC20AD
:1047F00011F08F2D8170882309F45BCF4E2D4295E7
:1048000046954770440F440F8E2D8F70042E01C0C3
:10481000880F0A94EAF72E2D2071E4FE07C02FE0DE
:1048200030E001C0220F4A95EAF720953F2D3695DA
:1048300036953370323069F050F440917004313065
:1048400029F0822B84230E94921433CF842B822B55
:10485000FACF282B809170048227F5CFFF2DFF70AF
:10486000FF2ECC2029F08F2F0E94DA148E2D50CFEE
:104870008E2D0E9402158F2D0E94B1141ACF8E2DFD
:1048800022EF8216B1F1281570F030EF8316D1F0C7
:1048900091EF891691F0CC2009F45DC0B110B9CE2A
:1048A0008F2D8F712AC0E3EF8E1651F1F4EF8F1226
:1048B000F2CF8091F20282FD2FC08F2D8F71CC201C
:1048C000D9F21BC0CC2081F024E02B1508F4F1CEE6
:1048D0002F2D2F7181E090E001C0880F2A95EAF713
:1048E000909170048927AFCF35E03B1508F4E1CEF5
:1048F000EFCF8F2D8F71C110BFCF0E94DA14D9CEA8
:1049000080E0CC2009F49FCF9F2D9F7181E001C0F2
:10491000880F9A95EAF797CFCC2091F08F2D8F7161
:10492000F82E0E94DA148091F20282FF07C0E8E0BC
:10493000FE9EC0011124836080936E028F2DDDCF17
:1049400081E00E94BE14F1E0FB1508F0B2CE82E0D7
:104950000E94BE14AECEBB2041F0893309F404CFCF
:10496000EFE1FEE43197F1F706CF8F2D8F7184CF01
:10497000F0E1EF16FFE5FF0609F40FCC21E1E216A6
:104980002FE5F20609F413CCF0928A04E092890430
:10499000F8018081918190938C0480938B04F4EFD3
:1049A000EF16F10458F029EFE216F10408F401CCF7
:1049B00038EBE3163DE5F30609F434CCF8018281C7
:1049C000882349F1F701E15BFD45EA30F10508F084
:1049D00068CCEE54F94C0C94193630E1E3163FE5FF
:1049E000F30609F4E0CB81E1E8168FE5F80661F6FD
:1049F00082E0DACB85E0DE01119601900D928A9576
:104A0000E1F7F801228189819A81211189CA0E94E6
:104A1000950BF82E8DCAF6E1EF16FCE5FF0609F0BE
:104A20005ACC80910D02811154CC89E2E4EFF1E07F
:104A30002AEF31E09191891303C0DF0111971C9295
:104A40002E173F07B9F742CC1F93CF93DF93809186
:104A50003B02807F09F049C080913802882309F425
:104A600044C080916D02D0913C02609136027091F9
:104A70003702A0913902B0913A02C62FC72316E03F
:104A8000D81799F190E0109711F0CF3F19F40196E3
:104A90008770F6CF189F9001199F300D1124F901EE
:104AA000E35CFD4F41814713F2CF40814613EFCFC6
:104AB00042814111ECCF438154814A1B5B0B483C3E
:104AC000510528F780913B028F70806180933B02F3
:104AD000F901EE5BFD4F80818F708061808386E3FA
:104AE00092E00E947A1F0E948B0BDF91CF911F9161
:104AF0000895A1E1B0E0EFE7F5E20C94BC358C013C
:104B000085E0F801DE011D9601900D928A95E1F78E
:104B1000F801E28086E3A82E82E0B82E6091390287
:104B200070913A026115710509F426C1909136021F
:104B300040913702892F84238F3F09F41DC12081C2
:104B40003181C380D480F0903802F601E61BF70B68
:104B5000FF2009F4DCC080913B02582F507FE83CD5
:104B6000F10508F09FC051116BC0FE2C431314C017
:104B7000921312C0E11010C08F70806180933B02CD
:104B8000C5010E947A1F80913B02F80185838F2D19
:104B90006196EAE00C94D835C114D10429F0822F33
:104BA00083238F3F09F003C180E0F82FF170DF2EDF
:104BB00080FF3CC080916D0240913C0256E084131E
:104BC00015C02D873E878D859E850E946117292FF0
:104BD00022952F702230F0F0243018F59F70F1F0FC
:104BE000F8019581907FD1F4D12C1EC090E0589FA0
:104BF000F001599FF00D1124E35CFD4F61813613E4
:104C000006C06081261303C06281E6120FC00196C0
:104C10008770D5CF9F7011F0882331F3805E883084
:104C200018F3C8010E947A1FFD2CB1CFEE2009F4C1
:104C3000AECF80913B02816080933B02F12CA7CFE5
:104C4000431306C0921304C0F801EE2009F479C0A2
:104C5000C8010E946E17882309F1EE20F9F08091B7
:104C60003B02803270F02091360230913702388753
:104C70002F831986DB86CA868C87CE0107960E9411
:104C80007A1F86E0F801A6E3B2E001900D928A95C2
:104C9000E1F70E942425FF24F39479CFC8010E94F4
:104CA0007A1FF9CF51110AC086E392E00E947A1F61
:104CB00086E0F50111928A95E9F7C0CF43130FC042
:104CC00092130DC0E1100BC0F8018583C8010E944A
:104CD0007A1F86E0F50111928A95E9F758CFC8014D
:104CE0000E946E178823D1F2EE20C1F280913B0220
:104CF000803238F220913602309137023A8329838C
:104D00001B82DD82CC828E83CE010196B8CFE83C37
:104D1000F105F8F6FE2CEE2009F243131FC09213A2
:104D20001DC080913B0280FD10C0982F907F69F0DC
:104D3000F8018583903F31F0982F907F905F8F70BE
:104D4000892B8583C8010E947A1F86E0F801A6E3BB
:104D5000B2E001900D928A95E1F719CFC8010E9447
:104D60006E1781118ECF80913B02816080933B0250
:104D7000C8010E947A1F0BCFEE2009F48FCFC80123
:104D80000E946E17F82E882309F488CF86E0F80178
:104D9000A6E3B2E001900D928A95E1F78091360288
:104DA000909137020E9461170E942425F0CE81E085
:104DB0008E25FBCEA7E1B0E0E0EEF6E20C94C33521
:104DC0004B8B5C8B6D8B7E8B8F8B6111109277027E
:104DD0001A8A198A85E0FE017396DE011D960190FC
:104DE0000D928A95E1F786E0FE013D96DE01179669
:104DF00001900D928A95E1F7CE0107960E947925E0
:104E0000882359F016E080916D0290913C0289133D
:104E100045C06796E3E00C94DF3586E0FE013796E7
:104E2000DE01119601900D928A95E1F78A859B85A6
:104E3000892B41F38F81988589238F3F19F3209126
:104E40003C0230E0C90101968770992740916D02BC
:104E50004817190681F4109259040E94AE1110925D
:104E60003C0210926D0286E0E6E3F2E0DF011D9263
:104E70008A95E9F7C7CF96E0929FD001939FB00D36
:104E80001124A35CBD4FFE01319601900D929A95BD
:104E9000E1F780933C020E948B0BB4CF819FC0014D
:104EA0001124835C9D4F0E947925882309F4B1CF9A
:104EB00080916D0290E001968770992780936D0232
:104EC000A2CFA2E0B0E0E7E6F7E20C94B8354FE9F4
:104ED000A42E46E0B42E50E0E52E51E0F52E712CC4
:104EE00088248394912CD7018D917D010E94480DD7
:104EF00000C0F50161905F0136E0C32E31E0D32E92
:104F0000F60110E000E04191A42FA295AF70B0E04F
:104F100090968C919401002E01C0220F0A94EAF71A
:104F200090E04F7002C0959587954A95E2F780FD15
:104F300093C0622A0F5F1F4F0430110521F7F7015C
:104F4000319780810E945C0DF0EAFA95F1F7F50146
:104F50008291861519F060827724739426E0E21618
:104F600021E0F20609F0BFCFEE24E394F12CD60144
:104F70008D916D010E94480D00C0C701002E01C037
:104F8000880F0A94EAF7582FAFE9B6E090E0A92E0F
:104F900091E0B92E482F4095F50181915F01282FAE
:104FA00022952F7030E0F90120A19D9130E08F70A3
:104FB00002C0359527958A95E2F7BD0161507109C8
:104FC000852F892B20FF02C0842F8923FB0180833A
:104FD0008081981711F077247394F6E0AF16F1E012
:104FE000BF06D1F6F601319780810E945C0D20EA60
:104FF0002A95F1F70F5F1F4F0830110509F0B7CF61
:105000000091F002772059F181E08093FC010E9429
:10501000E31E9093FB018093FA018091FA01909135
:10502000FB010E94D41E0597F0F010E0055C1C4FB8
:1050300046E050E06FE976E0C8010E943C36892BDB
:1050400041F086E0EFE9F6E0D80101900D928A95F3
:10505000E1F71092FC0107C0209562226BCF80918E
:10506000FC018111DACF0E94750FF82EE091F00259
:10507000811199C0F0E0E55CFC4F86E0ACE7B2E05E
:1050800001900D928A95E1F766E070E08CE792E07E
:105090000E94BC0880937B024091110350E0609114
:1050A000100370E0685F7C4FCE0101960E94493684
:1050B00089819A81909384028093830262E070E0F8
:1050C000CE0101960E94BC0880938202C0908502A6
:1050D000D0908602E0908702F09088028091FD01D6
:1050E0009091FE01A091FF01B0910002C816D9066F
:1050F000EA06FB06D1F0C092FD01D092FE01E092DB
:10510000FF01F09200020E94750F81110EC00E94F3
:105110009608C61AD70AE80AF90AC092EB02D0929A
:10512000EC02E092ED02F092EE0280919002882370
:1051300079F180FF0DC08091890280FF2EC090918F
:10514000460491609093460460E086950E94151F86
:105150008091900281FF09C020E040918C02609113
:105160008B0280918A020E943B188091900282FFFC
:1051700006C080918F02882399F00E94FA1E8091C8
:10518000900283FF03C081E080936103109290023C
:10519000872D2296EEE00C94D4350E945D0FD8CF77
:1051A0000E94D908ECCF25EA36E086E0D9011D92AD
:1051B0008A95E9F70E2F10E0055C1C4F80919E0642
:1051C0008A30E8F563EB7BE1C8010E94710D88230A
:1051D00009F452C06AE57BE1C8010E94710D882381
:1051E00009F44AC060EB7AE1C8010E94710D88237E
:1051F00009F442C06AE57AE1C8010E94710D882372
:10520000D9F110929E0681E0809303020091EF0293
:1052100010E0055C1C4F46E050E065EA76E0C8010E
:105220000E943C36892B09F4B3CF86E0E5EAF6E02C
:10523000D80101900D928A95E1F77F2CA9CF80913A
:105240000102909102020E94D41E843F914008F016
:10525000B9CF80910302882309F49ACF10920302F8
:10526000E091EF02F0E0E55CFC4F96E0DF011D927B
:105270009A95E9F7782E8CCF80919E068F3F31F07A
:105280008F5F80939E068A3008F4BDCF0E94E31E94
:105290009093020280930102DCCF1F921FB61F92EF
:1052A00011248F939F93AF93BF93809153048111E7
:1052B00013C08091540490915504A0915604B0916C
:1052C00057044196A11DB11D809354049093550439
:1052D000A0935604B0935704BF91AF919F918F91C3
:1052E0001F901FBE1F901895CDB7DEB7AF970FB6B2
:1052F000F894DEBF0FBECDBF85B7806885BF85B788
:10530000806885BF84B7877F84BF0FB6F894A8955F
:1053100080916000886180936000109260000FBEF1
:1053200080E890E00FB6F89480936100909361005C
:105330000FBE80EA99E09093F1018093F0010E9402
:10534000FB060E94C6078091E20084608093E20021
:105350007894809166048823A1F01091E9001F7071
:105360009091EC00892F817090FD80E8182B1092AD
:10537000E9008091E80083FD0E94BA111F7010932C
:10538000E90082E084BD93E095BD9AEF97BD8093DC
:105390006E001092EB021092EC021092ED0210924D
:1053A000EE020E940F18811102C00E94C9160E94CD
:1053B000DF1B80910A010E94DF1B809106010E9481
:1053C0005C0D809107010E945C0D809108010E9494
:1053D0005C0D809109010E945C0D00E011E036E057
:1053E000E32E31E0F32ED8018D918D010E945C0DEA
:1053F000E016F106C1F780910A0196E0811190E074
:105400009093F00286E0891B8093EF020E94750F53
:10541000811102C00E944134EFE9F6E0ABE3B3E052
:1054200011921D9226E0EB3AF207D1F70E94F61B8B
:10543000811102C00E94511982E090E00E94523610
:105440008093F80284E090E00E945236182F82E2A6
:1054500090E00E945236982F812F9093F202809311
:10546000F1020E9461278FE39CE90197F1F700C0E8
:1054700000000E94612780913B0380FF08C06FEF0E
:105480007FEF90E080E00E9484360E94850883E0F0
:1054900090E00E9452360E94E614809170040E94AF
:1054A000FF0B91E0833009F090E0892F0E94410CBE
:1054B0000E94750F882309F4A5C180E0809336030C
:1054C00080E8809393040E94F8326DE070E08AE1F6
:1054D00092E00E94D015892BE9F58091360363E0B4
:1054E00070E081FD91C187E192E00E94D015892B87
:1054F00089F56DE070E087E092E00E94D015892B7D
:1055000049F50E949608605A75418F4F9F4F6093EE
:105510004B0470934C0480934D0490934E04E6E941
:10552000F4E080E092E0DF019C011D9221503040C8
:10553000E1F7F0939D06E0939C068FEF9FEF909329
:1055400095048093940481E08093500480934F04E9
:10555000109237038091F302811138C00E94F61B2C
:10556000811104C00E9451190E94381988E090E00E
:105570000E945A366093460470934704809348040F
:1055800090934904809166038360809366036E7FE5
:1055900071F40E94381988E090E00E945A366093B6
:1055A00046047093470480934804909349040E94F2
:1055B000E0080E94D9088091460480FF04C060E0A2
:1055C00086950E94151F81E08093F30280910A0165
:1055D00092E0811190E09093100382E0382F391B04
:1055E0003093F50290910A018093110390910A0182
:1055F0008093F4024EEA51E02CEAA22E21E0B22E72
:1056000085019A0161E070E0D9018D919D01E82F3B
:10561000E295EF70F0E0D1A08F707B0101C0EE0C3D
:105620008A95EAF79E2D90959D2191A382A18E29BE
:1056300082A3F80181918F01E82FE295EF70F0E0ED
:10564000D1A08F707B0101C0EE0C8A95EAF79E2DE8
:1056500090959D2191A382A18E2982A3A05BB14048
:1056600099F68FE891E00197F1F700C000001091E2
:10567000110362E173E0FB018E2F861B811708F492
:10568000C6C00E94750F811102C00E9441340E9461
:10569000481D0E94750F81112EC082E090E1909309
:1056A0006201809361012AE130E030935D01209333
:1056B0005C018AE390E09093600180935F014CE885
:1056C00059E050936A01409369013093650120933A
:1056D0006401909368018093670146E15DE1509316
:1056E00072014093710130936D0120936C0190938E
:1056F000700180936F010E94F61B882389F08FE070
:1057000090E00E945A368B01862F8F770E94FD1CF5
:10571000001F0027001F1370110F102B109383041C
:105720000E94DC0F83E791E0909352048093510430
:105730008091660400E112E1853009F4D4C00E9432
:10574000612719EFE12E12E0F12E28EB31E03DA7A1
:105750002CA745E053E089012BE333E0F701919159
:10576000D9018D919D01D8016D918D0186234E1730
:105770005F0709F4C4C0981791F30E94750F582E63
:10578000A8EBCA2EA1E0DA2EBBE3AB2EB3E0BB2E12
:1057900000E0F50111915F01D6018D916D01182393
:1057A000F70171907F01711629F17126912C8824DF
:1057B0008394872D8821B1F05520A1F09EA20FA3DC
:1057C00091E0812F882109F490E098A70E94E31EC0
:1057D0008160782F9AA789A74EA15FA168A58AA5A5
:1057E0000E94DA269394880CF8E09F12E2CFF7012A
:1057F000319710830F5F0C3061F60E949608CC241D
:10580000C3949EC082E05ACE84E192E06ECEDA016B
:105810002D91AD01822F82958F7090E0DC019096E2
:105820008C9190E02F7002C0959587952A95E2F7AC
:105830008170D5019D915D01292F22952F7030E057
:10584000D90190962C9130E09F7002C03595279534
:105850009A95E2F790E020FD92E0892B81930CCF9E
:1058600080916604843049F10E94FA150E94C910A3
:1058700010925304E8E1F0E090E4C92E0FB6F894DA
:10588000A895E09360000FBEC092600083B7817F4F
:10589000846083BF83B7816083BF7894889583B722
:1058A0008E7F83BF0FB6F894A895809160008861C1
:1058B00080936000109260000FBE80916504882381
:1058C00091F00E946127A8EBB1E0EBE3F3E0819156
:1058D0009D91892309F09AC587E4E82E83E0F82E8C
:1058E000EE16FF06A1F780916604853009F4B8CF63
:1058F000109259040E94AE110E949A0F20CF981363
:105900003CCF0E94E31E8C018091F6029091F70239
:1059100008171907A1F08FEF89A38AA31BA20E9481
:10592000E31E8160782F9DA38CA349A15AA16BA18E
:105930008DA10E94DA261093F7020093F602C12C83
:105940000E94750F80916503882309F464C08091DB
:105950006403E0914604E695E81BE093600382301F
:1059600009F069C1F0E0E05DFD4FE4910E2F10E019
:10597000F9E4EF2EFFE0FF2E80916103882361F0B0
:10598000109261030E94EF1E90935F0380935E0369
:1059900010926303109262030E94EF1EE0915E0377
:1059A000F0915F039C012E1B3F0B2F3F3F4798F563
:1059B000209107032223B1F01092070320910503E1
:1059C00030910603821B930B8F3F9F4758F4205D55
:1059D0003A4830930603209305038091660388605C
:1059E00080936603A0906203B0906303E00FF11F01
:1059F000F0935F03E0935E038EE593E0F701099572
:105A00008091620390916303892B29F4AB2819F0EC
:105A100081E080930703E12CD12C80911103E816DB
:105A200008F438C1D1100E947B0B80915004882368
:105A300051F180913803909139030E94D41EC2978E
:105A400008F099C1209194043091950421153105F5
:105A500009F043C280914F048823A9F00E94960860
:105A600000914B0410914C0420914D0430914E0450
:105A7000601B710B820B930B6F3F7F4F8F4F9F47C4
:105A800010F40E94FA15C11001C0D1100E94151621
:105A90000E94C9100E949A0F90913A03891721F031
:105AA00080933A030E94960880916604843009F43A
:105AB000E9C20E94750F882309F43ACE0E94960825
:105AC00020914D03211152C00091490310914A03C6
:105AD00020914B0330914C036B017C01C01AD10A19
