:100000000C945D060C947A060C947A060C94EF31ED
:100010000C947A060C947A060C947A060C947A0660
:100020000C947A060C947A060C949A1B0C94561B2A
:100030000C947A060C947A060C947A060C947A0640
:100040000C947A060C947A060C947A060C947A0630
:100050000C947A060C94731C0C947A060C947A0611
:100060000C947A060C947A060C947A060C947A0610
:100070000C947A060C947A060C947A060C947A0600
:100080000C947A060C947A060C947A060C947A06F0
:100090000C947A060C947A060C947A060C947A06E0
:1000A0000C947A060C947A060C947A0605010902DF
:1000B000A10185020901A1000509190129081500FE
:1000C0002501950875018102050109300931158165
:1000D000257F95027508810609381581257F9501D0
:1000E00075088106050C0A38021581257F95017572
:1000F000088106C0C00660FF0961A1010962150000
:1001000026FF009520750881020963150026FF006F
:10011000952075089102C005010906A1010507197E
:10012000E029E71500250195087501810295017503
:100130000881010507190029FF150026FF00950613
:100140007508810005081901290515002501950587
:1001500075019102950175039101C0000000000036
:10016000000000000000000000000000000000008F
:100170000000000000000000000000000000007E01
:100180000F00D4FFFFFFC700000078000000000050
:100190000000002A2B2800000000000000000000E2
:1001A00000000000000029000000002C1E34202167
:1001B0002224342627252E362D3738271E1F2021AE
:1001C00022232425263333362E37381F040506070D
:1001D00008090A0B0C0D0E0F101112131415161727
:1001E00018191A1B1C1D2F3130232D350405060745
:1001F00008090A0B0C0D0E0F101112131415161707
:1002000018191A1B1C1D2F3130354C00DA0281FFE2
:10021000D9F1DB20A4A62EAF00A0C0D30000A1C856
:10022000D30000AED580A81F408D1420000001012E
:1002300001010101010101020202020202020202A5
:100240000303030303030303040404040404040575
:100250000505050506060606060707070707080839
:100260000808090909090A0A0A0B0B0B0C0C0C0DEA
:100270000D0D0E0E0E0F0F0F101011111112121383
:10028000131414151516161717181819191A1A1BFE
:100290001B1C1D1D1E1E1F2020212222232424255D
:1002A0002626272829292A2B2C2D2D2E2F30313296
:1002B00032333435363738393A3B3C3D3E3F4041A6
:1002C00042434445464748494A4C4D4E4F5051538E
:1002D00054555658595A5B5D5E5F61626465666845
:1002E000696B6C6D6F7072737577787A7B7D7E80C9
:1002F00082838587888A8C8E8F91939596989A9C15
:100300009EA0A2A3A5A7A9ABADAFB1B3B5B7BABC28
:10031000BEC0C2C4C6C9CBCDCFD1D4D6D8DBDDDFF9
:10032000E2E4E7E9EBEEF0F3F5F8FAFDFF00000098
:100330000000003E5B4F5B3E003E6B4F6B3E001C7F
:100340003E7C3E1C00183C7E3C18001C577D571C10
:10035000001C5E7F5E1C0000183C180000FFE7C315
:10036000E7FF00001824180000FFE7DBE7FF00307C
:10037000483A060E00262979292600407F05050700
:1003800000407F05253F005A3CE73C5A007F3E1C59
:100390001C0800081C1C3E7F0014227F2214005FF2
:1003A0005F005F5F0006097F017F00006689956A34
:1003B0000060606060600094A2FFA2940008047E68
:1003C00004080010207E20100008082A1C080008DD
:1003D0001C2A0808001E10101010000C1E0C1E0C09
:1003E0000030383E383000060E3E0E060000000099
:1003F00000000000005F000000000700070000147C
:100400007F147F1400242A7F2A12002313086462B9
:1004100000364956205000000807030000001C2247
:100420004100000041221C00002A1C7F1C2A0008F9
:10043000083E08080000807030000008080808081E
:10044000000000606000002010080402003E5149D6
:10045000453E0000427F4000007249494946002164
:1004600041494D33001814127F1000274545453986
:10047000003C4A49493100412111090700364949E8
:10048000493600464949291E0000001400000000BA
:100490004034000000000814224100141414141405
:1004A000000041221408000201590906003E415D86
:1004B000594E007C1211127C007F49494936003E9A
:1004C00041414122007F4141413E007F494949412C
:1004D000007F09090901003E41415173007F08086E
:1004E000087F0000417F4100002040413F01007F24
:1004F00008142241007F40404040007F021C027FE0
:10050000007F0408107F003E4141413E007F090901
:100510000906003E4151215E007F09192946002647
:10052000494949320003017F0103003F4040403FF9
:10053000001F2040201F003F4038403F0063140848
:100540001463000304780403006159494D4300001B
:100550007F41414100020408102000004141417FD9
:100560000004020102040040404040400000030734
:100570000800002054547840007F28444438003854
:100580004444442800384444287F003854545418C4
:100590000000087E0902001824241C78007F08044B
:1005A00004780000447D4000002040403D00007E73
:1005B000102844000000417F4000007C047804784B
:1005C000007C08040478003844444438007C182433
:1005D000241800182424187C007C0804040800480F
:1005E000545454240004043F4424003C4040207CE4
:1005F000001C2040201C003C4030403C004428109F
:100600002844004C9090907C004464544C4400007A
:100610000836410000000077000000004136080065
:10062000000201020402003C2623263C00000000D8
:100630000000000000000000000000000000F81EA4
:10064000030101020C080808080810101010180413
:10065000020206FC00000000000000000000000094
:100660000000F01E030101030C0808080808080830
:1006700008080C0603010103FE0000000000000052
:1006800000000000000000F03E030103060C0C0C0B
:1006900008080808080808080C060101031EE00005
:1006A0000000000000000000000000E0F0F0F0E0BA
:1006B000ECEEF7F37020007C7C7C7E007E7E7E7FFB
:1006C0007F7F000080C0E07E5B4F5BFEC00000C00B
:1006D00000DCD7DEDEDED7DC00C00000000000005A
:1006E000000000000000000000000000000000000A
:1006F0000000000000C020008060180000C07F00E3
:1007000000000000000202000000000000000202E1
:1007100000000007F80000000000C020008060100A
:100720000000FF00000000000003030000000000C4
:10073000000003030000000003FE0000000000C0F2
:1007400020008060100000FF000000000000030394
:100750000000000000000000030300000000FF0094
:1007600000000000000000000000000F1F3F7F7F1E
:100770007F7F7F3F1E0C001F1F1F3F003F3F3F7FBB
:100780007F7F00307B7F7830202030787F3B0003F4
:10079000000F7F0F0F0F7F0F00030000000000000D
:1007A0000000000000000000000000000000000049
:1007B000000000000718200007182000001F30204C
:1007C0003018081020203018102020203018081071
:1007D000204020301F0000000007182000071820CC
:1007E00000001F30202010080810202030080808C2
:1007F0001030203018081830201F000000000718A3
:10080000200007182000001F30203018183020303A
:100810001808302030180808183020203808070041
:1008200000000000000000000000000000000000C8
:1008300000000000000000000000000000000000B8
:1008400000000000000000000000000000000000A8
:100850000000000000000000000000000000000098
:100860000000000000000000000000000000AF6178
:1008700062636465666768696A6B6C6D6E6F7071E0
:1008800072737475767778797A31323334353637D6
:10089000383930524542545F2D3D5B5D5C233B2728
:1008A000602C2E2F20202700204B00202043004BBF
:1008B0006579203A2020520020204400303020204A
:1008C000530020202020204350490042616C6C3AA4
:1008D0000052543A002F004D563A004C3A008081A5
:1008E00082838485868788898A8B8C8D8E8F909170
:1008F000929394A0A1A2A3A4A5A6A7A8A9AAABACD1
:10090000ADAEAFB0B1B2B3B4C0C1C2C3C4C5C6C747
:10091000C8C9CACBCCCDCECFD0D1D2D3D40000AEB3
:1009200029001E001F0000002000210022000000FE
:100930002B0014001A00625208001500170028004E
:10094000E000040016000000070009000A00000093
:1009500021521D001B000000060019000500300098
:10096000E200E300000000000608904391412C42A1
:100970004F00500051005200000000000000000035
:100980002D00270026000000250024002300000081
:100990002F001300120028000C0018001C00290072
:1009A000340033000F0000000E000D000B000000AB
:1009B00087003800370000003600100011003200B8
:1009C00089002E00000000001908E30028002A001A
:1009D0002B022B001D0A1D08000000000000000073
:1009E00029021E022F000000200221022202000024
:1009F0002B0214021A02010008021502170201005C
:100A0000E002040216020000070209020A020000C6
:100A100001001D021B02000006021902050230023D
:100A2000E202E302000000000100010001000100F9
:100A300001000100010001000000000000000000B2
:100A4000870227022602000025022402230200005A
:100A50002F021302120201000C0218021C020100F4
:100A6000340233020F0200000E020D020B020000DE
:100A700087023802370200003602100211023202E9
:100A800089022E02000000000100010001000100A7
:100A90000100010001000100000000000000000052
:100AA00001003A003B0000003C003D003E00000019
:100AB00001000100240001002500260001000100C2
:100AC0000100010021000000220023003302000089
:100AD000010001001E0000001F0020002D02250261
:100AE0000100010000000000010001000100010000
:100AF0002B002B020100010000000000000000009C
:100B00004400430042000000410040003F0000005C
:100B1000450001004E00010052004B0001000100A1
:100B200001004D004F000000510050004A0000003D
:100B300001000100D3000000D200D100D500D40094
:100B4000010001000000000001000100010001009F
:100B50000100010001000100000000000000000091
:100B600020780100010000000100010001000000E8
:100B70002178237825780100277801000100010001
:100B800022782478267800002878477E467E000068
:100B90004B7E4C7E4D7E00004E7E497E487E037C1F
:100BA000007C4A7E000000000100010001000100FD
:100BB0000100010001000100000000000000000031
:100BC00030782F782E7800002D782C782B78000044
:100BD0000100010034780100337832783178010067
:100BE000407E417E447E0000427E437E457E000082
:100BF0000100010001000000010001000100037C70
:100C0000007C010000000000010001000100010063
:100C100001000100010001000000000000000000D0
:100C200009025B00030100A0FA09040000010301AE
:100C30000100092111010001224400070581030878
:100C40000001090401000203000000092111010054
:100C5000012222000705820320000107050303206B
:100C60000001090402000103000000092111010034
:100C7000012249000705840320000112010002003F
:100C8000000008594D00010002010200010E036D31
:100C90000074006B00360034006500000016036D20
:100CA0000065006E00740061006B006F005F0079EA
:100CB0000061000000040309040011241FBECFEFEF
:100CC000DAE0DEBFCDBF11E0A0E0B1E0ECE2F9E692
:100CD00002C005900D92A23AB107D9F726E0A2EA28
:100CE000B1E001C01D92AC35B207E1F70E94F028D7
:100CF0000C944C340C9400008F929F92AF92BF9250
:100D0000CF92DF92EF92FF9290917801981305C0F5
:100D100090914C06903209F44BC08093780190E298
:100D200090934C06C82ED12CF12CE12C10924B063E
:100D3000C701B6012AE030E040E050E00E94703385
:100D4000605D603331F0C114D104E104F10409F4B1
:100D500060E260934A0660E28AE0C816D104E104CA
:100D6000F10490F08AE0882E912CA12CB12CC701BF
:100D7000B601A50194010E947033CA01B901A50111
:100D800094010E947033605D6093490620E284E61E
:100D9000C816D104E104F10448F0C701B60124E605
:100DA00030E040E050E00E947033205D2093480620
:100DB00088E496E0FF90EF90DF90CF90BF90AF90E7
:100DC0009F908F900895482F2091470690910E068E
:100DD00057E0291302C080E0089530E0529FF001EF
:100DE000539FF00D1124E15FF94F8181681306C014
:100DF0008081481303C085818111EECF2F5F3F4F63
:100E00002770E7CFE8EDF0E080818E7F808310923D
:100E1000E2001092DA001092E100A0EEB0E08C91B6
:100E200081608C9380818F77808319BCA7EDB0E0BF
:100E30008C918E7F8C9380818F7E80831092F605BB
:100E400008952091E4003091E50095E6A9012091F4
:100E5000EC00822F817020FF06C08091E80080FFA7
:100E600006C080E008952091E80022FD1AC080911C
:100E70000406882389F0853089F08091EB0085FD98
:100E80000FC02091E4003091E50042175307F9F2BA
:100E90009150E1F684E0089582E0089583E008959A
:100EA00081E008958091060687FF13C08091E800D5
:100EB00082FF06C08091E8008B778093E80004C031
:100EC000809104068111F2CF089580910406882351
:100ED000D9F38091E80080FFF8CF8091E8008E7709
:100EE000ECCF982F9093E900242F762F50E08917AC
:100EF00031F07091EC002091ED005091F00021FD57
:100F000007C09F5F973071F78093E90081E00895F3
:100F10003091EB003E7F3093EB003091ED003D7F50
:100F20003093ED003091EB0031603093EB00709323
:100F3000EC002093ED005093F0002091EE0027FD8F
:100F4000E0CF80E00895B0E0A0E0E9EAF7E00C949B
:100F50002933C8EDD0E088818F7E8883E7EDF0E00B
:100F600080818160808384E082BF81E08093F60588
:100F700088818E7F888302EE10E0F8011082109243
:100F8000DA0081EEC82ED12CF601108288818F778D
:100F9000888388818068888388818F7D888319BC55
:100FA0001092040610920506109203061092020693
:100FB00090EEE92EF12CF70180818B7F8083888170
:100FC0008160888342E060E080E00E947107F60162
:100FD00080818E7F8083F801808181608083808121
:100FE00088608083F70180818E7F80838881806123
:100FF0008883CDB7DEB7E8E00C944533FC018091DF
:101000000C0690910D0686179707A0F061157105E3
:1010100029F49091E8009E779093E80090E06115A4
:10102000710551F4911108C08091E80082FF34C02D
:1010300080E00895BC01F2CF809104068823C1F1BD
:101040008530C1F18091E80083FD30C08091E800D7
:1010500082FDEACF8091E80080FFE1CF8091F3002C
:101060002091F200382F6115710519F028303105F3
:1010700058F091E02830310509F090E02091E80027
:101080002E772093E800CBCF81918093F1006150BF
:1010900071092F5F3F4FE7CF80910406882341F00D
:1010A000853041F08091E80083FFBECF81E0089554
:1010B00082E0089583E0089508958091F9050895E8
:1010C00087E797E7909301088093000888E19AE00A
:1010D0000FB6F894A895809360000FBE90936000BF
:1010E000FFCF2FB7F8946091F2057091F3058091CE
:1010F000F4059091F5052FBF08959C01FC013296EF
:101100009FEF80E04191461751F09F3F19F4411144
:1011100001C0982F8F5F8630A9F79F3F09F408958B
:10112000290F311D97FD3A95F90162830895FC015D
:10113000680F791F8FEF91E32191822728E030E03B
:1011400087FF09C0880F892721503109C9F7E617A1
:10115000F70791F70895880FF7CFFA01811101C0C1
:10116000FB010995089580918603982F9E7F71F465
:1011700080918603817082608093860380918903C9
:10118000893718F088E7809389030895843080F7C1
:10119000F5CFCF93DF93E7E9F3E083819481A581D5
:1011A000B681E90188839983AA83BB831482138261
:1011B00016821582DF91CF91089580E0089563E053
:1011C00070E082E192E00E949708909111028913E9
:1011D00018C0E0911202EB30A4F488E0E802F001BC
:1011E0001124E55FFE4F0680F781E02D309749F02E
:1011F00025E332E04091140265E172E08091130230
:1012000009950895EBE0F1E0ABEFB1E058968C91D1
:10121000589780A759968C9183AF089590916D024D
:1012200092FF10C041E0282F2471243009F040E0E3
:1012300031E0282F2871283009F030E0431711F0F1
:101240002CE0822793FF10C041E0282F2471243125
:1012500009F040E031E0282F2871283109F030E012
:10126000431711F02CE0822730916E0230FF10C03E
:1012700051E0282F2171213009F050E041E0282F62
:101280002871283009F040E0541711F029E0822736
:1012900031FF10C041E0282F2171213109F040E0D9
:1012A00031E0282F2871283109F030E0431711F080
:1012B00029E0822794FD877E089582389105B9F14F
:1012C000B0F48133910509F47DC048F48932910569
:1012D00009F46DC08A32910509F47BC00895853305
:1012E000910509F45FC08933910509F10895833EA2
:1012F0009105D9F138F4803E910529F1823E91059E
:1013000079F10895863E9105D9F1873E910509F45A
:101310003EC0843E910541F520916E0221FF24C01C
:1013200080916D0284FD19C087EE90E008952091B0
:101330006D02237009F05AC020916E0223FF14C081
:1013400089E290E0089520916D0220FD38C030912F
:101350006E0230FF09C024FF43C090E080E0089592
:1013600020916D0222FDF7CF089520916D0222FD9C
:101370003AC030916E0230FD39C024FFF5CFEDCF79
:1013800020916D0223FFF0CF24FDE7CFCDCF209138
:101390006D0223FD2EC030916E0231FFEECF84EE40
:1013A00090E0089520916D0225FFDECFC9CF2091F6
:1013B0006D0225FD21C020916E0223FFD5CF89E368
:1013C00090E0D2CF20916D0226FFCECF8AE290E04E
:1013D000089520916D0226FFC7CF81E390E0089524
:1013E00083EE90E0089582EE90E0089580EE90E024
:1013F000089586EE90E0089585E390E008951F93A8
:10140000CF93DF930E945D09EC01C11582E5D807F7
:1014100008F03FC0C11590E5D90708F0C2C0C83E2A
:10142000D105C0F4C03ED10580F4C53AD10548F4D9
:10143000C430D10550F4C130D10539F0D0E0C0E05E
:1014400004C0CD3CD105D0F3D065CE01DF91CF9162
:101450001F910895C11580E4D80708F053C0C11545
:1014600090E2D90708F0B7C0C11581E0D80730F382
:101470008D2F0E940E09182FCE0199270E945D0919
:10148000C12FD0E0DC2FCC27CC27DF71C82BD92B84
:10149000DCCFC03892E5D907A8F4C03682E5D8077A
:1014A00008F063C0C03492E5D90708F049C0C032E3
:1014B00082E5D80788F1CF71D0E0DC2FCC27C16F4F
:1014C000D06AC3CFC03C92E5D90780F48C2F8F71CE
:1014D000C03AD24508F45EC00E940E09C82FD0E081
:1014E000DC2FCC27CC27DF71D062AFCFC03E82E5A6
:1014F000D80708F0A3CFDC2FCC27CC27DF71C06F33
:10150000D06AA3CFCE0199270E945D09CC27DF7056
:10151000C82BD92BD06A99CF2C2F2695269590E2EF
:10152000299F900111248C2F8370C1E0D0E002C06C
:10153000CC0FDD1F8A95E2F7C22BD32BDD6885CF58
:101540002C2F26952695277080E2289F9001112444
:101550008C2F8370C1E0D0E002C0CC0FDD1F8A95D4
:10156000E2F7C22BD32BDC6870CF2C2F2695269563
:10157000277090E2299F900111248C2F8370C1E085
:10158000D0E002C0CC0FDD1F8A95E2F7C22BD32B2F
:10159000DA685BCFC82FD0E0DC2FCC27C46FD06ACD
:1015A00054CF8C2F8F710E940E0955E0D695C795A8
:1015B0005A95E1F7CF70D0E0DC2FCC27282F30E010
:1015C00084FF05C044E0220F331F4A95E1F7C22B88
:1015D000D32BD0693ACF8D2F8F710E940E09182F0F
:1015E000CE0199270E945D09C12FD0E0DC2FCC27C6
:1015F000CC27DF71C82BD92B77CF80959091F70539
:1016000098239093F70508958091470690910E06D0
:10161000981301C008958F5F8770FACF9C3080F5D2
:10162000883070F548E0949F90011124820F932F29
:10163000911D682F677023E0969587952A95E1F7AD
:10164000FC01EE0FFF1FE80FF91FEF53FE4F50E0B4
:1016500040E080E0219130E0062E02C036952795CB
:101660000A94E2F721703327042E01C0220F0A9456
:10167000EAF7822B4F5F5F4F4330510559F70895CA
:1016800080E008959C3098F5883088F548E0949F74
:1016900090011124820F932F911D282F277041E074
:1016A00001C0440F2A95EAF723E0969587952A957D
:1016B000E1F7FC01EE0FFF1FE80FF91FEF53FE4F9C
:1016C00090E080E070E05191DF0111979B01082EBE
:1016D00002C0369527950A94E2F7217021952527B7
:1016E000242325272C9301968330910561F70895D3
:1016F0008093F7010895982F92959F7011F0892F8C
:1017000094E0282F2695269511F09E5F822F8695CE
:1017100009F09F5F892F0895CF93C82F8091A4036C
:101720008C1751F00E9471086093A5037093A60373
:101730008093A7039093A803C093A403CF91089527
:10174000CF93C82F0E947B0B91E0833009F090E08B
:10175000892F0E948C0B80917F02823031F410928D
:101760007F028C2F8B7F09F0C82F8C2FCF9108958B
:101770000E94A00B8093BB0308959091BB0321E0CE
:1017800030E0F90101C0EE0F8A95EAF7D90102C0F5
:10179000AA0FBB1F6A95E2F7EA2B01C0220F4A95F8
:1017A000EAF7892F8E23E81305C0292B822F0E9488
:1017B000B80B089520952923F9CF21E030E001C02E
:1017C000220F8A95EAF720958091BB0382230E941D
:1017D000B80B08959091EC01809589238093EC01DA
:1017E000282F277069F4891759F090916E0292FFA3
:1017F00007C08695869586950E94DD0B1092EC01B8
:10180000089521E030E001C0220F8A95EAF7809127
:10181000BB03822B0E94B80B0895B0E0A0E0E3E187
:10182000FCE00C942933FC01EB019091A903911188
:1018300001C094E06081718191509B01092E02C02A
:10184000359527950A94E2F7D901092E02C0AA0F0F
:10185000BB1F0A94E2F76A1B7B0B71836083628172
:1018600073818B01092E02C0159507950A94E2F742
:10187000D80102C0AA0FBB1F9A95E2F76A1B7B0B27
:101880007383628381E80138BFEF1B072CF0802F40
:10189000003811050CF08FE78D8321389FEF390751
:1018A00054F1203831054CF5922F91959C834423B7
:1018B00019F081958D832C830E9471082D8121114F
:1018C00003C02C812223D9F06093AA037093AB0349
:1018D0008093AC039093AD038091AE039BE0980F8F
:1018E000973120F4080F0093AE031D82CDB7DEB709
:1018F000E8E00C94453321E8D7CF2FE7D5CFC0904F
:10190000AA03D090AB03E090AC03F090AD036C1948
:101910007D098E099F096436710581059105E0F204
:101920001092AE03D9CFFC01DB012281338191E813
:1019300021388FEF38072CF0922F203831050CF02A
:101940009FE712969C9312972081318121388FEF67
:101950003807A4F0203831059CF413962C93139784
:10196000442339F0919512969C93129721951396E2
:101970002C931182108213821282089521E8EDCFF8
:101980002FE7EBCF382F20E287FF02C031952DE201
:101990004AE0832F642F0E946233905D9093B901D7
:1019A00081110BC02093B80120E22093B70120E2FF
:1019B0002093B60186EB91E00895642F0E94623374
:1019C000905D9093B801832F64E60E946233882370
:1019D00061F3805D8093B701EBCF9C01860F971F69
:1019E00037FD07C077FD04C097FF02C08FEF9FE768
:1019F000089577FFFDCF97FDFBCF80E090E8089535
:101A0000E82FE295EF70F0E031A1282F2F7081E0F0
:101A100090E001C0880F2A95EAF7382B31A392A1F4
:101A20008095892382A30895E82FE295EF70F0E076
:101A300031A1282F2F7081E090E001C0880F2A95F6
:101A4000EAF7982F9095932391A392A1892B82A3D3
:101A50000895B0E0A0E0EFE2FDE00C9429337C01B2
:101A60006B0180914D0601E010E08A3010F40AE02D
:101A700010E0C1E0D0E064E576E0C701F601099529
:101A8000811104C021960C171D072CF4CDB7DEB7C9
:101A9000E8E00C944533CC9F9001CD9F300D300D84
:101AA000112490E080E045E34A95F1F700000196AB
:101AB00082179307C1F7DFCF0F931F93CF93DF9365
:101AC0008B01EA0190910406943061F58093E9005E
:101AD0008FEF9091E800815095FD06C095ED9A95A5
:101AE000F1F700008111F5CF8091E80085FF1AC061
:101AF0000E942107811111C08091E80085FD06C078
:101B00008091E8008E778093E800F2CFF801819110
:101B10008F018093F100219779F78091E8008E770B
:101B20008093E800DF91CF911F910F91089546E0D7
:101B300050E0BC0184E00E945C0D0895CF93DF93D8
:101B4000EC0148E050E0BC0181E00E945C0D88E0BF
:101B5000FE01AAEFB5E001900D928A95E1F7DF91C1
:101B6000CF910895609174018091860380FF20C019
:101B70008091730143E0849FC001112488559D4FDB
:101B8000539A2BB1277F3BB138605FB7F894FC01C3
:101B9000649FE00DF11D1124BF0168177907D1F48E
:101BA0005FBF8FE594E00197F1F700C00000089552
:101BB000809175019091760123E0829FF0011124BC
:101BC000E855FD4F8917A0F61182108212828F5FAF
:101BD0003396F8CFFC014191CF01E8E03BB900001A
:101BE00000C047FF2BB9440F000000C000C000C078
:101BF0002BB900C0EA9591F7D0CFE6E8F3E08081F9
:101C00008E7F8083E5EAF2E08281816082830E9498
:101C1000B20D08958091FA01811119C082E390E01C
:101C20002091E30027FD10C0EFE3FCE93197F1F7C5
:101C300000C000000197A1F782E08093FA010E94A2
:101C400002071092040603C081E08093FA0181E04C
:101C50009091FA01913011F080E0089508950E946A
:101C60000A0E882359F0E091F005F091F1053097C4
:101C700029F00190F081E02D0995089580E0089504
:101C80000F931F930E940A0E882329F00E94710867
:101C90001F910F9108950E947108009167021091A1
:101CA00068022091690230916A02600F711F821FE1
:101CB000931FEECF57985F9A879A8F9825E02A95C1
:101CC000F1F7000089B187988F9A90EA9A95F1F719
:101CD00090E0880F892F881F990B21E0822781705F
:101CE00008950E945A0E882371F080E0809373015A
:101CF00082E2809374011092750184E480937601EE
:101D000080937701089582E2F1CF80919703F901E2
:101D100080830E94710E0895CF93DF93C9E2D3E0D0
:101D200060E0CE010E9418342196C11584E0D807E6
:101D3000B9F7DF91CF9108951F93CF93DF93122FBF
:101D40008430E0F46C30D0F44830C0F490E1699F06
:101D5000E001112450E0440F551FC40FD51F90EC33
:101D6000899FC00DD11D1124632FCE0189960E9439
:101D70001834612FCE018A960E941834DF91CF91DA
:101D80001F910895AF92BF92CF92DF92EF92FF9290
:101D90001F93CF93DF9380E2C82E89E0D82ED0E046
:101DA0007601C0E014C0F50125913491412F6C2FCC
:101DB0008D2F0E949C0E82E0A80EB11C1F5F183070
:101DC00091F780E1E80EF11CCF5FCC3019F057019C
:101DD00010E0E9CFDF5F80ECC80ED11CD43001F7F2
:101DE000DF91CF911F91FF90EF90DF90CF90BF9048
:101DF000AF90089588E290E00E9418340895CF9340
:101E0000C82F6FEF811163E285E290E00E941834E1
:101E10006FEFC11164E086E290E00E9418346FEF2A
:101E2000C11169E287E290E00E941834CF910895D1
:101E300080E00E94FF0E60E070E0CB010E94FA0E8D
:101E40000E94C20E0E948C0E81E00E94FF0E089537
:101E50000F931F93CF93DF93843030F56C3020F5D0
:101E6000483010F520E1629F8001112450E0440FBA
:101E7000551F040F151F30EC839F000D111D1124F9
:101E8000C80189960E94F433C82FD0E0DC2FCC27FC
:101E9000C8018A960E94F4339E01282BC901DF9164
:101EA000CF911F910F91089590E080E0F8CF462FD9
:101EB0007C3040F4683030F4843020F4672F0E9486
:101EC000280F089590E080E00895CF92DF92FF926E
:101ED0000F931F93CF93DF936C010091BB0380910D
:101EE000F701082BC3E0D0E010E0FC2EC8010C2E57
:101EF00002C0959587950A94E2F780FD0CC0219762
:101F0000A0F7F12C8F2DDF91CF911F910F91FF90B2
:101F1000DF90CF900895B6018C2F0E94570F0E943A
:101F2000FF09019761F3EECFCF93DF93EC010E949D
:101F3000650FBE010E94570F0E94FF09DF91CF91EC
:101F40000895FC0124812223C1F0808191810E94A7
:101F5000940F92959F70963091F058F4925F9F7015
:101F6000923058F4803F19F030F4883E30F481E02C
:101F700008959A5FF4CF843FD1F380E00895883EBE
:101F8000B0F3813FD1F7F3CFA6E0B0E0EAECFFE099
:101F90000C942E3349835A8349815A819923A1F0A5
:101FA000222391F0CA010E94650F182F682F8981A2
:101FB0009A810E94420B69817A81812F0E94570F7A
:101FC0002696E3E00C944A33CA010E940E0B182FA8
:101FD000F2CF88E290E00E94F433682F70E090E046
:101FE00080E0089585E290E00E94F433833289F422
:101FF00086E290E00E94F433843059F487E290E066
:102000000E94F43391E0893209F090E0892F8170C9
:10201000089580E0FCCFCF939091A00280919A0226
:10202000981323C08091A102882321F090919B02F4
:1020300089131BC08091A202882321F090919C02F9
:10204000891313C08091A402882321F090919E02ED
:1020500089130BC09091A302992329F081E020916C
:102060009D02291303C080E001C081E0C82FC17028
:1020700080FF0FC0E091F005F091F105309749F035
:1020800082E080939F020480F581E02D8FE992E049
:1020900009959091A00286E0EFE9F2E0DF01282F98
:1020A0001D922A95E9F79093A002A9E9B2E0019068
:1020B0000D928A95E1F781E0C11103C0911101C031
:1020C00080E08170CF9108952FE2280F283078F4B6
:1020D00081E090E001C0880F2A95EAF72091A002E4
:1020E000662331F0822B8093A0020E940B1008958A
:1020F00080958223F8CF8091F7059091F601892B86
:102100008093A4019091F501992391F0892B8093FC
:10211000A40120E086EA91E0FC013191CF01311168
:102120002F5FF1E08C3A9F07B9F721111092F5016A
:1021300048E050E06DEE71E084EA91E00E94DE3309
:10214000892BA9F088E0E4EAF1E0ADEEB1E001907E
:102150000D928A95E1F7E091F005F091F105309745
:1021600031F00280F381E02D84EA91E00995089531
:10217000E6EAF1E086E0DF011D928A95E9F7109228
:10218000F6010E947B100895AAE2B0E0EAECF0E1CB
:102190000C942E3386E096E02091F100DC012D9323
:1021A000CD01B6E08E309B07B9F7809107068330EA
:1021B00009F472C0B8F4813009F449C0823009F4DE
:1021C000B5C08091E80083FF8DC280910606909192
:1021D00007069A3008F086C2E92FF0E0E25BFB4C7C
:1021E0000C9492338A3009F490C08B3009F471C09A
:1021F000893039F780910606813219F780910A06F5
:1022000090910B06009711F00297D9F68091E800A3
:10221000877F8093E8008091E80082FF38C090912A
:10222000F3008091F200029731F48091F100813047
:1022300011F0863021F48091F1008093F9058091AE
:10224000E8008B778093E8000E945207BACF809114
:102250000606813A09F0B5CF8091E800877F809328
:10226000E80080910A0690910B06892B61F468E0E2
:102270008AEF95E070E00E94FE078091E8008B777E
:102280008093E8009ECF60E090E080E0F3CF809103
:1022900004068111C0CF95CF80910606813A09F0DE
:1022A00090CF80910A0690910B06892B09F089CF77
:1022B0008091E800877F8093E8008091E80080FFAC
:1022C000FCCF809172018093F1008091E8008E77BD
:1022D000B9CF80910606813209F073CF80910A064A
:1022E00090910B06892B09F06CCF8091E800877FD5
:1022F0008093E8000E945207809108068093720143
:102300001092F7050E94B8105CCF809106068132CA
:1023100009F057CF8091E800877F8093E8000E9402
:102320005207809109068093F8054BCF80910606ED
:10233000813A09F046CF8091E800877F8093E800DA
:102340008091E80080FFFCCF8091F805BCCF8038F9
:1023500099F0823809F0C6C180910A068F708730E3
:1023600008F0C0C18093E9008091EB0085FB8827CD
:1023700080F91092E90006C0809102069091030650
:10238000911182609091E800977F9093E80080938C
:10239000F1001092F1008091E8008E779FC18823B0
:1023A00009F48DC1823009F09DC180910806811128
:1023B00090C180910A068F702FEF280F263008F009
:1023C00091C18093E9002091EB0020FF82C19330FE
:1023D00031F48091EB0080628093EB007AC19091A0
:1023E000EB0090619093EB0021E030E001C0220F00
:1023F0008A95EAF72093EA001092EA008091EB00B8
:102400008860EACF81116EC1109108061F77809114
:10241000E3008078812B8093E3008091E800877F40
:102420008093E8000E9452078091E80080FFFCCF73
:102430008091E30080688093E30082E0111183E0E3
:10244000809304064FC18058823008F04BC1209120
:102450000806309109062C3DE3E03E07A1F583E034
:102460008A838AE289834FB7F894DE01139620E0CD
:102470003EE051E2E32FF0E050935700E49120FF5B
:1024800003C0E295EF703F5FEF708E2F90E0EA306F
:10249000C0F0C7968D939D932F5F243159F74FBF9E
:1024A0008091E800877F8093E8006AE270E0CE01C7
:1024B00001960E94FE078091E8008B778093E800E8
:1024C00011C1C096E7CF80910A0690910B06432F69
:1024D00055274330510509F44AC078F5413051057C
:1024E00009F47AC08BE590E0E0E2FCE0423051056F
:1024F00009F0F8C02091E800277F2093E8002091A0
:102500000C0630910D068217930708F49C0140E0F9
:102510002115310509F065C0411163C08091E800C3
:1025200082FDC9CF80910406882329F2853019F2F3
:102530008091E80083FFF2CFBECF4132510509F40C
:102540003CC04232510509F0CDC08330910508F0FE
:10255000C9C0FC01EE0FFF1FEB56FE4F0190F0814A
:10256000E02D8E569E4FDC018C9190E01AC03327EF
:1025700021303105D1F02115310561F022303105CE
:1025800009F0B0C0EDE8FCE0E4918E2F90E0EDE8BA
:10259000FCE007C0E5EBFCE0E4918E2F90E0E5EB7A
:1025A000FCE0009709F49EC0A5CFEDE9FCE0E491C2
:1025B0008E2F90E0EDE9FCE0F4CF8330910508F038
:1025C00091C0880F991FFC01E556FE4F0190F081E4
:1025D000E02D89E090E08ECF82E190E0EBE7FCE037
:1025E00089CF80910406882309F465CF853009F4EA
:1025F00062CF8091E80083FD5ECF8091E80082FD8C
:102600008DCF8091E80080FF83CF9091F30080917F
:10261000F2002115310519F08830910550F041E0A4
:10262000089709F040E08091E8008E778093E800F9
:102630006FCF44914093F1003196215031090196BA
:10264000E8CF803809F04EC08091E800877F809302
:10265000E800809105068093F1009DCE811142C073
:10266000109108061230F0F58091E800877F809382
:10267000E800109305060E945207112311F084E030
:1026800005C08091E30087FDFACF81E080930406C6
:1026900042E061EC81E00E94710742E261EC84E07B
:1026A0000E94710742E261EC82E00E94710742E2FF
:1026B00060EC83E00E9471078091040613C0809152
:1026C0000806813079F481E0933009F080E080934E
:1026D00003061092E9008091E800877F8093E8006C
:1026E0000E9452078091E80083FF0AC08091E800B1
:1026F000877F8093E8008091EB0080628093EB00FD
:10270000AA96E3E00C944A331092F7050E94B810A1
:102710002FEF84E39CE0215080409040E1F700C01F
:10272000000088E19AE00FB6F894A89580936000C5
:102730000FBE90936000FFCF882321F00E94FD0A16
:102740000E947B100895882339F09091F705982B0B
:102750009093F7050E947B100895882349F19CEF20
:10276000980F913A80F4E6EAF1E02CEA31E0919199
:10277000891303C0DF0111971C922E173F07B9F789
:102780000E947B10089590E2980F983050F4877063
:1027900091E001C0990F8A95EAF7892F0E94FD0AFE
:1027A000EFCF93E3980F933118F460E00E94641028
:1027B0000895CF93C82F8823A9F08CEF8C0F813A0E
:1027C00000F5E6EAF1E0DF018D91C81769F081E0DC
:1027D000AC3AB807C9F76C2F84EA91E00E947D08F3
:1027E0000E947B10CF9108958191C81303C0DF012F
:1027F00011971C9281E0EC3AF807B1F70E947B1028
:10280000EACF80E28C0F883068F4C77021E030E0B6
:1028100001C0220FCA95EAF78091F705822B8093B9
:10282000F705DECF83E38C0F8331E0F661E08C2F78
:102830000E946410D7CF1F93CF93DF93182FEB0123
:102840000E94D9138FE99FE00197F1F700C00000C3
:102850002197C1F7812F0E94AD13DF91CF911F9176
:1028600008951F93CF93DF93162F8A3039F481E0B8
:102870000E94EF14DF91CF911F9108958D3011F4D4
:1028800080E0F6CFC0919403D091950396E0FE01CD
:10289000AEE8B3E001900D929A95E1F7803E90F199
:1028A00086E0FE0111928A95E9F7C0919403D091D8
:1028B0009503111133C046E050E0BE018EE893E06D
:1028C0000E94DE339E01245E3340892B91F52A5FFE
:1028D0003F4F40919603642F70E0C9010E940B3373
:1028E000481B463010F4240F311D211572E03707C4
:1028F00010F030E020E02C513C4F309395032093B2
:102900009403B8CFF6E08F9FB0011124635D7C4F34
:1029100046E050E0CE010E94D533C7CF9E012A5F2A
:102920003F4FFE012E173F0731F280818095819342
:10293000F9CFC90145E0969587954A95E1F741E0C1
:1029400050E0BA0102C0660F771F8A95E2F7CB010B
:102950006091E6057091E705862B972BB9016B5FB7
:102960007F4FE5E076956795EA95E1F702C0440F61
:10297000551F6A95E2F7842B952B9093E70580937A
:10298000E605A5CF1F93CF93DF93EC01162FFE0131
:102990008491811104C0DF91CF911F910895612F1F
:1029A0000E9431142196F3CFFF920F931F93CF9380
:1029B000DF93EC01F62EFC0101900020E9F78F0176
:1029C00001501109C017D10728F0CDB7DEB7E5E0F7
:1029D0000C9448336F2D89910E943114F3CFCF931B
:1029E000382FE0919403F0919503E45EF340209139
:1029F0009603622F70E0CF010E940B33281B822FB9
:102A0000332369F066E00E945633C82FC15010F49A
:102A1000CF91089560E080E20E943114F7CF9F01CA
:102A2000280F311D2115324018F080E0F0E0E0E081
:102A30008E0F9F2F911D8C519C4F909395038093E7
:102A40009403E6CFB0E0A0E0E8E2F5E10C9429338E
:102A50006C017B0164E670E088E70E9469308C01BC
:102A6000E601EC0CFD1C17FD0BC0FE01849164E631
:102A700070E00E94D5308C012196CE15DF0599F7C4
:102A80000E944B3181E00115110509F080E0CDB7BE
:102A9000DEB7E8E00C944533CF93C091EC0580910C
:102AA000EF058823D1F00E947108605A75418F4F5D
:102AB0009F4F6093E8057093E9058093EA05909332
:102AC000EB05C11108C062E070E08DE698E00E945D
:102AD0002215811105C0C091EC058C2FCF9108956E
:102AE00081E08093EC05F7CFB0E0A0E0EAE7F5E104
:102AF0000C94253349015A016B017C010E94B308F3
:102B00008401A4016A2D7B2D88E090E00E942A3484
:102B100094014A2D5B2DB601C70100E20E94BA3331
:102B2000622F84E290E00E941834CDB7DEB7ECE06B
:102B30000C944133B0E0A0E0E0EAF5E10C942533D9
:102B4000182FC62FD42F822E0091860300FF50C06D
:102B500080918703811308C080918803861304C085
:102B600080918903841729F08091A7028260809365
:102B7000A702E02FE695F0E0E857FE4F80818093B2
:102B8000A502802F8E7F8230E9F4ED2FD93708F02F
:102B9000E8E7F0E0E35DFD4FC1112FC02491F22F73
:102BA000E22F00FF0FC0809175019091760133E014
:102BB000839FD0011124A855BD4F891708F492C0F6
:102BC0000E94B20D10938703C0938803D0938903AA
:102BD000882071F02091860360918A0370918B03A5
:102BE000312FAE0180918C0390918D030E9474155A
:102BF000CDB7DEB7ECE00C944133EC2EF12CE49130
:102C00009E2ECE2ED12C26E0129FC00111242FEF34
:102C100030E0B9010E940B33812F90E0880F991F9B
:102C2000F5E5F69FA001F79F500D1124841B950B2D
:102C3000B82EBB0CB80EA9014E195F094C9DC001FE
:102C40004D9D900D5C9D900D1124F92FCB9DA00101
:102C50001124452F5527D901A41BB50BAC9DA0010C
:102C6000AD9D500DBC9D500D1124D901AB19B1097A
:102C70005D01AE9CD001AF9CB00DBE9CB00D112487
:102C8000AB2FBB272A1B3B0B2C9DD0012D9DB00DDC
:102C90003C9DB00D11242B2F62307105A1F050F432
:102CA0006115710509F47DCF6130710581F0292F1F
:102CB000F52F77CF6430710569F080F066307105CB
:102CC00009F46FCFF4CF2E2FE92FFB2F6ACF2E2FD1
:102CD000E52F67CF292FFE2FEB2F63CFE92FF92D9B
:102CE000252F5FCF1196EC9311972C931296FC939E
:102CF00012978F5F139661CFE6E8F3E043812CE0F3
:102D0000421B08F440E021E0628181810E949A1513
:102D10000895E6E8F3E043812CE0420F08F44FEF1A
:102D200021E0628181810E949A150895E6E8F3E02E
:102D3000628121E1621B08F460E021E0438181812E
:102D40000E949A150895E6E8F3E0628121E1620F9E
:102D500008F46FEF21E0438181810E949A15089564
:102D6000E6E8F3E0818121E04381628181510E94A4
:102D70009A150895E6E8F3E0818121E043816281BC
:102D80008F5E0E949A15089580918A03882319F016
:102D9000815080938A03209186033091870340916C
:102DA00088035091890360918A0370918B0380910D
:102DB0008C0390918D030E947415089580918A036D
:102DC000833018F48F5F80938A03209186033091BB
:102DD0008703409188035091890360918A03709121
:102DE0008B0380918C0390918D030E94741508953C
:102DF0002091860320FF24C0217022602093860347
:102E00008091A70281608093A702662381F03091B0
:102E10008703409188035091890360918A037091E0
:102E20008B0380918C0390918D030E94741520E098
:102E30004091890360918803809187030E949A15CD
:102E40000895809186038695815009F481E061E0C0
:102E50000E94F816089561E081E00E94F816089536
:102E6000E6E8F3E083E0808311828FEF828388E7D6
:102E700083831482A5EAB2E012968C911297836044
:102E800012968C93758123E030E04FEF58E760E0B5
:102E9000868197810E947415089590916E0292FB2D
:102EA000222720F9281779F080FB92F990936E027F
:102EB00060916D0270916E0284E090E00E94363461
:102EC00082E00E94EA0B089590E080E00E940234C4
:102ED000863E9E4F19F40E94F20F089580E00895F7
:102EE000B0E0A0E0E6E7F7E10C942A337901C82FBF
:102EF000880FDD0B41155105A9F0FE0193E0EE0F9F
:102F0000FF1F9A95E1F7E55FFE4F81819281855021
:102F10009E4F208130E04217530708F49A01A9011F
:102F20000E94EB33CE010E949532D82E8823D1F037
:102F300001151105B9F083E0CC0FDD1F8A95E1F78B
:102F4000FE01E55FFE4F438150E00417150708F4CA
:102F5000A801C55FDE4F6C817D8165507E4FC70142
:102F60000E94EB338D2DCDB7DEB7E7E00C944633EE
:102F7000A5E0B0E0EEEBF7E10C9427338D83E62E6D
:102F80005A01F22E680180914D068A3028F080E0C7
:102F90002596EAE00C9443338D818830C4F31A827D
:102FA00019828A836B832C8363E070E0CE010296E2
:102FB0000E9497088983E0923301F092460110E065
:102FC00000E030E020E044E050E0BE016F5F7F4F62
:102FD00084E00E9470178823D1F24E2D50E030E03B
:102FE00020E0B50185E00E947017882381F230E06F
:102FF00020E041E050E0BE016B5F7F4F86E00E9421
:103000007017882321F20F2D10E0960150E040E068
:1030100070E060E087E00E947017BACFABE0B0E0EC
:10302000E4E1F8E10C942D3388E0E6E8F3E0DE011A
:10303000119601900D928A95E1F78091A5029091E9
:10304000A602A091A70289879A87AB872B8540911A
:1030500063025091640260916502709166023FB70D
:10306000F8948091F2059091F305A091F405B09148
:10307000F5053FBF841B950BA60BB70B8436910556
:10308000A105B10510F42223C1F010E000E030E00A
:1030900020E04BE050E0BE016F5F7F4F83E00E9475
:1030A0007017882369F00E9471086093630270931F
:1030B000640280936502909366021092A70281E0F9
:1030C0002B96E4E00C944933A4E0B0E0EAE6F8E1A2
:1030D0000C942D3340915F02509160026091610227
:1030E000709162022FB7F8948091F2059091F305E8
:1030F000A091F405B091F5052FBF841B950BA60B8D
:10310000B70B11E084369105A105B10518F10E94B5
:10311000400E6E5F7F4F8F4F9F4F69837A838B8303
:103120009C8310E000E030E020E044E050E0BE018D
:103130006F5F7F4F82E00E947017182F882351F035
:103140000E94710860935F02709360028093610235
:1031500090936202812F2496E4E00C944933A7E017
:10316000B0E0E5EBF8E10C942B337B0101E010E0DB
:103170009E01295F3F4F50E040E070E060E080E05A
:103180000E947017182F882309F453C040915B02E6
:1031900050915C0260915D0270915E022FB7F894CD
:1031A0008091F2059091F305A091F405B091F50599
:1031B0002FBF841B950BA60BB70B84369105A10579
:1031C000B10548F466E070E08CEF91E00E9497084A
:1031D0009F81891771F106E010E09E012F5F3F4F3C
:1031E00050E040E070E060E081E00E947017082F3E
:1031F00066E070E08CEF91E00E94970811E09F81FB
:10320000981310E0102301F10E94710860935B0293
:1032100070935C0280935D0290935E0286E0FE01F3
:103220003196A5E5B2E001900D928A95E1F711E0A3
:103230000BC086E0ECEFF1E0DE01119601900D92FB
:103240008A95E1F71111EACF86E0E5E5F2E0D701D2
:1032500001900D928A95E1F7812F2796E6E00C9474
:1032600047330E945A0E80930A0180910A018823F5
:1032700059F01092730185E2809374010E940A0E46
:1032800081110E94A931089585E280937301F4CFE2
:10329000A8E0B0E0EEE4F9E10C942F3366EE7EEFA7
:1032A00090E080E00E94363460E082E090E00E948E
:1032B000183460E083E090E00E9418341092F70127
:1032C00060E074E184E090E00E94363460E086E0E3
:1032D00090E00E9418346FEF87E090E00E9418346D
:1032E00040E050E0BA0188E090E00E942A3460E0BB
:1032F00084E290E00E94183460E087E190E00E9450
:10330000183460E08CE090E00E94183460E08DE0BA
:1033100090E00E94183419821A821B821C821D823E
:103320001E821F82188648E050E068E170E0CE01FE
:1033300001960E94083440E050E0BA0180E290E03B
:103340000E942A3480E00E94FF0E0E94180F40E085
:1033500050E0BA018FE090E00E942A34ECEBF3E0F9
:1033600015821682178281E0808384E690E0928342
:1033700081838AE090E094838383408151816281DC
:10338000738183E190E00E942A342896E2E00C9455
:103390004B3328E030E043E060E086E30E94912F69
:1033A0000895ACE0B0E0E7EDF9E10C9429334F83E8
:1033B000588769877A878B879C87809197038823B2
:1033C00099F00E94C91980E50E9409308AEB8A951C
:1033D000F1F700C00E942130887899278038910544
:1033E00009F487C00E9439300E940A0E882309F42C
:1033F0006BC00E9471080091BB011091BC0120912B
:10340000BD013091BE016B017C01C01AD10AE20AF4
:10341000F30A97018601083011052105310508F4EA
:1034200053C06093BB017093BC018093BD01909326
:10343000BE010091A5031091A6032091A70330912E
:10344000A803601B710B820B930B6233710581051E
:10345000910580F410929B0310929A0310929D03A1
:1034600010929C0310929F0310929E031092A1034E
:103470001092A0031091A4030E945A0E482FBE017F
:10348000695F7F4F8AE993E0112309F45FC00E94CE
:103490000D0C0091A403109197030E945A0E41E075
:1034A0004827BE01695F7F4F8EE993E0011709F459
:1034B00050C00E940D0C86E0FE013796A3EBB3E0EE
:1034C00001900D928A95E1F786E0FE013796DE01C4
:1034D000119601900D928A95E1F729813A814B81ED
:1034E0005C816D817E8180E090E02C96E8E00C9418
:1034F00045330E9421300E9421307C010E942130FE
:1035000020E0E22AF82A0E9421308C010E9421301A
:1035100020E0022B182B0E943930F894B7018091DB
:103520009A0390919B030E94ED0C90939B038093D0
:103530009A03B80180919C0390919D030E94ED0C29
:1035400090939D0380939C0378944ECF0E94930C9C
:10355000A0CF0E94930CAFCFCF93DF93D82FC62F6D
:103560000E94C9198D2F80680E9409308C2F0E94FB
:1035700009300E9439308FEC92E00197F1F700C0DA
:103580000000DF91CF910895682F893708F068E730
:103590006093A20391E09093A303909197039923E2
:1035A00059F06150811101C064E08FE00E94AC1AB3
:1035B00060E080E50E94AC1A0895FB0180810E94C2
:1035C000C41A08959091A203911101C095E0282F8B
:1035D000880F330BA901490F511DCA01181619068E
:1035E00014F081E090E00E94C41A0895CF93C82F90
:1035F0000E94C9198C2F0E9409308FE792E0019731
:10360000F1F700C000000E942130C82F0E9439301D
:103610009AE69A95F1F700C08C2FCF910895CF9339
:10362000DF930E94892F269A0E94C9196AE58AE3CE
:103630000E94AC1A2FEF80E792E02150804090402A
:10364000E1F700C0000082E00E94F61A83E00E94C9
:10365000F61A84E00E94F61A85E00E94F61A86E0C7
:103660000E94F61A60E080E10E94AC1A80E00E949D
:10367000F61AD82F81E00E94F61AC82F0E9439301E
:10368000D23419F481E0C13009F080E08170809378
:103690009703882341F064E08FE00E94AC1A60E059
:1036A00080E50E94AC1ADF91CF9108951F920F928E
:1036B0000FB60F9211242F933F934F935F936F9305
:1036C0007F938F939F93AF93BF93CF93DF93EF93AA
:1036D000FF93D091E900DF708091EC00C82FC1709A
:1036E00080FDC0E81092E9008091F000877F809310
:1036F000F00078940E94C4101092E9008091F000CC
:1037000088608093F000CD2BCF70C093E900FF91CB
:10371000EF91DF91CF91BF91AF919F918F917F9169
:103720006F915F914F913F912F910F900FBE0F902E
:103730001F9018951F920F920FB60F9211242F937E
:103740003F934F935F936F937F938F939F93AF9329
:10375000BF93EF93FF938091E10082FF09C08091B6
:10376000E20082FF05C08091E1008B7F8093E10041
:103770008091DA0080FF24C08091D80080FF20C0B3
:103780008091DA008E7F8093DA008091D90080FFEB
:103790009DC080E189BD82E189BD09B400FEFDCFF5
:1037A00081E0809304068091F605811109C00E9492
:1037B00002070E94A3078091E20084608093E200E8
:1037C0008091E10080FF17C08091E20080FF13C06C
:1037D0008091E2008E7F8093E2008091E200806120
:1037E0008093E2008091D80080628093D80019BC59
:1037F00085E0809304068091E10084FF2BC08091D6
:10380000E20084FF27C080E189BD82E189BD89B5DE
:10381000982F917080FFFBCF8091D8008F7D80938F
:10382000D8008091E1008F7E8093E1008091E200DA
:103830008F7E8093E2008091E20081608093E200BD
:1038400080910506882309F447C084E0809304062C
:10385000809104068091E10083FF27C08091E200FF
:1038600083FF23C08091E100877F8093E10082E0A5
:1038700080930406109205068091E1008E7F80936C
:10388000E1008091E2008E7F8093E2008091E2006F
:1038900080618093E20042E060E080E00E94710776
:1038A0008091F00088608093F000FF91EF91BF91CC
:1038B000AF919F918F917F916F915F914F913F91C8
:1038C0002F910F900FBE0F901F90189519BC10925A
:1038D00004061092F60574CF8091E30087FD93E013
:1038E00090930406B5CF78941F921FB61F921124AF
:1038F0008F939F93AF93BF938091F2059091F305BF
:10390000A091F405B091F5050196A11DB11D80931C
:10391000F2059093F305A093F405B093F505BF91DC
:10392000AF919F918F911F901FBE1F9018959C0182
:103930004FB7F8948091F2059091F305A091F405AA
:10394000B091F5054FBF821B930B08952FB7F894E4
:103950008091F2059091F305A091F405B091F505E1
:103960002FBF08952F923F925F926F927F928F9216
:103970009F92AF92BF92CF92DF92EF92FF920F93FE
:103980001F93CF93DF938091EF05882309F41FC124
:103990008091ED059091EE050E94971CC29708F466
:1039A000EBC00E94A61C9093EE058093ED0584EE7B
:1039B00093E090939503809394030E940A0E8823CA
:1039C00009F425C1C091AF03DC2F60E08FEA98E0D5
:1039D0000E94C2148091B2038F708A3008F009C12E
:1039E000805D60E00E94311460E08BEA98E00E9404
:1039F000C2148091B1038F708A3008F0FCC0805DE2
:103A000060E00E943114DD2309F4FBC060E088EA25
:103A100098E00E94C2148C2F82958F708A3008F033
:103A2000ECC0805D60E00E9431148C2F8F708A3072
:103A300008F0E5C0805D60E00E9431148CEF8C0FCF
:103A4000853308F0DEC060E084EA98E00E94C2148A
:103A50008C2F8450990BFC01E159F74F849160E061
:103A60000E94311460E08BEC98E00E94C2148091B7
:103A7000B5030E94C20C60E00E94D4148091B6038A
:103A80000E94C20C60E00E94D4148091B8030E948E
:103A9000C20C60E00E94D4148091B7030E94C20C53
:103AA00060E00E94D41460E082EC98E00E94C214AE
:103AB0008091A203811101C085E00E94C20C60E0E8
:103AC00001960E94D41460E08CEB98E00E94C2142E
:103AD0008091A403811199C080E360E00E943114B9
:103AE00060E088EB98E00E94C2148091A9038111E4
:103AF00001C084E060E0805D0E9431146091BC03ED
:103B00008BED98E00E94C214C091BC038091BB036E
:103B10000E947B0B0E947C066C2F0E94D414609143
:103B2000BC0387ED98E00E94C214C091BC03809151
:103B3000B9030E947C066C2F0E94D4146091BC03D0
:103B400085ED98E00E94C214C091BC038091BD0332
:103B50000E947C066C2F0E94D4146091BC0381EDFE
:103B600098E00E94C214C091BC038091BF030E94E0
:103B70007C066C2F0E94D4148091E6059091E70595
:103B8000892B09F04AC08091EC05882301F10E943D
:103B900071080091E8051091E9052091EA0530913E
:103BA000EB05601B710B820B930B6F3F7F4F8F4FA9
:103BB0009F4768F48091EF05882349F062E070E048
:103BC0008EE199E00E94221581111092EC05DF919F
:103BD000CF911F910F91FF90EF90DF90CF90BF900A
:103BE000AF909F908F907F906F905F903F902F90BD
:103BF0000895895AF6CE895A03CF895A13CF895A24
:103C00001ACF81E00E94EF142DCF81E366CF60E0F0
:103C10008EED98E00E94C214AFCF8091EF0588230B
:103C200009F4B1CF8091E5058111ADCF0E944C150B
:103C30002091E6053091E7052115310509F4A3CF60
:103C400080E041E050E0082F10E01A01082E02C089
:103C5000220C331C0A94E2F7B10162237323672B11
:103C600011F48F5FF0CF9091E40590FF95C0880F1D
:103C7000880F880F80936D0110927001895F809387
:103C80006E0183E08093710124E630E047E050E06C
:103C90006BE671E088E70E940331892B09F073CF4E
:103CA000A80125E0440F551F2A95E1F78091E4050E
:103CB00080FF84C0E4ECF3E080E2DF011D928A958E
:103CC000E9F7AEE8B1E00AE811E082E9C82E81E048
:103CD000D82E97E0592E772473948D91E80129917D
:103CE0008E01240F352F311D2C513C4FE82FF0E071
:103CF000EC53FC4F90E080E0652C681A872C082E6E
:103D000001C0880C0A94EAF77901A12CE701B99067
:103D10007E01B820662D6A196770962E062E000C5B
:103D2000770BDB2D01C0DD0F9A94EAF77195619551
:103D300071096770772701C0B6946A95EAF7BD2AC2
:103D40006081962E9B289082A39468E0A612DECF15
:103D5000019631968830910579F6CA16DB0609F08E
:103D6000BCCF04E610E020E230E044EC53E060E435
:103D700088E70E942431892B09F005CFE101C09525
:103D8000D0958091E6059091E705C823D923D0937B
:103D9000E705C093E605F7CE8295880F807680937D
:103DA0006D019801369527953695279520937001DA
:103DB000815E80936E012093710166CF4C515C4F00
:103DC00004E610E020E230E0D2CF82E00E94010C55
:103DD0000E94A61C90937E0280937D0282E08093D5
:103DE0007F020895A8E0B0E0E8EFFEE10C942133F3
:103DF0008C01DC0114968C911497882309F4BEC0C1
:103E000021E04C9111965C91119712966C9112974A
:103E100013967C91139715969C910E94C40F7C0178
:103E2000F8018581882309F46AC1C7019757803852
:103E3000910508F064C1FFE0FE1508F48FC08FEF14
:103E400093E00E94F433811189C069E2A62E63E0F9
:103E5000B62EE1104DC0FE01339686E0DF011D92C3
:103E60008A95E9F75AE0452E7501BFEFEB1AFB0A78
:103E7000C5010E94F43389831A82882309F46EC035
:103E8000813009F07FC06501E2E0CE0ED11CC70190
:103E90000E94F4338A83882309F460C09FEF980F4F
:103EA0009330A0F5F3E0AF0EB11CC6010E94F433CD
:103EB0008B83882309F452C01C82DE0111967D0198
:103EC000F7012081222381F2213009F0BAC09181CB
:103ED0008281913009F058C0F2E0EF0EF11C65E0EC
:103EE00070E0893311F460E570E00E941B1453C048
:103EF000A11424E0B20691F1C5010E94F4338111AE
:103F000001C0EA943FEFA31AB30AA3CF560184304D
:103F1000A1F642E0E42EF12C56012FEFA21AB20ACC
:103F2000C6010E94F433E1E0F0E0EC0FFD1FEE0D5E
:103F3000FF1D8083882391F08C3741F4E2E0F0E0AC
:103F4000EC0FFD1FEE0DFF1D1082B7CF3FEFE31A00
:103F5000F30A650187E0E816F104F1F68091EC01BF
:103F6000877061F0D80115968C91882339F0809183
:103F70006E0282FF03C082E00E94EA0B2896E0E115
:103F80000C943D33570199CF923039F522E0E20E7F
:103F9000F11C0E94D913FFEFEF1AFF0A8FE99FE08F
:103FA0000197F1F700C00000AFE9BFE01197F1F70A
:103FB00000C00000EFE9FFE03197F1F700C000001A
:103FC0008FE99FE00197F1F700C00000AFE9BFE083
:103FD0001197F1F700C0000073CF933031F432E055
:103FE000E30EF11C0E94AD13D6CF943021F08FEF79
:103FF000E81AF80AD0CF92E0E90EF11C30E020E098
:10400000B7016F5F7F4FD70111964C918053990B89
:104010008A30910558F02150310908F4BCCFEFE9FE
:10402000FFE03197F1F700C00000F5CF429EF001AC
:10403000439EF00D11249C012E0F3F1F842F7B0106
:10404000DFCFE22FF0E0E557FE4F5490822F8695A8
:104050008695869590E0FC01E558FE4F64902770A8
:10406000712C022E02C0759467940A94E2F731E035
:1040700063227724FC01E559FE4F8490912C022E97
:1040800002C0959487940A94E2F7A1E08A229924C9
:10409000FC01E55AFE4FC490D12C02C0D594C794C0
:1040A0002A95E2F7B1E0CB22DD246114710419F006
:1040B00081EE0E94D9138114910419F086EE0E94BA
:1040C000D913E9E365E070E05E1202C060E570E0DC
:1040D000852D0E941B148114910419F086EE0E9414
:1040E000AD136114710419F081EE0E94AD13C11477
:1040F000D10409F450CF65E070E08CE2F6CEF09286
:10410000B003E092AF03F801808191819093B203F4
:104110008093B1038581FCE4EF16FEE7FF0609F406
:1041200076C0C0F53AE4E3163EE7F30609F44CC066
:104130009BE4E9169EE7F90609F45CC0882331F098
:1041400080917F02823011F40E94E51EC7019A958A
:1041500081159F4108F07DC0F701FF27D801159612
:104160008C91E13DF10548F0E93DF10508F473C09B
:10417000E734BEE7FB0709F4B0C0882309F46FC039
:10418000E054FE47EA30F10508F069C0E85AFB4CFC
:104190000C949233ADE4EA16AEE7FA0609F445C092
:1041A000BEE4EB16BEE7FB0649F6882309F4D6CE3B
:1041B0008091BF039091C0030197181619060CF463
:1041C00040C081E090E03DC0882309F4C7CE8091D3
:1041D000BC0391E089278093BC034091BC035091BC
:1041E000BD036091BE037091BF0383E190E00E9424
:1041F0002A34B4CE882309F4B1CE8091BD039091C6
:10420000BE0305969093BE038093BD03E6CF88233B
:1042100009F4A4CE8091BD039091BE03059785302B
:10422000910584F785E090E0EDCF882309F496CEE0
:104230008091BF039091C0030196883EE3E09E0702
:104240002CF49093C0038093BF03C7CF87EE93E015
:10425000F8CFF70183CF682F8E2F0E946410F801EA
:104260008581F6E1EF16FCE7FF0609F064C08823BC
:1042700009F44CC08091F7058A7A91E009F490E046
:104280009093BF0169E2811165E384EA91E00E94A5
:104290007D080E947B1062CE80E00E94C41A1092BA
:1042A000A9035CCE4091A2035091A90350FB47F9AA
:1042B0005695537060E070E08FE090E098CF81E019
:1042C0000E94E21A4BCE8FEFFBCF8AE0F9CF86EF48
:1042D000F7CF9091A40381E089270E948C0B3ECEFA
:1042E0008091A903811101C084E08F5F18160CF042
:1042F00081E0883008F087E08093A9032FCE809179
:10430000A903811101C084E08150F0CF8091BF01E9
:1043100081110FC089E2E6EAF1E02CEA31E09191E7
:10432000891303C0DF0111971C922E173F07B9F7BD
:10433000B0CF85E3F0CF811114C38091F70582726D
:10434000F701E052F847E531F10508F063C0EE5996
:10435000FB4C0C9492338091860380FF1CC0282F65
:104360002E7F2093860330918703409188035091DC
:10437000890360918A0370918B0380918C039091E3
:104380008D030E9474158091A70281608093A7021B
:104390000E94B20DE3CD81608093860361E0869533
:1043A0000E94F816DBCD41E257E16BE277E10E9413
:1043B000AD08D4CD4BE257E161E277E1F8CF40EBB5
:1043C00056E16AEB76E1F3CF4AEB56E160EB76E13A
:1043D000EECF46E956E163EA76E1E9CF43EA56E1FA
:1043E00066E976E1E4CF4CE756E169E876E1DFCFB4
:1043F00049E856E16CE776E1DACF44EC56E16EED40
:1044000076E1D5CF4EED56E164EC76E1D0CF61E0B8
:1044100081E0C6CF27E7E2162CE7F20609F460C078
:1044200038E7E3163CE7F30609F45EC0F80185813E
:10443000E080F180882309F49FC0C7010E94650FC6
:10444000D82E682FC7010E94420BB7018D2D0E9404
:10445000570F0E94FF097C01882ED8011596AC9059
:10446000159716969C9092943FE093228091EC01D0
:104470008770F1F0CA2CAA20E1F08F2D807F803464
:1044800051F080E28E0D883098F0911004C08F2D8D
:10449000807E803269F080916E0282FF09C082E0E6
:1044A0000E94EA0B8091EC018770CC24C3948111A7
:1044B000C12CBF2CB2942FE0B222BBE0BB1508F494
:1044C000C3C0EB2DF0E0E958FB4C0C94923381E033
:1044D0000E94010C43E062E081E00E94BD0B3ECDF2
:1044E00081E00E94DD0BF6CF82E0FBCF83E0E8168F
:1044F0008CE7F80671F160F4E114ACE7FA06D1F04C
:10450000B1E0EB16BCE7FB0609F090CF0E948413E4
:10451000EBE5EE16ECE7FE0669F1FCE5EF16FCE7CD
:10452000FF06F1F02AE5E2162CE7F20609F07ECF4D
:1045300081E01DC01092F7050E94B8103FEF84E3A0
:104540009CE0315080409040E1F700C000000E94A4
:1045500060086FEF7FEF90E080E00E943634D6CFA6
:1045600080916E0282FB882780F991E089270E9462
:104570004D175CCF80E0FBCFC7010E940E0BD82EF9
:1045800064CFEF2DEF70DE2E8F2D807F19F0D29447
:1045900090EFD922AA20B9F0DD2069F080E28E0DDB
:1045A000883010F0811009C08091F705D82AD09288
:1045B000F7050E947B108E2D45C08091F601D82A08
:1045C000D092F601F6CF8E2D0E94AD13DD20E1F1E1
:1045D00080E28E0D883010F0811004C08D2D0E9475
:1045E000FD0A06C0D0948091F601D822D092F6013F
:1045F0000E947B1029C0FF2DFF70DF2E8F2D807F42
:10460000803219F0D29480EFD822882059F021E02E
:10461000821609F481C0AA2009F48DC0992009F4FA
:104620004FC0C9CF80916E0282FD46C0AA20F1F131
:10463000DD2039F08091F705D82AD092F7050E9445
:104640007B1080E00E94D913AB2DA850BB0B1497B0
:1046500010F40E942F0ECC20A9F08091EC0180FD77
:1046600011C0F80115828695869586950E94010CE9
:10467000C8010E94F21E8091EC0186958695869570
:104680000E94DD0B20E0D8014C9111965C911197AE
:1046900012966C91129713967C91139714968C91A5
:1046A000149715969C910E94C40F68CC80E00E94DC
:1046B000AD13DD2049F292CFAA20A1F0911004C0E1
:1046C0008D2D0E94A313C0CF31E09312BDCF8091F6
:1046D000F5019D2D9823D91609F4B6CFD82AD0928A
:1046E000F501B2CF9110B0CF8D2D0E949C13909107
:1046F000F5018D2D892329F08D2D809589238093B7
:10470000F5018091C0019D2D982309F49DCFD0948F
:10471000D822D092C00198CFAA2029F085E089152F
:1047200008F492CFCDCF94E0991508F48DCF8D2D5C
:104730000E949C1389CF9920D1F3A9E38A1209C161
:10474000BFEFE7EEF3E0B150E040F040E1F700C02A
:1047500000008E2D0E94AD1377CF6A2D8E2D0E9402
:10476000641072CF8F2D837091F5A1106DCF4E2DF7
:10477000429546954770440F440F8E2D8F70042E3E
:1047800001C0880F0A94EAF72E2D2071E4FE07C0BD
:104790002FE030E001C0220F4A95EAF720953F2D27
:1047A000369536953370323069F050F44091F70108
:1047B000313029F0822B84230E94780B45CF842B43
:1047C000822BFACF282B8091F7018227F5CF86958F
:1047D000AA2011F08F2D8170882309F435CF4E2D3A
:1047E000429546954770440F440F8E2D8F70042ECE
:1047F00001C0880F0A94EAF72E2D2071E4FE07C04D
:104800002FE030E001C0220F4A95EAF720953F2DB6
:10481000369536953370323069F050F44091BB03D1
:10482000313029F0822B84230E94B80B0DCF842BCA
:10483000822BFACF282B8091BB038227F5CF9F2DA7
:104840009F70F92EAA2029F0892F0E94010C8E2D2D
:1048500038CF8E2D0E949C138F2D0E94DD0BF4CE3D
:104860008E2DA2EF8A16B1F1A81570F0B0EF8B165D
:10487000D1F0E1EF8E1691F0AA2009F45EC09110FC
:104880009ACE8F2D8F712AC0F3EF8F1651F124EF3E
:104890008212F2CF80916E0282FD2FC08F2D8F7118
:1048A000AA20D9F21BC0AA2081F034E0391508F4FF
:1048B000CBCE2F2D2F7181E090E001C0880F2A957B
:1048C000EAF79091BB038927AFCF85E0891508F4FB
:1048D000BBCEEFCF8F2D8F71A110BFCF0E94010CE7
:1048E000B3CE80E0AA2009F49FCF9F2D9F7181E075
:1048F00001C0880F9A95EAF797CFAA2099F09F2DCB
:104900009F71F92E892F0E94010C80916E0282FF07
:1049100007C0A8E0FA9EC001112483608093EC01D7
:104920008F2DDCCF81E00E94EA0BB1E0B91508F0D1
:104930008BCE82E00E94EA0B87CE992079F08933F2
:1049400041F4EFEFF7EE23E0E150F0402040E1F7D3
:10495000FECE8FE19EE40197F1F7F9CE8F2D8F7196
:104960007CCFB7E7EB16BCE7FB0609F4B0CDE8E770
:10497000EE16ECE7FE0609F0B9CD82E0A9CDCF93A3
:10498000DF938091EB01807F09F04DC08091EA01B7
:10499000882309F448C0E091470650910E06C09163
:1049A000E601D091E5016091E7017091E80147E0EF
:1049B0005E17C9F18E2F90E0E49FF0011124E15FB2
:1049C000F94F2481222391F1489FF001499FF00D76
:1049D0001124DF01A15FB94F11962C9111972C136F
:1049E00025C02C912D1322C015962C9115972111BD
:1049F0001DC012962D913C91261B370B283C31058A
:104A0000A8F48091EB018F7080618093EB01EB5EE5
:104A1000F94F80818F708061808385EE91E00E94E4
:104A2000F21E0E94040BDF91CF910895FC01319694
:104A3000E770BECFA4E1B0E0E0E2F5E20C942533EC
:104A40008C0186E0F801DE011F9601900D928A9597
:104A5000E1F7F8018481E58095EEA92E91E0B92E69
:104A60009091E901911128C0882319F1EE20F1F00D
:104A7000C8010E94A10FF82E8823C1F087E0F80139
:104A8000D50101900D928A95E1F78091E90181307D
:104A900031F48091E5019091E6010E94940F0E940B
:104AA000BF248F2D6496ECE00C944133C8010E9422
:104AB000F21EFF24F394F5CFD080C18082809380D2
:104AC000F090EA012091E7013091E801A401421B36
:104AD000530BFF2009F4D9C0483C510508F092C09F
:104AE0008823F9F29091E6018091EB01282F207F35
:104AF00009F056C0C91214C09091E501D91210C036
:104B0000E11048C08F7080618093EB0185EE91E0E9
:104B10000E94F21E8091EB01F8018683F12CC1CF37
:104B2000E11038C06C2D8D2D0E94E3066C2D8D2D6B
:104B30000E94E306E82E8111F1CFDF86C88A8F85B7
:104B400098890E94940F292F22952F70243058F4B1
:104B50009F70223088F0992399F0F8019681907F18
:104B600079F4FE2C9ECF2A5F2F70223068F0C801A6
:104B70000E94F21EEF2CF5CF992311F0882389F3C0
:104B8000805E883070F3F3CF803F58F3815F8330CD
:104B900070F7E7CF8091EB0181608093EB01BECF8E
:104BA000C91207C09091E501D91203C0EE2009F4A3
:104BB0008DC0C8010E94A10F882309F477CFEE2091
:104BC00009F474CF8091EB01803288F02091E501E7
:104BD0003091E601398728879B868A869091E90182
:104BE0009C871D868E87CE0108960E94F21E87E064
:104BF000F801A5EEB1E001900D928A95E1F70E94CF
:104C0000BF2457CF9091EB01292F207F51F485EEDF
:104C100091E00E94F21E87E0F50111928A95E9F772
:104C20007DCF882309F43DCF8091E6018C1110C01F
:104C30008091E501D8120CC0E1100AC09683C8012A
:104C40000E94F21E87E0F50111928A95E9F729CFBB
:104C5000C8010E94A10F882309F428CFEE2009F48F
:104C600025CF8091EB01803210F22091E501309147
:104C7000E6013A8329839C828B829091E9019D838E
:104C80001E828F83CE010196B0CF483C5105D0F6ED
:104C9000882309F40ECFFE2CEE2009F407CF809173
:104CA000E6018C1120C08091E501D8121CC08091D2
:104CB000EB0180FD0FC0982F907F61F08683903FBD
:104CC00031F0982F907F905F8F70892B8683C80179
:104CD0000E94F21E87E0F801A5EEB1E001900D926E
:104CE0008A95E1F7DECEC8010E94A10F81117FCF26
:104CF0008091EB0181608093EB01C8010E94F21E5C
:104D0000D0CEABE1B0E0E7E8F6E20C942D334E8B69
:104D10005F8B688F798F8A8F9B8F192F91111092DB
:104D2000F6011D8A86E0FE017696DE011F9601904F
:104D30000D928A95E1F70A8D002341F021E04F851D
:104D4000588969897A89C8010E94C40F0B8B1C8B12
:104D500087E0FE013F96DE01189601900D928A953C
:104D6000E1F7CE0108960E941A2581110CC087E058
:104D7000FE013896DE01119601900D928A95E1F7B9
:104D80008C8581110BC017E08091470690910E062B
:104D9000891333C06B96E4E00C94493320910E06DE
:104DA00030E0C9010196877099274091470648175E
:104DB000190699F097E0929FD001939FB00D1124AE
:104DC000A15FB94FFE01319601900D929A95E1F7DE
:104DD00080930E060E94040BD6CF1092F7050E9416
:104DE000B81010920E061092470687E0E5EEF1E04B
:104DF000DF011D928A95E9F7C6CF819FC00111247A
:104E0000815F994F0E941A25882321F280914706DD
:104E100090E001968770992780934706B5CFA6E06A
:104E2000B0E0E5E1F7E20C942D330E94A61C8C0162
:104E30008091F8019091F9018017910781F0198212
:104E40001A820E94A61C682F49815A81792F80E01E
:104E500090E00E9481261093F9010093F8012696B4
:104E6000E4E00C944933ACE0B0E0E9E3F7E20C9401
:104E70002133CE0101967C018CE0D7011D928A95E9
:104E8000E9F73701570190E0C92E91E0D92E44246B
:104E90004394512CF60181916F010E94000D00C0D6
:104EA00086E0882E81E0982EF40110E000E0219148
:104EB000A22FA295AF70B0E090968C9190E02F70E9
:104EC00002C0959587952A95E2F780FD0AC0D50125
:104ED0008C919201002E01C0220F0A94EAF7822BD6
:104EE0008C930F5F1F4F0430110509F7F6013197BE
:104EF00080810E94140DB0EABA95F1F7EFEFAE1A77
:104F0000BE0AF6E0CF16F1E0DF0621F6DD24D394E9
:104F1000D4018D914D010E94000D00C03D2D002E49
:104F200001C0330F0A94EAF7F70140E051E0DA01DB
:104F30002D91AD01822F82958F7090E0DC019096CB
:104F40008C9190E02F7002C0959587952A95E2F795
:104F500080FD03C08081832B80833196B1E0463091
:104F60005B0729F7F401319780810E94140DE0EA74
:104F7000EA95F1F70F5F1F4F0830110549F6EEE48F
:104F8000F6E097012A5F3F4FD12CD3018D913D016F
:104F90009191891729F0DF0111978C93DD24D39427
:104FA0002615370591F700916C02DD2041F181E073
:104FB0008093AE010E94A61C9093AD018093AC013A
:104FC0008091AC019091AD010E94971C0597D8F09B
:104FD00010E00E571D4F46E050E06EE476E0C80149
:104FE0000E94DE33892B41F086E0EEE4F6E0D80142
:104FF00001900D928A95E1F71092AE0104C0809164
:10500000AE018111DDCF0E940A0EC82EE0916C0224
:10501000811175C0F0E0EE57FD4F86E0ACEFB1E0D6
:1050200001900D928A95E1F766E070E08CEF91E0D7
:105030000E9497088093FB018090020290900302E7
:10504000A0900402B09005028091AF019091B00150
:10505000A091B101B091B20188169906AA06BB06CB
:10506000D1F08092AF019092B001A092B101B092C4
:10507000B2010E940A0E81110EC00E947108861AA8
:10508000970AA80AB90A8092670290926802A092D1
:105090006902B0926A028BE0E6E0F2E0D70101908B
:1050A0000D928A95E1F7809106028695009107029C
:1050B000F0900802E0900902109110021092100284
:1050C0001123A9F010FF0BC0998190FF15C090919A
:1050D000860391609093860360E00E94F81611FFAA
:1050E00006C020E04E2D6F2D802F0E949A158D2D29
:1050F0002C96E0E10C943D330E94FD0DF0CF24E5A9
:1051000036E086E0D9011D928A95E9F70E2F10E06E
:105110000E571D4F80914D068A30A8F56FEA78E151
:10512000C8010E94290D882309F449C064E678E18A
:10513000C8010E94290D882309F441C06EE078E17E
:10514000C8010E94290D8823D1F110924D0681E0FB
:105150008093B50100916B0210E00E571D4F46E0A1
:1051600050E064E576E0C8010E94DE33892B09F443
:10517000BECF86E0E4E5F6E0D80101900D928A9575
:10518000E1F7DC2CB4CF8091B3019091B4010E947F
:10519000971C843F914010F68091B501882309F453
:1051A000A6CF1092B501E0916B02F0E0EE57FD4FF3
:1051B00096E0DF011D929A95E9F7D82E98CF80915D
:1051C0004D068F3F31F08F5F80934D068A3008F493
:1051D000BECF0E94A61C9093B4018093B301DCCF94
:1051E000CDB7DEB7EE970FB6F894DEBF0FBECDBFDA
:1051F00085B7806885BF85B7806885BF84B7877F9E
:1052000084BF0FB6F894A895809160008861809360
:105210006000109260000FBE80E890E00FB6F89436
:1052200080936100909361000FBE8DED98E09093A4
:10523000A3018093A2010E9402070E94A30780910C
:10524000E20084608093E2007894809104068823D1
:10525000A1F01091E9001F709091EC00892F8170EE
:1052600090FD80E8182B1092E9008091E80083FD02
:105270000E94C4101F701093E90082E084BD93E087
:1052800095BD9AEF97BD80936E00109267021092C1
:1052900068021092690210926A020E94F20F811154
:1052A00002C00E94180F0E94311980910A010E94C9
:1052B0003119809106010E94140D809107010E940E
:1052C000140D809108010E94140D809109010E9423
:1052D000140D00E011E046E0E42E41E0F42ED80188
:1052E0008D918D010E94140DE016F106C1F7809199
:1052F0000A0196E0811190E090936C0286E0891B90
:1053000080936B020E940A0E811102C00E94AC3190
:10531000EEE4F6E0A2E8B2E011921D9226E0EA3552
:10532000F207D1F70E946417811102C00E94481948
:1053300082E090E00E94F4338093700284E090E079
:105340000E94023490936E0280936D020E94332774
:105350008FE39CE90197F1F700C000000E9433271A
:105360008091820280FF08C06FEF7FEF90E080E0C5
:105370000E9436340E94600883E090E00E94F4337B
:105380000E94780B8091BB030E94A00B0E940A0E22
:10539000882309F4A8C180E08093E40580E8809325
:1053A00096030E9463306BE070E082E292E00E941C
:1053B00022158823E9F18091E40565E070E081FD24
:1053C00094C18DE192E00E942215882389F16DE05D
:1053D00070E08BE092E00E942215882349F10E9440
:1053E0007108605A75418F4F9F4F6093E805709325
:1053F000E9058093EA059093EB05E4EEF3E080E0A5
:1054000092E0DF019C011D9221503040E1F7F093C2
:105410009503E09394038FEF9FEF9093E7058093BC
:10542000E60581E08093EF058093EC051092E50599
:1054300080916F02811176C00E946417811104C0AF
:105440000E9448190E94301788E090E00E94FC33C7
:105450004B015C0184E290E00E94F433282F30E09D
:1054600040E050E060E070E080E090E000E20E9408
:105470009F33282939294A295B29209386033093B1
:105480008703409388035093890360938A03709342
:105490008B0380938C0390938D038091A70283608C
:1054A0008093A7022E7F89F50E94301788E090E054
:1054B0000E94FC336B017C0184E290E00E94F43393
:1054C000282F30E040E050E060E070E080E090E0C5
:1054D0000E949F33B22FA32FF42FE52F5B0197017A
:1054E0008601BC29A12BFE29E32BB0938603A09350
:1054F0008703F0938803E093890360938A03B09253
:105500008B0380938C0390938D030E94B30880914A
:10551000860380FF04C060E086950E94F81681E053
:1055200080936F020E940A0E811102C00E94AC316A
:105530000E940F1B0E940A0E81112EC085E89EE07A
:1055400090935201809351012AE130E030934D0154
:1055500020934C018AE390E09093500180934F0197
:1055600049EC58E050935A0140935901309355014A
:105570002093540190935801809357014DED5AE1C7
:10558000509362014093610130935D0120935C016F
:105590009093600180935F010E946417882389F0D3
:1055A0008FE090E00E94FC338B01862F8F770E9462
:1055B000C41A001F0027001F1370110F102B109327
:1055C000A9030E94710E83E190E00E94FC338B01DD
:1055D0009C016093BC031093BD038093BE03309382
:1055E000BF031092C0031092C1031092C203109225
:1055F000C30383E691E09093F1058093F00528E7DB
:10560000A22EB12C88248A94912C80910406853096
:1056100069F49091030680910406853009F468C00E
:105620001092F7050E94B8100E942F0E0E94332797
:1056300001E712E09CE7E92E91E0F92EB70122E89C
:1056400032E0F8019191D9018D919D01DB014D91DD
:10565000BD018423B2E0ED37FB0709F45EC0981763
:1056600089F30E940A0E282E82E8C82E82E0D82EE6
:10567000612CF60171906F01D7018D917D01782227
:10568000F80131908F01371431F13724512C442423
:105690004394832D8421B9F02220A9F059AE6AAE3B
:1056A0000E94A61C9CAF8BAFF1E0FDAF91E0872D6F
:1056B000842109F490E09EAF49AD5AAD6BAD7CAD4D
:1056C0008DAD0E9481265394440C28E05212E1CF04
:1056D000F8013197708263943CE06312CACF0E9454
:1056E000400E11E01FC082E057CE88E192E06BCE01
:1056F00080910406992309F48ECF0E943327ACE7EA
:10570000B1E0E2E8F2E081919D91892309F0DEC3E6
:1057100032E0EE38F307B9F77CCF9813A2CF0E949E
:105720000F2710E00E940A0E40919F025091A002A4
:105730006091A1027091A2028091A3029091A402B3
:105740000E94D11920939F023093A0024093A1029E
:105750005093A2026093A3027093A40286E0EFE943
:10576000F2E0DE019D9601900D928A95E1F786E0C8
:10577000FE01BD96DE01979601900D928A95E1F7A4
:1057800086E0FE01B796DE01119601900D928A9592
:10579000E1F786E0FE013196AFE9B2E001900D92AB
:1057A0008A95E1F786E0EFE9F2E0DE019D9601904F
:1057B0000D928A95E1F786E0FE01BD96DE01119615
:1057C00001900D928A95E1F7FFA408A9902F9F29D7
:1057D00080917F02992309F484C0813009F43EC08E
:1057E000823009F070C00E94A61C90937E028093C4
:1057F0007D0286E0FE013196DE01919601900D92C8
:105800008A95E1F786E0FE01B196DE01D39601901C
:105810000D928A95E1F786E0FE01F396DE0111967E
:1058200001900D928A95E1F786E0FE013196AFE98D
:10583000B2E001900D928A95E1F70E940B10811160
:105840007EC0809180021092800280FF7BC00E9407
:10585000400E0E94B21C0E944C1578C08091BC037F
:10586000882339F28091BB030E947B0B8111C1CF49
:10587000802F000F990B97FF03C091958195910997
:105880002F2DFF0C330B37FF03C0319521953109C4
:10589000820F931F2091B9033091BA03820F931F97
:1058A0009093BA038093B9032091BD033091BE0356
:1058B000821793070CF49DCF1092BA031092B9038C
:1058C0000E94E51E96CF0E94A61C90937E028093B4
:1058D0007D0241E040937F021092BA031092B90317
:1058E00088CF8130E1F0823019F580917D0290916E
:1058F0007E020E94971C4091BF035091C00364E652
:10590000649F9001659F300D11242817390708F016
:1059100070CF10927F0282E00E94DD0B6ACF8091EF
:105920007D0290917E020E94971CC39708F461CF7C
:105930001092BA031092B90310927F025ACF81E0FD
:1059400090E081CF0E94B21C111185CF0E942F0ED2
:1059500090918102891721F0809381020E94710841
:1059600080910406843009F4DEC00E940A0E882368
:1059700009F44BCE0E9471082091940221116EC04F
:105980000091900210919102209192023091930225
:105990006B017C01C01AD10AE20AF30A9701860161
:1059A000043F11402105310508F458C0609390026E
:1059B00070939102809392029093930280918E0251
:1059C00090918F02019690938F0280938E0219829C
:1059D0008E010F5F1F4F21E050E040E060E088E063
:1059E0000E94B817811106C080918E0290918F029B
:1059F0000A97A4F151E0509394025093980381E0E8
:105A00009981911101C080E080939903809197035F
:105A100010E0882329F00E945A0E11E0811112E053
:105A200080919903882309F44DC20E945A0E811176
:105A30004BC282E0182B0E94E90F6B017C01DC0154
:105A4000CB018C7FBC01CD01612BC616D706E806C1
:105A5000F90611F00E94FA0E0E94710E80919903CE
:105A6000882309F4D2CD0E9471086B017C018091DA
:105A7000950290919602A0919702B0919802A70189
:105A80009601281B390B4A0B5B0BDA01C9010497FD
:105A9000A105B10580F119821A821B821C828E0138
:105AA0000F5F1F4F24E050E040E060E089E00E947B
:105AB000B8178823C1F069817A8180919E03909103
:105AC0009F030E94ED0C90939F0380939E036B8134
:105AD0007C818091A0039091A1030E94ED0C909392
