:100000000C949B060C94B8060C94B8060C9402321F
:100010000C94B8060C94B8060C94B8060C94B80668
:100020000C94B8060C94B8060C947E1C0C943A1CE4
:100030000C94B1270C94B8060C94B8060C94B8062E
:100040000C94B8060C94B8060C94B8060C94B80638
:100050000C94B8060C94571D0C94B8060C94B80672
:100060000C94B8060C94B8060C94B8060C94B80618
:100070000C94B8060C94B8060C94B8060C94B80608
:100080000C94B8060C94B8060C94B8060C94B806F8
:100090000C94B8060C94B8060C94B8060C94B806E8
:1000A0000C94B8060C94B8060C94B8060501090225
:1000B000A10185020901A1000509190129081500FE
:1000C0002501950875018102050109300931158165
:1000D000257F95027508810609381581257F9501D0
:1000E00075088106050C0A38021581257F95017572
:1000F000088106C0C00660FF0961A1010962150000
:1001000026FF009520750881020963150026FF006F
:10011000952075089102C005010906A1010507197E
:10012000E029E71500250195087501810295017503
:100130000881010507190029FF150026FF00950613
:1001400075088100050819012905950575019102B9
:10015000950175039101C00000000000000000003F
:10016000000000000000000000000000000000008F
:1001700000000000000000000000007E0F00D4FF1F
:10018000FFFFC70000007800000000000000002A08
:100190002B2800000000000000000000000000000C
:1001A000000029000000002C1E34202122243426C7
:1001B00027252E362D3738271E1F202122232425C0
:1001C000263333362E37381F0405060708090A0B75
:1001D0000C0D0E0F101112131415161718191A1BE7
:1001E0001C1D2F3130232D350405060708090A0B85
:1001F0000C0D0E0F101112131415161718191A1BC7
:100200001C1D2F3130354C00DA0281FFD9F1DB2083
:10021000A4A62EAF00A0C000A1C800AED580A81F24
:10022000D300408D1420007F3F1F643214783C1EA1
:100230001E140A056162636465666768696A6B6CAF
:100240006D6E6F707172737475767778797A3132FA
:100250003334353637383930524542545F2D3D5BA3
:100260005D5C233B27602C2E2F20202700204B0095
:10027000202043004B6579203A2020520020204462
:1002800000303020205300202020202043504900FF
:1002900042616C6C3A00808182838485868788897C
:1002A0008A8B8C8D8E8F9091929394A0A1A2A3A4FF
:1002B000A5A6A7A8A9AAABACADAEAFB0B1B2B3B476
:1002C000C0C1C2C3C4C5C6C7C8C9CACBCCCDCECFB6
:1002D000D0D1D2D3D40000010101010101010101FB
:1002E00002020202020202020203030303030303E7
:1002F00003040404040404040505050505060606B4
:100300000606070707070708080808090909090A70
:100310000A0A0B0B0B0C0C0C0D0D0D0E0E0E0F0F15
:100320000F101011111112121313141415151616A3
:100330001717181819191A1A1B1B1C1D1D1E1E1F12
:100340002020212222232424252626272829292A61
:100350002B2C2D2D2E2F3031323233343536373889
:10036000393A3B3C3D3E3F40414243444546474885
:10037000494A4C4D4E4F50515354555658595A5B5B
:100380005D5E5F616264656668696B6C6D6F7072FB
:10039000737577787A7B7D7E8082838587888A8C67
:1003A0008E8F91939596989A9C9EA0A2A3A5A7A99B
:1003B000ABADAFB1B3B5B7BABCBEC0C2C4C6C9CB92
:1003C000CDCFD1D4D6D8DBDDDFE2E4E7E9EBEEF048
:1003D000F3F5F8FAFDFFFFAA7F55402223252628D2
:1003E000292A2C2D2F3032333536383A3B3D3E40CA
:1003F00042434547494A4C4E5051535557595A5C10
:100400005E6062646668696B6D6F71737577797B26
:100410007D7F81838587898A8C8E90929496989A25
:100420009C9E9FA1A3A5A7A8AAACAEAFB1B3B4B63A
:10043000B8B9BBBCBEBFC1C2C3C5C6C7C9CACBCC95
:10044000CDCED0D1D2D2D3D4D5D6D7D7D8D9D9DA68
:10045000DADBDBDBDCDCDCDCDCDDDDDDDDDCDCDCDD
:10046000DCDCDBDBDBDADAD9D9D8D7D7D6D5D4D305
:10047000D2D2D1D0CECDCCCBCAC9C7C6C5C3C2C1DA
:10048000BFBEBCBBB9B8B6B4B3B1AFAEACAAA8A737
:10049000A5A3A19F9E9C9A98969492908E8C8A89EF
:1004A000878583817F7D7B79777573716F6D6B69CC
:1004B00068666462605E5C5A5957555351504E4CA1
:1004C0004A4947454342403E3D3B3A383635333250
:1004D000302F2D2C2A29282625232200AF00AE29D3
:1004E000001E001F00000020002100220000004C20
:1004F0000014001A00000008001500170000002B6F
:1005000000040016000000070009000A00000001B6
:10051000511D001B000000060019000500300001FD
:1005200000E000E2000000E30091412C4290432DE6
:100530000027002600000025002400230000008979
:10054000001300120000000C0018001C0000002422
:100550000233000F0000000E000D000B000000E54C
:10056000003800370000003600100011003200464D
:1005700000E60001000000E700914128422A00291E
:10058000021E022F00000020022102220200004C65
:100590000214021A02000008021502170200002BC2
:1005A00002040216020000070209020A020000010A
:1005B000001D021B020000060219020502300201A2
:1005C00000E002E2020000E30201000100010087F6
:1005D00002260225020000340223022E00000089B8
:1005E000021302120200000C0218021C0200001F7B
:1005F0000234000F0200000E020D020B020000E5A3
:1006000002380237020000360210021102320201E3
:1006100000E60201000000E7020100010001000104
:10062000003A003B0000003C003D003E000000019D
:100630000001002400000025002600010000000148
:10064000000100210000002200230033020000010D
:100650000001001E0000001F0020002D02250201E5
:1006600000010027000000370001000100010044E4
:1006700000430042000000410040003F00000045F0
:100680000001004F00000052005000010000000176
:1006900000F600F50000005100F4004B00000001DE
:1006A00000010001000000010001004E00260201CF
:1006B000000100010000000100010001004C00C227
:1006C0005C0100010000000100010001000000C306
:1006D0005CC55CC75C0000C95C010001000000C48F
:1006E0005CC65CC85C0000CA5C010001000000013F
:1006F000000100BA5D0000B95DB85DB75DDE5C0069
:100700005C010050000000510052004F000100D277
:100710005CD15CD05C0000CF5CCE5CCD5C000001A5
:100720000001005D5D0000D55CD45CD35C0000B1CD
:100730005DB25DB55D0000B35DB45DB65D00000106
:100740000001004D0000004B004E004A00DE5C003E
:100750005C010001000000010001002A0001000905
:10076000025B00030100A0FA09040000010301017B
:100770000009211101000122400007058103080042
:100780000109040100020300000009211101000118
:100790002222000705820320000107050303200031
:1007A00001090402000103000000092111010001F8
:1007B0002249000705840320000112010002000005
:1007C0000008594D00010100010200010C036D00F9
:1007D00074006B0036003400000016034D00650005
:1007E0006E00740061006B006F005F0079006100B3
:1007F0000000040309040000000000003E5B4F5BA2
:100800003E003E6B4F6B3E001C3E7C3E1C00183C85
:100810007E3C18001C577D571C001C5E7F5E1C0030
:1008200000183C180000FFE7C3E7FF000018241879
:100830000000FFE7DBE7FF0030483A060E002629FC
:1008400079292600407F05050700407F05253F00E8
:100850005A3CE73C5A007F3E1C1C0800081C1C3E0A
:100860007F0014227F2214005F5F005F5F00060993
:100870007F017F00006689956A00606060606000AB
:1008800094A2FFA2940008047E04080010207E2099
:10089000100008082A1C0800081C2A0808001E105E
:1008A000101010000C1E0C1E0C0030383E383000AA
:1008B000060E3E0E060000000000000000005F0073
:1008C0000000000700070000147F147F1400242A92
:1008D0007F2A120023130864620036495620500014
:1008E000000807030000001C224100000041221CF8
:1008F00000002A1C7F1C2A0008083E08080000800F
:10090000703000000808080808000000606000005F
:100910002010080402003E5149453E0000427F403D
:1009200000007249494946002141494D33001814DD
:10093000127F10002745454539003C4A494931009E
:1009400041211109070036494949360046494929DC
:100950001E000000140000000040340000000008E9
:10096000142241001414141414000041221408002D
:100970000201590906003E415D594E007C121112D8
:100980007C007F49494936003E41414122007F4178
:1009900041413E007F49494941007F090909010061
:1009A0003E41415173007F0808087F0000417F41AC
:1009B00000002040413F01007F08142241007F4099
:1009C000404040007F021C027F007F0408107F002F
:1009D0003E4141413E007F09090906003E41512147
:1009E0005E007F0919294600264949493200030162
:1009F0007F0103003F4040403F001F2040201F0078
:100A00003F4038403F006314081463000304780437
:100A100003006159494D4300007F414141000204F8
:100A200008102000004141417F000402010204003F
:100A30004040404040000003070800002054547824
:100A400040007F2844443800384444442800384457
:100A500044287F0038545454180000087E090200CE
:100A60001824241C78007F080404780000447D408A
:100A700000002040403D00007E102844000000415E
:100A80007F4000007C04780478007C08040478002F
:100A90003844444438007C182424180018242418AE
:100AA0007C007C08040408004854545424000404C6
:100AB0003F4424003C4040207C001C2040201C007F
:100AC0003C4030403C004428102844004C9090901A
:100AD0007C004464544C440000083641000000008F
:100AE0007700000000413608000002010204020005
:100AF0003C2623263C00000000000000000000000F
:100B000000000000000000F81E030101020C0808AC
:100B1000080808101010101804020206FC0000005B
:100B20000000000000000000000000F01E030101B2
:100B3000030C0808080808080808080C0603010147
:100B400003FE0000000000000000000000000000A4
:100B5000F03E030103060C0C0C08080808080808FE
:100B6000080C060101031EE0000000000000000068
:100B700000000000E0F0F0F0E0ECEEF7F370200091
:100B80007C7C7C7E007E7E7E7F7F7F000080C0E05C
:100B90007E5B4F5BFEC00000C000DCD7DEDEDED730
:100BA000DC00C000000000000000000000000000A9
:100BB0000000000000000000000000000000C02055
:100BC000008060180000C07F0000000000000202EA
:100BD00000000000000000020200000007F8000012
:100BE000000000C020008060100000FF0000000036
:100BF00000000303000000000000000303000000E9
:100C00000003FE0000000000C02000806010000013
:100C1000FF000000000000030300000000000000CF
:100C200000030300000000FF0000000000000000BF
:100C3000000000000F1F3F7F7F7F7F7F3F1E0C0063
:100C40001F1F1F3F003F3F3F7F7F7F00307B7F782C
:100C500030202030787F3B0003000F7F0F0F0F7F85
:100C60000F00030000000000000000000000000072
:100C70000000000000000000000000000007182035
:100C80000007182000001F302030180810202030E6
:100C9000181020202030180810204020301F00009D
:100CA00000000718200007182000001F3020201027
:100CB00008081020203008080810302030180818C4
:100CC00030201F0000000007182000071820000037
:100CD0001F30203018183020301808302030180805
:100CE000081830202038080700000000000000002D
:100CF00000000000000000000000000000000000F4
:100D000000000000000000000000000000000000E3
:100D100000000000000000000000000000000000D3
:100D200000000000000000000000000000000000C3
:100D300000000000000011241FBECFEFDAE0DEBF8C
:100D4000CDBF11E0A0E0B1E0EAE9F8E602C005900D
:100D50000D92A83CB107D9F726E0A8ECB1E001C09C
:100D60001D92A036B207E1F70E94D8270C941834E0
:100D70000C940000E8EDF0E080818E7F808310927B
:100D8000E2001092DA001092E100A0EEB0E08C9147
:100D900081608C9380818F77808319BCA7EDB0E050
:100DA0008C918E7F8C9380818F7E808310920D0436
:100DB00008952091E4003091E50095E6A901209185
:100DC000EC00822F817020FF06C08091E80080FF38
:100DD00006C080E008952091E80022FD1AC08091AD
:100DE0001B04882389F0853089F08091EB0085FD14
:100DF0000FC02091E4003091E50042175307F9F24B
:100E00009150E1F684E0089582E0089583E008952A
:100E100081E00895EF92FF920F931F93CF937C018F
:100E20008B010E94D906C82F811117C08091E8005C
:100E300085FD0BC08091E8008E778093E8000E94CA
:100E4000D906882399F3C82F08C0F70181917F0143
:100E50008093F1000150110949F78C2FCF911F9118
:100E60000F91FF90EF90089580911D0487FF13C0AC
:100E70008091E80082FF06C08091E8008B77809324
:100E8000E80004C080911B048111F2CF0895809185
:100E90001B048823D9F38091E80080FFF8CF80916C
:100EA000E8008E77ECCF982F9093E900242F762FCF
:100EB00050E0891731F07091EC002091ED005091D5
:100EC000F00021FD07C09F5F973071F78093E90024
:100ED00081E008953091EB003E7F3093EB0030913C
:100EE000ED003D7F3093ED003091EB0031603093A9
:100EF000EB007093EC002093ED005093F0002091F4
:100F0000EE0027FDE0CF80E00895B0E0A0E0EBE840
:100F1000F7E00C943C33C8EDD0E088818F7E888365
:100F2000E7EDF0E080818160808384E082BF81E032
:100F300080930D0488818E7F888302EE10E0F80193
:100F400010821092DA0081EEC82ED12CF6011082A8
:100F500088818F77888388818068888388818F7D66
:100F6000888319BC10921B0410921C0410921A045E
:100F70001092190490EEE92EF12CF70180818B7FFD
:100F8000808388818160888342E060E080E00E9405
:100F90005307F60180818E7F8083F8018081816014
:100FA0008083808188608083F70180818E7F808349
:100FB000888180618883CDB7DEB7E8E00C94583330
:100FC000FC01809123049091240486179707A0F0D8
:100FD0006115710529F49091E8009E779093E800DF
:100FE00090E06115710551F4911108C08091E800FD
:100FF00082FF34C080E00895BC01F2CF80911B04D1
:101000008823C1F18530C1F18091E80083FD30C0B3
:101010008091E80082FDEACF8091E80080FFE1CF77
:101020008091F3002091F200382F6115710519F0BD
:101030002830310558F091E02830310509F090E072
:101040002091E8002E772093E800CBCF8191809308
:10105000F100615071092F5F3F4FE7CF80911B0472
:10106000882341F0853041F08091E80083FFBECFB6
:1010700081E0089582E0089583E008950895089539
:10108000089580911004089587E797E790930108E9
:101090008093000888E19AE00FB6F894A8958093B1
:1010A00060000FBE90936000FFCF2FB7F89460915F
:1010B000090470910A0480910B0490910C042FBFD5
:1010C00008959C01FC0132969FEF80E04191461704
:1010D00051F09F3F19F4411101C0982F8F5F863066
:1010E000A9F79F3F09F40895290F311D97FD3A95FF
:1010F000F90162830895FC01680F791F8FEF91E376
:101100002191822728E030E087FF09C0880F8927D6
:1011100021503109C9F7E617F70791F70895880FAD
:10112000F7CFFA01811101C0FB01099508950895D7
:10113000E9E1F3E0118282818460828308958091E5
:10114000FB03982F9E7F61F4817082608093FB0384
:101150008091FE03893718F088E78093FE03089595
:101160008833B0F381708663F1CFAF92BF92DF9284
:10117000EF92FF920F931F93CF93DF93082F162FB9
:10118000E901E42FF0E0EA52FD4F611110C0E49153
:101190005E2F4E2F4983E8835A83DF91CF911F91B1
:1011A0000F91FF90EF90DF90BF90AF900895E62EE3
:1011B000F12C4491D42EE42FF0E026E0829FC00170
:1011C00011242FEF30E0B9010E941E33802F90E0F0
:1011D000880F991F55E5569FD001579FB00D1124D8
:1011E0008A1B9B0B982F990F890F5901AE18BF08C6
:1011F000AE9ED001AF9EB00DBE9EB00D11245B2FF0
:10120000189F80011124012F11275901A01AB10A3A
:10121000AE9E8001AF9E100DBE9E100D112459018F
:10122000A81AB108AE9CC001AF9C900DBE9C900D59
:101230001124892F9927281B390B2E9FC0012F9F1E
:10124000900D3E9F900D1124E92F62307105A1F0A1
:1012500050F46115710509F49DCF6130710581F07D
:10126000EB2F512F97CF6430710569F080F0663015
:10127000710509F48FCFF4CFE42F4B2F592F8ACF6C
:10128000E42F412F87CFEB2F542F492F83CF4B2FA4
:101290005D2DE12F7FCFCF93DF93E6E2F4E08381F2
:1012A0009481A581B681E90188839983AA83BB8350
:1012B0001482138216821582DF91CF91089580E007
:1012C000089563E070E080E692E00E947B089091D0
:1012D0005F02891318C0E0916002EB30A4F488E04B
:1012E000E802F0011124E65FFE4F0680F781E02D51
:1012F000309749F023E832E04091620263E672E001
:101300008091610209950895EAE0F1E0ADE4B2E070
:1013100054968C91549780A755968C9183AF0895DD
:101320009091BA0292FF06C0282F28712830F9F454
:10133000877F846093FF06C0282F28712831F1F43D
:10134000877E84612091BB0220FF06C0382F387150
:101350003830D9F4877F816021FF06C0282F28719B
:101360002831D1F4877E816194FD877E0895282FEE
:1013700024712430F9F68B7F8860DCCF282F24710C
:10138000243101F78B7E8861DDCF382F3171313008
:1013900019F78E7F8860E0CF282F2171213121F746
:1013A0008E7E8861E1CFCF93DF93EC018238910587
:1013B00089F1E0F58133910509F499C028F5893266
:1013C000910509F489C08A9709F498C0C11523E5ED
:1013D000D20708F0B3C0C11532E5D30708F00FC13A
:1013E000C11540E2D40708F097C0C11581E0D807C5
:1013F00058F5C53AD10508F088C0C430D10520F5AC
:10140000C130D10509F145C08533910509F45FC0AC
:10141000C997E1F68091BA02837009F025C18091E5
:10142000BB0283FF11C0C9E2D0E00EC0833E91052C
:1014300099F170F4803E910501F1823E910531F6FB
:101440008091BA0282FD21C0CE01DF91CF91089533
:10145000863E910561F1873E910571F1843E9105CB
:1014600009F0B4CF8091BB0281FFEECF8091BA0228
:10147000C7EED0E084FD0DC0E7CF8091BA0280FDB9
:1014800033C09091BB0290FFDFCFC3EED0E084FF6A
:10149000DBCFD0E0C0E0D8CF8091BA0282FDE1C0BE
:1014A0009091BB0290FDE0C084FFCECFF2CF80913F
:1014B000BA0283FDDDCFC8CF8091BA0283FDD7C0C9
:1014C0009091BB0291FFF0CFC4EED0E0BDCF8091F0
:1014D000BA0285FFB9CFA7CF8091BA0285FDCAC0F5
:1014E0008091BB0283FFB0CFC9E3D0E0ADCF809144
:1014F000BA0286FFA9CFCAE2D0E0A6CF8091BA0295
:1015000086FFA2CFC1E3D0E09FCFCE01815E9109DB
:10151000079708F499CFBDCFC11521E5D20708F090
:1015200069C0C11530E5D30708F050C0C11540E4CB
:10153000D40708F4AECFDF70D06A86CFC11586E538
:10154000D807F0F4C11525E5D20708F071C0C11520
:1015500034E5D30708F067C0CE018370992721E0F6
:1015600030E002C0220F331F8A95E2F7C695C69578
:1015700040E2C49FE0011124C22BD32BDA6864CF70
:10158000C1154AE5D40778F4C11589E5D80708F0F4
:101590005AC0C11528E5D20708F47BCFDC2FCC2731
:1015A000C06FD06A51CFCE0190568115904208F09D
:1015B00070CF8D2F8F710E94900990E0982F88270F
:1015C00088279F719C012C2BE9013BC0CE018370C1
:1015D000992721E030E002C0220F331F8A95E2F7FD
:1015E000C695C69540E2C49FE0011124C22BD32BBF
:1015F000DD682ACFDC2FCC27C16FD06A25CFCE0182
:101600008370992721E030E002C0220F331F8A95B2
:10161000E2F7C695C69580E2C89FE0011124C22B6F
:10162000D32BDC6811CFDC2FCC27C46FD06A0CCF52
:101630008C2F0E949009C82FD0E0DC2FCC27CC271C
:10164000DF71D06201CF8C2F8F700E94900934E03F
:10165000D695C7953A95E1F7CF709C2FEC01D069EC
:10166000F3CEC2EED0E0F0CEC0EED0E0EDCEC6EECE
:10167000D0E0EACEC5E3D0E0E7CE80914A02811106
:1016800010924A020895809590910E0498239093A9
:101690000E04089580913F0290910E02981301C0AC
:1016A00008958F5F8770FACF9A3080F5883070F593
:1016B00048E0949F90011124820F932F911D682F71
:1016C000677023E0969587952A95E1F7FC01EE0F68
:1016D000FF1FE80FF91FE651FE4F50E040E080E0A9
:1016E000219130E0062E02C0369527950A94E2F744
:1016F00021703327042E01C0220F0A94EAF7822BAF
:101700004F5F5F4F4330510559F7089580E00895CA
:101710009A3098F5883088F548E0949F900111241C
:10172000820F932F911D282F277041E001C0440F95
:101730002A95EAF723E0969587952A95E1F7FC012B
:10174000EE0FFF1FE80FF91FE651FE4F90E080E01B
:1017500070E05191DF0111979B01082E02C0369570
:1017600027950A94E2F72170219525272423252720
:101770002C9301968330910561F70895982F9295E7
:101780009F7011F0892F94E0282F2695269511F04F
:101790009E5F822F869509F09F5F892F0895CF93D2
:1017A000C82F809133048C1751F00E945508609324
:1017B0003404709335048093360490933704C093B7
:1017C0003304CF910895B0E0A0E0E9EEFBE00C9483
:1017D0003C33FC01EB0190913804911101C094E07D
:1017E0006081718191509B01092E02C0359527952A
:1017F0000A94E2F7D901092E02C0AA0FBB1F0A946E
:10180000E2F76A1B7B0B71836083628173818B01BA
:10181000092E02C0159507950A94E2F7D80102C077
:10182000AA0FBB1F9A95E2F76A1B7B0B7383628337
:1018300081E80138BFEF1B072CF0802F003811051D
:101840000CF08FE78D8321389FEF390754F1203852
:1018500031054CF5922F91959C83442319F0819585
:101860008D832C830E9455082D81211103C02C816A
:101870002223D9F06093390470933A0480933B0497
:1018800090933C0480913D049BE0980F973120F4A5
:10189000080F00933D041D82CDB7DEB7E8E00C943D
:1018A000583321E8D7CF2FE7D5CFC0903904D09057
:1018B0003A04E0903B04F0903C046C197D098E09D9
:1018C0009F096436710581059105E0F210923D048F
:1018D000D9CFFC01DB012281338191E821388FEFE0
:1018E00038072CF0922F203831050CF09FE7129624
:1018F0009C9312972081318121388FEF3807A4F013
:10190000203831059CF413962C931397442339F017
:10191000919512969C931297219513962C93118270
:10192000108213821282089521E8EDCF2FE7EBCFCA
:10193000382F20E287FF02C031952DE24AE0832F45
:10194000642F0E947533905D9093DF0181110BC06D
:101950002093DE0120E22093DD0120E22093DC01D0
:101960008CED91E00895642F0E947533905D909303
:10197000DE01832F64E60E947533882361F3805D66
:101980008093DD01EBCF9C01860F971F37FD07C0C9
:1019900077FD04C097FF02C08FEF9FE7089577FFA0
:1019A000FDCF97FDFBCF80E090E80895E82FE2950A
:1019B000EF70F0E031A1282F2F7081E090E001C09E
:1019C000880F2A95EAF7382B31A392A180958923B5
:1019D00082A30895E82FE295EF70F0E031A1282F5F
:1019E0002F7081E090E001C0880F2A95EAF7982FC8
:1019F0009095932391A392A1892B82A30895B0E09F
:101A0000A0E0E5E0FDE00C943C337C016B018091AB
:101A1000530601E010E08A3010F40AE010E0C1E063
:101A2000D0E069E576E0C701F6010995811104C0AF
:101A300021960C171D072CF4CDB7DEB7E8E00C9407
:101A40005833CC9F9001CD9F300D300D112490E084
:101A500080E045E34A95F1F700000196821793076D
:101A6000C1F7DFCF9C0184E08093E9009FEF809174
:101A7000E800915085FD06C085ED8A95F1F70000DC
:101A80009111F5CF8091E80085FF0CC050E040E057
:101A900066E070E0C9010E940A078091E8008E7735
:101AA0008093E8000895CF93DF93EC0181E0809369
:101AB000E9008FEF9091E800815095FD06C095ED0B
:101AC0009A95F1F700008111F5CF8091E80085FF2C
:101AD00014C050E040E068E070E0CE010E940A07C8
:101AE0008091E8008E778093E80088E0FE01A1E114
:101AF000B4E001900D928A95E1F7DF91CF910895BE
:101B0000609184018091FB0380FF20C0809183015C
:101B100043E0849FC0011124845E9C4F539A2BB1F3
:101B2000277F3BB138605FB7F894FC01649FE00DFC
:101B3000F11D1124BF0168177907D1F45FBF8FE54C
:101B400094E00197F1F700C00000089580918501AD
:101B50009091860123E0829FF0011124E45EFC4F06
:101B60008917A0F61182108212828F5F3396F8CF08
:101B7000FC014191CF01E8E03BB9000000C047FF04
:101B80002BB9440F000000C000C000C02BB900C03A
:101B9000EA9591F7D0CFEF92FF920F931F93CF93D7
:101BA000DF93EC018C81811109C081E08C8310925C
:101BB000FA0392E0909381018093800180918501E6
:101BC0009091860123E0829FF0011124E45EFC4F96
:101BD000891758F110E003E060918701161758F15A
:101BE0000E94800D809180012091FA03280F20939C
:101BF000FA0390918101980F90938101191654F482
:101C0000022E000C330B409187014150550B2417D5
:101C1000350734F0819580938001813009F41C826E
:101C2000CDB7DEB7E6E00C945A33118210821282EF
:101C30008F5F3396CDCFE12EF12C70E0C7010E946B
:101C4000833320918501820F482F50E02091FA03C1
:101C5000022E000C330BE216F306D4F02091810122
:101C6000022E000C330B2E153F0594F0809F90013F
:101C70001124245E3C4F4091FE03493708F048E7A9
:101C80006091FD038091FC030E94B5081F5FA4CF03
:101C9000FA01EE0FFF1FE40FF51FE45EFC4F118207
:101CA00010821282F3CFEF92FF921F93CF93DF93B4
:101CB000EC0110E0EE24EA94F12C609187011617F4
:101CC00070F00E94800D9A818C8190FF2AC08F5FF6
:101CD0008C83DF91CF911F91FF90EF900895209119
:101CE0008501422F410F5527551FCA019A01220F26
:101CF000331F280F391F245E3C4F4091FE034937A4
:101D000008F048E770E0C7010E948333962F8C816A
:101D10006091FD03199F800D11240E94B5081F5F7B
:101D2000CCCF8150D5CF9091FB0390FF0EC0909106
:101D300085012091860133E0939FF0011124E45E38
:101D4000FC4F921718F00E94800D089581836083E4
:101D500042839F5F3396F5CFA3E0B0E0E2EBFEE075
:101D60000C9442339091FB0390FF0DC0493708F06B
:101D700048E79E012F5F3F4F0E94B5084B81698164
:101D80008A810E94930E2396E2E00C945E33CF93F7
:101D9000DF93EC01EBEFF3E0438162818C810E94E1
:101DA000AC0E8C818F5F8C83DF91CF910895CF93A0
:101DB000DF93EC01EC81F0E0E552FC4F4491EBEF56
:101DC000F3E0628181810E94AC0E8C818F5F8C83F5
:101DD000DF91CF910895EBEFF3E080818E7F8083D8
:101DE0000E949808E9E1F3E08281816082832FEF0D
:101DF00080E792E0215080409040E1F700C0000071
:101E00000E94800D089580914C02811119C082E3D7
:101E100090E02091E30027FD10C0EFE3FCE931974B
:101E2000F1F700C000000197A1F782E080934C0217
:101E30000E94BA0610921B0403C081E080934C02FA
:101E400081E090914C02913011F080E00895089566
:101E50000E94030F882359F0E0910604F0910704D3
:101E6000309729F00190F081E02D0995089580E0E8
:101E700008950F931F930E94030F882329F00E9457
:101E800055081F910F9108950E9455080091B402C2
:101E90001091B5022091B6023091B702600F711F08
:101EA000821F931FEECF57985F9A879A8F9825E0ED
:101EB0002A95F1F7000089B187988F9A90EA9A9550
:101EC000F1F790E0880F892F881F990B21E0822776
:101ED00081700895CF93DF9380912604C5E281112C
:101EE000C2E280912704D0E0882329F08091280461
:101EF000D5E28111D2E20E94530F81110FC08D2FC4
:101F000080938301C0938401CD0F10928501C0930B
:101F10008601C0938701DF91CF91089580E0F0CFD3
:101F200080912604F90180830E946A0F0895CF935F
:101F3000DF93682F81E06A3019F06D3031F480E072
:101F40000E942510DF91CF910895809151069091C4
:101F5000520626E0FC01ABE4B6E001900D922A9512
:101F6000E1F7603E08F458C026E0FC0111922A9582
:101F7000E9F7C0915106D091520646E050E0BE010B
:101F80008BE496E00E94BA339E012B543440892B97
:101F900041F1C90145E0969587954A95E1F741E001
:101FA00050E0BA0102C0660F771F8A95E2F7CB01B5
:101FB0006091490470914A04862B972BB9016B5F9D
:101FC0007F4FE5E076956795EA95E1F702C0440F0B
:101FD000551F6A95E2F7842B952B90934A048093C2
:101FE00049042A5F3F4F40914804642F70E0C901C3
:101FF0000E941E33481B463010F4240F311D21155A
:1020000072E0370710F030E020E0255B3B4F309363
:1020100052062093510696CFF6E06F9FB00111242F
:102020006A50784F46E050E00E94A433A2CFCF938D
:10203000DF93EC01FE018491811103C0DF91CF9108
:1020400008950E94970F2196F5CFCF93382FE091F6
:102050005106F0915206EB54F44020914804622F4F
:1020600070E0CF010E941E33281B822F332361F0C2
:1020700066E00E946933C82FC15010F4CF910895D3
:1020800080E20E94970FF8CF9F01280F311D211584
:10209000324018F080E0F0E0E0E08E0F9F2F911DBD
:1020A000855B9B4F9093520680935106E7CFAEE13C
:1020B000B0E0EDE5F0E10C94423340910D03509116
:1020C0000E0360910F0370911003809111039091A2
:1020D00012030E94B51A20930D0330930E03409310
:1020E0000F0350931003609311037093120386E063
:1020F000EDE0F3E0DE01179601900D928A95E1F78D
:1021000086E0FE013796DE011D9601900D928A95BC
:10211000E1F786E0FE013D96DE01119601900D92F9
:102120008A95E1F786E0FE013196ADE0B3E00190DB
:102130000D928A95E1F786E0EDE0F3E0DE01599635
:1021400001900D928A95E1F786E0FE017996DE0115
:10215000179601900D928A95E1F786E0FE01379679
:10216000DE01119601900D928A95E1F786E0FE015D
:102170003196DE01539601900D928A95E1F786E043
:10218000FE017396DE01179601900D928A95E1F794
:1021900086E0FE013796ADE0B3E001900D928A959E
:1021A000E1F746E050E067E073E08DE093E00E94E5
:1021B000BA33892B79F0E0910604F0910704309747
:1021C00049F082E080930D030480F581E02D8DE0DD
:1021D00093E0099510920F031092100310921103CF
:1021E0001092120386E0EDE0F3E0A7E0B3E0019087
:1021F0000D928A95E1F76E96E2E00C945E33809141
:102200000E0490914902892B8093CA0190914A0251
:10221000992391F0892B8093CA0120E08CEC91E006
:10222000FC013191CF0131112F5FF1E0823D9F0719
:10223000B9F721110E943D0B48E050E061E472E0E3
:102240008AEC91E00E94BA33892BA9F088E0EAEC8D
:10225000F1E0A1E4B2E001900D928A95E1F7E091FE
:102260000604F0910704309731F00280F381E02DED
:102270008AEC91E009950895ECECF1E086E0DF014D
:102280001D928A95E9F7109249020E94FF10089565
:10229000AAE2B0E0EEE4F1E10C9441338DE194E088
:1022A0002091F100DC012D93CD01B4E085329B0734
:1022B000B9F780911E04833009F472C0B8F48130FC
:1022C00009F449C0823009F4B5C08091E80083FF69
:1022D0008DC280911D0490911E049A3008F086C230
:1022E000E92FF0E0E65EFB4C0C9497338A3009F45A
:1022F00090C08B3009F471C0893039F780911D048A
:10230000813219F78091210490912204009711F0F5
:102310000297D9F68091E800877F8093E80080914A
:10232000E80082FF38C09091F3008091F20002979C
:1023300031F48091F100813011F0863021F48091E8
:10234000F100809310048091E8008B778093E8007F
:102350000E943407BACF80911D04813A09F0B5CFAD
:102360008091E800877F8093E8008091210490911C
:102370002204892B61F468E081E194E070E00E941E
:10238000E0078091E8008B778093E8009ECF60E0C3
:1023900090E080E0F3CF80911B048111C0CF95CFF6
:1023A00080911D04813A09F090CF80912104909191
:1023B0002204892B09F089CF8091E800877F8093E0
:1023C000E8008091E80080FFFCCF8091820180933B
:1023D000F1008091E8008E77B9CF80911D048132A1
:1023E00009F073CF8091210490912204892B09F088
:1023F0006CCF8091E800877F8093E8000E943407CB
:1024000080911F048093820110920E040E943C115F
:102410005CCF80911D04813209F057CF8091E80094
:10242000877F8093E8000E94340780912004809386
:102430000F044BCF80911D04813A09F046CF809163
:10244000E800877F8093E8008091E80080FFFCCF60
:1024500080910F04BCCF803899F0823809F0C6C152
:10246000809121048F70873008F0C0C18093E9000B
:102470008091EB0085FB882780F91092E90006C067
:102480008091190490911A04911182609091E80052
:10249000977F9093E8008093F1001092F100809173
:1024A000E8008E779FC1882309F48DC1823009F03E
:1024B0009DC180911F04811190C1809121048F7072
:1024C0002FEF280F263008F091C18093E90020916A
:1024D000EB0020FF82C1933031F48091EB008062E9
:1024E0008093EB007AC19091EB0090619093EB00A8
:1024F00021E030E001C0220F8A95EAF72093EA003C
:102500001092EA008091EB008860EACF81116EC1E1
:1025100010911F041F778091E3008078812B8093B6
:10252000E3008091E800877F8093E8000E943407F1
:102530008091E80080FFFCCF8091E3008068809369
:10254000E30082E0111183E080931B044FC18058A7
:10255000823008F04BC120911F04309120042C3DA3
:10256000E3E03E07A1F583E08A838AE289834FB7DF
:10257000F894DE01139620E03EE051E2E32FF0E014
:1025800050935700E49120FF03C0E295EF703F5F46
:10259000EF708E2F90E0EA30C0F0C7968D939D9338
:1025A0002F5F243159F74FBF8091E800877F8093D8
:1025B000E8006AE270E0CE0101960E94E007809197
:1025C000E8008B778093E80011C1C096E7CF809137
:1025D000210490912204432F55274330510509F4DB
:1025E0004AC078F54130510509F47AC08BE590E096
:1025F000EFE5F7E04230510509F0F8C02091E8001E
:10260000277F2093E800209123043091240482172F
:10261000930708F49C0140E02115310509F065C0DD
:10262000411163C08091E80082FDC9CF80911B04F5
:10263000882329F2853019F28091E80083FFF2CFD8
:10264000BECF4132510509F43CC04232510509F078
:10265000CDC08330910508F0C9C0FC01EE0FFF1F0B
:10266000E454FE4F0190F081E02D87549E4FDC0131
:102670008C9190E01AC0332721303105D1F021151B
:10268000310561F02230310509F0B0C0ECECF7E023
:10269000E4918E2F90E0ECECF7E007C0E2EFF7E07A
:1026A000E4918E2F90E0E2EFF7E0009709F49EC0EE
:1026B000A5CFEAEDF7E0E4918E2F90E0EAEDF7E0A8
:1026C000F4CF8330910508F091C0880F991FFC0169
:1026D000EE53FE4F0190F081E02D89E090E08ECF27
:1026E00082E190E0EAEBF7E089CF80911B04882338
:1026F00009F465CF853009F462CF8091E80083FD4D
:102700005ECF8091E80082FD8DCF8091E80080FF50
:1027100083CF9091F3008091F2002115310519F0DB
:102720008830910550F041E0089709F040E0809131
:10273000E8008E778093E8006FCF44914093F100DA
:102740003196215031090196E8CF803809F04EC00A
:102750008091E800877F8093E80080911C0480933B
:10276000F1009DCE811142C010911F041230F0F58E
:102770008091E800877F8093E80010931C040E94FA
:102780003407112311F084E005C08091E30087FD38
:10279000FACF81E080931B0442E061EC81E00E946B
:1027A000530742E261EC84E00E94530742E261EC8D
:1027B00082E00E94530742E260EC83E00E945307EC
:1027C00080911B0413C080911F04813079F481E053
:1027D000933009F080E080931A041092E900809110
:1027E000E800877F8093E8000E9434078091E8002A
:1027F00083FF0AC08091E800877F8093E800809182
:10280000EB0080628093EB00AA96E3E00C945D33CA
:1028100010920E040E943C112FEF84E39CE02150A3
:1028200080409040E1F700C0000088E19AE00FB6D8
:10283000F894A895809360000FBE90936000FFCF3E
:10284000CF93C82F0E94BE0B91E0833009F090E037
:10285000892F0E94CF0BC0932504109249020E9439
:10286000FF10CF91089580912504982F967096308F
:1028700021F488600E9420140895877FFBCF21E017
:1028800030E001C0220F8A95EAF720958091250457
:1028900082230E94201408959091400280958923FC
:1028A00080934002282F277091F4282F082E000CC7
:1028B000330B9217130659F09091BB0292FF07C099
:1028C0008595859585950E943F1410924002089544
:1028D00021E030E001C0220F8A95EAF780912504BB
:1028E000822B0E942014089580934B02109249027B
:1028F0000E94FF100895882321F00E94430B0E943C
:10290000FF100895882339F090910E04982B90932E
:102910000E040E94FF1008958823E1F19CEF980FA8
:10292000913A80F4ECECF1E022ED31E091918913E1
:1029300003C0DF0111971C922E173F07B9F70E94C1
:10294000FF10089590E2980F983050F4877091E04E
:1029500001C0990F8A95EAF7892F0E94430BEFCFA8
:102960009BE5980F9330B8F48091E6019091E701D0
:10297000892B81F01092E7011092E601E0910604A4
:10298000F0910704309731F00680F781E02D90E058
:1029900080E009950895885A8731E0F78091E80131
:1029A0009091E901892BB1F31092E9011092E801AD
:1029B000E0910604F0910704309761F30084F185FB
:1029C000E02DE5CFCF93C82F8823A9F08CEF8C0F93
:1029D000813A00F5ECECF1E0DF018D91C81769F068
:1029E00081E0A23DB807C9F76C2F8AEC91E00E9404
:1029F00061080E94FF10CF9108958191C81303C010
:102A0000DF0111971C9281E0E23DF807B1F70E94C7
:102A1000FF10EACF80E28C0F883068F7C77021E0A2
:102A200030E001C0220FCA95EAF780910E04822B94
:102A300080930E04DECF1F93CF93DF93182FEB010B
:102A40000E94E214209739F4812F0E948C14DF91A8
:102A5000CF911F9108958FE99FE00197F1F700C092
:102A600000002197EFCF0F931F93CF93DF93EC01DB
:102A7000FC0101900020E9F78F0101501109C017F6
:102A8000D10728F0DF91CF911F910F91089589917F
:102A90000E94970FF4CFB0E0A0E0E1E5F5E10C94DF
:102AA0003C336C017B0164E670E088E70E947C3077
:102AB000EC0197FD12C010E000E0F601E00FF11FFD
:102AC000849164E670E00E94E830EC01892B29F4DF
:102AD0000F5F1F4F0E151F0581F70E945E31CE015B
:102AE000CDB7DEB7E8E00C945833809104049091A0
:102AF0000504911103C091E089270895882369F0A6
:102B000062E070E08DED94E00E944B15892B19F086
:102B10008091040408951092040480910404EBCF82
:102B2000CF93C0910404809105048823D1F00E94C2
:102B30005508605A75418F4F9F4F60930004709302
:102B400001048093020490930304C11108C062E061
:102B500070E08BED94E00E944B15892B29F0C09119
:102B600004048C2FCF91089581E080930404F7CF63
:102B7000CF93DF93C7EAD2E060E0CE010E94E43356
:102B80002196C11584E0D807B9F7DF91CF91089558
:102B90001F93CF93DF93122F8430E0F46A30D0F488
:102BA0004830C0F490E1699FE001112450E0440FE7
:102BB000551FC40FD51F90EA899FC00DD11D112448
:102BC000632FCE0187960E94E433612FCE01889651
:102BD0000E94E433DF91CF911F910895AF92BF928D
:102BE000CF92DF92EF92FF921F93CF93DF938FEDFF
:102BF000C82E84E0D82ED0E07601C0E014C0F501E4
:102C000025913491412F6C2F8D2F0E94C81582E0A1
:102C1000A80EB11C1F5F183091F780E1E80EF11C7F
:102C2000CF5FCA3019F0570110E0E9CFDF5F80EACB
:102C3000C80ED11CD43001F7DF91CF911F91FF90C6
:102C4000EF90DF90CF90BF90AF90089586E290E034
:102C50000E94E4330895CF93C82F6FEF811162E291
:102C600083E290E00E94E4336FEFC11169E084E2F7
:102C700090E00E94E4336FEFC11163E285E290E0DF
:102C80000E94E433CF91089580E00E942B1660E00B
:102C900070E0CB010E9426160E94EE150E94B81526
:102CA00081E00E942B160895CF93C091BB02C2FB16
:102CB000992790F9981791F080FBC2F9C093BB0255
:102CC0006091BA0284E090E00E94E4336C2F82E2CB
:102CD00090E00E94E43382E00E944C14CF9108956A
:102CE0000F931F93CF93DF93843030F56A3020F534
:102CF000483010F520E1629F8001112450E0440F1C
:102D0000551F040F151F30EA839F000D111D11245C
:102D1000C80187960E94D033C82FD0E0DC2FCC2783
:102D2000C80188960E94D0339E01282BC901DF91EB
:102D3000CF911F910F91089590E080E0F8CF462F3A
:102D4000843040F47A3030F4683020F4672F0E94E9
:102D50007016089590E080E00895CF92DF92FF9280
:102D60000F931F93CF93DF936C0100912504809103
:102D70004B02082BC7E0D0E010E0FC2EC8010C2E5F
:102D800002C0959587950A94E2F780FD0CC02197C3
:102D9000A0F7F12C8F2DDF91CF911F910F91FF9014
:102DA000DF90CF900895B6018C2F0E949F160E944D
:102DB000D309019761F3EECFCF93DF93EC010E942B
:102DC000AD16BE010E949F160E94D309DF91CF91DC
:102DD0000895FC0183819481892B29F08081918160
:102DE00089238F3F51F480E00895843FE1F717C0B5
:102DF000883EA8F0813FB9F712C0808191810E947E
:102E0000DC1692959F70963099F358F4925F9F70FC
:102E1000923048F7803F19F040F7883E20F781E074
:102E200008959A5FF4CF86E290E00E94D033682F35
:102E300070E090E080E0089583E290E00E94D0335B
:102E4000823289F484E290E00E94D033893059F4D0
:102E500085E290E00E94D03391E0833209F090E067
:102E6000892F8170089580E0FCCFCF92DF92EF929E
:102E7000FF926B017C010E949F08B701A60188E0C8
:102E800090E00E94F633FF90EF90DF90CF9008958E
:102E9000A3E0B0E0EEE4F7E10C943B33F82ED62E3D
:102EA000042FC22E9091FB0390FF3EC0E92FE695C0
:102EB000AE2FB0E0A356BE4F8C91809319039E7F36
:102EC0009230B1F5493708F048E79E012F5F3F4F38
:102ED0006D2D8F2D0E94B5084B8169818A810E94DA
:102EE000930E8091FC038F1108C08091FD038D111A
:102EF00004C08091FE03801729F080911B0382603B
:102F000080931B03F092FC03D092FD030093FE0319
:102F1000CC2051F06091FB037091FC038091FD0384
:102F20009091FE030E9435172396E9E00C945733E5
:102F3000823019F40091FE03D4CF863019F4F0905A
:102F4000FC03CFCF8930D9F3823159F6E2516E2F8D
:102F50006170B62EE695F0E0EA52FC4F1491E12C38
:102F600060918701E61618F00E94800DBACFE19EAD
:102F7000C001112470E00E941E338F2DB11017C0C4
:102F8000860F20918501622F6E0D7727771F9B0199
:102F9000220F331F260F371F245E3C4F402F093767
:102FA00008F048E76D2D0E94B508E394D9CF861B41
:102FB000E8CFEBEFF3E043812CE0421B08F440E064
:102FC00021E0628181810E9448170895EBEFF3E0D0
:102FD00043812CE0420F08F44FEF21E062818181B0
:102FE0000E9448170895EBEFF3E0628121E1621B34
:102FF00008F460E021E0438181810E944817089530
:10300000EBEFF3E0628121E1620F08F46FEF21E062
:10301000438181810E9448170895EBEFF3E081819D
:1030200021E04381628181510E9448170895EBEFAE
:10303000F3E0818121E0438162818F5E0E94481725
:1030400008958091FF03882319F081508093FF0336
:103050006091FB037091FC038091FD039091FE034E
:103060000E94351708958091FF03833018F48F5F15
:103070008093FF036091FB037091FC038091FD033B
:103080009091FE030E9435170895EBEFF3E083E083
:10309000808311828FEF828388E783831482A9E182
:1030A000B3E012968C911297836012968C93608194
:1030B0007181828193810E943517089568EE7EEFB9
:1030C00090E080E00E94023460E082E090E00E94A4
:1030D000E43360E083E090E00E94E43310924B021E
:1030E00060E084E090E00E94E43364E082E290E0FB
:1030F0000E94E43360E085E090E00E94E43360E009
:1031000086E090E00E94E4336FEF87E090E00E9459
:10311000E43340E050E0BA0188E090E00E94F633EA
:1031200060E08DE090E00E94E43340E050E0BA01BE
:1031300088E190E00E94F63360E087E190E00E9431
:10314000E43340E050E0BA018CE190E00E94F633B5
:1031500070E060E080E290E00E94023440E050E0E5
:10316000BA0188E190E00E94F63380E00E942B16BD
:103170000E94441640E050E0BA018FE090E00E94C7
:10318000F63340E050E0BA0183E190E00E94F6336C
:103190000895B0E0A0E0EFECF8E10C943D33790144
:1031A000C82F880FDD0B41155105A9F0FE0193E0F2
:1031B000EE0FFF1F9A95E1F7E65FFE4F8181928146
:1031C000835B9D4F208130E04217530708F49A013A
:1031D000A9010E94C733CE010E94A832D82E8823AD
:1031E000D1F001151105B9F083E0CC0FDD1F8A95F0
:1031F000E1F7FE01E65FFE4F438150E0041715073B
:1032000008F4A801C65FDE4F6C817D81635B7D4F52
:10321000C7010E94C7338D2DCDB7DEB7E7E00C9410
:103220005933A5E0B0E0E7E1F9E10C943A338D833E
:10323000E62E5A01F22E6801809153068A3028F05A
:1032400080E02596EAE00C9456338D818830C4F3F3
:103250001A8219828A836B832C8363E070E0CE012B
:1032600002960E947B088983E0923201F092450128
:1032700010E000E030E020E044E050E0BE016F5F8D
:103280007F4F84E00E94C9188823D1F24E2D50E070
:1032900030E020E0B50185E00E94C918882381F262
:1032A00030E020E041E050E0BE016B5F7F4F86E000
:1032B0000E94C918882321F20F2D10E0960150E0DA
:1032C00040E070E060E087E00E94C918BACFA8E053
:1032D000B0E0EDE6F9E10C94403385E0EBEFF3E08C
:1032E000DE01119601900D928A95E1F78091190304
:1032F00090911A03A0911B038E839F83A887288532
:103300004091B0025091B1026091B2027091B3024B
:103310003FB7F8948091090490910A04A0910B049E
:10332000B0910C043FBF841B950BA60BB70B8436E2
:103330009105A105B10510F42223C1F010E000E0D1
:1033400030E020E048E050E0BE016F5F7F4F83E057
:103350000E94C918882369F00E9455086093B00242
:103360007093B1028093B2029093B30210921B0348
:1033700081E02896E4E00C945C33A4E0B0E0E3EC58
:10338000F9E10C9440334091AC025091AD02609150
:10339000AE027091AF022FB7F8948091090490911A
:1033A0000A04A0910B04B0910C042FBF841B950B51
:1033B000A60BB70B11E084369105A105B10518F1F4
:1033C0000E94390F6E5F7F4F8F4F9F4F69837A83C3
:1033D0008B839C8310E000E030E020E044E050E08C
:1033E000BE016F5F7F4F82E00E94C918182F8823AB
:1033F00051F00E9455086093AC027093AD02809327
:10340000AE029093AF02812F2496E4E00C945C33DB
:10341000A6E0B0E0EEE0FAE10C943E337B0101E07F
:1034200010E09E012A5F3F4F50E040E070E060E016
:1034300080E00E94C918182F882309F453C04091D6
:10344000A8025091A9026091AA027091AB022FB715
:10345000F8948091090490910A04A0910B04B09112
:103460000C042FBF841B950BA60BB70B843691055C
:10347000A105B10548F465E070E08EE492E00E9499
:103480007B089E81891771F105E010E09E012F5F96
:103490003F4F50E040E070E060E081E00E94C918DA
:1034A000082F65E070E08EE492E00E947B0811E056
:1034B0009E81981310E0102301F10E94550860933B
:1034C000A8027093A9028093AA029093AB0285E0B0
:1034D000FE013196A3EAB2E001900D928A95E1F7E0
:1034E00011E00BC085E0EEE4F2E0DE011196019000
:1034F0000D928A95E1F71111EACF85E0E3EAF2E057
:10350000D70101900D928A95E1F7812F2696E6E08A
:103510000C945A330E94530F809309018091090142
:10352000882359F01092830185E2809384010E94E0
:10353000030F81110E94BC31089585E280938301BD
:10354000F4CF90E080E00E94DE33883E9E4F19F475
:103550000E941C17089580E0089528E030E043E0C1
:1035600060E086E30E94A42F0895ACE0B0E0EBEBAE
:10357000FAE10C943C334F83588769877A878B87AD
:103580009C8780912604882399F00E94AD1A80E5DB
:103590000E941C308AEB8A95F1F700C00E943430FB
:1035A000887899278038910509F487C00E944C30AB
:1035B0000E94030F882309F46BC00E9455080091F4
:1035C000E1011091E2012091E3013091E4016B01EE
:1035D0007C01C01AD10AE20AF30A97018601083079
:1035E00011052105310508F453C06093E101709382
:1035F000E2018093E3019093E4010091340410917F
:1036000035042091360430913704601B710B820B16
:10361000930B623371058105910580F410922A04A1
:103620001092290410922C0410922B0410922E0454
:1036300010922D041092300410922F041091330434
:103640000E94530F482FBE01695F7F4F89E294E0CB
:10365000112309F45FC00E94E30B00913304109121
:1036600026040E94530F41E04827BE01695F7F4F47
:103670008DE294E0011709F450C00E94E30B86E04C
:10368000FE013796A2E4B4E001900D928A95E1F72D
:1036900086E0FE013796DE01119601900D928A9523
:1036A000E1F729813A814B815C816D817E8180E0E7
:1036B00090E02C96E8E00C9458330E9434300E943D
:1036C00034307C010E94343020E0E22AF82A0E9443
:1036D00034308C010E94343020E0022B182B0E94E1
:1036E0004C30F894B7018091290490912A040E94EB
:1036F000C30C90932A0480932904B80180912B0471
:1037000090912C040E94C30C90932C0480932B0462
:1037100078944ECF0E94690CA0CF0E94690CAFCF65
:10372000CF93DF93D82FC62F0E94AD1A8D2F8068BC
:103730000E941C308C2F0E941C300E944C308FEC59
:1037400092E00197F1F700C00000DF91CF9108955A
:10375000682F893708F068E76093310491E090930F
:10376000320490912604992359F06150811101C0CF
:1037700064E08FE00E94901B60E080E50E94901B57
:103780000895FB0180810E94A81B08959091310447
:10379000911101C095E0282F880F330BA901490F23
:1037A000511DCA011816190614F081E090E00E941C
:1037B000A81B0895CF93C82F0E94AD1A8C2F0E948A
:1037C0001C308FE792E00197F1F700C000000E94E3
:1037D0003430C82F0E944C309AE69A95F1F700C019
:1037E0008C2FCF910895CF93DF930E949C2F269A20
:1037F0000E94AD1A6AE58AE30E94901B2FEF80E7D2
:1038000092E0215080409040E1F700C0000082E04B
:103810000E94DA1B83E00E94DA1B84E00E94DA1B1C
:1038200085E00E94DA1B86E00E94DA1B60E080E1FE
:103830000E94901B80E00E94DA1BD82F81E00E943A
:10384000DA1BC82F0E944C30D23419F481E0C13009
:1038500009F080E0817080932604882341F064E0C1
:103860008FE00E94901B60E080E50E94901BDF913A
:10387000CF9108951F920F920FB60F9211242F939C
:103880003F934F935F936F937F938F939F93AF93E8
:10389000BF93CF93DF93EF93FF93D091E900DF7055
:1038A0008091EC00C82FC17080FDC0E81092E90043
:1038B0008091F000877F8093F00078940E944811F7
:1038C0001092E9008091F00088608093F000CD2B89
:1038D000CF70C093E900FF91EF91DF91CF91BF913D
:1038E000AF919F918F917F916F915F914F913F9198
:1038F0002F910F900FBE0F901F9018951F920F924F
:103900000FB60F9211242F933F934F935F936F93B2
:103910007F938F939F93AF93BF93EF93FF93809188
:10392000E10082FF09C08091E20082FF05C0809122
:10393000E1008B7F8093E1008091DA0080FF24C05A
:103940008091D80080FF20C08091DA008E7F809324
:10395000DA008091D90080FF9DC080E189BD82E1BD
:1039600089BD09B400FEFDCF81E080931B048091E6
:103970000D04811109C00E94BA060E94850780913A
:10398000E20084608093E2008091E10080FF17C034
:103990008091E20080FF13C08091E2008E7F8093CF
:1039A000E2008091E20080618093E2008091D80083
:1039B00080628093D80019BC85E080931B048091BD
:1039C000E10084FF2BC08091E20084FF27C080E1EA
:1039D00089BD82E189BD89B5982F917080FFFBCFA9
:1039E0008091D8008F7D8093D8008091E1008F7EF8
:1039F0008093E1008091E2008F7E8093E2008091CD
:103A0000E20081608093E20080911C04882309F425
:103A100047C084E080931B0480911B048091E100E7
:103A200083FF27C08091E20083FF23C08091E100E3
:103A3000877F8093E10082E080931B0410921C0436
:103A40008091E1008E7F8093E1008091E2008E7F83
:103A50008093E2008091E20080618093E20042E086
:103A600060E080E00E9453078091F00088608093BE
:103A7000F000FF91EF91BF91AF919F918F917F9156
:103A80006F915F914F913F912F910F900FBE0F90CB
:103A90001F90189519BC10921B0410920D0474CF3E
:103AA0008091E30087FD93E090931B04B5CF789459
:103AB0001F921FB61F9211248F939F93AF93BF93B2
:103AC0008091090490910A04A0910B04B0910C0418
:103AD0000196A11DB11D8093090490930A04A0933F
:103AE0000B04B0930C04BF91AF919F918F911F90E5
:103AF0001FBE1F9018959C014FB7F8948091090440
:103B000090910A04A0910B04B0910C044FBF821B4A
:103B1000930B08952FB7F8948091090490910A04AB
:103B2000A0910B04B0910C042FBF08950E94030FC5
:103B3000882319F00E948A1D08950E94390FCB0135
:103B400008956091FB03669570E04BE050E085E7D7
:103B500091E00E94AD33892B19F481E080931A0320
:103B60000E94961D909314038093130380911B036E
:103B7000846080931B0308959091FB0390FF31C0F4
:103B8000917081112FC092609093FB0380911B0371
:103B9000816080931B03662351F06091FB03709159
:103BA000FC038091FD039091FE030E943517609104
:103BB000FB03669570E04BE050E085E791E00E94E2
:103BC000AD33892BB1F00E94980881E080931603F1
:103BD00020E04091FE036091FD038091FC030E9470
:103BE000481708958C3110F09663CECF880F982B2C
:103BF000CBCF0E94A11DE9CF8091FB038695815018
:103C000009F48BE161E00E94BC1D08958091FB03E3
:103C100086958F5F8C3108F081E061E00E94BC1DC9
:103C200008959091FB0390FF08C09695981728F08F
:103C3000961718F40E94061E089561E00E94BC1DAC
:103C40000895A2E1B0E0E7E2FEE10C9433338C0189
:103C5000FC0183819481892B31F0808191818923BA
:103C60008F3F09F053C56296E1E10C944F330E94F7
:103C7000AD16F82E682F89819A810E94880B698180
:103C80007A818F2D0E949F167C01F8018281882302
:103C900009F42FC5C70182519F45409708F0F4C42D
:103CA0008FEF93E00E94D033811128C0FEEEEF0E1B
:103CB00057EA852E52E0952EE11032C01C821B82FD
:103CC000442443944AE0342E74018FEFE81AF80A32
:103CD000C4010E94D03389831A82882379F09FEF30
:103CE000980F933058F58A83498292E0890E911C8F
:103CF000C7010E94D0338B83811121C08091400283
:103D0000877009F4B0CFF8018281882309F4ABCF22
:103D10008091BB0282FFA7CF82E00E944C14A3CF08
:103D2000811424E0920651F3C4010E94D033811122
:103D300001C0EA943FEF831A930ABECF4701FE0108
:103D400031967F01F7012081222309F4BDCF213074
:103D500009F04DC091818281913061F4F2E0EF0E63
:103D6000F11C70E060E0893311F460E570E00E94BE
:103D70001B1507C0923049F422E0E20EF11C0E94AC
:103D8000E2148FEFE81AF80ADDCF933031F432E015
:103D9000E30EF11C0E948C14F4CF943021F08FEFCD
:103DA000E81AF80AEECF92E0E90EF11C30E020E0CC
:103DB000B7016F5F7F4FF70141818053990B8A30C4
:103DC000910550F021503109E0F28FE99FE0019711
:103DD000F1F700C00000F6CF329EF001339EF00DE7
:103DE00011249C012E0F3F1F842F7B01E1CFE22F76
:103DF000F0E0E957FE4F5490822F86958695869580
:103E000090E0FC01E958FE4F64902770712C022E5F
:103E100002C0759467940A94E2F7E1E06E22772479
:103E2000FC01E959FE4FA490B12C022E02C0B594BA
:103E3000A7940A94E2F7F1E0AF22BB24FC01E95A0F
:103E4000FE4FC490D12C02C0D594C7942A95E2F7B6
:103E500021E0C222DD246114710419F081EE0E9478
:103E6000E214A114B10419F086EE0E94E21439E3C1
:103E700070E060E0531202C060E570E0852D0E94A2
:103E80001B15A114B10419F086EE0E948C14611464
:103E9000710419F081EE0E948C14C114D10409F44C
:103EA00070CF70E060E08CE262CF81E00E94681425
:103EB0000E94331423CF81E00E943F14F9CF82E0A7
:103EC000F5CF84EFE81AF10881E090E00E2C01C0F4
:103ED000880F0A94EAF7F801328126E0EDE0F3E07A
:103EE000DE01179601900D922A95E1F726E0FE017A
:103EF0003796DE011D9601900D922A95E1F72885EF
:103F00003323A9F0822B8E8786E0FE013D96DE01E9
:103F1000119601900D928A95E1F786E0FE013196A7
:103F2000ADE0B3E001900D928A95E1F7E7CE809580
:103F30008223E9CFF80182810E94CF0BDFCE80E09F
:103F40000E94A81B10923804D9CE409131045091A0
:103F5000380450FB47F95695537060E070E08FE0ED
:103F600090E00E94F633CACE81E00E94C61BC6CE06
:103F70008FEFFBCF8AE0F9CF86EFF7CF9091330434
:103F800081E08927D9CF80913804811101C084E074
:103F90008F5F18160CF081E0883008F087E080937E
:103FA0003804ACCE80913804811101C084E0815086
:103FB000F0CFF6E1EF16FCE5FF0609F055C1809160
:103FC0000E048A7A91E009F490E09093E50169E2A9
:103FD000811165E38AEC91E00E9461080E94FF1064
:103FE0008DCE85E3AFC380910E0482722CECE21675
:103FF0002CE5F20609F424C108F098C096ECE91605
:104000009CE5F90609F408C108F069C0F3ECEF1665
:10401000FCE5FF0609F4F6C008F04EC032ECE316EA
:104020003CE5F30609F4C2C0F8018281E080F1802A
:10403000882309F457C1C7010E94AD16D82E682FF6
:10404000C7010E94880BB7018D2D0E949F160E9408
:10405000D3097C01882EF801C280B580B2943FE07C
:10406000B322809140028770C1F0AC2CCC20B1F01B
:104070008F2D807F803421F080E28E0D883068F0B3
:104080008091BB0282FF09C082E00E944C148091A3
:1040900040028770AA24A3948111A12C9F2C929492
:1040A0002FE09222FBE0F91508F48BC1E92DF0E036
:1040B000EC5DFB4C0C94973394ECE9169CE5F90607
:1040C00009F4A5C04DE058E167E178E1E5ECEE16B2
:1040D000ECE5FE0609F0A8CF0E9491080FCEF9EC9E
:1040E000EF16FCE5FF0609F4A1C080F437ECE316F7
:1040F0003CE5F30609F495C040E058E163EF77E151
:1041000098ECE9169CE5F90639F38ECFEAECEE1649
:10411000ECE5FE0609F48FC041E258E163E378E183
:10412000FBECEF16FCE5FF06B9F27ECF21EDE216BF
:104130002CE5F20609F4E2CDC8F48EECE8168CE525
:10414000F80609F485C008F480C0EFECEE16ECE543
:10415000FE0609F480C06EE089E0F0EDEF16FCE5A4
:10416000FF0609F061CF0E94111EC8CD24EDE216B2
:104170002CE5F20609F475C068F482EDE8168CE5CA
:10418000F80609F46BC093EDE9169CE5F90609F40D
:10419000B5CD4ACFE5EDEE16ECE5FE0609F4AECD61
:1041A000FDE5EF16FF0609F4A9CD3ECF8091FB0394
:1041B00080FF20C08E7F8093FB036091FB03709192
:1041C000FC038091FD039091FE030E9435170E942D
:1041D000980880911B03816080931B032FEF30E7C9
:1041E00082E0215030408040E1F700C000000E9492
:1041F000800D84CD81608093FB0361E086950E94F1
:10420000BC1D7CCD4CEF5DE166E07EE165CF46E014
:104210005EE16CEF7DE160CF47E158E16DE078E170
:104220005BCF43EF57E160E078E156CF49ED57E1CE
:1042300066EE77E151CF46EE57E169ED77E14CCF7D
:1042400043E358E161E278E147CF61E081E0D7CF15
:1042500065E082E088CF68E086E085CF61E18FE0AD
:1042600082CF6BE182E17FCF9AE5E9169DE5F90601
:10427000A9F168F4E114FCE5FF06B9F02EEDE216B1
:104280002CE5F20609F0D0CE0E945E180CC03CE589
:10429000E3163DE5F306C1F018F197EAE9169DE54E
:1042A000F90609F0C1CE0E94081410920E040E9473
:1042B0003C11EFEFF4E32CE0E150F0402040E1F757
:1042C00000C000000E9444088091BB0282FB882746
:1042D00080F991E089270E945416A6CE81E0FBCF99
:1042E00080E0F9CFC7010E94540BD82EACCE2F2D01
:1042F0002F70D22E8F2D807F19F0D29490EFD9227B
:10430000CC20B9F0DD2069F080E28E0D883010F00D
:10431000811009C080910E04D82AD0920E040E9408
:10432000FF108E2D4CC080914902D82AD0924902AC
:10433000F6CF8E2D0E948C14DD2009F442C080E25D
:104340008E0D883010F0811004C08D2D0E94430B1B
:1043500006C0D09480914902D822D09249020E948E
:10436000FF102FC03F2D3F70D32E8F2D807F8032C6
:1043700019F0D29480EFD822882089F081E0881645
:1043800009F468C0CC2009F472C0BB2009F468C0ED
:10439000F801858180FFC5CF8F70858361C0209132
:1043A000BB0222FD35C0CC2069F1DD2039F08091BF
:1043B0000E04D82AD0920E040E94FF1080E00E94C2
:1043C000E214292D2850330B2430310510F40E94BB
:1043D000280FAA2009F447CC8091400280FD43CCED
:1043E000F80112828595859585950E946814C8010B
:1043F0000E94211E809140028595859585950E9499
:104400003F1431CC80E00E948C14DD20D1F29DCF8E
:10441000CC2099F090914A02892F8D29B11003C0C8
:104420000E948214CECFE1E0BE12FACF22FFC9CFA4
:10443000981739F280934A02C4CFB11006C00E9487
:104440003D0B8D2D0E947B14BCCFF1E0BF1609F40B
:10445000B8CFF5CFCC2031F025E02B1508F4B1CF43
:104460008D2DDECF34E03B1508F4ABCFEACFBB2077
:1044700041F3F9E38F1209C02FEF37EE83E02150AB
:1044800030408040E1F700C000008E2D0E948C1467
:1044900098CF8F2D837091F5C11093CF4E2D4295FB
:1044A00046954770440F440F8E2D8F70042E01C027
:1044B000880F0A94EAF72E2D2071E4FE07C02FE042
:1044C00030E001C0220F4A95EAF720953F2D36953E
:1044D00036953370323069F050F440914B023130F0
:1044E00029F0822B84230E9474146BCF842B822B9F
:1044F000FACF282B80914B028227F5CF8695CC20CE
:1045000011F08F2D8170882309F45BCF4E2D4295D9
:1045100046954770440F440F8E2D8F70042E01C0B6
:10452000880F0A94EAF72E2D2071E4FE07C02FE0D1
:1045300030E001C0220F4A95EAF720953F2D3695CD
:1045400036953370323069F050F4409125043130A3
:1045500029F0822B84230E94201433CF842B822BBA
:10456000FACF282B809125048227F5CF9F2D9F70AD
:10457000F92ECC2029F0892F0E9468148E2D50CF5F
:104580008E2D0E947B148F2D0E943F141ACF8E2DEA
:10459000E2EF8E16B1F1E81570F0F0EF8F16D1F062
:1045A00021EF821691F0CC2009F45EC0B110B9CE93
:1045B0008F2D8F712AC033EF831651F194EF89123A
:1045C000F2CF8091BB0282FD2FC08F2D8F71CC2046
:1045D000D9F21BC0CC2081F0E4E0EB1508F4F1CE59
:1045E0002F2D2F7181E090E001C0880F2A95EAF706
:1045F000909125048927AFCFF5E0FB1508F4E1CEB3
:10460000EFCF8F2D8F71C110BFCF0E946814D9CE0C
:1046100080E0CC2009F49FCF9F2D9F7181E001C0E5
:10462000880F9A95EAF797CFCC2099F02F2D2F710C
:10463000F22E822F0E9468148091BB0282FF07C075
:1046400038E0F39EC00111248360809340028F2DD7
:10465000DCCF81E00E944C1481E08B1508F0B1CED4
:1046600082E00E944C14ADCEBB2059F0893309F092
:104670000CCF9FEFE7EEF3E09150E040F040E1F720
:1046800002CF8F2D8F7180CFF0E1EF16FFE5FF068F
:1046900009F40BCC21E1E2162FE5F20609F40FCC68
:1046A000F0923F04E0923E04F80180819181909362
:1046B000410480934004F4EFEF16F10458F029EF21
:1046C000E216F10408F4FDCB38EBE3163DE5F30602
:1046D00009F430CCF8018281882349F1F701E15BCC
:1046E000FD45EA30F10508F064CCE05DFB4C0C942C
:1046F000973330E1E3163FE5F30609F4DCCB81E1C3
:10470000E8168FE5F80661F682E0D6CB85E0DE019B
:10471000119601900D928A95E1F7F8012281898125
:104720009A812111A4CA0E94540BF82EA8CAF6E15E
:10473000EF16FCE5FF0609F056CC8091E5018111EA
:1047400050CC89E2ECECF1E022ED31E0919189135B
:1047500003C0DF0111971C922E173F07B9F73ECC1B
:104760001F93CF93DF9380910D02807F09F049C0A2
:1047700080910A02882309F444C080913F02D091BD
:104780000E026091080270910902A0910B02B09193
:104790000C02C62FC72316E0D81799F190E01097A6
:1047A00011F0CF3F19F401968770F6CF189F900152
:1047B000199F300D1124F901E15FFD4F418147132D
:1047C000F2CF40814613EFCF42814111ECCF4381BC
:1047D00054814A1B5B0B483C510528F780910D0220
:1047E0008F70806180930D02F901EC5EFD4F808136
:1047F0008F708061808388E092E00E94211E0E9479
:104800004A0BDF91CF911F910895A1E1B0E0EBE059
:10481000F4E20C943A338C0185E0F801DE011D9638
:1048200001900D928A95E1F7F801E28088E0A82EC8
:1048300082E0B82E60910B0270910C026115710537
:1048400009F426C19091080240910902892F84231E
:104850008F3F09F41DC120813181C380D480F09045
:104860000A02F601E61BF70BFF2009F4DCC0809179
:104870000D02582F507FE83CF10508F09FC0511100
:104880006BC0FE2C431314C0921312C0E11010C071
:104890008F70806180930D02C5010E94211E80915E
:1048A0000D02F80185838F2D6196EAE00C94563352
:1048B000C114D10429F0822F83238F3F09F003C153
:1048C00080E0F82FF170DF2E80FF3CC080913F0226
:1048D00040910E0256E0841315C02D873E878D85CA
:1048E0009E850E94DC16292F22952F702230F0F031
:1048F000243018F59F70F1F0F8019581907FD1F484
:10490000D12C1EC090E0589FF001599FF00D11244A
:10491000E15FFD4F6181361306C06081261303C03D
:104920006281E6120FC001968770D5CF9F7011F09B
:10493000882331F3805E883018F3C8010E94211E5D
:10494000FD2CB1CFEE2009F4AECF80910D02816035
:1049500080930D02F12CA7CF431306C0921304C01D
:10496000F801EE2009F479C0C8010E94E9168823F5
:1049700009F1EE20F9F080910D02803270F0209163
:1049800008023091090238872F831986DB86CA8690
:104990008C87CE0107960E94211E86E0F801A8E0D0
:1049A000B2E001900D928A95E1F70E94B023FF24B6
:1049B000F39479CFC8010E94211EF9CF51110AC08A
:1049C00088E092E00E94211E86E0F50111928A950E
:1049D000E9F7C0CF43130FC092130DC0E1100BC015
:1049E000F8018583C8010E94211E86E0F50111921D
:1049F0008A95E9F758CFC8010E94E9168823D1F2B9
:104A0000EE20C1F280910D02803238F2209108022E
:104A1000309109023A8329831B82DD82CC828E8306
:104A2000CE010196B8CFE83CF105F8F6FE2CEE2059
:104A300009F243131FC092131DC080910D0280FD27
:104A400010C0982F907F69F0F8018583903F31F076
:104A5000982F907F905F8F70892B8583C8010E946B
:104A6000211E86E0F801A8E0B2E001900D928A953F
:104A7000E1F719CFC8010E94E91681118ECF80910C
:104A80000D02816080930D02C8010E94211E0BCF90
:104A9000EE2009F48FCFC8010E94E916F82E882372
:104AA00009F488CF86E0F801A8E0B2E001900D9209
:104AB0008A95E1F780910802909109020E94DC1624
:104AC0000E94B023F0CE81E08E25FBCEA7E1B0E0BE
:104AD000ECE6F5E20C9441334B8B5C8B6D8B7E8B5B
:104AE0008F8B6111109249021A8A198A85E0FE01A2
:104AF0007396DE011D9601900D928A95E1F786E08E
:104B0000FE013D96DE01179601900D928A95E1F720
:104B1000CE0107960E940524882359F016E0809163
:104B20003F0290910E02891345C06796E3E00C9412
:104B30005D3386E0FE013796DE01119601900D92FD
:104B40008A95E1F78A859B85892B41F38F8198852A
:104B500089238F3F19F320910E0230E0C90101969D
:104B60008770992740913F024817190681F41092E7
:104B70000E040E943C1110920E0210923F0286E039
:104B8000E8E0F2E0DF011D928A95E9F7C7CF96E0F1
:104B9000929FD001939FB00D1124A15FBD4FFE01E4
:104BA000319601900D929A95E1F780930E020E9442
:104BB0004A0BB4CF819FC0011124815F9D4F0E9499
:104BC0000524882309F4B1CF80913F0290E001963B
:104BD0008770992780933F02A2CFB0E0A0E0E3EF77
:104BE000F5E20C94383334E5A32E36E0B32E40E0E2
:104BF000E42E41E0F42E10E088248394912CD70118
:104C00008D917D010E94D60C00C0E50109915E01E5
:104C100025E0C22E21E0D22EF601D0E0C0E0419185
:104C2000A42FA295AF70B0E090968C9194010C2EB9
:104C300001C0220F0A94EAF790E04F7002C09595E8
:104C400087954A95E2F780FD8AC0022B2196C430F1
:104C5000D10529F7F701319780810E94EA0CA0EA7B
:104C6000AA95F1F7F5018291801711F0008311E008
:104C7000B5E0EB16B1E0FB0611F6EE24E394F12C5F
:104C8000F60181916F010E94D60C00C097010C2E95
:104C900001C0220F0A94EAF7522FA4E5B6E080E0A3
:104CA000A82E81E0B82E2095F50131915F01832F68
:104CB00082958F7090E0FC0180A14D9190E03F7053
:104CC00002C0959587953A95E2F7BD01615071094B
:104CD00080FD48C0852F842BFB0180838081481391
:104CE00011E0F5E0AF16F1E0BF06F1F6F6013197FD
:104CF00080810E94EA0C20EA2A95F1F72196C830BB
:104D0000D10509F0BDCFC091B902112371F181E045
:104D10008093D4010E948A1D9093D3018093D20185
:104D20008091D2019091D3010E947B1D059708F1DB
:104D3000D0E0CE50DD4F45E050E064E576E0CE01B6
:104D40000E94BA33892B41F085E0E4E5F6E0DE010C
:104D500001900D928A95E1F71092D4010AC0209536
:104D6000022374CF822F8423B7CF8091D401811185
:104D7000D7CF0E94030F082FE091B902811180C0A4
:104D8000F0E0EE50FD4F85E0AEE4B2E001900D9210
:104D90008A95E1F765E070E08EE492E00E947B087E
:104DA00080934D02C0905302D0905402E09055027F
:104DB000F09056028091D5019091D601A091D70133
:104DC000B091D801C816D906EA06FB06D1F0C09208
:104DD000D501D092D601E092D701F092D8010E947D
:104DE000030F81110EC00E945508C61AD70AE80A9F
:104DF000F90AC092B402D092B502E092B602F092E3
:104E0000B70280915E02882379F180FF0DC0809106
:104E1000570280FF2FC09091FB0391609093FB039A
:104E200060E086950E94BC1D80915E0281FF09C0F2
:104E300020E040915A0260915902809158020E94EC
:104E4000481780915E0282FF06C080915D02882330
:104E5000A1F00E94A11D80915E0283FF03C081E04A
:104E60008093160310925E02812FCDB7DEB7ECE07F
:104E70000C9454330E94EB0ED7CF0E949808EBCFCE
:104E8000A9E5B6E085E0ED0119928A95E9F7CE2F04
:104E9000D0E0CE50DD4F809153068A30A8F568E00F
:104EA0007AE1CE010E94FF0C882309F449C06DEB22
:104EB00079E1CE010E94FF0C882309F441C067E626
:104EC00079E1CE010E94FF0C8823D1F110925306A4
:104ED00081E08093DB01C091B802D0E0CE50DD4F7D
:104EE00045E050E069E576E0CE010E94BA33892BB7
:104EF00009F4BACF85E0E9E5F6E0DE0101900D9214
:104F00008A95E1F7102FB0CF8091D9019091DA0105
:104F10000E947B1D843F914010F68091DB01882325
:104F200009F4A2CF1092DB01E091B802F0E0EE505C
:104F3000FD4F95E0DF011D929A95E9F7182F94CF68
:104F4000809153068F3F31F08F5F809353068A30F4
:104F500008F4BECF0E948A1D9093DA018093D90194
:104F6000DCCF1F921FB61F9211248F939F93AF9394
:104F7000BF9380910804811113C08091090490911E
:104F80000A04A0910B04B0910C044196A11DB11D1F
:104F90008093090490930A04A0930B04B0930C042B
:104FA000BF91AF919F918F911F901FBE1F90189539
:104FB000CDB7DEB7AE970FB6F894DEBF0FBECDBF4C
:104FC00085B7806885BF85B7806885BF84B7877FD0
:104FD00084BF0FB6F894A895809160008861809393
:104FE0006000109260000FBE80E890E00FB6F89469
:104FF00080936100909361000FBE8FE599E09093DC
:10500000C9018093C8010E94BA060E948507809159
:10501000E20084608093E200789480911B048823EE
:10502000A1F01091E9001F709091EC00892F817020
:1050300090FD80E8182B1092E9008091E80083FD34
:105040000E9448111F701093E90082E084BD93E034
:1050500095BD9AEF97BD80936E001092B4021092A6
:10506000B5021092B6021092B7020E941C1781116D
:1050700002C00E9444160E948A1A809109010E946F
:105080008A1A809105010E94EA0C809106010E9413
:10509000EA0C809107010E94EA0C809108010E94AD
:1050A000EA0C00E011E0D8018D918D010E94EA0C1C
:1050B000B1E005301B07B9F78091090195E0811136
:1050C00090E09093B90285E0891B8093B8020E941A
:1050D000030F811102C00E94BF31E4E5F6E0A2EFA8
:1050E000B2E011921D9226E0EE35F207D1F70E9450
:1050F000A11A811102C00E945E1882E090E00E9415
:10510000D0338093BF0284E090E00E94D033182F08
:1051100082E290E00E94D033982F812F9093BB02BF
:105120008093BA020E94ED258FE39CE90197F1F785
:1051300000C000000E94ED258091F20280FF08C0AF
:105140006FEF7FEF90E080E00E9402340E944408FD
:1051500083E090E00E94D0330E9474148091250473
:105160000E94BE0B91E0833009F090E0892F0E94ED
:10517000CF0B0E94030F882309F44FC180E0809376
:10518000ED0280E8809348040E9476306DE070E084
:105190008AE192E00E944B15892BE9F58091ED029E
:1051A00063E070E081FD3BC187E192E00E944B1516
:1051B000892B89F56DE070E087E092E00E944B1545
:1051C000892B49F50E945508605A75418F4F9F4FB2
:1051D000609300047093010480930204909303048D
:1051E000EBE4F4E080E092E0DF019C011D922150AD
:1051F0003040E1F7F0935206E09351068FEF9FEFB6
:1052000090934A048093490481E08093050480933D
:1052100004041092EE028091BC02811138C00E94F9
:10522000A11A811104C00E945E180E94451888E0EE
:1052300090E00E94D8336093FB037093FC0380934B
:10524000FD039093FE0380911B03836080931B03F7
:105250006E7F71F40E94451888E090E00E94D83378
:105260006093FB037093FC038093FD039093FE0314
:105270000E949F080E9498088091FB0380FF04C051
:1052800060E086950E94BC1D81E08093BC020E9474
:10529000030F811102C00E94BF310E94F31B0E94C4
:1052A000030F81112EC080E99FE0909351018093FC
:1052B000500126E130E030934C0120934B0186E30E
:1052C00090E090934F0180934E014BE459E050934E
:1052D0005901409358013093540120935301909306
:1052E00057018093560141EC5BE15093610140937B
:1052F000600130935C0120935B0190935F01809388
:105300005E010E94A11A882389F08FE090E00E943C
:10531000D8338B01862F8F770E94A81B001F002790
:10532000001F1370110F102B109338040E946A0F86
:1053300082E691E0909307048093060450E4652E82
:10534000EE24E39480911B0400E112E1853009F41E
:10535000A7C00E94ED2500EC12E083E991E09CA734
:105360008BA7BC0122EF32E0F8019191D9018D9118
:105370009D01DB014D91BD0184234AECC42E42E026
:10538000D42ECE16DF0609F497C0981771F30E9449
:10539000030F482EA3E9CA2EA1E0DA2EB2EFAB2EFE
:1053A000B2E0BB2E912CD501FD905D01F6018191FB
:1053B0006F01F822D8015D908D015F1429F15F24FF
:1053C000812C77247394852D8721B1F04420A1F09E
:1053D0008EA29FA291E08F2D872109F490E098A7DB
:1053E0000E948A1D8160782F9AA789A74EA15FA18C
:1053F00068A58AA50E9466258394770CB8E08B1275
:10540000E2CFF8013197F0829394EAE09E12CBCF7D
:105410000E945508FF24F39470C082E0B0CE84E16E
:1054200092E0C4CE80911B04843039F10E9475153E
:105430000E9457101092080448E150E00FB6F8940B
:10544000A895409360000FBE6092600083B7817F93
:10545000846083BF83B7816083BF7894889583B766
:105460008E7F83BF0FB6F894A89580916000886105
:1054700080936000109260000FBE80911A04882310
:1054800079F00E94ED25A3E9B1E0E2EFF2E081912D
:105490009D91892309F038C552E0EC3FF507B9F733
:1054A00080911B04853009F4BDCF10920E040E9438
:1054B0003C110E94280F4DCF981369CF0E948A1D7E
:1054C0008C018091BD029091BE0208171907A1F0CE
:1054D0008FEF89A38AA31BA20E948A1D8160782F67
:1054E0009DA38CA349A15AA16BA18DA10E94662501
:1054F0001093BE020093BD02F12C0E94030F809115
:105500001A03882309F463C080911903E091FB0317
:10551000E695E81BE0931503823009F077C1F0E0CF
:10552000E05DFD4FE4910E2F10E0F7EDCF2EFEE091
:10553000DF2E80911603882361F0109216030E94DB
:10554000961D9093140380931303109218031092E6
:1055500017030E94961DE0911303F09114039C0120
:105560002E1B3F0B2F3F3F4790F52091CC0222236B
:10557000B1F01092CC022091CA023091CB02821B72
:10558000930B8F3F9F4758F4205D3A483093CB02EE
:105590002093CA0280911B03886080931B03A09014
:1055A0001703B0901803E00FF11FF0931403E0937A
:1055B000130383E193E0F60109958091170390911D
:1055C0001803892B21F4AB2811F0E092CC028091D2
:1055D0000504882351F18091EF029091F0020E941E
:1055E0007B1DC29708F041C12091490430914A04C3
:1055F0002115310509F0EBC1809104048823A9F03D
:105600000E945508009100041091010420910204A9
:1056100030910304601B710B820B930B6F3F7F4F24
:105620008F4F9F4710F40E947515F1100E9490153E
:105630000E9457100E94280F9091F102891721F0C3
:105640008093F1020E94550880911B04843009F474
:1056500091C20E94030F882309F474CE0E9455085A
:105660002091020321116DC00091FE021091FF02F2
:1056700020910003309101036B017C01C01AD10A13
:10568000E20AF30A97018601043F11402105310522
:1056900008F457C06093FE027093FF0280930003EA
:1056A000909301038091FC029091FD0201969093EA
:1056B000FD028093FC0219828E010F5F1F4F21E0D3
:1056C00050E040E060E088E00E941119811106C0BE
:1056D0008091FC029091FD020A979CF181E08093F9
:1056E0000203809327049981911101C080E0809387
:1056F00028048091260410E0882329F00E94530F8B
:1057000011E0811112E080912804882309F4F8C384
:105710000E94530F8111F6C382E0182B0E941317C9
:105720006B017C01DC01CB018C7FBC01CD01612BC5
:10573000C616D706E806F90611F00E9426160E9442
:105740006A0F80912804882309F4FACD0E94550835
:105750006B017C018091030390910403A0910503E8
:10576000B0910603A7019601281B390B4A0B5B0B6E
:10577000DA01C9010497A105B10580F119821A82E5
:105780001B821C828E010F5F1F4F24E050E040E01F
:1057900060E089E00E9411198823C1F069817A8153
:1057A00080912D0490912E040E94C30C90932E049E
:1057B00080932D046B817C8180912F049091300423
:1057C0000E94C30C9093300480932F04C092030373
:1057D000D0920403E0920503F09206038091320414
:1057E000882309F4ADCD80913104898310E000E075
:1057F00020E0AE014F5F5F4F61E08AE00E94111927
:10580000882309F49DCD109232049ACD863059F444
:10581000F0E0E35DFD4FE4910E2F10E0E7ECCE2EBB
:10582000EEE0DE2E86CE893061F4E695F0E0E65DAE
:10583000FD4FE4910E2F10E073E5C72E7EE0D72ECA
:1058400078CE00ED17E057E9C52E58E0D52E8F3001
:1058500009F06FCEF0E0E95DFD4FE4910E2F10E00E
:105860006BECC62E6DE0D62E64CE0E948A1D9093FE
:10587000F0028093EF028BE494E0909352068093C1
:1058800051060E94030F882309F49CC010913E0426
:10589000012F84E792E00E941710809141048F70DD
:1058A0008A3008F081C0805D0E94970F80E792E007
:1058B0000E941710809140048F708A3008F076C0E3
:1058C000805D0E94970F002309F476C08DE692E078
:1058D0000E941710812F82958F708A3008F068C05F
:1058E000805D0E94970F812F8F708A3008F062C010
:1058F000805D0E94970F8CEF810F853308F05CC0AC
:1059000089E692E00E941710212F2450330BF901F1
:10591000EC5CFD4F84910E94970F80E992E00E9419
:105920001710809144040E94980C0E9433158091B6
:1059300045040E94980C0E943315809147040E94F0
:10594000980C0E943315809146040E94980C0E9486
:10595000331587E892E00E9417108091310481117D
:1059600001C085E00E94980C01960E94331581E8E1
:1059700092E00E94171080913304811121C080E3CE
:105980000E94970F8DE792E00E94171080913804D3
:10599000811101C084E0805D0E94970F8091050411
:1059A000882309F429CE20CE895A7ECF895A89CFFF
:1059B000895A97CF895A9DCF81E00E942510ADCF9B
:1059C00081E3DECF86E992E00E941710E7CF809155
:1059D000EE0261E070E081110FCE082F10E02B0184
:1059E000082E02C0440C551C0A94E2F7A901442178
:1059F0005521452B09F448C09091ED0290FD46C019
:105A00008295880F8076809370019801369527954E
:105A10003695279520937301815E809371011092D2
:105A2000740124E630E047E050E06EE671E088E77C
:105A30000E941631892B09F0DFCDA80195E0440FB3
:105A4000551F9A95E1F78091ED0280FD2DC0455BD1
:105A50005B4F04E610E020E230E060E488E70E945B
:105A60003731892B09F0C8CD0E949015C20180956D
:105A700090954090490450904A04482259225092EF
:105A80004A0440924904B8CD8F5FA7CF880F880F92
:105A9000880F8093700110927301895F8093710168
:105AA00083E080937401BDCFEDECF2E080E2DF0192
:105AB0001D928A95E9F7EFE8F1E0FEA7EDA70BE864
:105AC00011E087E0A82E99249394ADA5BEA52D9151
:105AD000BEA7ADA7F80121908F01240E352E311CF1
