:100000000C9473060C9490060C9490060C94483251
:100010000C9490060C9490060C9490060C94900608
:100020000C9490060C9490060C94711B0C942D1B50
:100030000C9431280C9490060C9490060C94900625
:100040000C9490060C9490060C9490060C949006D8
:100050000C9490060C944A1C0C9490060C949006F8
:100060000C9490060C9490060C9490060C949006B8
:100070000C9490060C9490060C9490060C949006A8
:100080000C9490060C9490060C9490060C94900698
:100090000C9490060C9490060C9490060C94900688
:1000A0000C9490060C9490060C949006050109029D
:1000B000A10185020901A1000509190129081500FE
:1000C0002501950875018102050109300931158165
:1000D000257F95027508810609381581257F9501D0
:1000E00075088106050C0A38021581257F95017572
:1000F000088106C0C005010980A101850319012AF4
:10010000B700150126B700950175108100C0050CD8
:100110000901A101850419012AA002150126A002E6
:10012000950175108100C00660FF0961A101096297
:10013000150026FF00952075088102096315002629
:10014000FF00952075089102C005010906A101056F
:100150000719E029E7150025019508750181029529
:1001600001750881010507190029FF150026FF0008
:100170009506750881000508190129059505750181
:100180009102950175039101C0000000000000007C
:10019000000000000000000000000000000000005F
:1001A000000000000000000000000000007E0F00C2
:1001B000D4FFFFFFC700000078000000000000002F
:1001C000002A2B28000000000000000000000000B2
:1001D0000000000029000000002C1E3420212224F1
:1001E000342627252E362D3738271E1F202122237F
:1001F0002425263333362E37381F04050607080911
:100200000A0B0C0D0E0F10111213141516171819D6
:100210001A1B1C1D2F3130232D3504050607080934
:100220000A0B0C0D0E0F10111213141516171819B6
:100230001A1B1C1D2F3130354C00DA0281FFD9F119
:10024000DB20A4A62EAF00A0C000A1C800AED580C0
:10025000A81FD300408D1420006162636465666747
:1002600068696A6B6C6D6E6F707172737475767796
:1002700078797A313233343536373839305245422D
:10028000545F2D3D5B5D5C233B27602C2E2F20208F
:100290002700204B00202043004B6579203A202086
:1002A0005200202044003030202053002020202005
:1002B000204350490042616C6C3A0052543A002F7E
:1002C000004D563A004C3A008081828384858687AF
:1002D00088898A8B8C8D8E8F9091929394A0A1A205
:1002E000A3A4A5A6A7A8A9AAABACADAEAFB0B1B266
:1002F000B3B4C0C1C2C3C4C5C6C7C8C9CACBCCCDBC
:10030000CECFD0D1D2D3D40000010101010101012F
:1003100001010202020202020202020303030303BA
:100320000303030404040404040405050505050689
:100330000606060607070707070808080809090947
:10034000090A0A0A0B0B0B0C0C0C0D0D0D0E0E0EF0
:100350000F0F0F1010111111121213131414151581
:1003600016161717181819191A1A1B1B1C1D1D1EF3
:100370001E1F202021222223242425262627282947
:10038000292A2B2C2D2D2E2F303132323334353675
:100390003738393A3B3C3D3E3F4041424344454675
:1003A0004748494A4C4D4E4F505153545556585951
:1003B0005A5B5D5E5F616264656668696B6C6D6FF8
:1003C0007072737577787A7B7D7E8082838587886B
:1003D0008A8C8E8F91939596989A9C9EA0A2A3A5A5
:1003E000A7A9ABADAFB1B3B5B7BABCBEC0C2C4C6A6
:1003F000C9CBCDCFD1D4D6D8DBDDDFE2E4E7E9EB62
:10040000EEF0F3F5F8FAFDFF0000000000003E5B9F
:100410004F5B3E003E6B4F6B3E001C3E7C3E1C0023
:10042000183C7E3C18001C577D571C001C5E7F5EEC
:100430001C0000183C180000FFE7C3E7FF0000188D
:1004400024180000FFE7DBE7FF0030483A060E0003
:10045000262979292600407F05050700407F0525CC
:100460003F005A3CE73C5A007F3E1C1C0800081C19
:100470001C3E7F0014227F2214005F5F005F5F003C
:1004800006097F017F00006689956A0060606060F0
:10049000600094A2FFA2940008047E0408001020CB
:1004A0007E20100008082A1C0800081C2A080800E2
:1004B0001E10101010000C1E0C1E0C0030383E38A0
:1004C0003000060E3E0E0600000000000000000096
:1004D0005F000000000700070000147F147F140075
:1004E000242A7F2A1200231308646200364956200A
:1004F0005000000807030000001C224100000041DA
:10050000221C00002A1C7F1C2A0008083E08080044
:1005100000807030000008080808080000006060D3
:1005200000002010080402003E5149453E000042F0
:100530007F4000007249494946002141494D33003E
:100540001814127F10002745454539003C4A494997
:100550003100412111090700364949493600464911
:1005600049291E0000001400000000403400000073
:100570000008142241001414141414000041221421
:1005800008000201590906003E415D594E007C12E7
:1005900011127C007F49494936003E414141220009
:1005A0007F4141413E007F49494941007F09090996
:1005B00001003E41415173007F0808087F0000415F
:1005C0007F4100002040413F01007F08142241008C
:1005D0007F40404040007F021C027F007F040810E3
:1005E0007F003E4141413E007F09090906003E412E
:1005F00051215E007F0919294600264949493200E8
:1006000003017F0103003F4040403F001F20402086
:100610001F003F4038403F00631408146300030488
:10062000780403006159494D4300007F4141410076
:10063000020408102000004141417F000402010231
:1006400004004040404040000003070800002054E0
:10065000547840007F2844443800384444442800FB
:10066000384444287F0038545454180000087E0948
:1006700002001824241C78007F0804047800004439
:100680007D4000002040403D00007E1028440000D6
:1006900000417F4000007C04780478007C0804045A
:1006A00078003844444438007C1824241800182466
:1006B00024187C007C080404080048545454240086
:1006C00004043F4424003C4040207C001C20402087
:1006D0001C003C4030403C004428102844004C9012
:1006E00090907C004464544C440000083641000063
:1006F00000007700000000413608000002010204FB
:1007000002003C2623263C00000000000000000000
:10071000000000000000000000F81E030101020CB0
:100720000808080808101010101804020206FC003F
:1007300000000000000000000000000000F01E03A8
:100740000101030C0808080808080808080C06033B
:10075000010103FE00000000000000000000000096
:100760000000F03E030103060C0C0C080808080802
:100770000808080C060101031EE00000000000004C
:10078000000000000000E0F0F0F0E0ECEEF7F370A5
:1007900020007C7C7C7E007E7E7E7F7F7F000080D0
:1007A000C0E07E5B4F5BFEC00000C000DCD7DEDE39
:1007B000DED7DC00C00000000000000000000000E8
:1007C0000000000000000000000000000000000029
:1007D000C020008060180000C07F00000000000002
:1007E000020200000000000000020200000007F802
:1007F0000000000000C020008060100000FF00002A
:1008000000000000030300000000000000030300DC
:1008100000000003FE0000000000C0200080601007
:100820000000FF00000000000003030000000000C3
:10083000000000030300000000FF000000000000B3
:100840000000000000000F1F3F7F7F7F7F7F3F1E63
:100850000C001F1F1F3F003F3F3F7F7F7F00307B0B
:100860007F7830202030787F3B0003000F7F0F0F10
:100870000F7F0F00030000000000000000000000D8
:100880000000000000000000000000000000000761
:1008900018200007182000001F30203018081020F2
:1008A0002030181020202030180810204020301F41
:1008B000000000000718200007182000001F30204B
:1008C00020100808102020300808081030203018A8
:1008D000081830201F00000000071820000718200B
:1008E00000001F3020301818302030180830203019
:1008F0001808081830202038080700000000000001
:1009000000000000000000000000000000000000E7
:1009100000000000000000000000000000000000D7
:1009200000000000000000000000000000000000C7
:1009300000000000000000000000000000000000B7
:10094000000000000000000000AF00AE29001E0003
:100950001F00000020002100220000002B001400D6
:100960001A0002530800150017002800E0000400D8
:1009700016000000070009000A00000001511D00D8
:100980001B0000000600190005003000E200E30033
:10099000000000000608904391412C424F00500097
:1009A0005100520000000000000000002D00270050
:1009B0002600000025002400230000002F00130063
:1009C000120028000C0018001C002900340033001D
:1009D0000F0000000E000D000B0000008700380023
:1009E00037000000360010001100320089002E0090
:1009F000000000001908E30028002A002B022B0049
:100A00001D0A1D08000000000000000029021E024F
:100A10002F00000020022102220200002B021402FB
:100A20001A0201000802150217020100E002040286
:100A300016020000070209020A02000001001D025E
:100A40001B0200000602190205023002E202E30264
:100A50000000000001000100010001000100010090
:100A600001000100000000000000000087022702D2
:100A70002602000025022402230200002F02130296
:100A8000120201000C0218021C020100340233029F
:100A90000F0200000E020D020B0200008702380256
:100AA00037020000360210021102320289022E02C1
:100AB0000000000001000100010001000100010030
:100AC00001000100000000000000000001003A00E9
:100AD0003B0000003C003D003E0000000100010022
:100AE0002400010025002600010001000100010092
:100AF0002100000022002300330200000100010059
:100B00001E0000001F0020002D0225020100010030
:100B10000000000001000100010001002B002B0279
:100B2000010001000000000000000000440043003C
:100B300042000000410040003F000000450001006D
:100B40004E00010052004B000100010001004D0069
:100B50004F000000510050004A0000000100010059
:100B6000F6000000F500F400F800F70001000100B5
:100B7000000000000100010001000100010001006F
:100B8000010001000000000000000000C25C010044
:100B9000010000000100010001000000C35CC55C11
:100BA000C75C0100C95C010001000100C45CC65CB7
:100BB000C85C0000CA5CAD5DAC5D0000B15DB25DBB
:100BC000B35D0000B45DAF5DAE5DDE5C005CB05D4A
:100BD000000000000100010001000100010001000F
:100BE000010001000000000000000000D25CD15CA8
:100BF000D05C0000CF5CCE5CCD5C00000100010049
:100C00005D5D0100D55CD45CD35C0100A65DA75D91
:100C1000AA5D0000A85DA95DAB5D000001000100B8
:100C200001000000010001000100DE5C0100010084
:100C300000000000010001000100010001000100AE
:100C400001000100000000000000000009025B003C
:100C5000030100A0FA0904000001030101000921B9
:100C60001101000122400007058103080001090469
:100C700001000203000000092111010001222200ED
:100C80000705820320000107050303200001090472
:100C900002000103000000092111010001227B0074
:100CA000070584032000011201000200000008591A
:100CB0004D00010200010200010E036D0074006B83
:100CC00000360034006500000016036D0065006EFC
:100CD00000740061006B006F005F0079006100002C
:100CE00000040309040011241FBECFEFDAE0DEBFC9
:100CF000CDBF11E0A0E0B1E0EAEBF8E602C005905C
:100D00000D92A63DB107D9F726E0A6EDB1E001C0EE
:100D10001D92A438B207E1F70E9458280C94283499
:100D20000C940000FC01AC014A5F5F4F8FEF91E330
:100D30002191822728E030E087FF09C0880F8927AA
:100D400021503109C9F7E417F50791F70895880F85
:100D5000F7CF8F929F92AF92BF92CF92DF92EF9296
:100D6000FF9290917C01981305C090917406903287
:100D700009F44BC080937C0190E290937406C82ED6
:100D8000D12CF12CE12C10927306C701B6012AE098
:100D900030E040E050E00E949233605D603331F01B
:100DA000C114D104E104F10409F460E26093720615
:100DB00060E28AE0C816D104E104F10490F08AE010
:100DC000882E912CA12CB12CC701B601A50194014C
:100DD0000E949233CA01B901A50194010E94923385
:100DE000605D6093710620E284E6C816D104E104D8
:100DF000F10448F0C701B60124E630E040E050E0DD
:100E00000E949233205D2093700680E796E0FF9069
:100E1000EF90DF90CF90BF90AF909F908F9008950C
:100E2000E8EDF0E080818E7F80831092E2001092E6
:100E3000DA001092E100A0EEB0E08C9181608C931A
:100E400080818F77808319BCA7EDB0E08C918E7F75
:100E50008C9380818F7E8083109257060895209115
:100E6000E4003091E50095E6A9012091EC00822F85
:100E7000817020FF06C08091E80080FF06C080E0FE
:100E800008952091E80022FD1AC08091650688230C
:100E900089F0853089F08091EB0085FD0FC02091AD
:100EA000E4003091E50042175307F9F29150E1F662
:100EB00084E0089582E0089583E0089581E0089534
:100EC000EF92FF920F931F93CF937C018B010E94AF
:100ED0002F07C82F811117C08091E80085FD0BC036
:100EE0008091E8008E778093E8000E942F07882386
:100EF00099F3C82F08C0F70181917F018093F10019
:100F00000150110949F78C2FCF911F910F91FF903C
:100F1000EF9008958091670687FF13C08091E800E5
:100F200082FF06C08091E8008B778093E80004C0C0
:100F3000809165068111F2CF08958091650688231E
:100F4000D9F38091E80080FFF8CF8091E8008E7798
:100F5000ECCF982F9093E900242F762F50E089173B
:100F600031F07091EC002091ED005091F00021FDE6
:100F700007C09F5F973071F78093E90081E0089583
:100F80003091EB003E7F3093EB003091ED003D7FE0
:100F90003093ED003091EB0031603093EB007093B3
:100FA000EC002093ED005093F0002091EE0027FD1F
:100FB000E0CF80E00895CF92DF92EF92FF920F93FF
:100FC0001F93CF93DF93C8EDD0E088818F7E888315
:100FD000E7EDF0E080818160808384E082BF81E082
:100FE0008093570688818E7F888302EE10E0F80197
:100FF00010821092DA0081EEC82ED12CF6011082F8
:1010000088818F77888388818068888388818F7DB5
:10101000888319BC109265061092660610926406C9
:101020001092630690EEE92EF12CF70180818B7F00
:10103000808388818160888342E060E080E00E9454
:10104000A907F60180818E7F8083F801808181600D
:101050008083808188608083F70180818E7F808398
:10106000888180618883DF91CF911F910F91FF90DC
:10107000EF90DF90CF900895FC0180916D069091E4
:101080006E0686179707A0F06115710529F49091F7
:10109000E8009E779093E80090E06115710551F4A7
:1010A000911108C08091E80082FF34C080E008956B
:1010B000BC01F2CF809165068823C1F18530C1F172
:1010C0008091E80083FD30C08091E80082FDEACF86
:1010D0008091E80080FFE1CF8091F3002091F20041
:1010E000382F6115710519F02830310558F091E05D
:1010F0002830310509F090E02091E8002E77209308
:10110000E800CBCF81918093F100615071092F5F8E
:101110003F4FE7CF80916506882341F0853041F04D
:101120008091E80083FFBECF81E0089582E00895BA
:1011300083E00895089580915A06089587E797E718
:10114000909301088093000888E19AE00FB6F89424
:10115000A895809360000FBE90936000FFCF2FB7DB
:10116000F8946091500670915106809152069091CA
:1011700053062FBF08959C01FC0132969FEF80E03B
:101180004191461751F09F3F19F4411101C0982F2A
:101190008F5F8630A9F79F3F09F40895290F311D0D
:1011A00097FD3A95F9016283089520914D0630919B
:1011B0004E062817390771F090934E0680934D061E
:1011C000E0914B06F0914C06309721F00084F185B8
:1011D000E02D099408952091490630914A06281778
:1011E000390771F090934A0680934906E0914B06C7
:1011F000F0914C06309721F00680F781E02D09949C
:101200000895FA01811101C0FB0109948091330412
:10121000982F9E7F71F48091330481708260809357
:10122000330480913604893718F088E780933604B8
:101230000895843080F7F5CFCF93DF93E7E1F3E0B3
:1012400083819481A581B681E90188839983AA83EA
:10125000BB831482138216821582DF91CF91089589
:1012600080E00895E0917002EB30A4F488E0E80299
:10127000F0011124E55FFE4F0680F781E02D3097E5
:1012800049F023E932E04091720263E772E0809115
:10129000710209940895EBE0F1E0ADE5B2E05496F7
:1012A0008C91549780A755968C9183AF0895909117
:1012B000CB0292FF06C0282F28712830F9F4877FCF
:1012C000846093FF06C0282F28712831F1F4877EAF
:1012D00084612091CC0220FF06C0382F387138304D
:1012E000D9F4877F816021FF06C0282F287128311B
:1012F000D1F4877E816194FD877E0895282F247123
:101300002430F9F68B7F8860DCCF282F24712431BC
:1013100001F78B7E8861DDCF382F3171313019F7BD
:101320008E7F8860E0CF282F2171213121F78E7EBA
:101330008861E1CFCF93DF93EC0182389105A9F169
:10134000D8F58133910509F496C048F589329105A5
:1013500009F48AC08A9709F495C0C11522E5D2071D
:1013600008F0B6C0C11531E5D30708F026C1C83E64
:10137000D10508F09CC0C03ED10560F5C83AD10542
:1013800008F087C0C53AD10508F0EFC0C130D105DB
:1013900009F12097F9F0C430D105E0F440C085335D
:1013A000910509F45AC0C997C1F68091CB028370A8
:1013B00089F0C0EED0E00EC0833E910599F170F443
:1013C000803E910501F1823E910539F68091CB0274
:1013D00082FD21C0CE01DF91CF910895863E910517
:1013E00061F1873E910571F1843E910509F0B5CF19
:1013F0008091CC0281FFEECF8091CB02C7EED0E08E
:1014000084FD0DC0E7CF8091CB0280FD07C1909194
:10141000CC0290FFDFCFC3EED0E084FFDBCFD0E083
:10142000C0E0D8CF8091CB0282FDFBC09091CC026E
:1014300090FDBFCF84FFCECFF2CF8091CB0283FD52
:10144000DDCFC8CF8091CB0283FDEEC09091CC025E
:1014500091FFF0CFC4EED0E0BDCF8091CB0285FFED
:10146000B9CFC9E2D0E0B6CF8091CB0285FFB2CF31
:10147000C5E3D0E0AFCF8091CB0286FFABCFCAE20D
:10148000D0E0A8CF8091CB0286FFA4CFC1E3D0E00B
:10149000A1CFCF3BD10518F6C85AD0E0CC0FDD1F45
:1014A000CF57DE4F0990D881C02DD46493CFC1159A
:1014B00040E5D40708F064C0C11580E4D80708F0FF
:1014C0005CC0CE019A9581159F4108F483CFA7CFC8
:1014D000C11536E5D30718F5C11545E5D40708F061
:1014E00084C0C11584E5D80708F07AC09C2F969572
:1014F00096959E0123703327C115D34508F462C029
:10150000C1E0D0E002C0CC0FDD1F2A95E2F730E247
:10151000939FC0011124C82BD92BDA685BCFC1156A
:101520008AE5D80778F4C11599E5D90708F068C0AD
:10153000C11528E5D20708F472CFDC2FCC27C06F85
:10154000D06A48CFCE0190568115904208F067CFFF
:101550008D2F8F710E94570990E0982F8827882738
:101560009F719C012C2BE90149C0C55AD0E0C2589B
:10157000DE4FC881D0E0D0642DCFDF70D06A2ACF93
:10158000CE01E4E096958795EA95E1F783702C2FDC
:1015900026952695237040E2249F90011124382B34
:1015A0008C2F8370C1E0D0E002C0CC0FDD1F8A9584
:1015B000E2F7C22BD32BDC680DCFDC2FCC27C16F19
:1015C000D06A08CFC1E0D0E002C0CC0FDD1F2A9561
:1015D000E2F720E2929FC0011124C82BD92BEBCF58
:1015E000DC2FCC27C46FD06AF5CE8C2F0E94570910
:1015F000C82FD0E0DC2FCC27CC27DF71D062EACE19
:101600008C2F8F700E94570934E0D695C7953A9574
:10161000E1F7CF709C2FEC01D069DCCEC9E3D0E0BC
:10162000D9CEC2EED0E0D6CEC6EED0E0D3CE8091F9
:101630005A02811110925A0208958095909158068D
:10164000982390935806089580914F0290911E021E
:10165000981301C008958F5F8770FACF990F990F83
:10166000990F890F982F977086958695869523E018
:10167000829FF0011124EC50FE4F50E040E080E0EA
:10168000219130E0092E02C0369527950A94E2F7A1
:1016900021703327042E01C0220F0A94EAF7822B0F
:1016A0004F5F5F4F4330510559F70895990F990FD8
:1016B000990F890F982F977041E001C0440F9A95B8
:1016C000EAF786958695869593E0899FF001112427
:1016D000EC50FE4F30E020E070E05191DF011197B7
:1016E000CB01022E02C0969587950A94E2F781708D
:1016F00081958527842385278C932F5F3F4F233047
:10170000310559F70895982F92959F7011F0892F00
:1017100094E0282F2695269511F09E5F822F8695BE
:1017200009F09F5F892F0895CF93C82F80912403DC
:101730008C1751F00E94AF08609325037093260325
:101740008093270390932803C0932403CF91089597
:10175000CF93C82F0E94830B91E0833009F090E073
:10176000892F0E94940B80914503823031F41092AE
:1017700045038C2F8B7F09F0C82F8C2FCF910895B4
:10178000CF92DF92EF92FF920F931F93CF93DF934D
:10179000FC01EB0190912903911101C094E060815B
:1017A000718191509B01092E02C0359527950A94AD
:1017B000E2F7D901092E02C0AA0FBB1F0A94E2F773
:1017C0006A1B7B0B71836083628173818B01092E9D
:1017D00002C0159507950A94E2F7D80102C0AA0F36
:1017E000BB1F9A95E2F76A1B7B0B7383628381E8C8
:1017F0000138BFEF1B072CF0802F003811050CF0CB
:101800008FE78D8321389FEF390774F12038310538
:101810006CF5922F91959C83442319F081958D83CB
:101820002C830E94AF082D81211103C02C8122231B
:10183000F9F060932A0370932B0380932C03909309
:101840002D0380912E039BE0980F973120F4080F11
:1018500000932E031D82DF91CF911F910F91FF9076
:10186000EF90DF90CF90089521E8D3CF2FE7D1CF2D
:10187000C0902A03D0902B03E0902C03F0902D030E
:101880006C197D098E099F096436710581059105E2
:10189000C0F210922E03D5CFFC01DB0122813381EF
:1018A00091E821388FEF38072CF0922F203831053E
:1018B0000CF09FE712969C9312972081318121387A
:1018C0008FEF3807A4F0203831059CF413962C9341
:1018D0001397442339F0919512969C931297219572
:1018E00013962C931182108213821282089521E89C
:1018F000EDCF2FE7EBCF382F20E287FF02C03195E5
:101900002DE24AE0832F642F0E948433905D9093F0
:10191000ED0181110BC02093EC0120E22093EB013B
:1019200020E22093EA018AEE91E00895642F0E945C
:101930008433905D9093EC01832F64E60E9484339E
:10194000882361F3805D8093EB01EBCF9C01860FD0
:10195000971F37FD07C077FD04C097FF02C08FEFC8
:101960009FE7089577FFFDCF97FDFBCF80E090E8DC
:101970000895E82FE295EF70F0E031A1282F2F7045
:1019800081E090E001C0880F2A95EAF7382B31A357
:1019900092A18095892382A30895E82FE295EF70A4
:1019A000F0E031A1282F2F7081E090E001C0880F76
:1019B0002A95EAF7982F9095932391A392A1892BCA
:1019C00082A30895CF92DF92EF92FF920F931F931D
:1019D000CF93DF937C016B018091750601E010E0ED
:1019E0008A3010F40AE010E0C1E0D0E0F8946CE72F
:1019F00076E0C701F60109957894811104C021961B
:101A00000C171D074CF4DF91CF911F910F91FF90A0
:101A1000EF90DF90CF900895CC9F9001CD9F300D37
:101A2000300D112490E080E045E34A95F1F7000085
:101A3000019682179307C1F7D9CF8093540670930C
:101A4000560660935506809165068430F9F48093BC
:101A5000E9008FEF9091E800815095FD06C095ED6B
:101A60009A95F1F700008111F5CF8091E80085FF8C
:101A70000DC050E040E063E070E084E596E00E9435
:101A800060078091E8008E778093E8000895BC019C
:101A900084E00C941D0DBC0183E00C941D0D9C0191
:101AA00084E08093E9009FEF8091E800915085FDEC
:101AB00006C085ED8A95F1F700009111F5CF809170
:101AC000E80085FF0CC050E040E066E070E0C9012E
:101AD0000E9460078091E8008E778093E800089567
:101AE000CF93DF93EC0181E08093E9008FEF909139
:101AF000E800815095FD06C095ED9A95F1F700003C
:101B00008111F5CF8091E80085FF14C050E040E0DE
:101B100068E070E0CE010E9460078091E8008E7757
:101B20008093E80088E0FE01ABE5B6E001900D92FD
:101B30008A95E1F7DF91CF910895609178018091C6
:101B4000330480FF20C08091770143E0849FC0016F
:101B500011248B5A9C4F539A2BB1277F3BB138608D
:101B60005FB7F894FC01649FE00DF11D1124BF01E3
:101B700068177907D1F45FBF8FE594E00197F1F71B
:101B800000C0000008958091790190917A0123E0CE
:101B9000829FF0011124EB5AFC4F8917A0F61182A5
:101BA000108212828F5F3396F8CFFC014191CF01F2
:101BB000E8E03BB9000000C047FF2BB9440F00002C
:101BC00000C000C000C02BB900C0EA9591F7D0CF8B
:101BD000E3E3F4E080818E7F8083E2E5F3E08281BD
:101BE000816082832FEF80E792E021508040904017
:101BF000E1F700C000000C949D0D80915C02811102
:101C000018C082E39091E30097FD10C0EFE3FCE978
:101C10003197F1F700C000008150A1F782E0809376
:101C20005C020E9410071092650603C081E0809359
:101C30005C0281E090915C02913011F080E00895A7
:101C400008950E94FD0D882351F0E0914B06F0911C
:101C50004C06309721F00190F081E02D099480E04E
:101C6000089557985F9A879A8F9825E02A95F1F7FB
:101C7000000089B187988F9A90EA9A95F1F790E0E1
:101C8000880F892F881F990B21E082278170089582
:101C90000E94310E882371F080E08093770182E208
:101CA000809378011092790184E480937A01809383
:101CB0007B01089582E2F1CF80911703F9018083BF
:101CC0000C94480ECF92DF92EF92FF920F931F93E6
:101CD000CF93DF936C017B0164E670E088E70E949C
:101CE0009F30EC0197FD12C010E000E0F601E00F1C
:101CF000F11F849164E670E00E941931EC01892B98
:101D000029F40F5F1F4F0E151F0581F70E949C31AC
:101D1000CE01DF91CF911F910F91FF90EF90DF9057
:101D2000CF9008958091470690914806911103C085
:101D300091E089270895882369F062E070E08AE4E1
:101D400099E00E94620E892B19F080914706089550
:101D50001092470680914706EBCFCF93C09147067C
:101D6000809148068823D1F00E94AF08605A7541DF
:101D70008F4F9F4F609343067093440680934506B0
:101D800090934606C11108C062E070E088E499E0D3
:101D90000E94620E892B29F0C09147068C2FCF91AB
:101DA000089581E080934706F7CFCF93DF93C7E292
:101DB000D3E060E0CE010E94F4332196C11584E0A7
:101DC000D807B9F7DF91CF9108956F927F928F92E4
:101DD0009F92AF92BF92CF92DF92EF92FF920F93BA
:101DE0001F93CF93DF938CE4C82E89E0D82E07EFA2
:101DF00010E0E801C05CD10936011CC0F5018590F6
:101E00009490692DC7010E94F433682DC701019693
:101E10000E94F43382E0A80EB11C82E0E80EF11CAF
:101E2000CE15DF0559F780E1680E711C60960C171E
:101E30001D0731F07E0180E1E81AF1085301DECF81
:101E400000541F4F80ECC80ED11C073F83E01807D9
:101E500081F6DF91CF911F910F91FF90EF90DF906E
:101E6000CF90BF90AF909F908F907F906F9008958C
:101E700086E290E00C94F433CF93C82F6FEF81117A
:101E800063E283E290E00E94F4336FEFC11164E0FB
:101E900084E290E00E94F4336FEFC11169E285E2C1
:101EA00090E0CF910C94F43380E00E943C0F60E00E
:101EB00070E0CB010E94380F0E94E50E0E94D50E03
:101EC00081E00C943C0F0F931F93CF93DF9320E19D
:101ED000629FE001112450E0440F551FC40FD51F2D
:101EE00030EC839FC00DD11D1124CE0187960E9436
:101EF000E033082F10E0102F0027CE0188960E94B3
:101F0000E0339801282BC901DF91CF911F910F91E8
:101F10000895462F843038F47C3028F4683018F463
:101F2000672F0C94630F90E080E00895CF92DF92CA
:101F3000FF920F931F93CF93DF936C0100916F0675
:101F400080915B02082BC7E0D0E010E0FC2EC801B6
:101F50000C2E02C0959587950A94E2F780FD0CC07F
:101F60002197A0F7F12C8F2DDF91CF911F910F9129
:101F7000FF90DF90CF900895B6018C2F0E94890FBB
:101F80000E949A09019761F3EECFCF93DF93EC01A2
:101F90000E94960FBE010E94890FDF91CF910C9491
:101FA0009A09FC01808191810E94C50F92959F70D2
:101FB000963091F058F4925F9F70923058F4803FC1
:101FC00019F030F4883E30F481E008959A5FF4CF40
:101FD000843FD1F380E00895883EB0F3813FD1F78C
:101FE000F3CF86E290E00E94E033682F70E090E04B
:101FF00080E0089583E290E00E94E033833289F428
:1020000084E290E00E94E033843059F485E290E06D
:102010000E94E03391E0893209F090E0892F8170CD
:10202000089580E0FCCF8091580690915902892B49
:102030008093D80190915A02992391F0892B809333
:10204000D80120E08AED91E0FC013191CF013111FE
:102050002F5FF1E0803E9F07B9F721110E94170B17
:1020600048E050E061E572E088ED91E00E94CA33FB
:10207000892BA9F088E0E8EDF1E0A1E5B2E001905C
:102080000D928A95E1F7E0914B06F0914C0630975E
:1020900031F00280F381E02D88ED91E009940895FC
:1020A00090E080E00E94EB0890E080E00E94D5087C
:1020B000109259020C9413100E94A80B80936F0683
:1020C0000C94501080916F06982F9670963019F4EA
:1020D00088600C945C10877FFCCF21E030E001C069
:1020E000220F8A95EAF7209580916F0682230C943F
:1020F0005C10909150028095892380935002282F84
:10210000277091F4282F082E000C330B921713061A
:1021100059F09091CC0292FD07C0859585958595E3
:102120000E946D10109250020895CF93C091CC027E
:10213000C2FB992790F9981799F080FBC2F9C093D8
:10214000CC026091CB0284E090E00E94F4336C2FCB
:1021500082E290E00E94F43382E0CF910C947910F7
:10216000CF91089521E030E001C0220F8A95EAF76F
:1021700080916F06822B0C945C1080935B020C9410
:102180005010882321F00E941D0B0C941310089509
:10219000882339F090915806982B909358060C9408
:1021A00013100895882381F19CEF980F913A78F4E9
:1021B000EAEDF1E020EE31E09191891303C0DF01F7
:1021C00011971C922E173F07B9F70C94131090E249
:1021D000980F983050F4877091E001C0990F8A955C
:1021E000EAF7892F0E941D0BF0CF9BE5980F9330E3
:1021F00020F490E080E00C94EB08885A873120F4BA
:1022000090E080E00C94D5080895CF93C82F8823E0
:1022100009F44EC08CEF8C0F813AF8F4EAEDF1E04E
:1022200080EE91E0DF012D91C21759F08A179B07CC
:10223000D1F76C2F88ED91E00E94BB08CF910C94F0
:1022400013102191C21303C0DF0111971C928E1746
:102250009F07B9F70E941310ECCF80E28C0F8830F3
:1022600068F4C77021E030E001C0220FCA95EAF798
:1022700080915806822B80935806E0CFEBE5EC0F57
:10228000E33040F4F0E0E258FE4F808190E0CF91DF
:102290000C94EB08C85AC73158F4EC2FF0E0EE0F5D
:1022A000FF1FEF57FE4F80819181CF910C94D5088D
:1022B000CF9108951F93CF93DF93182FEB010E94C6
:1022C00005118FE99FE00197F1F700C00000219709
:1022D000C1F7812FDF91CF911F910C94D2101F93E2
:1022E000CF93DF93162F8A3031F481E0DF91CF91C5
:1022F0001F910C9430128D3011F480E0F7CFC09113
:102300004106D091420696E0FE01ABE3B6E00190B3
:102310000D929A95E1F7803EA8F186E0FE011192B8
:102320008A95E9F7C0914106D0914206111136C055
:1023300046E050E0BE018BE396E00E94CA339E0166
:102340002B533440892BA9F52A5F3F4F4091380425
:10235000642F70E0C9010E946433481B463010F4BA
:10236000240F311D211572E0370710F030E020E016
:10237000255C3B4F3093420620934106DF91CF917D
:102380001F910895F6E08F9FB0011124685F7B4F85
:1023900046E050E0CE010E94C133C4CF9E012A5FC7
:1023A0003F4FFE012E173F0719F2808180958193E0
:1023B000F9CFC90145E0969587954A95E1F741E047
:1023C00050E0BA0102C0660F771F8A95E2F7CB0191
:1023D0006091390470913A04862B972BB9016B5F99
:1023E0007F4FE5E076956795EA95E1F702C0440FE7
:1023F000551F6A95E2F7842B952B90933A048093AE
:102400003904A2CF1F93CF93DF93EC01162FFE0167
:102410008491811104C0DF91CF911F910895612FA4
:102420000E946F112196F3CFFF920F931F93CF93CA
:10243000DF93EC01F62EFC0101900020E9F78F01FB
:1024400001501109C017D10730F0DF91CF911F91D2
:102450000F91FF9008956F2D89910E946F11F2CF17
:10246000CF93382FE0914106F0914206EB53F440B0
:1024700020913804622F70E0CF010E946433281B42
:10248000822F332369F066E00E947833C82FC15051
:1024900010F4CF91089560E080E20E946F11F7CFB1
:1024A0009F01280F311D2115324018F080E0F0E027
:1024B000E0E08E0F9F2F911D855C9B4F909342060D
:1024C00080934106E6CFEAEDF1E086E0DF011D9260
:1024D0008A95E9F70C9450101F93CF93DF93CDB7F3
:1024E000DEB7AA970FB6F894DEBF0FBECDBF87E662
:1024F00096E02091F100DC012D93CD01B6E08F36FE
:102500009B07B9F780916806833009F472C0B8F46C
:10251000813009F449C0823009F4B5C08091E800E7
:1025200083FF8DC280916706909168069A3008F00B
:1025300086C2E92FF0E0E65DFB4C0C94B4338A30A0
:1025400009F490C08B3009F471C0893039F780915B
:102550006706813219F780916B0690916C0600979F
:1025600011F00297D9F68091E800877F8093E80008
:102570008091E80082FF38C09091F3008091F200D2
:10258000029731F48091F100813011F0863021F40E
:102590008091F10080935A068091E8008B778093B8
:1025A000E8000E948A07BACF80916706813A09F055
:1025B000B5CF8091E800877F8093E80080916B061B
:1025C00090916C06892B61F468E08BE596E070E0F1
:1025D0000E943C088091E8008B778093E8009ECFB2
:1025E00060E090E080E0F3CF809165068111C0CF7C
:1025F00095CF80916706813A09F090CF80916B0664
:1026000090916C06892B09F089CF8091E800877F33
:102610008093E8008091E80080FFFCCF80917601F4
:102620008093F1008091E8008E77B9CF80916706A2
:10263000813209F073CF80916B0690916C06892BE3
:1026400009F06CCF8091E800877F8093E8000E94BA
:102650008A078091690680937601109258060E943D
:1026600063125CCF80916706813209F057CF809169
:10267000E800877F8093E8000E948A0780916A06BD
:10268000809359064BCF80916706813A09F046CF77
:102690008091E800877F8093E8008091E80080FFC8
:1026A000FCCF80915906BCCF803899F0823809F070
:1026B000C6C180916B068F70873008F0C0C18093CF
:1026C000E9008091EB0085FB882780F91092E900F2
:1026D00006C080916306909164069111826090918A
:1026E000E800977F9093E8008093F1001092F1004A
:1026F0008091E8008E779FC1882309F48DC18230D4
:1027000009F09DC180916906811190C180916B068D
:102710008F702FEF280F263008F091C18093E900C9
:102720002091EB0020FF82C1933031F48091EB00C7
:1027300080628093EB007AC19091EB00906190935E
:10274000EB0021E030E001C0220F8A95EAF72093E8
:10275000EA001092EA008091EB008860EACF8111D4
:102760006EC1109169061F778091E3008078812BFC
:102770008093E3008091E800877F8093E8000E94C7
:102780008A078091E80080FFFCCF8091E300806899
:102790008093E30082E0111183E0809365064FC1CE
:1027A0008058823008F04BC12091690630916A064A
:1027B0002C3DE3E03E07A1F583E08A838AE289832A
:1027C0004FB7F894DE01139620E03EE051E2E32F8C
:1027D000F0E050935700E49120FF03C0E295EF70C2
:1027E0003F5FEF708E2F90E0EA30C0F0C7968D9378
:1027F0009D932F5F243159F74FBF8091E800877F69
:102800008093E8006AE270E0CE0101960E943C08E5
:102810008091E8008B778093E80011C1C096E7CFE4
:1028200080916B0690916C06432F552743305105DC
:1028300009F44AC078F54130510509F47AC08BE5B6
:1028400090E0ECE4FCE04230510509F0F8C0209142
:10285000E800277F2093E80020916D0630916E06F6
:102860008217930708F49C0140E02115310509F017
:1028700065C0411163C08091E80082FDC9CF80919D
:102880006506882329F2853019F28091E80083FFDC
:10289000F2CFBECF4132510509F43CC0423251055E
:1028A00009F0CDC08330910508F0C9C0FC01EE0FDE
:1028B000FF1FE653FE4F0190F081E02D89539E4F9C
:1028C000DC018C9190E01AC0332721303105D1F022
:1028D0002115310561F02230310509F0B0C0E9EB76
:1028E000FCE0E4918E2F90E0E9EBFCE007C0E1EE24
:1028F000FCE0E4918E2F90E0E1EEFCE0009709F41B
:102900009EC0A5CFE9ECFCE0E4918E2F90E0E9ECCD
:10291000FCE0F4CF8330910508F091C0880F991F37
:10292000FC01E053FE4F0190F081E02D89E090E042
:102930008ECF82E190E0E7EAFCE089CF80916506E6
:10294000882309F465CF853009F462CF8091E800CF
:1029500083FD5ECF8091E80082FD8DCF8091E800FD
:1029600080FF83CF9091F3008091F2002115310513
:1029700019F08830910550F041E0089709F040E0E7
:102980008091E8008E778093E8006FCF4491409368
:10299000F1003196215031090196E8CF803809F0D5
:1029A0004EC08091E800877F8093E80080916606A2
:1029B0008093F1009DCE811142C0109169061230C2
:1029C000F0F58091E800877F8093E8001093660619
:1029D0000E948A07112311F084E005C08091E30072
:1029E00087FDFACF81E08093650642E061EC81E0EB
:1029F0000E94A90742E261EC84E00E94A90742E23A
:102A000061EC82E00E94A90742E260EC83E00E9450
:102A1000A9078091650613C080916906813079F419
:102A200081E0933009F080E0809364061092E90021
:102A30008091E800877F8093E8000E948A07809158
:102A4000E80083FF0AC08091E800877F8093E80058
:102A50008091EB0080628093EB00AA960FB6F89409
:102A6000DEBF0FBECDBFDF91CF911F910895CF92F2
:102A7000DF92EF92FF926B017C010E940609B70181
:102A8000A60188E090E0FF90EF90DF90CF900C944B
:102A900006348F929F92AF92BF92CF92DF92EF92C5
:102AA000FF920F931F93CF93DF93182FC62FD42F2E
:102AB000822E0091330400FFD8C0E02FE695F0E0AD
:102AC000EB53FE4F808180935203802F8E7F8230A4
:102AD000E9F4E42F493708F0E8E7F0E0E85FFC4F5D
:102AE000C11144C02491F22FE22F00FF0FC080914A
:102AF000790190917A0133E0839FD0011124AB5A80
:102B0000BC4F891708F4A7C00E949D0D8091340422
:102B1000811308C0809135048C1304C08091360461
:102B20008D1729F080915403826080935403109391
:102B30003404C0933504D0933604882009F495C03A
:102B4000609133047091340480913504909136047F
:102B5000DF91CF911F910F91FF90EF90DF90CF9079
:102B6000BF90AF909F908F900C943715EC2EF12C66
:102B7000E4919E2ECE2ED12C26E0129FC00111246E
:102B80002FEF30E0B9010E946433812F90E0880F6D
:102B9000991FF5E5F69FA001F79F500D1124841BA6
:102BA000950BB82EBB0CB80EA9014E195F094C9DB0
:102BB000C0014D9D900D5C9D900D1124F92FCB9D72
:102BC000A0011124452F5527D901A41BB50BAC9D9D
:102BD000A001AD9D500DBC9D500D1124D901AB1924
:102BE000B1095D01AE9CD001AF9CB00DBE9CB00D93
:102BF0001124AB2FBB272A1B3B0B2C9DD0012D9DF5
:102C0000B00D3C9DB00D11242B2F62307105A1F049
:102C100050F46115710509F468CF6130710581F0D8
:102C2000292FF52F62CF6430710569F080F066308E
:102C3000710509F45ACFF4CF2E2FE92FFB2F55CF72
:102C40002E2FE52F52CF292FFE2FEB2F4ECFE92F1E
:102C5000F92D252F4ACF1196EC9311972C931296AC
:102C6000FC9312978F5F13964CCFDF91CF911F91FA
:102C70000F91FF90EF90DF90CF90BF90AF909F901B
:102C80008F900895E3E3F4E043812CE0421B08F4C5
:102C900040E021E0628181810C944915E3E3F4E096
:102CA00043812CE0420F08F44FEF21E062818181E3
:102CB0000C944915E3E3F4E0628121E1621B08F41E
:102CC00060E021E0438181810C944915E3E3F4E065
:102CD000628121E1620F08F46FEF21E0438181817D
:102CE0000C944915E3E3F4E0818121E043816281A2
:102CF00081510C944915E3E3F4E0818121E04381A3
:102D000062818F5E0C94491580913704882319F0F5
:102D10008150809337046091330470913404809122
:102D20003504909136040C94371580913704833024
:102D300018F48F5F809337046091330470913404EA
:102D400080913504909136040C94371580913304AA
:102D500080FF1EC081708260809333048091540391
:102D6000816080935403662351F060913304709125
:102D7000340480913504909136040E94371520E088
:102D80004091360460913504809134040C944915C7
:102D90000895809133048695815009F481E061E0C3
:102DA0000C94A61661E081E00C94A616E3E3F4E02F
:102DB00083E0808311828FEF828388E7838314828C
:102DC000A2E5B3E012968C911297836012968C93D1
:102DD00060817181828193810C94371569EE7EEF59
:102DE00090E080E00E94123460E082E090E00E9477
:102DF000F43360E083E090E00E94F43310925B02D1
:102E000060E084E090E00E94F43360E082E290E0D1
:102E10000E94F43360E085E090E00E94F43360E0CB
:102E200086E090E00E94F4336FEF87E090E00E942C
:102E3000F43340E050E0BA0188E090E00E940634AC
:102E400060E08DE090E00E94F43340E050E0BA0191
:102E500088E190E00E94063460E087E190E00E9403
:102E6000F43340E050E0BA018CE190E00E94063477
:102E700070E060E080E290E00E94123440E050E0B8
:102E8000BA0188E190E00E94063480E00E943C0F85
:102E90000E94540F40E050E0BA018FE090E00E94A1
:102EA0000634EBE3F3E015821682178281E080831B
:102EB00082E390E0928381838AE090E0948383832D
:102EC000408151816281738183E190E00C940634EA
:102ED000DF92EF92FF920F931F93CF93DF937901CD
:102EE000C82F880FDD0B41155105A9F0FE0193E0B5
:102EF000EE0FFF1F9A95E1F7E55FFE4F818192810A
:102F0000835A9D4F208130E04217530708F49A01FD
:102F1000A9010E94D733CE010E94EE32D82E882319
:102F2000D1F001151105B9F083E0CC0FDD1F8A95B2
:102F3000E1F7FE01E55FFE4F438150E004171507FE
:102F400008F4A801C55FDE4F6C817D81635A7D4F17
:102F5000C7010E94D7338D2DDF91CF911F910F9123
:102F6000FF90EF90DF900895AF92BF92CF92DF92E3
:102F7000EF92FF920F931F93CF93DF9300D000D077
:102F8000CDB7DEB78C83E62E5A01F22E6801809110
:102F900075068A3080F080E00F900F900F900F90B0
:102FA000DF91CF911F910F91FF90EF90DF90CF9025
:102FB000BF90AF9008958C8188306CF389836A83C9
:102FC0002B83609333012093460110E000E030E052
:102FD00020E043E050E0BE016F5F7F4F84E00E943D
:102FE00068178823C1F24E2D50E030E020E0B50193
:102FF00085E00E946817882371F230E020E041E00C
:1030000050E0BE016C5F7F4F86E00E946817882306
:1030100011F20F2D10E0960150E040E070E060E00A
:1030200087E00E946817B8CF0F931F93CF93DF9369
:10303000CDB7DEB728970FB6F894DEBF0FBECDBF71
:1030400085E0E3E3F4E0DE01119601900D928A95AC
:10305000E1F78091520390915303A09154038E8322
:103060009F83A88728854091C1025091C202609138
:10307000C3027091C4023FB7F894809150069091BA
:103080005106A0915206B09153063FBF841B950B89
:10309000A60BB70B84369105A105B10510F42223C8
:1030A000C1F010E000E030E020E048E050E0BE0178
:1030B0006F5F7F4F83E00E946817882369F00E944A
:1030C000AF086093C1027093C2028093C3029093D1
:1030D000C4021092540381E028960FB6F894DEBF24
:1030E0000FBECDBFDF91CF911F910F9108950F9328
:1030F0001F93CF93DF9300D000D0CDB7DEB74091C0
:10310000BD025091BE026091BF027091C0022FB704
:10311000F8948091500690915106A0915206B0917A
:1031200053062FBF841B950BA60BB70B11E08436FB
:103130009105A105B10538F10E94FD0D882369F1C3
:103140000E94AF086E5F7F4F8F4F9F4F69837A83D6
:103150008B839C8310E000E030E020E044E050E00E
:10316000BE016F5F7F4F82E00E946817182F88238F
:1031700051F00E94AF086093BD027093BE0280932D
:10318000BF029093C002812F0F900F900F900F906D
:10319000DF91CF911F910F9108950E94AF08009188
:1031A000C5021091C6022091C7023091C802600F7B
:1031B000711F821F931FC6CFEF92FF920F931F9331
:1031C000CF93DF9300D000D000D00F92CDB7DEB701
:1031D0007B0101E010E09E01295F3F4F50E040E09D
:1031E00070E060E080E00E946817182F882309F4DF
:1031F0004FC04091B9025091BA026091BB027091E8
:10320000BC022FB7F8948091500690915106A0917E
:103210005206B09153062FBF841B950BA60BB70B1C
:1032200084369105A105B10538F48EE592E00E943F
:1032300092069F81891761F106E010E09E012F5FE1
:103240003F4F50E040E070E060E081E00E9468178E
:10325000082F8EE592E00E94920611E09F8198135C
:1032600010E0102301F10E94AF086093B90270933F
:10327000BA028093BB029093BC0286E0FE013196B5
:10328000A3EBB2E001900D928A95E1F711E00BC03B
:1032900086E0EEE5F2E0DE01119601900D928A954E
:1032A000E1F71111EACF86E0E3EBF2E0D7010190FC
:1032B0000D928A95E1F7812F27960FB6F894DEBF1D
:1032C0000FBECDBFDF91CF911F910F91FF90EF9077
:1032D00008950E94310E80930A0180910A0188238B
:1032E00059F01092770185E2809378010E94FD0DDC
:1032F000882331F00C94013285E280937701F4CF7A
:10330000089590E080E00E94EE33893E9E4F11F4D4
:103310000C94FA0F80E0089528E030E043E060E08C
:1033200086E30C94C72FCF92DF92EF92FF920F9318
:103330001F93CF93DF93CDB7DEB72C970FB6F894DA
:10334000DEBF0FBECDBF4F83588769877A878B87D3
:103350009C8780911703882399F00E948C1980E53F
:103360000E943F308AEB8A95F1F700C00E945730E7
:10337000887899278038910509F492C00E946F30AF
:103380000E94FD0D882309F46BC00E94AF080091D4
:10339000EF011091F0012091F1013091F2016B01E8
:1033A0007C01C01AD10AE20AF30A970186010830AB
:1033B00011052105310508F453C06093EF017093A6
:1033C000F0018093F1019093F20100912503109197
:1033D00026032091270330912803601B710B820B79
:1033E000930B623371058105910580F410921B03E4
:1033F00010921A0310921D0310921C0310921F03C7
:1034000010921E03109221031092200310912403A6
:103410000E94310E482FBE01695F7F4F8AE193E021
:10342000112309F46AC00E94C00B0091240310917B
:1034300017030E94310E41E04827BE01695F7F4FAC
:103440008EE193E0011709F45BC00E94C00B86E097
:10345000FE013796A3E3B3E001900D928A95E1F760
:1034600086E0FE013796DE01119601900D928A9555
:10347000E1F729813A814B815C816D817E8180E019
:1034800090E02C960FB6F894DEBF0FBECDBFDF9153
:10349000CF911F910F91FF90EF90DF90CF90089503
:1034A0000E9457300E9457307C010E94573020E024
:1034B000E22AF82A0E9457308C010E94573020E0FF
:1034C000022B182B0E946F30F894B70180911A03D9
:1034D00090911B030E94A60C90931B0380931A03E8
:1034E000B80180911C0390911D030E94A60C90933B
:1034F0001D0380931C03789443CF0E944C0C95CFFE
:103500000E944C0CA4CFCF93DF93D82FC62F0E94DC
:103510008C198D2F80680E943F308C2F0E943F3085
:103520000E946F308FEC92E00197F1F700C000002D
:10353000DF91CF910895682F893708F068E760938D
:10354000220391E09093230390911703992359F05C
:103550006150811101C064E08FE00E94831A60E035
:1035600080E50C94831A0895FB0180810C949B1ACA
:1035700090912203911101C095E0282F880F330B01
:10358000A901490F511DCA011816190614F081E04E
:1035900090E00C949B1ACF93C82F0E948C198C2F0B
:1035A0000E943F308FE792E00197F1F700C00000E2
:1035B0000E945730C82F0E946F309AE69A95F1F713
:1035C00000C08C2FCF910895CF93DF930E94BF2F1F
:1035D000269A0E948C196AE58AE30E94831A2FEFCB
:1035E00080E792E0215080409040E1F700C0000069
:1035F00082E00E94CB1A83E00E94CB1A84E00E94F2
:10360000CB1A85E00E94CB1A86E00E94CB1A60E0BC
:1036100080E10E94831A80E00E94CB1AD82F81E0BB
:103620000E94CB1AC82F0E946F30D23419F481E067
:10363000C13009F080E0817080931703882351F036
:1036400064E08FE00E94831A60E080E5DF91CF9113
:103650000C94831ADF91CF9108951F920F920FB6A9
:103660000F9211242F933F934F935F936F937F9308
:103670008F939F93AF93BF93CF93DF93EF93FF937A
:10368000D091E900DF708091EC00C82FC17080FDFF
:10369000C0E81092E9008091F000877F8093F000ED
:1036A00078940E946C121092E9008091F00088607A
:1036B0008093F000CD2BCF70C093E900FF91EF9184
:1036C000DF91CF91BF91AF919F918F917F916F913A
:1036D0005F914F913F912F910F900FBE0F901F90D0
:1036E00018951F920F920FB60F9211242F933F93AC
:1036F0004F935F936F937F938F939F93AF93BF93FA
:10370000EF93FF938091E10082FF09C08091E20076
:1037100082FF05C08091E1008B7F8093E100809162
:10372000DA0080FF24C08091D80080FF20C0809103
:10373000DA008E7F8093DA008091D90080FF9DC0EF
:1037400080E189BD82E189BD09B400FEFDCF81E041
:103750008093650680915706811109C00E94100769
:103760000E94DB078091E20084608093E2008091F8
:10377000E10080FF17C08091E20080FF13C08091BC
:10378000E2008E7F8093E2008091E200806180936E
:10379000E2008091D80080628093D80019BC85E057
:1037A000809365068091E10084FF2BC08091E20048
:1037B00084FF27C080E189BD82E189BD89B5982F4A
:1037C000917080FFFBCF8091D8008F7D8093D800CF
:1037D0008091E1008F7E8093E1008091E2008F7EF6
:1037E0008093E2008091E20081608093E20080910A
:1037F0006606882309F447C084E0809365068091BB
:1038000065068091E10083FF27C08091E20083FF7D
:1038100023C08091E100877F8093E10082E0809364
:103820006506109266068091E1008E7F8093E1002C
:103830008091E2008E7F8093E2008091E2008061BF
:103840008093E20042E060E080E00E94A90780915E
:10385000F00088608093F000FF91EF91BF91AF91ED
:103860009F918F917F916F915F914F913F912F9198
:103870000F900FBE0F901F90189519BC10926506FF
:103880001092570674CF8091E30087FD93E09093E8
:103890006506B5CF78941F921FB61F9211248F939F
:1038A0009F93AF93BF938091500690915106A09142
:1038B0005206B09153060196A11DB11D809350068A
:1038C00090935106A0935206B0935306BF91AF91C7
:1038D0009F918F911F901FBE1F9018959C014FB70D
:1038E000F8948091500690915106A0915206B091A3
:1038F00053064FBF821B930B08952FB7F894809106
:10390000500690915106A0915206B09153062FBFD8
:10391000089582E00E94B2100E947D1C909344039F
:103920008093430382E08093450308950F931F9390
:10393000CF93DF93CDB7DEB76E970FB6F894DEBFA7
:103940000FBECDBF40914C0350914D0360914E038B
:1039500070914F0380915003909151030E949319ED
:1039600020934C0330934D0340934E0350934F03E9
:10397000609350037093510386E0ECE4F3E0DE01C2
:10398000179601900D928A95E1F786E0FE01379631
:10399000DE01539601900D928A95E1F786E0FE01D3
:1039A0007396DE01119601900D928A95E1F786E0FB
:1039B000FE013196ACE4B3E001900D928A95E1F7F7
:1039C00086E0ECE4F3E0DE01179601900D928A9513
:1039D000E1F786E0FE013796DE01119601900D9227
:1039E0008A95E1F719850A85912F902B80914503DF
:1039F000992309F4BCC0813009F475C0823009F004
:103A0000A8C00E947D1C909344038093430386E0EA
:103A1000FE013196DE011D9601900D928A95E1F727
:103A200086E0FE013D96DE01599601900D928A9541
:103A3000E1F786E0FE017996DE01119601900D9284
:103A40008A95E1F786E0FE013196ACE4B3E001909F
:103A50000D928A95E1F786E0ECE4F3E0DE0117963B
:103A600001900D928A95E1F786E0E6E4F3E0DE014D
:103A7000119601900D928A95E1F746E050E0BE0163
:103A80006F5F7F4FCE0107960E94CA33892B79F072
:103A9000E0914B06F0914C06309749F082E080931C
:103AA0004C030480F581E02D8CE493E0099510929D
:103AB0004E0310924F03109250031092510386E070
:103AC000ECE4F3E0A6E4B3E001900D928A95E1F70F
:103AD0006E960FB6F894DEBF0FBECDBFDF91CF91CB
:103AE0001F910F91089580913B03882309F48FCF94
:103AF00080916F060E94830B811189CF812F110F56
:103B0000990B97FF03C0919581959109002E000CA8
:103B1000110B17FF03C0119501951109800F911F1B
:103B20002091390330913A03820F931F90933A0307
:103B30008093390320913C0330913D038217930712
:103B40000CF465CF10923A03109239030E94891C3D
:103B50005ECF0E947D1C909344038093430381E0D9
:103B60008093450310923A031092390350CF81306D
:103B7000E1F0823019F580914303909144030E9453
:103B80006E1C40913E0350913F0364E6649F900198
:103B9000659F300D11242817390708F038CF10928F
:103BA000450382E00E946D1032CF809143039091D3
:103BB00044030E946E1CC39708F429CF10923A0365
:103BC000109239031092450322CF3F924F925F9299
:103BD0006F927F928F929F92AF92BF92CF92DF921D
:103BE000EF92FF920F931F93CF93DF93CDB7DEB782
:103BF00062970FB6F894DEBF0FBECDBF8C01DC011B
:103C000013968D919C911497892B39F08C91119674
:103C10009C9189238F3F09F0F1C562960FB6F89405
:103C2000DEBF0FBECDBFDF91CF911F910F91FF90EF
:103C3000EF90DF90CF90BF90AF909F908F907F904C
:103C40006F905F904F903F9008950E94960FF82ECE
:103C5000682F89819A810E94560B69817A818F2D04
:103C60000E94890F7C01F8018281882309F4B8C57C
:103C7000C70182519F45409708F059C58FEF93E0E7
:103C80000E94E033FEEEEF0E57E2852E53E0952EB4
:103C90008823A9F180915002877009F4BECFF80102
:103CA0008281882309F4B9CF8091CC0282FDB5CFFF
:103CB00082E062960FB6F894DEBF0FBECDBFDF91F3
:103CC000CF911F910F91FF90EF90DF90CF90BF9019
:103CD000AF909F908F907F906F905F904F903F90AC
:103CE0000C947910811424E09206A1F2C4010E9480
:103CF000E033811101C0EA943FEF831A930AE11087
:103D0000F1CF1C821B82442443944AE0342E740178
:103D10008FEFE81AF80AC4010E94E03389831A82FF
:103D2000882309F4B7CF9FEF980F933030F58A833B
:103D3000498292E0890E911CC7010E94E0338B8377
:103D4000882309F4A7CFDE0111967D01F7012081B8
:103D50002223E9F2213009F050C091818281913013
:103D600071F4F2E0EF0EF11C65E070E0893311F4BC
:103D700060E570E00E945A1109C04701E4CF92301B
:103D800049F422E0E20EF11C0E940511FFEFEF1A48
:103D9000FF0ADCCF933031F432E0E30EF11C0E94D5
:103DA000D210F4CF943021F08FEFE81AF80AEECF5A
:103DB00092E0E90EF11C30E020E0B7016F5F7F4F29
:103DC000D70111964C918053990B8A30910550F090
:103DD00021503109D8F2EFE9FFE03197F1F700C047
:103DE0000000F6CF329EF001339EF00D11249C01AD
:103DF0002E0F3F1F842F7B01E0CFE22FF0E0E7542E
:103E0000FE4F5490822F86958695869590E0FC0112
:103E1000E755FE4F64902770712C022E02C07594F6
:103E200067940A94E2F731E063227724FC01E756B5
:103E3000FE4FA490B12C022E02C0B594A7940A9410
:103E4000E2F7A1E0AA22BB24FC01E757FE4FC49091
:103E5000D12C02C0D594C7942A95E2F7B1E0CB22C9
:103E6000DD246114710419F081EE0E940511A11482
:103E7000B10419F086EE0E940511E9E365E070E0F7
:103E80005E1202C060E570E0852D0E945A11AB28D9
:103E900019F086EE0E94D210672819F081EE0E9478
:103EA000D210CD2809F472CF65E070E08CE262CFC9
:103EB00081E00E94B2100E946210ECCE81E00E946C
:103EC0006D10F9CF82E0F5CF33EBE3163DE5F30655
:103ED00009F446C094EBE9169DE5F90609F055C4CE
:103EE000882309F4D7CE80913E0390913F03019738
:103EF000181619060CF440C081E090E03DC08823FC
:103F000009F4C8CE80913B0391E0892780933B035D
:103F100040913B0350913C0360913D0370913E03FF
:103F200083E190E00E940634B5CE882309F4B2CE36
:103F300080913C0390913D03059690933D038093BF
:103F40003C03E6CF882309F4A5CE80913C039091F1
:103F50003D0305978530910584F785E090E0EDCF2E
:103F6000882309F497CE80913E0390913F030196F8
:103F7000883EA3E09A072CF490933F0380933E037E
:103F8000C7CF87EE93E0F8CFE45FF10921E030E09E
:103F900001C0220FEA95EAF796E0ECE4F3E0DE01D7
:103FA000179601900D929A95E1F796E0FE013796EB
:103FB000DE011D9601900D929A95E1F79885882370
:103FC00089F1292B2E8786E0FE013D96DE011196B0
:103FD00001900D928A95E1F786E0FE013196ACE4FE
:103FE000B3E001900D928A95E1F7F8018281F6E144
:103FF000EF16FCE5FF0609F067C0882309F44FC0FF
:10400000809158068A7A91E009F490E09093F30148
:1040100069E2811165E388ED91E00E94BB080E948E
:10402000131038CE20952923CDCF80E00E949B1A13
:10403000109229032FCE409122035091290350FB67
:1040400047F95695537060E070E08FE090E06ACFDA
:1040500081E00E94B81A1ECE8FEFFBCF8AE0F9CF25
:1040600086EFF7CF9091240381E089270E94940B7B
:1040700011CE80912903811101C084E08F5F181651
:104080000CF081E0883008F087E08093290302CEAD
:1040900080912903811101C084E08150F0CF80918B
:1040A000F30181110FC089E2EAEDF1E020EE31E089
:1040B0009191891303C0DF0111971C922E173F07BE
:1040C000B9F7ADCF85E3F0CF8111F3C080915806E9
:1040D000827229ECE2162CE5F20609F4E2C008F03F
:1040E00079C095ECE9169CE5F90609F4D5C008F00D
:1040F00058C0B3ECEB16BCE5FB0609F4C1C008F0F0
:10410000C6C0F2ECEF16FCE5FF0609F48FC0D8013B
:1041100012968C911297ED90FC90882309F404C1BB
:10412000C7010E94960FD82E682FC7010E94560B18
:10413000B7018D2D0E94890F0E949A097C01882E5B
:10414000F801D280B580B2943FE0B3228091500252
:104150008770C1F0AD2CDD20B1F08F2D807F8034D1
:1041600021F080E28E0D883068F08091CC0282FDD3
:1041700009C082E00E947910809150028770AA24C1
:10418000A3948111A12C9F2C92942FE09222FBE00A
:10419000F91508F43CC1E92DF0E0EC5CFB4C0C9403
:1041A000B4334AE556E166E676E127ECE2162CE503
:1041B000F20609F469C04BE756E162E776E138ECB4
:1041C000E3163CE5F30608F45FC046E656E16AE50F
:1041D00076E15AC09DECE9169CE5F90609F466C043
:1041E000C8F444E856E165E976E1BBECEB16BCE5C2
:1041F000FB0609F449C04EE456E162E476E1ECECDA
:10420000EE16ECE5FE0608F43FC045E956E164E829
:1042100076E13AC0F6EDEF16FCE5FF0608F43ACD7C
:104220002DE5E216F20609F435CD71CF8091330405
:1042300080FF1EC08E7F80933304609133047091A1
:10424000340480913504909136040E943715809192
:1042500054038160809354033FEF80E792E0315034
:1042600080409040E1F700C000000E949D0D12CDFB
:1042700081608093330461E086950E94A6160ACD82
:1042800049EC56E162ED76E10E94010903CD42ED71
:1042900056E169EC76E1F8CF42E756E16BE776E16B
:1042A000F3CF42E456E16EE476E1EECF61E081E0E7
:1042B000E4CFAAE5EA16ADE5FA0691F168F4E11457
:1042C000ECE5FE06F1F0FEEDEF16FCE5FF0609F069
:1042D0001ECF0E94EE16DECC2BE5E2162DE5F2068F
:1042E00009F13CE5E3163DE5F30609F010CF8091B6
:1042F000CC0282FB882780F991E089270E949510E3
:1043000006CF109258060E9463128FEF94E3ACE040
:1043100081509040A040E1F700C000000E949E083C
:1043200081E0ECCF80E0EACFC7010E942E0BD82EAF
:10433000FFCE2F2D2F70C22E8F2D807F19F0C294AB
:1043400090EFC922DD20B9F0CC2069F080E28E0D1B
:10435000883010F0811009C080915806C82AC09298
:1043600058060E9413108E2D50C080915902C82A01
:10437000C0925902F6CF8E2D0E94D210CC2009F4A3
:1043800046C080E28E0D883010F0811004C08C2D64
:104390000E941D0B06C0C09480915902C822C09291
:1043A00059020E94131033C03F2D3F70C32E8F2D32
:1043B000807F803219F0C29480EFC8228820A1F05B
:1043C00081E0881609F482C0DD2009F48CC0BB208E
:1043D00009F482C0D80115968C91159780FFC3CF40
:1043E0008F7015968C9378C02091CC0222FF4BC021
:1043F000DD2009F442C0CC2039F080915806C82A4B
:10440000C09258060E94131080E00E940511A92D49
:10441000A850BB0B149710F40E94210EAA2009F497
:10442000FCCB8091500280FDF8CBF801128285957B
:10443000859585950E94B210C8010E94E51D809166
:10444000500285958595859562960FB6F894DEBFE6
:104450000FBECDBFDF91CF911F910F91FF90EF90D5
:10446000DF90CF90BF90AF909F908F907F906F9094
:104470005F904F903F900C946D1080E00E94D2109E
:10448000CC2029F284CFDD20A1F090915A028C2D0E
:10449000892BB11003C00E94C810B9CFA1E0BA1295
:1044A000FACF22FDB4CF981709F4B1CF80935A0206
:1044B000AECFB11006C00E94170B8C2D0E94C11008
:1044C000A6CFB1E0BB1609F4A2CFF5CFDD2031F0C5
:1044D000E5E0EB1508F49BCF8C2DDDCFF4E0FB1568
:1044E00008F495CFEACFBB2041F3B9E38B1217C193
:1044F000EFEFF7EE23E0E150F0402040E1F700C09D
:1045000000008E2D0E94D21082CF8F2D8695869529
:10451000837061F0813009F07ACFC7019370D110B8
:1045200002C090E080E00E94D50871CFC70193706F
:10453000D11002C090E080E00E94EB0868CF8F2D80
:10454000837091F5D11063CF4E2D429546954770FB
:10455000440F440F8E2D8F70042E01C0880F0A94D3
:10456000EAF72E2D2071E4FE07C02FE030E001C0F5
:10457000220F4A95EAF720953F2D369536953370F0
:10458000323069F050F440915B02313029F0822BD7
:1045900084230E94BD103BCF842B822BFACF282B83
:1045A00080915B028227F5CF8695DD2011F08F2D5B
:1045B0008170882309F42BCF4E2D42954695477084
:1045C000440F440F8E2D8F70042E01C0880F0A9463
:1045D000EAF72E2D2071E4FE07C02FE030E001C085
:1045E000220F4A95EAF720953F2D36953695337080
:1045F000323069F050F440916F06313029F0822B4F
:1046000084230E945C1003CF842B822BFACF282BAB
:1046100080916F068227F5CF9F2D9F70F92EDD20A8
:1046200029F0892F0E94B2108E2D35CF8E2D0E9439
:10463000C1108F2D0E946D10EACE8E2DA2EF8A162A
:10464000B1F1A81570F0B0EF8B16D1F0E1EF8E1636
:1046500091F0DD2009F45EC0B11085CE8F2D8F71F1
:104660002AC0F3EF8F1651F124EF8212F2CF80911E
:10467000CC0282FF2FC08F2D8F71DD20D9F21BC09D
:10468000DD2081F034E03B1508F4C1CE2F2D2F71D1
:1046900081E090E001C0880F2A95EAF790916F06BB
:1046A0008927AFCF85E08B1508F4B1CEEFCF8F2DE2
:1046B0008F71D110BFCF0E94B210A9CE80E0DD2053
:1046C00009F49FCF9F2D9F7181E001C0880F9A95BB
:1046D000EAF797CFDD2099F09F2D9F71F92E892F52
:1046E0000E94B2108091CC0282FD07C0A8E0FA9E21
:1046F000C00111248360809350028F2DDCCF81E0B4
:104700000E947910B1E0BB1508F081CE82E00E94D2
:1047100079107DCEBB2041F0893309F4E9CE8FE1D9
:104720009EE40197F1F7EBCE8F2D8F7183CFF0E1EF
:10473000EF16FFE5FF0609F4BBCB21E1E2162FE5FA
:10474000F20609F4BFCBF0923003E0922F03D801B8
:104750008D919C911197909332038093310312961F
:104760008C91B2EBEB16BDE5FB0609F4EBCB08F040
:10477000ABCBF0EBEF16FDE5FF0609F4C0CB21EB68
:10478000E2162DE5F20609F4D0CB882331F08091B2
:104790004503823011F40E94891CC7019A95F701E4
:1047A00081159F4108F4FF27D80112968C91E43FB0
:1047B000F10548F0E93FF10508F4E6CBED3ABDE537
:1047C000FB0709F453CC882309F40FCCE65AFD45C6
:1047D000EA30F10508F009CCE05CFB4C0C94B433F2
:1047E00030E1E3163FE5F30609F468CB81E1E81612
:1047F0008FE5F80609F0A7CF82E061CB85E0F801EC
:10480000DE01119601900D928A95E1F7D80112967A
:104810002C9189819A81211118CA0E942E0BF82EA1
:104820001CCA1F93CF93DF9380911D02807FA9F450
:1048300080911A02882389F080914F02D0911E0244
:104840006091180270911902A0911B02B0911C0294
:10485000C62FC72316E0D81304C0DF91CF911F9154
:10486000089590E0109711F0CF3F19F401968770EA
:10487000F2CF189F9001199F300D1124F901E15ECC
:10488000FD4F41814713F2CF40814613EFCF428164
:104890004111ECCF438154814A1B5B0B483C5105CD
:1048A00028F780911D028F70806180931D02F901AD
:1048B000EC5DFD4F80818F708061808388E192E0A4
:1048C0000E94E51DDF91CF911F910C94240BAF92B4
:1048D000BF92CF92DF92EF92FF920F931F93CF93ED
:1048E000DF93CDB7DEB761970FB6F894DEBF0FBE8A
:1048F000CDBF8C0185E0F801DE011D9601900D927F
:104900008A95E1F7F801E28088E1A82E82E0B82ECE
:1049100060911B0270911C026115710509F432C18E
:104920009091180240911902892F84238F3F09F436
:1049300029C120813181C380D480F0901A02F60110
:10494000E61BF70BFF2009F4E8C080911D02582FE9
:10495000507FE83CF10508F0ABC0511177C0FE2C48
:10496000431321C092131FC0E1101DC08F708061DE
:1049700080931D02C5010E94E51D80911D02F80172
:1049800085838F2D61960FB6F894DEBF0FBECDBF25
:10499000DF91CF911F910F91FF90EF90DF90CF901B
:1049A000BF90AF900895CD2829F0822F83238F3FA9
:1049B00009F003C180E0F82FF170DF2E80FF3CC0CA
:1049C00080914F0240911E0256E0841315C02D873E
:1049D0003E878D859E850E94C50F292F22952F70B9
:1049E0002230F0F0243018F59F70F1F0F801958135
:1049F000907FD1F4D12C1EC090E0589FF001599FB8
:104A0000F00D1124E15EFD4F6181361306C0608117
:104A1000261303C06281E6120FC001968770D5CFBE
:104A20009F7011F0882331F3805E883018F3C8013D
:104A30000E94E51DFD2CA5CFEE2009F4A2CF8091A8
:104A40001D02816080931D02F12C9BCF431306C091
:104A5000921304C0F801EE2009F479C0C8010E9445
:104A6000D10F882309F1EE20F9F080911D028032E8
:104A700070F0209118023091190238872F8319861F
:104A8000DB86CA868C87CE0107960E94E51D86E0EC
:104A9000F801A8E1B2E001900D928A95E1F70E9439
:104AA0001124FF24F3946DCFC8010E94E51DF9CFB6
:104AB00051110AC088E192E00E94E51D86E0F501EF
:104AC00011928A95E9F7C0CF43130FC092130DC01E
:104AD000E1100BC0F8018583C8010E94E51D86E046
:104AE000F50111928A95E9F74CCFC8010E94D10FC8
:104AF0008823D1F2EE20C1F280911D02803238F27B
:104B000020911802309119023A8329831B82DD8299
:104B1000CC828E83CE010196B8CFE83CF105F8F641
:104B2000FE2CEE2009F243131FC092131DC080918A
:104B30001D0280FD10C0982F907F69F0F8018583D9
:104B4000903F31F0982F907F905F8F70892B8583F5
:104B5000C8010E94E51D86E0F801A8E1B2E00190DD
:104B60000D928A95E1F70DCFC8010E94D10F8111F6
:104B70008ECF80911D02816080931D02C8010E942A
:104B8000E51DFFCEEE2009F48FCFC8010E94D10FA2
:104B9000F82E882309F488CF86E0F801A8E1B2E076
:104BA00001900D928A95E1F7809118029091190277
:104BB0000E94C50F0E941124E4CE81E08E25FBCE19
:104BC0001F93CF93DF93CDB7DEB767970FB6F894F7
:104BD000DEBF0FBECDBF4B8B5C8B6D8B7E8B8F8B07
:104BE0006111109259021A8A198A85E0FE017396A2
:104BF000DE011D9601900D928A95E1F786E0FE0197
:104C00003D96DE01179601900D928A95E1F7CE014F
:104C100007960E946724882389F016E080914F024E
:104C200090911E0289134BC067960FB6F894DEBFB1
:104C30000FBECDBFDF91CF911F91089586E0FE0199
:104C40003796DE01119601900D928A95E1F78A85DB
:104C50009B85892B11F38F81988589238F3FE9F2FA
:104C600020911E0230E0C90101968770992740917A
:104C70004F024817190681F4109258060E946312D9
:104C800010921E0210924F0286E0E8E1F2E0DF018E
:104C90001D928A95E9F7C1CF96E0929FD001939F2C
:104CA000B00D1124A15EBD4FFE01319601900D9211
:104CB0009A95E1F780931E020E94240BAECF819F4C
:104CC000C0011124815E9D4F0E946724882309F44E
:104CD000ABCF80914F0290E0019687709927809327
:104CE0004F029CCF6F927F928F929F92AF92BF9212
:104CF000CF92DF92EF92FF920F931F93CF93DF93A8
:104D000036E7E32E36E0F32E570100E011E0712C78
:104D100088248394912CD8018D918D010E94B90C27
:104D200000C0E50169905E0126E0C22E21E0D22E8E
:104D3000F601D0E0C0E04191A42FA295AF70B0E0A1
:104D400090968C9194010C2E01C0220F0A94EAF7E0
:104D500090E04F7002C0959587954A95E2F780FDE7
:104D600087C0622A2196C430D10529F7F80131970E
:104D700080810E94CD0CA0EAAA95F1F7F5018291FD
:104D8000861519F0608277247394B1E006301B0712
:104D900011F601E010E0F60181916F010E94B90C5B
:104DA00000C0C8010C2E01C0880F0A94EAF7582FE2
:104DB000A6E7B6E090E0A92E91E0B92E482F4095E5
:104DC000F50181915F01282F22952F7030E0F901C4
:104DD00020A19D9130E08F7002C0359527958A956E
:104DE000E2F7BD0161507109852F892B20FF02C0B8
:104DF000842F8923FB0180838081981711F0772409
:104E00007394F6E0AF16F1E0BF06D1F6F6013197E4
:104E100080810E94CD0C20EA2A95F1F72196C830B6
:104E2000D10509F0B8CFC091CA02772021F181E005
:104E30008093E2010E947D1C9093E1018093E00148
:104E40008091E0019091E1010E946E1C0597B8F0FD
:104E5000EC2FF0E0E050FD4F8CE796E0D7012D916C
:104E60007D0121938A179B07C9F71092E20107C0C1
:104E70002095622277CF8091E2018111E1CF0E94DB
:104E8000FD0D182FE091CA0281117AC0F0E0E050C8
:104E9000FD4FF89486E0AEE5B2E001900D928A9560
:104EA000E1F78EE592E00E94920680935D0278948D
:104EB000F894C0906402D0906502E0906602F09091
:104EC00067028091E3019091E401A091E501B09126
:104ED000E601C816D906EA06FB06D1F0C092E30146
:104EE000D092E401E092E501F092E6010E94FD0D0E
:104EF00081110EC00E94AF08C61AD70AE80AF90A43
:104F0000C092C502D092C602E092C702F092C802D7
:104F10007894F89480916F028823F1F080FF0DC09F
:104F20008091680280FF29C0909133049160909332
:104F3000330460E086950E94A61680916F0281FF7F
:104F400009C020E040916B0260916A028091690281
:104F50000E94491510926F027894872DDF91CF91AE
:104F60001F910F91FF90EF90DF90CF90BF90AF9087
:104F70009F908F907F906F9008950E94E80DDDCFF5
:104F8000ACE7B6E086E0ED0119928A95E9F7CE2FFD
:104F9000D0E0C050DD4F809175068A30A8F56CEDE9
:104FA00078E1CE010E94E20C882309F449C067E74A
:104FB00078E1CE010E94E20C882309F441C064E14B
:104FC00078E1CE010E94E20C8823D1F1109275069F
:104FD00081E08093E901C091C902D0E0C050DD4F6B
:104FE00046E050E06CE776E0CE010E94CA33892BA0
:104FF00009F4B3CF86E0ECE7F6E0DE0101900D9214
:105000008A95E1F7712EA9CF8091E7019091E8018F
:105010000E946E1C843F914010F68091E901882324
:1050200009F49BCF1092E901E091C902F0E0E05051
:10503000FD4F96E0DF011D929A95E9F7782E8DCF0E
:10504000809175068F3F31F08F5F809375068A30AF
:1050500008F4BECF0E947D1C9093E8018093E70185
:10506000DCCF1F921FB61F9211248F939F93AF9393
:10507000BF9380914F06811113C08091500690918B
:105080005106A0915206B09153064196A11DB11D43
:105090008093500690935106A0935206B093530606
:1050A000BF91AF919F918F911F901FBE1F90189538
:1050B000CDB7DEB7AF970FB6F894DEBF0FBECDBF4A
:1050C00084B7877F84BF0FB6F894A895809160005D
:1050D000886180936000109260000FBE80E890E0CD
:1050E0000FB6F89480936100909361000FBE85B76E
:1050F000806885BF85B7806885BF80E399E090931D
:10510000D7018093D6010E9410070E94DB0780918F
:10511000E20084608093E2007894809165068823A1
:10512000A1F01091E9001F709091EC00892F81701F
:1051300090FD80E8182B1092E9008091E80083FD33
:105140000E946C121F701093E90082E084BD93E00E
:1051500095BD9AEF97BD80936E001092C502109294
:10516000C6021092C7021092C8020E94FA0F811163
:1051700002C00E94540F0E94691980910A010E9486
:105180006919809106010E94CD0C809107010E944F
:10519000CD0C809108010E94CD0C809109010E94E4
:1051A000CD0C00E011E056E0E52E51E0F52ED801DF
:1051B0008D918D010E94CD0CE016F106C1F7809112
:1051C0000A0196E0811190E09093CA0286E0891B63
:1051D0008093C9020E94FD0D811102C00E94043219
:1051E000E6E7F6E082E896E0A0E0B3E011921D92D7
:1051F0008E179F07D9F70E948119811102C00E9462
:10520000EE1682E090E00E94E0338093CE0284E0CC
:1052100090E00E94E033182F82E290E00E94E03399
:10522000982F812F9093CC028093CB020E947226FC
:10523000EFE3FCE93197F1F700C000000E9472260D
:105240008091000380FF08C06FEF7FEF90E080E067
:105250000E9412340E949E0883E090E00E94E03396
:105260000E94BD1080916F060E94A80B0E94FD0D48
:10527000882309F463C280E08093FB0280E8809376
:1052800038040E9499306DE070E08CE492E00E9456
:10529000620E892BE9F58091FB0263E070E081FDED
:1052A0004FC289E492E00E94620E892B89F56DE07D
:1052B00070E089E392E00E94620E892B49F50E941A
:1052C000AF08605A75418F4F9F4F609343067093AC
:1052D00044068093450690934606EBE3F4E080E0B5
:1052E00092E0DF019C011D9221503040E1F7F093E4
:1052F0004206E09341068FEF9FEF90933A0480932C
:10530000390481E080934806809347061092FC029E
:105310008091CD02811136C00E948119811104C093
:105320000E94EE160E94D61688E090E00E94E833B4
:10533000609333047093340480933504909336045F
:10534000809154038360809354036E7F71F40E94B4
:10535000D61688E090E00E94E8336093330470939F
:10536000340480933504909336040E94060980919A
:10537000330480FF04C060E086950E94A61681E099
:105380008093CD020E94E41A0E94FD0D811102C09B
:105390000E9404320E94FD0D81112EC08CE59EE01A
:1053A000909352018093510126E130E030934D01FA
:1053B00020934C0186E390E09093500180934F013D
:1053C0004CE159E050935A014093590130935501F3
:1053D00020935401909358018093570144EB5AE174
:1053E000509362014093610130935D0120935C0111
:1053F0009093600180935F010E948119882389F056
:105400008FE090E00E94E8338B01862F8F770E9417
:105410009B1A001F0027001F1370110F102B1093F1
:1054200029030E94480E83E190E00E94E8338B013B
:105430009C0160933B0310933C0380933D033093A6
:105440003E0310923F0310924003109241031092CA
:10545000420383E691E090934C0680934B0638E13B
:10546000232E312C4CE0842E43E0942E809165064F
:1054700000E112E1853009F4A2C10E947226D82E03
:1054800081110E94AF0849EB51E05EA74DA74FEC98
:1054900052E0A9EBB1E020E033E010E000E0B02EF4
:1054A000F901F1909F018D91F822FA018191AF01EC
:1054B0008F1509F495C18F25C12CEE24E394982F04
:1054C0009E2109F488C10E94FD0D882399F0C9A28C
:1054D000BAA2FE2081E009F480E08BA30E947D1C2B
:1054E0008160782F9DA38CA349A15AA16BA18DA1A6
:1054F0000E94E025F801E153FD4F8081E826E0821B
:105500000E94FD0D80914806882351F18091FD0293
:105510009091FE020E946E1CC29708F078C1209103
:10552000390430913A042115310509F077C2809190
:1055300047068823A9F00E94AF0800914306109106
:1055400044062091450630914606601B710B820B84
:10555000930B6F3F7F4F8F4F9F4710F40E94920E27
:10556000D1100E94AD0E0E94961C0E94210E9091B7
:10557000FF0289138093FF0280916506843009F44D
:105580001BC30E94FD0D882309F470CF0E94AF0851
:105590002091120321116DC000910E0310910F0391
:1055A00020911003309111036B017C01C01AD10AC4
:1055B000E20AF30A97018601043F114021053105F3
:1055C00008F457C060930E0370930F038093100389
:1055D0009093110380910C0390910D030196909389
:1055E0000D0380930C0319828E010F5F1F4F21E082
:1055F00050E040E060E088E00E94B417811106C0EE
:1056000080910C0390910D030A979CF181E08093A7
:105610001203809318039981911101C080E0809357
:1056200019038091170310E0882329F00E94310E9E
:1056300011E0811112E080911903882309F483C4D9
:105640000E94310E811181C482E0182B0E94F10F5B
:105650006B017C01DC01CB018C7FBC01CD01612B96
:10566000C616D706E806F90611F00E94380F0E9408
:10567000480E80911903882309F4F8CE0E94AF08E0
:105680006B017C018091130390911403A091150389
:10569000B0911603A7019601281B390B4A0B5B0B2F
:1056A000DA01C9010497A105B10580F119821A82B6
:1056B0001B821C828E010F5F1F4F24E050E040E0F0
:1056C00060E089E00E94B4178823C1F069817A8183
:1056D00080911E0390911F030E94A60C90931F03BC
:1056E00080931E036B817C81809120039091210324
:1056F0000E94A60C9093210380932003C092130371
:10570000D0921403E0921503F092160380912303C4
:10571000882309F4ABCE80912203898310E000E056
:1057200020E0AE014F5F5F4F61E08AE00E94B41756
:10573000882309F49BCE1092230398CE82E09CCD5F
:1057400086E492E0B0CD80916506843031F10E940C
:10575000920E0E94961C10924F0630E40FB6F894F9
:10576000A895209260000FBE3093600083B7817FC0
:10577000846083BF83B7816083BF7894889583B743
:105780008E7F83BF0FB6F894A895809160008861E2
:1057900080936000109260000FBE809164068823A1
:1057A00071F00E947226A9EBB1E0E0E0F3E0819194
:1057B0009D91892309F0CBC38E169F06C1F7809176
:1057C0006506853009F4BFCF109258060E94631217
:1057D0000E94210E52CEC394EE0CF8E0CF126FCE91
:1057E0000F5F1F4F0C30110509F059CE8FEF8EA3BC
:1057F0008FA318A60E947D1C8160782F9AA789A785
:105800004EA15FA168A58AA50E94E02579CE0E94DD
:105810007D1C9093FE028093FD022BE3E22E24E098
:10582000F22EF0924206E09241060E94FD0D88237E
:1058300009F4EEC010912F03012F60E089E992E096
:105840000E940212809132038F708A3008F0D2C019
:10585000805D60E00E946F1160E085E992E00E9447
:105860000212809131038F708A3008F0C5C0805DCC
:1058700060E00E946F11002309F4C4C060E082E977
:1058800092E00E940212812F82958F708A3008F078
:10589000B5C0805D60E00E946F11812F8F708A30EB
:1058A00008F0AEC0805D60E00E946F118CEF810F48
:1058B000853308F0A7C060E08EE892E00E940212F3
:1058C000212F2450330BF901E75AFD4F849160E0FA
:1058D0000E946F1160E085EB92E00E9402128091BD
:1058E00035030E947B0C60E00E9414128091360305
:1058F0000E947B0C60E00E941412809138030E9489
:105900007B0C60E00E941412809137030E947B0C94
:1059100060E00E94141260E08CEA92E00E940212A1
:1059200080912203811101C085E00E947B0C60E020
:1059300001960E94141260E086EA92E00E94021230
:1059400080912403811162C080E360E00E946F11A6
:1059500060E082EA92E00E940212809129038111A4
:1059600001C084E060E0805D0E946F1160913B03A4
:1059700085EC92E00E94021210913B0380916F0629
:105980000E94830B0E94A906612F0E94141260914D
:105990003B0381EC92E00E94021210913B03809144
:1059A00039030E94A906612F0E94141260913B03E3
:1059B0008FEB92E00E94021210913B0380913C0316
:1059C0000E94A906612F0E94141260913B038BEB89
:1059D00092E00E94021210913B0380913E030E94CC
:1059E000A906612F0E94141280914806882309F4A9
:1059F0009ECD95CD895A2DCF895A3ACF895A4ACF13
:105A0000895A51CF81E00E94301264CF81E39DCF4B
:105A100060E088EC92E00E940212E6CF8091FC02E6
:105A200061E070E0811183CD082F10E07B01082E2A
:105A300002C0EE0CFF1C0A94E2F7A9014E215F217F
:105A4000452B09F447C09091FB0290FD45C082951B
:105A5000880F807680937101980136952795369549
:105A6000279520937401815E8093720110927501D5
:105A700024E630E047E050E06FE671E088E70E94FE
:105A80004831892B09F053CDA80115E0440F551F6B
:105A90001A95E1F78091FB0280FD2CC0455C5B4FBD
:105AA00004E610E020E230E060E488E70E946F3115
:105AB000892B09F03CCD0E94AD0EE094F0948091CA
:105AC000390490913A04E822F922F0923A04E092E3
:105AD00039042DCD8F5FA8CF880F880F880F809352
