:100000000C945D060C947A060C947A060C94A43336
:100010000C947A060C947A060C947A060C947A0660
:100020000C947A060C947A060C940E1C0C94CA1B41
:100030000C947A060C947A060C947A060C947A0640
:100040000C947A060C947A060C947A060C947A0630
:100050000C947A060C94E71C0C947A060C947A069D
:100060000C947A060C947A060C947A060C947A0610
:100070000C947A060C947A060C947A060C947A0600
:100080000C947A060C947A060C947A060C947A06F0
:100090000C947A060C947A060C947A060C947A06E0
:1000A0000C947A060C947A060C947A0605010902DF
:1000B000A10185020901A1000509190129081500FE
:1000C0002501950875018102050109300931158165
:1000D000257F95027508810609381581257F9501D0
:1000E00075088106050C0A38021581257F95017572
:1000F000088106C0C00660FF0961A1010962150000
:1001000026FF009520750881020963150026FF006F
:10011000952075089102C005010906A1010507197E
:10012000E029E71500250195087501810295017503
:100130000881010507190029FF150026FF00950613
:100140007508810005081901290515002501950587
:1001500075019102950175039101C0000000000036
:10016000000000000000000000000000000000008F
:100170000000000000000000000000000000007E01
:100180000F00D4FFFFFFC700000078000000000050
:100190000000002A2B2800000000000000000000E2
:1001A00000000000000029000000002C1E34202167
:1001B0002224342627252E362D3738271E1F2021AE
:1001C00022232425263333362E37381F040506070D
:1001D00008090A0B0C0D0E0F101112131415161727
:1001E00018191A1B1C1D2F3130232D350405060745
:1001F00008090A0B0C0D0E0F101112131415161707
:1002000018191A1B1C1D2F3130354C00DA0281FFE2
:10021000D9F1DB20A4A62EAF00A0C0D30000A1C856
:10022000D30000AED580A81F408D1420000001012E
:1002300001010101010101020202020202020202A5
:100240000303030303030303040404040404040575
:100250000505050506060606060707070707080839
:100260000808090909090A0A0A0B0B0B0C0C0C0DEA
:100270000D0D0E0E0E0F0F0F101011111112121383
:10028000131414151516161717181819191A1A1BFE
:100290001B1C1D1D1E1E1F2020212222232424255D
:1002A0002626272829292A2B2C2D2D2E2F30313296
:1002B00032333435363738393A3B3C3D3E3F4041A6
:1002C00042434445464748494A4C4D4E4F5051538E
:1002D00054555658595A5B5D5E5F61626465666845
:1002E000696B6C6D6F7072737577787A7B7D7E80C9
:1002F00082838587888A8C8E8F91939596989A9C15
:100300009EA0A2A3A5A7A9ABADAFB1B3B5B7BABC28
:10031000BEC0C2C4C6C9CBCDCFD1D4D6D8DBDDDFF9
:10032000E2E4E7E9EBEEF0F3F5F8FAFDFF00000098
:100330000000003E5B4F5B3E003E6B4F6B3E001C7F
:100340003E7C3E1C00183C7E3C18001C577D571C10
:10035000001C5E7F5E1C0000183C180000FFE7C315
:10036000E7FF00001824180000FFE7DBE7FF00307C
:10037000483A060E00262979292600407F05050700
:1003800000407F05253F005A3CE73C5A007F3E1C59
:100390001C0800081C1C3E7F0014227F2214005FF2
:1003A0005F005F5F0006097F017F00006689956A34
:1003B0000060606060600094A2FFA2940008047E68
:1003C00004080010207E20100008082A1C080008DD
:1003D0001C2A0808001E10101010000C1E0C1E0C09
:1003E0000030383E383000060E3E0E060000000099
:1003F00000000000005F000000000700070000147C
:100400007F147F1400242A7F2A12002313086462B9
:1004100000364956205000000807030000001C2247
:100420004100000041221C00002A1C7F1C2A0008F9
:10043000083E08080000807030000008080808081E
:10044000000000606000002010080402003E5149D6
:10045000453E0000427F4000007249494946002164
:1004600041494D33001814127F1000274545453986
:10047000003C4A49493100412111090700364949E8
:10048000493600464949291E0000001400000000BA
:100490004034000000000814224100141414141405
:1004A000000041221408000201590906003E415D86
:1004B000594E007C1211127C007F49494936003E9A
:1004C00041414122007F4141413E007F494949412C
:1004D000007F09090901003E41415173007F08086E
:1004E000087F0000417F4100002040413F01007F24
:1004F00008142241007F40404040007F021C027FE0
:10050000007F0408107F003E4141413E007F090901
:100510000906003E4151215E007F09192946002647
:10052000494949320003017F0103003F4040403FF9
:10053000001F2040201F003F4038403F0063140848
:100540001463000304780403006159494D4300001B
:100550007F41414100020408102000004141417FD9
:100560000004020102040040404040400000030734
:100570000800002054547840007F28444438003854
:100580004444442800384444287F003854545418C4
:100590000000087E0902001824241C78007F08044B
:1005A00004780000447D4000002040403D00007E73
:1005B000102844000000417F4000007C047804784B
:1005C000007C08040478003844444438007C182433
:1005D000241800182424187C007C0804040800480F
:1005E000545454240004043F4424003C4040207CE4
:1005F000001C2040201C003C4030403C004428109F
:100600002844004C9090907C004464544C4400007A
:100610000836410000000077000000004136080065
:10062000000201020402003C2623263C00000000D8
:100630000000000000000000000000000000F81EA4
:10064000030101020C080808080810101010180413
:10065000020206FC00000000000000000000000094
:100660000000F01E030101030C0808080808080830
:1006700008080C0603010103FE0000000000000052
:1006800000000000000000F03E030103060C0C0C0B
:1006900008080808080808080C060101031EE00005
:1006A0000000000000000000000000E0F0F0F0E0BA
:1006B000ECEEF7F37020007C7C7C7E007E7E7E7FFB
:1006C0007F7F000080C0E07E5B4F5BFEC00000C00B
:1006D00000DCD7DEDEDED7DC00C00000000000005A
:1006E000000000000000000000000000000000000A
:1006F0000000000000C020008060180000C07F00E3
:1007000000000000000202000000000000000202E1
:1007100000000007F80000000000C020008060100A
:100720000000FF00000000000003030000000000C4
:10073000000003030000000003FE0000000000C0F2
:1007400020008060100000FF000000000000030394
:100750000000000000000000030300000000FF0094
:1007600000000000000000000000000F1F3F7F7F1E
:100770007F7F7F3F1E0C001F1F1F3F003F3F3F7FBB
:100780007F7F00307B7F7830202030787F3B0003F4
:10079000000F7F0F0F0F7F0F00030000000000000D
:1007A0000000000000000000000000000000000049
:1007B000000000000718200007182000001F30204C
:1007C0003018081020203018102020203018081071
:1007D000204020301F0000000007182000071820CC
:1007E00000001F30202010080810202030080808C2
:1007F0001030203018081830201F000000000718A3
:10080000200007182000001F30203018183020303A
:100810001808302030180808183020203808070041
:1008200000000000000000000000000000000000C8
:1008300000000000000000000000000000000000B8
:1008400000000000000000000000000000000000A8
:100850000000000000000000000000000000000098
:100860000000000000000000000000000000AF6178
:1008700062636465666768696A6B6C6D6E6F7071E0
:1008800072737475767778797A31323334353637D6
:10089000383930524542545F2D3D5B5D5C233B2728
:1008A000602C2E2F20202700204B00202043004BBF
:1008B0006579203A2020520020204400303020204A
:1008C000530020202020204350490042616C6C3AA4
:1008D0000052543A002F004D563A004C3A008081A5
:1008E00082838485868788898A8B8C8D8E8F909170
:1008F000929394A0A1A2A3A4A5A6A7A8A9AAABACD1
:10090000ADAEAFB0B1B2B3B4C0C1C2C3C4C5C6C747
:10091000C8C9CACBCCCDCECFD0D1D2D3D40000AEB3
:1009200029001E001F0000002000210022000000FE
:100930002B0014001A00625208001500170028004E
:10094000E000040016000000070009000A00000093
:1009500021521D001B000000060019000500300098
:10096000E200E300000000000608904391412C42A1
:100970004F00500051005200000000000000000035
:100980002D00270026000000250024002300000081
:100990002F001300120028000C0018001C00290072
:1009A000340033000F0000000E000D000B000000AB
:1009B00087003800370000003600100011003200B8
:1009C00089002E00000000001908E30028002A001A
:1009D0002B022B001D0A1D08000000000000000073
:1009E00029021E022F000000200221022202000024
:1009F0002B0214021A02010008021502170201005C
:100A0000E002040216020000070209020A020000C6
:100A100001001D021B02000006021902050230023D
:100A2000E202E302000000000100010001000100F9
:100A300001000100010001000000000000000000B2
:100A4000870227022602000025022402230200005A
:100A50002F021302120201000C0218021C020100F4
:100A6000340233020F0200000E020D020B020000DE
:100A700087023802370200003602100211023202E9
:100A800089022E02000000000100010001000100A7
:100A90000100010001000100000000000000000052
:100AA00001003A003B0000003C003D003E00000019
:100AB00001000100240001002500260001000100C2
:100AC0000100010021000000220023003302000089
:100AD000010001001E0000001F0020002D02250261
:100AE0000100010000000000010001000100010000
:100AF0002B002B020100010000000000000000009C
:100B00004400430042000000410040003F0000005C
:100B1000450001004E00010052004B0001000100A1
:100B200001004D004F000000510050004A0000003D
:100B300001000100D3000000D200D100D500D40094
:100B4000010001000000000001000100010001009F
:100B50000100010001000100000000000000000091
:100B600020780100010000000100010001000000E8
:100B70002178237825780100277801000100010001
:100B800022782478267800002878477E467E000068
:100B90004B7E4C7E4D7E00004E7E497E487E037C1F
:100BA000007C4A7E000000000100010001000100FD
:100BB0000100010001000100000000000000000031
:100BC00030782F782E7800002D782C782B78000044
:100BD0000100010034780100337832783178010067
:100BE000407E417E447E0000427E437E457E000082
:100BF0000100010001000000010001000100037C70
:100C0000007C010000000000010001000100010063
:100C100001000100010001000000000000000000D0
:100C200009025B00030100A0FA09040000010301AE
:100C30000100092111010001224400070581030878
:100C40000001090401000203000000092111010054
:100C5000012222000705820320000107050303206B
:100C60000001090402000103000000092111010034
:100C7000012249000705840320000112010002003F
:100C8000000008594D00010002010200010E036D31
:100C90000074006B00360034006500000016036D20
:100CA0000065006E00740061006B006F005F0079EA
:100CB0000061000000040309040011241FBECFEFEF
:100CC000DAE0DEBFCDBF11E0A0E0B1E0EEEBFCE684
:100CD00002C005900D92A63CB107D9F726E0A6EC1C
:100CE000B1E001C01D92A739B207E1F70E948B293C
:100CF0000C9415360C9400008F929F92AF92BF9285
:100D0000CF92DF92EF92FF9290918801981305C0E5
:100D100090918706903209F44BC08093880190E24D
:100D200090938706C82ED12CF12CE12C10928606C8
:100D3000C701B6012AE030E040E050E00E943935BA
:100D4000605D603331F0C114D104E104F10409F4B1
:100D500060E26093850660E28AE0C816D104E1048F
:100D6000F10490F08AE0882E912CA12CB12CC701BF
:100D7000B601A50194010E943935CA01B901A50146
:100D800094010E943935605D6093840620E284E618
:100D9000C816D104E104F10448F0C701B60124E605
:100DA00030E040E050E00E943935205D209383061A
:100DB00083E896E0FF90EF90DF90CF90BF90AF90E8
:100DC0009F908F900895482F209182069091490618
:100DD00057E0291302C080E0089530E0529FF001EF
:100DE000539FF00D1124E65BF94F8181681306C013
:100DF0008081481303C085818111EECF2F5F3F4F63
:100E00002770E7CFE8EDF0E080818E7F808310923D
:100E1000E2001092DA001092E100A0EEB0E08C91B6
:100E200081608C9380818F77808319BCA7EDB0E0BF
:100E30008C918E7F8C9380818F7E8083109231067F
:100E400008952091E4003091E50095E6A9012091F4
:100E5000EC00822F817020FF06C08091E80080FFA7
:100E600006C080E008952091E80022FD1AC080911C
:100E70003F06882389F0853089F08091EB0085FD5D
:100E80000FC02091E4003091E50042175307F9F2BA
:100E90009150E1F684E0089582E0089583E008959A
:100EA00081E008958091410687FF13C08091E8009A
:100EB00082FF06C08091E8008B778093E80004C031
:100EC00080913F068111F2CF089580913F068823DB
:100ED000D9F38091E80080FFF8CF8091E8008E7709
:100EE000ECCF982F9093E900242F762F50E08917AC
:100EF00031F07091EC002091ED005091F00021FD57
:100F000007C09F5F973071F78093E90081E00895F3
:100F10003091EB003E7F3093EB003091ED003D7F50
:100F20003093ED003091EB0031603093EB00709323
:100F3000EC002093ED005093F0002091EE0027FD8F
:100F4000E0CF80E00895B0E0A0E0E9EAF7E00C949B
:100F5000DE34C8EDD0E088818F7E8883E7EDF0E055
:100F600080818160808384E082BF81E0809331064C
:100F700088818E7F888302EE10E0F8011082109243
:100F8000DA0081EEC82ED12CF601108288818F778D
:100F9000888388818068888388818F7D888319BC55
:100FA00010923F061092400610923E0610923D06A7
:100FB00090EEE92EF12CF70180818B7F8083888170
:100FC0008160888342E060E080E00E947107F60162
:100FD00080818E7F8083F801808181608083808121
:100FE00088608083F70180818E7F80838881806123
:100FF0008883CDB7DEB7E8E00C94FA34FC01809129
:1010000047069091480686179707A0F0611571056D
:1010100029F49091E8009E779093E80090E06115A4
:10102000710551F4911108C08091E80082FF34C02D
:1010300080E00895BC01F2CF80913F068823C1F182
:101040008530C1F18091E80083FD30C08091E800D7
:1010500082FDEACF8091E80080FFE1CF8091F3002C
:101060002091F200382F6115710519F028303105F3
:1010700058F091E02830310509F090E02091E80027
:101080002E772093E800CBCF81918093F1006150BF
:1010900071092F5F3F4FE7CF80913F06882341F0D2
:1010A000853041F08091E80083FFBECF81E0089554
:1010B00082E0089583E008950895809134060895AC
:1010C00087E797E7909301088093000888E19AE00A
:1010D0000FB6F894A895809360000FBE90936000BF
:1010E000FFCF2FB7F89460912D0670912E06809156
:1010F0002F06909130062FBF08959C01FC01329677
:101100009FEF80E04191461751F09F3F19F4411144
:1011100001C0982F8F5F8630A9F79F3F09F408958B
:10112000290F311D97FD3A95F90162830895FC015D
:10113000680F791F8FEF91E32191822728E030E03B
:1011400087FF09C0880F892721503109C9F7E617A1
:10115000F70791F70895880FF7CFFA01811101C0C1
:10116000FB01099508958091C103982F9E7F71F42A
:101170008091C103817082608093C1038091C40318
:10118000893718F088E78093C4030895843080F786
:10119000F5CFCF93DF93E2EDF3E083819481A581D6
:1011A000B681E90188839983AA83BB831482138261
:1011B00016821582DF91CF91089580E0089563E053
:1011C00070E089E392E00E949708909138028913B9
:1011D00018C0E0913902ED30A4F488E0E802F00193
:1011E0001124E55FFE4F0680F781E02D309749F02E
:1011F0002CE532E040913B026CE372E080913A02D0
:1012000009950895EFE1F2E0838D80934301848D89
:1012100080935601089590919A0292FF10C041E088
:10122000282F2471243009F040E031E0282F287164
:10123000283009F030E0431711F02CE0822793FFAB
:1012400010C041E0282F2471243109F040E031E042
:10125000282F2871283109F030E0431711F02CE0D5
:10126000822730919B0230FF10C051E0282F21715E
:10127000213009F050E041E0282F2871283009F092
:1012800040E0541711F029E0822731FF10C041E0FF
:10129000282F2171213109F040E031E0282F2871F9
:1012A000283109F030E0431711F029E0822794FD3E
:1012B000877E089582389105B9F1B0F481339105A4
:1012C00009F47DC048F48932910509F46DC08A3271
:1012D000910509F47BC008958533910509F45FC039
:1012E0008933910509F10895833E9105D9F138F4C8
:1012F000803E910529F1823E910579F10895863E5F
:101300009105D9F1873E910509F43EC0843E9105CF
:1013100041F520919B0221FF24C080919A0284FD17
:1013200019C087EE90E0089520919A02237009F089
:101330005AC020919B0223FF14C089E290E00895D7
:1013400020919A0220FD38C030919B0230FF09C0E5
:1013500024FF43C090E080E0089520919A0222FD8E
:10136000F7CF089520919A0222FD3AC030919B0256
:1013700030FD39C024FFF5CFEDCF20919A0223FF35
:10138000F0CF24FDE7CFCDCF20919A0223FD2EC0D0
:1013900030919B0231FFEECF84EE90E008952091D2
:1013A0009A0225FFDECFC9CF20919A0225FD21C0E8
:1013B00020919B0223FFD5CF89E390E0D2CF2091EB
:1013C0009A0226FFCECF8AE290E0089520919A02F9
:1013D00026FFC7CF81E390E0089583EE90E0089563
:1013E00082EE90E0089580EE90E0089586EE90E021
:1013F000089585E390E008951F93CF93DF930E94B3
:101400005A09EC01C11582E5D80708F03FC0C115A3
:1014100090E5D90708F0C2C0C83ED105C0F4C03E6F
:10142000D10580F4C53AD10548F4C430D10550F453
:10143000C130D10539F0D0E0C0E004C0CD3CD105C9
:10144000D0F3D065CE01DF91CF911F910895C115E2
:1014500080E4D80708F053C0C11590E2D90708F01E
:10146000B7C0C11581E0D80730F38D2F0E940B095A
:10147000182FCE0199270E945A09C12FD0E0DC2FE6
:10148000CC27CC27DF71C82BD92BDCCFC03892E515
:10149000D907A8F4C03682E5D80708F063C0C03485
:1014A00092E5D90708F049C0C03282E5D80788F133
:1014B000CF71D0E0DC2FCC27C16FD06AC3CFC03C46
:1014C00092E5D90780F48C2F8F71C03AD24508F489
:1014D0005EC00E940B09C82FD0E0DC2FCC27CC27A0
:1014E000DF71D062AFCFC03E82E5D80708F0A3CF4E
:1014F000DC2FCC27CC27DF71C06FD06AA3CFCE0101
:1015000099270E945A09CC27DF70C82BD92BD06AA3
:1015100099CF2C2F2695269590E2299F9001112492
:101520008C2F8370C1E0D0E002C0CC0FDD1F8A9504
:10153000E2F7C22BD32BDD6885CF2C2F269526957D
:10154000277080E2289F900111248C2F8370C1E0C6
:10155000D0E002C0CC0FDD1F8A95E2F7C22BD32B5F
:10156000DC6870CF2C2F26952695277090E2299F56
:10157000900111248C2F8370C1E0D0E002C0CC0F09
:10158000DD1F8A95E2F7C22BD32BDA685BCFC82F19
:10159000D0E0DC2FCC27C46FD06A54CF8C2F8F7152
:1015A0000E940B0955E0D695C7955A95E1F7CF7083
:1015B000D0E0DC2FCC27282F30E084FF05C044E0AA
:1015C000220F331F4A95E1F7C22BD32BD0693ACFB4
:1015D0008D2F8F710E940B09182FCE0199270E9421
:1015E0005A09C12FD0E0DC2FCC27CC27DF71C82BC4
:1015F000D92B77CF8095909132069823909332061D
:1016000008958091820690914906981301C008952B
:101610008F5F8770FACF9C3080F5883070F548E096
:10162000949F90011124820F932F911D682F677052
:1016300023E0969587952A95E1F7FC01EE0FFF1FB1
:10164000E80FF91FEB51FE4F50E040E080E02191A0
:1016500030E0062E02C0369527950A94E2F72170F5
:101660003327042E01C0220F0A94EAF7822B4F5F22
:101670005F4F4330510559F7089580E008959C303D
:1016800098F5883088F548E0949F90011124820FE6
:10169000932F911D282F277041E001C0440F2A95F8
:1016A000EAF723E0969587952A95E1F7FC01EE0F7E
:1016B000FF1FE80FF91FEB51FE4F90E080E070E054
:1016C0005191DF0111979B01082E02C03695279595
:1016D0000A94E2F7217021952527242325272C93AE
:1016E00001968330910561F7089580931B02089558
:1016F000982F92959F7011F0892F94E0282F2695AE
:10170000269511F09E5F822F869509F09F5F892FA5
:101710000895CF93C82F8091DF038C1751F00E945A
:1017200071086093E0037093E1038093E203909368
:10173000E303C093DF03CF910895CF93C82F0E9496
:10174000780B91E0833009F090E0892F0E94890B9B
:101750008091BA02823031F41092BA028C2F8B7FC2
:1017600009F0C82F8C2FCF9108950E949D0B809374
:10177000F60308959091F60321E030E0F90101C0ED
:10178000EE0F8A95EAF7D90102C0AA0FBB1F6A952E
:10179000E2F7EA2B01C0220F4A95EAF7892F8E2340
:1017A000E81305C0292B822F0E94B50B08952095C0
:1017B0002923F9CF21E030E001C0220F8A95EAF712
:1017C00020958091F60382230E94B50B0895909195
:1017D00010028095892380931002282F277069F4C6
:1017E000891759F090919B0292FF07C086958695C4
:1017F00086950E94DA0B10921002089521E030E0E5
:1018000001C0220F8A95EAF78091F603822B0E948D
:10181000B50B0895B0E0A0E0E0E1FCE00C94DE340C
:10182000FC01EB019091E403911101C094E060810F
:10183000718191509B01092E02C0359527950A941C
:10184000E2F7D901092E02C0AA0FBB1F0A94E2F7E2
:101850006A1B7B0B71836083628173818B01092E0C
:1018600002C0159507950A94E2F7D80102C0AA0FA5
:10187000BB1F9A95E2F76A1B7B0B7383628381E837
:101880000138BFEF1B072CF0802F003811050CF03A
:101890008FE78D8321389FEF390754F120383105C8
:1018A0004CF5922F91959C83442319F081958D835B
:1018B0002C830E9471082D81211103C02C812223C9
:1018C000D9F06093E5037093E6038093E703909368
:1018D000E8038091E9039BE0980F973120F4080F0B
:1018E0000093E9031D82CDB7DEB7E8E00C94FA342B
:1018F00021E8D7CF2FE7D5CFC090E503D090E603FE
:10190000E090E703F090E8036C197D098E099F09C8
:101910006436710581059105E0F21092E903D9CF93
:10192000FC01DB012281338191E821388FEF3807F8
:101930002CF0922F203831050CF09FE712969C93E3
:1019400012972081318121388FEF3807A4F0203899
:1019500031059CF413962C931397442339F09195F9
:1019600012969C931297219513962C9311821082B4
:1019700013821282089521E8EDCF2FE7EBCF382FA5
:1019800020E287FF02C031952DE24AE0832F642FC9
:101990000E941735905D9093DD0181110BC020935B
:1019A000DC0120E22093DB0120E22093DA018AEDC2
:1019B00091E00895642F0E941735905D9093DC01AB
:1019C000832F64E60E941735882361F3805D80933E
:1019D000DB01EBCF9C01860F971F37FD07C077FD1A
:1019E00004C097FF02C08FEF9FE7089577FFFDCFF8
:1019F00097FDFBCF80E090E80895E82FE295EF7027
:101A0000F0E031A1282F2F7081E090E001C0880F15
:101A10002A95EAF7382B31A392A18095892382A3D6
:101A20000895E82FE295EF70F0E031A1282F2F7094
:101A300081E090E001C0880F2A95EAF7982F9095F1
:101A4000932391A392A1892B82A30895B0E0A0E0F3
:101A5000ECE2FDE00C94DE347C016B0180918806A1
:101A600001E010E08A3010F40AE010E0C1E0D0E0BC
:101A70006FE876E0C701F6010995811104C021964F
:101A80000C171D072CF4CDB7DEB7E8E00C94FA3440
:101A9000CC9F9001CD9F300D300D112490E080E05F
:101AA00045E34A95F1F70000019682179307C1F7C5
:101AB000DFCF0F931F93CF93DF938B01EA019091B8
:101AC0003F06943061F58093E9008FEF9091E80034
:101AD000815095FD06C095ED9A95F1F700008111B2
:101AE000F5CF8091E80085FF1AC00E94210781117F
:101AF00011C08091E80085FD06C08091E8008E77D6
:101B00008093E800F2CFF80181918F018093F1007A
:101B1000219779F78091E8008E778093E800DF9134
:101B2000CF911F910F91089546E050E0BC0184E0F1
:101B30000E94590D0895CF93DF93EC0148E050E0E7
:101B4000BC0181E00E94590D88E0FE01A5E3B6E0EA
:101B500001900D928A95E1F7DF91CF910895609100
:101B600084018091C10380FF20C08091830143E004
:101B7000849FC00111248D519D4F539A2BB1277F13
:101B80003BB138605FB7F894FC01649FE00DF11D34
:101B90001124BF0168177907D1F45FBF8FE594E086
:101BA0000197F1F700C000000895809185019091A0
:101BB000860123E0829FF0011124ED51FD4F89172A
:101BC000A0F61182108212828F5F3396F8CFFC014B
:101BD0004191CF01E8E03BB9000000C047FF2BB9BD
:101BE000440F000000C000C000C02BB900C0EA953F
:101BF00091F7D0CFE1ECF3E080818E7F8083E0EE3F
:101C0000F2E08281816082830E94AF0D089580910D
:101C10001E02811119C082E390E02091E30027FDAC
:101C200010C0EFE3FCE93197F1F700C00000019725
:101C3000A1F782E080931E020E94020710923F06E5
:101C400003C081E080931E0281E090911E029130DA
:101C500011F080E0089508950E94070E882359F03E
:101C6000E0912B06F0912C06309729F00190F0813D
:101C7000E02D0995089580E008950F931F930E9429
:101C8000070E882329F00E9471081F910F91089573
:101C90000E94710800919202109193022091940287
:101CA00030919502600F711F821F931FEECF0E942B
:101CB0003D0E089557985F9A879A8F9825E02A9548
:101CC000F1F7000089B187988F9A90EA9A95F1F719
:101CD00090E0880F892F881F990B21E0822781705F
:101CE00008950E945A0E882371F080E0809383014A
:101CF00082E2809384011092850184E480938601BE
:101D000080938701089582E2F1CF8091D203F90197
:101D100080830E94710E0895CF93DF93C9E2D3E0D0
:101D200060E0CE010E94E1352196C11584E0D8071C
:101D3000B9F7DF91CF9108951F93CF93DF93122FBF
:101D40008430E0F46C30D0F44830C0F490E1699F06
:101D5000E001112450E0440F551FC40FD51F90EC33
:101D6000899FC00DD11D1124632FCE0189960E9439
:101D7000E135612FCE018A960E94E135DF91CF9146
:101D80001F910895AF92BF92CF92DF92EF92FF9290
:101D90001F93CF93DF9380E2C82E89E0D82ED0E046
:101DA0007601C0E014C0F50125913491412F6C2FCC
:101DB0008D2F0E949C0E82E0A80EB11C1F5F183070
:101DC00091F780E1E80EF11CCF5FCC3019F057019C
:101DD00010E0E9CFDF5F80ECC80ED11CD43001F7F2
:101DE000DF91CF911F91FF90EF90DF90CF90BF9048
:101DF000AF90089588E290E00E94E1350895CF9376
:101E0000C82F6FEF811163E285E290E00E94E13517
:101E10006FEFC11164E086E290E00E94E1356FEF60
:101E2000C11169E287E290E00E94E135CF91089507
:101E300080E00E94FF0E60E070E0CB010E94FA0E8D
:101E40000E94C20E0E948C0E81E00E94FF0E089537
:101E50000F931F93CF93DF93843030F56C3020F5D0
:101E6000483010F520E1629F8001112450E0440FBA
:101E7000551F040F151F30EC839F000D111D1124F9
:101E8000C80189960E94BD35C82FD0E0DC2FCC2731
:101E9000C8018A960E94BD359E01282BC901DF9199
:101EA000CF911F910F91089590E080E0F8CF462FD9
:101EB0007C3040F4683030F4843020F4672F0E9486
:101EC000280F089590E080E00895CF92DF92FF926E
:101ED0000F931F93CF93DF936C010091F6038091D2
:101EE0001B02082BC3E0D0E010E0FC2EC8010C2E32
:101EF00002C0959587950A94E2F780FD0CC0219762
:101F0000A0F7F12C8F2DDF91CF911F910F91FF90B2
:101F1000DF90CF900895B6018C2F0E94570F0E943A
:101F2000FC09019761F3EECFCF93DF93EC010E94A0
:101F3000650FBE010E94570F0E94FC09DF91CF91EF
:101F40000895FC0124812223C1F0808191810E94A7
:101F5000940F92959F70963091F058F4925F9F7015
:101F6000923058F4803F19F030F4883E30F481E02C
:101F700008959A5FF4CF843FD1F380E00895883EBE
:101F8000B0F3813FD1F7F3CFA6E0B0E0EAECFFE099
:101F90000C94E33449835A8349815A819923A1F0EF
:101FA000222391F0CA010E94650F182F682F8981A2
:101FB0009A810E943F0B69817A81812F0E94570F7D
:101FC0002696E3E00C94FF34CA010E940B0B182FF5
:101FD000F2CF88E290E00E94BD35682F70E090E07B
:101FE00080E0089585E290E00E94BD35833289F457
:101FF00086E290E00E94BD35843059F487E290E09B
:102000000E94BD3591E0893209F090E0892F8170FE
:10201000089580E0FCCFCF939091DB028091D502B0
:10202000981323C08091DC02882321F09091D6027E
:1020300089131BC08091DD02882321F09091D70283
:10204000891313C08091DF02882321F09091D90277
:1020500089130BC09091DE02992329F081E0209131
:10206000D802291303C080E001C081E0C82FC170ED
:1020700080FF0FC0E0912B06F0912C06309749F0BD
:1020800082E08093DA020480F581E02D8AED92E00F
:1020900009959091DB0286E0EAEDF2E0DF01282F5E
:1020A0001D922A95E9F79093DB02A4EDB2E001902E
:1020B0000D928A95E1F781E0C11103C0911101C031
:1020C00080E08170CF9108952FE2280F283078F4B6
:1020D00081E090E001C0880F2A95EAF72091DB02A9
:1020E000662331F0822B8093DB020E940B1008954F
:1020F00080958223F8CF8091320690911A02892B25
:102100008093C80190911902992391F0892B8093B3
:10211000C80120E08AEC91E0FC013191CF0131113E
:102120002F5FF1E0803D9F07B9F72111109219024E
:1021300048E050E061E172E088EC91E00E94A73550
:10214000892BA9F088E0E8ECF1E0A1E1B2E0019090
:102150000D928A95E1F7E0912B06F0912C063097CD
:1021600031F00280F381E02D88EC91E0099508952B
:10217000EAECF1E086E0DF011D928A95E9F7109222
:102180001A020E947B100895AAE2B0E0EAECF0E1A6
:102190000C94E33481E496E02091F100DC012D936E
:1021A000CD01B6E089349B07B9F7809142068330B0
:1021B00009F472C0B8F4813009F449C0823009F4DE
:1021C000B5C08091E80083FF8DC280914106909157
:1021D00042069A3008F086C2E92FF0E0E95EF94C39
:1021E0000C945B358A3009F490C08B3009F471C0CF
:1021F000893039F780914106813219F7809145067F
:1022000090914606009711F00297D9F68091E80068
:10221000877F8093E8008091E80082FF38C090912A
:10222000F3008091F200029731F48091F100813047
:1022300011F0863021F48091F10080933406809172
:10224000E8008B778093E8000E945207BACF809114
:102250004106813A09F0B5CF8091E800877F8093ED
:10226000E8008091450690914606892B61F468E06C
:1022700085E396E070E00E94FE078091E8008B778E
:102280008093E8009ECF60E090E080E0F3CF809103
:102290003F068111C0CF95CF80914106813A09F068
:1022A00090CF8091450690914606892B09F089CF01
:1022B0008091E800877F8093E8008091E80080FFAC
:1022C000FCCF809182018093F1008091E8008E77AD
:1022D000B9CF80914106813209F073CF80914506D4
:1022E00090914606892B09F06CCF8091E800877F9A
:1022F0008093E8000E9452078091430680938201F8
:10230000109232060E94B8105CCF80914106813253
:1023100009F057CF8091E800877F8093E8000E9402
:10232000520780914406809333064BCF809141063B
:10233000813A09F046CF8091E800877F8093E800DA
:102340008091E80080FFFCCF80913306BCCF8038BD
:1023500099F0823809F0C6C1809145068F708730A8
:1023600008F0C0C18093E9008091EB0085FB8827CD
:1023700080F91092E90006C080913D0690913E06DA
:10238000911182609091E800977F9093E80080938C
:10239000F1001092F1008091E8008E779FC18823B0
:1023A00009F48DC1823009F09DC1809143068111ED
:1023B00090C1809145068F702FEF280F263008F0CE
:1023C00091C18093E9002091EB0020FF82C19330FE
:1023D00031F48091EB0080628093EB007AC19091A0
:1023E000EB0090619093EB0021E030E001C0220F00
:1023F0008A95EAF72093EA001092EA008091EB00B8
:102400008860EACF81116EC1109143061F778091D9
:10241000E3008078812B8093E3008091E800877F40
:102420008093E8000E9452078091E80080FFFCCF73
:102430008091E30080688093E30082E0111183E0E3
:1024400080933F064FC18058823008F04BC12091E5
:102450004306309144062C3DE3E03E07A1F583E0BE
:102460008A838AE289834FB7F894DE01139620E0CD
:102470003EE051E2E32FF0E050935700E49120FF5B
:1024800003C0E295EF703F5FEF708E2F90E0EA306F
:10249000C0F0C7968D939D932F5F243159F74FBF9E
:1024A0008091E800877F8093E8006AE270E0CE01C7
:1024B00001960E94FE078091E8008B778093E800E8
:1024C00011C1C096E7CF8091450690914606432FF3
:1024D00055274330510509F44AC078F5413051057C
:1024E00009F47AC08BE590E0E0E2FCE0423051056F
:1024F00009F0F8C02091E800277F2093E8002091A0
:102500004706309148068217930708F49C0140E083
:102510002115310509F065C0411163C08091E800C3
:1025200082FDC9CF80913F06882329F2853019F2B8
:102530008091E80083FFF2CFBECF4132510509F40C
:102540003CC04232510509F0CDC08330910508F0FE
:10255000C9C0FC01EE0FFF1FE754FE4F0190F08150
:10256000E02D8A549E4FDC018C9190E01AC03327F5
:1025700021303105D1F02115310561F022303105CE
:1025800009F0B0C0EDE8FCE0E4918E2F90E0EDE8BA
:10259000FCE007C0E5EBFCE0E4918E2F90E0E5EB7A
:1025A000FCE0009709F49EC0A5CFEDE9FCE0E491C2
:1025B0008E2F90E0EDE9FCE0F4CF8330910508F038
:1025C00091C0880F991FFC01E154FE4F0190F081EA
:1025D000E02D89E090E08ECF82E190E0EBE7FCE037
:1025E00089CF80913F06882309F465CF853009F4AF
:1025F00062CF8091E80083FD5ECF8091E80082FD8C
:102600008DCF8091E80080FF83CF9091F30080917F
:10261000F2002115310519F08830910550F041E0A4
:10262000089709F040E08091E8008E778093E800F9
:102630006FCF44914093F1003196215031090196BA
:10264000E8CF803809F04EC08091E800877F809302
:10265000E800809140068093F1009DCE811142C038
:10266000109143061230F0F58091E800877F809347
:10267000E800109340060E945207112311F084E0F5
:1026800005C08091E30087FDFACF81E080933F068B
:1026900042E061EC81E00E94710742E261EC84E07B
:1026A0000E94710742E261EC82E00E94710742E2FF
:1026B00060EC83E00E94710780913F0613C0809117
:1026C0004306813079F481E0933009F080E0809313
:1026D0003E061092E9008091E800877F8093E80031
:1026E0000E9452078091E80083FF0AC08091E800B1
:1026F000877F8093E8008091EB0080628093EB00FD
:10270000AA96E3E00C94FF34109232060E94B810AF
:102710002FEF84E39CE0215080409040E1F700C01F
:10272000000088E19AE00FB6F894A89580936000C5
:102730000FBE90936000FFCF882321F00E94FA0A19
:102740000E947B100895882339F090913206982BCF
:10275000909332060E947B100895882349F19CEFE4
:10276000980F913A80F4EAECF1E020ED31E091919C
:10277000891303C0DF0111971C922E173F07B9F789
:102780000E947B10089590E2980F983050F4877063
:1027900091E001C0990F8A95EAF7892F0E94FA0A01
:1027A000EFCF93E3980F933118F460E00E94641028
:1027B0000895CF93C82F8823A9F08CEF8C0F813A0E
:1027C00000F5EAECF1E0DF018D91C81769F081E0D6
:1027D000A03DB807C9F76C2F88EC91E00E947D08F6
:1027E0000E947B10CF9108958191C81303C0DF012F
:1027F00011971C9281E0E03DF807B1F70E947B1031
:10280000EACF80E28C0F883068F4C77021E030E0B6
:1028100001C0220FCA95EAF780913206822B80937D
:102820003206DECF83E38C0F8331E0F661E08C2F3C
:102830000E946410D7CF1F93CF93DF93182FEB0123
:102840000E94D9138FE99FE00197F1F700C00000C3
:102850002197C1F7812F0E94AD13DF91CF911F9176
:102860000895662339F06AE070E08EE40E941B143C
:1028700081E008956AE070E08BE4F8CF1F93CF9376
:10288000DF93162F8A3039F481E00E94FC14DF9127
:10289000CF911F9108958D3011F480E0F6CFC09153
:1028A000CF03D091D00396E0FE01A9ECB3E00190F4
:1028B0000D929A95E1F7803E90F186E0FE0111922B
:1028C0008A95E9F7C091CF03D091D003111133C09D
:1028D00046E050E0BE0189EC93E00E94A7359E01DE
:1028E0002F513440892B91F52A5F3F4F4091D103FE
:1028F000642F70E0C9010E94C034481B463010F4B8
:10290000240F311D211572E0370710F030E020E070
:10291000215E3B4F3093D0032093CF03B8CFF6E036
:102920008F9FB0011124635D7C4F46E050E0CE01E3
:102930000E949E35C7CF9E012A5F3F4FFE012E1792
:102940003F0731F2808180958193F9CFC90145E03D
:10295000969587954A95E1F741E050E0BA0102C0AB
:10296000660F771F8A95E2F7CB016091210670917F
:102970002206862B972BB9016B5F7F4FE5E076959A
:102980006795EA95E1F702C0440F551F6A95E2F793
:10299000842B952B9093220680932106A5CF1F931D
:1029A000CF93DF93EC01162FFE018491811104C0B7
:1029B000DF91CF911F910895612F0E943E142196BF
:1029C000F3CFFF920F931F93CF93DF93EC01F62E7B
:1029D000FC0101900020E9F78F0101501109C01797
:1029E000D10728F0CDB7DEB7E5E00C94FD346F2DAC
:1029F00089910E943E14F3CFCF93382FE091CF03FB
:102A0000F091D003EF51F4402091D103622F70E098
:102A1000CF010E94C034281B822F332369F066E067
:102A20000E940B35C82FC15010F4CF91089560E07B
:102A300080E20E943E14F7CF9F01280F311D21151F
:102A4000324018F080E0F0E0E0E08E0F9F2F911D03
:102A5000815E9B4F9093D0038093CF03E6CFB0E08D
:102A6000A0E0E5E3F5E10C94DE346C017B0164E663
:102A700070E088E70E941E328C01E601EC0CFD1C20
:102A800017FD0BC0FE01849164E670E00E948A325B
:102A90008C012196CE15DF0599F70E94003381E065
:102AA0000115110509F080E0CDB7DEB7E8E00C9420
:102AB000FA34CF93C091270680912A068823D1F05B
:102AC0000E947108605A75418F4F9F4F6093230693
:102AD000709324068093250690932606C11108C0A2
:102AE00062E070E08DE698E00E942F15811105C02C
:102AF000C09127068C2FCF91089581E080932706FF
:102B0000F7CFB0E0A0E0E7E8F5E10C94DA34490152
:102B10005A016B017C010E94B3088401A4016A2D53
:102B20007B2D88E090E00E94F33594014A2D5B2DC7
:102B3000B601C70100E20E948335622F84E290E073
:102B40000E94E135CDB7DEB7ECE00C94F634B0E08E
:102B5000A0E0EDEAF5E10C94DA34182FC62FD42F5B
:102B6000822E0091C10300FF50C08091C2038113E7
:102B700008C08091C303861304C08091C4038417E6
:102B800029F08091E20282608093E202E02FE695D4
:102B9000F0E0E455FE4F80818093E002802F8E7F2D
:102BA0008230E9F4ED2FD93708F0E8E7F0E0E35D93
:102BB000FD4FC1112FC02491F22FE22F00FF0FC053
:102BC000809185019091860133E0839FD00111248B
:102BD000AD51BD4F891708F492C00E94AF0D1093FC
:102BE000C203C093C303D093C403882071F0209123
:102BF000C1036091C5037091C603312FAE0180916E
:102C0000C7039091C8030E948115CDB7DEB7ECE0F1
:102C10000C94F634EC2EF12CE4919E2ECE2ED12C79
:102C200026E0129FC00111242FEF30E0B9010E946D
:102C3000C034812F90E0880F991FF5E5F69FA00121
:102C4000F79F500D1124841B950BB82EBB0CB80EAA
:102C5000A9014E195F094C9DC0014D9D900D5C9DD1
:102C6000900D1124F92FCB9DA0011124452F55273C
:102C7000D901A41BB50BAC9DA001AD9D500DBC9D11
:102C8000500D1124D901AB19B1095D01AE9CD001E1
:102C9000AF9CB00DBE9CB00D1124AB2FBB272A1BDF
:102CA0003B0B2C9DD0012D9DB00D3C9DB00D1124F2
:102CB0002B2F62307105A1F050F46115710509F4F4
:102CC0007DCF6130710581F0292FF52F77CF6430EA
:102CD000710569F080F06630710509F46FCFF4CFAB
:102CE0002E2FE92FFB2F6ACF2E2FE52F67CF292F0D
:102CF000FE2FEB2F63CFE92FF92D252F5FCF1196F4
:102D0000EC9311972C931296FC9312978F5F139666
:102D100061CFE1ECF3E043812CE0421B08F440E09A
:102D200021E0628181810E94A7150895E1ECF3E022
:102D300043812CE0420F08F44FEF21E06281818152
:102D40000E94A7150895E1ECF3E0628121E1621B86
:102D500008F460E021E0438181810E94A715089575
:102D6000E1ECF3E0628121E1620F08F46FEF21E012
:102D7000438181810E94A7150895E1ECF3E08181F0
:102D800021E04381628181510E94A7150895E1EC01
:102D9000F3E0818121E0438162818F5E0E94A7156B
:102DA00008958091C503882319F081508093C5034D
:102DB0002091C1033091C2034091C3035091C403D9
:102DC0006091C5037091C6038091C7039091C803B9
:102DD0000E94811508958091C503833018F48F5F98
:102DE0008093C5032091C1033091C2034091C30376
:102DF0005091C4036091C5037091C6038091C703CD
:102E00009091C8030E94811508952091C10320FF6D
:102E100024C0217022602093C1038091E20281606E
:102E20008093E202662381F03091C2034091C30394
:102E30005091C4036091C5037091C6038091C7038C
:102E40009091C8030E94811520E04091C4036091D5
:102E5000C3038091C2030E94A71508958091C10306
:102E60008695815009F481E061E00E94051708957C
:102E700061E081E00E9405170895E1ECF3E083E052
:102E8000808311828FEF828388E783831482A0EE90
:102E9000B2E012968C911297836012968C93758192
:102EA00023E030E04FEF58E760E0868197810E9491
:102EB0008115089590919B0292FB222720F92817F3
:102EC00079F080FB92F990939B0260919A02709145
:102ED0009B0284E090E00E94FF3582E00E94E70BB5
:102EE000089590E080E00E94CB35863E9E4F19F415
:102EF0000E94F20F089580E00895B0E0A0E0E3E8BA
:102F0000F7E10C94DF347901C82F880FDD0B4115F0
:102F10005105A9F0FE0193E0EE0FFF1F9A95E1F72E
:102F2000E55FFE4F81819281815E9D4F208130E07F
:102F30004217530708F49A01A9010E94B435CE0143
:102F40000E944A34D82E8823D1F001151105B9F01A
:102F500083E0CC0FDD1F8A95E1F7FE01E55FFE4FB0
:102F6000438150E00417150708F4A801C55FDE4F40
:102F70006C817D81615E7D4FC7010E94B4358D2DCE
:102F8000CDB7DEB7E7E00C94FB34A5E0B0E0EBECA6
:102F9000F7E10C94DC348D83E62E5A01F22E6801A1
:102FA000809188068A3028F080E02596EAE00C942B
:102FB000F8348D818A30C4F31A8219828A836B8334
:102FC0002C8363E070E0CE0102960E94970889830B
:102FD000E0924301F092560110E000E030E020E082
:102FE00044E050E0BE016F5F7F4F86E00E947D1796
:102FF0008823D1F24E2D50E030E020E0B50187E08B
:103000000E947D17882381F230E020E041E050E00B
:10301000BE016B5F7F4F88E00E947D17882321F2FD
:103020000F2D10E0960150E040E070E060E089E094
:103030000E947D17BACFABE0B0E0E1E2F8E10C947A
:10304000E23488E0E1ECF3E0DE01119601900D92AC
:103050008A95E1F78091E0029091E102A091E2026D
:1030600089879A87AB872B8540918E0250918F027A
:1030700060919002709191023FB7F89480912D0673
:1030800090912E06A0912F06B09130063FBF841B71
:10309000950BA60BB70B84369105A105B10510F46D
:1030A0002223C1F010E000E030E020E04BE050E0EF
:1030B000BE016F5F7F4F85E00E947D17882369F016
:1030C0000E94710860938E0270938F028093900229
:1030D000909391021092E20281E02B96E4E00C942E
:1030E000FE34A4E0B0E0E7E7F8E10C94E23440916C
:1030F0008A0250918B0260918C0270918D022FB7E1
:10310000F89480912D0690912E06A0912F06B091F3
:1031100030062FBF841B950BA60BB70B11E084362E
:103120009105A105B10518F10E943D0E6E5F7F4F1C
:103130008F4F9F4F69837A838B839C8310E000E0DD
:1031400030E020E044E050E0BE016F5F7F4F84E05C
:103150000E947D17182F882351F00E9471086093F8
:103160008A0270938B0280938C0290938D02812F40
:103170002496E4E00C94FE34A1E0B0E0E2ECF8E147
:103180000C94D934762E4A015901680101E010E00F
:103190009E012F5F3F4F50E040E070E060E00E94F2
:1031A0007D17182F882309F440C0F4014081518114
:1031B000628173812FB7F89480912D0690912E062D
:1031C000A0912F06B09130062FBF841B950BA60B44
:1031D000B70B84369105A105B10538F4B701C601D6
:1031E0000E9497089981891701F18701950150E0A4
:1031F00040E070E060E0872D0E947D17B82EB70197
:10320000C6010E94970811E09981981310E01B21D4
:1032100039F00E947108F401608371838283938383
:10322000812F2196EDE00C94F534A701B601C5017C
:103230000E94B435F5CFA2E0B0E0E1E2F9E10C94F0
:10324000DD3482E0E82EF12C07E212E09E012F5FD0
:103250003F4F46E852E063E082E00E94BC18C82E6F
:10326000882339F100E080E01DC0D0909702D00E95
:103270002D2D30E0A90146555D4F7A01E1E0F0E0E7
:10328000EC0FFD1FE00FF11D1081FA019081191B59
:10329000B12E1B149CF0912F17FD90E0191B1111FA
:1032A00018C00F5F909196020917F8F281110E94E1
:1032B000570E8C2D2296E9E00C94F934BA94F7015C
:1032C00080818F5F808360E08D2D0E9431148C2D72
:1032D000E0CF1F5FF70180818150808361E08D2DF9
:1032E0000E9431148C2DDBCFA6E0B0E0EAE7F9E1D3
:1032F0000C94DE346B0186E0E82EF12C00E212E043
:103300009E012F5F3F4F42E852E061E080E00E9463
:10331000BC18882349F096E0FE013196ACE7B2E094
:1033200001900D929A95E1F796E0ECE7F2E0D60174
:1033300001900D929A95E1F72696E8E00C94FA3404
:103340000E945A0E80930A0180910A01882359F045
:103350001092830185E2809384010E94070E8111FF
:103360000E945E33089585E280938301F4CFA8E044
:10337000B0E0EDEBF9E10C94E43466EE7EEF90E022
:1033800080E00E94FF3560E082E090E00E94E1353D
:1033900060E083E090E00E94E13510921B0260E063
:1033A00074E184E090E00E94FF3560E086E090E008
:1033B0000E94E1356FEF87E090E00E94E13540E048
:1033C00050E0BA0188E090E00E94F33560E084E2CA
:1033D00090E00E94E13560E087E190E00E94E135F5
:1033E00060E08CE090E00E94E13560E08DE090E0EC
:1033F0000E94E13519821A821B821C821D821E8264
:103400001F82188648E050E068E170E0CE01019626
:103410000E94D13540E050E0BA0180E290E00E9485
:10342000F33580E00E94FF0E0E94180F40E050E04C
:10343000BA018FE090E00E94F335E7EFF3E01582E8
:103440001682178281E0808384E690E092838183F4
:103450008AE090E09483838340815181628173810B
:1034600083E190E00E94F3352896E2E00C94003569
:1034700028E030E043E060E086E30E9446310895B2
:10348000ACE0B0E0E6E4FAE10C94DE344F83588718
:1034900069877A878B879C878091D203882399F0EC
:1034A0000E94381A80E50E94BE318AEB8A95F1F7B6
:1034B00000C00E94D631887899278038910509F498
:1034C00087C00E94EE310E94070E882309F46BC06A
:1034D0000E9471080091DF011091E0012091E1014B
:1034E0003091E2016B017C01C01AD10AE20AF30AB1
:1034F00097018601083011052105310508F453C0F4
:103500006093DF017093E0018093E1019093E20109
:103510000091E0031091E1032091E2033091E30375
:10352000601B710B820B930B623371058105910552
:1035300080F41092D6031092D5031092D803109203
:10354000D7031092DA031092D9031092DC03109281
:10355000DB031091DF030E945A0E482FBE01695F02
:103560007F4F85ED93E0112309F45FC00E940A0CA0
:103570000091DF031091D2030E945A0E41E04827C8
:10358000BE01695F7F4F89ED93E0011709F450C0D8
:103590000E940A0C86E0FE013796AEEEB3E0019081
:1035A0000D928A95E1F786E0FE013796DE011196CD
:1035B00001900D928A95E1F729813A814B815C81D6
:1035C0006D817E8180E090E02C96E8E00C94FA34E6
:1035D0000E94D6310E94D6317C010E94D63120E073
:1035E000E22AF82A0E94D6318C010E94D63120E0CE
:1035F000022B182B0E94EE31F894B7018091D5036D
:103600009091D6030E94EA0C9093D6038093D50341
:10361000B8018091D7039091D8030E94EA0C90934F
:10362000D8038093D70378944ECF0E94900CA0CFFC
:103630000E94900CAFCFCF93DF93D82FC62F0E945C
:10364000381A8D2F80680E94BE318C2F0E94BE31A7
:103650000E94EE318FEC92E00197F1F700C000007C
:10366000DF91CF910895682F893708F068E760935C
:10367000DD0391E09093DE039091D203992359F0FA
:103680006150811101C064E08FE00E941B1B60E06B
:1036900080E50E941B1B0895FB0180810E94331B63
:1036A00008959091DD03911101C095E0282F880FB6
:1036B000330BA901490F511DCA011816190614F040
:1036C00081E090E00E94331B0895CF93C82F0E94A1
:1036D000381A8C2F0E94BE318FE792E00197F1F7E4
:1036E00000C000000E94D631C82F0E94EE319AE639
:1036F0009A95F1F700C08C2FCF910895CF93DF9367
:103700000E945A0E882309F442C00E943E31269A34
:103710000E94381A6AE58AE30E941B1B2FEF80E79C
:1037200092E0215080409040E1F700C0000082E02C
:103730000E94651B83E00E94651B84E00E94651B5C
:1037400085E00E94651B86E00E94651B60E080E1C9
:103750000E941B1B80E00E94651BD82F81E00E9405
:10376000651BC82F0E94EE31D23419F481E0C130BC
:1037700009F080E081708093D203882341F064E0F7
:103780008FE00E941B1B60E080E50E941B1BDF9105
:10379000CF9108951F920F920FB60F9211242F937D
:1037A0003F934F935F936F937F938F939F93AF93C9
:1037B000BF93CF93DF93EF93FF93D091E900DF7036
:1037C0008091EC00C82FC17080FDC0E81092E90024
:1037D0008091F000877F8093F00078940E94C4105D
:1037E0001092E9008091F00088608093F000CD2B6A
:1037F000CF70C093E900FF91EF91DF91CF91BF911E
:10380000AF919F918F917F916F915F914F913F9178
:103810002F910F900FBE0F901F9018951F920F922F
:103820000FB60F9211242F933F934F935F936F9393
:103830007F938F939F93AF93BF93EF93FF93809169
:10384000E10082FF09C08091E20082FF05C0809103
:10385000E1008B7F8093E1008091DA0080FF24C03B
:103860008091D80080FF20C08091DA008E7F809305
:10387000DA008091D90080FF9DC080E189BD82E19E
:1038800089BD09B400FEFDCF81E080933F068091A1
:103890003106811109C00E9402070E94A30780918E
:1038A000E20084608093E2008091E10080FF17C015
:1038B0008091E20080FF13C08091E2008E7F8093B0
:1038C000E2008091E20080618093E2008091D80064
:1038D00080628093D80019BC85E080933F06809178
:1038E000E10084FF2BC08091E20084FF27C080E1CB
:1038F00089BD82E189BD89B5982F917080FFFBCF8A
:103900008091D8008F7D8093D8008091E1008F7ED8
:103910008093E1008091E2008F7E8093E2008091AD
:10392000E20081608093E20080914006882309F4E0
:1039300047C084E080933F0680913F068091E1007C
:1039400083FF27C08091E20083FF23C08091E100C4
:10395000877F8093E10082E080933F0610924006CB
:103960008091E1008E7F8093E1008091E2008E7F64
:103970008093E2008091E20080618093E20042E067
:1039800060E080E00E9471078091F0008860809381
:10399000F000FF91EF91BF91AF919F918F917F9137
:1039A0006F915F914F913F912F910F900FBE0F90AC
:1039B0001F90189519BC10923F061092310674CFD3
:1039C0008091E30087FD93E090933F06B5CF789414
:1039D0001F921FB61F9211248F939F93AF93BF9393
:1039E00080912D0690912E06A0912F06B091300661
:1039F0000196A11DB11D80932D0690932E06A093D4
:103A00002F06B0933006BF91AF919F918F911F9079
:103A10001FBE1F9018959C014FB7F89480912D06FA
:103A200090912E06A0912F06B09130064FBF821BB9
:103A3000930B08952FB7F89480912D0690912E0640
:103A4000A0912F06B09130062FBF08952F923F927C
:103A50005F926F927F928F929F92AF92BF92CF921E
:103A6000DF92EF92FF920F931F93CF93DF9380919A
:103A70002A06882309F41FC18091280690912906FF
:103A80000E940B1DC29708F4EBC00E941A1D909370
:103A90002906809328068FE194E09093D0038093C9
:103AA000CF030E94070E882309F425C1C091EA03C1
:103AB000DC2F60E08FEA98E00E94CF148091ED0344
:103AC0008F708A3008F009C1805D60E00E943E146A
:103AD00060E08BEA98E00E94CF148091EC038F7035
:103AE0008A3008F0FCC0805D60E00E943E14DD2357
:103AF00009F4FBC060E088EA98E00E94CF148C2FA4
:103B000082958F708A3008F0ECC0805D60E00E9482
:103B10003E148C2F8F708A3008F0E5C0805D60E025
:103B20000E943E148CEF8C0F853308F0DEC060E0FD
:103B300084EA98E00E94CF148C2F8450990BFC01EA
:103B4000E159F74F849160E00E943E1460E08BECF5
:103B500098E00E94CF148091F0030E94BF0C60E0B7
:103B60000E94E1148091F1030E94BF0C60E00E946A
:103B7000E1148091F3030E94BF0C60E00E94E11405
:103B80008091F2030E94BF0C60E00E94E11460E0AB
:103B900082EC98E00E94CF148091DD03811101C076
:103BA00085E00E94BF0C60E001960E94E11460E095
:103BB0008CEB98E00E94CF148091DF03811199C0B3
:103BC00080E360E00E943E1460E088EB98E00E9491
:103BD000CF148091E403811101C084E060E0805D36
:103BE0000E943E146091F7038BED98E00E94CF1481
:103BF000C091F7038091F6030E94780B0E947C0627
:103C00006C2F0E94E1146091F70387ED98E00E9409
:103C1000CF14C091F7038091F4030E947C066C2FAF
:103C20000E94E1146091F70385ED98E00E94CF14A3
:103C3000C091F7038091F8030E947C066C2F0E94CC
:103C4000E1146091F70381ED98E00E94CF14C091D8
:103C5000F7038091FA030E947C066C2F0E94E11406
:103C60008091210690912206892B09F04AC080910B
:103C70002706882301F10E94710800912306109104
:103C800024062091250630912606601B710B820BBD
:103C9000930B6F3F7F4F8F4F9F4768F480912A06A9
:103CA000882349F062E070E08EE199E00E942F15D0
:103CB000811110922706DF91CF911F910F91FF90F4
:103CC000EF90DF90CF90BF90AF909F908F907F90BC
:103CD0006F905F903F902F900895895AF6CE895A41
:103CE00003CF895A13CF895A1ACF81E00E94FC145E
:103CF0002DCF81E366CF60E08EED98E00E94CF1477
:103D0000AFCF80912A06882309F4B1CF8091200695
:103D10008111ADCF0E9459152091210630912206C4
:103D20002115310509F4A3CF80E041E050E0082FD0
:103D300010E01A01082E02C0220C331C0A94E2F78C
:103D4000B10162237323672B11F48F5FF0CF909141
:103D50001F0690FF95C0880F880F880F80937D0104
:103D600010928001895F80937E0183E080938101BE
:103D700024E630E047E050E06BE771E088E70E941E
:103D8000B832892B09F073CFA80125E0440F551FE5
:103D90002A95E1F780911F0680FF84C0EFEFF3E0E2
:103DA00080E2DF011D928A95E9F7A2EBB1E00EEA0D
:103DB00011E086EBC82E81E0D82E97E0592E7724AB
:103DC00073948D91E80129918E01240F352F311DB7
:103DD000215E3B4FE82FF0E0E150FC4F90E080E0A7
:103DE000652C681A872C082E01C0880C0A94EAF703
:103DF0007901A12CE701B9907E01B820662D6A19DE
:103E00006770962E062E000C770BDB2D01C0DD0FA0
:103E10009A94EAF77195619571096770772701C0E7
:103E2000B6946A95EAF7BD2A6081962E9B28908207
:103E3000A39468E0A612DECF0196319688309105F2
:103E400079F6CA16DB0609F0BCCF04E610E020E2E2
:103E500030E04FEF53E060E488E70E94D932892BCD
:103E600009F005CFE101C095D09580912106909190
:103E70002206C823D923D0932206C0932106F7CE69
:103E80008295880F807680937D01980136952795DD
:103E90003695279520938001815E80937E01209343
:103EA000810166CF415E5B4F04E610E020E230E026
:103EB000D2CF82E00E94FE0B0E941A1D9093B9029D
:103EC0008093B80282E08093BA020895A8E0B0E03F
:103ED000ECE6FFE10C94D6348C01DC0114968C9155
:103EE0001497882309F4BEC021E04C9111965C918F
:103EF000119712966C91129713967C9113971596C1
:103F00009C910E94C40F7C01F8018581882309F4EB
:103F10006AC1C70197578038910508F064C1FFE076
:103F2000FE1508F48FC08FEF93E00E94BD3581111C
:103F300089C069E2A62E63E0B62EE1104DC0FE01F5
:103F4000339686E0DF011D928A95E9F75AE0452E07
:103F50007501BFEFEB1AFB0AC5010E94BD358983CD
:103F60001A82882309F46EC0813009F07FC0650190
:103F7000E2E0CE0ED11CC7010E94BD358A838823A2
:103F800009F460C09FEF980F9330A0F5F3E0AF0EF7
:103F9000B11CC6010E94BD358B83882309F452C031
:103FA0001C82DE0111967D01F7012081222381F21E
:103FB000213009F0BAC091818281913009F058C056
:103FC000F2E0EF0EF11C65E070E0893311F460E57A
:103FD00070E00E941B1453C0A11424E0B20691F1BA
:103FE000C5010E94BD35811101C0EA943FEFA31ABB
:103FF000B30AA3CF56018430A1F642E0E42EF12C9F
:1040000056012FEFA21AB20AC6010E94BD35E1E0A7
:10401000F0E0EC0FFD1FEE0DFF1D8083882391F073
:104020008C3741F4E2E0F0E0EC0FFD1FEE0DFF1DD8
:104030001082B7CF3FEFE31AF30A650187E0E81675
:10404000F104F1F680911002877061F0D8011596A5
:104050008C91882339F080919B0282FF03C082E01B
:104060000E94E70B2896E0E10C94F234570199CFB7
:10407000923039F522E0E20EF11C0E94D913FFEFD5
:10408000EF1AFF0A8FE99FE00197F1F700C00000E7
:10409000AFE9BFE01197F1F700C00000EFE9FFE0E2
:1040A0003197F1F700C000008FE99FE00197F1F729
:1040B00000C00000AFE9BFE01197F1F700C00000B9
:1040C00073CF933031F432E0E30EF11C0E94AD1354
:1040D000D6CF943021F08FEFE81AF80AD0CF92E0D3
:1040E000E90EF11C30E020E0B7016F5F7F4FD70190
:1040F00011964C918053990B8A30910558F02150BC
:10410000310908F4BCCFEFE9FFE03197F1F700C0C7
:104110000000F5CF429EF001439EF00D11249C015A
:104120002E0F3F1F842F7B01DFCFE22FF0E0E557FA
:10413000FE4F5490822F86958695869590E0FC01DF
:10414000E558FE4F64902770712C022E02C07594C2
:1041500067940A94E2F731E063227724FC01E55981
:10416000FE4F8490912C022E02C0959487940A945D
:10417000E2F7A1E08A229924FC01E55AFE4FC4909F
:10418000D12C02C0D594C7942A95E2F7B1E0CB2296
:10419000DD246114710419F081EE0E94D913811499
:1041A000910419F086EE0E94D913E9E365E070E00E
:1041B0005E1202C060E570E0852D0E941B14811420
:1041C000910419F086EE0E94AD136114710419F088
:1041D00081EE0E94AD13C114D10409F450CF65E003
:1041E00070E08CE2F6CEF092EB03E092EA03F80185
:1041F000808191819093ED038093EC038581FCE4B1
:10420000EF16FEE7FF0609F476C0C0F53AE4E316C0
:104210003EE7F30609F44CC09BE4E9169EE7F90675
:1042200009F45CC0882331F08091BA02823011F425
:104230000E94591FC7019A9581159F4108F07DC0C2
:10424000F701FF27D80115968C91E13DF10548F063
:10425000E93DF10508F473C0E734BEE7FB0709F454
:10426000B0C0882309F46FC0E054FE47EA30F1057E
:1042700008F069C0EF5DF94C0C945B35ADE4EA16CB
:10428000AEE7FA0609F445C0BEE4EB16BEE7FB064E
:1042900049F6882309F4D6CE8091FA039091FB0366
:1042A0000197181619060CF440C081E090E03DC05B
:1042B000882309F4C7CE8091F70391E08927809382
:1042C000F7034091F7035091F8036091F90370915F
:1042D000FA0383E190E00E94F335B4CE882309F419
:1042E000B1CE8091F8039091F90305969093F9036C
:1042F0008093F803E6CF882309F4A4CE8091F803D5
:104300009091F90305978530910584F785E090E059
:10431000EDCF882309F496CE8091FA039091FB03A8
:104320000196883EE3E09E072CF49093FB03809374
:10433000FA03C7CF87EE93E0F8CFF70183CF682F5A
:104340008E2F0E946410F8018581F6E1EF16FCE7DC
:10435000FF0609F064C0882309F44CC0809132063E
:104360008A7A91E009F490E09093E30169E2811187
:1043700065E388EC91E00E947D080E947B1062CE8C
:1043800080E00E94331B1092E4035CCE4091DD0379
:104390005091E40350FB47F95695537060E070E08C
:1043A0008FE090E098CF81E00E94511B4BCE8FEFC1
:1043B000FBCF8AE0F9CF86EFF7CF9091DF0381E062
:1043C00089270E94890B3ECE8091E403811101C0B0
:1043D00084E08F5F18160CF081E0883008F087E0E9
:1043E0008093E4032FCE8091E403811101C084E027
:1043F0008150F0CF8091E30181110FC089E2EAEC96
:10440000F1E020ED31E09191891303C0DF011197B4
:104410001C922E173F07B9F7B0CF85E3F0CF81117B
:1044200014C3809132068272F701E052F847E531F9
:10443000F10508F063C0E55DF94C0C945B358091A3
:10444000C10380FF1CC0282F2E7F2093C103309111
:10445000C2034091C3035091C4036091C50370919E
:10446000C6038091C7039091C8030E948115809173
:10447000E20281608093E2020E94AF0DE3CD816091
:104480008093C10361E086950E940517DBCD4EE263
:1044900057E168E377E10E94AD08D4CD48E357E1E6
:1044A0006EE277E1F8CF4DEB56E167EC76E1F3CFC2
:1044B00047EC56E16DEB76E1EECF43EA56E160EB77
:1044C00076E1E9CF40EB56E163EA76E1E4CF49E8F3
:1044D00056E166E976E1DFCF46E956E169E876E143
:1044E000DACF41ED56E16BEE76E1D5CF4BEE56E1FA
:1044F00061ED76E1D0CF61E081E0C6CF27E7E2163B
:104500002CE7F20609F460C038E7E3163CE7F3064F
:1045100009F45EC0F8018581E080F180882309F408
:104520009FC0C7010E94650FD82E682FC7010E9447
:104530003F0BB7018D2D0E94570F0E94FC097C0193
:10454000882ED8011596AC90159716969C9092944B
:104550003FE09322809110028770F1F0CA2CAA20CC
:10456000E1F08F2D807F803451F080E28E0D883015
:1045700098F0911004C08F2D807E803269F0809178
:104580009B0282FF09C082E00E94E70B809110022B
:104590008770CC24C3948111C12CBF2CB2942FE01E
:1045A000B222BBE0BB1508F4C3C0EB2DF0E0E05C29
:1045B000F94C0C945B3581E00E94FE0B43E062E015
:1045C00081E00E94BA0B3ECD81E00E94DA0BF6CF6B
:1045D00082E0FBCF83E0E8168CE7F80671F160F427
:1045E000E114ACE7FA06D1F0B1E0EB16BCE7FB064C
:1045F00009F090CF0E948413EBE5EE16ECE7FE067F
:1046000069F1FCE5EF16FCE7FF06F1F02AE5E2169A
:104610002CE7F20609F07ECF81E01DC01092320631
:104620000E94B8103FEF84E39CE0315080409040FE
:10463000E1F700C000000E9460086FEF7FEF90E09C
:1046400080E00E94FF35D6CF80919B0282FB8827B5
:1046500080F991E089270E945A175CCF80E0FBCF58
:10466000C7010E940B0BD82E64CFEF2DEF70DE2E0A
:104670008F2D807F19F0D29490EFD922AA20B9F023
:10468000DD2069F080E28E0D883010F0811009C0C5
:1046900080913206D82AD09232060E947B108E2D4D
:1046A00045C080911A02D82AD0921A02F6CF8E2DD8
:1046B0000E94AD13DD20E1F180E28E0D883010F014
:1046C000811004C08D2D0E94FA0A06C0D0948091FA
:1046D0001A02D822D0921A020E947B1029C0FF2D04
:1046E000FF70DF2E8F2D807F803219F0D29480EF03
:1046F000D822882059F021E0821609F481C0AA202E
:1047000009F48DC0992009F44FC0C9CF80919B0254
:1047100082FD46C0AA20F1F1DD2039F080913206F9
:10472000D82AD09232060E947B1080E00E94D913D2
:10473000AB2DA850BB0B149710F40E942C0ECC206C
:10474000A9F08091100280FD11C0F80115828695B4
:10475000869586950E94FE0BC8010E94661F809177
:1047600010028695869586950E94DA0B20E0D80186
:104770004C9111965C91119712966C911297139629
:104780007C91139714968C91149715969C910E9486
:10479000C40F68CC80E00E94AD13DD2049F292CFB7
:1047A000AA20A1F0911004C08D2D0E94A313C0CFA8
:1047B00031E09312BDCF809119029D2D9823D91617
:1047C00009F4B6CFD82AD0921902B2CF9110B0CF47
:1047D0008D2D0E949C13909119028D2D892329F013
:1047E0008D2D80958923809319028091E4019D2D60
:1047F000982309F49DCFD094D822D092E40198CF89
:10480000AA2029F085E0891508F492CFCDCF94E055
:10481000991508F48DCF8D2D0E949C1389CF992076
:10482000D1F3A9E38A1209C1BFEFE7EEF3E0B1507B
:10483000E040F040E1F700C000008E2D0E94AD1373
:1048400077CF6A2D8E2D0E94641072CF8F2D8370CA
:1048500091F5A1106DCF4E2D429546954770440FAE
:10486000440F8E2D8F70042E01C0880F0A94EAF732
:104870002E2D2071E4FE07C02FE030E001C0220F92
:104880004A95EAF720953F2D3695369533703230AC
:1048900069F050F440911B02313029F0822B8423BF
:1048A0000E94750B45CF842B822BFACF282B809149
:1048B0001B028227F5CF8695AA2011F08F2D8170DB
:1048C000882309F435CF4E2D429546954770440F05
:1048D000440F8E2D8F70042E01C0880F0A94EAF7C2
:1048E0002E2D2071E4FE07C02FE030E001C0220F22
:1048F0004A95EAF720953F2D36953695337032303C
:1049000069F050F44091F603313029F0822B842372
:104910000E94B50B0DCF842B822BFACF282B8091D0
:10492000F6038227F5CF9F2D9F70F92EAA2029F03C
:10493000892F0E94FE0B8E2D38CF8E2D0E949C1346
:104940008F2D0E94DA0BF4CE8E2DA2EF8A16B1F1D4
:10495000A81570F0B0EF8B16D1F0E1EF8E1691F044
:10496000AA2009F45EC091109ACE8F2D8F712AC0B3
:10497000F3EF8F1651F124EF8212F2CF80919B0258
:1049800082FD2FC08F2D8F71AA20D9F21BC0AA20C3
:1049900081F034E0391508F4CBCE2F2D2F7181E052
:1049A00090E001C0880F2A95EAF79091F6038927D5
:1049B000AFCF85E0891508F4BBCEEFCF8F2D8F7177
:1049C000A110BFCF0E94FE0BB3CE80E0AA2009F455
:1049D0009FCF9F2D9F7181E001C0880F9A95EAF7C4
:1049E00097CFAA2099F09F2D9F71F92E892F0E94B1
:1049F000FE0B80919B0282FF07C0A8E0FA9EC001D7
:104A000011248360809310028F2DDCCF81E00E94FF
:104A1000E70BB1E0B91508F08BCE82E00E94E70BFE
:104A200087CE992079F0893341F4EFEFF7EE23E058
:104A3000E150F0402040E1F7FECE8FE19EE4019787
:104A4000F1F7F9CE8F2D8F717CCFB7E7EB16BCE76E
:104A5000FB0609F4B0CDE8E7EE16ECE7FE0609F038
:104A6000B9CD82E0A9CDCF93DF9380910F02807FF3
:104A700009F04DC080910E02882309F448C0E091EE
:104A8000820650914906C0910A02D09109026091B4
:104A90000B0270910C0247E05E17C9F18E2F90E077
:104AA000E49FF0011124E65BF94F2481222391F168
:104AB000489FF001499FF00D1124DF01A65BB94F1B
:104AC00011962C9111972C1325C02C912D1322C0D7
:104AD00015962C91159721111DC012962D913C9180
:104AE000261B370B283C3105A8F480910F028F70EC
:104AF000806180930F02E05BF94F80818F7080614D
:104B0000808389E092E00E94661F0E94010BDF9182
:104B1000CF910895FC013196E770BECFA4E1B0E0DB
:104B2000E4E9F5E20C94DA348C0186E0F801DE0168
:104B30001F9601900D928A95E1F7F8018481E58036
:104B400099E0A92E92E0B92E90910D02911128C002
:104B5000882319F1EE20F1F0C8010E94A10FF82E70
:104B60008823C1F087E0F801D50101900D928A9564
:104B7000E1F780910D02813031F48091090290912A
:104B80000A020E94940F0E9433258F2D6496ECE058
:104B90000C94F634C8010E94661FFF24F394F5CFED
:104BA000D080C18082809380F0900E0220910B0211
:104BB00030910C02A401421B530BFF2009F4D9C011
:104BC000483C510508F092C08823F9F290910A02FE
:104BD00080910F02282F207F09F056C0C91214C0FF
:104BE00090910902D91210C0E11048C08F70806105
:104BF00080930F0289E092E00E94661F80910F026D
:104C0000F8018683F12CC1CFE11038C06C2D8D2DB9
:104C10000E94E3066C2D8D2D0E94E306E82E811183
:104C2000F1CFDF86C88A8F8598890E94940F292F3B
:104C300022952F70243058F49F70223088F09923E9
:104C400099F0F8019681907F79F4FE2C9ECF2A5F2F
:104C50002F70223068F0C8010E94661FEF2CF5CF3C
:104C6000992311F0882389F3805E883070F3F3CFA5
:104C7000803F58F3815F833070F7E7CF80910F0258
:104C8000816080930F02BECFC91207C090910902C4
:104C9000D91203C0EE2009F48DC0C8010E94A10FF3
:104CA000882309F477CFEE2009F474CF80910F02A6
:104CB000803288F02091090230910A0239872887D2
:104CC0009B868A8690910D029C871D868E87CE01D9
:104CD00008960E94661F87E0F801A9E0B2E0019003
:104CE0000D928A95E1F70E94332557CF90910F02DC
:104CF000292F207F51F489E092E00E94661F87E00F
:104D0000F50111928A95E9F77DCF882309F43DCF0B
:104D100080910A028C1110C080910902D8120CC037
:104D2000E1100AC09683C8010E94661F87E0F50162
:104D300011928A95E9F729CFC8010E94A10F882313
:104D400009F428CFEE2009F425CF80910F0280329C
:104D500010F22091090230910A023A8329839C8241
:104D60008B8290910D029D831E828F83CE010196CE
:104D7000B0CF483C5105D0F6882309F40ECFFE2C65
:104D8000EE2009F407CF80910A028C1120C0809197
:104D90000902D8121CC080910F0280FD0FC0982F0D
:104DA000907F61F08683903F31F0982F907F905FE5
:104DB0008F70892B8683C8010E94661F87E0F801E7
:104DC000A9E0B2E001900D928A95E1F7DECEC8012C
:104DD0000E94A10F81117FCF80910F02816080938B
:104DE0000F02C8010E94661FD0CEABE1B0E0EBEF2E
:104DF000F6E20C94E2344E8B5F8B688F798F8A8F4A
:104E00009B8F192F911110921A021D8A86E0FE01C4
:104E10007696DE011F9601900D928A95E1F70A8D34
:104E2000002341F021E04F85588969897A89C801BA
:104E30000E94C40F0B8B1C8B87E0FE013F96DE01A6
:104E4000189601900D928A95E1F7CE0108960E947E
:104E50008E2581110CC087E0FE013896DE01119687
:104E600001900D928A95E1F78C8581110BC017E0B6
:104E70008091820690914906891333C06B96E4E0D5
:104E80000C94FE342091490630E0C90101968770E8
:104E90009927409182064817190699F097E0929F4A
:104EA000D001939FB00D1124A65BB94FFE0131963E
:104EB00001900D929A95E1F7809349060E94010BAB
:104EC000D6CF109232060E94B81010924906109266
:104ED000820687E0E9E0F2E0DF011D928A95E9F7BA
:104EE000C6CF819FC0011124865B994F0E948E25F9
:104EF000882321F28091820690E00196877099279D
:104F000080938206B5CFA6E0B0E0E9E8F7E20C9422
:104F1000E2340E941A1D8C0180911C0290911D02A6
:104F20008017910781F019821A820E941A1D682F3A
:104F300049815A81792F80E090E00E94F5261093F4
:104F40001D0200931C022696E4E00C94FE34ACE0B3
:104F5000B0E0EDEAF7E20C94D6348E010F5F1F4FFC
:104F60008CE0D8011D928A95E9F73801580190E04C
:104F7000C92E91E0D92E44244394512CF6018191FD
:104F80006F010E94FD0C00C086E0882E81E0982E03
:104F9000F401F12CE12C2191A22FA295AF70B0E089
:104FA00090968C9190E02F7002C0959587952A95E8
:104FB000E2F780FD0AC0D5018C9192010E2C01C050
:104FC000220F0A94EAF7822B8C93BFEFEB1AFB0AAD
:104FD00024E0E216F104F9F6F601319780810E948F
:104FE000110D80EA8A95F1F79FEFA91AB90AA6E098
:104FF000CA16A1E0DA0611F6DD24D394F4018191FA
:105000004F010E94FD0C00C03D2D0E2C01C0330F3E
:105010000A94EAF7F80140E051E0DA012D91AD0180
:10502000822F82958F7090E0DC0190968C9190E0B9
:105030002F7002C0959587952A95E2F780FD03C0F1
:105040008081832B80833196B1E046305B0729F75E
:10505000F401319780810E94110DE0EAEA95F1F7A1
:10506000FFEFEF1AFF0A28E0E216F10439F6E9E84B
:10507000F6E098012A5F3F4FF12CD3018D913D015D
:105080009191891729F0DF0111978C93FF24F394F4
:105090002615370591F7C0909902FF2051F181E064
:1050A0008093D2010E941A1D9093D1018093D00168
:1050B0008091D0019091D1010E940B1D0597E8F0DD
:1050C000D12CF601E354FD4F6F0146E050E069E852
:1050D00076E0CF010E94A735892B41F086E0E9E810
:1050E000F6E0D60101900D928A95E1F71092D20177
:1050F00004C08091D2018111DBCF0E94070EE82EFF
:10510000E091990281118DC0F0E0E354FD4F86E0FB
:10511000A0E2B2E001900D928A95E1F766E070E0BE
:1051200080E292E00E94970880931F024091B302B0
:1051300050E06091B20270E066557D4FC8010E9458
:10514000B43589819A81909328028093270262E086
:1051500070E0C8010E94970880932602809029027F
:1051600090902A02A0902B02B0902C028091D30143
:105170009091D401A091D501B091D60188169906DD
:10518000AA06BB06D1F08092D3019092D401A092DE
:10519000D501B092D6010E94070E81110EC00E9467
:1051A0007108861A970AA80AB90A80929202909208
:1051B0009302A0929402B09295028BE0EDE2F2E0AD
:1051C000D80101900D928A95E1F780912D02869584
:1051D00000912E02E0902F02D09030021091370201
:1051E000109237021123A9F010FF0BC0998190FF94
:1051F00015C09091C10391609093C10360E00E943B
:10520000051711FF06C020E04D2D6E2D802F0E9446
:10521000A7158F2D2C96E0E10C94F2340E94FA0D24
:10522000F0CF2FE836E086E0D9011D928A95E9F7A4
:105230000E2F10E003541D4F809188068A30E8F548
:1052400064E779E1C8010E94260D882309F452C061
:105250006BE179E1C8010E94260D882309F44AC058
:1052600061E778E1C8010E94260D882309F442C055
:105270006BE178E1C8010E94260D8823D9F11092D4
:10528000880681E08093D9010091980210E00354D0
:105290001D4F46E050E06FE876E0C8010E94A73558
:1052A000892B09F4B6CF86E0EFE8F6E0D80101904B
:1052B0000D928A95E1F7FE2CACCF8091D7019091A9
:1052C000D8010E940B1D843F914008F0B9CF809116
:1052D000D901882309F49DCF1092D901E091980259
:1052E000F0E0E354FD4F96E0DF011D929A95E9F757
:1052F000F82E8FCF809188068F3F31F08F5F80939B
:1053000088068A3008F4BDCF0E941A1D9093D801F8
:105310008093D701DCCFCDB7DEB7EE970FB6F89408
:10532000DEBF0FBECDBF85B7806885BF85B78068FB
:1053300085BF84B7877F84BF0FB6F894A895809106
:105340006000886180936000109260000FBE80E86A
:1053500090E00FB6F89480936100909361000FBEC7
:105360008DED98E09093C7018093C6010E940207DB
:105370000E94A3078091E20084608093E200789409
:1053800080913F068823A1F01091E9001F70909151
:10539000EC00892F817090FD80E8182B1092E900B5
:1053A0008091E80083FD0E94C4101F701093E900F3
:1053B00082E084BD93E095BD9AEF97BD80936E0027
:1053C00010929202109293021092940210929502FF
:1053D0000E94F20F811102C00E94180F0E94A019B2
:1053E00080910A0192E0811190E09093B20282E0F4
:1053F000C82EC91AC092970290910A018093B302F5
:1054000090910A01809396025EE9852E51E0952ED7
:105410004CE951E060EAE62E61E0F62E8A01940143
:1054200061E070E0D9018D919D01E82FE295EF7068
:10543000F0E0B1A08F706B0101C0CC0C8A95EAF747
:105440009C2D90959B2191A382A18C2982A3F80188
:1054500081918F01E82FE295EF70F0E0B1A08F709D
:105460006B0101C0CC0C8A95EAF79C2D90959B218D
:1054700091A382A18C2982A3EA16FB0699F68FE8F4
:1054800091E00197F1F700C000001091B30264EBC6
:1054900072E0FB018E2F861B811708F467C0809194
:1054A0000A010E94A019809106010E94110D8091AD
:1054B00007010E94110D809108010E94110D809139
:1054C00009010E94110D00E011E046E0E42E41E0E8
:1054D000F42EF80181918F010E94110DE016F10662
:1054E000C1F780910A0196E0811190E090939902B2
:1054F00086E0891B809398020E94070E811102C0EA
:105500000E946133E9E8F6E0ADEBB2E011921D9242
:1055100026E0E539F207D1F70E947117811102C028
:105520000E94B71982E090E00E94BD3580939D02F1
:1055300084E090E00E94CB3590939B0280939A0286
:105540000E94A7278FE39CE90197F1F700C00000B4
:105550000E94A7278091BD0280FF31C06FEF7FEFCF
:1055600090E080E00E94FF350E946008D4012D91F8
:105570004D01822F82958F7090E0DC0190968C9186
:1055800090E02F7002C0959587952A95E2F781707B
:10559000DA019D91AD01292F22952F7030E0D901BC
:1055A00090962C9130E09F7002C0359527959A9582
:1055B000E2F790E020FD92E0892B81936BCF83E0AE
:1055C00090E00E94BD350E94750B8091F6030E9409
:1055D0009D0B0E94070E882309F4ABC180E08093E5
:1055E0001F0680E88093D1030E9418326BE070E0C0
:1055F00082E292E00E942F158823E9F180911F0634
:1056000065E070E081FD97C18DE192E00E942F1569
:10561000882389F16DE070E08BE092E00E942F1505
:10562000882349F10E947108605A75418F4F9F4F3E
:105630006093230670932406809325069093260694
:10564000EFE1F4E080E092E0DF019C011D92215047
:105650003040E1F7F093D003E093CF038FEF9FEF5B
:10566000909322068093210681E080932A068093FE
:1056700027061092200680919C02811176C00E941C
:105680007117811104C00E94B7190E943D1788E06C
:1056900090E00E94C5354B015C0184E290E00E94DD
:1056A000BD35282F30E040E050E060E070E080E061
:1056B00090E000E20E946835282939294A295B29AF
:1056C0002093C1033093C2034093C3035093C40398
:1056D0006093C5037093C6038093C7039093C80378
:1056E0008091E20283608093E2022E7F89F50E941E
:1056F0003D1788E090E00E94C5356B017C0184E293
:1057000090E00E94BD35282F30E040E050E060E09E
:1057100070E080E090E00E946835B22FA32FF42F54
:10572000E52F5B0197018601BC29A12BFE29E32B04
:10573000B093C103A093C203F093C303E093C403E7
:105740006093C503B092C6038093C7039093C803C8
:105750000E94B3088091C10380FF04C060E0869579
:105760000E94051781E080939C020E94070E811120
:1057700002C00E9461330E947E1B0E94070E8111AD
:105780002EC085E89EE090936201809361012DE137
:1057900030E030935D0120935C018DE390E09093C5
:1057A000600180935F0149EC58E050936A01409397
:1057B000690130936501209364019093680180939F
:1057C00067014CE45BE150937201409371013093A7
:1057D0006D0120936C019093700180936F010E9482
:1057E0007117882389F08FE090E00E94C5358B0106
:1057F000862F8F770E94331B001F0027001F137016
:10580000110F102B1093E4030E94710E83E190E0BE
:105810000E94C5358B019C016093F7031093F80338
:105820008093F9033093FA031092FB031092FC0368
:105830001092FD031092FE0383E791E090932C06F3
:1058400080932B0629ECA22E22E0B22E32E0832E8A
:10585000912C80913F06853069F490913E068091AD
:105860003F06853009F46AC0109232060E94B810D3
:105870000E942C0E0E94A7270EE912E090EAE92E62
:1058800091E0F92E2AEA32E067018DEB92E0F8010F
:105890005191DC014D91CD01D6016D916D014623F1
:1058A0002E173F0709F45EC0541791F30E94070EAC
:1058B000282E8DEBC82E82E0D82E612CF601719037
:1058C0006F01D7018D917D017822F80131908F0110
:1058D000371431F13724512C44244394832D8421EF
:1058E000B9F02220A9F059AE6AAE0E941A1D9CAFF1
:1058F0008BAFF1E0FDAF91E0872D842109F490E0BA
:105900009EAF49AD5AAD6BAD7CAD8DAD0E94F52615
:105910005394440C28E05212E1CFF8013197708281
:1059200063943CE06312CACF0E943D0ECC24C39422
:105930001EC082E054CE88E192E068CE80913F069E
:10594000992309F48CCF0E94A727A0EAB1E0EDEBE0
:10595000F2E081919D91892309F06DC4AE16BF06D6
:10596000C1F77BCF5413A2CF0E948327C12C0E9482
:10597000070EE12CD12C8091B302E81608F49FC0E9
:10598000DD2019F00E94570ECD2C4091DA02509183
:10599000DB026091DC027091DD028091DE02909169
:1059A000DF020E94401A2093DA023093DB02409318
:1059B000DC025093DD026093DE027093DF0286E02A
:1059C000EAEDF2E0DE019D9601900D928A95E1F7F5
:1059D00086E0FE01BD96DE01979601900D928A95B4
:1059E000E1F786E0FE01B796DE01119601900D9277
:1059F0008A95E1F786E0FE013196AAEDB2E00190CA
:105A00000D928A95E1F786E0EAEDF2E0DE019D96DF
:105A100001900D928A95E1F786E0FE01BD96DE01C8
:105A2000119601900D928A95E1F70FA518A9912F73
:105A3000902B8091BA02992309F404C1813009F4B2
:105A4000BDC0823009F0F0C00E941A1D9093B902C7
:105A50008093B80286E0FE013196DE0191960190B6
:105A60000D928A95E1F786E0FE01B196DE01D396AC
:105A700001900D928A95E1F786E0FE01F396DE0132
:105A8000119601900D928A95E1F786E0FE0131961C
:105A9000AAEDB2E001900D928A95E1F70E940B10F9
:105AA0008111FEC08091BB021092BB0280FFFBC03F
:105AB0000E943D0E0E94261D0E945915F8C00E2D11
:105AC00010E0F801E256FE4F8081E82FE295EF707A
:105AD000F0E0E0A1F0E08F7002C0F595E7958A95BF
