:100000000C949B060C94E2060C94E2060C94A43229
:100010000C94E2060C94E2060C94E2060C94E206C0
:100020000C94E2060C94E2060C94911C0C944D1C6A
:100030000C9440280C94E2060C94E2060C94E20620
:100040000C94E2060C94E2060C94E2060C94E20690
:100050000C94E2060C946A1D0C94E2060C94E206E1
:100060000C94E2060C94E2060C94E2060C94E20670
:100070000C94E2060C94E2060C94E2060C94E20660
:100080000C94E2060C94E2060C94E2060C94E20650
:100090000C94E2060C94E2060C94E2060C94E20640
:1000A0000C94E2060C94E2060C94E20605010902A7
:1000B000A10185020901A1000509190129081500FE
:1000C0002501950875018102050109300931158165
:1000D000257F95027508810609381581257F9501D0
:1000E00075088106050C0A38021581257F95017572
:1000F000088106C0C00660FF0961A1010962150000
:1001000026FF009520750881020963150026FF006F
:10011000952075089102C005010906A1010507197E
:10012000E029E71500250195087501810295017503
:100130000881010507190029FF150026FF00950613
:1001400075088100050819012905950575019102B9
:10015000950175039101C00000000000000000003F
:10016000000000000000000000000000000000008F
:1001700000000000000000000000007E0F00D4FF1F
:10018000FFFFC70000007800000000000000002A08
:100190002B2800000000000000000000000000000C
:1001A000000029000000002C1E34202122243426C7
:1001B00027252E362D3738271E1F202122232425C0
:1001C000263333362E37381F0405060708090A0B75
:1001D0000C0D0E0F101112131415161718191A1BE7
:1001E0001C1D2F3130232D350405060708090A0B85
:1001F0000C0D0E0F101112131415161718191A1BC7
:100200001C1D2F3130354C00DA0281FFD9F1DB2083
:10021000A4A62EAF00A0C000A1C800AED580A81F24
:10022000D300408D1420007F3F1F643214783C1EA1
:100230001E140A056162636465666768696A6B6CAF
:100240006D6E6F707172737475767778797A3132FA
:100250003334353637383930524542545F2D3D5BA3
:100260005D5C233B27602C2E2F20202700204B0095
:10027000202043004B6579203A2020520020204462
:1002800000303020205300202020202043504900FF
:1002900042616C6C3A00808182838485868788897C
:1002A0008A8B8C8D8E8F9091929394A0A1A2A3A4FF
:1002B000A5A6A7A8A9AAABACADAEAFB0B1B2B3B476
:1002C000C0C1C2C3C4C5C6C7C8C9CACBCCCDCECFB6
:1002D000D0D1D2D3D40000010101010101010101FB
:1002E00002020202020202020203030303030303E7
:1002F00003040404040404040505050505060606B4
:100300000606070707070708080808090909090A70
:100310000A0A0B0B0B0C0C0C0D0D0D0E0E0E0F0F15
:100320000F101011111112121313141415151616A3
:100330001717181819191A1A1B1B1C1D1D1E1E1F12
:100340002020212222232424252626272829292A61
:100350002B2C2D2D2E2F3031323233343536373889
:10036000393A3B3C3D3E3F40414243444546474885
:10037000494A4C4D4E4F50515354555658595A5B5B
:100380005D5E5F616264656668696B6C6D6F7072FB
:10039000737577787A7B7D7E8082838587888A8C67
:1003A0008E8F91939596989A9C9EA0A2A3A5A7A99B
:1003B000ABADAFB1B3B5B7BABCBEC0C2C4C6C9CB92
:1003C000CDCFD1D4D6D8DBDDDFE2E4E7E9EBEEF048
:1003D000F3F5F8FAFDFFFFAA7F55402223252628D2
:1003E000292A2C2D2F3032333536383A3B3D3E40CA
:1003F00042434547494A4C4E5051535557595A5C10
:100400005E6062646668696B6D6F71737577797B26
:100410007D7F81838587898A8C8E90929496989A25
:100420009C9E9FA1A3A5A7A8AAACAEAFB1B3B4B63A
:10043000B8B9BBBCBEBFC1C2C3C5C6C7C9CACBCC95
:10044000CDCED0D1D2D2D3D4D5D6D7D7D8D9D9DA68
:10045000DADBDBDBDCDCDCDCDCDDDDDDDDDCDCDCDD
:10046000DCDCDBDBDBDADAD9D9D8D7D7D6D5D4D305
:10047000D2D2D1D0CECDCCCBCAC9C7C6C5C3C2C1DA
:10048000BFBEBCBBB9B8B6B4B3B1AFAEACAAA8A737
:10049000A5A3A19F9E9C9A98969492908E8C8A89EF
:1004A000878583817F7D7B79777573716F6D6B69CC
:1004B00068666462605E5C5A5957555351504E4CA1
:1004C0004A4947454342403E3D3B3A383635333250
:1004D000302F2D2C2A29282625232200AF00AE29D3
:1004E000001E001F00000020002100220000004C20
:1004F0000014001A00000008001500170000002B6F
:1005000000040016000000070009000A00000001B6
:10051000511D001B000000060019000500300001FD
:1005200000E000E2000000E30091412C4290432DE6
:100530000027002600000025002400230000008979
:10054000001300120000000C0018001C0000002422
:100550000233000F0000000E000D000B000000E54C
:10056000003800370000003600100011003200464D
:1005700000E60001000000E700914128422A00291E
:10058000021E022F00000020022102220200004C65
:100590000214021A02000008021502170200002BC2
:1005A00002040216020000070209020A020000010A
:1005B000001D021B020000060219020502300201A2
:1005C00000E002E2020000E30201000100010087F6
:1005D00002260225020000340223022E00000089B8
:1005E000021302120200000C0218021C0200001F7B
:1005F0000234000F0200000E020D020B020000E5A3
:1006000002380237020000360210021102320201E3
:1006100000E60201000000E7020100010001000104
:10062000003A003B0000003C003D003E000000019D
:100630000001002400000025002600010000000148
:10064000000100210000002200230033020000010D
:100650000001001E0000001F0020002D02250201E5
:1006600000010027000000370001000100010044E4
:1006700000430042000000410040003F00000045F0
:100680000001004F00000052005000010000000176
:1006900000F600F50000005100F4004B00000001DE
:1006A00000010001000000010001004E00260201CF
:1006B000000100010000000100010001004C00C227
:1006C0005C0100010000000100010001000000C306
:1006D0005CC55CC75C0000C95C010001000000C48F
:1006E0005CC65CC85C0000CA5C010001000000013F
:1006F000000100AE5D0000AD5DAC5DAB5DDE5C0099
:100700005C010050000000510052004F000100D277
:100710005CD15CD05C0000CF5CCE5CCD5C000001A5
:100720000001005D5D0000D55CD45CD35C0000A5D9
:100730005DA65DA95D0000A75DA85DAA5D00000142
:100740000001004D0000004B004E004A00DE5C003E
:100750005C010001000000010001002A0001000905
:10076000025B00030100A0FA09040000010301017B
:100770000009211101000122400007058103080042
:100780000A0904010002030000000921110100010F
:100790002222000705820320000107050303200031
:1007A00001090402000103000000092111010001F8
:1007B0002249000705840320000A120100020000FC
:1007C0000008594D00010100010200010C036D00F9
:1007D00074006B0036003400000016034D00650005
:1007E0006E00740061006B006F005F0079006100B3
:1007F0000000040309040000000000003E5B4F5BA2
:100800003E003E6B4F6B3E001C3E7C3E1C00183C85
:100810007E3C18001C577D571C001C5E7F5E1C0030
:1008200000183C180000FFE7C3E7FF000018241879
:100830000000FFE7DBE7FF0030483A060E002629FC
:1008400079292600407F05050700407F05253F00E8
:100850005A3CE73C5A007F3E1C1C0800081C1C3E0A
:100860007F0014227F2214005F5F005F5F00060993
:100870007F017F00006689956A00606060606000AB
:1008800094A2FFA2940008047E04080010207E2099
:10089000100008082A1C0800081C2A0808001E105E
:1008A000101010000C1E0C1E0C0030383E383000AA
:1008B000060E3E0E060000000000000000005F0073
:1008C0000000000700070000147F147F1400242A92
:1008D0007F2A120023130864620036495620500014
:1008E000000807030000001C224100000041221CF8
:1008F00000002A1C7F1C2A0008083E08080000800F
:10090000703000000808080808000000606000005F
:100910002010080402003E5149453E0000427F403D
:1009200000007249494946002141494D33001814DD
:10093000127F10002745454539003C4A494931009E
:1009400041211109070036494949360046494929DC
:100950001E000000140000000040340000000008E9
:10096000142241001414141414000041221408002D
:100970000201590906003E415D594E007C121112D8
:100980007C007F49494936003E41414122007F4178
:1009900041413E007F49494941007F090909010061
:1009A0003E41415173007F0808087F0000417F41AC
:1009B00000002040413F01007F08142241007F4099
:1009C000404040007F021C027F007F0408107F002F
:1009D0003E4141413E007F09090906003E41512147
:1009E0005E007F0919294600264949493200030162
:1009F0007F0103003F4040403F001F2040201F0078
:100A00003F4038403F006314081463000304780437
:100A100003006159494D4300007F414141000204F8
:100A200008102000004141417F000402010204003F
:100A30004040404040000003070800002054547824
:100A400040007F2844443800384444442800384457
:100A500044287F0038545454180000087E090200CE
:100A60001824241C78007F080404780000447D408A
:100A700000002040403D00007E102844000000415E
:100A80007F4000007C04780478007C08040478002F
:100A90003844444438007C182424180018242418AE
:100AA0007C007C08040408004854545424000404C6
:100AB0003F4424003C4040207C001C2040201C007F
:100AC0003C4030403C004428102844004C9090901A
:100AD0007C004464544C440000083641000000008F
:100AE0007700000000413608000002010204020005
:100AF0003C2623263C00000000000000000000000F
:100B000000000000000000F81E030101020C0808AC
:100B1000080808101010101804020206FC0000005B
:100B20000000000000000000000000F01E030101B2
:100B3000030C0808080808080808080C0603010147
:100B400003FE0000000000000000000000000000A4
:100B5000F03E030103060C0C0C08080808080808FE
:100B6000080C060101031EE0000000000000000068
:100B700000000000E0F0F0F0E0ECEEF7F370200091
:100B80007C7C7C7E007E7E7E7F7F7F000080C0E05C
:100B90007E5B4F5BFEC00000C000DCD7DEDEDED730
:100BA000DC00C000000000000000000000000000A9
:100BB0000000000000000000000000000000C02055
:100BC000008060180000C07F0000000000000202EA
:100BD00000000000000000020200000007F8000012
:100BE000000000C020008060100000FF0000000036
:100BF00000000303000000000000000303000000E9
:100C00000003FE0000000000C02000806010000013
:100C1000FF000000000000030300000000000000CF
:100C200000030300000000FF0000000000000000BF
:100C3000000000000F1F3F7F7F7F7F7F3F1E0C0063
:100C40001F1F1F3F003F3F3F7F7F7F00307B7F782C
:100C500030202030787F3B0003000F7F0F0F0F7F85
:100C60000F00030000000000000000000000000072
:100C70000000000000000000000000000007182035
:100C80000007182000001F302030180810202030E6
:100C9000181020202030180810204020301F00009D
:100CA00000000718200007182000001F3020201027
:100CB00008081020203008080810302030180818C4
:100CC00030201F0000000007182000071820000037
:100CD0001F30203018183020301808302030180805
:100CE000081830202038080700000000000000002D
:100CF00000000000000000000000000000000000F4
:100D000000000000000000000000000000000000E3
:100D100000000000000000000000000000000000D3
:100D200000000000000000000000000000000000C3
:100D300000000000000011241FBECFEFDAE0DEBF8C
:100D4000CDBF04B603FE27C080916D0690916E065C
:100D5000A0916F06B09170068730904BA740B04BC2
:100D6000D1F410926D0610926E0610926F061092DA
:100D7000700614BE84B7877F84BF0FB6F894A89519
:100D800080916000886180936000109260000FBEC7
:100D9000E0E0F8E3099511E0A0E0B1E0E8E4FAE66C
:100DA00002C005900D92AE3DB107D9F726E0AEED39
:100DB000B1E001C01D92AD36B207E1F70E9467288D
:100DC0000C94E1340C940000FC01AC014B5F5F4FCC
:100DD0008FEF91E32191822728E030E087FF09C05F
:100DE000880F892721503109C9F7E417F50791F7D2
:100DF0000895880FF7CFE8EDF0E080818E7F808343
:100E00001092E2001092DA001092E100A0EEB0E041
:100E10008C9181608C9380818F77808319BCA7ED42
:100E2000B0E08C918E7F8C9380818F7E8083109236
:100E30001A0408952091E4003091E50095E6A90197
:100E40002091EC00822F817020FF06C08091E80085
:100E500080FF06C080E008952091E80022FD1AC0BE
:100E600080912804882389F0853089F08091EB00F7
:100E700085FD0FC02091E4003091E5004217530733
:100E8000F9F29150E1F684E0089582E0089583E05C
:100E9000089581E00895EF92FF920F931F93CF93EF
:100EA0007C018B010E941A07C82F811117C0809105
:100EB000E80085FD0BC08091E8008E778093E80004
:100EC0000E941A07882399F3C82F08C0F70181915F
:100ED0007F018093F1000150110949F78C2FCF91C8
:100EE0001F910F91FF90EF90089580912A0487FF42
:100EF00013C08091E80082FF06C08091E8008B77E4
:100F00008093E80004C0809128048111F2CF0895F5
:100F1000809128048823D9F38091E80080FFF8CFDE
:100F20008091E8008E77ECCF982F9093E900242FE2
:100F3000762F50E0891731F07091EC002091ED0090
:100F40005091F00021FD07C09F5F973071F78093AB
:100F5000E90081E008953091EB003E7F3093EB0093
:100F60003091ED003D7F3093ED003091EB0031602A
:100F70003093EB007093EC002093ED005093F00061
:100F80002091EE0027FDE0CF80E00895CF92DF9220
:100F9000EF92FF920F931F93CF93DF93C8EDD0E0B2
:100FA00088818F7E8883E7EDF0E080818160808397
:100FB00084E082BF81E080931A0488818E7F8883D9
:100FC00002EE10E0F80110821092DA0081EEC82ED5
:100FD000D12CF601108288818F7788838881806880
:100FE000888388818F7D888319BC10922804109291
:100FF0002904109227041092260490EEE92EF12C79
:10100000F70180818B7F808388818160888342E0C3
:1010100060E080E00E949407F60180818E7F8083EB
:10102000F801808181608083808188608083F701FE
:1010300080818E7F8083888180618883DF91CF91DA
:101040001F910F91FF90EF90DF90CF900895FC01DA
:10105000809130049091310486179707A0F06115B4
:10106000710529F49091E8009E779093E80090E054
:101070006115710551F4911108C08091E80082FF5B
:1010800034C080E00895BC01F2CF80912804882309
:10109000C1F18530C1F18091E80083FD30C08091BD
:1010A000E80082FDEACF8091E80080FFE1CF8091E7
:1010B000F3002091F200382F6115710519F02830E6
:1010C000310558F091E02830310509F090E0209189
:1010D000E8002E772093E800CBCF81918093F10038
:1010E000615071092F5F3F4FE7CF8091280488231B
:1010F00041F0853041F08091E80083FFBECF81E070
:10110000089582E0089583E008950895089508956C
:1011100080911D04089587E797E7909301088093D5
:10112000000888E19AE00FB6F894A89580936000D3
:101130000FBE90936000FFCF2FB7F8946091160414
:101140007091170480911804909119042FBF08958D
:101150009C01FC0132969FEF80E04191461751F0CF
:101160009F3F19F4411101C0982F8F5F8630A9F776
:101170009F3F09F40895290F311D97FD3A95F90114
:1011800062830895FA01811101C0FB010994089559
:10119000E6E2F3E011828281846082830895809187
:1011A0000804982F9E7F61F4817082608093080408
:1011B00080910B04893718F088E780930B04089519
:1011C0008833B0F381708663F1CFAF92BF92DF9224
:1011D000EF92FF920F931F93CF93DF93082F162F59
:1011E000E901E42FF0E0EA52FD4F611110C0E491F3
:1011F0005E2F4E2F4983E8835A83DF91CF911F9151
:101200000F91FF90EF90DF90BF90AF900895E62E82
:10121000F12C4491D42EE42FF0E026E0829FC0010F
:1012200011242FEF30E0B9010E941E34802F90E08E
:10123000880F991F55E5569FD001579FB00D112477
:101240008A1B9B0B982F990F890F5901AE18BF0865
:10125000AE9ED001AF9EB00DBE9EB00D11245B2F8F
:10126000189F80011124012F11275901A01AB10ADA
:10127000AE9E8001AF9E100DBE9E100D112459012F
:10128000A81AB108AE9CC001AF9C900DBE9C900DF9
:101290001124892F9927281B390B2E9FC0012F9FBE
:1012A000900D3E9F900D1124E92F62307105A1F041
:1012B00050F46115710509F49DCF6130710581F01D
:1012C000EB2F512F97CF6430710569F080F06630B5
:1012D000710509F48FCFF4CFE42F4B2F592F8ACF0C
:1012E000E42F412F87CFEB2F542F492F83CF4B2F44
:1012F0005D2DE12F7FCFCF93DF93E3E3F4E0838194
:101300009481A581B681E90188839983AA83BB83EF
:101310001482138216821582DF91CF91089580E0A6
:101320000895E0916F02EB30A4F48AE0E802F00146
:101330001124E65FFE4F0084F185E02D309749F0DF
:1013400022E932E04091710262E772E0809170021E
:1013500009940895EDE5F2E0838980933E01848944
:101360008093550108959091C90292FF06C0282FDD
:1013700028712830F9F4877F846093FF06C0282FF6
:1013800028712831F1F4877E84612091CA0220FF00
:1013900006C0382F38713830D9F4877F816021FF3B
:1013A00006C0282F28712831D1F4877E816194FDF1
:1013B000877E0895282F24712430F9F68B7F88606A
:1013C000DCCF282F2471243101F78B7E8861DDCF9B
:1013D000382F3171313019F78E7F8860E0CF282F98
:1013E0002171213121F78E7E8861E1CFCF93DF9388
:1013F000EC018238910589F1B8F58133910509F442
:1014000092C028F58932910509F486C08A9709F4BB
:1014100091C0C11523E5D20708F0ACC0C11532E573
:10142000D30708F011C1C11540E2D40708F090C0FD
:10143000C11581E0D80730F5C53AD10508F081C063
:10144000C430D105F8F4C130D105E1F040C0853396
:10145000910509F45AC0C997E1F68091C9028370D9
:1014600089F0C0EED0E00EC0833E910599F170F492
:10147000803E910501F1823E910559F68091C902A5
:1014800082FD21C0CE01DF91CF910895863E910566
:1014900061F1873E910571F1843E910509F0B9CF64
:1014A0008091CA0281FFEECF8091C902C7EED0E0E1
:1014B00084FD0DC0E7CF8091C90280FDF4C09091FA
:1014C000CA0290FFDFCFC3EED0E084FFDBCFD0E0D5
:1014D000C0E0D8CF8091C90282FDE8C09091CA02D5
:1014E00090FDBFCF84FFCECFF2CF8091C90283FDA4
:1014F000DDCFC8CF8091C90283FDDBC09091CA02C5
:1015000091FFF0CFC4EED0E0BDCF8091C90285FF3E
:10151000B9CFC9E2D0E0B6CF8091C90285FFB2CF82
:10152000C5E3D0E0AFCF8091C90286FFABCFCAE25E
:10153000D0E0A8CF8091C90286FFA4CFC1E3D0E05C
:10154000A1CFCE01805E9109089708F49BCFBFCF51
:10155000C11591E5D90708F072C0C11520E5D20781
:1015600008F050C0C11530E4D30708F4B0CFDF70E5
:10157000D06A88CFC11546E5D407F0F4C11585E5DA
:10158000D80708F077C0C11594E5D90708F06DC0F9
:10159000CE018370992721E030E002C0220F331F73
:1015A0008A95E2F7C695C69590E2C99FE00111249D
:1015B000C22BD32BDA6866CFC1152AE5D20778F49F
:1015C000C11539E5D30708F060C0C11548E5D40757
:1015D00008F47DCFDC2FCC27C06FD06A53CFCE016B
:1015E00090568115904208F072CF8D2F8F710E9416
:1015F000B30990E0982F882788279F719C012C2B96
:10160000E90141C0CE01E4E096958795EA95E1F7BE
:1016100083702C2F26952695237040E2249F9001FD
:101620001124382B8C2F8370C1E0D0E002C0CC0F86
:10163000DD1F8A95E2F7C22BD32BDC6823CFDC2F8A
:10164000CC27C16FD06A1ECFCE018370992721E0CD
:1016500030E002C0220F331F8A95E2F7C695C69587
:1016600080E2C89FE0011124E6CFDC2FCC27C46FB5
:10167000D06A08CF8C2F0E94B309C82FD0E0DC2F8E
:10168000CC27CC27DF71D062FDCE8C2F8F700E94CB
:10169000B30934E0D695C7953A95E1F7CF709C2F02
:1016A000EC01D069EFCEC9E3D0E0ECCEC2EED0E0E1
:1016B000E9CEC6EED0E0E6CE80915A0281111092BA
:1016C0005A020895809590911B04982390931B04CF
:1016D000089580911B0490915902892B9091580292
:1016E000892B8093E00190915A02992391F0892BE4
:1016F0008093E00120E082EE91E0FC013191CF0186
:1017000031112F5FF1E0883E9F07B9F721110E9448
:101710005C0BE0911304F0911404309731F00280D7
:10172000F381E02D80EE91E00994089580915602B6
:1017300090912502981301C008958F5F8770FACFAA
:10174000990F990F990F890F982F97708695869505
:10175000869523E0829FF0011124EF5FFD4F50E05A
:1017600040E080E0219130E0092E02C036952795B7
:101770000A94E2F721703327042E01C0220F0A9445
:10178000EAF7822B4F5F5F4F4330510559F70895B9
:10179000990F990F990F890F982F977041E001C009
:1017A000440F9A95EAF786958695869593E0899FEA
:1017B000F0011124EF5FFD4F30E020E070E0519127
:1017C000DF011197CB01022E02C0969587950A94EE
:1017D000E2F7817081958527842385278C932F5F7D
:1017E0003F4F2330310559F7089580935B021092E3
:1017F0005902109258020C94690B882321F00E9420
:10180000620B0C94690B0895882339F090911B04A6
:10181000982B90931B040C94690B0895882309F46A
:1018200052C09CEF980F913A78F4E2EEF1E028EE86
:1018300031E09191891303C0DF0111971C922E179B
:101840003F07B9F70C94690B90E2980F983050F469
:10185000877091E001C0990F8A95EAF7892F0E945D
:10186000620BF0CF9BE5980F9330B0F48091FD01AF
:101870009091FE01892B39F11092FE011092FD0129
:10188000E0911304F09114043097E9F00680F78199
:10189000E02D90E080E00994885A8731A0F480918F
:1018A000FF0190910002892B71F0109200021092BA
:1018B000FF01E0911304F0911404309721F00084AB
:1018C000F185E02DE6CF0895CF93C82F8823A1F1AD
:1018D0008CEF8C0F813AF8F4E2EEF1E0DF018D91AC
:1018E000C81761F081E0A83EB807C9F76C2F80EEF9
:1018F00091E00E94A808CF910C94690B8191C813C4
:1019000003C0DF0111971C9281E0E83EF807B1F7B0
:101910000E94690BEBCF80E28C0F883068F4C770AF
:1019200021E030E001C0220FCA95EAF780911B0444
:10193000822B80931B04DFCFCF910895982F92952F
:101940009F7011F0892F94E0282F2695269511F08D
:101950009E5F822F869509F09F5F892F0895CF9310
:10196000C82F809140048C1751F00E949C0860930E
:101970004104709342048093430490934404C093C1
:101980004004CF910895CF93C82F0E949E0C91E000
:10199000833009F090E0892F0E94AF0CC09332048D
:1019A0001092590210925802CF910C94690B8091B9
:1019B0003204982F9670963019F488600C94C30CFA
:1019C000877FFCCF21E030E001C0220F8A95EAF743
:1019D00020958091320482230C94C30C909157027D
:1019E0008095892380935702282F277091F4282F00
:1019F000082E000C330B9217130659F09091CA026F
:101A000092FD07C08595859585950E94E20C109200
:101A10005702089521E030E001C0220F8A95EAF7CD
:101A200080913204822B0C94C30CCF92DF92EF9200
:101A3000FF920F931F93CF93DF93FC01EB019091E3
:101A40004504911101C094E06081718191509B0126
:101A5000092E02C0359527950A94E2F7D901092E7F
:101A600002C0AA0FBB1F0A94E2F76A1B7B0B7183AB
:101A70006083628173818B01092E02C015950795E1
:101A80000A94E2F7D80102C0AA0FBB1F9A95E2F7A9
:101A90006A1B7B0B7383628381E80138BFEF1B07EE
:101AA0002CF0802F003811050CF08FE78D83213842
:101AB0009FEF390774F1203831056CF5922F91951D
:101AC0009C83442319F081958D832C830E949C086C
:101AD0002D81211103C02C812223F9F0609346044B
:101AE00070934704809348049093490480914A047A
:101AF0009BE0980F973120F4080F00934A041D8251
:101B0000DF91CF911F910F91FF90EF90DF90CF90D9
:101B1000089521E8D3CF2FE7D1CFC0904604D090CD
:101B20004704E0904804F09049046C197D098E093F
:101B30009F096436710581059105C0F210924A042F
:101B4000D5CFFC01DB012281338191E821388FEF71
:101B500038072CF0922F203831050CF09FE71296B1
:101B60009C9312972081318121388FEF3807A4F0A0
:101B7000203831059CF413962C931397442339F0A5
:101B8000919512969C931297219513962C931182FE
:101B9000108213821282089521E8EDCF2FE7EBCF58
:101BA000382F20E287FF02C031952DE24AE0832FD3
:101BB000642F0E943E34905D9093F60181110BC01A
:101BC0002093F50120E22093F40120E22093F30119
:101BD00083EF91E00895642F0E943E34905D9093CE
:101BE000F501832F64E60E943E34882361F3805D13
:101BF0008093F401EBCF9C01860F971F37FD07C040
:101C000077FD04C097FF02C08FEF9FE7089577FF2D
:101C1000FDCF97FDFBCF80E090E80895E82FE29597
:101C2000EF70F0E031A1282F2F7081E090E001C02B
:101C3000880F2A95EAF7382B31A392A18095892342
:101C400082A30895E82FE295EF70F0E031A1282FEC
:101C50002F7081E090E001C0880F2A95EAF7982F55
:101C60009095932391A392A1892B82A30895CF925B
:101C7000DF92EF92FF920F931F93CF93DF937C013C
:101C80006B018091600601E010E08A3010F40AE0F8
:101C900010E0C1E0D0E0F89466E676E0C701F60116
:101CA00009957894811104C021960C171D074CF4F6
:101CB000DF91CF911F910F91FF90EF90DF90CF9028
:101CC0000895CC9F9001CD9F300D300D112490E0F0
:101CD00080E045E34A95F1F70000019682179307EB
:101CE000C1F7D9CF9C0184E08093E9009FEF8091F8
:101CF000E800915085FD06C085ED8A95F1F700005A
:101D00009111F5CF8091E80085FF0CC050E040E0D4
:101D100066E070E0C9010E944B078091E8008E7771
:101D20008093E8000895CF93DF93EC0181E08093E6
:101D3000E9008FEF9091E800815095FD06C095ED88
:101D40009A95F1F700008111F5CF8091E80085FFA9
:101D500014C050E040E068E070E0CE010E944B0704
:101D60008091E8008E778093E80088E0FE01AEE184
:101D7000B4E001900D928A95E1F7DF91CF9108953B
:101D800060919A018091080480FF20C080919901A0
:101D900043E0849FC0011124875D9C4F539A2BB16F
:101DA000277F3BB138605FB7F894FC01649FE00D7A
:101DB000F11D1124BF0168177907D1F45FBF8FE5CA
:101DC00094E00197F1F700C00000089580919B0115
:101DD00090919C0123E0829FF0011124E75DFC4F6C
:101DE0008917A0F61182108212828F5F3396F8CF86
:101DF000FC014191CF01E8E03BB9000000C047FF82
:101E00002BB9440F000000C000C000C02BB900C0B7
:101E1000EA9591F7D0CFEF92FF920F931F93CF9354
:101E2000DF93EC018C81811109C081E08C831092D9
:101E3000070492E0909397018093960180919B0113
:101E400090919C0123E0829FF0011124E75DFC4FFB
:101E5000891768F110E003E060919D01161768F1A1
:101E60000E94C00E8091960120910704280F2093B4
:101E7000070490919701980F90939701191654F4C5
:101E8000022E000C330B40919D014150550B24173D
:101E9000350734F0819580939601813009F41C82D6
:101EA000DF91CF911F910F91FF90EF9008951182D4
:101EB000108212828F5F3396CBCFE12EF12C70E02F
:101EC000C7010E944C3420919B01820F482F50E0A3
:101ED00020910704022E000C330BE216F306D4F017
:101EE00020919701022E000C330B2E153F0594F024
:101EF000809F90011124275D3C4F40910B0449378E
:101F000008F048E760910A04809109040E94E508FE
:101F10001F5FA2CFFA01EE0FFF1FE40FF51FE75D71
:101F2000FC4F118210821282F3CFEF92FF921F9327
:101F3000CF93DF93EC0110E0EE24EA94F12C609152
:101F40009D01161770F00E94C00E9A818C8190FF3F
:101F50002AC08F5F8C83DF91CF911F91FF90EF900C
:101F6000089520919B01422F410F5527551FCA010B
:101F70009A01220F331F280F391F275D3C4F4091D4
:101F80000B04493708F048E770E0C7010E944C3461
:101F9000962F8C8160910A04199F800D11240E9454
:101FA000E5081F5FCCCF8150D5CF9091080490FFFA
:101FB00014C090919B0120919C0133E0939FF0010C
:101FC0001124E75DFC4F921710F00C94C00E818332
:101FD000608342839F5F3396F6CF0895CF93DF935C
:101FE00000D00F92CDB7DEB79091080490FF0DC0DE
:101FF000493708F048E79E012F5F3F4F0E94E508F0
:102000004B8169818A810E94D50F0F900F900F90AC
:10201000DF91CF910895CF93DF93EC01E8E0F4E0F6
:10202000438162818C810E94EE0F8C818F5F8C8353
:10203000DF91CF910895CF93DF93EC01EC81F0E035
:10204000E552FC4F4491E8E0F4E0628181810E9416
:10205000EE0F8C818F5F8C83DF91CF910895E8E044
:10206000F4E080818E7F80830E94C808E6E2F3E07E
:102070008281816082832FEF80E792E0215080404F
:102080009040E1F700C000000C94C00E80915C020B
:10209000811118C082E39091E30097FD10C0EFE337
:1020A000FCE93197F1F700C000008150A1F782E010
:1020B00080935C020E94FB061092280403C081E01A
:1020C00080935C0281E090915C02913011F080E09D
:1020D000089508950E944610882351F0E09113045A
:1020E000F0911404309721F00190F081E02D0994D3
:1020F00080E008950F931F930E944610882321F0DB
:102100001F910F910C949C080E949C080091C3029F
:102110001091C4022091C5023091C602600F711F58
:10212000821F931F1F910F91089557985F9A879A66
:102130008F9825E02A95F1F7000089B187988F9A4A
:1021400090EA9A95F1F790E0880F892F881F990BF4
:1021500021E0822781700895CF93DF93809133042B
:10216000C5E28111C2E280913404D0E0882329F0D5
:1021700080913504D5E28111D2E20E94951081113F
:102180000FC08D2F80939901C0939A01CD0F1092AB
:102190009B01C0939C01C0939D01DF91CF91089555
:1021A00080E0F0CF80913304F90180830C94AC106F
:1021B0001F93CF93DF93182FEB010E94640C20979D
:1021C00031F4812FDF91CF911F910C940E0C8FE988
:1021D0009FE00197F1F700C000002197F0CFE2EEF9
:1021E000F1E086E0DF011D928A95E9F7109259022D
:1021F000109258020C94690B1F93CF93DF93CDB7C5
:10220000DEB7AA970FB6F894DEBF0FBECDBF8AE245
:1022100094E02091F100DC012D93CD01B4E08233F4
:102220009B07B9F780912B04833009F472C0B8F48E
:10223000813009F449C0823009F4B5C08091E800CA
:1022400083FF8DC280912A0490912B049A3008F06C
:1022500086C2E92FF0E0ED51FB4C0C9460348A30DB
:1022600009F490C08B3009F471C0893039F780913E
:102270002A04813219F780912E0490912F0400973F
:1022800011F00297D9F68091E800877F8093E800EB
:102290008091E80082FF38C09091F3008091F200B5
:1022A000029731F48091F100813011F0863021F4F1
:1022B0008091F10080931D048091E8008B778093DA
:1022C000E8000E947507BACF80912A04813A09F08C
:1022D000B5CF8091E800877F8093E80080912E043D
:1022E00090912F04892B61F468E08EE194E070E016
:1022F0000E9427088091E8008B778093E8009ECFAA
:1023000060E090E080E0F3CF809128048111C0CF9D
:1023100095CF80912A04813A09F090CF80912E04C4
:1023200090912F04892B09F089CF8091E800877F55
:102330008093E8008091E80080FFFCCF80919801B5
:102340008093F1008091E8008E77B9CF80912A04C4
:10235000813209F073CF80912E0490912F04892B44
:1023600009F06CCF8091E800877F8093E8000E949D
:10237000750780912C048093980110921B040E9491
:10238000EF105CCF80912A04813209F057CF809101
:10239000E800877F8093E8000E94750780912D04F4
:1023A00080931C044BCF80912A04813A09F046CFD8
:1023B0008091E800877F8093E8008091E80080FFAB
:1023C000FCCF80911C04BCCF803899F0823809F092
:1023D000C6C180912E048F70873008F0C0C18093F1
:1023E000E9008091EB0085FB882780F91092E900D5
:1023F00006C08091260490912704911182609091EB
:10240000E800977F9093E8008093F1001092F1002C
:102410008091E8008E779FC1882309F48DC18230B6
:1024200009F09DC180912C04811190C180912E04EE
:102430008F702FEF280F263008F091C18093E900AC
:102440002091EB0020FF82C1933031F48091EB00AA
:1024500080628093EB007AC19091EB009061909341
:10246000EB0021E030E001C0220F8A95EAF72093CB
:10247000EA001092EA008091EB008860EACF8111B7
:102480006EC110912C041F778091E3008078812B1E
:102490008093E3008091E800877F8093E8000E94AA
:1024A00075078091E80080FFFCCF8091E300806891
:1024B0008093E30082E0111183E0809328044FC1F0
:1024C0008058823008F04BC120912C0430912D04AB
:1024D0002C3DE3E03E07A1F583E08A838AE289830D
:1024E0004FB7F894DE01139620E03EE051E2E32F6F
:1024F000F0E050935700E49120FF03C0E295EF70A5
:102500003F5FEF708E2F90E0EA30C0F0C7968D935A
:102510009D932F5F243159F74FBF8091E800877F4B
:102520008093E8006AE270E0CE0101960E942708DD
:102530008091E8008B778093E80011C1C096E7CFC7
:1025400080912E0490912F04432F5527433051053D
:1025500009F44AC078F54130510509F47AC08BE599
:1025600090E0EFE5F7E04230510509F0F8C0209126
:10257000E800277F2093E800209130043091310457
:102580008217930708F49C0140E02115310509F0FA
:1025900065C0411163C08091E80082FDC9CF809180
:1025A0002804882329F2853019F28091E80083FFFE
:1025B000F2CFBECF4132510509F43CC04232510541
:1025C00009F0CDC08330910508F0C9C0FC01EE0FC1
:1025D000FF1FEE52FE4F0190F081E02D81539E4F80
:1025E000DC018C9190E01AC0332721303105D1F005
:1025F0002115310561F02230310509F0B0C0ECEC55
:10260000F7E0E4918E2F90E0ECECF7E007C0E2EF0A
:10261000F7E0E4918E2F90E0E2EFF7E0009709F405
:102620009EC0A5CFEAEDF7E0E4918E2F90E0EAEDB1
:10263000F7E0F4CF8330910508F091C0880F991F1F
:10264000FC01E852FE4F0190F081E02D89E090E01E
:102650008ECF82E190E0EAEBF7E089CF8091280409
:10266000882309F465CF853009F462CF8091E800B2
:1026700083FD5ECF8091E80082FD8DCF8091E800E0
:1026800080FF83CF9091F3008091F20021153105F6
:1026900019F08830910550F041E0089709F040E0CA
:1026A0008091E8008E778093E8006FCF449140934B
:1026B000F1003196215031090196E8CF803809F0B8
:1026C0004EC08091E800877F8093E80080912904C4
:1026D0008093F1009DCE811142C010912C041230E4
:1026E000F0F58091E800877F8093E800109329043B
:1026F0000E947507112311F084E005C08091E3006A
:1027000087FDFACF81E08093280442E061EC81E00C
:102710000E94940742E261EC84E00E94940742E246
:1027200061EC82E00E94940742E260EC83E00E9448
:1027300094078091280413C080912C04813079F48F
:1027400081E0933009F080E0809327041092E90043
:102750008091E800877F8093E8000E947507809150
:10276000E80083FF0AC08091E800877F8093E8003B
:102770008091EB0080628093EB00AA960FB6F894EC
:10278000DEBF0FBECDBFDF91CF911F910895CF93D4
:10279000DF93682F81E06A3019F06D3029F480E012
:1027A000DF91CF910C94561480915E0690915F0654
:1027B00026E0FC01A8E5B6E001900D922A95E1F72C
:1027C000603E08F45AC026E0FC0111922A95E9F710
:1027D000C0915E06D0915F0646E050E0BE0188E5FC
:1027E00096E00E9483349E0128553440892B41F1A4
:1027F000C90145E0969587954A95E1F741E050E09B
:10280000BA0102C0660F771F8A95E2F7CB0160918B
:10281000560470915704862B972BB9016B5F7F4F3D
:10282000E5E076956795EA95E1F702C0440F551FFC
:102830006A95E2F7842B952B909357048093560466
:102840002A5F3F4F40915504642F70E0C9010E94F8
:102850001E34481B463010F4240F311D211572E040
:10286000370710F030E020E0285A3B4F30935F06E6
:1028700020935E06DF91CF910895F6E06F9FB0013F
:1028800011246A50784F46E050E00E946D34A0CF8A
:10289000CF93DF93EC01FE018491811103C0DF919E
:1028A000CF9108950E94C7132196F5CFCF93382F6B
:1028B000E0915E06F0915F06E855F44020915504E2
:1028C000622F70E0CF010E941E34281B822F332319
:1028D00061F066E00E943234C82FC15010F4CF91ED
:1028E000089580E20E94C713F8CF9F01280F311D81
:1028F0002115324018F080E0F0E0E0E08E0F9F2FCD
:10290000911D885A9B4F90935F0680935E06E7CF98
:10291000CF93DF93CDB7DEB768970FB6F894DEBFDD
:102920000FBECDBF40911A0350911B0360911C0351
:1029300070911D0380911E0390911F030E94B31A92
:1029400020931A0330931B0340931C0350931D03E1
:1029500060931E0370931F0386E0EAE1F3E0DE015B
:10296000179601900D928A95E1F786E0FE01379661
:10297000DE01119601900D928A95E1F786E0FE0145
:102980003196DE011D9601900D928A95E1F786E061
:10299000FE013D96DE01539601900D928A95E1F776
:1029A00086E0FE017396DE01119601900D928A95E4
:1029B000E1F786E0FE013196AAE1B3E001900D92C5
:1029C0008A95E1F786E0EAE1F3E0DE0117960190EF
:1029D0000D928A95E1F786E0E4E1F3E0DE011196DD
:1029E00001900D928A95E1F746E050E0BE016F5FDD
:1029F0007F4FCE0107960E948334892B79F0E091B6
:102A00001304F0911404309749F082E080931A0384
:102A10000480F581E02D8AE193E0099510921C0372
:102A200010921D0310921E0310921F0386E0EAE12C
:102A3000F3E0A4E1B3E001900D928A95E1F7689686
:102A40000FB6F894DEBF0FBECDBFDF91CF910895D2
:102A50000F931F93CF93DF93EC01FC0101900020B3
:102A6000E9F78F0101501109C017D10728F0DF9154
:102A7000CF911F910F91089589910E94C713F4CFB0
:102A8000CF92DF92EF92FF920F931F93CF93DF933A
:102A90006C017B0164E670E088E70E94FB30EC018A
:102AA00097FD12C010E000E0F601E00FF11F8491E5
:102AB00064E670E00E947531EC01892B29F40F5F08
:102AC0001F4F0E151F0581F70E94F831CE01DF91CF
:102AD000CF911F910F91FF90EF90DF90CF900895CD
:102AE0008091110490911204911103C091E0892703
:102AF0000895882369F062E070E08DED94E00E9413
:102B00004015892B19F08091110408951092110439
:102B100080911104EBCFCF93C091110480911204E6
:102B20008823D1F00E949C08605A75418F4F9F4FB7
:102B300060930D0470930E0480930F04909310041F
:102B4000C11108C062E070E08BED94E00E94401576
:102B5000892B29F0C09111048C2FCF91089581E029
:102B600080931104F7CFCF93DF93C7EAD2E060E000
:102B7000CE010E94AD342196C11584E0D807B9F783
:102B8000DF91CF9108956F927F928F929F92AF9233
:102B9000BF92CF92DF92EF92FF920F931F93CF934A
:102BA000DF938FEDC82E84E0D82E07ED10E0E8010A
:102BB000C05AD10936011CC0F50185909490692D49
:102BC000C7010E94AD34682DC70101960E94AD3443
:102BD00082E0A80EB11C82E0E80EF11CCE15DF05E4
:102BE00059F780E1680E711C60960C171D0731F0D3
:102BF0007E0180E1E81AF1085301DECF00561F4F35
:102C000080EAC80ED11C073583E0180781F6DF91F2
:102C1000CF911F910F91FF90EF90DF90CF90BF90D9
:102C2000AF909F908F907F906F90089586E290E094
:102C30000C94AD34CF93C82F6FEF811162E283E221
:102C400090E00E94AD346FEFC11168E084E290E043
:102C50000E94AD346FEFC11168E285E290E0CF9140
:102C60000C94AD3480E00E941A1660E070E0CB0155
:102C70000E9416160E94C3150E94B31581E00C94A1
:102C80001A16CF93C091CA02C2FB992790F99817E0
:102C900099F080FBC2F9C093CA026091C90284E036
:102CA00090E00E94AD346C2F82E290E00E94AD343F
:102CB00082E0CF910C94EE0CCF9108950F931F9367
:102CC000CF93DF9320E1629FE001112450E0440F95
:102CD000551FC40FD51F30EA839FC00DD11D11248D
:102CE000CE0187960E949934082F10E0102F0027FC
:102CF000CE0188960E9499349801282BC901DF9152
:102D0000CF911F910F910895462F843038F47A3077
:102D100028F4683018F4672F0C945E1690E080E079
:102D20000895CF92DF92FF920F931F93CF93DF937B
:102D30006C010091320480915B02082BC7E0D0E067
:102D400010E0FC2EC8010C2E02C0959587950A94C0
:102D5000E2F780FD0CC02197A0F7F12C8F2DDF91B9
:102D6000CF911F910F91FF90DF90CF900895B60102
:102D70008C2F0E9484160E94F609019761F3EECF12
:102D8000CF93DF93EC010E949116BE010E9484163E
:102D9000DF91CF910C94F609FC01808191810E9412
:102DA000C016292F2F7092959F7092509E3078F404
:102DB000E92FF0E0E351FB4C0C946034803F19F0B4
:102DC00020F4883E20F481E00895843FE1F380E020
:102DD0000895883EC0F3813FD1F7F5CF822F8695C5
:102DE00086958695089583E290E00E949934823218
:102DF00089F484E290E00E949934883059F485E2A5
:102E000090E00E94993491E0883209F090E0892F97
:102E10008170089580E0FCCFCF92DF92EF92FF9215
:102E20006B017C010E94CF08B701A60188E090E009
:102E3000FF90EF90DF90CF900C94BF34AF92BF9291
:102E4000CF92DF92EF92FF920F931F93CF93DF9376
:102E500000D00F92CDB7DEB7082FF62E142FE22E3A
:102E60009091080490FF3FC0E92FE695AE2FB0E0A7
:102E7000AD54BE4F8C91809326039E7F923009F013
:102E800040C0493708F048E79E012F5F3F4F6F2D44
:102E9000802F0E94E5084B8169818A810E94D50FAD
:102EA00080910904801308C080910A048F1104C026
:102EB00080910B04811729F0809128038260809310
:102EC000280300930904F0920A0410930B04EE20E7
:102ED00051F0609108047091090480910A04909166
:102EE0000B040E940C170F900F900F90DF91CF9161
:102EF0001F910F91FF90EF90DF90CF90BF90AF9018
:102F00000895823019F410910B04CACF863019F459
:102F100000910904C5CF8930D9F3823109F6E25115
:102F20008E2F8170D82EE695F0E0EA52FC4FA590E6
:102F3000B490C12CBB2460919D01C61618F00E946C
:102F4000C00EAECF2C2D30E0A29EC001A39E900DEE
:102F5000B29E900D112470E00E941E34802FD1107B
:102F600016C0860F40919B01420F532F511D9A01AD
:102F7000220F331F240F351F275D3C4F412F193778
:102F800008F048E76F2D0E94E508C394D4CF861B54
:102F9000E9CFE8E0F4E043812CE0421B08F440E094
:102FA00021E0628181810C941E17E8E0F4E0438106
:102FB0002CE0420F08F44FEF21E0628181810C94F4
:102FC0001E17E8E0F4E0628121E1621B08F460E092
:102FD00021E0438181810C941E17E8E0F4E06281D6
:102FE00021E1620F08F46FEF21E0438181810C94AD
:102FF0001E17E8E0F4E0818121E043816281815184
:103000000C941E17E8E0F4E0818121E043816281A5
:103010008F5E0C941E1780910C04882319F0815048
:1030200080930C04609108047091090480910A0453
:1030300090910B040C940C1780910C04833018F4BD
:103040008F5F80930C046091080470910904809153
:103050000A0490910B040C940C17E8E0F4E083E070
:10306000808311828FEF828388E783831482A6E2B4
:10307000B3E012968C911297836012968C936081C4
:103080007181828193810C940C1769EE7EEF90E040
:1030900080E00E94CB3460E082E090E00E94AD349A
:1030A00060E083E090E00E94AD3410925B0260E04B
:1030B00084E090E00E94AD3460E082E290E00E9403
:1030C000AD3460E085E090E00E94AD3460E086E0E1
:1030D00090E00E94AD346FEF87E090E00E94AD3445
:1030E00040E050E0BA0188E090E00E94BF3460E028
:1030F0008DE090E00E94AD3440E050E0BA0188E1FC
:1031000090E00E94BF3460E087E190E00E94AD341F
:1031100040E050E0BA018CE190E00E94BF3470E0E2
:1031200060E080E290E00E94CB3440E050E0BA01E1
:1031300088E190E00E94BF3480E00E941A160E944D
:10314000321640E050E0BA018FE090E00E94BF34B8
:1031500040E050E0BA0183E190E00C94BF34EF927C
:10316000FF920F931F93CF93DF937901C82F880F9E
:10317000DD0B41155105A9F08AE08C9FF0018D9F70
:10318000F00D1124E65FFE4F83819481835A9D4F99
:10319000228130E04217530708F49A01A9010E94E6
:1031A0009034CE010E946A33892B11F50115110567
:1031B000E9F08AE08C9FF0018D9FF00D1124E65F0D
:1031C000FE4F458150E00417150708F4A8018AE076
:1031D0008C9FF0018D9FF00D1124E65FFE4F6681FC
:1031E0007781635A7D4FC7010E94903481E001C00E
:1031F00080E0DF91CF911F910F91FF90EF900895A4
:10320000AF92BF92CF92DF92EF92FF920F931F93F4
:10321000CF93DF9300D000D0CDB7DEB78C83E62EFE
:103220005A01F22E6801809160068A3080F080E0B9
:103230000F900F900F900F90DF91CF911F910F91F2
:10324000FF90EF90DF90CF90BF90AF9008958C816A
:1032500088306CF389836A832B8360933E012093CB
:10326000550110E000E030E020E043E050E0BE0116
:103270006F5F7F4F84E00E94AF188823C1F24E2D0C
:1032800050E030E020E0B50185E00E94AF188823CF
:1032900071F230E020E041E050E0BE016C5F7F4F12
:1032A00086E00E94AF18882311F20F2D10E09601DE
:1032B00050E040E070E060E087E00E94AF18B8CFD7
:1032C0000F931F93CF93DF93CDB7DEB728970FB639
:1032D000F894DEBF0FBECDBF85E0E8E0F4E0DE018C
:1032E000119601900D928A95E1F7809126039091B5
:1032F0002703A09128038E839F83A8872885409168
:10330000BF025091C0026091C1027091C2023FB7EA
:10331000F8948091160490911704A0911804B0912C
:1033200019043FBF841B950BA60BB70B8436910580
:10333000A105B10510F42223C1F010E000E030E057
:1033400020E048E050E0BE016F5F7F4F83E00E94C5
:10335000AF18882369F00E949C086093BF027093A5
:10336000C0028093C1029093C2021092280381E0B0
:1033700028960FB6F894DEBF0FBECDBFDF91CF9178
:103380001F910F9108950F931F93CF93DF9300D058
:1033900000D0CDB7DEB74091BB025091BC02609126
:1033A000BD027091BE022FB7F894809116049091DF
:1033B0001704A0911804B09119042FBF841B950B1A
:1033C000A60BB70B11E084369105A105B10518F1E4
:1033D0000E947A106E5F7F4F8F4F9F4F69837A8371
:1033E0008B839C8310E000E030E020E044E050E07C
:1033F000BE016F5F7F4F82E00E94AF18182F8823B5
:1034000051F00E949C086093BB027093BC028093B1
:10341000BD029093BE02812F0F900F900F900F90DE
:10342000DF91CF911F910F910895EF92FF920F932B
:103430001F93CF93DF9300D000D000D0CDB7DEB77D
:103440007B0101E010E09E012A5F3F4F50E040E029
:1034500070E060E080E00E94AF18182F882309F424
:103460004FC04091B7025091B8026091B90270917B
:10347000BA022FB7F8948091160490911704A09186
:103480001804B09119042FBF841B950BA60BB70B22
:1034900084369105A105B10538F48EE592E00E94CD
:1034A000E4069E81891761F105E010E09E012F5F1F
:1034B0003F4F50E040E070E060E081E00E94AF18D4
:1034C000082F8EE592E00E94E40611E09E81981399
:1034D00010E0102301F10E949C086093B7027093E2
:1034E000B8028093B9029093BA0285E0FE0131964A
:1034F000A2EBB2E001900D928A95E1F711E00BC0CA
:1035000085E0EEE5F2E0DE01119601900D928A95DC
:10351000E1F71111EACF85E0E2EBF2E0D70101908B
:103520000D928A95E1F7812F26960FB6F894DEBFAB
:103530000FBECDBFDF91CF911F910F91FF90EF9004
:10354000089590E080E00E94A734893E9E4F11F4D8
:103550000C94F31680E0089528E030E043E060E04A
:1035600086E30C942330CF92DF92EF92FF920F9379
:103570001F93CF93DF93CDB7DEB72C970FB6F89498
:10358000DEBF0FBECDBF4F83588769877A878B8791
:103590009C8780913304882399F00E94AC1A80E5BF
:1035A0000E949B308AEB8A95F1F700C00E94B330ED
:1035B000887899278038910509F492C00E94CB3011
:1035C0000E944610882309F46BC00E949C08009159
:1035D000F8011091F9012091FA013091FB016B0182
:1035E0007C01C01AD10AE20AF30A97018601083069
:1035F00011052105310508F453C06093F80170935B
:10360000F9018093FA019093FB010091410410911C
:1036100042042091430430914404601B710B820BDF
:10362000930B623371058105910580F41092370484
:1036300010923604109239041092380410923B0410
:1036400010923A0410923D0410923C0410914004F0
:103650000E949510482FBE01695F7F4F86E394E07A
:10366000112309F46AC00E94150D009140041091C5
:1036700033040E94951041E04827BE01695F7F4FE7
:103680008AE394E0011709F45BC00E94150D86E0FF
:10369000FE013796AFE4B4E001900D928A95E1F710
:1036A00086E0FE013796DE01119601900D928A9513
:1036B000E1F729813A814B815C816D817E8180E0D7
:1036C00090E02C960FB6F894DEBF0FBECDBFDF9111
:1036D000CF911F910F91FF90EF90DF90CF900895C1
:1036E0000E94B3300E94B3307C010E94B33020E0CE
:1036F000E22AF82A0E94B3308C010E94B33020E005
:10370000022B182B0E94CB30F894B701809136041D
:10371000909137040E94FB0D9093370480933604F8
:10372000B80180913804909139040E94FB0D909368
:10373000390480933804789443CF0E94A10D95CF2B
:103740000E94A10DA4CFCF93DF93D82FC62F0E9444
:10375000AC1A8D2F80680E949B308C2F0E949B306A
:103760000E94CB308FEC92E00197F1F700C000008F
:10377000DF91CF910895682F893708F068E760934B
:103780003E0491E090933F0490913304992359F0C3
:103790006150811101C064E08FE00E94A31B60E0D2
:1037A00080E50C94A31B0895FB0180810C94BB1B46
:1037B00090913E04911101C095E0282F880F330BA2
:1037C000A901490F511DCA011816190614F081E00C
:1037D00090E00C94BB1BCF93C82F0E94AC1A8C2F87
:1037E0000E949B308FE792E00197F1F700C0000044
:1037F0000E94B330C82F0E94CB309AE69A95F1F719
:1038000000C08C2FCF910895CF93DF930E941B307F
:10381000269A0E94AC1A6AE58AE30E94A31B2FEF46
:1038200080E792E0215080409040E1F700C0000026
:1038300082E00E94EB1B83E00E94EB1B84E00E946D
:10384000EB1B85E00E94EB1B86E00E94EB1B60E017
:1038500080E10E94A31B80E00E94EB1BD82F81E037
:103860000E94EB1BC82F0E94CB30D23419F481E0A8
:10387000C13009F080E0817080933304882351F0D7
:1038800064E08FE00E94A31B60E080E5DF91CF91B0
:103890000C94A31BDF91CF9108951F920F920FB646
:1038A0000F9211242F933F934F935F936F937F93C6
:1038B0008F939F93AF93BF93CF93DF93EF93FF9338
:1038C000D091E900DF708091EC00C82FC17080FDBD
:1038D000C0E81092E9008091F000877F8093F000AB
:1038E00078940E94FC101092E9008091F0008860AA
:1038F0008093F000CD2BCF70C093E900FF91EF9142
:10390000DF91CF91BF91AF919F918F917F916F91F7
:103910005F914F913F912F910F900FBE0F901F908D
:1039200018951F920F920FB60F9211242F933F9369
:103930004F935F936F937F938F939F93AF93BF93B7
:10394000EF93FF938091E10082FF09C08091E20034
:1039500082FF05C08091E1008B7F8093E100809120
:10396000DA0080FF24C08091D80080FF20C08091C1
:10397000DA008E7F8093DA008091D90080FF9DC0AD
:1039800080E189BD82E189BD09B400FEFDCF81E0FF
:103990008093280480911A04811109C00E94FB06BB
:1039A0000E94C6078091E20084608093E2008091CB
:1039B000E10080FF17C08091E20080FF13C080917A
:1039C000E2008E7F8093E2008091E200806180932C
:1039D000E2008091D80080628093D80019BC85E015
:1039E000809328048091E10084FF2BC08091E20045
:1039F00084FF27C080E189BD82E189BD89B5982F08
:103A0000917080FFFBCF8091D8008F7D8093D8008C
:103A10008091E1008F7E8093E1008091E2008F7EB3
:103A20008093E2008091E20081608093E2008091C7
:103A30002904882309F447C084E0809328048091F6
:103A400028048091E10083FF27C08091E20083FF7A
:103A500023C08091E100877F8093E10082E0809322
:103A60002804109229048091E1008E7F8093E10068
:103A70008091E2008E7F8093E2008091E20080617D
:103A80008093E20042E060E080E00E949407809131
:103A9000F00088608093F000FF91EF91BF91AF91AB
:103AA0009F918F917F916F915F914F913F912F9156
:103AB0000F900FBE0F901F90189519BC10922804FC
:103AC00010921A0474CF8091E30087FD93E09093E5
:103AD0002804B5CF78941F921FB61F9211248F939C
:103AE0009F93AF93BF938091160490911704A09178
:103AF0001804B09119040196A11DB11D80931604FC
:103B000090931704A0931804B0931904BF91AF9138
:103B10009F918F911F901FBE1F9018959C014FB7CA
:103B2000F8948091160490911704A0911804B09114
:103B300019044FBF821B930B08952FB7F8948091FF
:103B4000160490911704A0911804B09119042FBF86
:103B500008950E94461081110C949D1D0E947A10B8
:103B6000CB01089560910804669570E04BE050E049
:103B70008BE891E00E947634892B19F481E08093E0
:103B800027030E94A91D9093210380932003809115
:103B9000280384608093280308959091080490FF7F
:103BA0003BC0917081112EC0926090930804809167
:103BB0002803816080932803662351F060910804F4
:103BC0007091090480910A0490910B040E940C17D3
:103BD00060910804669570E04BE050E08BE891E05E
:103BE0000E947634892BA9F00E94C80881E0809356
:103BF000230320E040910B0460910A0480910904A2
:103C00000C941E178C3110F09663CFCF880F982B31
:103C1000CCCF0E94B21DEACF08958091080486950A
:103C2000815009F48BE161E00C94CD1D8091080472
:103C300086958F5F8C3108F081E061E00C94CD1D9A
:103C40009091080490FF07C09695981720F096175A
:103C500010F40C94161E61E00C94CD1D3F924F920F
:103C60005F926F927F928F929F92AF92BF92CF920C
:103C7000DF92EF92FF920F931F93CF93DF93CDB715
:103C8000DEB762970FB6F894DEBF0FBECDBF8C01D2
:103C9000FC0183819481892B31F08081918189237A
:103CA0008F3F09F08FC562960FB6F894DEBF0FBE46
:103CB000CDBFDF91CF911F910F91FF90EF90DF90DB
:103CC000CF90BF90AF909F908F907F906F905F90BC
:103CD0004F903F9008950E949116F82E682F898189
:103CE0009A810E94C80B69817A818F2D0E94841667
:103CF0007C01F8018281882309F457C5C7018251EC
:103D00009F45409708F01CC58FEF93E00E949934BF
:103D1000FEEEEF0E57EA852E52E0952E8823A9F18C
:103D200080915702877009F4BECFF8018281882301
:103D300009F4B9CF8091CA0282FDB5CF82E06296C4
:103D40000FB6F894DEBF0FBECDBFDF91CF911F91AC
:103D50000F91FF90EF90DF90CF90BF90AF909F902A
:103D60008F907F906F905F904F903F900C94EE0CEF
:103D7000811424E09206A1F2C4010E9499348111B9
:103D800001C0EA943FEF831A930AE110F1CF1C823D
:103D90001B82442443944AE0342E74018FEFE81AC6
:103DA000F80AC4010E94993489831A82882309F48D
:103DB000B7CF9FEF980F933030F58A83498292E016
:103DC000890E911CC7010E9499348B83882309F4C2
:103DD000A7CFFE0131967F01F70120812223E9F26E
:103DE000213009F04FC091818281913071F4F2E06D
:103DF000EF0EF11C70E060E0893311F460E570E0D3
:103E00000E94D81009C04701E4CF923049F422E063
:103E1000E20EF11C0E94640C8FEFE81AF80ADCCF66
:103E2000933031F432E0E30EF11C0E940E0CF4CF1B
:103E3000943021F08FEFE81AF80AEECF92E0E90E05
:103E4000F11C30E020E0B7016F5F7F4FF701418147
:103E50008053990B8A30910550F021503109E0F2DE
:103E60008FE99FE00197F1F700C00000F6CF329E86
:103E7000F001339EF00D11249C012E0F3F1F842F63
:103E80007B01E1CFE22FF0E0E957FE4F5490822F03
:103E900086958695869590E0FC01E958FE4F6490E2
:103EA0002770712C022E02C0759467940A94E2F771
:103EB000E1E06E227724FC01E959FE4FA490B12C79
:103EC000022E02C0B594A7940A94E2F7F1E0AF2263
:103ED000BB24FC01E95AFE4FC490D12C02C0D594FA
:103EE000C7942A95E2F721E0C222DD24611471040F
:103EF00019F081EE0E94640CA114B10419F086EE51
:103F00000E94640C39E370E060E0531202C060E587
:103F100070E0852D0E94D810AB2819F086EE0E9423
:103F20000E0C672819F081EE0E940E0CCD2809F4C2
:103F300073CF70E060E08CE263CF81E00E940A0DF5
:103F40000E94D70CEDCE81E00E94E20CF9CF82E016
:103F5000F5CF84EFE81AF10881E090E001C0880F06
:103F6000EA94EAF7F801328126E0EAE1F3E0DE01C3
:103F7000179601900D922A95E1F726E0FE013796FB
:103F8000DE011D9601900D922A95E1F728853323D5
:103F9000A9F0822B8E8786E0FE013D96DE01119608
:103FA00001900D928A95E1F786E0FE013196AAE133
:103FB000B3E001900D928A95E1F7B2CE809582230D
:103FC000E9CFF80182810E94AF0CAACE80E00E9466
:103FD000BB1B10924504A4CE40913E045091450471
:103FE00050FB47F95695537060E070E08FE090E029
:103FF0000E94BF3495CE81E00E94D81B91CE8FEFF6
:10400000FBCF8AE0F9CF86EFF7CF9091400481E0B3
:104010008927D9CF80914504811101C084E08F5F49
:1040200018160CF081E0883008F087E08093450492
:1040300077CE80914504811101C084E08150F0CF9A
:10404000F6E1EF16FCE5FF0609F055C180911B046F
:104050008A7A91E009F490E09093FC0169E2811181
:1040600065E380EE91E00E94A8080E94690B58CE9B
:1040700085E3C4C380911B0482722CECE2162CE50C
:10408000F20609F424C108F098C096ECE9169CE504
:10409000F90609F408C108F069C0F3ECEF16FCE575
:1040A000FF0609F4F6C008F04EC032ECE3163CE51A
:1040B000F30609F4C2C0F8018281E080F180882310
:1040C00009F454C1C7010E949116D82E682FC70168
:1040D0000E94C80BB7018D2D0E9484160E94F6091C
:1040E0007C01882EF801C280B580B2943FE0B322F3
:1040F000809157028770C1F0AC2CCC20B1F08F2D8D
:10410000807F803421F080E28E0D883068F08091CD
:10411000CA0282FD09C082E00E94EE0C8091570223
:104120008770AA24A3948111A12C9F2C92942FE034
:104130009222FBE0F91508F489C1E92DF0E0E55081
:10414000FB4C0C94603494ECE9169CE5F90609F4F8
:10415000A5C049EF57E162E078E1E5ECEE16ECE549
:10416000FE0609F0A8CF0E94C208DACDF9ECEF16DE
:10417000FCE5FF0609F4A1C080F437ECE3163CE54A
:10418000F30609F495C04DEE57E161EE77E198EC46
:10419000E9169CE5F90639F38ECFEAECEE16ECE56C
:1041A000FE0609F48FC04BE058E16CE178E1FBECCE
:1041B000EF16FCE5FF06B9F27ECF21EDE2162CE505
:1041C000F20609F4ADCDC8F48EECE8168CE5F806DD
:1041D00009F485C008F480C0EFECEE16ECE5FE06AD
:1041E00009F480C06EE089E0F0EDEF16FCE5FF0613
:1041F00009F061CF0E94201E93CD24EDE2162CE53C
:10420000F20609F475C068F482EDE8168CE5F8064C
:1042100009F46BC093EDE9169CE5F90609F480CD2D
:104220004ACFE5EDEE16ECE5FE0609F479CDFDE5A5
:10423000EF16FF0609F474CD3ECF8091080480FF8D
:1042400020C08E7F80930804609108047091090457
:1042500080910A0490910B040E940C170E94C808D8
:10426000809128038160809328032FEF30E782E05C
:10427000215030408040E1F700C000000E94C00E95
:104280004FCD81608093080461E086950E94CD1D2A
:1042900047CD4DE05EE166E17EE165CF46E15EE15E
:1042A0006DE07EE160CF42E058E169EF77E15BCFFE
:1042B00041EE57E16DEE77E156CF49EC57E165ED00
:1042C00077E151CF45ED57E169EC77E14CCF4CE117
:1042D00058E16BE078E147CF61E081E0D7CF65E05E
:1042E00082E088CF68E086E085CF61E18FE082CF11
:1042F0006BE182E17FCF9AE5E9169DE5F90691F140
:1043000068F4E114FCE5FF06F1F02EEDE2162CE571
:10431000F20609F0D0CE0E94451802CD3BE5E31627
:104320003DE5F30609F18CE5E8168DE5F80609F0A0
:10433000C2CE8091CA0282FB882780F991E089274A
:104340000E944116B8CE10921B040E94EF109FEFFE
:10435000E4E3FCE09150E040F040E1F700C00000F1
:104360000E948B0881E0ECCF80E0EACFC7010E9479
:10437000A00BD82EAFCE2F2D2F70D22E8F2D807F59
:1043800019F0D29490EFD922CC20B9F0DD2069F059
:1043900080E28E0D883010F0811009C080911B04DE
:1043A000D82AD0921B040E94690B8E2D4DC080919B
:1043B0005902D82AD0925902F6CF8E2D0E940E0CA7
:1043C000DD2009F443C080E28E0D883010F08110AA
:1043D00004C08D2D0E94620B06C0D09480915902BA
:1043E000D822D09259020E94690B30C03F2D3F70F5
:1043F000D32E8F2D807F803219F0D29480EFD82277
:10440000882089F081E0881609F480C0CC2009F466
:104410008AC0BB2009F480C0F801858180FFC5CF28
:104420008F70858379C02091CA0222FF4CC0CC20B6
:1044300009F443C0DD2039F080911B04D82AD092C2
:104440001B040E94690B80E00E94640C292D2850F7
:10445000330B2430310510F40E946A10AA2009F4AD
:1044600022CC8091570280FD1ECCF80112828595E6
:10447000859585950E940A0DC8010E942E1E809187
:10448000570285958595859562960FB6F894DEBF9F
:104490000FBECDBFDF91CF911F910F91FF90EF9095
:1044A000DF90CF90BF90AF909F908F907F906F9054
:1044B0005F904F903F900C94E20C80E00E940E0CB5
:1044C000DD2021F286CFCC20A1F090915A028D2DD3
:1044D000892BB11003C00E94040CB8CFE1E0BE12DA
:1044E000FACF22FDB3CF981709F4B0CF80935A02C8
:1044F000ADCFB11006C00E945C0B8D2D0E94FD0B4C
:10450000A5CFF1E0BF1609F4A1CFF5CFCC2031F053
:1045100025E02B1508F49ACF8D2DDDCF34E03B1527
:1045200008F494CFEACFBB2041F3F9E38F1209C01E
:104530002FEF37EE83E0215030408040E1F700C09C
:1045400000008E2D0E940E0C81CF8F2D837091F56F
:10455000C1107CCF4E2D429546954770440F440FB5
:104560008E2D8F70042E01C0880F0A94EAF72E2D2D
:104570002071E4FE07C02FE030E001C0220F4A9511
:10458000EAF720953F2D369536953370323069F035
:1045900050F440915B02313029F0822B84230E9439
:1045A000F50B54CF842B822BFACF282B80915B0202
:1045B0008227F5CF8695CC2011F08F2D817088232E
:1045C00009F444CF4E2D429546954770440F440F51
:1045D0008E2D8F70042E01C0880F0A94EAF72E2DBD
:1045E0002071E4FE07C02FE030E001C0220F4A95A1
:1045F000EAF720953F2D369536953370323069F0C5
:1046000050F440913204313029F0822B84230E94EF
:10461000C30C1CCF842B822BFACF282B8091320421
:104620008227F5CF9F2D9F70F92ECC2029F0892F5E
:104630000E940A0D8E2D4FCF8E2D0E94FD0B8F2DC7
:104640000E94E20C03CF8E2DE2EF8E16B1F1E81539
:1046500070F0F0EF8F16D1F021EF821691F0CC20A0
:1046600009F45EC0B110A1CE8F2D8F712AC033EF37
:10467000831651F194EF8912F2CF8091CA0282FF22
:104680002FC08F2D8F71CC20D9F21BC0CC2081F090
:10469000E4E0EB1508F4DACE2F2D2F7181E090E0E5
:1046A00001C0880F2A95EAF7909132048927AFCF8D
:1046B000F5E0FB1508F4CACEEFCF8F2D8F71C11036
:1046C000BFCF0E940A0DC2CE80E0CC2009F49FCF5C
:1046D0009F2D9F7181E001C0880F9A95EAF797CFCF
:1046E000CC2099F02F2D2F71F22E822F0E940A0DCF
:1046F0008091CA0282FD07C038E0F39EC0011124F8
:104700008360809357028F2DDCCF81E00E94EE0CF6
:1047100081E08B1508F09ACE82E00E94EE0C96CED6
:10472000BB2059F0893309F00CCF9FEFE7EEF3E09F
:104730009150E040F040E1F702CF8F2D8F7180CF94
:10474000F0E1EF16FFE5FF0609F4F7CB21E1E216F1
:104750002FE5F20609F4FBCBF0924C04E0924B04F7
:10476000F8018081918190934E0480934D04F4EF81
:10477000EF16F10458F029EFE216F10408F4E9CB42
:104780003CEAE3163DE5F30609F41BCCF80182810F
:10479000882349F1F701E55AFD45EA30F10508F0B3
:1047A0004FCCE95FFA4C0C94603430E1E3163FE5FE
:1047B000F30609F4C8CB81E1E8168FE5F80661F647
:1047C00082E0C2CB85E0DE01119601900D928A95C0
:1047D000E1F7F801228189819A8121117CCA0E9426
:1047E000A00BF82E80CAF6E1EF16FCE5FF0609F0F3
:1047F00041CC8091FC0181113BCC89E2E2EEF1E0F9
:1048000028EE31E09191891303C0DF0111971C92CA
:104810002E173F07B9F729CC1F93CF93DF938091D1
:104820002402807FA9F480912102882389F080915D
:104830005602D091250260911F0270912002A09132
:104840002202B0912302C62FC72316E0D81304C05A
:10485000DF91CF911F91089590E0109711F0CF3F15
:1048600019F401968770F2CF189F9001199F300DAF
:104870001124F901EA5DFD4F41814713F2CF4081D8
:104880004613EFCF42814111ECCF438154814A1B43
:104890005B0B483C510528F7809124028F708061A2
:1048A00080932402F901E55DFD4F80818F70806166
:1048B00080838FE192E00E942E1EDF91CF911F91A5
:1048C0000C94960BAF92BF92CF92DF92EF92FF9231
:1048D0000F931F93CF93DF93CDB7DEB761970FB6DA
:1048E000F894DEBF0FBECDBF8C0185E0F801DE017C
:1048F0001D9601900D928A95E1F7F801E2808FE113
:10490000A82E82E0B82E60912202709123026115D8
:10491000710509F432C190911F0240912002892F44
:1049200084238F3F09F429C120813181C380D48041
:10493000F0902102F601E61BF70BFF2009F4E8C016
:1049400080912402582F507FE83CF10508F0ABC05D
:10495000511177C0FE2C431321C092131FC0E110E8
:104960001DC08F70806180932402C5010E942E1E9D
:1049700080912402F80185838F2D61960FB6F894FB
:10498000DEBF0FBECDBFDF91CF911F910F91FF9082
:10499000EF90DF90CF90BF90AF900895CD2829F091
:1049A000822F83238F3F09F003C180E0F82FF1703D
:1049B000DF2E80FF3CC0809156024091250256E0D8
:1049C000841315C02D873E878D859E850E94C01655
:1049D000292F22952F702230F0F0243018F59F7087
:1049E000F1F0F8019581907FD1F4D12C1EC090E0B8
:1049F000589FF001599FF00D1124EA5DFD4F618130
:104A0000361306C06081261303C06281E6120FC010
:104A100001968770D5CF9F7011F0882331F3805EA7
:104A2000883018F3C8010E942E1EFD2CA5CFEE2061
:104A300009F4A2CF80912402816080932402F12C9A
:104A40009BCF431306C0921304C0F801EE2009F473
:104A500079C0C8010E94CC16882309F1EE20F9F034
:104A600080912402803270F020911F023091200248
:104A700038872F831986DB86CA868C87CE010796F6
:104A80000E942E1E86E0F801AFE1B2E001900D9287
:104A90008A95E1F70E940C24FF24F3946DCFC8019E
:104AA0000E942E1EF9CF51110AC08FE192E00E94A0
:104AB0002E1E86E0F50111928A95E9F7C0CF4313C7
:104AC0000FC092130DC0E1100BC0F8018583C8011F
:104AD0000E942E1E86E0F50111928A95E9F74CCFCF
:104AE000C8010E94CC168823D1F2EE20C1F2809139
:104AF0002402803238F220911F02309120023A8342
:104B000029831B82DD82CC828E83CE010196B8CFB1
:104B1000E83CF105F8F6FE2CEE2009F243131FC025
:104B200092131DC08091240280FD10C0982F907FA9
:104B300069F0F8018583903F31F0982F907F905F66
:104B40008F70892B8583C8010E942E1E86E0F80194
:104B5000AFE1B2E001900D928A95E1F70DCFC80167
:104B60000E94CC1681118ECF8091240281608093A7
:104B70002402C8010E942E1EFFCEEE2009F48FCF22
:104B8000C8010E94CC16F82E882309F488CF86E04D
:104B9000F801AFE1B2E001900D928A95E1F78091C2
:104BA0001F02909120020E94C0160E940C24E4CEA5
:104BB00081E08E25FBCE1F93CF93DF93CDB7DEB779
:104BC00067970FB6F894DEBF0FBECDBF4B8B5C8BE3
:104BD0006D8B7E8B8F8B6111109259021A8A198A04
:104BE00085E0FE017396DE011D9601900D928A9577
:104BF000E1F786E0FE013D96DE01179601900D92E9
:104C00008A95E1F7CE0107960E946224882389F0F5
:104C100016E0809156029091250289134BC0679649
:104C20000FB6F894DEBF0FBECDBFDF91CF911F91BD
:104C3000089586E0FE013796DE01119601900D92EF
:104C40008A95E1F78A859B85892B11F38F81988559
:104C500089238F3FE9F22091250230E0C9010196B6
:104C600087709927409156024817190681F41092CF
:104C70001B040E94EF10109225021092560286E04B
:104C8000EFE1F2E0DF011D928A95E9F7C1CF96E0EE
:104C9000929FD001939FB00D1124AA5DBD4FFE01DC
:104CA000319601900D929A95E1F7809325020E942A
:104CB000960BAECF819FC00111248A5D9D4F0E944B
:104CC0006224882309F4ABCF8091560290E00196CC
:104CD00087709927809356029CCF6F927F928F9214
:104CE0009F92AF92BF92CF92DF92EF92FF920F937B
:104CF0001F93CF93DF9331E6E32E36E0F32E570177
:104D000001E011E0712C88248394912CD8018D91BD
:104D10008D010E940E0E00C0E50169905E0126E043
:104D2000C22E21E0D22EF601D0E0C0E04191A42FA6
:104D3000A295AF70B0E090968C9194010C2E01C0BA
:104D4000220F0A94EAF790E04F7002C0959587957C
:104D50004A95E2F780FD87C0622A2196C430D105CA
:104D600029F7F801319780810E94220EA0EAAA95C6
:104D7000F1F7F5018291861519F06082772473941A
:104D8000B1E006301B0711F601E010E0F601819159
:104D90006F010E940E0E00C0C8010C2E01C0880FCA
:104DA0000A94EAF7582FA1E6B6E091E0A92E91E027
:104DB000B92E482F4095F50181915F01282F22954A
:104DC0002F7030E0F90120A19D9130E08F7002C07A
:104DD000359527958A95E2F7BD0161507109852FB8
:104DE000892B20FF02C0842F8923FB0180838081CF
:104DF000981711F077247394F6E0AF16F1E0BF0630
:104E0000D1F6F601319780810E94220E20EA2A9580
:104E1000F1F72196C830D10509F0B8CFC091C8028A
:104E2000772021F181E08093EB010E949D1D9093FA
:104E3000EA018093E9018091E9019091EA010E94E1
:104E40008E1D0597B8F0EC2FF0E0E150FD4F86E69F
:104E500096E0D7012D917D0121938A179B07C9F711
:104E60001092EB0107C02095622277CF8091EB0171
:104E70008111E1CF0E944610182FE091C8028111E4
:104E80008EC0F0E0E150FD4FF89485E0AEE5B2E071
:104E900001900D928A95E1F78EE592E00E94E4067A
:104EA00080935D027894F894C0906302D09064027D
:104EB000E0906502F09066028091EC019091ED0126
:104EC000A091EE01B091EF01C816D906EA06FB06E3
:104ED000D1F0C092EC01D092ED01E092EE01F0929F
:104EE000EF010E94461081110EC00E949C08C61A54
:104EF000D70AE80AF90AC092C302D092C402E0922B
:104F0000C502F092C6027894F89480916E028823CC
:104F100079F180FF0DC08091670280FF3AC09091C7
:104F2000080491609093080460E086950E94CD1D6E
:104F300080916E0281FF09C020E040916A02609179
:104F40006902809168020E941E1780916E0282FFA2
:104F500006C080916D028823F9F00E94B21D8091F5
:104F60006E0283FF03C081E08093230310926E02E0
:104F70007894872DDF91CF911F910F91FF90EF9043
:104F8000DF90CF90BF90AF909F908F907F906F9069
:104F900008950E942F10CCCF0E94C808E0CFA6E64B
:104FA000B6E085E0ED0119928A95E9F7CE2FD0E0C1
:104FB000C150DD4F809160068A30A8F565E17AE145
:104FC000CE010E94370E882309F449C063EC79E1D1
:104FD000CE010E94370E882309F441C060E679E1D2
:104FE000CE010E94370E8823D1F11092600681E035
:104FF0008093F201C091C702D0E0C150DD4F45E07F
:1050000050E066E676E0CE010E948334892B09F4F5
:10501000B0CF85E0E6E6F6E0DE0101900D928A95DC
:10502000E1F7712EA6CF8091F0019091F1010E94DD
:105030008E1D843F914010F68091F201882309F47F
:1050400098CF1092F201E091C702F0E0E150FD4FDD
:1050500095E0DF011D929A95E9F7782E8ACF80912D
:1050600060068F3F31F08F5F809360068A3008F4CE
:10507000BECF0E949D1D9093F1018093F001DCCF83
:105080001F921FB61F9211248F939F93AF93BF93CC
:1050900080911504811113C080911604909117041A
:1050A000A0911804B09119044196A11DB11D8093DF
:1050B000160490931704A0931804B0931904BF9199
:1050C000AF919F918F911F901FBE1F901895CDB7E4
:1050D000DEB7AE970FB6F894DEBF0FBECDBF84B774
:1050E000877F84BF0FB6F894A8958091600088618F
:1050F00080936000109260000FBE80E890E00FB6D1
:10510000F89480936100909361000FBE85B780682A
:1051100085BF85B7806885BF8FE899E09093DF01F0
:105120008093DE010E94FB060E94C6078091E20088
:1051300084608093E2007894809128048823A1F011
:105140001091E9001F709091EC00892F817090FD03
:1051500080E8182B1092E9008091E80083FD0E94FE
:10516000FC101F701093E90082E084BD93E095BDB0
:105170009AEF97BD80936E001092C3021092C40202
:105180001092C5021092C6020E94F316811102C04D
:105190000E9432160E9495108093000180910001B8
:1051A000882309F472C01092990185E280939A01D4
:1051B0000E94461081110E945D32809106010E947A
:1051C000220E809107010E94220E809108010E9408
:1051D000220E809109010E94220E01E011E0D80107
:1051E0008D918D010E94220EB1E006301B07B9F7A8
:1051F0008091000195E0811190E09093C80285E0D4
:10520000891B8093C7020E944610811102C00E9430
:105210006032E1E6F6E08BE696E0AFEFB2E01192A5
:105220001D928E179F07D9F70E94A11A811102C003
:105230000E94451882E090E00E9499348093F40225
:1052400084E090E00E949934182F82E290E00E945E
:105250009934982F812F9093CA028093C9020E949B
:105260006D26EFE3FCE93197F1F700C000000E94E2
:105270006D268091FF0280FF0CC06FEF7FEF90E002
:1052800080E00E94CB340E948B0885E280939901D4
:105290008DCF83E090E00E9499340E94F50B8091BD
:1052A00032040E949E0C91E0833009F090E0892F37
:1052B0000E94AF0C0E944610882309F4B0C280E01F
:1052C0008093EF0280E8809355040E94F5306DE0F2
:1052D00070E08AE192E00E944015892BE9F5809107
:1052E000EF0263E070E081FD9CC287E192E00E94E2
:1052F0004015892B89F56DE070E087E092E00E940F
:105300004015892B49F50E949C08605A75418F4FC2
:105310009F4F60930D0470930E0480930F0490933D
:105320001004E8E5F4E080E092E0DF019C011D92CA
:1053300021503040E1F7F0935F06E0935E068FEF77
:105340009FEF909357048093560481E0809312045A
:10535000809311041092F0028091CB02811138C029
:105360000E94A11A811104C00E9445180E942D18A4
:1053700088E090E00E94A1346093080470930904CF
:1053800080930A0490930B04809128038360809398
:1053900028036E7F71F40E942D1888E090E00E942F
:1053A000A134609308047093090480930A049093D5
:1053B0000B040E94CF080E94C8088091080480FF57
:1053C00004C060E086950E94CD1D81E08093CB02F1
:1053D0000E94041C0E94461081112EC082ED90E1B3
:1053E000909363018093620125E130E030935E0188
:1053F00020935D0185E390E09093610180936001CB
:105400004BE759E050936D0140936C013093680174
:105410002093670190936B0180936A0144ED5BE1F7
:10542000509377014093760130937201209371017C
:1054300090937501809374010E94A11A882389F0CA
:105440008FE090E00E94A1348B01862F8F770E941D
:10545000BB1B001F0027001F1370110F102B109390
:1054600045040E94AC1088E791E090931404809367
:10547000130438E1832E912C8091280400E112E17D
:10548000853009F40FC20E946D26D82E81110E942A
:105490009C0889EA91E09CA78BA745EF52E0DC01CC
:1054A0002FEF32E010E000E0B02EF901F1909F0103
:1054B0008D91F822FA018191AF018F1509F403C291
:1054C0008F25C12CEE24E394982F9E2109F4F6C178
:1054D0000E944610882399F0C9A2BAA2FE2081E05A
:1054E00009F480E08BA30E949D1D8160782F9DA30D
:1054F0008CA349A15AA16BA18DA10E94DB25F801C3
:10550000EB50FD4F8081E826E082809127038823BD
:1055100009F464C080912603E0910804E695E81B35
:10552000E0932203823009F0E5C1F0E0E05DFD4F39
:10553000E4910E2F10E02BE1E22E20E1F22E80917B
:105540002303882361F0109223030E94A91D9093E6
:1055500021038093200310922503109224030E94BC
:10556000A91DE0912003F09121039C012E1B3F0B0C
:105570002F3F3F4798F52091CE022223B1F01092A1
:10558000CE022091CC023091CD02821B930B8F3F33
:105590009F4758F4205D3A483093CD022093CC02C7
:1055A00080912803886080932803A0902403B09002
:1055B0002503E00FF11FF0932103E093200380E225
:1055C00093E0F70109958091240390912503892B9D
:1055D00029F4AB2819F081E08093CE028091120467
:1055E000882351F18091F1029091F2020E948E1D68
:1055F000C29708F0AEC1209156043091570421158E
:10560000310509F058C2809111048823A9F00E9445
:105610009C0800910D0410910E0420910F0430910C
:105620001004601B710B820B930B6F3F7F4F8F4FEA
:105630009F4710F40E947015D1100E948B150E9494
:1056400088140E946A109091F302891721F00E9439
:105650006A108093F30280912804843009F4FDC21B
:105660000E944610882309F407CF0E949C082091CD
:105670000F0321116FC000910B0310910C032091B7
:105680000D0330910E036B017C01C01AD10AE20AAE
:10569000F30A97018601043F11402105310508F402
:1056A00059C060930B0370930C0380930D03909388
:1056B0000E038091090390910A03019690930A03C7
:1056C0008093090319828E010F5F1F4F21E050E084
:1056D00040E060E088E00E940019811106C08091DE
:1056E000090390910A030A97ACF181E080930F03BC
:1056F000809334049981911101C080E08093350436
:105700008091330410E0882329F00E94951011E065
:10571000811112E080913504882309F467C40E9446
:105720009510811165C482E0182B86E290E00E94FA
:105730009934C82ED12CF12CE12CC701B6016C7F15
:10574000612B6C157D058E059F0511F00E941616C4
:105750000E94AC1080913504882309F48DCE0E94FC
:105760009C086B017C018091100390911103A09122
:105770001203B0911303A7019601281B390B4A0BA2
:105780005B0BDA01C9010497A105B10580F119820B
:105790001A821B821C828E010F5F1F4F24E050E093
:1057A00040E060E089E00E9400198823C1F069812F
:1057B0007A8180913A0490913B040E94FB0D909372
:1057C0003B0480933A046B817C8180913C049091EE
:1057D0003D040E94FB0D90933D0480933C04C092D5
:1057E0001003D0921103E0921203F0921303809100
:1057F0003F04882309F440CE80913E04898310E061
:1058000000E020E0AE014F5F5F4F61E08AE00E9460
:105810000019882309F430CE10923F042DCE82E087
:105820004FCD84E192E063CD80912804843031F142
:105830000E9470150E9488141092150430E40FB66F
:10584000F894A895809260000FBE3093600083B7F3
:10585000817F846083BF83B7816083BF789488959C
:1058600083B78E7F83BF0FB6F894A89580916000B0
:10587000886180936000109260000FBE80912704C1
:10588000882381F00E946D26A9EAB1E0EFEFF2E0F3
:1058900081919D91892309F0ADC349E053E04E17F2
:1058A0005F07B1F780912804853009F4BDCF1092CD
:1058B0001B040E94EF100E946A10E5CDC394EE0C09
:1058C000F8E0CF1201CE0F5F1F4F0A30110509F02B
:1058D000EBCD8FEF8EA38FA318A60E949D1D816034
:1058E000782F9AA789A74EA15FA168A58AA50E94D3
:1058F000DB250BCE863059F4F0E0E35DFD4FE491FB
:105900000E2F10E09BE0E92E90E1F92E18CE8930A1
:1059100061F4E695F0E0E65DFD4FE4910E2F10E0B6
:1059200085E9E82E8FE0F82E0ACE00ED17E0A7EC0F
:10593000EA2EA8E0FA2E8F3009F001CEF0E0E95D02
:10594000FD4FE4910E2F10E0BBE0EB2EBFE0FB2EED
:10595000F6CD0E949D1D9093F2028093F10288E59E
:1059600094E090935F0680935E060E944610882321
:1059700009F49CC010914B04012F84E792E00E942F
:10598000481480914E048F708A3008F081C0805D89
:105990000E94C71380E792E00E94481480914D0452
:1059A0008F708A3008F076C0805D0E94C713002394
:1059B00009F476C08DE692E00E944814812F82950A
:1059C0008F708A3008F068C0805D0E94C713812FF5
:1059D0008F708A3008F062C0805D0E94C7138CEF20
:1059E000810F853308F05CC089E692E00E9448147C
:1059F000212F2450330BF901EC5CFD4F84910E9460
:105A0000C71380E992E00E944814809151040E94DB
:105A1000D00D0E942815809152040E94D00D0E9442
:105A20002815809154040E94D00D0E942815809161
:105A300053040E94D00D0E94281587E892E00E942E
:105A4000481480913E04811101C085E00E94D00D70
:105A500001960E94281581E892E00E9448148091E6
:105A60004004811121C080E30E94C7138DE792E0BA
:105A70000E94481480914504811101C084E0805D3A
:105A80000E94C71380911204882309F4BCCDB3CDC2
:105A9000895A7ECF895A89CF895A97CF895A9DCF03
:105AA00081E00E945614ADCF81E3DECF86E992E01B
:105AB0000E944814E7CF8091F00261E070E081110C
:105AC000A2CD082F10E07B01082E02C0EE0CFF1CB7
:105AD0000A94E2F7A9014E215F21452B09F447C042
