:100000000C945A060C9477060C9477060C940831DD
:100010000C9477060C9477060C9477060C9477066C
:100020000C9477060C9477060C94D71A0C94931AB8
:100030000C94FA260C9477060C9477060C947706A9
:100040000C9477060C9477060C9477060C9477063C
:100050000C9477060C94B01B0C9477060C947706DE
:100060000C9477060C9477060C9477060C9477061C
:100070000C9477060C9477060C9477060C9477060C
:100080000C9477060C9477060C9477060C947706FC
:100090000C9477060C9477060C9477060C947706EC
:1000A0000C9477060C9477060C94770605010902E8
:1000B000A10185020901A1000509190129081500FE
:1000C0002501950875018102050109300931158165
:1000D000257F95027508810609381581257F9501D0
:1000E00075088106050C0A38021581257F95017572
:1000F000088106C0C00660FF0961A1010962150000
:1001000026FF009520750881020963150026FF006F
:10011000952075089102C005010906A1010507197E
:10012000E029E71500250195087501810295017503
:100130000881010507190029FF150026FF00950613
:1001400075088100050819012905950575019102B9
:10015000950175039101C00000000000000000003F
:10016000000000000000000000000000000000008F
:1001700000000000000000000000007E0F00D4FF1F
:10018000FFFFC70000007800000000000000002A08
:100190002B2800000000000000000000000000000C
:1001A000000029000000002C1E34202122243426C7
:1001B00027252E362D3738271E1F202122232425C0
:1001C000263333362E37381F0405060708090A0B75
:1001D0000C0D0E0F101112131415161718191A1BE7
:1001E0001C1D2F3130232D350405060708090A0B85
:1001F0000C0D0E0F101112131415161718191A1BC7
:100200001C1D2F3130354C00DA0281FFD9F1DB2083
:10021000A4A62EAF00A0C000A1C800AED580A81F24
:10022000D300408D1420006162636465666768696D
:100230006A6B6C6D6E6F70717273747576777879A6
:100240007A31323334353637383930524542545F9B
:100250002D3D5B5D5C233B27602C2E2F202027004B
:10026000204B00202043004B6579203A202052008B
:100270002020440030302020530020202020204324
:1002800050490042616C6C3A0052543A002F004DC4
:10029000563A004C3A00808182838485868788891B
:1002A0008A8B8C8D8E8F9091929394A0A1A2A3A4FF
:1002B000A5A6A7A8A9AAABACADAEAFB0B1B2B3B476
:1002C000C0C1C2C3C4C5C6C7C8C9CACBCCCDCECFB6
:1002D000D0D1D2D3D40000010101010101010101FB
:1002E00002020202020202020203030303030303E7
:1002F00003040404040404040505050505060606B4
:100300000606070707070708080808090909090A70
:100310000A0A0B0B0B0C0C0C0D0D0D0E0E0E0F0F15
:100320000F101011111112121313141415151616A3
:100330001717181819191A1A1B1B1C1D1D1E1E1F12
:100340002020212222232424252626272829292A61
:100350002B2C2D2D2E2F3031323233343536373889
:10036000393A3B3C3D3E3F40414243444546474885
:10037000494A4C4D4E4F50515354555658595A5B5B
:100380005D5E5F616264656668696B6C6D6F7072FB
:10039000737577787A7B7D7E8082838587888A8C67
:1003A0008E8F91939596989A9C9EA0A2A3A5A7A99B
:1003B000ABADAFB1B3B5B7BABCBEC0C2C4C6C9CB92
:1003C000CDCFD1D4D6D8DBDDDFE2E4E7E9EBEEF048
:1003D000F3F5F8FAFDFF0000000000003E5B4F5B04
:1003E0003E003E6B4F6B3E001C3E7C3E1C00183CAA
:1003F0007E3C18001C577D571C001C5E7F5E1C0055
:1004000000183C180000FFE7C3E7FF00001824189D
:100410000000FFE7DBE7FF0030483A060E00262920
:1004200079292600407F05050700407F05253F000C
:100430005A3CE73C5A007F3E1C1C0800081C1C3E2E
:100440007F0014227F2214005F5F005F5F000609B7
:100450007F017F00006689956A00606060606000CF
:1004600094A2FFA2940008047E04080010207E20BD
:10047000100008082A1C0800081C2A0808001E1082
:10048000101010000C1E0C1E0C0030383E383000CE
:10049000060E3E0E060000000000000000005F0097
:1004A0000000000700070000147F147F1400242AB6
:1004B0007F2A120023130864620036495620500038
:1004C000000807030000001C224100000041221C1C
:1004D00000002A1C7F1C2A0008083E080800008033
:1004E0007030000008080808080000006060000084
:1004F0002010080402003E5149453E0000427F4062
:1005000000007249494946002141494D3300181401
:10051000127F10002745454539003C4A49493100C2
:100520004121110907003649494936004649492900
:100530001E0000001400000000403400000000080D
:100540001422410014141414140000412214080051
:100550000201590906003E415D594E007C121112FC
:100560007C007F49494936003E41414122007F419C
:1005700041413E007F49494941007F090909010085
:100580003E41415173007F0808087F0000417F41D0
:1005900000002040413F01007F08142241007F40BD
:1005A000404040007F021C027F007F0408107F0053
:1005B0003E4141413E007F09090906003E4151216B
:1005C0005E007F0919294600264949493200030186
:1005D0007F0103003F4040403F001F2040201F009C
:1005E0003F4038403F00631408146300030478045C
:1005F00003006159494D4300007F4141410002041D
:1006000008102000004141417F0004020102040063
:100610004040404040000003070800002054547848
:1006200040007F284444380038444444280038447B
:1006300044287F0038545454180000087E090200F2
:100640001824241C78007F080404780000447D40AE
:1006500000002040403D00007E1028440000004182
:100660007F4000007C04780478007C080404780053
:100670003844444438007C182424180018242418D2
:100680007C007C08040408004854545424000404EA
:100690003F4424003C4040207C001C2040201C00A3
:1006A0003C4030403C004428102844004C9090903E
:1006B0007C004464544C44000008364100000000B3
:1006C0007700000000413608000002010204020029
:1006D0003C2623263C000000000000000000000033
:1006E00000000000000000F81E030101020C0808D1
:1006F000080808101010101804020206FC00000080
:100700000000000000000000000000F01E030101D6
:10071000030C0808080808080808080C060301016B
:1007200003FE0000000000000000000000000000C8
:10073000F03E030103060C0C0C0808080808080822
:10074000080C060101031EE000000000000000008C
:1007500000000000E0F0F0F0E0ECEEF7F3702000B5
:100760007C7C7C7E007E7E7E7F7F7F000080C0E080
:100770007E5B4F5BFEC00000C000DCD7DEDEDED754
:10078000DC00C000000000000000000000000000CD
:100790000000000000000000000000000000C02079
:1007A000008060180000C07F00000000000002020E
:1007B00000000000000000020200000007F8000036
:1007C000000000C020008060100000FF000000005A
:1007D000000003030000000000000003030000000D
:1007E0000003FE0000000000C02000806010000038
:1007F000FF000000000000030300000000000000F4
:1008000000030300000000FF0000000000000000E3
:10081000000000000F1F3F7F7F7F7F7F3F1E0C0087
:100820001F1F1F3F003F3F3F7F7F7F00307B7F7850
:1008300030202030787F3B0003000F7F0F0F0F7FA9
:100840000F00030000000000000000000000000096
:100850000000000000000000000000000007182059
:100860000007182000001F3020301808102020300A
:10087000181020202030180810204020301F0000C1
:1008800000000718200007182000001F302020104B
:1008900008081020203008080810302030180818E8
:1008A00030201F000000000718200007182000005B
:1008B0001F30203018183020301808302030180829
:1008C0000818302020380807000000000000000051
:1008D0000000000000000000000000000000000018
:1008E0000000000000000000000000000000000008
:1008F00000000000000000000000000000000000F8
:1009000000000000000000000000000000000000E7
:1009100000000000000000AF00AE29001E001F0014
:10092000000020002100220000002B0014001A000B
:1009300002530800150017002800E000040016000C
:100940000000070009000A00000001511D001B0003
:1009500000000600190005003000E200E30000007E
:1009600000000608904391412C424F005000510076
:10097000520000000000000000002D0027002600AB
:10098000000025002400230000002F0013001200A7
:1009900028000C0018001C002900340033000F0050
:1009A00000000E000D000B0000008700380037002B
:1009B0000000360010001100320089002E000000F7
:1009C00000001908E30028002A002B022B001D0A52
:1009D0001D08000000000000000029021E022F0078
:1009E000000020022102220200002B0214021A023F
:1009F00001000802150217020100E00204021602BB
:100A00000000070209020A02000001001D021B0289
:100A100000000602190205023002E202E3020000B1
:100A200000000100010001000100010001000100BF
:100A300001000000000000000000870227022602DB
:100A4000000025022402230200002F0213021202DA
:100A500001000C0218021C020100340233020F02D2
:100A600000000E020D020B0200008702380237025E
:100A70000000360210021102320289022E0200002A
:100A8000000001000100010001000100010001005F
:100A90000100000000000000000001003A003B00DF
:100AA00000003C003D003E00000001000100240069
:100AB00001002500260001000100010001002100C5
:100AC00000002200230033020000010001001E008C
:100AD00000001F0020002D0225020100010000007F
:100AE000000001000100010001002B002B020100A9
:100AF000010000000000000000004400430042002C
:100B00000000410040003F000000450001004E0091
:100B1000010052004B000100010001004D004F0098
:100B20000000510050004A00000001000100F600E2
:100B30000000F500F400F800F700010001000000DB
:100B4000000001000100010001000100010001009E
:100B500001000000000000000000C25C0100010074
:100B600000000100010001000000C35CC55CC75C1F
:100B70000100C95C010001000100C45CC65CC85CE6
:100B80000000CA5CB85DB75D0000BC5DBD5DBE5DC8
:100B90000000BF5DBA5DB95DDE5C005CBB5D00005E
:100BA000000001000100010001000100010001003E
:100BB00001000000000000000000D25CD15CD05CAD
:100BC0000000CF5CCE5CCD5C0000010001005D5DEB
:100BD0000100D55CD45CD35C0100B15DB25DB55D54
:100BE0000000B35DB45DB65D0000010001000100CE
:100BF0000000010001000100DE5C010001000000B6
:100C000000000100010001000100010001000100DD
:100C10000100000000000000000009025B00030169
:100C200000A0FA09040000010301010009211101DB
:100C300000012240000705810308000109040100AA
:100C40000203000000092111010001222200070512
:100C500082032000010705030320000109040200AC
:100C600001030000000921110100012249000705CC
:100C700084032000011201000200000008594D0009
:100C8000010200010200010E036D0074006B0036CA
:100C90000034006500000016036D0065006E0074EE
:100CA0000061006B006F005F0079006100000004CC
:100CB0000309040011241FBECFEFDAE0DEBFCDBF71
:100CC00011E0A0E0B1E0E8EAF6E602C005900D927E
:100CD000A63AB107D9F726E0A6EAB1E001C01D9215
:100CE000A435B207E1F70E9421270C941F330C941E
:100CF00000008F929F92AF92BF92CF92DF92EF92BD
:100D0000FF9290917C01981305C090914406903217
:100D100009F44BC080937C0190E290934406C82E66
:100D2000D12CF12CE12C10924306C701B6012AE028
:100D300030E040E050E00E948932605D603331F085
:100D4000C114D104E104F10409F460E260934206A5
:100D500060E28AE0C816D104E104F10490F08AE070
:100D6000882E912CA12CB12CC701B601A5019401AC
:100D70000E948932CA01B901A50194010E948932F9
:100D8000605D6093410620E284E6C816D104E10468
:100D9000F10448F0C701B60124E630E040E050E03D
:100DA0000E948932205D2093400680E496E0FF9007
:100DB000EF90DF90CF90BF90AF909F908F9008956D
:100DC000E8EDF0E080818E7F80831092E200109247
:100DD000DA001092E100A0EEB0E08C9181608C937B
:100DE00080818F77808319BCA7EDB0E08C918E7FD6
:100DF0008C9380818F7E80831092270608952091A6
:100E0000E4003091E50095E6A9012091EC00822FE5
:100E1000817020FF06C08091E80080FF06C080E05E
:100E200008952091E80022FD1AC08091350688239C
:100E300089F0853089F08091EB0085FD0FC020910D
:100E4000E4003091E50042175307F9F29150E1F6C2
:100E500084E0089582E0089583E0089581E0089594
:100E6000EF92FF920F931F93CF937C018B010E940F
:100E7000FF06C82F811117C08091E80085FD0BC0C7
:100E80008091E8008E778093E8000E94FF06882317
:100E900099F3C82F08C0F70181917F018093F10079
:100EA0000150110949F78C2FCF911F910F91FF909D
:100EB000EF9008958091370687FF13C08091E80076
:100EC00082FF06C08091E8008B778093E80004C021
:100ED000809135068111F2CF0895809135068823DF
:100EE000D9F38091E80080FFF8CF8091E8008E77F9
:100EF000ECCF982F9093E900242F762F50E089179C
:100F000031F07091EC002091ED005091F00021FD46
:100F100007C09F5F973071F78093E90081E00895E3
:100F20003091EB003E7F3093EB003091ED003D7F40
:100F30003093ED003091EB0031603093EB00709313
:100F4000EC002093ED005093F0002091EE0027FD7F
:100F5000E0CF80E00895B0E0A0E0E1EBF7E00C9492
:100F60004232C8EDD0E088818F7E8883E7EDF0E0E3
:100F700080818160808384E082BF81E08093270646
:100F800088818E7F888302EE10E0F8011082109233
:100F9000DA0081EEC82ED12CF601108288818F777D
:100FA000888388818068888388818F7D888319BC45
:100FB00010923506109236061092340610923306BF
:100FC00090EEE92EF12CF70180818B7F8083888160
:100FD0008160888342E060E080E00E947907F6014A
:100FE00080818E7F8083F801808181608083808111
:100FF00088608083F70180818E7F80838881806113
:101000008883CDB7DEB7E8E00C945E32FC018091B6
:101010003D0690913E0686179707A0F06115710571
:1010200029F49091E8009E779093E80090E0611594
:10103000710551F4911108C08091E80082FF34C01D
:1010400080E00895BC01F2CF809135068823C1F17C
:101050008530C1F18091E80083FD30C08091E800C7
:1010600082FDEACF8091E80080FFE1CF8091F3001C
:101070002091F200382F6115710519F028303105E3
:1010800058F091E02830310509F090E02091E80017
:101090002E772093E800CBCF81918093F1006150AF
:1010A00071092F5F3F4FE7CF80913506882341F0CC
:1010B000853041F08091E80083FFBECF81E0089544
:1010C00082E0089583E00895089508950895809139
:1010D0002A06089587E797E7909301088093000810
:1010E00088E19AE00FB6F894A895809360000FBE4F
:1010F00090936000FFCF2FB7F89460912306709112
:10110000240680912506909126062FBF08959C0104
:10111000FC0132969FEF80E04191461751F09F3FCE
:1011200019F4411101C0982F8F5F8630A9F79F3FB6
:1011300009F40895290F311D97FD3A95F90162834D
:101140000895FC01680F791F8FEF91E321918227A9
:1011500028E030E087FF09C0880F89272150310936
:10116000C9F7E617F70791F70895880FF7CFFA0147
:10117000811101C0FB010995089580910A04982FFF
:101180009E7F71F480910A048170826080930A04CA
:1011900080910D04893718F088E780930D04089535
:1011A000843080F7F5CFCF93DF93EEEEF2E08381CA
:1011B0009481A581B681E90188839983AA83BB8341
:1011C0001482138216821582DF91CF91089580E0F8
:1011D000089563E070E085E492E00E94A108909198
:1011E0004402891318C0E0914502EB30A4F488E072
:1011F000E802F0011124E55FFE4F0680F781E02D43
:10120000309749F028E632E04091470268E472E006
:101210008091460209950895EBE0F1E0A1E3B2E088
:1012200055968C91559780A756968C9183AF0895CB
:101230009091A00292FF06C0282F28712830F9F45F
:10124000877F846093FF06C0282F28712831F1F42E
:10125000877E84612091A10220FF06C0382F38715B
:101260003830D9F4877F816021FF06C0282F28718C
:101270002831D1F4877E816194FD877E0895282FDF
:1012800024712430F9F68B7F8860DCCF282F2471FD
:10129000243101F78B7E8861DDCF382F31713130F9
:1012A00019F78E7F8860E0CF282F2171213121F737
:1012B0008E7E8861E1CFCF93DF93EC018238910578
:1012C00089F1E0F58133910509F499C028F5893257
:1012D000910509F489C08A9709F498C0C11523E5DE
:1012E000D20708F0B3C0C11532E5D30708F00FC12B
:1012F000C11540E2D40708F097C0C11581E0D807B6
:1013000058F5C53AD10508F088C0C430D10520F59C
:10131000C130D10509F145C08533910509F45FC09D
:10132000C997E1F68091A002837009F025C18091F0
:10133000A10283FF11C0C9E2D0E00EC0833E910537
:1013400099F170F4803E910501F1823E910531F6EC
:101350008091A00282FD21C0CE01DF91CF9108953E
:10136000863E910561F1873E910571F1843E9105BC
:1013700009F0B4CF8091A10281FFEECF8091A0024D
:10138000C7EED0E084FD0DC0E7CF8091A00280FDC4
:1013900033C09091A10290FFDFCFC3EED0E084FF75
:1013A000DBCFD0E0C0E0D8CF8091A00282FDE1C0C9
:1013B0009091A10290FDE0C084FFCECFF2CF80914A
:1013C000A00283FDDDCFC8CF8091A00283FDD7C0EE
:1013D0009091A10291FFF0CFC4EED0E0BDCF8091FB
:1013E000A00285FFB9CFA7CF8091A00285FDCAC01A
:1013F0008091A10283FFB0CFC9E3D0E0ADCF80914F
:10140000A00286FFA9CFCAE2D0E0A6CF8091A002B9
:1014100086FFA2CFC1E3D0E09FCFCE01815E9109CC
:10142000079708F499CFBDCFC11521E5D20708F081
:1014300069C0C11530E5D30708F050C0C11540E4BC
:10144000D40708F4AECFDF70D06A86CFC11586E529
:10145000D807F0F4C11525E5D20708F071C0C11511
:1014600034E5D30708F067C0CE018370992721E0E7
:1014700030E002C0220F331F8A95E2F7C695C69569
:1014800040E2C49FE0011124C22BD32BDA6864CF61
:10149000C1154AE5D40778F4C11589E5D80708F0E5
:1014A0005AC0C11528E5D20708F47BCFDC2FCC2722
:1014B000C06FD06A51CFCE0190568115904208F08E
:1014C00070CF8D2F8F710E94180990E0982F882778
:1014D00088279F719C012C2BE9013BC0CE018370B2
:1014E000992721E030E002C0220F331F8A95E2F7EE
:1014F000C695C69540E2C49FE0011124C22BD32BB0
:10150000DD682ACFDC2FCC27C16FD06A25CFCE0172
:101510008370992721E030E002C0220F331F8A95A3
:10152000E2F7C695C69580E2C89FE0011124C22B60
:10153000D32BDC6811CFDC2FCC27C46FD06A0CCF43
:101540008C2F0E941809C82FD0E0DC2FCC27CC2785
:10155000DF71D06201CF8C2F8F700E94180934E0A8
:10156000D695C7953A95E1F7CF709C2FEC01D069DD
:10157000F3CEC2EED0E0F0CEC0EED0E0EDCEC6EEBF
:10158000D0E0EACEC5E3D0E0E7CE80912E02811113
:1015900010922E020895809590912806982390939A
:1015A00028060895809123029091F201981301C0BA
:1015B00008958F5F8770FACF9C3080F5883070F582
:1015C00048E0949F90011124820F932F911D682F62
:1015D000677023E0969587952A95E1F7FC01EE0F59
:1015E000FF1FE80FF91FE853FE4F50E040E080E096
:1015F000219130E0062E02C0369527950A94E2F735
:1016000021703327042E01C0220F0A94EAF7822B9F
:101610004F5F5F4F4330510559F7089580E00895BB
:101620009C3098F5883088F548E0949F900111240B
:10163000820F932F911D282F277041E001C0440F86
:101640002A95EAF723E0969587952A95E1F7FC011C
:10165000EE0FFF1FE80FF91FE853FE4F90E080E008
:1016600070E05191DF0111979B01082E02C0369561
:1016700027950A94E2F72170219525272423252711
:101680002C9301968330910561F70895982F9295D8
:101690009F7011F0892F94E0282F2695269511F040
:1016A0009E5F822F869509F09F5F892F0895CF93C3
:1016B000C82F8091FB028C1751F00E947B08609329
:1016C000FC027093FD028093FE029093FF02C09390
:1016D000FB02CF910895CF93C82F0E94460B91E053
:1016E000833009F090E0892F0E94570B80911C03F2
:1016F000823031F410921C038C2F8B7F09F0C82F9D
:101700008C2FCF910895B0E0A0E0E9E8FBE00C94C5
:101710004232FC01EB0190910003911101C094E071
:101720006081718191509B01092E02C035952795EA
:101730000A94E2F7D901092E02C0AA0FBB1F0A942E
:10174000E2F76A1B7B0B71836083628173818B017B
:10175000092E02C0159507950A94E2F7D80102C038
:10176000AA0FBB1F9A95E2F76A1B7B0B73836283F8
:1017700081E80138BFEF1B072CF0802F00381105DE
:101780000CF08FE78D8321389FEF390754F1203813
:1017900031054CF5922F91959C83442319F0819546
:1017A0008D832C830E947B082D81211103C02C8105
:1017B0002223D9F060930103709302038093030303
:1017C00090930403809105039BE0980F973120F4D8
:1017D000080F009305031D82CDB7DEB7E8E00C9437
:1017E0005E3221E8D7CF2FE7D5CFC0900103D0904C
:1017F0000203E0900303F09004036C197D098E0945
:101800009F096436710581059105E0F21092050388
:10181000D9CFFC01DB012281338191E821388FEFA0
:1018200038072CF0922F203831050CF09FE71296E4
:101830009C9312972081318121388FEF3807A4F0D3
:10184000203831059CF413962C931397442339F0D8
:10185000919512969C931297219513962C93118231
:10186000108213821282089521E8EDCF2FE7EBCF8B
:10187000382F20E287FF02C031952DE24AE0832F06
:10188000642F0E947B32905D9093BD0181110BC04B
:101890002093BC0120E22093BB0120E22093BA01F7
:1018A0008AEB91E00895642F0E947B32905D9093C3
:1018B000BC01832F64E60E947B32882361F3805D44
:1018C0008093BB01EBCF9C01860F971F37FD07C0AC
:1018D00077FD04C097FF02C08FEF9FE7089577FF61
:1018E000FDCF97FDFBCF80E090E80895E82FE295CB
:1018F000EF70F0E031A1282F2F7081E090E001C05F
:10190000880F2A95EAF7382B31A392A18095892375
:1019100082A30895E82FE295EF70F0E031A1282F1F
:101920002F7081E090E001C0880F2A95EAF7982F88
:101930009095932391A392A1892B82A30895B0E05F
:10194000A0E0E5EAFCE00C9442327C016B0180915E
:10195000450601E010E08A3010F40AE010E0C1E032
:10196000D0E06CE476E0C701F6010995811104C06E
:1019700021960C171D072CF4CDB7DEB7E8E00C94C8
:101980005E32CC9F9001CD9F300D300D112490E040
:1019900080E045E34A95F1F700000196821793072E
:1019A000C1F7DFCF9C0184E08093E9009FEF809135
:1019B000E800915085FD06C085ED8A95F1F700009D
:1019C0009111F5CF8091E80085FF0CC050E040E018
:1019D00066E070E0C9010E9430078091E8008E77D0
:1019E0008093E8000895CF93DF93EC0181E080932A
:1019F000E9008FEF9091E800815095FD06C095EDCC
:101A00009A95F1F700008111F5CF8091E80085FFEC
:101A100014C050E040E068E070E0CE010E94300762
:101A20008091E8008E778093E80088E0FE01ABE2C9
:101A3000B6E001900D928A95E1F7DF91CF9108957C
:101A40006091780180910A0480FF20C08091770125
:101A500043E0849FC0011124845D9C4F539A2BB1B5
:101A6000277F3BB138605FB7F894FC01649FE00DBD
:101A7000F11D1124BF0168177907D1F45FBF8FE50D
:101A800094E00197F1F700C000000895809179017A
:101A900090917A0123E0829FF0011124E45DFC4FD4
:101AA0008917A0F61182108212828F5F3396F8CFC9
:101AB000FC014191CF01E8E03BB9000000C047FFC5
:101AC0002BB9440F000000C000C000C02BB900C0FB
:101AD000EA9591F7D0CFEAE0F4E080818E7F8083B1
:101AE000E9E2F3E08281816082832FEF80E792E078
:101AF000215080409040E1F700C000000E94200D7E
:101B0000089580913002811119C082E390E0209104
:101B1000E30027FD10C0EFE3FCE93197F1F700C0C7
:101B200000000197A1F782E0809330020E94E00656
:101B30001092350603C081E08093300281E09091DD
:101B40003002913011F080E0089508950E94810DD7
:101B5000882359F0E0912006F0912106309729F072
:101B60000190F081E02D0995089580E0089557983F
:101B70005F9A879A8F9825E02A95F1F7000089B13E
:101B800087988F9A90EA9A95F1F790E0880F892FBD
:101B9000881F990B21E08227817008950E94B70D5C
:101BA000882371F080E08093770182E2809378014E
:101BB0001092790184E480937A0180937B010895E7
:101BC00082E2F1CF8091EE02F90180830E94CE0D76
:101BD0000895B0E0A0E0EFEEFDE00C9442326C011D
:101BE0007B0164E670E088E70E94822FEC0197FD9C
:101BF00012C010E000E0F601E00FF11F849164E6EE
:101C000070E00E94EE2FEC01892B29F40F5F1F4F2B
:101C10000E151F0581F70E946430CE01CDB7DEB7E7
:101C2000E8E00C945E3280911E0690911F0691119F
:101C300003C091E089270895882369F062E070E08D
:101C400088E199E00E94E90D892B19F080911E0628
:101C5000089510921E0680911E06EBCFCF93C0917F
:101C60001E0680911F068823D1F00E947B08605ACF
:101C700075418F4F9F4F60931A0670931B06809398
:101C80001C0690931D06C11108C062E070E086E159
:101C900099E00E94E90D892B29F0C0911E068C2F36
:101CA000CF91089581E080931E06F7CFCF93DF9305
:101CB000C7E2D3E060E0CE010E94EB322196C1156D
:101CC00084E0D807B9F7DF91CF9108951F93CF93A0
:101CD000DF93122F8430E0F46C30D0F44830C0F43D
:101CE00090E1699FE001112450E0440F551FC40F9B
:101CF000D51F90EC899FC00DD11D1124632FCE01FB
:101D000087960E94EB32612FCE0188960E94EB32BB
:101D1000DF91CF911F910895AF92BF92CF92DF9242
:101D2000EF92FF921F93CF93DF938AE1C82E89E051
:101D3000D82ED0E07601C0E014C0F5012591349191
:101D4000412F6C2F8D2F0E94660E82E0A80EB11CD1
:101D50001F5F183091F780E1E80EF11CCF5FCC30A7
:101D600019F0570110E0E9CFDF5F80ECC80ED11CFD
:101D7000D43001F7DF91CF911F91FF90EF90DF906A
:101D8000CF90BF90AF90089586E290E00E94EB3232
:101D90000895CF93C82F6FEF811163E283E290E043
:101DA0000E94EB326FEFC11162E084E290E00E948A
:101DB000EB326FEFC11167E285E290E00E94EB32F7
:101DC000CF91089580E00E94C90E60E070E0CB01E1
:101DD0000E94C40E0E948C0E0E94560E81E00E944A
:101DE000C90E08950F931F93CF93DF93843030F57E
:101DF0006C3020F5483010F520E1629F80011124FD
:101E000050E0440F551F040F151F30EC839F000D49
:101E1000111D1124C80187960E94D732C82FD0E027
:101E2000DC2FCC27C80188960E94D7329E01282B30
:101E3000C901DF91CF911F910F91089590E080E04B
:101E4000F8CF462F843040F47C3030F4683020F4F2
:101E5000672F0E94F20E089590E080E00895CF92DF
:101E6000DF92FF920F931F93CF93DF936C0100914A
:101E70003F0680912F02082BC7E0D0E010E0FC2E37
:101E8000C8010C2E02C0959587950A94E2F780FD53
:101E90000CC02197A0F7F12C8F2DDF91CF911F91CE
:101EA0000F91FF90DF90CF900895B6018C2F0E9484
:101EB000210F0E945B09019761F3EECFCF93DF936F
:101EC000EC010E942F0FBE010E94210F0E945B09AE
:101ED000DF91CF910895FC0183819481892B29F0B2
:101EE0008081918189238F3F51F480E00895843F60
:101EF000E1F717C0883EA8F0813FB9F712C0808192
:101F000091810E945E0F92959F70963099F358F4DC
:101F1000925F9F70923048F7803F19F040F7883EFB
:101F200020F781E008959A5FF4CF86E290E00E9466
:101F3000D732682F70E090E080E0089583E290E06F
:101F40000E94D732833289F484E290E00E94D73233
:101F5000823059F485E290E00E94D73291E08732D6
:101F600009F090E0892F8170089580E0FCCF809186
:101F7000280690912D02892B8093A80190912E0222
:101F8000992391F0892B8093A80120E08AEA91E0BF
:101F9000FC013191CF0131112F5FF1E0803B9F07B0
:101FA000B9F721110E94C50A48E050E065E272E0ED
:101FB00088EA91E00E94C132892BA9F088E0E8EA22
:101FC000F1E0A5E2B2E001900D928A95E1F7E0918F
:101FD0002006F0912106309731F00280F381E02D48
:101FE00088EA91E0099508950E946B0B80933F0663
:101FF00010922D020E94B70F089580913F06982FEE
:102000009670963021F488600E94F40F0895877FBF
:10201000FBCF21E030E001C0220F8A95EAF720953E
:1020200080913F0682230E94F40F0895909124022C
:102030008095892380932402282F277091F4282FDC
:10204000082E000C330B9217130659F09091A10241
:1020500092FF07C08595859585950E94091010927D
:1020600024020895CF93C091A102C2FB992790F951
:10207000981791F080FBC2F9C093A1026091A00271
:1020800084E090E00E94EB326C2F82E290E00E94AC
:10209000EB3282E00E941610CF91089521E030E0EB
:1020A00001C0220F8A95EAF780913F06822B0E9499
:1020B000F40F089580932F0210922D020E94B70F03
:1020C0000895882321F00E94CB0A0E94B70F08953B
:1020D000882339F090912806982B909328060E9427
:1020E000B70F08958823E1F19CEF980F913A80F49F
:1020F000EAEAF1E020EB31E09191891303C0DF01BE
:1021000011971C922E173F07B9F70E94B70F089539
:1021100090E2980F983050F4877091E001C0990FC9
:102120008A95EAF7892F0E94CB0AEFCF9BE5980F9B
:102130009330B8F48091C4019091C501892B81F04E
:102140001092C5011092C401E0912006F091210681
:10215000309731F00680F781E02D90E080E009951E
:102160000895885A8731E0F78091C6019091C701A0
:10217000892BB1F31092C7011092C601E09120069D
:10218000F0912106309761F30084F185E02DE5CFD1
:10219000CF93C82F8823A9F08CEF8C0F813A00F5DC
:1021A000EAEAF1E0DF018D91C81769F081E0A03B18
:1021B000B807C9F76C2F88EA91E00E9487080E944F
:1021C000B70FCF9108958191C81303C0DF01119714
:1021D0001C9281E0E03BF807B1F70E94B70FEACF0D
:1021E00080E28C0F883068F7C77021E030E001C0D2
:1021F000220FCA95EAF780912806822B8093280641
:10220000DECF1F93CF93DF93182FEB010E94C810EE
:102210008FE99FE00197F1F700C000002197C1F717
:10222000812F0E947210DF91CF911F9108951F930B
:10223000CF93DF93162F8A3039F481E00E94D511B5
:10224000DF91CF911F9108958D3011F480E0F6CF8A
:10225000C0911806D091190696E0FE01A2E1B6E001
:1022600001900D929A95E1F7803E90F186E0FE0193
:1022700011928A95E9F7C0911806D09119061111AB
:1022800033C046E050E0BE0182E196E00E94C132D8
:102290009E0122513440892B91F52A5F3F4F409196
:1022A0000F04642F70E0C9010E942432481B46309D
:1022B00010F4240F311D211572E0370710F030E0C3
:1022C00020E02E5E3B4F3093190620931806B8CFBE
:1022D000F6E08F9FB00111246A527C4F46E050E037
:1022E000CE010E94B832C7CF9E012A5F3F4FFE0148
:1022F0002E173F0731F2808180958193F9CFC90174
:1023000045E0969587954A95E1F741E050E0BA019E
:1023100002C0660F771F8A95E2F7CB016091100427
:1023200070911104862B972BB9016B5F7F4FE5E00D
:1023300076956795EA95E1F702C0440F551F6A95B7
:10234000E2F7842B952B9093110480931004A5CF72
:102350001F93CF93DF93EC01162FFE01849181111F
:1023600004C0DF91CF911F910895612F0E94171132
:102370002196F3CFFF920F931F93CF93DF93EC013E
:10238000F62EFC0101900020E9F78F0101501109A0
:10239000C017D10728F0CDB7DEB7E5E00C94613265
:1023A0006F2D89910E941711F3CFCF93382FE091B1
:1023B0001806F0911906E251F44020910F04622FA3
:1023C00070E0CF010E942432281B822F332369F052
:1023D00066E00E946F32C82FC15010F4CF9108956B
:1023E00060E080E20E941711F7CF9F01280F311D96
:1023F0002115324018F080E0F0E0E0E08E0F9F2FD2
:10240000911D8E5E9B4F9093190680931806E6CF20
:10241000EAEAF1E086E0DF011D928A95E9F7109281
:102420002D020E94B70F0895AAE2B0E0EAE1F2E1BE
:102430000C94473287E396E02091F100DC012D9364
:10244000CD01B6E08F339B07B9F780913806833012
:1024500009F472C0B8F4813009F449C0823009F43B
:10246000B5C08091E80083FF8DC2809137069091BE
:1024700038069A3008F086C2E92FF0E0EF5DFC4C98
:102480000C94AB328A3009F490C08B3009F471C0DF
:10249000893039F780913706813219F780913B06F0
:1024A00090913C06009711F00297D9F68091E800D0
:1024B000877F8093E8008091E80082FF38C0909188
:1024C000F3008091F200029731F48091F1008130A5
:1024D00011F0863021F48091F10080932A068091DA
:1024E000E8008B778093E8000E945A07BACF80916A
:1024F0003706813A09F0B5CF8091E800877F809355
:10250000E80080913B0690913C06892B61F468E0DD
:102510008BE296E070E00E9406088091E8008B77DD
:102520008093E8009ECF60E090E080E0F3CF809160
:1025300035068111C0CF95CF80913706813A09F0D9
:1025400090CF80913B0690913C06892B09F089CF72
:102550008091E800877F8093E8008091E80080FF09
:10256000FCCF809176018093F1008091E8008E7716
:10257000B9CF80913706813209F073CF80913B0645
:1025800090913C06892B09F06CCF8091E800877F01
:102590008093E8000E945A07809139068093760163
:1025A000109228060E9408125CCF80913706813273
:1025B00009F057CF8091E800877F8093E8000E9460
:1025C0005A0780913A06809329064BCF80913706AF
:1025D000813A09F046CF8091E800877F8093E80038
:1025E0008091E80080FFFCCF80912906BCCF803825
:1025F00099F0823809F0C6C180913B068F70873010
:1026000008F0C0C18093E9008091EB0085FB88272A
:1026100080F91092E90006C080913306909134064B
:10262000911182609091E800977F9093E8008093E9
:10263000F1001092F1008091E8008E779FC188230D
:1026400009F48DC1823009F09DC180913906811154
:1026500090C180913B068F702FEF280F263008F035
:1026600091C18093E9002091EB0020FF82C193305B
:1026700031F48091EB0080628093EB007AC19091FD
:10268000EB0090619093EB0021E030E001C0220F5D
:102690008A95EAF72093EA001092EA008091EB0015
:1026A0008860EACF81116EC1109139061F77809141
:1026B000E3008078812B8093E3008091E800877F9E
:1026C0008093E8000E945A078091E80080FFFCCFC9
:1026D0008091E30080688093E30082E0111183E041
:1026E000809335064FC18058823008F04BC120914D
:1026F000390630913A062C3DE3E03E07A1F583E030
:102700008A838AE289834FB7F894DE01139620E02A
:102710003EE051E2E32FF0E050935700E49120FFB8
:1027200003C0E295EF703F5FEF708E2F90E0EA30CC
:10273000C0F0C7968D939D932F5F243159F74FBFFB
:102740008091E800877F8093E8006AE270E0CE0124
:1027500001960E9406088091E8008B778093E8003C
:1027600011C1C096E7CF80913B0690913C06432F64
:1027700055274330510509F44AC078F541305105D9
:1027800009F47AC08BE590E0EAE1FCE042305105C3
:1027900009F0F8C02091E800277F2093E8002091FD
:1027A0003D0630913E068217930708F49C0140E0F5
:1027B0002115310509F065C0411163C08091E80021
:1027C00082FDC9CF80913506882329F2853019F220
:1027D0008091E80083FFF2CFBECF4132510509F46A
:1027E0003CC04232510509F0CDC08330910508F05C
:1027F000C9C0FC01EE0FFF1FE756FE4F0190F081AC
:10280000E02D8A569E4FDC018C9190E01AC0332750
:1028100021303105D1F02115310561F0223031052B
:1028200009F0B0C0E7E8FCE0E4918E2F90E0E7E823
:10283000FCE007C0EFEAFCE0E4918E2F90E0EFEAC5
:10284000FCE0009709F49EC0A5CFE7E9FCE0E49125
:102850008E2F90E0E7E9FCE0F4CF8330910508F09B
:1028600091C0880F991FFC01E156FE4F0190F08145
:10287000E02D89E090E08ECF82E190E0E5E7FCE09A
:1028800089CF80913506882309F465CF853009F416
:1028900062CF8091E80083FD5ECF8091E80082FDE9
:1028A0008DCF8091E80080FF83CF9091F3008091DD
:1028B000F2002115310519F08830910550F041E002
:1028C000089709F040E08091E8008E778093E80057
:1028D0006FCF44914093F100319621503109019618
:1028E000E8CF803809F04EC08091E800877F809360
:1028F000E800809136068093F1009DCE811142C0A0
:10290000109139061230F0F58091E800877F8093AE
:10291000E800109336060E945A07112311F084E054
:1029200005C08091E30087FDFACF81E080933506F2
:1029300042E061EC81E00E94790742E261EC84E0D0
:102940000E94790742E261EC82E00E94790742E24C
:1029500060EC83E00E9479078091350613C0809176
:102960003906813079F481E0933009F080E080937A
:1029700034061092E9008091E800877F8093E80098
:102980000E945A078091E80083FF0AC08091E80006
:10299000877F8093E8008091EB0080628093EB005A
:1029A000AA96E3E00C946332109228060E94081263
:1029B0002FEF84E39CE0215080409040E1F700C07D
:1029C000000088E19AE00FB6F894A8958093600023
:1029D0000FBE90936000FFCFCF92DF92EF92FF92F5
:1029E0006B017C010E94BD08B701A60188E090E060
:1029F0000E94FD32FF90EF90DF90CF900895B0E0FD
:102A0000A0E0E5E0F5E10C943E32182FC62FD42F5C
:102A1000822E00910A0400FF4CC0E02FE695F0E002
:102A2000EC56FE4F808180932903802F8E7F823069
:102A3000E9F4E42F493708F0E8E7F0E0EA52FD4F07
:102A4000C1113CC02491F22FE22F00FF0FC08091F2
:102A5000790190917A0133E0839FD0011124A45D24
:102A6000BC4F891708F49FC00E94200D80910B0471
:102A7000811308C080910C048C1304C080910D0454
:102A80008D1729F080912B03826080932B03109384
:102A90000B04C0930C04D0930D04882051F0609176
:102AA0000A0470910B0480910C0490910D040E9413
:102AB000EC14CDB7DEB7ECE00C945A32EC2EF12CCE
:102AC000E4919E2ECE2ED12C26E0129FC00111241F
:102AD0002FEF30E0B9010E942432812F90E0880F5F
:102AE000991FF5E5F69FA001F79F500D1124841B57
:102AF000950BB82EBB0CB80EA9014E195F094C9D61
:102B0000C0014D9D900D5C9D900D1124F92FCB9D22
:102B1000A0011124452F5527D901A41BB50BAC9D4D
:102B2000A001AD9D500DBC9D500D1124D901AB19D4
:102B3000B1095D01AE9CD001AF9CB00DBE9CB00D43
:102B40001124AB2FBB272A1B3B0B2C9DD0012D9DA5
:102B5000B00D3C9DB00D11242B2F62307105A1F0FA
:102B600050F46115710509F470CF6130710581F081
:102B7000292FF52F6ACF6430710569F080F0663037
:102B8000710509F462CFF4CF2E2FE92FFB2F5DCF13
:102B90002E2FE52F5ACF292FFE2FEB2F56CFE92FBF
:102BA000F92D252F52CF1196EC9311972C93129655
:102BB000FC9312978F5F139654CFEAE0F4E04381C1
:102BC0002CE0421B08F440E021E0628181810E94F8
:102BD000FF140895EAE0F4E043812CE0420F08F48A
:102BE0004FEF21E0628181810E94FF140895EAE0A5
:102BF000F4E0628121E1621B08F460E021E043819E
:102C000081810E94FF140895EAE0F4E0628121E1ED
:102C1000620F08F46FEF21E0438181810E94FF146D
:102C20000895EAE0F4E0818121E0438162818151ED
:102C30000E94FF140895EAE0F4E0818121E04381DD
:102C400062818F5E0E94FF14089580910E04882394
:102C500019F0815080930E0460910A0470910B0466
:102C600080910C0490910D040E94EC1408958091C1
:102C70000E04833018F48F5F80930E0460910A0471
:102C800070910B0480910C0490910D040E94EC143F
:102C9000089580910A0480FF1EC081708260809335
:102CA0000A0480912B03816080932B03662351F0EB
:102CB00060910A0470910B0480910C0490910D04B2
:102CC0000E94EC1420E040910D0460910C0480916E
:102CD0000B040E94FF14089580910A048695815088
:102CE00009F481E061E00E944916089561E081E005
:102CF0000E9449160895EAE0F4E083E0808311829F
:102D00008FEF828388E783831482A9E2B3E012966F
:102D10008C911297836012968C936081718182816D
:102D200093810E94EC14089568EE7EEF90E080E0BD
:102D30000E94093360E082E090E00E94EB3260E0A4
:102D400083E090E00E94EB3210922F0260E084E07A
:102D500090E00E94EB3264E082E290E00E94EB326D
:102D600060E085E090E00E94EB3260E086E090E079
:102D70000E94EB326FEF87E090E00E94EB3240E080
:102D800050E0BA0188E090E00E94FD3260E08DE002
:102D900090E00E94EB3240E050E0BA0188E190E020
:102DA0000E94FD3260E087E190E00E94EB3240E05B
:102DB00050E0BA018CE190E00E94FD3270E060E0EA
:102DC00080E290E00E94093340E050E0BA0188E1DF
:102DD00090E00E94FD3280E00E94C90E0E94E20E47
:102DE00040E050E0BA018FE090E00E94FD32E2E165
:102DF000F3E015821682178281E0808382E390E0FF
:102E0000928381838AE090E094838383408151811F
:102E10006281738183E190E00E94FD320895B0E009
:102E2000A0E0E5E1F7E10C9443327901C82F880F67
:102E3000DD0B41155105A9F0FE0193E0EE0FFF1FD8
:102E40009A95E1F7E55FFE4F818192818F5C9D4FFE
:102E5000208130E04217530708F49A01A9010E942B
:102E6000CE32CE010E94AE31D82E8823D1F001158A
:102E70001105B9F083E0CC0FDD1F8A95E1F7FE0163
:102E8000E55FFE4F438150E00417150708F4A801E1
:102E9000C55FDE4F6C817D816F5C7D4FC7010E94F5
:102EA000CE328D2DCDB7DEB7E7E00C945F32A5E0D2
:102EB000B0E0EDE5F7E10C9440328D83E62E5A0147
:102EC000F22E6801809145068A3028F080E0259630
:102ED000EAE00C945C328D818830C4F31A82198246
:102EE0008A836B832C8363E070E0CE0102960E949C
:102EF000A1088983E0923301F092460110E000E0DE
:102F000030E020E044E050E0BE016F5F7F4F84E09E
:102F10000E940F178823D1F24E2D50E030E020E0C0
:102F2000B50185E00E940F17882381F230E020E090
:102F300041E050E0BE016B5F7F4F86E00E940F17BB
:102F4000882321F20F2D10E0960150E040E070E060
:102F500060E087E00E940F17BACFA8E0B0E0E3EB93
:102F6000F7E10C94463285E0EAE0F4E0DE011196E8
:102F700001900D928A95E1F78091290390912A039F
:102F8000A0912B038E839F83A8872885409196026A
:102F90005091970260919802709199023FB7F8940E
:102FA0008091230690912406A0912506B0912606D3
:102FB0003FBF841B950BA60BB70B84369105A1056B
:102FC000B10510F42223C1F010E000E030E020E071
:102FD00048E050E0BE016F5F7F4F83E00E940F1713
:102FE000882369F00E947B08609396027093970291
:102FF000809398029093990210922B0381E0289677
:10300000E4E00C946232A4E0B0E0E9E0F8E10C9472
:1030100046324091920250919302609194027091D5
:1030200095022FB7F8948091230690912406A091E1
:103030002506B09126062FBF841B950BA60BB70B58
:1030400011E084369105A105B10538F10E94810D8A
:10305000882341F10E947B086E5F7F4F8F4F9F4F07
:1030600069837A838B839C8310E000E030E020E06A
:1030700044E050E0BE016F5F7F4F82E00E940F1777
:10308000182F882351F00E947B086093920270935E
:1030900093028093940290939502812F2496E4E00A
:1030A0000C9462320E947B0800919A0210919B025C
:1030B00020919C0230919D02600F711F821F931F0F
:1030C000CBCFA7E0B0E0E7E6F8E10C9444327B0117
:1030D00001E010E09E01295F3F4F50E040E070E0CA
:1030E00060E080E00E940F17182F882309F453C076
:1030F00040918E0250918F026091900270919102E6
:103100002FB7F8948091230690912406A09125066C
:10311000B09126062FBF841B950BA60BB70B8436E8
:103120009105A105B10548F466E070E082E392E004
:103130000E94A1089F81891771F106E010E09E01AD
:103140002F5F3F4F50E040E070E060E081E00E9480
:103150000F17082F66E070E082E392E00E94A1085A
:1031600011E09F81981310E0102301F10E947B0869
:1031700060938E0270938F028093900290939102DD
:1031800086E0FE013196A8E8B2E001900D928A95A2
:10319000E1F711E00BC086E0E2E3F2E0DE01119618
:1031A00001900D928A95E1F71111EACF86E0E8E8E7
:1031B000F2E0D70101900D928A95E1F7812F2796D1
:1031C000E6E00C9460320E94B70D80930A01809172
:1031D0000A01882359F01092770185E280937801E3
:1031E0000E94810D81110E94C230089585E2809372
:1031F0007701F4CF90E080E00E94E532883E9E4F58
:1032000019F40E949E0F089580E0089528E030E0B0
:1032100043E060E086E30E94AA2E0895ACE0B0E0AF
:10322000E4E1F9E10C9442324F83588769877A8749
:103230008B879C878091EE02882399F00E94061963
:1032400080E50E94222F8AEB8A95F1F700C00E9448
:103250003A2F887899278038910509F487C00E9411
:10326000522F0E94810D882309F46BC00E947B08B5
:103270000091BF011091C0012091C1013091C201A4
:103280006B017C01C01AD10AE20AF30A9701860198
:10329000083011052105310508F453C06093BF01C2
:1032A0007093C0018093C1019093C2010091FC0210
:1032B0001091FD022091FE023091FF02601B710B04
:1032C000820B930B623371058105910580F4109296
:1032D000F2021092F1021092F4021092F302109294
:1032E000F6021092F5021092F8021092F702109175
:1032F000FB020E94B70D482FBE01695F7F4F81EF2F
:1033000092E0112309F45FC00E94830B0091FB023D
:103310001091EE020E94B70D41E04827BE01695F9F
:103320007F4F85EF92E0011709F450C00E94830B94
:1033300086E0FE013796AAE0B3E001900D928A95EF
:10334000E1F786E0FE013796DE01119601900D92BD
:103350008A95E1F729813A814B815C816D817E817B
:1033600080E090E02C96E8E00C945E320E943A2FC8
:103370000E943A2F7C010E943A2F20E0E22AF82A8C
:103380000E943A2F8C010E943A2F20E0022B182B2A
:103390000E94522FF894B7018091F1029091F202AD
:1033A0000E94630C9093F2028093F102B801809125
:1033B000F3029091F4020E94630C9093F4028093C4
:1033C000F30278944ECF0E94090CA0CF0E94090C02
:1033D000AFCFCF93DF93D82FC62F0E9406198D2F22
:1033E00080680E94222F8C2F0E94222F0E94522F31
:1033F0008FEC92E00197F1F700C00000DF91CF91D0
:103400000895682F893708F068E76093F90291E022
:103410009093FA029091EE02992359F06150811134
:1034200001C064E08FE00E94E91960E080E50E943D
:10343000E9190895FB0180810E94011A0895909175
:10344000F902911101C095E0282F880F330BA901D3
:10345000490F511DCA011816190614F081E090E0B9
:103460000E94011A0895CF93C82F0E9406198C2F2D
:103470000E94222F8FE792E00197F1F700C0000031
:103480000E943A2FC82F0E94522F9AE69A95F1F780
:1034900000C08C2FCF910895CF93DF930E94A22E6E
:1034A000269A0E9406196AE58AE30E94E9192FEF1D
:1034B00080E792E0215080409040E1F700C000009A
:1034C00082E00E94331A83E00E94331A84E00E9453
:1034D000331A85E00E94331A86E00E94331A60E0B6
:1034E00080E10E94E91980E00E94331AD82F81E020
:1034F0000E94331AC82F0E94522FD23419F481E04F
:10350000C13009F080E081708093EE02882341F0A1
:1035100064E08FE00E94E91960E080E50E94E9190B
:10352000DF91CF9108951F920F920FB60F92112441
:103530002F933F934F935F936F937F938F939F93BB
:10354000AF93BF93CF93DF93EF93FF93D091E900B5
:10355000DF708091EC00C82FC17080FDC0E8109230
:10356000E9008091F000877F8093F00078940E94BA
:1035700014121092E9008091F00088608093F000AE
:10358000CD2BCF70C093E900FF91EF91DF91CF91E8
:10359000BF91AF919F918F917F916F915F914F916B
:1035A0003F912F910F900FBE0F901F9018951F9273
:1035B0000F920FB60F9211242F933F934F935F9367
:1035C0006F937F938F939F93AF93BF93EF93FF93EB
:1035D0008091E10082FF09C08091E20082FF05C076
:1035E0008091E1008B7F8093E1008091DA0080FF81
:1035F00024C08091D80080FF20C08091DA008E7FA7
:103600008093DA008091D90080FF9DC080E189BD60
:1036100082E189BD09B400FEFDCF81E080933506CB
:1036200080912706811109C00E94E0060E94AB0725
:103630008091E20084608093E2008091E10080FF4D
:1036400017C08091E20080FF13C08091E2008E7F5E
:103650008093E2008091E20080618093E20080919B
:10366000D80080628093D80019BC85E0809335062D
:103670008091E10084FF2BC08091E20084FF27C08D
:1036800080E189BD82E189BD89B5982F917080FF65
:10369000FBCF8091D8008F7D8093D8008091E1008E
:1036A0008F7E8093E1008091E2008F7E8093E20024
:1036B0008091E20081608093E20080913606882349
:1036C00009F447C084E080933506809135068091E7
:1036D000E10083FF27C08091E20083FF23C0809137
:1036E000E100877F8093E10082E0809335061092AD
:1036F00036068091E1008E7F8093E1008091E200A8
:103700008E7F8093E2008091E20080618093E200EE
:1037100042E060E080E00E9479078091F0008860DC
:103720008093F000FF91EF91BF91AF919F918F91A6
:103730007F916F915F914F913F912F910F900FBEAD
:103740000F901F90189519BC1092350610922706FD
:1037500074CF8091E30087FD93E090933506B5CF59
:1037600078941F921FB61F9211248F939F93AF934B
:10377000BF938091230690912406A0912506B091D5
:1037800026060196A11DB11D809323069093240661
:10379000A0932506B0932606BF91AF919F918F917C
:1037A0001F901FBE1F9018959C014FB7F8948091F1
:1037B000230690912406A0912506B09126064FBFBE
:1037C000821B930B08952FB7F89480912306909154
:1037D0002406A0912506B09126062FBF089582E009
:1037E0000E944E100E94E31B90931B0380931A03C8
:1037F00082E080931C030895AEE1B0E0E2E0FCE1DA
:103800000C94463240912303509124036091250388
:103810007091260380912703909128030E940E192E
:1038200020932303309324034093250350932603CE
:10383000609327037093280386E0E3E2F3E0DE0160
:10384000179601900D928A95E1F786E0FE01379672
:10385000DE011D9601900D928A95E1F786E0FE014A
:103860003D96DE01119601900D928A95E1F786E072
:10387000FE013196A3E2B3E001900D928A95E1F743
:1038800086E0E3E2F3E0DE01599601900D928A951D
:10389000E1F786E0FE017996DE01179601900D9220
:1038A0008A95E1F71B8D0C8D912F902B80911C0335
:1038B000992309F4A2C0813009F45BC0823009F079
:1038C0008EC00E94E31B90931B0380931A0386E033
:1038D000FE013796DE01119601900D928A95E1F76F
:1038E00086E0FE013196DE01539601900D928A9595
:1038F000E1F786E0FE017396DE01179601900D92C6
:103900008A95E1F786E0FE013796A3E2B3E00190E5
:103910000D928A95E1F746E050E06DE173E083E2B5
:1039200093E00E94C132892B79F0E0912006F0915A
:103930002106309749F082E0809323030480F581CB
:10394000E02D83E293E0099510922503109226035F
:10395000109227031092280386E0E3E2F3E0ADE142
:10396000B3E001900D928A95E1F76E96E4E00C9435
:10397000623280911203882309F4A9CF80913F0617
:103980000E94460B8111A3CF812F110F990B97FF36
:1039900003C0919581959109002E000C110B17FF22
:1039A00003C0119501951109800F911F20911003FB
:1039B00030911103820F931F909311038093100392
:1039C0002091130330911403821793070CF47FCFD7
:1039D00010921103109210030E94EF1B78CF0E94E7
:1039E000E31B90931B0380931A0381E080931C03D5
:1039F00010921103109210036ACF8130E1F08230EF
:103A000019F580911A0390911B030E94D41B4091D9
:103A100015035091160364E6649F9001659F300D75
:103A200011242817390708F052CF10921C0382E0A6
:103A30000E9409104CCF80911A0390911B030E94A1
:103A4000D41BC39708F443CF1092110310921003B4
:103A500010921C033CCFA2E1B0E0E1E3FDE10C9445
:103A600039328C01DC0113968D919C911497892B2E
:103A700039F08C9111969C9189238F3F09F0BAC53A
:103A80006296E1E10C9455320E942F0FF82E682FB8
:103A900089819A810E94100B69817A818F2D0E9401
:103AA000210F7C01F8018281882309F495C5C701A3
:103AB00082519F45409708F037C58FEF93E00E94F1
:103AC000D732811128C0FEEEEF0E57E2852E53E06B
:103AD000952EE11032C01C821B82442443944AE09C
:103AE000342E74018FEFE81AF80AC4010E94D7320D
:103AF00089831A82882379F09FEF980F933058F5C5
:103B00008A83498292E0890E911CC7010E94D732B4
:103B10008B83811121C080912402877009F4B0CF7A
:103B2000F8018281882309F4ABCF8091A10282FF42
:103B3000A7CF82E00E941610A3CF811424E0920642
:103B400051F3C4010E94D732811101C0EA943FEFC2
:103B5000831A930ABECF4701DE0111967D01F7015A
:103B60002081222309F4BDCF213009F06DC091815D
:103B70008281913061F4F2E0EF0EF11C65E070E0BB
:103B8000893311F460E570E00E94011107C09230A2
:103B900039F522E0E20EF11C0E94C810FFEFEF1A87
:103BA000FF0A8FE99FE00197F1F700C00000AFE93D
:103BB000BFE01197F1F700C00000EFE9FFE0319797
:103BC000F1F700C000008FE99FE00197F1F700C016
:103BD0000000AFE9BFE01197F1F700C00000BFCFD0
:103BE000933031F432E0E30EF11C0E947210D6CF14
:103BF000943021F08FEFE81AF80AD0CF92E0E90E66
:103C0000F11C30E020E0B7016F5F7F4FD7011196C4
:103C10004C918053990B8A30910558F0215031090D
:103C200008F4BCCFEFE9FFE03197F1F700C00000E6
:103C3000F5CF329EF001339EF00D11249C012E0F22
:103C40003F1F842F7B01DFCFE22FF0E0E957FE4FCB
:103C50005490822F86958695869590E0FC01E958D0
:103C6000FE4F64902770712C022E02C075946794E9
:103C70000A94E2F731E063227724FC01E959FE4F10
:103C8000A490B12C022E02C0B594A7940A94E2F736
:103C9000A1E0AA22BB24FC01E95AFE4FC490D12C1A
:103CA00002C0D594C7942A95E2F7B1E0CB22DD2477
:103CB0006114710419F081EE0E94C810A114B104BE
:103CC00019F086EE0E94C810E9E365E070E05E122C
:103CD00002C060E570E0852D0E940111A114B104BD
:103CE00019F086EE0E9472106114710419F081EED1
:103CF0000E947210C114D10409F450CF65E070E045
:103D00008CE242CF81E00E944E100E94FD0F03CF53
:103D100081E00E940910F9CF82E0F5CFAEEBEA1600
:103D2000ADE5FA0609F446C0BFEBEB16BDE5FB06B0
:103D300009F026C4882309F4EECE809115039091F2
:103D400016030197181619060CF440C081E090E0A4
:103D50003DC0882309F4DFCE8091120391E08927CA
:103D60008093120340911203509113036091140346
:103D70007091150383E190E00E94FD32CCCE882340
:103D800009F4C9CE80911303909114030596909382
:103D9000140380931303E6CF882309F4BCCE8091EB
:103DA00013039091140305978530910584F785E0FE
:103DB00090E0EDCF882309F4AECE80911503909169
:103DC00016030196883EE3E09E072CF490931603B9
:103DD00080931503C7CF87EE93E0F8CFF701E0C3D8
:103DE000E45FF10921E030E001C0220FEA95EAF733
:103DF00096E0E3E2F3E0DE01179601900D929A95CA
:103E0000E1F796E0FE013796DE011D9601900D92D6
:103E10009A95E1F79885882389F1292B2E8786E0EA
:103E2000FE013D96DE01119601900D928A95E1F713
:103E300086E0FE013196A3E2B3E001900D928A95EF
:103E4000E1F7F8018281F6E1EF16FCE5FF0609F0E3
:103E500067C0882309F44FC0809128068A7A91E0D0
:103E600009F490E09093C30169E2811165E388EA67
:103E700091E00E9487080E94B70F4DCE209529231C
:103E8000CDCF80E00E94011A1092000344CE4091F1
:103E9000F9025091000350FB47F95695537060E0CA
:103EA00070E08FE090E068CF81E00E941F1A33CE6F
:103EB0008FEFFBCF8AE0F9CF86EFF7CF9091FB022F
:103EC00081E089270E94570B26CE80910003811143
:103ED00001C084E08F5F18160CF081E0883008F094
:103EE00087E08093000317CE80910003811101C009
:103EF00084E08150F0CF8091C30181110FC089E22D
:103F0000EAEAF1E020EB31E09191891303C0DF018F
:103F100011971C922E173F07B9F7ADCF85E3F0CF6D
:103F20008111F3C080912806827229ECE2162CE5FB
:103F3000F20609F4E2C008F079C095ECE9169CE5B8
:103F4000F90609F4D5C008F058C0B3ECEB16BCE58F
:103F5000FB0609F4C1C008F0C6C0F2ECEF16FCE5A0
:103F6000FF0609F48FC0D80112968C911297ED903C
:103F7000FC90882309F407C1C7010E942F0FD82E97
:103F8000682FC7010E94100BB7018D2D0E94210FD1
:103F90000E945B097C01882EF801C280B580B29432
:103FA0003FE0B322809124028770C1F0AC2CCC207A
:103FB000B1F08F2D807F803421F080E28E0D88302B
:103FC00068F08091A10282FF09C082E00E94161071
:103FD000809124028770AA24A3948111A12C9F2C84
:103FE00092942FE09222FBE0F91508F43EC1E92DEE
:103FF000F0E0E55DFC4C0C94AB3247EF55E164E03A
:1040000076E127ECE2162CE5F20609F469C04BE1F3
:1040100056E161E176E138ECE3163CE5F30608F49D
:104020005FC044E056E167EF75E15AC09DECE916C8
:104030009CE5F90609F466C0C8F445E256E167E379
:1040400076E1BBECEB16BCE5FB0609F449C04AEE91
:1040500055E16DED75E1ECECEE16ECE5FE0608F4CD
:104060003FC047E356E165E276E13AC0F6EDEF1670
:10407000FCE5FF0608F44FCD2DE5E216F20609F443
:104080004ACD71CF80910A0480FF1EC08E7F80933D
:104090000A0460910A0470910B0480910C049091C1
:1040A0000D040E94EC1480912B03816080932B03FC
:1040B0003FEF80E792E0315080409040E1F700C050
:1040C00000000E94200D27CD816080930A0461E0EA
:1040D00086950E9449161FCD4CE656E166E776E1CB
:1040E0000E94B70818CD46E756E16CE676E1F8CFB6
:1040F00041E156E16BE176E1F3CF4DED55E16AEE3A
:1041000075E1EECF61E081E0E4CFAAE5EA16ADE526
:10411000FA06A9F168F4E114ECE5FE06B9F0FEED4B
:10412000EF16FCE5FF0609F01ECF0E9494160CC0A6
:104130002CE5E2162DE5F206C1F018F187EAE81643
:104140008DE5F80609F00FCF0E94D41410922806CE
:104150000E9408129FEFA4E3BCE09150A040B04041
:10416000E1F700C000000E946A088091A10282FB72
:10417000882780F991E089270E943210F4CE81E0EF
:10418000FBCF80E0F9CFC7010E94DC0AD82EFCCE1D
:104190002F2D2F70D22E8F2D807F19F0D29490EF7B
:1041A000D922CC20B9F0DD2069F080E28E0D883074
:1041B00010F0811009C080912806D82AD0922806D4
:1041C0000E94B70F8E2D4FC080912D02D82AD09219
:1041D0002D02F6CF8E2D0E947210DD2009F445C00D
:1041E00080E28E0D883010F0811004C08D2D0E9469
:1041F000CB0A06C0D09480912D02D822D0922D02F5
:104200000E94B70F32C03F2D3F70D32E8F2D807F7D
:10421000803219F0D29480EFD8228820A1F081E07A
:10422000881609F46AC0CC2009F474C0BB2009F4D4
:104230006AC0D80115968C91159780FFC3CF8F70F7
:1042400015968C9360C02091A10222FD34C0CC2031
:1042500061F1DD2039F080912806D82AD092280615
:104260000E94B70F80E00E94C810A92DA850BB0B78
:10427000149710F40E94A60DAA2009F401CC809195
:10428000240280FDFDCBF8011282859585958595E8
:104290000E944E10C8010E942B1D8091240285951A
:1042A000859585950E940910EBCB80E00E947210E5
:1042B000DD20D9F29BCFCC2099F090912E028D2D4C
:1042C000892BB11003C00E946810CFCFA1E0BA12B1
:1042D000FACF22FFCACF891741F280932E02C5CFB1
:1042E000B11006C00E94C50A8D2D0E946110BDCF7D
:1042F000B1E0BB1609F4B9CFF5CFCC2031F0E5E041
:10430000EB1508F4B2CF8D2DDECFF4E0FB1508F4E9
:10431000ACCFEACFBB2041F3B9E38B12FDC0EFEF86
:10432000F7EE23E0E150F0402040E1F700C000004C
:104330008E2D0E94721099CF8F2D837091F5C11030
:1043400094CF4E2D429546954770440F440F8E2DC5
:104350008F70042E01C0880F0A94EAF72E2D207169
:10436000E4FE07C02FE030E001C0220F4A95EAF7D3
:1043700020953F2D369536953370323069F050F4E4
:1043800040912F02313029F0822B84230E945A1051
:104390006CCF842B822BFACF282B80912F0282277F
:1043A000F5CF8695CC2011F08F2D8170882309F4EC
:1043B0005CCF4E2D429546954770440F440F8E2D8D
:1043C0008F70042E01C0880F0A94EAF72E2D2071F9
:1043D000E4FE07C02FE030E001C0220F4A95EAF763
:1043E00020953F2D369536953370323069F050F474
:1043F00040913F06313029F0822B84230E94F40F34
:1044000034CF842B822BFACF282B80913F06822732
:10441000F5CF9F2D9F70F92ECC2029F0892F0E9477
:104420004E108E2D50CF8E2D0E9461108F2D0E9428
:1044300009101BCF8E2DA2EF8A16B1F1A81570F0CE
:10444000B0EF8B16D1F0E1EF8E1691F0CC2009F48D
:104450005EC0B110B7CE8F2D8F712AC0F3EF8F16CB
:1044600051F124EF8212F2CF8091A10282FD2FC080
:104470008F2D8F71CC20D9F21BC0CC2081F034E07D
:104480003B1508F4F2CE2F2D2F7181E090E001C092
:10449000880F2A95EAF790913F068927AFCF85E0EC
:1044A0008B1508F4E2CEEFCF8F2D8F71C110BFCFE7
:1044B0000E944E10DACE80E0CC2009F49FCF9F2DD1
:1044C0009F7181E001C0880F9A95EAF797CFCC20C1
:1044D00099F09F2D9F71F92E892F0E944E10809187
:1044E000A10282FF07C0A8E0FA9EC00111248360E8
:1044F000809324028F2DDCCF81E00E941610B1E062
:10450000BB1508F0B2CE82E00E941610AECEBB20E2
:1045100041F0893309F403CF8FE19EE40197F1F76D
:1045200005CF8F2D8F7183CFF0E1EF16FFE5FF06EA
:1045300009F4E8CB21E1E2162FE5F20609F4ECCB11
:10454000F0920703E0920603F80180819181909335
:104550000903809308038281FDEBEF16FDE5FF065A
:1045600009F41ACC08F0DACB3BEBE3163DE5F30691
:1045700009F4EFCB9CEBE9169DE5F90609F4FFCBB6
:10458000882331F080911C03823011F40E94EF1BCC
:10459000C7019A9581159F4108F020CCF701FF27AC
:1045A000D80112968C91E43FF10548F0E93FF105FE
:1045B00008F416CCE83BBDE5FB0709F483CC88235F
:1045C00009F43FCCE15BFD45EA30F10508F039CC58
:1045D000E95CFC4C0C94AB3230E1E3163FE5F306AA
:1045E00009F496CB81E1E8168FE5F80609F0A8CF2B
:1045F00082E08FCB85E0F801DE01119601900D92EB
:104600008A95E1F7D80112962C9189819A8121111E
:104610003BCA0E94DC0AF82E3FCA1F93CF93DF9358
:104620008091F101807F09F049C08091EE018823DB
:1046300009F444C080912302D091F2016091EC0111
:104640007091ED01A091EF01B091F001C62FC72349
:1046500016E0D81799F190E0109711F0CF3F19F4B8
:1046600001968770F6CF189F9001199F300D112485
:10467000F901ED50FE4F41814713F2CF40814613BF
:10468000EFCF42814111ECCF438154814A1B5B0B38
:10469000483C510528F78091F1018F70806180932B
:1046A000F101F901E850FE4F80818F7080618083B5
:1046B0008CEE91E00E942B1D0E94D20ADF91CF91D7
:1046C0001F910895A1E1B0E0E8E6F3E20C944032D6
:1046D0008C0185E0F801DE011D9601900D928A950E
:1046E000E1F7F801E2808CEEA82E81E0B82E60910F
:1046F000EF017091F0016115710509F426C19091E7
:10470000EC014091ED01892F84238F3F09F41DC1F5
:1047100020813181C380D480F090EE01F601E61B48
:10472000F70BFF2009F4DCC08091F101582F507F76
:10473000E83CF10508F09FC051116BC0FE2C4313FB
:1047400014C0921312C0E11010C08F70806180936A
:10475000F101C5010E942B1D8091F101F8018583B3
:104760008F2D6196EAE00C945C32C114D10429F0DB
:10477000822F83238F3F09F003C180E0F82FF1706F
:10478000DF2E80FF3CC0809123024091F20156E071
:10479000841315C02D873E878D859E850E945E0FF0
:1047A000292F22952F702230F0F0243018F59F70B9
:1047B000F1F0F8019581907FD1F4D12C1EC090E0EA
:1047C000589FF001599FF00D1124ED50FE4F61816B
:1047D000361306C06081261303C06281E6120FC043
:1047E00001968770D5CF9F7011F0882331F3805EDA
:1047F000883018F3C8010E942B1DFD2CB1CFEE208C
:1048000009F4AECF8091F10181608093F101F12C28
:10481000A7CF431306C0921304C0F801EE2009F499
:1048200079C0C8010E946B0F882309F1EE20F9F0CE
:104830008091F101803270F02091EC013091ED0116
:1048400038872F831986DB86CA868C87CE01079628
:104850000E942B1D86E0F801ACEEB1E001900D92B4
:104860008A95E1F70E940D23FF24F39479CFC801C4
:104870000E942B1DF9CF51110AC08CEE91E00E94CD
:104880002B1D86E0F50111928A95E9F7C0CF4313FD
:104890000FC092130DC0E1100BC0F8018583C80151
:1048A0000E942B1D86E0F50111928A95E9F758CFF9
:1048B000C8010E946B0F8823D1F2EE20C1F28091D3
:1048C000F101803238F22091EC013091ED013A8310
:1048D00029831B82DD82CC828E83CE010196B8CFE4
:1048E000E83CF105F8F6FE2CEE2009F243131FC058
:1048F00092131DC08091F10180FD10C0982F907F10
:1049000069F0F8018583903F31F0982F907F905F98
:104910008F70892B8583C8010E942B1D86E0F801CA
:10492000ACEEB1E001900D928A95E1F719CFC80184
:104930000E946B0F81118ECF8091F1018160809375
:10494000F101C8010E942B1D0BCFEE2009F48FCF7F
:10495000C8010E946B0FF82E882309F488CF86E0E7
:10496000F801ACEEB1E001900D928A95E1F78091EB
:10497000EC019091ED010E945E0F0E940D23F0CE9C
:1049800081E08E25FBCEA7E1B0E0E9ECF4E20C94E7
:1049900047324B8B5C8B6D8B7E8B8F8B61111092B2
:1049A0002D021A8A198A85E0FE017396DE011D9692
:1049B00001900D928A95E1F786E0FE013D96DE01B9
:1049C000179601900D928A95E1F7CE0107960E9405
:1049D0006223882359F016E0809123029091F2011E
:1049E000891345C06796E3E00C94633286E0FE01CC
:1049F0003796DE01119601900D928A95E1F78A852E
:104A00009B85892B41F38F81988589238F3F19F3EB
:104A10002091F20130E0C9010196877099274091F9
:104A200023024817190681F4109228060E940812E2
:104A30001092F2011092230286E0ECEEF1E0DF0129
:104A40001D928A95E9F7C7CF96E0929FD001939F78
:104A5000B00D1124AD50BE4FFE01319601900D9264
:104A60009A95E1F78093F2010E94D20AB4CF819F18
:104A7000C00111248D509E4F0E946223882309F4A7
:104A8000B1CF8091230290E001968770992780939F
:104A90002302A2CFB0E0A0E0E0E5F5E20C943E32C4
:104AA00036E4A32E36E0B32E40E0E42E41E0F42EAF
:104AB00010E088248394912CD7018D917D010E9470
:104AC000760C00C0E50109915E0126E0C22E21E0CE
:104AD000D22EF601D0E0C0E04191A42FA295AF7094
:104AE000B0E090968C9194010C2E01C0220F0A9494
:104AF000EAF790E04F7002C0959587954A95E2F7E6
:104B000080FD8AC0022B2196C430D10529F7F70118
:104B1000319780810E948A0CA0EAAA95F1F7F501ED
:104B20008291801711F0008311E0B6E0EB16B1E03E
:104B3000FB0611F6EE24E394F12CF60181916F014E
:104B40000E94760C00C097010C2E01C0220F0A941F
:104B5000EAF7522FA6E4B6E080E0A82E81E0B82E56
:104B60002095F50131915F01832F82958F7090E040
:104B7000FC0180A14D9190E03F7002C09595879512
:104B80003A95E2F7BD016150710980FD48C0852F5B
:104B9000842BFB0180838081481311E0F6E0AF167F
:104BA000F1E0BF06F1F6F601319780810E948A0C90
:104BB00020EA2A95F1F72196C830D10509F0BDCF3A
:104BC000C0919F02112371F181E08093B2010E9494
:104BD000E31B9093B1018093B0018091B00190915B
:104BE000B1010E94D41B059708F1D0E0C952DD4FF6
:104BF00046E050E066E476E0CE010E94C132892BA7
:104C000041F086E0E6E4F6E0DE0101900D928A953F
:104C1000E1F71092B2010AC02095022374CF822FCF
:104C20008423B7CF8091B2018111D7CF0E94810D2B
:104C3000082FE0919F0281116CC0F0E0E952FD4F16
:104C400086E0A2E3B2E001900D928A95E1F766E07A
:104C500070E082E392E00E94A10880933102C0904C
:104C60003802D0903902E0903A02F0903B028091F5
:104C7000B3019091B401A091B501B091B601C816ED
:104C8000D906EA06FB06D1F0C092B301D092B40176
:104C9000E092B501F092B6010E94810D81110EC023
:104CA0000E947B08C61AD70AE80AF90AC0929A023B
:104CB000D0929B02E0929C02F0929D02809143026E
:104CC0008823F1F080FF0DC080913C0280FF1EC060
:104CD00090910A04916090930A0460E086950E9486
:104CE00049168091430281FF09C020E040913F02B4
:104CF00060913E0280913D020E94FF141092430297
:104D0000812FCDB7DEB7ECE00C945A320E946B0DC8
:104D1000E8CFACE4B6E086E0ED0119928A95E9F7B8
:104D2000CE2FD0E0C952DD4F809145068A30A8F5DC
:104D300061E678E1CE010E949F0C882309F449C006
:104D400063E078E1CE010E949F0C882309F441C002
:104D50006DEA77E1CE010E949F0C8823D1F1109279
:104D6000450681E08093B901C0919E02D0E0C9520E
:104D7000DD4F46E050E06CE476E0CE010E94C132A7
:104D8000892B09F4BDCF86E0ECE4F6E0DE0101906A
:104D90000D928A95E1F7102FB3CF8091B7019091D2
:104DA000B8010E94D41B843F914010F68091B90154
:104DB000882309F4A5CF1092B901E0919E02F0E09A
:104DC000E952FD4F96E0DF011D929A95E9F7182F01
:104DD00097CF809145068F3F31F08F5F80934506D6
:104DE0008A3008F4BECF0E94E31B9093B8018093F1
:104DF000B701DCCF1F921FB61F9211248F939F9390
:104E0000AF93BF9380912206811113C08091230636
:104E100090912406A0912506B09126064196A11DE9
:104E2000B11D8093230690932406A0932506B0938A
:104E30002606BF91AF919F918F911F901FBE1F902B
:104E40001895CDB7DEB7AB970FB6F894DEBF0FBE9F
:104E5000CDBF85B7806885BF85B7806885BF84B7BB
:104E6000877F84BF0FB6F894A89580916000886111
:104E700080936000109260000FBE80E890E00FB653
:104E8000F89480936100909361000FBE87EE98E0E4
:104E90009093A7018093A6010E94E0060E94AB07B1
:104EA0008091E20084608093E200789480913506DE
:104EB0008823A1F01091E9001F709091EC00892FD8
:104EC000817090FD80E8182B1092E9008091E80035
:104ED00083FD0E9414121F701093E90082E084BDCC
:104EE00093E095BD9AEF97BD80936E0010929A0261
:104EF00010929B0210929C0210929D020E949E0FA3
:104F0000811102C00E94E20E0E94E31880910A0102
:104F10000E94E318809106010E948A0C809107018B
:104F20000E948A0C809108010E948A0C80910901DC
:104F30000E948A0C00E011E0D8018D918D010E9441
:104F40008A0CB1E006301B07B9F780910A0196E0A0
:104F5000811190E090939F0286E0891B80939E02CE
:104F60000E94810D811102C00E94C530E6E4F6E086
:104F700082E596E0A7EDB2E011921D928E179F0791
:104F8000D9F70E94FA18811102C00E94941682E09B
:104F900090E00E94D7328093A50284E090E00E94C6
:104FA000D732182F82E290E00E94D732982F812FBB
:104FB0009093A1028093A0020E944A25EFE3FCE9AE
:104FC0003197F1F700C000000E944A258091D70276
:104FD00080FF08C06FEF7FEF90E080E00E94093310
:104FE0000E946A0883E090E00E94D7320E945A1023
:104FF00080913F060E946B0B0E94810D882309F46B
:1050000060C180E08093D20280E880930F040E9408
:105010007C2F6DE070E08AE192E00E94E90D892B1F
:10502000E9F58091D20263E070E081FD4CC187E137
:1050300092E00E94E90D892B89F56DE070E087E030
:1050400092E00E94E90D892B49F50E947B08605A85
:1050500075418F4F9F4F60931A0670931B06809384
:105060001C0690931D06E2E1F4E080E092E0DF018F
:105070009C011D9221503040E1F7F0931906E09316
:1050800018068FEF9FEF909311048093100481E036
:1050900080931F0680931E061092D3028091A20275
:1050A000811136C00E94FA18811104C00E94941622
:1050B0000E947B1688E090E00E94DF3260930A0431
:1050C00070930B0480930C0490930D0480912B0338
:1050D000836080932B036E7F71F40E947B1688E0BF
:1050E00090E00E94DF3260930A0470930B04809377
:1050F0000C0490930D040E94BD0880910A0480FF67
:1051000004C060E086950E94491681E08093A20267
:105110000E94810D811102C00E94C5300E944C1A6C
:105120000E94810D81112EC082EE9DE0909352016C
:105130008093510127E130E030934D0120934C01E1
:1051400087E390E09093500180934F0143ED58E046
:1051500050935A01409359013093550120935401C3
:1051600090935801809357014AE15AE150936201AC
:105170004093610130935D0120935C019093600145
:1051800080935F010E94FA18882389F08FE090E0F5
:105190000E94DF328B01862F8F770E94011A001F39
:1051A0000027001F1370110F102B109300030E9493
:1051B000CE0D83E190E00E94DF328B019C01609371
:1051C000120310931303809314033093150310926A
:1051D000160310921703109218031092190383E616
:1051E00091E090932106809320068091350600E19E
:1051F00012E1853009F4A9C00E944A25B6EAEB2ED7
:10520000B2E0FB2E18E8212E11E0312EB10127ED7E
:1052100032E0F7019191D9018D919D01DB014D9112
:10522000BD018423A2EBCA2EA2E0DA2ECE16DF0641
:1052300009F497C0981771F30E94810D682EE8E871
:10524000CE2EE1E0DE2EF7EDAF2EF2E0BF2E00E035
:10525000D5011D915D01F60181916F011823D701E0
:105260007D907D01711629F17126912C88248394FB
:10527000872D8821B1F06620A1F09EA20FA391E0B6
:10528000812F882109F490E098A70E94E31B816098
:10529000782F9AA789A74EA15FA168A58AA50E9429
:1052A000C3249394880CB8E09B12E2CFF7013197A6
:1052B00010830F5F0C3061F60E947B08DD24D394CD
:1052C00071C082E09FCE84E192E0B3CE809135063A
:1052D000843041F10E94130E0E94FC1B10922206A2
:1052E00048E150E080E40FB6F894A8954093600040
:1052F0000FBE8093600083B7817F846083BF83B7D4
:10530000816083BF7894889583B78E7F83BF0FB603
:10531000F894A89580916000886180936000109255
:1053200060000FBE80913406882379F00E944A25E0
:10533000A8E8B1E0E7EDF2E081919D91892309F0C1
:10534000E9C492E0E33EF907B9F78091350685306C
:1053500009F4BCCF109228060E9408120E94A60DE4
:105360004BCF981369CF0E94E31B8C018091A3025D
:105370009091A40208171907A1F08FEF89A38AA3BF
:105380001BA20E94E31B8160782F9DA38CA349A1DF
:105390005AA16BA18DA10E94C3241093A402009373
:1053A000A302D12C0E94810D80911F06882351F108
:1053B0008091D4029091D5020E94D41BC29708F02C
:1053C00012C120911004309111042115310509F00A
:1053D0000FC280911E068823A9F00E947B080091CD
:1053E0001A0610911B0620911C0630911D06601BA9
:1053F000710B820B930B6F3F7F4F8F4F9F4710F4C2
:105400000E94130ED1100E942E0E0E94FC1B0E94BF
:10541000A60D9091D602891721F08093D6020E94A2
:105420007B0880913506843009F4AEC20E94810D5C
:10543000882309F4DACE0E947B082091E902211129
:105440006DC00091E5021091E6022091E7023091D3
:10545000E8026B017C01C01AD10AE20AF30A970143
:105460008601043F11402105310508F457C06093BF
:10547000E5027093E6028093E7029093E802809140
:10548000E3029091E40201969093E4028093E30298
:1054900019828E010F5F1F4F21E050E040E060E075
:1054A00088E00E945717811106C08091E302909115
:1054B000E4020A979CF181E08093E9028093EF0275
:1054C0009981911101C080E08093F0028091EE02F9
:1054D00010E0882329F00E94B70D11E0811112E03D
:1054E0008091F002882309F411C40E94B70D811144
:1054F0000FC482E0182B0E94950F6B017C01DC0128
:10550000CB018C7FBC01CD01612BC616D706E80606
:10551000F90611F00E94C40E0E94CE0D8091F00297
:10552000882309F462CE0E947B086B017C01809184
:10553000EA029091EB02A091EC02B091ED02A7017A
:105540009601281B390B4A0B5B0BDA01C901049742
:10555000A105B10580F119821A821B821C828E017D
:105560000F5F1F4F24E050E040E060E089E00E94C0
:1055700057178823C1F069817A818091F502909153
:10558000F6020E94630C9093F6028093F5026B8101
:105590007C818091F7029091F8020E94630C9093B5
:1055A000F8028093F702C092EA02D092EB02E092F6
:1055B000EC02F092ED028091FA02882309F415CEF4
:1055C0008091F902898310E000E020E0AE014F5F96
:1055D0005F4F61E08AE00E945717882309F405CEE7
:1055E0001092FA0202CE0E94E31B9093D5028093A0
:1055F000D402E2E1F4E0F0931906E09318060E9469
:10560000810D882309F4EEC010910603012F60E09C
:1056100087E692E00E94A811809109038F708A307A
:1056200008F0D2C0805D60E00E94171160E083E660
:1056300092E00E94A811809108038F708A3008F0D0
:10564000C5C0805D60E00E941711002309F4C4C04A
:1056500060E080E692E00E94A811812F82958F7011
:105660008A3008F0B5C0805D60E00E941711812F7C
:105670008F708A3008F0AEC0805D60E00E94171124
:105680008CEF810F853308F0A7C060E08CE592E0D5
:105690000E94A811212F2450330BF901E95DFD4F21
:1056A000849160E00E94171160E083E892E00E941C
:1056B000A81180910C030E94380C60E00E94BA117E
:1056C00080910D030E94380C60E00E94BA11809115
:1056D0000F030E94380C60E00E94BA1180910E0303
:1056E0000E94380C60E00E94BA1160E08AE792E004
:1056F0000E94A8118091F902811101C085E00E94E9
:10570000380C60E001960E94BA1160E084E792E0F4
:105710000E94A8118091FB02811162C080E360E0C9
:105720000E94171160E080E792E00E94A81180912A
:105730000003811101C084E060E0805D0E941711C8
:105740006091120383E992E00E94A8111091120364
:1057500080913F060E94460B0E947906612F0E94AD
:10576000BA11609112038FE892E00E94A811109183
:105770001203809110030E947906612F0E94BA11D2
:10578000609112038DE892E00E94A811109112031B
:10579000809113030E947906612F0E94BA116091D3
:1057A000120389E892E00E94A811109112038091DF
:1057B00015030E947906612F0E94BA1180911F067D
:1057C000882309F406CEFDCD895A2DCF895A3ACFC8
:1057D000895A4ACF895A51CF81E00E94D51164CFAE
:1057E00081E39DCF60E086E992E00E94A811E6CFB8
:1057F0008091D30261E070E08111EBCD082F10E0C1
:105800007B01082E02C0EE0CFF1C0A94E2F7A901EE
:105810004E215F21452B09F447C09091D20290FDA3
:1058200045C08295880F80768093710198013695E6
:1058300027953695279520937401815E8093720198
:105840001092750124E630E047E050E06FE671E029
:1058500088E70E941C30892B09F0BBCDA80165E0C8
:10586000440F551F6A95E1F78091D20280FD2CC04C
:105870004E5E5B4F04E610E020E230E060E488E733
:105880000E943D30892B09F0A4CD0E942E0EE09499
:10589000F0948091100490911104E822F922F09282
:1058A0001104E092100495CD8F5FA8CF880F880F68
:1058B000880F8093710110927401895F8093720147
:1058C00083E080937501BECFE2EBF2E080E2DF017E
:1058D0001D928A95E9F704E811E020E8A22E21E064
:1058E000B22E38E8432E31E0532ED801ED918D01D0
:1058F000D5016D915D01640F752F711D6E5E7B4F3B
:10590000F0E0EE54FD4F30E020E097E0692E621A9F
:10591000CC24C394022E01C0CC0C0A94EAF74B01AC
:1059200090E0D4018D914D018C21A62DA91BA7706B
:10593000ABA70A2E000CBB0B782E0BA401C0770C72
:105940000A94EAF77BA6B195A195B109A770BB2788
:1059500001C08695AA95EAF7782A8081782A708214
:105960009F5F9830F1F62F5F3F4F31962830310519
:1059700061F64016510609F0B8CF04E610E020E2C7
:1059800030E042EB52E07ACF83E08093E9008091EF
:10599000E80082FF4BCD8091E80090E085FF05C0D4
:1059A0000E94FF06882399F091E08091E8008B77B0
:1059B0008093E800992309F439CDE981E150E3317E
:1059C00008F07FC0F0E0EF5BFC4C0C94AB3280E25F
:1059D000E82EF12C8E010F5F1F4F8091E80085FDAE
:1059E0000AC08091E8008B778093E8000E94FF0650
:1059F000882399F3D9CF8091F100D8018D938D013F
:105A0000B1E0EB1AF10849F7CFCF1A828AE08B8315
:105A100010C08A818230A1F18330A9F1813009F070
:105A200050C00E947B080E94B1326B837C838D83BF
:105A30009E8380913506843009F0F8CC1091E900FE
:105A40001F709091EC00892F817090FD80E8182BD9
:105A500082E08093E9008091E80080FF0DC050E073
:105A600040E060E270E0CE0101960E943007809134
:105A7000E8008E778093E8001F701093E900D6CC81
:105A80000E94950FD0CF9E012D5F3F4FE7EDF2E0D2
:105A90008191D1019D911D018923D9018D939D0192
:105AA000B2E0E33EFB07A1F7C4CF8A81823049F41C
:105AB0006B817C818D819E810E94B1320E94C40ED7
:105AC000B8CF8FEF8983B5CF4C816B818A810E94DB
:105AD000F20E9827892798279E838D83AACF2D8140
