:100000000C945D060C947A060C947A060C94BC341D
:100010000C947A060C947A060C947A060C947A0660
:100020000C947A060C947A060C94151C0C94D11B33
:100030000C947A060C947A060C947A060C947A0640
:100040000C947A060C947A060C947A060C947A0630
:100050000C947A060C94EE1C0C947A060C947A0696
:100060000C947A060C947A060C947A060C947A0610
:100070000C947A060C947A060C947A060C947A0600
:100080000C947A060C947A060C947A060C947A06F0
:100090000C947A060C947A060C947A060C947A06E0
:1000A0000C947A060C947A060C947A0605010902DF
:1000B000A10185020901A1000509190129081500FE
:1000C0002501950875018102050109300931158165
:1000D000257F95027508810609381581257F9501D0
:1000E00075088106050C0A38021581257F95017572
:1000F000088106C0C00660FF0961A1010962150000
:1001000026FF009520750881020963150026FF006F
:10011000952075089102C005010906A1010507197E
:10012000E029E71500250195087501810295017503
:100130000881010507190029FF150026FF00950613
:100140007508810005081901290515002501950587
:1001500075019102950175039101C0000000000036
:10016000000000000000000000000000000000008F
:100170000000000000000000000000000000007E01
:100180000F00D4FFFFFFC700000078000000000050
:100190000000002A2B2800000000000000000000E2
:1001A00000000000000029000000002C1E34202167
:1001B0002224342627252E362D3738271E1F2021AE
:1001C00022232425263333362E37381F040506070D
:1001D00008090A0B0C0D0E0F101112131415161727
:1001E00018191A1B1C1D2F3130232D350405060745
:1001F00008090A0B0C0D0E0F101112131415161707
:1002000018191A1B1C1D2F3130354C00DA0281FFE2
:10021000D9F1DB20A4A62EAF00A0C0D30000A1C856
:10022000D30000AED580A81F408D1420000001012E
:1002300001010101010101020202020202020202A5
:100240000303030303030303040404040404040575
:100250000505050506060606060707070707080839
:100260000808090909090A0A0A0B0B0B0C0C0C0DEA
:100270000D0D0E0E0E0F0F0F101011111112121383
:10028000131414151516161717181819191A1A1BFE
:100290001B1C1D1D1E1E1F2020212222232424255D
:1002A0002626272829292A2B2C2D2D2E2F30313296
:1002B00032333435363738393A3B3C3D3E3F4041A6
:1002C00042434445464748494A4C4D4E4F5051538E
:1002D00054555658595A5B5D5E5F61626465666845
:1002E000696B6C6D6F7072737577787A7B7D7E80C9
:1002F00082838587888A8C8E8F91939596989A9C15
:100300009EA0A2A3A5A7A9ABADAFB1B3B5B7BABC28
:10031000BEC0C2C4C6C9CBCDCFD1D4D6D8DBDDDFF9
:10032000E2E4E7E9EBEEF0F3F5F8FAFDFF00000098
:100330000000003E5B4F5B3E003E6B4F6B3E001C7F
:100340003E7C3E1C00183C7E3C18001C577D571C10
:10035000001C5E7F5E1C0000183C180000FFE7C315
:10036000E7FF00001824180000FFE7DBE7FF00307C
:10037000483A060E00262979292600407F05050700
:1003800000407F05253F005A3CE73C5A007F3E1C59
:100390001C0800081C1C3E7F0014227F2214005FF2
:1003A0005F005F5F0006097F017F00006689956A34
:1003B0000060606060600094A2FFA2940008047E68
:1003C00004080010207E20100008082A1C080008DD
:1003D0001C2A0808001E10101010000C1E0C1E0C09
:1003E0000030383E383000060E3E0E060000000099
:1003F00000000000005F000000000700070000147C
:100400007F147F1400242A7F2A12002313086462B9
:1004100000364956205000000807030000001C2247
:100420004100000041221C00002A1C7F1C2A0008F9
:10043000083E08080000807030000008080808081E
:10044000000000606000002010080402003E5149D6
:10045000453E0000427F4000007249494946002164
:1004600041494D33001814127F1000274545453986
:10047000003C4A49493100412111090700364949E8
:10048000493600464949291E0000001400000000BA
:100490004034000000000814224100141414141405
:1004A000000041221408000201590906003E415D86
:1004B000594E007C1211127C007F49494936003E9A
:1004C00041414122007F4141413E007F494949412C
:1004D000007F09090901003E41415173007F08086E
:1004E000087F0000417F4100002040413F01007F24
:1004F00008142241007F40404040007F021C027FE0
:10050000007F0408107F003E4141413E007F090901
:100510000906003E4151215E007F09192946002647
:10052000494949320003017F0103003F4040403FF9
:10053000001F2040201F003F4038403F0063140848
:100540001463000304780403006159494D4300001B
:100550007F41414100020408102000004141417FD9
:100560000004020102040040404040400000030734
:100570000800002054547840007F28444438003854
:100580004444442800384444287F003854545418C4
:100590000000087E0902001824241C78007F08044B
:1005A00004780000447D4000002040403D00007E73
:1005B000102844000000417F4000007C047804784B
:1005C000007C08040478003844444438007C182433
:1005D000241800182424187C007C0804040800480F
:1005E000545454240004043F4424003C4040207CE4
:1005F000001C2040201C003C4030403C004428109F
:100600002844004C9090907C004464544C4400007A
:100610000836410000000077000000004136080065
:10062000000201020402003C2623263C00000000D8
:100630000000000000000000000000000000F81EA4
:10064000030101020C080808080810101010180413
:10065000020206FC00000000000000000000000094
:100660000000F01E030101030C0808080808080830
:1006700008080C0603010103FE0000000000000052
:1006800000000000000000F03E030103060C0C0C0B
:1006900008080808080808080C060101031EE00005
:1006A0000000000000000000000000E0F0F0F0E0BA
:1006B000ECEEF7F37020007C7C7C7E007E7E7E7FFB
:1006C0007F7F000080C0E07E5B4F5BFEC00000C00B
:1006D00000DCD7DEDEDED7DC00C00000000000005A
:1006E000000000000000000000000000000000000A
:1006F0000000000000C020008060180000C07F00E3
:1007000000000000000202000000000000000202E1
:1007100000000007F80000000000C020008060100A
:100720000000FF00000000000003030000000000C4
:10073000000003030000000003FE0000000000C0F2
:1007400020008060100000FF000000000000030394
:100750000000000000000000030300000000FF0094
:1007600000000000000000000000000F1F3F7F7F1E
:100770007F7F7F3F1E0C001F1F1F3F003F3F3F7FBB
:100780007F7F00307B7F7830202030787F3B0003F4
:10079000000F7F0F0F0F7F0F00030000000000000D
:1007A0000000000000000000000000000000000049
:1007B000000000000718200007182000001F30204C
:1007C0003018081020203018102020203018081071
:1007D000204020301F0000000007182000071820CC
:1007E00000001F30202010080810202030080808C2
:1007F0001030203018081830201F000000000718A3
:10080000200007182000001F30203018183020303A
:100810001808302030180808183020203808070041
:1008200000000000000000000000000000000000C8
:1008300000000000000000000000000000000000B8
:1008400000000000000000000000000000000000A8
:100850000000000000000000000000000000000098
:100860000000000000000000000000000000AF6178
:1008700062636465666768696A6B6C6D6E6F7071E0
:1008800072737475767778797A31323334353637D6
:10089000383930524542545F2D3D5B5D5C233B2728
:1008A000602C2E2F20202700204B00202043004BBF
:1008B0006579203A2020520020204400303020204A
:1008C000530020202020204350490042616C6C3AA4
:1008D0000052543A002F004D563A004C3A008081A5
:1008E00082838485868788898A8B8C8D8E8F909170
:1008F000929394A0A1A2A3A4A5A6A7A8A9AAABACD1
:10090000ADAEAFB0B1B2B3B4C0C1C2C3C4C5C6C747
:10091000C8C9CACBCCCDCECFD0D1D2D3D40000AEB3
:1009200029001E001F0000002000210022000000FE
:100930002B0014001A00625208001500170028004E
:10094000E000040016000000070009000A00000093
:1009500021521D001B000000060019000500300098
:10096000E200E300000000000608904391412C42A1
:100970004F00500051005200000000000000000035
:100980002D00270026000000250024002300000081
:100990002F001300120028000C0018001C00290072
:1009A000340033000F0000000E000D000B000000AB
:1009B00087003800370000003600100011003200B8
:1009C00089002E00000000001908E30028002A001A
:1009D0002B022B001D0A1D08000000000000000073
:1009E00029021E022F000000200221022202000024
:1009F0002B0214021A02010008021502170201005C
:100A0000E002040216020000070209020A020000C6
:100A100001001D021B02000006021902050230023D
:100A2000E202E302000000000100010001000100F9
:100A300001000100010001000000000000000000B2
:100A4000870227022602000025022402230200005A
:100A50002F021302120201000C0218021C020100F4
:100A6000340233020F0200000E020D020B020000DE
:100A700087023802370200003602100211023202E9
:100A800089022E02000000000100010001000100A7
:100A90000100010001000100000000000000000052
:100AA00001003A003B0000003C003D003E00000019
:100AB00001000100240001002500260001000100C2
:100AC0000100010021000000220023003302000089
:100AD000010001001E0000001F0020002D02250261
:100AE0000100010000000000010001000100010000
:100AF0002B002B020100010000000000000000009C
:100B00004400430042000000410040003F0000005C
:100B1000450001004E00010052004B0001000100A1
:100B200001004D004F000000510050004A0000003D
:100B300001000100D3000000D200D100D500D40094
:100B4000010001000000000001000100010001009F
:100B50000100010001000100000000000000000091
:100B600020780100010000000100010001000000E8
:100B70002178237825780100277801000100010001
:100B800022782478267800002878477E467E000068
:100B90004B7E4C7E4D7E00004E7E497E487E037C1F
:100BA000007C4A7E000000000100010001000100FD
:100BB0000100010001000100000000000000000031
:100BC00030782F782E7800002D782C782B78000044
:100BD0000100010034780100337832783178010067
:100BE000407E417E447E0000427E437E457E000082
:100BF0000100010001000000010001000100037C70
:100C0000007C010000000000010001000100010063
:100C100001000100010001000000000000000000D0
:100C200009025B00030100A0FA09040000010301AE
:100C30000100092111010001224400070581030878
:100C40000001090401000203000000092111010054
:100C5000012222000705820320000107050303206B
:100C60000001090402000103000000092111010034
:100C7000012249000705840320000112010002003F
:100C8000000008594D00010002010200010E036D31
:100C90000074006B00360034006500000016036D20
:100CA0000065006E00740061006B006F005F0079EA
:100CB0000061000000040309040011241FBECFEFEF
:100CC000DAE0DEBFCDBF11E0A0E0B1E0E2EDFEE68C
:100CD00002C005900D92A63CB107D9F726E0A6EC1C
:100CE000B1E001C01D92AB39B207E1F70E949C2A26
:100CF0000C941F370C9400008F929F92AF92BF927A
:100D0000CF92DF92EF92FF9290918801981305C0E5
:100D100090918B06903209F44BC08093880190E249
:100D200090938B06C82ED12CF12CE12C10928A06C0
:100D3000C701B6012AE030E040E050E00E944336AF
:100D4000605D603331F0C114D104E104F10409F4B1
:100D500060E26093890660E28AE0C816D104E1048B
:100D6000F10490F08AE0882E912CA12CB12CC701BF
:100D7000B601A50194010E944336CA01B901A5013B
:100D800094010E944336605D6093880620E284E609
:100D9000C816D104E104F10448F0C701B60124E605
:100DA00030E040E050E00E944336205D209387060B
:100DB00087E896E0FF90EF90DF90CF90BF90AF90E4
:100DC0009F908F900895482F2091860690914D0610
:100DD00057E0291302C080E0089530E0529FF001EF
:100DE000539FF00D1124E25BF94F8181681306C017
:100DF0008081481303C085818111EECF2F5F3F4F63
:100E00002770E7CFE8EDF0E080818E7F808310923D
:100E1000E2001092DA001092E100A0EEB0E08C91B6
:100E200081608C9380818F77808319BCA7EDB0E0BF
:100E30008C918E7F8C9380818F7E8083109235067B
:100E400008952091E4003091E50095E6A9012091F4
:100E5000EC00822F817020FF06C08091E80080FFA7
:100E600006C080E008952091E80022FD1AC080911C
:100E70004306882389F0853089F08091EB0085FD59
:100E80000FC02091E4003091E50042175307F9F2BA
:100E90009150E1F684E0089582E0089583E008959A
:100EA00081E008958091450687FF13C08091E80096
:100EB00082FF06C08091E8008B778093E80004C031
:100EC000809143068111F2CF0895809143068823D3
:100ED000D9F38091E80080FFF8CF8091E8008E7709
:100EE000ECCF982F9093E900242F762F50E08917AC
:100EF00031F07091EC002091ED005091F00021FD57
:100F000007C09F5F973071F78093E90081E00895F3
:100F10003091EB003E7F3093EB003091ED003D7F50
:100F20003093ED003091EB0031603093EB00709323
:100F3000EC002093ED005093F0002091EE0027FD8F
:100F4000E0CF80E00895B0E0A0E0E9EAF7E00C949B
:100F5000F635C8EDD0E088818F7E8883E7EDF0E03C
:100F600080818160808384E082BF81E08093350648
:100F700088818E7F888302EE10E0F8011082109243
:100F8000DA0081EEC82ED12CF601108288818F778D
:100F9000888388818068888388818F7D888319BC55
:100FA0001092430610924406109242061092410697
:100FB00090EEE92EF12CF70180818B7F8083888170
:100FC0008160888342E060E080E00E947107F60162
:100FD00080818E7F8083F801808181608083808121
:100FE00088608083F70180818E7F80838881806123
:100FF0008883CDB7DEB7E8E00C941236FC0180910F
:101000004B0690914C0686179707A0F06115710565
:1010100029F49091E8009E779093E80090E06115A4
:10102000710551F4911108C08091E80082FF34C02D
:1010300080E00895BC01F2CF809143068823C1F17E
:101040008530C1F18091E80083FD30C08091E800D7
:1010500082FDEACF8091E80080FFE1CF8091F3002C
:101060002091F200382F6115710519F028303105F3
:1010700058F091E02830310509F090E02091E80027
:101080002E772093E800CBCF81918093F1006150BF
:1010900071092F5F3F4FE7CF80914306882341F0CE
:1010A000853041F08091E80083FFBECF81E0089554
:1010B00082E0089583E008950895809138060895A8
:1010C00087E797E7909301088093000888E19AE00A
:1010D0000FB6F894A895809360000FBE90936000BF
:1010E000FFCF2FB7F894609131067091320680914E
:1010F0003306909134062FBF08959C01FC0132966F
:101100009FEF80E04191461751F09F3F19F4411144
:1011100001C0982F8F5F8630A9F79F3F09F408958B
:10112000290F311D97FD3A95F90162830895FC015D
:10113000680F791F8FEF91E32191822728E030E03B
:1011400087FF09C0880F892721503109C9F7E617A1
:10115000F70791F70895880FF7CFFA01811101C0C1
:10116000FB01099508958091C103982F9E7F71F42A
:101170008091C103817082608093C1038091C40318
:10118000893718F088E78093C4030895843080F786
:10119000F5CFCF93DF93E2EDF3E083819481A581D6
:1011A000B681E90188839983AA83BB831482138261
:1011B00016821582DF91CF91089580E0089563E053
:1011C00070E089E392E00E949708909138028913B9
:1011D00018C0E0913902ED30A4F488E0E802F00193
:1011E0001124E55FFE4F0680F781E02D309749F02E
:1011F0002CE532E040913B026CE372E080913A02D0
:1012000009950895EFE1F2E0838D80934301848D89
:1012100080935601089590919A0292FF10C041E088
:10122000282F2471243009F040E031E0282F287164
:10123000283009F030E0431711F02CE0822793FFAB
:1012400010C041E0282F2471243109F040E031E042
:10125000282F2871283109F030E0431711F02CE0D5
:10126000822730919B0230FF10C051E0282F21715E
:10127000213009F050E041E0282F2871283009F092
:1012800040E0541711F029E0822731FF10C041E0FF
:10129000282F2171213109F040E031E0282F2871F9
:1012A000283109F030E0431711F029E0822794FD3E
:1012B000877E089582389105B9F1B0F481339105A4
:1012C00009F47DC048F48932910509F46DC08A3271
:1012D000910509F47BC008958533910509F45FC039
:1012E0008933910509F10895833E9105D9F138F4C8
:1012F000803E910529F1823E910579F10895863E5F
:101300009105D9F1873E910509F43EC0843E9105CF
:1013100041F520919B0221FF24C080919A0284FD17
:1013200019C087EE90E0089520919A02237009F089
:101330005AC020919B0223FF14C089E290E00895D7
:1013400020919A0220FD38C030919B0230FF09C0E5
:1013500024FF43C090E080E0089520919A0222FD8E
:10136000F7CF089520919A0222FD3AC030919B0256
:1013700030FD39C024FFF5CFEDCF20919A0223FF35
:10138000F0CF24FDE7CFCDCF20919A0223FD2EC0D0
:1013900030919B0231FFEECF84EE90E008952091D2
:1013A0009A0225FFDECFC9CF20919A0225FD21C0E8
:1013B00020919B0223FFD5CF89E390E0D2CF2091EB
:1013C0009A0226FFCECF8AE290E0089520919A02F9
:1013D00026FFC7CF81E390E0089583EE90E0089563
:1013E00082EE90E0089580EE90E0089586EE90E021
:1013F000089585E390E008951F93CF93DF930E94B3
:101400005A09EC01C11582E5D80708F03FC0C115A3
:1014100090E5D90708F0C2C0C83ED105C0F4C03E6F
:10142000D10580F4C53AD10548F4C430D10550F453
:10143000C130D10539F0D0E0C0E004C0CD3CD105C9
:10144000D0F3D065CE01DF91CF911F910895C115E2
:1014500080E4D80708F053C0C11590E2D90708F01E
:10146000B7C0C11581E0D80730F38D2F0E940B095A
:10147000182FCE0199270E945A09C12FD0E0DC2FE6
:10148000CC27CC27DF71C82BD92BDCCFC03892E515
:10149000D907A8F4C03682E5D80708F063C0C03485
:1014A00092E5D90708F049C0C03282E5D80788F133
:1014B000CF71D0E0DC2FCC27C16FD06AC3CFC03C46
:1014C00092E5D90780F48C2F8F71C03AD24508F489
:1014D0005EC00E940B09C82FD0E0DC2FCC27CC27A0
:1014E000DF71D062AFCFC03E82E5D80708F0A3CF4E
:1014F000DC2FCC27CC27DF71C06FD06AA3CFCE0101
:1015000099270E945A09CC27DF70C82BD92BD06AA3
:1015100099CF2C2F2695269590E2299F9001112492
:101520008C2F8370C1E0D0E002C0CC0FDD1F8A9504
:10153000E2F7C22BD32BDD6885CF2C2F269526957D
:10154000277080E2289F900111248C2F8370C1E0C6
:10155000D0E002C0CC0FDD1F8A95E2F7C22BD32B5F
:10156000DC6870CF2C2F26952695277090E2299F56
:10157000900111248C2F8370C1E0D0E002C0CC0F09
:10158000DD1F8A95E2F7C22BD32BDA685BCFC82F19
:10159000D0E0DC2FCC27C46FD06A54CF8C2F8F7152
:1015A0000E940B0955E0D695C7955A95E1F7CF7083
:1015B000D0E0DC2FCC27282F30E084FF05C044E0AA
:1015C000220F331F4A95E1F7C22BD32BD0693ACFB4
:1015D0008D2F8F710E940B09182FCE0199270E9421
:1015E0005A09C12FD0E0DC2FCC27CC27DF71C82BC4
:1015F000D92B77CF80959091360698239093360615
:1016000008958091860690914D06981301C0089523
:101610008F5F8770FACF9C3080F5883070F548E096
:10162000949F90011124820F932F911D682F677052
:1016300023E0969587952A95E1F7FC01EE0FFF1FB1
:10164000E80FF91FEB51FE4F50E040E080E02191A0
:1016500030E0062E02C0369527950A94E2F72170F5
:101660003327042E01C0220F0A94EAF7822B4F5F22
:101670005F4F4330510559F7089580E008959C303D
:1016800098F5883088F548E0949F90011124820FE6
:10169000932F911D282F277041E001C0440F2A95F8
:1016A000EAF723E0969587952A95E1F7FC01EE0F7E
:1016B000FF1FE80FF91FEB51FE4F90E080E070E054
:1016C0005191DF0111979B01082E02C03695279595
:1016D0000A94E2F7217021952527242325272C93AE
:1016E00001968330910561F7089580931B02089558
:1016F000982F92959F7011F0892F94E0282F2695AE
:10170000269511F09E5F822F869509F09F5F892FA5
:1017100008959C013A9521153F4150F5FC01EE27B3
:10172000F170BC0166277270AC01442754709C01B3
:101730002227387094FF0EC080E1EF2B09F480E07F
:10174000672B09F08062452B09F08064232B89F018
:101750008068089581E0EF2B09F480E0672B09F0A1
:101760008260452B09F08460232B19F0886008956E
:1017700080E00895CF93C82F8091E0038C1751F03B
:101780000E9471086093E1037093E2038093E30386
:101790009093E403C093E003CF910895CF93C82FB3
:1017A0000E94780B91E0833009F090E0892F0E942D
:1017B000BA0B8091BA02823031F41092BA028C2FA7
:1017C0008B7F09F0C82F8C2FCF9108950E94CE0BEC
:1017D0008093F70308959091F70321E030E0F90139
:1017E00001C0EE0F8A95EAF7D90102C0AA0FBB1F0C
:1017F0006A95E2F7EA2B01C0220F4A95EAF7892F92
:101800008E23E81305C0292B822F0E94E60B089532
:1018100020952923F9CF21E030E001C0220F8A95DD
:10182000EAF720958091F70382230E94E60B089542
:10183000909110028095892380931002282F2770A1
:1018400069F4891759F090919B0292FF07C0869521
:10185000869586950E940B0C10921002089521E047
:1018600030E001C0220F8A95EAF78091F703822BBE
:101870000E94E60B0895B0E0A0E0E1E4FCE00C94E7
:10188000F635FC01EB019091E503911101C094E064
:101890006081718191509B01092E02C03595279579
:1018A0000A94E2F7D901092E02C0AA0FBB1F0A94BD
:1018B000E2F76A1B7B0B71836083628173818B010A
:1018C000092E02C0159507950A94E2F7D80102C0C7
:1018D000AA0FBB1F9A95E2F76A1B7B0B7383628387
:1018E00081E80138BFEF1B072CF0802F003811056D
:1018F0000CF08FE78D8321389FEF390754F12038A2
:1019000031054CF5922F91959C83442319F08195D4
:101910008D832C830E9471082D81211103C02C819D
:101920002223D9F06093E6037093E7038093E803E2
:101930009093E9038091EA039BE0980F973120F49C
:10194000080F0093EA031D82CDB7DEB7E8E00C94E0
:10195000123621E8D7CF2FE7D5CFC090E603D0903D
:10196000E703E090E803F090E9036C197D098E0924
:101970009F096436710581059105E0F21092EA0332
:10198000D9CFFC01DB012281338191E821388FEF2F
:1019900038072CF0922F203831050CF09FE7129673
:1019A0009C9312972081318121388FEF3807A4F062
:1019B000203831059CF413962C931397442339F067
:1019C000919512969C931297219513962C931182C0
:1019D000108213821282089521E8EDCF2FE7EBCF1A
:1019E000CF93DF93FC0120E297FF04C0F195E195CE
:1019F000F1092DE2CAE0D0E0CF01BE010E942F36EE
:101A0000805D8093DD016115710569F42093DC012F
:101A100020E22093DB0120E22093DA018AED91E0BD
:101A2000DF91CF910895CB01BE010E942F36805DDA
:101A30008093DC01CF0164E670E00E942F366115CF
:101A4000710539F3605D6093DB01E6CF9C01860F81
:101A5000971F37FD07C077FD04C097FF02C08FEFC7
:101A60009FE7089577FFFDCF97FDFBCF80E090E8DB
:101A70000895E82FE295EF70F0E031A1282F2F7044
:101A800081E090E001C0880F2A95EAF7382B31A356
:101A900092A18095892382A30895E82FE295EF70A3
:101AA000F0E031A1282F2F7081E090E001C0880F75
:101AB0002A95EAF7982F9095932391A392A1892BC9
:101AC00082A30895B0E0A0E0E8E6FDE00C94F635CE
:101AD0007C016B0180918C0601E010E08A3010F4EB
:101AE0000AE010E0C1E0D0E063E976E0C701F6016A
:101AF0000995811104C021960C171D072CF4CDB750
:101B0000DEB7E8E00C941236CC9F9001CD9F300DEB
:101B1000300D112490E080E045E34A95F1F7000094
:101B2000019682179307C1F7DFCF0F931F93CF93CF
:101B3000DF938B01EA0190914306943061F5809325
:101B4000E9008FEF9091E800815095FD06C095ED7A
:101B50009A95F1F700008111F5CF8091E80085FF9B
:101B60001AC00E942107811111C08091E80085FDF3
:101B700006C08091E8008E778093E800F2CFF801EC
:101B800081918F018093F100219779F78091E8008E
:101B90008E778093E800DF91CF911F910F91089588
:101BA00046E050E0BC0184E00E94950D0895CF937B
:101BB000DF93EC0148E050E0BC0181E00E94950D0C
:101BC00088E0FE01A9E3B6E001900D928A95E1F765
:101BD000DF91CF910895609184018091C10380FFCE
:101BE00020C08091830143E0849FC00111248D5166
:101BF0009D4F539A2BB1277F3BB138605FB7F89464
:101C0000FC01649FE00DF11D1124BF0168177907E5
:101C1000D1F45FBF8FE594E00197F1F700C00000B9
:101C20000895809185019091860123E0829FF001C3
:101C30001124ED51FD4F8917A0F6118210821282F6
:101C40008F5F3396F8CFFC014191CF01E8E03BB9BB
:101C5000000000C047FF2BB9440F000000C000C0C7
:101C600000C02BB900C0EA9591F7D0CFE1ECF3E0CA
:101C700080818E7F8083E0EEF2E0828181608283CA
:101C80000E94EB0D089580911E02811119C082E31C
:101C900090E02091E30027FD10C0EFE3FCE93197CD
:101CA000F1F700C000000197A1F782E080931E02C7
:101CB0000E9402071092430603C081E080931E0237
:101CC00081E090911E02913011F080E00895089516
:101CD0000E94430E882359F0E0912F06F0913006C0
:101CE000309729F00190F081E02D0995089580E06A
:101CF00008950F931F930E94430E882329F00E949A
:101D000071081F910F9108950E947108009192022D
:101D1000109193022091940230919502600F711FEF
:101D2000821F931FEECF0E94790E089557985F9AF5
:101D3000879A8F9825E02A95F1F7000089B1879856
:101D40008F9A90EA9A95F1F790E0880F892F881F73
:101D5000990B21E08227817008950E94960E8823B6
:101D600071F080E08093830182E28093840110927D
:101D7000850184E48093860180938701089582E23F
:101D8000F1CF8091D203F90180830E94AD0E0895B6
:101D9000CF93DF93C9E2D3E060E0CE010E94EB363F
:101DA0002196C11584E0D807B9F7DF91CF91089546
:101DB0001F93CF93DF93122F8430E0F46C30D0F474
:101DC0004830C0F490E1699FE001112450E0440FD5
:101DD000551FC40FD51F90EC899FC00DD11D112434
:101DE000632FCE0189960E94EB36612FCE018A9631
:101DF0000E94EB36DF91CF911F910895AF92BF9271
:101E0000CF92DF92EF92FF921F93CF93DF9380E206
:101E1000C82E89E0D82ED0E07601C0E014C0F501CC
:101E200025913491412F6C2F8D2F0E94D80E82E086
:101E3000A80EB11C1F5F183091F780E1E80EF11C6D
:101E4000CF5FCC3019F0570110E0E9CFDF5F80ECB5
:101E5000C80ED11CD43001F7DF91CF911F91FF90B4
:101E6000EF90DF90CF90BF90AF90089588E290E020
:101E70000E94EB360895CF93C82F6FEF811163E274
:101E800085E290E00E94EB366FEFC11164E086E2DC
:101E900090E00E94EB366FEFC11169E287E290E0BB
:101EA0000E94EB36CF91089580E00E943B0F60E0E6
:101EB00070E0CB010E94360F0E94FE0E0E94C80EF9
:101EC00081E00E943B0F08950F931F93CF93DF9300
:101ED000843030F56C3020F5483010F520E1629FF9
:101EE0008001112450E0440F551F040F151F30ECE2
:101EF000839F000D111D1124C80189960E94C736C9
:101F0000C82FD0E0DC2FCC27C8018A960E94C736A4
:101F10009E01282BC901DF91CF911F910F91089548
:101F200090E080E0F8CF462F7C3040F4683030F409
:101F3000843020F4672F0E94640F089590E080E0C1
:101F40000895CF92DF92FF920F931F93CF93DF9369
:101F50006C010091F70380911B02082BC3E0D0E0D5
:101F600010E0FC2EC8010C2E02C0959587950A94AE
:101F7000E2F780FD0CC02197A0F7F12C8F2DDF91A7
:101F8000CF911F910F91FF90DF90CF900895B601F0
:101F90008C2F0E94930F0E94FC09019761F3EECFF2
:101FA000CF93DF93EC010E94A10FBE010E94930F1B
:101FB0000E94FC09DF91CF910895FC012481222326
:101FC000C1F0808191810E94D00F92959F709630D0
:101FD00091F058F4925F9F70923058F4803F19F05E
:101FE00030F4883E30F481E008959A5FF4CF843F66
:101FF000D1F380E00895883EB0F3813FD1F7F3CF6D
:10200000A6E0B0E0E6E0F0E10C94FB3549835A83AA
:1020100049815A819923A1F0222391F0CA010E949B
:10202000A10F182F682F89819A810E943F0B698127
:102030007A81812F0E94930F2696E3E00C94173645
:10204000CA010E940B0B182FF2CF88E290E00E9489
:10205000C736682F70E090E080E0089585E290E058
:102060000E94C736833289F486E290E00E94C73628
:10207000843059F487E290E00E94C73691E08932BB
:1020800009F090E0892F8170089580E0FCCFCF9314
:102090009091DB028091D502981323C08091DC02DD
:1020A000882321F09091D60289131BC08091DD0214
:1020B000882321F09091D702891313C08091DF0209
:1020C000882321F09091D90289130BC09091DE02F0
:1020D000992329F081E02091D802291303C080E0E0
:1020E00001C081E0C82FC17080FF0FC0E0912F06B2
:1020F000F0913006309749F082E08093DA02048054
:10210000F581E02D8AED92E009959091DB0286E061
:10211000EAEDF2E0DF01282F1D922A95E9F790936E
:10212000DB02A4EDB2E001900D928A95E1F781E027
:10213000C11103C0911101C080E08170CF91089559
:102140002FE2280F283078F481E090E001C0880F5A
:102150002A95EAF72091DB02662331F0822B8093E7
:10216000DB020E944710089580958223F8CF80916A
:10217000360690911A02892B8093C801909119021A
:10218000992391F0892B8093C80120E08AEC91E09B
:10219000FC013191CF0131112F5FF1E0803D9F07AC
:1021A000B9F721111092190248E050E061E172E0A4
:1021B00088EC91E00E94B136892BA9F088E0E8EC28
:1021C000F1E0A1E1B2E001900D928A95E1F7E09192
:1021D0002F06F0913006309731F00280F381E02D28
:1021E00088EC91E009950895EAECF1E086E0DF01E2
:1021F0001D928A95E9F710921A020E94B71008956D
:10220000AAE2B0E0E6E0F1E10C94FB3585E496E06B
:102210002091F100DC012D93CD01B6E08D349B07B8
:10222000B9F780914606833009F472C0B8F4813062
:1022300009F449C0823009F4B5C08091E80083FFF9
:102240008DC280914506909146069A3008F086C26C
:10225000E92FF0E0EF5DF84C0C9465368A3009F414
:1022600090C08B3009F471C0893039F780914506F0
:10227000813219F78091490690914A06009711F032
:102280000297D9F68091E800877F8093E8008091DB
:10229000E80082FF38C09091F3008091F20002972D
:1022A00031F48091F100813011F0863021F4809179
:1022B000F100809338068091E8008B778093E800E6
:1022C0000E945207BACF80914506813A09F0B5CFF6
:1022D0008091E800877F8093E80080914906909183
:1022E0004A06892B61F468E089E396E070E00E9479
:1022F000FE078091E8008B778093E8009ECF60E036
:1023000090E080E0F3CF809143068111C0CF95CF5C
:1023100080914506813A09F090CF809149069091CD
:102320004A06892B09F089CF8091E800877F809346
:10233000E8008091E80080FFFCCF809182018093CB
:10234000F1008091E8008E77B9CF80914506813207
:1023500009F073CF8091490690914A06892B09F0C4
:102360006CCF8091E800877F8093E8000E9452073D
:102370008091470680938201109236060E94F410E5
:102380005CCF80914506813209F057CF8091E800FB
:10239000877F8093E8000E945207809148068093CF
:1023A00037064BCF80914506813A09F046CF8091A0
:1023B000E800877F8093E8008091E80080FFFCCFF1
:1023C00080913706BCCF803899F0823809F0C6C1B9
:1023D000809149068F70873008F0C0C18093E90072
:1023E0008091EB0085FB882780F91092E90006C0F8
:1023F0008091410690914206911182609091E8008F
:10240000977F9093E8008093F1001092F100809103
:10241000E8008E779FC1882309F48DC1823009F0CE
:102420009DC180914706811190C1809149068F70AE
:102430002FEF280F263008F091C18093E9002091FA
:10244000EB0020FF82C1933031F48091EB00806279
:102450008093EB007AC19091EB0090619093EB0038
:1024600021E030E001C0220F8A95EAF72093EA00CC
:102470001092EA008091EB008860EACF81116EC172
:10248000109147061F778091E3008078812B80931D
:10249000E3008091E800877F8093E8000E94520764
:1024A0008091E80080FFFCCF8091E30080688093FA
:1024B000E30082E0111183E0809343064FC180580E
:1024C000823008F04BC120914706309148062C3DE0
:1024D000E3E03E07A1F583E08A838AE289834FB770
:1024E000F894DE01139620E03EE051E2E32FF0E0A5
:1024F00050935700E49120FF03C0E295EF703F5FD7
:10250000EF708E2F90E0EA30C0F0C7968D939D93C8
:102510002F5F243159F74FBF8091E800877F809368
:10252000E8006AE270E0CE0101960E94FE07809109
:10253000E8008B778093E80011C1C096E7CF8091C7
:10254000490690914A06432F55274330510509F417
:102550004AC078F54130510509F47AC08BE590E026
:10256000E0E2FCE04230510509F0F8C02091E800BB
:10257000277F2093E80020914B0630914C0682176C
:10258000930708F49C0140E02115310509F065C06E
:10259000411163C08091E80082FDC9CF809143065C
:1025A000882329F2853019F28091E80083FFF2CF69
:1025B000BECF4132510509F43CC04232510509F009
:1025C000CDC08330910508F0C9C0FC01EE0FFF1F9C
:1025D000E754FE4F0190F081E02D8A549E4FDC01BC
:1025E0008C9190E01AC0332721303105D1F02115AC
:1025F000310561F02230310509F0B0C0EDE8FCE0B2
:10260000E4918E2F90E0EDE8FCE007C0E5EBFCE004
:10261000E4918E2F90E0E5EBFCE0009709F49EC07A
:10262000A5CFEDE9FCE0E4918E2F90E0EDE9FCE030
:10263000F4CF8330910508F091C0880F991FFC01F9
:10264000E154FE4F0190F081E02D89E090E08ECFC3
:1026500082E190E0EBE7FCE089CF8091430688239C
:1026600009F465CF853009F462CF8091E80083FDDD
:102670005ECF8091E80082FD8DCF8091E80080FFE1
:1026800083CF9091F3008091F2002115310519F06C
:102690008830910550F041E0089709F040E08091C2
:1026A000E8008E778093E8006FCF44914093F1006B
:1026B0003196215031090196E8CF803809F04EC09B
:1026C0008091E800877F8093E800809144068093A2
:1026D000F1009DCE811142C0109147061230F0F5F5
:1026E0008091E800877F8093E800109344060E9461
:1026F0005207112311F084E005C08091E30087FDAB
:10270000FACF81E08093430642E061EC81E00E94D1
:10271000710742E261EC84E00E94710742E261ECE1
:1027200082E00E94710742E260EC83E00E94710740
:102730008091430613C080914706813079F481E08F
:10274000933009F080E0809342061092E900809176
:10275000E800877F8093E8000E9452078091E8009C
:1027600083FF0AC08091E800877F8093E800809112
:10277000EB0080628093EB00AA96E3E00C9417369E
:10278000109236060E94F4102FEF84E39CE0215053
:1027900080409040E1F700C0000088E19AE00FB669
:1027A000F894A895809360000FBE90936000FFCFCF
:1027B000882341F0809590911A02892380931A0210
:1027C0000E94B7100895882339F090911A02982B2F
:1027D00090931A020E94B7100895882321F00E9456
:1027E000FA0A0E94B7100895882339F090913606AE
:1027F000982B909336060E94B7100895882349F1CC
:102800009CEF980F913A80F4EAECF1E020ED31E092
:102810009191891303C0DF0111971C922E173F0776
:10282000B9F70E94B710089590E2980F983050F4CD
:10283000877091E001C0990F8A95EAF7892F0E946D
:10284000FA0AEFCF93E3980F933118F460E00E94F7
:10285000A0100895CF93C82F8823A9F08CEF8C0F78
:10286000813A00F5EAECF1E0DF018D91C81769F0DB
:1028700081E0A03DB807C9F76C2F88EC91E00E9479
:102880007D080E94B710CF9108958191C81303C0AD
:10289000DF0111971C9281E0E03DF807B1F70E943B
:1028A000B710EACF80E28C0F883068F4C77021E05F
:1028B00030E001C0220FCA95EAF780913606822BDC
:1028C00080933606DECF83E38C0F8331E0F661E040
:1028D0008C2F0E94A010D7CF1F93CF93DF93182F78
:1028E000EB010E942A148FE99FE00197F1F700C0E5
:1028F00000002197C1F7812F0E94FE13DF91CF9135
:102900001F9108951F93CF93DF93162F8A3039F4C8
:1029100081E00E944015DF91CF911F9108958D3085
:1029200011F480E0F6CFC091CF03D091D00396E0B0
:10293000FE01A9ECB3E001900D929A95E1F7803E7B
:1029400090F186E0FE0111928A95E9F7C091CF03DC
:10295000D091D003111133C046E050E0BE0189ECA4
:1029600093E00E94B1369E0120523440892B91F5AC
:102970002A5F3F4F4091D103642F70E0C9010E944C
:10298000D835481B463010F4240F311D211572E054
:10299000370710F030E020E0205E3B4F3093D0034B
:1029A0002093CF03B8CFF6E08F9FB0011124635D71
:1029B0007C4F46E050E0CE010E94A836C7CF9E0172
:1029C0002A5F3F4FFE012E173F0731F2808180952D
:1029D0008193F9CFC90145E0969587954A95E1F72E
:1029E00041E050E0BA0102C0660F771F8A95E2F716
:1029F000CB016091220670912306862B972BB9019B
:102A00006B5F7F4FE5E076956795EA95E1F702C049
:102A1000440F551F6A95E2F7842B952B909323065C
:102A200080932206A5CF1F93CF93DF93EC01162F3F
:102A3000FE018491811104C0DF91CF911F9108950F
:102A4000612F0E9482142196F3CFFF920F931F9360
:102A5000CF93DF93EC01F62EFC0101900020E9F703
:102A60008F0101501109C017D10728F0CDB7DEB78B
:102A7000E5E00C9415366F2D89910E948214F3CFF6
:102A8000CF93382FE091CF03F091D003E052F44080
:102A90002091D103622F70E0CF010E94D835281B0E
:102AA000822F332369F066E00E942336C82FC1507D
:102AB00010F4CF91089560E080E20E948214F7CF75
:102AC0009F01280F311D2115324018F080E0F0E001
:102AD000E0E08E0F9F2F911D805E9B4F9093D0035F
:102AE0008093CF03E6CFB0E0A0E0E9E7F5E10C94F6
:102AF000F6356C017B0164E670E088E70E943633AE
:102B00008C01E601EC0CFD1C17FD0BC0FE0184914D
:102B100064E670E00E94A2338C012196CE15DF0599
:102B200099F70E94183481E00115110509F080E041
:102B3000CDB7DEB7E8E00C941236CF93C0912806EB
:102B400080912B068823D1F00E947108605A75414C
:102B50008F4F9F4F6093240670932506809326061F
:102B600090932706C11108C062E070E08DE698E0FE
:102B70000E947315811105C0C09128068C2FCF913A
:102B8000089581E080932806F7CFB0E0A0E0EBEC59
:102B9000F5E10C94F23549015A016B017C010E9468
:102BA000B3088401A4016A2D7B2D88E090E00E9487
:102BB000FD3694014A2D5B2DB601C70100E20E944B
:102BC0008D36622F84E290E00E94EB36CDB7DEB7FF
:102BD000ECE00C940E36B0E0A0E0E1EFF5E10C94EF
:102BE000F235182FC62FD42F822E0091C10300FF7B
:102BF00050C08091C203811308C08091C303861323
:102C000004C08091C403841729F08091E20282609D
:102C10008093E202E02FE695F0E0E455FE4F8081DC
:102C20008093E002802F8E7F8230E9F4ED2FD93738
:102C300008F0E8E7F0E0E35DFD4FC1112FC02491FB
:102C4000F22FE22F00FF0FC0809185019091860145
:102C500033E0839FD0011124AD51BD4F891708F493
:102C600092C00E94EB0D1093C203C093C303D09394
:102C7000C403882071F02091C1036091C503709155
:102C8000C603312FAE018091C7039091C8030E9403
:102C9000C515CDB7DEB7ECE00C940E36EC2EF12C5A
:102CA000E4919E2ECE2ED12C26E0129FC00111243D
:102CB0002FEF30E0B9010E94D835812F90E0880FC6
:102CC000991FF5E5F69FA001F79F500D1124841B75
:102CD000950BB82EBB0CB80EA9014E195F094C9D7F
:102CE000C0014D9D900D5C9D900D1124F92FCB9D41
:102CF000A0011124452F5527D901A41BB50BAC9D6C
:102D0000A001AD9D500DBC9D500D1124D901AB19F2
:102D1000B1095D01AE9CD001AF9CB00DBE9CB00D61
:102D20001124AB2FBB272A1B3B0B2C9DD0012D9DC3
:102D3000B00D3C9DB00D11242B2F62307105A1F018
:102D400050F46115710509F47DCF6130710581F092
:102D5000292FF52F77CF6430710569F080F0663048
:102D6000710509F46FCFF4CF2E2FE92FFB2F6ACF17
:102D70002E2FE52F67CF292FFE2FEB2F63CFE92FC3
:102D8000F92D252F5FCF1196EC9311972C93129666
:102D9000FC9312978F5F139661CFE1ECF3E04381D0
:102DA0002CE0421B08F440E021E0628181810E9416
:102DB000EB150895E1ECF3E043812CE0420F08F4B9
:102DC0004FEF21E0628181810E94EB150895E1ECD3
:102DD000F3E0628121E1621B08F460E021E04381BD
:102DE00081810E94EB150895E1ECF3E0628121E11D
:102DF000620F08F46FEF21E0438181810E94EB159F
:102E00000895E1ECF3E0818121E043816281815109
:102E10000E94EB150895E1ECF3E0818121E043810C
:102E200062818F5E0E94EB1508958091C50388230F
:102E300019F081508093C5032091C1033091C203E2
:102E40004091C3035091C4036091C5037091C603C0
:102E50008091C7039091C8030E94C5150895809181
:102E6000C503833018F48F5F8093C5032091C1039D
:102E70003091C2034091C3035091C4036091C503D4
:102E80007091C6038091C7039091C8030E94C51535
:102E900008952091C10320FF24C021702260209357
:102EA000C1038091E20281608093E202662381F097
:102EB0003091C2034091C3035091C4036091C50394
:102EC0007091C6038091C7039091C8030E94C515F5
:102ED00020E04091C4036091C3038091C2030E942B
:102EE000EB1508958091C1038695815009F481E026
:102EF00061E00E944917089561E081E00E9449174E
:102F00000895E1ECF3E083E0808311828FEF828308
:102F100088E783831482A0EEB2E012968C91129718
:102F2000836012968C93758123E030E04FEF58E771
:102F300060E0868197810E94C515089590919B025B
:102F400092FB222720F9281779F080FB92F99093C1
:102F50009B0260919A0270919B0284E090E00E9433
:102F6000093782E00E94180C089590E080E00E94EA
:102F7000D536863E9E4F19F40E942E10089580E0AB
:102F80000895B0E0A0E0E7ECF7E10C94F7357901A3
:102F9000C82F880FDD0B41155105A9F0FE0193E004
:102FA000EE0FFF1F9A95E1F7E55FFE4F8181928159
:102FB000815E9D4F208130E04217530708F49A014B
:102FC000A9010E94BE36CE010E946235D82E882308
:102FD000D1F001151105B9F083E0CC0FDD1F8A9502
:102FE000E1F7FE01E55FFE4F438150E0041715074E
:102FF00008F4A801C55FDE4F6C817D81615E7D4F65
:10300000C7010E94BE368D2DCDB7DEB7E7E00C9428
:103010001336A5E0B0E0EFE0F8E10C94F4358D83D1
:10302000E62E5A01F22E680180918C068A3028F033
:1030300080E02596EAE00C9410368D818A30C4F346
:103040001A8219828A836B832C8363E070E0CE013D
:1030500002960E9497088983E0924301F0925601FC
:1030600010E000E030E020E044E050E0BE016F5F9F
:103070007F4F86E00E94C1178823D1F24E2D50E089
:1030800030E020E0B50187E00E94C117882381F27B
:1030900030E020E041E050E0BE016B5F7F4F88E010
:1030A0000E94C117882321F20F2D10E0960150E0F5
:1030B00040E070E060E089E00E94C117BACFABE069
:1030C000B0E0E5E6F8E10C94FA3588E0E1ECF3E0F5
:1030D000DE01119601900D928A95E1F78091E00250
:1030E0009091E102A091E20289879A87AB872B85B4
:1030F00040918E0250918F026091900270919102E6
:103100003FB7F8948091310690913206A091330632
:10311000B09134063FBF841B950BA60BB70B8436CA
:103120009105A105B10510F42223C1F010E000E0E3
:1031300030E020E04BE050E0BE016F5F7F4F85E064
:103140000E94C117882369F00E94710860938E0263
:1031500070938F0280939002909391021092E202FA
:1031600081E02B96E4E00C941636A4E0B0E0EBEBA3
:10317000F8E10C94FA3540918A0250918B026091EB
:103180008C0270918D022FB7F89480913106909146
:103190003206A0913306B09134062FBF841B950BE5
:1031A000A60BB70B11E084369105A105B10518F106
:1031B0000E94790E6E5F7F4F8F4F9F4F69837A8396
:1031C0008B839C8310E000E030E020E044E050E09E
:1031D000BE016F5F7F4F84E00E94C117182F8823C4
:1031E00051F00E94710860938A0270938B02809361
:1031F0008C0290938D02812F2496E4E00C94163675
:10320000A1E0B0E0E6E0F9E10C94F135762E4A0158
:103210005901680101E010E09E012F5F3F4F50E02F
:1032200040E070E060E00E94C117182F882309F485
:1032300040C0F40140815181628173812FB7F894BD
:103240008091310690913206A0913306B0913406F8
:103250002FBF841B950BA60BB70B84369105A105D8
:10326000B10538F4B701C6010E9497089981891702
:1032700001F18701950150E040E070E060E0872DAA
:103280000E94C117B82EB701C6010E94970811E02D
:103290009981981310E01B2139F00E947108F40104
:1032A0006083718382839383812F2196EDE00C9458
:1032B0000D36A701B601C5010E94BE36F5CFA6E0C6
:1032C000B0E0E5E6F9E10C94F6356B0186E0E82E16
:1032D000F12C00E212E09E012F5F3F4F42E852E0E6
:1032E00061E080E00E940019882349F096E0FE0129
:1032F0003196ACE7B2E001900D929A95E1F796E035
:10330000ECE7F2E0D60101900D929A95E1F726964E
:10331000E8E00C9412360E94960E80930A01809188
:103320000A01882359F01092830185E28093840179
:103330000E94430E81110E947634089585E28093A5
:103340008301F4CFA8E0B0E0E8EAF9E10C94FC35A1
:1033500066EE7EEF90E080E00E94093760E082E058
:1033600090E00E94EB3660E083E090E00E94EB3654
:1033700010921B0260E074E184E090E00E94093743
:1033800060E086E090E00E94EB366FEF87E090E02F
:103390000E94EB3640E050E0BA0188E090E00E94E5
:1033A000FD3660E084E290E00E94EB3660E087E169
:1033B00090E00E94EB3660E08CE090E00E94EB36FB
:1033C00060E08DE090E00E94EB3619821A821B8249
:1033D0001C821D821E821F82188648E050E068E130
:1033E00070E0CE0101960E94DB3640E050E0BA0169
:1033F00080E290E00E94FD3680E00E943B0F0E9438
:10340000540F40E050E0BA018FE090E00E94FD369A
:10341000E8EFF3E015821682178281E0808382E371
:1034200090E0928381838AE090E09483838340815B
:1034300051816281738183E190E00E94FD3628967C
:10344000E2E00C94183628E030E043E060E086E3E8
:103450000E945E320895ACE0B0E0E1E3FAE10C9442
:10346000F6354F83588769877A878B879C87809149
:10347000D203882399F00E94231A80E50E94D63255
:103480008AEB8A95F1F700C00E94EE32887899277E
:103490008038910509F487C00E9406330E94430ECC
:1034A000882309F46BC00E9471080091DF0110911C
:1034B000E0012091E1013091E2016B017C01C01A31
:1034C000D10AE20AF30A97018601083011052105A5
:1034D000310508F453C06093DF017093E0018093DD
:1034E000E1019093E2010091E1031091E203209148
:1034F000E3033091E403601B710B820B930B623387
:1035000071058105910580F41092D6031092D503C0
:103510001092D8031092D7031092DA031092D903B5
:103520001092DC031092DB031091E0030E94960ED0
:10353000482FBE01695F7F4F85ED93E0112309F4A9
:103540005FC00E943B0C0091E0031091D2030E94E7
:10355000960E41E04827BE01695F7F4F89ED93E0F9
:10356000011709F450C00E943B0C86E0FE0137961B
:10357000AFEEB3E001900D928A95E1F786E0FE018F
:103580003796DE01119601900D928A95E1F7298117
:103590003A814B815C816D817E8180E090E02C9648
:1035A000E8E00C9412360E94EE320E94EE327C016A
:1035B0000E94EE3220E0E22AF82A0E94EE328C01CC
:1035C0000E94EE3220E0022B182B0E940633F89462
:1035D000B7018091D5039091D6030E94260D909358
:1035E000D6038093D503B8018091D7039091D80377
:1035F0000E94260D9093D8038093D70378944ECFE2
:103600000E94C10CA0CF0E94C10CAFCFCF93DF931B
:10361000D82FC62F0E94231A8D2F80680E94D63281
:103620008C2F0E94D6328AEB8A95F1F700C00E9457
:10363000063383E492E00197F1F700C00000DF91C8
:10364000CF910895CF9362E370E00E94D835C72FE1
:103650008EE00E94061B6C2F8FE00E94061B60E02C
:1036600080E50E94061BCF9108959C0182384EE3AD
:10367000940710F021E83EE33093DE032093DD034E
:1036800041E04093DF034091D203442331F0892B82
:1036900029F0C90101970E94221B089587EE93E04B
:1036A000FACFFB01808191810E94351B0895209102
:1036B000DD033091DE032115310511F428EE33E0EE
:1036C000820F931F1816190614F081E090E00E94F3
:1036D000351B0895CF93DF93C82F0E94231A8C2F98
:1036E0000E94D6328FE792E00197F1F700C0000008
:1036F0000E94EE32EC010E9406339AE69A95F1F7A9
:1037000000C0CE019927DF91CF910895CF93DF9329
:103710000E94960E811142C00E945632269A0E9443
:10372000231A6AE58AE30E94061B2FEF80E792E0E6
:10373000215080409040E1F700C0000082E00E94EC
:103740006A1B83E00E946A1B84E00E946A1B85E07A
:103750000E946A1B86E00E946A1B60E080E10E9472
:10376000061B80E00E946A1BD82F81E00E946A1B22
:10377000C82F0E940633D73419F481E0C13009F014
:1037800080E081708093D203882341F087EE93E03C
:103790000E94221B60E080E50E94061BDF91CF9112
:1037A00008951F920F920FB60F9211242F933F93FB
:1037B0004F935F936F937F938F939F93AF93BF9339
:1037C000CF93DF93EF93FF93D091E900DF70809167
:1037D000EC00C82FC17080FDC0E81092E900809114
:1037E000F000877F8093F00078940E94001110927F
:1037F000E9008091F00088608093F000CD2BCF70BD
:10380000C093E900FF91EF91DF91CF91BF91AF910C
:103810009F918F917F916F915F914F913F912F91E8
:103820000F900FBE0F901F9018951F920F920FB61A
:103830000F9211242F933F934F935F936F937F9336
:103840008F939F93AF93BF93EF93FF938091E1008A
:1038500082FF09C08091E20082FF05C08091E100F3
:103860008B7F8093E1008091DA0080FF24C08091FB
:10387000D80080FF20C08091DA008E7F8093DA002C
:103880008091D90080FF9DC080E189BD82E189BD22
:1038900009B400FEFDCF81E0809343068091350698
:1038A000811109C00E9402070E94A3078091E200D3
:1038B00084608093E2008091E10080FF17C08091D6
:1038C000E20080FF13C08091E2008E7F8093E200CF
:1038D0008091E20080618093E2008091D800806254
:1038E0008093D80019BC85E0809343068091E10065
:1038F00084FF2BC08091E20084FF27C080E189BD56
:1039000082E189BD89B5982F917080FFFBCF8091AE
:10391000D8008F7D8093D8008091E1008F7E8093C6
:10392000E1008091E2008F7E8093E2008091E200CE
:1039300081608093E20080914406882309F447C0A7
:1039400084E080934306809143068091E10083FFE9
:1039500027C08091E20083FF23C08091E100877F30
:103960008093E10082E080934306109244068091A8
:10397000E1008E7F8093E1008091E2008E7F809352
:10398000E2008091E20080618093E20042E060E02A
:1039900080E00E9471078091F00088608093F000C1
:1039A000FF91EF91BF91AF919F918F917F916F9117
:1039B0005F914F913F912F910F900FBE0F901F90ED
:1039C000189519BC109243061092350674CF809159
:1039D000E30087FD93E090934306B5CF78941F9260
:1039E0001FB61F9211248F939F93AF93BF93809123
:1039F000310690913206A0913306B09134060196BB
:103A0000A11DB11D8093310690933206A093330619
:103A1000B0933406BF91AF919F918F911F901FBEBD
:103A20001F9018959C014FB7F894809131069091A2
:103A30003206A0913306B09134064FBF821B930B20
:103A400008952FB7F8948091310690913206A09195
:103A50003306B09134062FBF0895B0E0A0E0E3E351
:103A6000FDE10C94F635162F90912E06911126C08B
:103A700080912C0690912D06892B31F40E94211DF6
:103A800090932D0680932C0680912C0690912D0604
:103A90000E94121D853F914018F081E080932E0610
:103AA0006AE070E08EE4111101C08BE40E946C1496
:103AB00081E0CDB7DEB7E8E00C941236813009F42E
:103AC0004BC0882309F442C0823009F44BC08330D4
:103AD00009F44AC08D2F9C2F0E94A10F6D2F7C2FBF
:103AE0000E94930FEC0195E0E92EF12CC933D1052A
:103AF00019F480E5E82EF12C6E0180EEC81AD10889
:103B0000CE010E94890B082F98E0C916D10410F04D
:103B1000209761F50E94F4138C2F0E942A148FE9DC
:103B20009FE00197F1F700C0000091E0E91AF10869
:103B3000B1F78C2F0E94FE13802F28E0C216D1040B
:103B400010F0CD2BB1F40E94ED13AACFC5E0D2E066
:103B50001111C0CFD3E0BECFC5E0D0E01111BACF74
:103B6000D1E0B8CFCBE0F3CFCBE0F7CF0E94E313A7
:103B7000D3CF0E94D81394CFA2E0B0E0E2ECFDE1F5
:103B80000C94F53582E0E82EF12C07E212E09E015C
:103B90002F5F3F4F46E852E063E082E00E94001949
:103BA000C82E882339F100E080E01DC0D090970234
:103BB000D00E2D2D30E0A90146555D4F7A01E1E090
:103BC000F0E0EC0FFD1FE00FF11D1081FA01908174
:103BD000191BB12E1B149CF0912F17FD90E0191B9F
:103BE000111118C00F5F909196020917F8F2811118
:103BF0000E94930E8C2D2296E9E00C941136BA9413
:103C0000F70180818F5F808360E08D2D0E942D1DE4
:103C10008C2DE0CF1F5FF70180818150808361E0B0
:103C20008D2D0E942D1D8C2DDBCF2F923F925F9208
:103C30006F927F928F929F92AF92BF92CF92DF92BC
:103C4000EF92FF920F931F93CF93DF9380912B06F8
:103C5000882309F433C18091290690912A060E9495
:103C6000121DC29708F4FFC00E94211D90932A06DE
:103C70008093290680E294E09093D0038093CF0351
:103C80000E94430E882309F439C1C091EB03DC2F55
:103C900060E08FEA98E00E9413158091EE038F7028
:103CA0008A3008F01DC1805D60E00E94821460E0EF
:103CB0008BEA98E00E9413158091ED038F708A3093
:103CC00008F010C1805D60E00E948214DD2309F4D9
:103CD0000FC160E088EA98E00E9413158C2F82954E
:103CE0008F708A3008F000C1805D60E00E9482140D
:103CF0008C2F8F708A3008F0F9C0805D60E00E94E0
:103D000082148CEF8C0F853308F0F2C060E084EAF7
:103D100098E00E9413158C2F8450990BFC01E159F7
:103D2000F74F849160E00E94821460E08BEC98E091
:103D30000E9413158091F103082E000C990B0E942C
:103D4000F00C60E00E9425158091F203082E000C13
:103D5000990B0E94F00C60E00E9425158091F403FD
:103D6000082E000C990B0E94F00C60E00E942515B3
:103D70008091F303082E000C990B0E94F00C60E078
:103D80000E94251560E082EC98E00E941315809156
:103D9000DD039091DE03009711F488EE93E064E672
:103DA00070E00E94D835CB010E94F00C60E00196D3
:103DB0000E94251560E08CEB98E00E94131580911D
:103DC000E003811199C080E360E00E94821460E00A
:103DD00088EB98E00E9413158091E503811101C0E2
:103DE00084E060E0805D0E9482146091F8038BEDB6
:103DF00098E00E941315C091F8038091F7030E9488
:103E0000780B0E947C066C2F0E9425156091F803A8
:103E100087ED98E00E941315C091F8038091F50397
:103E20000E947C066C2F0E9425156091F80385ED99
:103E300098E00E941315C091F8038091F9030E9445
:103E40007C066C2F0E9425156091F80381ED98E0A7
:103E50000E941315C091F8038091FB030E947C0619
:103E60006C2F0E9425158091220690912306892BA4
:103E700009F04AC080912806882301F10E94710848
:103E800000912406109125062091260630912706E0
:103E9000601B710B820B930B6F3F7F4F8F4F9F47C0
:103EA00068F480912B06882349F062E070E08EE18F
:103EB00099E00E947315811110922806DF91CF912D
:103EC0001F910F91FF90EF90DF90CF90BF90AF9038
:103ED0009F908F907F906F905F903F902F9008956C
:103EE000895AE2CE895AEFCE895AFFCE895A06CF37
:103EF00081E00E94401519CF81E366CF60E08EED2E
:103F000098E00E941315AFCF80912B06882309F407
:103F1000B1CF809121068111ADCF0E949D152091D6
:103F20002206309123062115310509F4A3CF80E044
:103F300041E050E0082F10E01A01082E02C0220CC8
:103F4000331C0A94E2F7B10162237323672B11F447
:103F50008F5FF0CF9091200690FF95C0880F880F5B
:103F6000880F80937D0110928001895F80937E018C
:103F700083E08093810124E630E047E050E06BE786
:103F800071E088E70E94D033892B09F073CFA80134
:103F900025E0440F551F2A95E1F78091200680FF08
:103FA00084C0E0E0F4E080E2DF011D928A95E9F749
:103FB000A2EBB1E00EEA11E086EBC82E81E0D82E2C
:103FC00097E0592E772473948D91E80129918E0101
:103FD000240F352F311D205E3B4FE82FF0E0E050DD
:103FE000FC4F90E080E0652C681A872C082E01C0F9
:103FF000880C0A94EAF77901A12CE701B9907E01B7
:10400000B820662D6A196770962E062E000C770B65
:10401000DB2D01C0DD0F9A94EAF771956195710966
:104020006770772701C0B6946A95EAF7BD2A608168
:10403000962E9B289082A39468E0A612DECF01966C
:1040400031968830910579F6CA16DB0609F0BCCFA7
:1040500004E610E020E230E040E054E060E488E76D
:104060000E94F133892B09F005CFE101C095D0956D
:104070008091220690912306C823D923D09323064A
:10408000C0932206F7CE8295880F807680937D01BB
:104090009801369527953695279520938001815E66
:1040A00080937E012093810166CF405E5B4F04E6E2
:1040B00010E020E230E0D2CF82E00E942F0C0E947C
:1040C000211D9093B9028093B80282E08093BA02D6
:1040D0000895A8E0B0E0EFE6F0E20C94EE358C0134
:1040E000DC0114968C911497882309F4BEC021E05A
:1040F0004C9111965C91119712966C9112971396B0
:104100007C91139715969C910E9400107C01F801F8
:104110008581882309F46AC1C701975780389105C2
:1041200008F064C1FFE0FE1508F48FC08FEF93E044
:104130000E94C736811189C069E2A62E63E0B62EBF
:10414000E1104DC0FE01339686E0DF011D928A9595
:10415000E9F75AE0452E7501BFEFEB1AFB0AC501DE
:104160000E94C73689831A82882309F46EC0813081
:1041700009F07FC06501E2E0CE0ED11CC7010E94AC
:10418000C7368A83882309F460C09FEF980F933065
:10419000A0F5F3E0AF0EB11CC6010E94C7368B83B9
:1041A000882309F452C01C82DE0111967D01F701BB
:1041B0002081222381F2213009F0BAC091818281CD
:1041C000913009F058C0F2E0EF0EF11C65E070E0AC
:1041D000893311F460E570E00E946C1453C0A1149F
:1041E00024E0B20691F1C5010E94C736811101C0D9
:1041F000EA943FEFA31AB30AA3CF56018430A1F685
:1042000042E0E42EF12C56012FEFA21AB20AC601A9
:104210000E94C736E1E0F0E0EC0FFD1FEE0DFF1D40
:104220008083882391F08C3741F4E2E0F0E0EC0FDA
:10423000FD1FEE0DFF1D1082B7CF3FEFE31AF30A0B
:10424000650187E0E816F104F1F6809110028770AD
:1042500061F0D80115968C91882339F080919B02EA
:1042600082FF03C082E00E94180C2896E0E10C94C3
:104270000A36570199CF923039F522E0E20EF11C4F
:104280000E942A14FFEFEF1AFF0A8FE99FE00197BF
:10429000F1F700C00000AFE9BFE01197F1F700C0EF
:1042A0000000EFE9FFE03197F1F700C000008FE96F
:1042B0009FE00197F1F700C00000AFE9BFE0119760
:1042C000F1F700C0000073CF933031F432E0E30E19
:1042D000F11C0E94FE13D6CF943021F08FEFE81A24
:1042E000F80AD0CF92E0E90EF11C30E020E0B701EF
:1042F0006F5F7F4FD70111964C918053990B8A3095
:10430000910558F02150310908F4BCCFEFE9FFE0E6
:104310003197F1F700C00000F5CF429EF001439EB7
:10432000F00D11249C012E0F3F1F842F7B01DFCF46
:10433000E22FF0E0E557FE4F5490822F8695869548
:10434000869590E0FC01E558FE4F64902770712C33
:10435000022E02C0759467940A94E2F731E063225A
:104360007724FC01E559FE4F8490912C022E02C067
:10437000959487940A94E2F7A1E08A229924FC019B
:10438000E55AFE4FC490D12C02C0D594C7942A950B
:10439000E2F7B1E0CB22DD246114710419F081EE63
:1043A0000E942A148114910419F086EE0E942A14A6
:1043B000E9E365E070E05E1202C060E570E0852D23
:1043C0000E946C148114910419F086EE0E94FE1371
:1043D0006114710419F081EE0E94FE13C114D1041E
:1043E00009F450CF65E070E08CE2F6CEF092EC0379
:1043F000E092EB03F801808191819093EE0380932A
:10440000ED038581FCE4EF16FEE7FF0609F476C0B4
:10441000C0F53AE4E3163EE7F30609F44CC09BE42A
:10442000E9169EE7F90609F45CC0882331F0809113
:10443000BA02823011F40E945C20C7019A9581155E
:104440009F4108F07DC0F701FF27D80115968C9198
:10445000E13DF10548F0E93DF10508F473C0E734AA
:10446000BEE7FB0709F4BEC0882309F46FC0E0541F
:10447000FE47EA30F10508F069C0E55DF84C0C94A0
:104480006536ADE4EA16AEE7FA0609F445C0BEE4C7
:10449000EB16BEE7FB0649F6882309F4D6CE8091D9
:1044A000FB039091FC030197181619060CF440C009
:1044B00081E090E03DC0882309F4C7CE8091F803E5
:1044C00091E089278093F8034091F8035091F90314
:1044D0006091FA037091FB0383E190E00E94FD3646
:1044E000B4CE882309F4B1CE8091F9039091FA03F8
:1044F00005969093FA038093F903E6CF882309F495
:10450000A4CE8091F9039091FA0305978530910527
:1045100084F785E090E0EDCF882309F496CE809172
:10452000FB039091FC030196883EE3E09E072CF488
:104530009093FC038093FB03C7CF87EE93E0F8CF03
:10454000F70183CF682F8E2F0E94A010F80185817C
:10455000F6E1EF16FCE7FF0609F072C0882309F4C4
:104560005AC0809136068A7A91E009F490E09093DF
:10457000E30169E2811165E388EC91E00E947D0826
:104580000E94B71062CE90E080E00E94351B10922E
:10459000E5035BCE8091DD039091DE0362E370E082
:1045A0000E94D835462F5091E5035770852F880F0C
:1045B000572F5170582B60E070E08FE090E08ECF65
:1045C00084E690E00E94571B40CE8CE99FEFFACF23
:1045D00088EE93E0F7CF88E19CEFF4CF9091E00371
:1045E00081E089270E94BA0B30CE8091E5038111CA
:1045F00001C084E08F5F18160CF081E0883008F06D
:1046000087E08093E50321CE8091E503811101C00D
:1046100084E08150F0CF8091E30181110FC089E2E5
:10462000EAECF1E020ED31E09191891303C0DF0164
:1046300011971C922E173F07B9F7A2CF85E3F0CF51
:10464000811114C3809136068272F701E052F84757
:10465000E531F10508F063C0EB5CF84C0C9465366D
:104660008091C10380FF1CC0282F2E7F2093C1039F
:104670003091C2034091C3035091C4036091C503BC
:104680007091C6038091C7039091C8030E94C5151D
:104690008091E20281608093E2020E94EB0DD5CD11
:1046A00081608093C10361E086950E944917CDCD5A
:1046B00042E757E16CE777E10E94AD08C6CD4CE7D1
:1046C00057E162E777E1F8CF41E057E16BE077E14E
:1046D000F3CF4BE057E161E077E1EECF47EE56E1F3
:1046E00064EF76E1E9CF44EF56E167EE76E1E4CF9F
:1046F0004DEC56E16AED76E1DFCF4AED56E16DEC27
:1047000076E1DACF45E157E16FE277E1D5CF4FE2CD
:1047100057E165E177E1D0CF61E081E0C6CF27E7DF
:10472000E2162CE7F20609F460C038E7E3163CE72E
:10473000F30609F45EC0F8018581E080F1808823EA
:1047400009F49FC0C7010E94A10FD82E682FC7018E
:104750000E943F0BB7018D2D0E94930F0E94FC0910
:104760007C01882ED8011596AC90159716969C90D2
:1047700092943FE09322809110028770F1F0CA2C4E
:10478000AA20E1F08F2D807F803451F080E28E0DE1
:10479000883098F0911004C08F2D807E803269F0AF
:1047A00080919B0282FF09C082E00E94180C8091D8
:1047B00010028770CC24C3948111C12CBF2CB294F9
:1047C0002FE0B222BBE0BB1508F4C3C0EB2DF0E034
:1047D000E65BF84C0C94653681E00E942F0C43E0B8
:1047E00062E081E00E94EB0B30CD81E00E940B0C77
:1047F000F6CF82E0FBCF83E0E8168CE7F80671F194
:1048000060F4E114ACE7FA06D1F0B1E0EB16BCE7D6
:10481000FB0609F090CF0E94C013EBE5EE16ECE723
:10482000FE0669F1FCE5EF16FCE7FF06F1F02AE56C
:10483000E2162CE7F20609F07ECF81E01DC010924F
:1048400036060E94F4103FEF84E39CE03150804034
:104850009040E1F700C000000E9460086FEF7FEF1A
:1048600090E080E00E940937D6CF80919B0282FBC6
:10487000882780F991E089270E949E175CCF80E00D
:10488000FBCFC7010E940B0BD82E64CFEF2DEF702A
:10489000DE2E8F2D807F19F0D29490EFD922AA209E
:1048A000B9F0DD2069F080E28E0D883010F08110C3
:1048B00009C080913606D82AD09236060E94B710D9
:1048C0008E2D45C080911A02D82AD0921A02F6CFB6
:1048D0008E2D0E94FE13DD20E1F180E28E0D8830E6
:1048E00010F0811004C08D2D0E94FA0A06C0D094E9
:1048F00080911A02D822D0921A020E94B71029C0C1
:10490000FF2DFF70DF2E8F2D807F803219F0D29423
:1049100080EFD822882059F021E0821609F481C066
:10492000AA2009F48DC0992009F44FC0C9CF809105
:104930009B0282FD46C0AA20F1F1DD2039F0809172
:104940003606D82AD09236060E94B71080E00E9420
:104950002A14AB2DA850BB0B149710F40E94680EBC
:10496000CC20A9F08091100280FD11C0F8011582C1
:104970008695869586950E942F0CC8010E94692015
:10498000809110028695869586950E940B0C20E0FA
:10499000D8014C9111965C91119712966C911297D7
:1049A00013967C91139714968C91149715969C915D
:1049B0000E9400105ACC80E00E94FE13DD2049F2D4
:1049C00092CFAA20A1F0911004C08D2D0E94F41363
:1049D000C0CF31E09312BDCF809119029D2D982355
:1049E000D91609F4B6CFD82AD0921902B2CF9110B5
:1049F000B0CF8D2D0E94ED13909119028D2D89233A
:104A000029F08D2D80958923809319028091E401EE
:104A10009D2D982309F49DCFD094D822D092E40103
:104A200098CFAA2029F085E0891508F492CFCDCF40
:104A300094E0991508F48DCF8D2D0E94ED1389CF48
:104A40009920D1F3A9E38A1209C1BFEFE7EEF3E0A1
:104A5000B150E040F040E1F700C000008E2D0E9410
:104A6000FE1377CF6A2D8E2D0E94A01072CF8F2D4E
:104A7000837091F5A1106DCF4E2D429546954770EC
:104A8000440F440F8E2D8F70042E01C0880F0A949E
:104A9000EAF72E2D2071E4FE07C02FE030E001C0C0
:104AA000220F4A95EAF720953F2D369536953370BB
:104AB000323069F050F440911B02313029F0822BE2
:104AC00084230E94750B45CF842B822BFACF282B91
:104AD00080911B028227F5CF8695AA2011F08F2D99
:104AE0008170882309F435CF4E2D42954695477045
:104AF000440F440F8E2D8F70042E01C0880F0A942E
:104B0000EAF72E2D2071E4FE07C02FE030E001C04F
:104B1000220F4A95EAF720953F2D3695369533704A
:104B2000323069F050F44091F703313029F0822B94
:104B300084230E94E60B0DCF842B822BFACF282BE7
:104B40008091F7038227F5CF9F2D9F70F92EAA2021
:104B500029F0892F0E942F0C8E2D38CF8E2D0E9488
:104B6000ED138F2D0E940B0CF4CE8E2DA2EF8A1622
:104B7000B1F1A81570F0B0EF8B16D1F0E1EF8E1601
:104B800091F0AA2009F45EC091109ACE8F2D8F71FA
:104B90002AC0F3EF8F1651F124EF8212F2CF8091E9
:104BA0009B0282FD2FC08F2D8F71AA20D9F21BC0CE
:104BB000AA2081F034E0391508F4CBCE2F2D2F71C7
:104BC00081E090E001C0880F2A95EAF79091F70301
:104BD0008927AFCF85E0891508F4BBCEEFCF8F2DA5
:104BE0008F71A110BFCF0E942F0CB3CE80E0AA20FE
:104BF00009F49FCF9F2D9F7181E001C0880F9A9586
:104C0000EAF797CFAA2099F09F2D9F71F92E892F4F
:104C10000E942F0C80919B0282FF07C0A8E0FA9EA1
:104C2000C00111248360809310028F2DDCCF81E0BE
:104C30000E94180CB1E0B91508F08BCE82E00E94FA
:104C4000180C87CE992079F0893341F4EFEFF7EE15
:104C500023E0E150F0402040E1F7FECE8FE19EE4FA
:104C60000197F1F7F9CE8F2D8F717CCFB7E7EB1657
:104C7000BCE7FB0609F4B0CDE8E7EE16ECE7FE066C
:104C800009F0B9CD82E0A9CDCF93DF9380910F02D7
:104C9000807F09F04DC080910E02882309F448C03E
:104CA000E091860650914D06C0910A02D09109020A
:104CB00060910B0270910C0247E05E17C9F18E2FD4
:104CC00090E0E49FF0011124E25BF94F248122235C
:104CD00091F1489FF001499FF00D1124DF01A25B83
:104CE000B94F11962C9111972C1325C02C912D138F
:104CF00022C015962C91159721111DC012962D9149
:104D00003C91261B370B283C3105A8F480910F02FB
:104D10008F70806180930F02EC5AF94F80818F7001
:104D20008061808389E092E00E9469200E94010BEB
:104D3000DF91CF910895FC013196E770BECFA4E1D9
:104D4000B0E0E5EAF6E20C94F2358C0186E0F80179
:104D5000DE011F9601900D928A95E1F7F80184819A
:104D6000E58099E0A92E92E0B92E90910D02911163
:104D700028C0882319F1EE20F1F0C8010E94DD0F50
:104D8000F82E8823C1F087E0F801D50101900D923B
:104D90008A95E1F780910D02813031F4809109020A
:104DA00090910A020E94D00F0E9444268F2D649693
:104DB000ECE00C940E36C8010E946920FF24F394A5
:104DC000F5CFD080C18082809380F0900E02209138
:104DD0000B0230910C02A401421B530BFF2009F47B
:104DE000D9C0483C510508F092C08823F9F290914F
:104DF0000A0280910F02282F207F09F056C0C912A5
:104E000014C090910902D91210C0E11048C08F70EF
:104E1000806180930F0289E092E00E946920809176
:104E20000F02F8018683F12CC1CFE11038C06C2D40
:104E30008D2D0E94E3066C2D8D2D0E94E306E82E39
:104E40008111F1CFDF86C88A8F8598890E94D00FA3
:104E5000292F22952F70243058F49F70223088F02B
:104E6000992399F0F8019681907F79F4FE2C9ECFDA
:104E70002A5F2F70223068F0C8010E946920EF2C51
:104E8000F5CF992311F0882389F3805E883070F381
:104E9000F3CF803F58F3815F833070F7E7CF809185
:104EA0000F02816080930F02BECFC91207C090919C
:104EB0000902D91203C0EE2009F48DC0C8010E9476
:104EC000DD0F882309F477CFEE2009F474CF8091A9
:104ED0000F02803288F02091090230910A0239874E
:104EE00028879B868A8690910D029C871D868E87D7
:104EF000CE0108960E94692087E0F801A9E0B2E09F
:104F000001900D928A95E1F70E94442657CF909127
:104F10000F02292F207F51F489E092E00E9469203E
:104F200087E0F50111928A95E9F77DCF882309F48E
:104F30003DCF80910A028C1110C080910902D812D5
:104F40000CC0E1100AC09683C8010E94692087E066
:104F5000F50111928A95E9F729CFC8010E94DD0F6A
:104F6000882309F428CFEE2009F425CF80910F0281
:104F7000803210F22091090230910A023A8329838B
:104F80009C828B8290910D029D831E828F83CE0125
:104F90000196B0CF483C5105D0F6882309F40ECFD6
:104FA000FE2CEE2009F407CF80910A028C1120C05C
:104FB00080910902D8121CC080910F0280FD0FC0A1
:104FC000982F907F61F08683903F31F0982F907FEB
:104FD000905F8F70892B8683C8010E94692087E0CB
:104FE000F801A9E0B2E001900D928A95E1F7DECEDA
:104FF000C8010E94DD0F81117FCF80910F02816077
:1050000080930F02C8010E946920D0CEABE1B0E0CE
:10501000ECE0F8E20C94FA354E8B5F8B688F798F59
:105020008A8F9B8F192F911110921A021D8A86E088
:10503000FE017696DE011F9601900D928A95E1F7AA
:105040000A8D002341F021E04F85588969897A89CA
:10505000C8010E9400100B8B1C8B87E0FE013F965D
:10506000DE01189601900D928A95E1F7CE0108961F
:105070000E949F2681110CC087E0FE013896DE0158
:10508000119601900D928A95E1F78C8581110BC0E4
:1050900017E08091860690914D06891333C06B9678
:1050A000E4E00C94163620914D0630E0C9010196DB
:1050B00087709927409186064817190699F097E05E
:1050C000929FD001939FB00D1124A25BB94FFE01B6
:1050D000319601900D929A95E1F780934D060E94CA
:1050E000010BD6CF109236060E94F41010924D0696
:1050F0001092860687E0E9E0F2E0DF011D928A95D2
:10510000E9F7C6CF819FC0011124825B994F0E94AD
:105110009F26882321F28091860690E00196877071
:10512000992780938606B5CFA6E0B0E0EAE9F8E2D9
:105130000C94FA350E94211D8C0180911C029091E3
:105140001D028017910781F019821A820E94211D89
:10515000682F49815A81792F80E090E00E940628CB
:1051600010931D0200931C022696E4E00C94163660
:10517000ACE0B0E0EEEBF8E20C94EE358E010F5FA0
:105180001F4F8CE0D8011D928A95E9F7380158012C
:1051900090E0C92E91E0D92E44244394512CF6017D
:1051A00081916F010E94390D00C086E0882E81E058
:1051B000982EF401F12CE12C2191A22FA295AF7031
:1051C000B0E090968C9190E02F7002C095958795F5
:1051D0002A95E2F780FD0AC0D5018C9192010E2C30
:1051E00001C0220F0A94EAF7822B8C93BFEFEB1ACF
:1051F000FB0A24E0E216F104F9F6F601319780810A
:105200000E944D0D80EA8A95F1F79FEFA91AB90A1D
:10521000A6E0CA16A1E0DA0611F6DD24D394F40163
:1052200081914F010E94390D00C03D2D0E2C01C00F
:10523000330F0A94EAF7F80140E051E0DA012D91CA
:10524000AD01822F82958F7090E0DC0190968C9159
:1052500090E02F7002C0959587952A95E2F780FD22
:1052600003C08081832B80833196B1E046305B0799
:1052700029F7F401319780810E944D0DE0EAEA950B
:10528000F1F7FFEFEF1AFF0A28E0E216F10439F612
:10529000EDE8F6E098012A5F3F4FF12CD3018D91A4
:1052A0003D019191891729F0DF0111978C93FF241B
:1052B000F3942615370591F7C0909902FF2051F11C
:1052C00081E08093D2010E94211D9093D1018093AF
:1052D000D0018091D0019091D1010E94121D0597BB
:1052E000E8F0D12CF601E354FD4F6F0146E050E0A9
:1052F0006DE876E0CF010E94B136892B41F086E05F
:10530000EDE8F6E0D60101900D928A95E1F7109252
:10531000D20104C08091D2018111DBCF0E94430EE3
:10532000E82EE091990281118DC0F0E0E354FD4F29
:1053300086E0A0E2B2E001900D928A95E1F766E086
:1053400070E080E292E00E94970880931F024091F3
:10535000B30250E06091B20270E066557D4FC80123
:105360000E94BE3689819A819093280280932702F9
:1053700062E070E0C8010E94970880932602809046
:10538000290290902A02A0902B02B0902C028091CA
:10539000D3019091D401A091D501B091D601881686
:1053A0009906AA06BB06D1F08092D3019092D4014F
:1053B000A092D501B092D6010E94430E81110EC079
:1053C0000E947108861A970AA80AB90A8092920266
:1053D00090929302A0929402B09295028BE0EDE23B
:1053E000F2E0D80101900D928A95E1F780912D02AB
:1053F000869500912E02E0902F02D09030021091FD
:105400003702109237021123A9F010FF0BC09981C7
:1054100090FF15C09091C10391609093C10360E02B
:105420000E94491711FF06C020E04D2D6E2D802FE0
:105430000E94EB158F2D2C96E0E10C940A360E9409
:10544000360EF0CF23E936E086E0D9011D928A9529
:10545000E9F70E2F10E003541D4F80918C068A301F
:10546000E8F56FE579E1C8010E94620D882309F42F
:1054700052C06CEB7DE1C8010E94620D882309F4E3
:105480004AC065EB78E1C8010E94620D882309F4E7
:1054900042C06FE578E1C8010E94620D8823D9F10E
:1054A00010928C0681E08093D9010091980210E05F
:1054B00003541D4F46E050E063E976E0C8010E94C6
:1054C000B136892B09F4B6CF86E0E3E9F6E0D801DE
:1054D00001900D928A95E1F7FE2CACCF8091D70117
:1054E0009091D8010E94121D843F914008F0B9CFDD
:1054F0008091D901882309F49DCF1092D901E091C0
:105500009802F0E0E354FD4F96E0DF011D929A957A
:10551000E9F7F82E8FCF80918C068F3F31F08F5FA7
:1055200080938C068A3008F4BDCF0E94211D909391
:10553000D8018093D701DCCFCDB7DEB7EE970FB699
:10554000F894DEBF0FBECDBF85B7806885BF85B735
:10555000806885BF84B7877F84BF0FB6F894A8950D
:1055600080916000886180936000109260000FBE9F
:1055700080E890E00FB6F89480936100909361000A
:105580000FBE8DED98E09093C7018093C6010E94F5
:1055900002070E94A3078091E20084608093E200EA
:1055A0007894809143068823A1F01091E9001F7040
:1055B0009091EC00892F817090FD80E8182B10925B
:1055C000E9008091E80083FD0E9400111F70109394
:1055D000E90082E084BD93E095BD9AEF97BD80938A
:1055E0006E00109292021092930210929402109206
:1055F00095020E942E10811102C00E94540F0E9439
:105600008B1980910A0192E0811190E09093B2028F
:1056100082E0C82EC91AC092970290910A01809325
:10562000B30290910A01809396025EE9852E51E0C3
:10563000952E4CE951E060EAE62E61E0F62E8A01F3
:10564000940161E070E0D9018D919D01E82FE29510
:10565000EF70F0E0B1A08F706B0101C0CC0C8A95A7
:10566000EAF79C2D90959B2191A382A18C2982A37E
:10567000F80181918F01E82FE295EF70F0E0B1A081
:105680008F706B0101C0CC0C8A95EAF79C2D909528
:105690009B2191A382A18C2982A3EA16FB0699F68D
:1056A0008FE891E00197F1F700C000001091B3027C
:1056B00064EB72E0FB018E2F861B811708F467C034
:1056C00080910A010E948B19809106010E944D0D64
:1056D000809107010E944D0D809108010E944D0D9F
:1056E000809109010E944D0D00E011E046E0E42E9A
:1056F00041E0F42EF80181918F010E944D0DE016DA
:10570000F106C1F780910A0196E0811190E0909333
:10571000990286E0891B809398020E94430E8111B2
:1057200002C00E947934EDE8F6E0ADEBB2E01192F0
:105730001D9226E0E939F207D1F70E94B5178111D1
:1057400002C00E94A21982E090E00E94C7368093B6
:105750009D0284E090E00E94D53690939B02809356
:105760009A020E94B8288FE39CE90197F1F700C0E4
:1057700000000E94B8288091BD0280FF31C06FEF09
:105780007FEF90E080E00E9409370E946008D4011A
:105790002D914D01822F82958F7090E0DC019096C3
:1057A0008C9190E02F7002C0959587952A95E2F72D
:1057B0008170DA019D91AD01292F22952F7030E083
:1057C000D90190962C9130E09F7002C035952795B5
:1057D0009A95E2F790E020FD92E0892B81936BCFC0
:1057E00083E090E00E94C7360E94750B8091F7031A
:1057F0000E94CE0B0E94430E882309F4AFC180E0C3
:105800008093200680E88093D1030E9430336BE0C0
:1058100070E082E292E00E9473158823E9F18091A2
:10582000200665E070E081FD9BC18DE192E00E9461
:105830007315882389F16DE070E08BE092E00E949F
:105840007315882349F10E947108605A75418F4F82
:105850009F4F6093240670932506809326069093AD
:105860002706E0E2F4E080E092E0DF019C011D9277
:1058700021503040E1F7F093D003E093CF038FEF56
:105880009FEF909323068093220681E080932B065E
:10589000809328061092210680919C02811176C087
:1058A0000E94B517811104C00E94A2190E9481179D
:1058B00088E090E00E94CF364B015C0184E290E0EA
:1058C0000E94C736282F30E040E050E060E070E0F2
:1058D00080E090E000E20E947236282939294A29A6
:1058E0005B292093C1033093C2034093C3035093B9
:1058F000C4036093C5037093C6038093C70390935A
:10590000C8038091E20283608093E2022E7F89F5D2
:105910000E94811788E090E00E94CF366B017C01E5
:1059200084E290E00E94C736282F30E040E050E04B
:1059300060E070E080E090E00E947236B22FA32F0A
:10594000F42FE52F5B0197018601BC29A12BFE29CD
:10595000E32BB093C103A093C203F093C303E0937E
:10596000C4036093C503B092C6038093C7039093AA
:10597000C8030E94B3088091C10380FF04C060E0A7
:1059800086950E94491781E080939C020E94430EF5
:10599000811102C00E9479340E94861B0E94430E2E
:1059A00081112EC081EC9EE0909362018093610191
:1059B0002DE130E030935D0120935C018DE390E0B8
:1059C0009093600180935F0149EC58E050936A0125
:1059D00040936901309365012093640190936801BD
:1059E0008093670141E55BE150937201409371013F
:1059F00030936D0120936C019093700180936F013F
:105A00000E94B5178823A9F08FE090E00E94CF365E
:105A1000172F862F912F917022E3AC01249FC00194
:105A2000259F900D11240E94351B16951770109319
:105A3000E5030E94AD0E83E190E00E94CF368B011A
:105A40009C016093F8031093F9038093FA03309359
:105A5000FB031092FC031092FD031092FE031092C0
:105A6000FF0383E791E09093300680932F0629ECA3
:105A7000A22E22E0B22E32E0832E912C809143069A
:105A8000853069F49091420680914306853009F48F
:105A90006AC0109236060E94F4100E94680E0E949E
:105AA000B8280EE912E090EAE92E91E0F92E2AEAF0
:105AB00032E067018DEB92E0F8015191DC014D91EC
:105AC000CD01D6016D916D0146232E173F0709F4D4
:105AD0005EC0541791F30E94430E282E8DEBC82E02
