:100000000C9473060C9490060C9490060C94D233C6
:100010000C9490060C9490060C9490060C94900608
:100020000C9490060C9490060C949C1B0C94581BFA
:100030000C9490060C9490060C9490060C949006E8
:100040000C9490060C9490060C9490060C949006D8
:100050000C9490060C94751C0C9490060C949006CD
:100060000C9490060C9490060C9490060C949006B8
:100070000C9490060C9490060C9490060C949006A8
:100080000C9490060C9490060C9490060C94900698
:100090000C9490060C9490060C9490060C94900688
:1000A0000C9490060C9490060C949006050109029D
:1000B000A10185020901A1000509190129081500FE
:1000C0002501950875018102050109300931158165
:1000D000257F95027508810609381581257F9501D0
:1000E00075088106050C0A38021581257F95017572
:1000F000088106C0C005010980A101850319012AF4
:10010000B700150126B700950175108100C0050CD8
:100110000901A101850419012AA002150126A002E6
:10012000950175108100C00660FF0961A101096297
:10013000150026FF00952075088102096315002629
:10014000FF00952075089102C005010906A101056F
:100150000719E029E7150025019508750181029529
:1001600001750881010507190029FF150026FF0008
:100170009506750881000508190129059505750181
:100180009102950175039101C0000000000000007C
:10019000000000000000000000000000000000005F
:1001A000000000000000000000000000007E0F00C2
:1001B000D4FFFFFFC700000078000000000000002F
:1001C000002A2B28000000000000000000000000B2
:1001D0000000000029000000002C1E3420212224F1
:1001E000342627252E362D3738271E1F202122237F
:1001F0002425263333362E37381F04050607080911
:100200000A0B0C0D0E0F10111213141516171819D6
:100210001A1B1C1D2F3130232D3504050607080934
:100220000A0B0C0D0E0F10111213141516171819B6
:100230001A1B1C1D2F3130354C00DA0281FFD9F119
:10024000DB20A4A62EAF00A0C000A1C800AED580C0
:10025000A81FD300408D1420006162636465666747
:1002600068696A6B6C6D6E6F707172737475767796
:1002700078797A313233343536373839305245422D
:10028000545F2D3D5B5D5C233B27602C2E2F20208F
:100290002700204B00202043004B6579203A202086
:1002A0005200202044003030202053002020202005
:1002B000204350490042616C6C3A0052543A002F7E
:1002C000004D563A004C3A008081828384858687AF
:1002D00088898A8B8C8D8E8F9091929394A0A1A205
:1002E000A3A4A5A6A7A8A9AAABACADAEAFB0B1B266
:1002F000B3B4C0C1C2C3C4C5C6C7C8C9CACBCCCDBC
:10030000CECFD0D1D2D3D40000AE00010101010183
:1003100001010101020202020202020202030303BE
:10032000030303030304040404040404050505058E
:10033000050606060606070707070708080808094E
:100340000909090A0A0A0B0B0B0C0C0C0D0D0D0EFA
:100350000E0E0F0F0F10101111111212131314148F
:10036000151516161717181819191A1A1B1B1C1D04
:100370001D1E1E1F2020212222232424252626275D
:100380002829292A2B2C2D2D2E2F3031323233348F
:1003900035363738393A3B3C3D3E3F404142434495
:1003A00045464748494A4C4D4E4F50515354555677
:1003B00058595A5B5D5E5F616264656668696B6C23
:1003C0006D6F7072737577787A7B7D7E808283859E
:1003D00087888A8C8E8F91939596989A9C9EA0A2DE
:1003E000A3A5A7A9ABADAFB1B3B5B7BABCBEC0C2E8
:1003F000C4C6C9CBCDCFD1D4D6D8DBDDDFE2E4E7AC
:10040000E9EBEEF0F3F5F8FAFDFF00000000000064
:100410003E5B4F5B3E003E6B4F6B3E001C3E7C3EA6
:100420001C00183C7E3C18001C577D571C001C5EAD
:100430007F5E1C0000183C180000FFE7C3E7FF00C8
:10044000001824180000FFE7DBE7FF0030483A06F9
:100450000E00262979292600407F05050700407FE8
:1004600005253F005A3CE73C5A007F3E1C1C080013
:10047000081C1C3E7F0014227F2214005F5F005F77
:100480005F0006097F017F00006689956A00606051
:100490006060600094A2FFA2940008047E0408003B
:1004A00010207E20100008082A1C0800081C2A08BA
:1004B00008001E10101010000C1E0C1E0C0030380E
:1004C0003E383000060E3E0E060000000000000020
:1004D00000005F000000000700070000147F147F89
:1004E0001400242A7F2A120023130864620036496C
:1004F00056205000000807030000001C22410000A5
:100500000041221C00002A1C7F1C2A0008083E080B
:10051000080000807030000008080808080000008B
:10052000606000002010080402003E5149453E0072
:1005300000427F4000007249494946002141494D2F
:1005400033001814127F10002745454539003C4AF6
:10055000494931004121110907003649494936000E
:10056000464949291E0000001400000000403400E4
:100570000000000814224100141414141400004157
:10058000221408000201590906003E415D594E003F
:100590007C1211127C007F49494936003E4141419D
:1005A00022007F4141413E007F49494941007F0986
:1005B000090901003E41415173007F0808087F008E
:1005C00000417F4100002040413F01007F0814228C
:1005D00041007F40404040007F021C027F007F04BA
:1005E00008107F003E4141413E007F090909060095
:1005F0003E4151215E007F0919294600264949499B
:10060000320003017F0103003F4040403F001F20B4
:1006100040201F003F4038403F006314081463002F
:100620000304780403006159494D4300007F4141B0
:100630004100020408102000004141417F000402F3
:100640000102040040404040400000030708000051
:100650002054547840007F284444380038444444AF
:100660002800384444287F003854545418000008A7
:100670007E0902001824241C78007F0804047800F6
:1006800000447D4000002040403D00007E10284492
:10069000000000417F4000007C04780478007C0862
:1006A000040478003844444438007C18242418009A
:1006B000182424187C007C0804040800485454546E
:1006C000240004043F4424003C4040207C001C20C3
:1006D00040201C003C4030403C004428102844008E
:1006E0004C9090907C004464544C44000008364187
:1006F0000000000077000000004136080000020101
:10070000020402003C2623263C00000000000000FA
:100710000000000000000000000000F81E030101BE
:10072000020C08080808081010101018040202062D
:10073000FC0000000000000000000000000000F0CD
:100740001E030101030C0808080808080808080C23
:100750000603010103FE000000000000000000008D
:1007600000000000F03E030103060C0C0C08080812
:1007700008080808080C060101031EE0000000003C
:100780000000000000000000E0F0F0F0E0ECEEF708
:10079000F37020007C7C7C7E007E7E7E7F7F7F00ED
:1007A0000080C0E07E5B4F5BFEC00000C000DCD775
:1007B000DEDEDED7DC00C00000000000000000002C
:1007C0000000000000000000000000000000000029
:1007D0000000C020008060180000C07F0000000002
:1007E0000000020200000000000000020200000001
:1007F00007F80000000000C020008060100000FF2B
:1008000000000000000003030000000000000003DF
:10081000030000000003FE0000000000C020008074
:1008200060100000FF000000000000030300000053
:100830000000000000030300000000FF00000000B3
:1008400000000000000000000F1F3F7F7F7F7F7FC0
:100850003F1E0C001F1F1F3F003F3F3F7F7F7F0059
:10086000307B7F7830202030787F3B0003000F7F83
:100870000F0F0F7F0F0003000000000000000000BA
:100880000000000000000000000000000000000068
:10089000000718200007182000001F30203018081B
:1008A0001020203018102020203018081020402060
:1008B000301F000000000718200007182000001F4C
:1008C00030202010080810202030080808103020A0
:1008D0003018081830201F000000000718200007FB
:1008E000182000001F302030181830203018083031
:1008F00020301808081830202038080700000000B1
:1009000000000000000000000000000000000000E7
:1009100000000000000000000000000000000000D7
:1009200000000000000000000000000000000000C7
:1009300000000000000000000000000000000000B7
:100940000000000000000000000000AF29001E00B1
:100950001F00000020002100220000002B001400D6
:100960001A0002530800150017002800E0000400D8
:1009700016000000070009000A00000001511D00D8
:100980001B0000000600190005003000E200E30033
:10099000000000000608904391412C424F00500097
:1009A0005100520000000000000000002D00270050
:1009B0002600000025002400230000002F00130063
:1009C000120028000C0018001C002900340033001D
:1009D0000F0000000E000D000B0000008700380023
:1009E00037000000360010001100320089002E0090
:1009F000000000001908E30028002A002B022B0049
:100A00001D0A1D08000000000000000029021E024F
:100A10002F00000020022102220200002B021402FB
:100A20001A0201000802150217020100E002040286
:100A300016020000070209020A02000001001D025E
:100A40001B0200000602190205023002E202E30264
:100A50000000000001000100010001000100010090
:100A600001000100000000000000000087022702D2
:100A70002602000025022402230200002F02130296
:100A8000120201000C0218021C020100340233029F
:100A90000F0200000E020D020B0200008702380256
:100AA00037020000360210021102320289022E02C1
:100AB0000000000001000100010001000100010030
:100AC00001000100000000000000000001003A00E9
:100AD0003B0000003C003D003E0000000100010022
:100AE0002400010025002600010001000100010092
:100AF0002100000022002300330200000100010059
:100B00001E0000001F0020002D0225020100010030
:100B10000000000001000100010001002B002B0279
:100B2000010001000000000000000000440043003C
:100B300042000000410040003F000000450001006D
:100B40004E00010052004B000100010001004D0069
:100B50004F000000510050004A0000000100010059
:100B6000F6000000F500F400F800F70001000100B5
:100B7000000000000100010001000100010001006F
:100B8000010001000000000000000000C25C010044
:100B9000010000000100010001000000C35CC55C11
:100BA000C75C0100C95C010001000100C45CC65CB7
:100BB000C85C0000CA5CB85DB75D0000BC5DBD5D8F
:100BC000BE5D0000BF5DBA5DB95DDE5C005CBB5D13
:100BD000000000000100010001000100010001000F
:100BE000010001000000000000000000D25CD15CA8
:100BF000D05C0000CF5CCE5CCD5C00000100010049
:100C00005D5D0100D55CD45CD35C0100B15DB25D7B
:100C1000B55D0000B35DB45DB65D0000010001008C
:100C200001000000010001000100DE5C0100010084
:100C300000000000010001000100010001000100AE
:100C400001000100000000000000000009025B003C
:100C5000030100A0FA0904000001030101000921B9
:100C60001101000122400007058103080001090469
:100C700001000203000000092111010001222200ED
:100C80000705820320000107050303200001090472
:100C900002000103000000092111010001227B0074
:100CA000070584032000011201000200000008591A
:100CB0004D00010200010200010E036D0074006B83
:100CC00000360034006500000016036D0065006EFC
:100CD00000740061006B006F005F0079006100002C
:100CE00000040309040011241FBECFEFDAE0DEBFC9
:100CF000CDBF11E0A0E0B1E0E4E6FCE602C0059063
:100D00000D92AA3FB107D9F726E0AAEFB1E001C0E2
:100D10001D92A43CB207E1F70E94B5270C94FD3563
:100D20000C9400008F929F92AF92BF92CF92DF926D
:100D3000EF92FF9290918C01981305C09091B406A8
:100D4000903209F44BC080938C0190E29093B406EA
:100D5000C82ED12CF12CE12C1092B306C701B6019C
:100D60002AE030E040E050E00E946735605D60338B
:100D700031F0C114D104E104F10409F460E260939C
:100D8000B20660E28AE0C816D104E104F10490F0F2
:100D90008AE0882E912CA12CB12CC701B601A501A7
:100DA00094010E946735CA01B901A50194010E940E
:100DB0006735605D6093B10620E284E6C816D10411
:100DC000E104F10448F0C701B60124E630E040E058
:100DD00050E00E946735205D2093B00680EB96E0DE
:100DE000FF90EF90DF90CF90BF90AF909F908F904B
:100DF0000895E8EDF0E080818E7F80831092E2001C
:100E00001092DA001092E100A0EEB0E08C918160C7
:100E10008C9380818F77808319BCA7EDB0E08C9193
:100E20008E7F8C9380818F7E8083109297060895A9
:100E30002091E4003091E50095E6A9012091EC00B5
:100E4000822F817020FF06C08091E80080FF06C0DD
:100E500080E008952091E80022FD1AC08091A50647
:100E6000882389F0853089F08091EB0085FD0FC0E3
:100E70002091E4003091E50042175307F9F29150B8
:100E8000E1F684E0089582E0089583E0089581E02A
:100E90000895EF92FF920F931F93CF937C018B01E4
:100EA0000E941807C82F811117C08091E80085FDA6
:100EB0000BC08091E8008E778093E8000E941807AD
:100EC000882399F3C82F08C0F70181917F0180938F
:100ED000F1000150110949F78C2FCF911F910F910B
:100EE000FF90EF9008958091A70687FF13C080912F
:100EF000E80082FF06C08091E8008B778093E800CD
:100F000004C08091A5068111F2CF08958091A506B5
:100F10008823D9F38091E80080FFF8CF8091E80022
:100F20008E77ECCF982F9093E900242F762F50E006
:100F3000891731F07091EC002091ED005091F00094
:100F400021FD07C09F5F973071F78093E90081E032
:100F500008953091EB003E7F3093EB003091ED002F
:100F60003D7F3093ED003091EB0031603093EB002A
:100F70007093EC002093ED005093F0002091EE0070
:100F800027FDE0CF80E00895B0E0A0E0EAECF7E0D4
:100F90000C940C35C8EDD0E088818F7E8883E7ED16
:100FA000F0E080818160808384E082BF81E0809373
:100FB000970688818E7F888302EE10E0F801108208
:100FC0001092DA0081EEC82ED12CF60110828881B1
:100FD0008F77888388818068888388818F7D8883E4
:100FE00019BC1092A5061092A6061092A4061092A3
:100FF000A30690EEE92EF12CF70180818B7F808390
:1010000088818160888342E060E080E00E949207EE
:10101000F60180818E7F8083F801808181608083EA
:10102000808188608083F70180818E7F80838881C2
:1010300080618883CDB7DEB7E8E00C942835FC01E9
:101040008091AD069091AE0686179707A0F06115C6
:10105000710529F49091E8009E779093E80090E064
:101060006115710551F4911108C08091E80082FF6B
:1010700034C080E00895BC01F2CF8091A50688239A
:10108000C1F18530C1F18091E80083FD30C08091CD
:10109000E80082FDEACF8091E80080FFE1CF8091F7
:1010A000F3002091F200382F6115710519F02830F6
:1010B000310558F091E02830310509F090E0209199
:1010C000E8002E772093E800CBCF81918093F10048
:1010D000615071092F5F3F4FE7CF8091A5068823AC
:1010E00041F0853041F08091E80083FFBECF81E080
:1010F000089582E0089583E00895089580919A0606
:10110000089587E797E7909301088093000888E1A6
:101110009AE00FB6F894A895809360000FBE909364
:101120006000FFCF2FB7F894609190067091910600
:1011300080919206909193062FBF08959C01FC0127
:1011400032969FEF80E04191461751F09F3F19F48E
:10115000411101C0982F8F5F8630A9F79F3F09F496
:101160000895290F311D97FD3A95F901628308957D
:1011700020918E0630918F062817390771F09093D1
:101180008F0680938E06E0918C06F0918D06309745
:1011900021F00084F185E02D0995089520918A06BB
:1011A00030918B062817390771F090938B06809346
:1011B0008A06E0918C06F0918D06309721F006802A
:1011C000F781E02D09950895FC01680F791F8FEFD5
:1011D00091E32191822728E030E087FF09C0880F42
:1011E000892721503109C9F7E617F70791F70895C4
:1011F000880FF7CFFA01811101C0FB01099508950D
:1012000080917404982F9E7F71F480917404817092
:1012100082608093740480917704893718F088E79E
:10122000809377040895843080F7F5CFCF93DF93D0
:10123000E1E7F3E083819481A581B681E9018883A8
:101240009983AA83BB831482138216821582DF914D
:10125000CF91089580E0089563E070E08BE992E01B
:101260000E94E40890919A02891318C0E0919B02B1
:10127000ED30A4F488E0E802F0011124E55FFE4FB0
:101280000680F781E02D309749F02EEB32E0409157
:101290009D026EE972E080919C0209950895E4E850
:1012A000F2E0808D80934301818D809356010895F3
:1012B0009091FA0292FF06C0282F28712830F9F485
:1012C000877F846093FF06C0282F28712831F1F4AE
:1012D000877E84612091FB0220FF06C0382F387181
:1012E0003830D9F4877F816021FF06C0282F28710C
:1012F0002831D1F4877E816194FD877E0895282F5F
:1013000024712430F9F68B7F8860DCCF282F24717C
:10131000243101F78B7E8861DDCF382F3171313078
:1013200019F78E7F8860E0CF282F2171213121F7B6
:101330008E7E8861E1CFCF93DF93EC0182389105F7
:10134000B1F108F040C08133910509F49DC048F522
:101350008932910509F48DC08A9709F49CC0C115A2
:1013600022E5D20708F0BDC0C11531E5D30708F06A
:1013700024C1C83ED10508F0A3C0C13ED10588F5FF
:10138000C83AD10508F08EC0C53AD10508F0F6C0BC
:10139000C130D10531F1209721F1C430D10508F5D4
:1013A00045C08533910509F45FC0C997C1F68091A6
:1013B000FA02837009F036C18091FB0283FF11C0ED
:1013C000C9E2D0E00EC0833E910599F170F4803EF1
:1013D000910501F1823E910511F68091FA0282FD9C
:1013E00021C0CE01DF91CF910895863E910561F134
:1013F000873E910571F1843E910509F0B0CF80914F
:10140000FB0281FFEECF8091FA02C7EED0E084FDAF
:101410000DC0E7CF8091FA0280FD33C09091FB02AE
:1014200090FFDFCFC3EED0E084FFDBCFD0E0C0E0A1
:10143000D8CF8091FA0282FDF2C09091FB0290FD1C
:10144000F1C084FFCECFF2CF8091FA0283FDDDCFD1
:10145000C8CF8091FA0283FDE8C09091FB0291FF12
:10146000F0CFC4EED0E0BDCF8091FA0285FFB9CFB6
:10147000A7CF8091FA0285FDDBC08091FB0283FF3C
:10148000B0CFC9E3D0E0ADCF8091FA0286FFA9CFFB
:10149000CAE2D0E0A6CF8091FA0286FFA2CFC1E3D4
:1014A000D0E09FCFCF3BD10508F6C85AD0E0CC0F93
:1014B000DD1FCF56DE4F0990D881C02DD46491CF67
:1014C000C11540E5D40708F064C0C11580E4D80711
:1014D00008F05CC0CE019A9581159F4108F481CF38
:1014E000A5CFC11536E5D30718F5C11545E5D407D5
:1014F00008F07CC0C11584E5D80708F072C09E01D1
:10150000237033279C2F96959695C115D34508F4E3
:1015100059C0C1E0D0E002C0CC0FDD1F2A95E2F730
:1015200030E2939FC0011124C82BD92BDA6859CF20
:10153000C1158AE5D80778F4C11529E5D20708F066
:1015400060C0C11538E5D30708F470CFDC2FCC2775
:10155000C06FD06A46CFCE0190568115904208F0F8
:1015600065CF8D2F8F710E94580990E0982F8827A2
:1015700088279F719C012C2BE90141C0C55AD0E0FE
:10158000C257DE4FC881D0E0D0642BCFDF70D06A65
:1015900028CFCE018370992721E030E002C0220FCE
:1015A000331F8A95E2F7C695C69580E2C89FE00191
:1015B0001124C22BD32BDD6814CFDC2FCC27C16FB5
:1015C000D06A0FCFC1E0D0E002C0CC0FDD1F2A955A
:1015D000E2F720E2929FC0011124C82BD92BDC68CE
:1015E00000CFDC2FCC27C46FD06AFBCE8C2F0E949B
:1015F0005809C82FD0E0DC2FCC27CC27DF71D06270
:10160000F0CE8C2F8F700E94580934E0D695C79584
:101610003A95E1F7CF709C2FEC01D069E2CEC2EE93
:10162000D0E0DFCEC0EED0E0DCCEC6EED0E0D9CE4A
:10163000C5E3D0E0D6CE0E94920808958091810241
:1016400081111092810208958095909198069823B7
:101650009093980608958091760290914502981390
:1016600001C008958F5F8770FACF9C3080F5883075
:1016700070F548E0949F90011124820F932F911DE3
:10168000682F677023E0969587952A95E1F7FC010E
:10169000EE0FFF1FE80FF91FE55EFD4F50E040E041
:1016A00080E0219130E0062E02C0369527950A94FD
:1016B000E2F721703327042E01C0220F0A94EAF7C3
:1016C000822B4F5F5F4F4330510559F7089580E0FB
:1016D00008959C3098F5883088F548E0949F9001F3
:1016E0001124820F932F911D282F277041E001C0F4
:1016F000440F2A95EAF723E0969587952A95E1F716
:10170000FC01EE0FFF1FE80FF91FE55EFD4F90E0B3
:1017100080E070E05191DF0111979B01082E02C01B
:10172000369527950A94E2F72170219525272423E1
:1017300025272C9301968330910561F70895982F02
:1017400092959F7011F0892F94E0282F2695269569
:1017500011F09E5F822F869509F09F5F892F089573
:101760009C013A9521153F4150F5FC01EE27F1709F
:10177000BC0166277270AC01442754709C0122277B
:10178000387094FF0EC080E1EF2B09F480E0672BE6
:1017900009F08062452B09F08064232B89F0806872
:1017A000089581E0EF2B09F480E0672B09F0826057
:1017B000452B09F08460232B19F08860089580E0A0
:1017C0000895CF93C82F80917E038C1751F00E940B
:1017D000920860937F0370938003809381039093BA
:1017E0008203C0937E03CF910895CF93C82F0E94A8
:1017F0009F0B91E0833009F090E0892F0E94E10B6C
:1018000080914C03823031F410924C038C2F8B7FEB
:1018100009F0C82F8C2FCF910895B0E0A0E0E3E14C
:10182000FCE00C940C35FC01EB01909183039111C9
:1018300001C094E06081718191509B01092E02C02A
:10184000359527950A94E2F7D901092E02C0AA0F0F
:10185000BB1F0A94E2F76A1B7B0B71836083628172
:1018600073818B01092E02C0159507950A94E2F742
:10187000D80102C0AA0FBB1F9A95E2F76A1B7B0B27
:101880007383628381E80138BFEF1B072CF0802F40
:10189000003811050CF08FE78D8321389FEF390751
:1018A00054F1203831054CF5922F91959C834423B7
:1018B00019F081958D832C830E9492082D8121112E
:1018C00003C02C812223D9F0609384037093850395
:1018D0008093860390938703809188039BE0980F01
:1018E000973120F4080F009388031D82CDB7DEB72F
:1018F000E8E00C94283521E8D7CF2FE7D5CFC0906A
:101900008403D0908503E0908603F09087036C19E0
:101910007D098E099F096436710581059105E0F204
:1019200010928803D9CFFC01DB012281338191E839
:1019300021388FEF38072CF0922F203831050CF02A
:101940009FE712969C9312972081318121388FEF67
:101950003807A4F0203831059CF413962C93139784
:10196000442339F0919512969C93129721951396E2
:101970002C931182108213821282089521E8EDCFF8
:101980002FE7EBCF382F20E287FF02C031952DE201
:101990004AE0832F642F0E944535905D9093110299
:1019A00081110BC02093100220E220930F0220E24D
:1019B00020930E028EE092E00895642F0E94453538
:1019C000905D90931002832F64E60E944535882332
:1019D00061F3805D80930F02EBCF9C01860F971F10
:1019E00037FD07C077FD04C097FF02C08FEF9FE768
:1019F000089577FFFDCF97FDFBCF80E090E8089535
:101A0000E82FE295EF70F0E031A1282F2F7081E0F0
:101A100090E001C0880F2A95EAF7382B31A392A1F4
:101A20008095892382A30895E82FE295EF70F0E076
:101A300031A1282F2F7081E090E001C0880F2A95F6
:101A4000EAF7982F9095932391A392A1892B82A3D3
:101A50000895B0E0A0E0EFE2FDE00C940C357C01CD
:101A60006B018091B50601E010E08A3010F40AE0C5
:101A700010E0C1E0D0E06CEB76E0C701F60109951B
:101A8000811104C021960C171D072CF4CDB7DEB7C9
:101A9000E8E00C942835CC9F9001CD9F300D300D9F
:101AA000112490E080E045E34A95F1F700000196AB
:101AB00082179307C1F7DFCF809394067093960641
:101AC000609395068091A5068430F9F48093E9002F
:101AD0008FEF9091E800815095FD06C095ED9A95A5
:101AE000F1F700008111F5CF8091E80085FF0DC06E
:101AF00050E040E063E070E084E996E00E9449072E
:101B00008091E8008E778093E8000895BC0184E01E
:101B10000E945C0D0895BC0183E00E945C0D089555
:101B20009C0184E08093E9009FEF8091E800915050
:101B300085FD06C085ED8A95F1F700009111F5CF7E
:101B40008091E80085FF0CC050E040E066E070E066
:101B5000C9010E9449078091E8008E778093E800D0
:101B60000895CF93DF93EC0181E08093E9008FEF3C
:101B70009091E800815095FD06C095ED9A95F1F79A
:101B800000008111F5CF8091E80085FF14C050E07E
:101B900040E068E070E0CE010E9449078091E800D3
:101BA0008E778093E80088E0FE01ABE9B6E0019013
:101BB0000D928A95E1F7DF91CF91089560918801A8
:101BC0008091740480FF20C08091870143E0849F4E
:101BD000C00111248A569C4F539A2BB1277F3BB1E9
:101BE00038605FB7F894FC01649FE00DF11D11248B
:101BF000BF0168177907D1F45FBF8FE594E00197C3
:101C0000F1F700C0000008958091890190918A0148
:101C100023E0829FF0011124EA56FC4F8917A0F6B9
:101C20001182108212828F5F3396F8CFFC014191AE
:101C3000CF01E8E03BB9000000C047FF2BB9440FDB
:101C4000000000C000C000C02BB900C0EA9591F7A9
:101C5000D0CFE4E7F4E080818E7F8083E3E9F3E096
:101C60008281816082832FEF80E792E02150804063
:101C70009040E1F700C000000E94DE0D08958091C1
:101C80008302811119C082E390E02091E30027FDD7
:101C900010C0EFE3FCE93197F1F700C000000197B5
:101CA000A1F782E0809383020E94F9061092A506B4
:101CB00003C081E08093830281E0909183029130A0
:101CC00011F080E0089508950E943F0E882359F096
:101CD000E0918C06F0918D06309729F00190F0810B
:101CE000E02D0995089580E0089557985F9A879AA6
:101CF0008F9825E02A95F1F7000089B187988F9A8F
:101D000090EA9A95F1F790E0880F892F881F990B38
:101D100021E08227817008950E94750E882371F05A
:101D200080E08093870182E280938801109289018C
:101D300084E480938A0180938B01089582E2F1CF3D
:101D400080917103F90180830E948C0E0895B0E0A8
:101D5000A0E0EDEAFEE00C940C356C017B0164E63A
:101D600070E088E70E944C32EC0197FD12C010E051
:101D700000E0F601E00FF11F849164E670E00E943C
:101D8000B832EC01892B29F40F5F1F4F0E151F0588
:101D900081F70E942E33CE01CDB7DEB7E8E00C9478
:101DA0002835CF93C0918806809189068823D1F089
:101DB0000E949208605A75418F4F9F4F609384062E
:101DC000709385068093860690938706C11108C09C
:101DD00062E070E08AE499E00E94A70E892B29F066
:101DE000C09188068C2FCF91089581E0809388065A
:101DF000F7CFCF93DF93C7E2D3E060E0CE010E943C
:101E0000C9352196C11584E0D807B9F7DF91CF9184
:101E100008951F93CF93DF93122F8430E0F46C303A
:101E2000D0F44830C0F490E1699FE001112450E003
:101E3000440F551FC40FD51F90EC899FC00DD11DB5
:101E40001124632FCE0187960E94C935612FCE01E0
:101E500088960E94C935DF91CF911F910895AF9266
:101E6000BF92CF92DF92EF92FF921F93CF93DF93B7
:101E70008CE4C82E89E0D82ED0E07601C0E014C0F2
:101E8000F50125913491412F6C2F8D2F0E94090F60
:101E900082E0A80EB11C1F5F183091F780E1E80EB8
:101EA000F11CCF5FCC3019F0570110E0E9CFDF5FB4
:101EB00080ECC80ED11CD43001F7DF91CF911F9177
:101EC000FF90EF90DF90CF90BF90AF90089586E2A3
:101ED00090E00E94C9350895CF93C82F6FEF81110C
:101EE00063E283E290E00E94C9356FEFC11164E0C4
:101EF00084E290E00E94C9356FEFC11169E285E28A
:101F000090E00E94C935CF91089580E00E946C0F47
:101F100060E070E0CB010E94670F0E942F0F0E94CB
:101F2000F90E81E00E946C0F08950F931F93CF93D9
:101F3000DF93843030F56C3020F5483010F520E127
:101F4000629F8001112450E0440F551F040F151F9C
:101F500030EC839F000D111D1124C80187960E944B
:101F6000B535C82FD0E0DC2FCC27C80188960E9459
:101F7000B5359E01282BC901DF91CF911F910F919B
:101F8000089590E080E0F8CF462F843040F47C3014
:101F900030F4683020F4672F0E94950F089590E088
:101FA00080E00895CF92DF92FF920F931F93CF931B
:101FB000DF936C010091AF0680918202082BC7E08D
:101FC000D0E010E0FC2EC8010C2E02C0959587953C
:101FD0000A94E2F780FD0CC02197A0F7F12C8F2D19
:101FE000DF91CF911F910F91FF90DF90CF900895D7
:101FF000B6018C2F0E94C40F0E949B09019761F3C8
:10200000EECFCF93DF93EC010E94D20FBE010E946E
:10201000C40F0E949B09DF91CF910895FC01838139
:102020009481892B29F08081918189238F3F51F4FC
:1020300080E00895843FE1F717C0883EA8F0813F13
:10204000B9F712C0808191810E94011092959F7012
:10205000963099F358F4925F9F70923048F7803F22
:1020600019F040F7883E20F781E008959A5FF4CF99
:1020700086E290E00E94B535682F70E090E080E045
:10208000089583E290E00E94B535833289F484E2BA
:1020900090E00E94B535843059F485E290E00E94CA
:1020A000B53591E0893209F090E0892F817008956B
:1020B00080E0FCCF8091980690918002892B8093DC
:1020C000FC0190918102992391F0892B8093FC016E
:1020D00020E08EEF91E0FC013191CF0131112F5FB3
:1020E000F2E084309F07B9F721110E941E0B48E0EF
:1020F00050E068E772E08CEF91E00E949F35892BF9
:10210000A9F088E0ECEFF1E0A8E7B2E001900D92D1
:102110008A95E1F7E0918C06F0918D06309731F0C9
:102120000280F381E02D8CEF91E00995089590E015
:1021300080E00E94CE0890E080E00E94B8081092F3
:1021400080020E945A1008950E94F50B8093AF06FA
:102150000E94971008958091AF06982F9670963040
:1021600021F488600E94A4100895877FFBCF21E0AE
:1021700030E001C0220F8A95EAF720958091AF06E2
:1021800082230E94A410089590917702809589235C
:1021900080937702282F277091F4282F082E000CA7
:1021A000330B9217130659F09091FB0292FF07C070
:1021B0008595859585950E94B710109277020895B0
:1021C000CF93C091FB02C2FB992790F9981791F029
:1021D00080FBC2F9C093FB026091FA0284E090E0B8
:1021E0000E94C9356C2F82E290E00E94C93582E0DE
:1021F0000E94C410CF91089521E030E001C0220F69
:102200008A95EAF78091AF06822B0E94A410089568
:10221000809382020E9497100895882341F0809550
:10222000909180028923809380020E945A10089521
:10223000882339F090918002982B909380020E941D
:102240005A100895882321F00E94240B0E945A10EE
:102250000895882339F090919806982B90939806CA
:102260000E945A100895882391F19CEF980F913A9B
:1022700080F4EEEFF1E024E032E09191891303C0A5
:10228000DF0111971C922E173F07B9F70E945A10D1
:10229000089590E2980F983050F4877091E001C053
:1022A000990F8A95EAF7892F0E94240BEFCF9BE5BF
:1022B000980F933028F490E080E00E94CE080895B3
:1022C000885A873120F490E080E00E94B808089591
:1022D000CF93C82F8823B1F08CEF8C0F813A00F593
:1022E000EEEFF1E084E092E0DF012D91C21761F0A2
:1022F0008A179B07D1F76C2F8CEF91E00E949E0804
:102300000E945A10CF9108952191C21303C0DF019A
:1023100011971C928E179F07B9F70E945A10EBCFA6
:1023200080E28C0F883068F4C77021E030E001C093
:10233000220FCA95EAF780919806822B809398061F
:10234000DFCFEBE5EC0FE33040F4F0E0E257FE4F77
:10235000808190E00E94CE08D5CFC85AC73190F650
:10236000EC2FF0E0EE0FFF1FEF56FE4F80819181C2
:102370000E94B808C7CF1F93CF93DF93182FEB01AC
:102380000E9468118FE99FE00197F1F700C00000FB
:102390002197C1F7812F0E943311DF91CF911F91B7
:1023A00008951F93CF93DF93162F8A3039F481E07D
:1023B0000E948F12DF91CF911F9108958D3011F4FB
:1023C00080E0F6CFC0918206D091830696E0FE01B0
:1023D000ACE7B6E001900D929A95E1F7803E90F15E
:1023E00086E0FE0111928A95E9F7C0918206D091AC
:1023F0008306111133C046E050E0BE018CE796E041
:102400000E949F359E012C573440892B91F52A5FFD
:102410003F4F40917904642F70E0C9010E94EE346F
:10242000481B463010F4240F311D211572E0370788
:1024300010F030E020E024583B4F30938306209387
:102440008206B8CFF6E08F9FB0011124665F7B4F04
:1024500046E050E0CE010E949635C7CF9E012A5F2C
:102460003F4FFE012E173F0731F280818095819307
:10247000F9CFC90145E0969587954A95E1F741E086
:1024800050E0BA0102C0660F771F8A95E2F7CB01D0
:1024900060917A0470917B04862B972BB9016B5F56
:1024A0007F4FE5E076956795EA95E1F702C0440F26
:1024B000551F6A95E2F7842B952B90937B048093AC
:1024C0007A04A5CF1F93CF93DF93EC01162FFE0163
:1024D0008491811104C0DF91CF911F910895612FE4
:1024E0000E94D1112196F3CFFF920F931F93CF93A8
:1024F000DF93EC01F62EFC0101900020E9F78F013B
:1025000001501109C017D10728F0CDB7DEB7E5E0BB
:102510000C942B356F2D89910E94D111F3CFCF935D
:10252000382FE0918206F0918306EC57F440209119
:102530007904622F70E0CF010E94EE34281B822FB5
:10254000332369F066E00E943935C82FC15010F47A
:10255000CF91089560E080E20E94D111F7CF9F01F2
:10256000280F311D2115324018F080E0F0E0E0E046
:102570008E0F9F2F911D84589B4F909383068093BD
:102580008206E6CFEEEFF1E086E0DF011D928A954C
:10259000E9F70E9497100895AAE2B0E0E2EDF2E1B7
:1025A0000C94113587EA96E02091F100DC012D931F
:1025B000CD01B6E08F3A9B07B9F78091A80683302A
:1025C00009F472C0B8F4813009F449C0823009F4CA
:1025D000B5C08091E80083FF8DC28091A7069091DD
:1025E000A8069A3008F086C2E92FF0E0E150FA4CD4
:1025F0000C9489358A3009F490C08B3009F471C08D
:10260000893039F78091A706813219F78091AB069E
:102610009091AC06009711F00297D9F68091E800EE
:10262000877F8093E8008091E80082FF38C0909116
:10263000F3008091F200029731F48091F100813033
:1026400011F0863021F48091F10080939A068091F8
:10265000E8008B778093E8000E947307BACF8091DF
:10266000A706813A09F0B5CF8091E800877F809373
:10267000E8008091AB069091AC06892B61F468E08C
:102680008BE996E070E00E941F088091E8008B774C
:102690008093E8009ECF60E090E080E0F3CF8091EF
:1026A000A5068111C0CF95CF8091A706813A09F088
:1026B00090CF8091AB069091AC06892B09F089CF21
:1026C0008091E800877F8093E8008091E80080FF98
:1026D000FCCF809186018093F1008091E8008E7795
:1026E000B9CF8091A706813209F073CF8091AB06F4
:1026F0009091AC06892B09F06CCF8091E800877F20
:102700008093E8000E9473078091A9068093860158
:10271000109298060E94C2125CCF8091A706813267
:1027200009F057CF8091E800877F8093E8000E94EE
:1027300073078091AA06809399064BCF8091A706D4
:10274000813A09F046CF8091E800877F8093E800C6
:102750008091E80080FFFCCF80919906BCCF803843
:1027600099F0823809F0C6C18091AB068F7087302E
:1027700008F0C0C18093E9008091EB0085FB8827B9
:1027800080F91092E90006C08091A3069091A406FA
:10279000911182609091E800977F9093E800809378
:1027A000F1001092F1008091E8008E779FC188239C
:1027B00009F48DC1823009F09DC18091A906811173
:1027C00090C18091AB068F702FEF280F263008F054
:1027D00091C18093E9002091EB0020FF82C19330EA
:1027E00031F48091EB0080628093EB007AC190918C
:1027F000EB0090619093EB0021E030E001C0220FEC
:102800008A95EAF72093EA001092EA008091EB00A3
:102810008860EACF81116EC11091A9061F7780915F
:10282000E3008078812B8093E3008091E800877F2C
:102830008093E8000E9473078091E80080FFFCCF3E
:102840008091E30080688093E30082E0111183E0CF
:102850008093A5064FC18058823008F04BC120916B
:10286000A9063091AA062C3DE3E03E07A1F583E0DE
:102870008A838AE289834FB7F894DE01139620E0B9
:102880003EE051E2E32FF0E050935700E49120FF47
:1028900003C0E295EF703F5FEF708E2F90E0EA305B
:1028A000C0F0C7968D939D932F5F243159F74FBF8A
:1028B0008091E800877F8093E8006AE270E0CE01B3
:1028C00001960E941F088091E8008B778093E800B2
:1028D00011C1C096E7CF8091AB069091AC06432F13
:1028E00055274330510509F44AC078F54130510568
:1028F00009F47AC08BE590E0ECE4FCE0423051054D
:1029000009F0F8C02091E800277F2093E80020918B
:10291000AD063091AE068217930708F49C0140E0A3
:102920002115310509F065C0411163C08091E800AF
:1029300082FDC9CF8091A506882329F2853019F23E
:102940008091E80083FFF2CFBECF4132510509F4F8
:102950003CC04232510509F0CDC08330910508F0EA
:10296000C9C0FC01EE0FFF1FE251FE4F0190F08144
:10297000E02D85519E4FDC018C9190E01AC03327E9
:1029800021303105D1F02115310561F022303105BA
:1029900009F0B0C0E9EBFCE0E4918E2F90E0E9EBA8
:1029A000FCE007C0E1EEFCE0E4918E2F90E0E1EE68
:1029B000FCE0009709F49EC0A5CFE9ECFCE0E491AF
:1029C0008E2F90E0E9ECFCE0F4CF8330910508F025
:1029D00091C0880F991FFC01EC50FE4F0190F081CF
:1029E000E02D89E090E08ECF82E190E0E7EAFCE024
:1029F00089CF8091A506882309F465CF853009F435
:102A000062CF8091E80083FD5ECF8091E80082FD77
:102A10008DCF8091E80080FF83CF9091F30080916B
:102A2000F2002115310519F08830910550F041E090
:102A3000089709F040E08091E8008E778093E800E5
:102A40006FCF44914093F1003196215031090196A6
:102A5000E8CF803809F04EC08091E800877F8093EE
:102A6000E8008091A6068093F1009DCE811142C0BE
:102A70001091A9061230F0F58091E800877F8093CD
:102A8000E8001093A6060E947307112311F084E05A
:102A900005C08091E30087FDFACF81E08093A50611
:102AA00042E061EC81E00E94920742E261EC84E046
:102AB0000E94920742E261EC82E00E94920742E2A9
:102AC00060EC83E00E9492078091A50613C080917C
:102AD000A906813079F481E0933009F080E0809399
:102AE000A4061092E9008091E800877F8093E800B7
:102AF0000E9473078091E80083FF0AC08091E8007C
:102B0000877F8093E8008091EB0080628093EB00E8
:102B1000AA96E3E00C942D35109298060E94C212FA
:102B20002FEF84E39CE0215080409040E1F700C00B
:102B3000000088E19AE00FB6F894A89580936000B1
:102B40000FBE90936000FFCFCF92DF92EF92FF9283
:102B50006B017C010E940009B701A60188E090E0AA
:102B60000E94DB35FF90EF90DF90CF900895B0E0AA
:102B7000A0E0EDEBF5E10C940835182FC62FD42F0B
:102B8000822E0091740400FF4CC0E02FE695F0E027
:102B9000E751FE4F808180939303802F8E7F823098
:102BA000E9F4E42F493708F0E8E7F0E0E65FFC4F8E
:102BB000C1113CC02491F22FE22F00FF0FC0809181
:102BC000890190918A0133E0839FD0011124AA5694
:102BD000BC4F891708F49FC00E94DE0D80917504D8
:102BE000811308C0809176048C1304C0809177040F
:102BF0008D1729F08091950382608093950310933F
:102C00007504C0937604D0937704882051F06091C6
:102C100074047091750480917604909177040E94F9
:102C2000A415CDB7DEB7ECE00C942435EC2EF12CD6
:102C3000E4919E2ECE2ED12C26E0129FC0011124AD
:102C40002FEF30E0B9010E94EE34812F90E0880F21
:102C5000991FF5E5F69FA001F79F500D1124841BE5
:102C6000950BB82EBB0CB80EA9014E195F094C9DEF
:102C7000C0014D9D900D5C9D900D1124F92FCB9DB1
:102C8000A0011124452F5527D901A41BB50BAC9DDC
:102C9000A001AD9D500DBC9D500D1124D901AB1963
:102CA000B1095D01AE9CD001AF9CB00DBE9CB00DD2
:102CB0001124AB2FBB272A1B3B0B2C9DD0012D9D34
:102CC000B00D3C9DB00D11242B2F62307105A1F089
:102CD00050F46115710509F470CF6130710581F010
:102CE000292FF52F6ACF6430710569F080F06630C6
:102CF000710509F462CFF4CF2E2FE92FFB2F5DCFA2
:102D00002E2FE52F5ACF292FFE2FEB2F56CFE92F4D
:102D1000F92D252F52CF1196EC9311972C931296E3
:102D2000FC9312978F5F139654CFE4E7F4E043814E
:102D30002CE0421B08F440E021E0628181810E9486
:102D4000B7150895E4E7F4E043812CE0420F08F45E
:102D50004FEF21E0628181810E94B7150895E4E779
:102D6000F4E0628121E1621B08F460E021E043812C
:102D700081810E94B7150895E4E7F4E0628121E1C2
:102D8000620F08F46FEF21E0438181810E94B71543
:102D90000895E4E7F4E0818121E04381628181517B
:102DA0000E94B7150895E4E7F4E0818121E04381B2
:102DB00062818F5E0E94B715089580917804882300
:102DC00019F08150809378046091740470917504B7
:102DD00080917604909177040E94A41508958091C3
:102DE0007804833018F48F5F8093780460917404C2
:102DF0007091750480917604909177040E94A415D7
:102E000008958091740480FF1EC081708260809359
:102E1000740480919503816080939503662351F03B
:102E20006091740470917504809176049091770498
:102E30000E94A41520E0409177046091760480916F
:102E400075040E94B7150895809174048695815089
:102E500009F481E061E00E940117089561E081E0DA
:102E60000E9401170895E4E7F4E083E08083118273
:102E70008FEF828388E783831482A3E9B3E01296FD
:102E80008C911297836012968C93608171818281FC
:102E900093810E94A415089568EE7EEF90E080E093
:102EA0000E94E73560E082E090E00E94C93560E072
:102EB00083E090E00E94C9351092820260E084E0D5
:102EC00090E00E94C93564E082E290E00E94C9353A
:102ED00060E085E090E00E94C93560E086E090E027
:102EE0000E94C9356FEF87E090E00E94C93540E04D
:102EF00050E0BA0188E090E00E94DB3560E08DE0B0
:102F000090E00E94C93540E050E0BA0188E190E0CD
:102F10000E94DB3560E087E190E00E94C93540E027
:102F200050E0BA018CE190E00E94DB3570E060E097
:102F300080E290E00E94E73540E050E0BA0188E18D
:102F400090E00E94DB3580E00E946C0F0E94850FAC
:102F500040E050E0BA018FE090E00E94DB35E2E40F
:102F6000F3E015821682178281E0808382E390E08D
:102F7000928381838AE090E09483838340815181AE
:102F80006281738183E190E00E94DB350895B0E0B7
:102F9000A0E0EDECF7E10C940D357901C82F880F16
:102FA000DD0B41155105A9F0FE0193E0EE0FFF1F67
:102FB0009A95E1F7E55FFE4F818192818C579D4F95
:102FC000208130E04217530708F49A01A9010E94BA
:102FD000AC35CE010E947834D82E8823D1F001156B
:102FE0001105B9F083E0CC0FDD1F8A95E1F7FE01F2
:102FF000E55FFE4F438150E00417150708F4A80170
:10300000C55FDE4F6C817D816C577D4FC7010E948B
:10301000AC358D2DCDB7DEB7E7E00C942935A5E0B2
:10302000B0E0E5E1F8E10C940A358D83E62E5A0113
:10303000F22E68018091B5068A3028F080E025964E
:10304000EAE00C9426358D818A30C4F31A82198205
:103050008A836B832C8363E070E0CE0102960E942A
:10306000E4088983E0924301F092560110E000E009
:1030700030E020E044E050E0BE016F5F7F4F86E02B
:103080000E94C7178823D1F24E2D50E030E020E097
:10309000B50187E00E94C717882381F230E020E065
:1030A00041E050E0BE016B5F7F4F88E00E94C71790
:1030B000882321F20F2D10E0960150E040E070E0EF
:1030C00060E089E00E94C717BACFA8E0B0E0EBE665
:1030D000F8E10C94103585E0E4E7F4E0DE011196A8
:1030E00001900D928A95E1F780919303909194035A
:1030F000A09195038E839F83A88728854091F00235
:103100005091F1026091F2027091F3023FB7F8948E
:103110008091900690919106A0919206B0919306AD
:103120003FBF841B950BA60BB70B84369105A105F9
:10313000B10510F42223C1F010E000E030E020E0FF
:1031400048E050E0BE016F5F7F4F85E00E94C717E7
:10315000882369F00E9492086093F0027093F10254
:103160008093F2029093F3021092950381E02896E7
:10317000E4E00C942C35A4E0B0E0E1ECF8E10C9430
:1031800010354091EC025091ED026091EE02709189
:10319000EF022FB7F8948091900690919106A0913C
:1031A0009206B09193062FBF841B950BA60BB70B0D
:1031B00011E084369105A105B10538F10E943F0E5A
:1031C000882341F10E9492086E5F7F4F8F4F9F4F7F
:1031D00069837A838B839C8310E000E030E020E0F9
:1031E00044E050E0BE016F5F7F4F84E00E94C7174C
:1031F000182F882351F00E9492086093EC0270937C
:10320000ED028093EE029093EF02812F2496E4E08A
:103210000C942C350E9492080091F4021091F50252
:103220002091F6023091F702600F711F821F931FE9
:10323000CBCFA1E0B0E0EFE1F9E10C940735762EB9
:103240004A015901680101E010E09E012F5F3F4FE4
:1032500050E040E070E060E00E94C717182F88231C
:1032600009F440C0F40140815181628173812FB71C
:10327000F8948091900690919106A0919206B09159
:1032800093062FBF841B950BA60BB70B84369105B5
:10329000A105B10538F4B701C6010E94E40899817F
:1032A000891701F18701950150E040E070E060E08E
:1032B000872D0E94C717B82EB701C6010E94E408E7
:1032C00011E09981981310E01B2139F00E949208B7
:1032D000F4016083718382839383812F2196EDE0D3
:1032E0000C942335A701B601C5010E94AC35F5CF7A
:1032F000A6E0B0E0EEE7F9E10C940C356B0186E056
:10330000E82EF12C05E812E09E012F5F3F4F44EEBE
:1033100052E061E080E00E941919882349F096E0AC
:10332000FE013196AEEDB2E001900D929A95E1F773
:1033300096E0EEEDF2E0D60101900D929A95E1F75C
:103340002696E8E00C9428350E94750E80930A01B9
:1033500080910A01882359F01092870185E28093B9
:1033600088010E943F0E81110E948C33089585E2EE
:1033700080938701F4CF90E080E00E94C335883EBF
:103380009E4F19F40E944110089580E0089528E0AE
:1033900030E043E060E086E30E9474310895ACE0E1
:1033A000B0E0E5EDF9E10C940C354F83588769875F
:1033B0007A878B879C8780917103882399F00E947C
:1033C000C71980E50E94EC318AEB8A95F1F700C0BD
:1033D0000E940432887899278038910509F487C0C3
:1033E0000E941C320E943F0E882309F46BC00E9489
:1033F000920800911302109114022091150230914D
:1034000016026B017C01C01AD10AE20AF30A970185
:103410008601083011052105310508F453C0609379
:103420001302709314028093150290931602009178
:103430007F03109180032091810330918203601BF0
:10344000710B820B930B623371058105910580F43A
:103450001092750310927403109277031092760302
:10346000109279031092780310927B0310927A03E2
:1034700010917E030E94750E482FBE01695F7F4F39
:1034800084E793E0112309F45FC00E940D0C0091C2
:103490007E03109171030E94750E41E04827BE0122
:1034A000695F7F4F88E793E0011709F450C00E94DD
:1034B0000D0C86E0FE013796ADE8B3E001900D9269
:1034C0008A95E1F786E0FE013796DE0111960190BC
:1034D0000D928A95E1F729813A814B815C816D815A
:1034E0007E8180E090E02C96E8E00C9428350E94E4
:1034F00004320E9404327C010E94043220E0E22A5D
:10350000F82A0E9404328C010E94043220E0022B2F
:10351000182B0E941C32F894B7018091740390918B
:1035200075030E94ED0C9093750380937403B801AA
:1035300080917603909177030E94ED0C909377032E
:103540008093760378944ECF0E94930CA0CF0E9474
:10355000930CAFCFCF93DF93D82FC62F0E94C719FC
:103560008D2F80680E94EC318C2F0E94EC310E94DC
:103570001C328FEC92E00197F1F700C00000DF9160
:10358000CF910895682F893708F068E760937C032E
:1035900091E090937D0390917103992359F06150CC
:1035A000811101C064E08FE00E94AA1A60E080E50A
:1035B0000E94AA1A0895FB0180810E94C21A0895F0
:1035C00090917C03911101C095E0282F880F330B57
:1035D000A901490F511DCA011816190614F081E0FE
:1035E00090E00E94C21A0895CF93C82F0E94C71975
:1035F0008C2F0E94EC318FE792E00197F1F700C029
:1036000000000E940432C82F0E941C329AE69A954C
:10361000F1F700C08C2FCF910895CF93DF930E94D4
:10362000750E811142C00E946C31269A0E94C71902
:103630006AE58AE30E94AA1A2FEF80E792E0215000
:1036400080409040E1F700C0000082E00E94F41A40
:1036500083E00E94F41A84E00E94F41A85E00E943C
:10366000F41A86E00E94F41A60E080E10E94AA1A2F
:1036700080E00E94F41AD82F81E00E94F41AC82F2B
:103680000E941C32D23419F481E0C13009F080E08C
:10369000817080937103882341F064E08FE00E9481
:1036A000AA1A60E080E50E94AA1ADF91CF910895DE
:1036B0001F920F920FB60F9211242F933F934F93A7
:1036C0005F936F937F938F939F93AF93BF93CF93AA
:1036D000DF93EF93FF93D091E900DF708091EC00CE
:1036E000C82FC17080FDC0E81092E9008091F00001
:1036F000877F8093F00078940E94CC121092E900AA
:103700008091F00088608093F000CD2BCF70C09343
:10371000E900FF91EF91DF91CF91BF91AF919F9120
:103720008F917F916F915F914F913F912F910F906A
:103730000FBE0F901F9018951F920F920FB60F9209
:1037400011242F933F934F935F936F937F938F93A6
:103750009F93AF93BF93EF93FF938091E10082FF1C
:1037600009C08091E20082FF05C08091E1008B7F5B
:103770008093E1008091DA0080FF24C08091D8001E
:1037800080FF20C08091DA008E7F8093DA008091E4
:10379000D90080FF9DC080E189BD82E189BD09B467
:1037A00000FEFDCF81E08093A506809197068111F0
:1037B00009C00E94F9060E94C4078091E20084605B
:1037C0008093E2008091E10080FF17C08091E200C9
:1037D00080FF13C08091E2008E7F8093E200809191
:1037E000E20080618093E2008091D8008062809343
:1037F000D80019BC85E08093A5068091E10084FF84
:103800002BC08091E20084FF27C080E189BD82E166
:1038100089BD89B5982F917080FFFBCF8091D8002A
:103820008F7D8093D8008091E1008F7E8093E100AE
:103830008091E2008F7E8093E2008091E2008160BF
:103840008093E2008091A606882309F447C084E0B3
:103850008093A5068091A5068091E10083FF27C093
:103860008091E20083FF23C08091E100877F8093F5
:10387000E10082E08093A5061092A6068091E10007
:103880008E7F8093E1008091E2008E7F8093E20042
:103890008091E20080618093E20042E060E080E09D
:1038A0000E9492078091F00088608093F000FF9161
:1038B000EF91BF91AF919F918F917F916F915F91A8
:1038C0004F913F912F910F900FBE0F901F90189521
:1038D00019BC1092A5061092970674CF8091E30050
:1038E00087FD93E09093A506B5CF78941F921FB6FD
:1038F0001F9211248F939F93AF93BF938091900653
:1039000090919106A0919206B09193060196A11D07
:10391000B11D8093900690939106A0939206B09368
:103920009306BF91AF919F918F911F901FBE1F90E3
:1039300018959C014FB7F89480919006909191064C
:10394000A0919206B09193064FBF821B930B0895EE
:103950002FB7F8948091900690919106A0919206CD
:10396000B09193062FBF0895CF92DF92EF92FF920E
:103970001F93CF93DF9390911902911121C08091F1
:10398000170290911802892B31F40E94A81C909381
:1039900018028093170280911702909118020E94DA
:1039A000991C893E934018F081E08093190281E0D0
:1039B000DF91CF911F91FF90EF90DF90CF9008950E
:1039C000813009F44BC0882309F442C0823009F4E5
:1039D0004BC0833009F44AC08D2F9C2F0E94D20F18
:1039E0006D2F7C2F0E94C40FEC0195E0E92EF12C85
:1039F000C933D10519F480E5E82EF12C6E0180EE73
:103A0000C81AD108CE010E94B00B182F98E0C91631
:103A1000D10410F0209761F50E9429118C2F0E948B
:103A200068118FE99FE00197F1F700C0000091E075
:103A3000E91AF108B1F78C2F0E943311812F28E089
:103A4000C216D10410F0CD2BB1F40E942211AFCFD9
:103A5000C5E0D2E06111C0CFD3E0BECFC5E0D0E079
:103A60006111BACFD1E0B8CFCBE0F3CFCBE0F7CF45
:103A70000E941811D3CF0E940D1199CFA2E0B0E09F
:103A8000E4E4FDE10C940B3582E0E82EF12C0CE827
:103A900012E09E012F5F3F4F48EE52E063E082E06C
:103AA0000E941919C82E882339F100E080E01DC05A
:103AB000D090FE02D00E2D2D30E0A901425F5C4F68
:103AC0007A01E1E0F0E0EC0FFD1FE00FF11D108145
:103AD000FA019081191BB12E1B149CF0912F17FD38
:103AE00090E0191B111118C00F5F9091FD0209178A
:103AF000F8F281110E941B0B8C2D2296E9E00C94A8
:103B00002735BA94F70180818F5F808360E08D2D27
:103B10000E94B41C8C2DE0CF1F5FF7018081815083
:103B2000808361E08D2D0E94B41C8C2DDBCF82E060
:103B30000E94FC100E94A81C90934B0380934A03A0
:103B400082E080934C030895A2E1B0E0EAEAFDE14F
:103B50000C9403358C01DC0113968D919C91149784
:103B6000892B39F08C9111969C9189238F3F09F014
:103B7000D4C56296E1E10C941F350E94D20FF82E55
:103B8000682F89819A810E94690B69817A818F2DC2
:103B90000E94C40F7C01F8018281882309F4AFC51B
:103BA000C70182519F45409708F051C58FEF93E0C0
:103BB0000E94B535811128C0FEEEEF0E57E2852E2A
:103BC00053E0952EE11032C01C821B8244244394A2
:103BD0004AE0342E74018FEFE81AF80AC4010E94FB
:103BE000B53589831A82882379F09FEF980F933037
:103BF00058F58A83498292E0890E911CC7010E9480
:103C0000B5358B83811121C080917702877009F4CB
:103C1000B0CFF8018281882309F4ABCF8091FB02F9
:103C200082FFA7CF82E00E94C410A3CF811424E0BA
:103C3000920651F3C4010E94B535811101C0EA9486
:103C40003FEF831A930ABECF4701DE0111967D0133
:103C5000F7012081222309F4BDCF213009F06DC086
:103C600091818281913061F4F2E0EF0EF11C65E008
:103C700070E0893311F460E570E00E94BB1107C069
:103C8000923039F522E0E20EF11C0E946811FFEF3C
:103C9000EF1AFF0A8FE99FE00197F1F700C00000DB
:103CA000AFE9BFE01197F1F700C00000EFE9FFE0D6
:103CB0003197F1F700C000008FE99FE00197F1F71D
:103CC00000C00000AFE9BFE01197F1F700C00000AD
:103CD000BFCF933031F432E0E30EF11C0E94331178
:103CE000D6CF943021F08FEFE81AF80AD0CF92E0C7
:103CF000E90EF11C30E020E0B7016F5F7F4FD70184
:103D000011964C918053990B8A30910558F02150AF
:103D1000310908F4BCCFEFE9FFE03197F1F700C0BB
:103D20000000F5CF329EF001339EF00D11249C016E
:103D30002E0F3F1F842F7B01DFCFE22FF0E0E754EF
:103D4000FE4F5490822F86958695869590E0FC01D3
:103D5000E755FE4F64902770712C022E02C07594B7
:103D600067940A94E2F731E063227724FC01E75676
:103D7000FE4FA490B12C022E02C0B594A7940A94D1
:103D8000E2F7A1E0AA22BB24FC01E757FE4FC49052
:103D9000D12C02C0D594C7942A95E2F7B1E0CB228A
:103DA000DD246114710419F081EE0E946811A114E0
:103DB000B10419F086EE0E946811E9E365E070E055
:103DC0005E1202C060E570E0852D0E94BB11A11457
:103DD000B10419F086EE0E9433116114710419F0D8
:103DE00081EE0E943311C114D10409F450CF65E073
:103DF00070E08CE242CF81E00E94FC100E94AB1088
:103E000003CF81E00E94B710F9CF82E0F5CFAEEB8F
:103E1000EA16ADE5FA0609F446C0BFEBEB16BDE5C0
:103E2000FB0609F040C4882309F4EECE80914503D7
:103E3000909146030197181619060CF440C081E0D2
:103E400090E03DC0882309F4DFCE8091420391E0E9
:103E5000892780934203409142035091430360912C
:103E600044037091450383E190E00E94DB35CCCEA2
:103E7000882309F4C9CE80914303909144030596A9
:103E80009093440380934303E6CF882309F4BCCE88
:103E9000809143039091440305978530910584F701
:103EA00085E090E0EDCF882309F4AECE8091450304
:103EB000909146030196883EE3E09E072CF4909390
:103EC000460380934503C7CF87EE93E0F8CFF70111
:103ED000FAC3E45FF10921E030E001C0220FEA9566
:103EE000EAF796E0E3E5F3E0DE01179601900D9224
:103EF0009A95E1F796E0FE013796DE011D96019056
:103F00000D929A95E1F79885882389F1292B2E87C0
:103F100086E0FE013D96DE01119601900D928A9594
:103F2000E1F786E0FE013196A3E5B3E001900D9242
:103F30008A95E1F7F8018281F6E1EF16FCE5FF06CC
:103F400009F067C0882309F44FC0809198068A7AE7
:103F500091E009F490E090931A0269E2811165E31F
:103F60008CEF91E00E949E080E945A104DCE209541
:103F70002923CDCF80E00E94C21A1092830344CE41
:103F800040917C035091830350FB47F95695537041
:103F900060E070E08FE090E068CF81E00E94E01A7E
:103FA00033CE8FEFFBCF8AE0F9CF86EFF7CF90913A
:103FB0007E0381E089270E94E10B26CE8091830356
:103FC000811101C084E08F5F18160CF081E0883009
:103FD00008F087E08093830317CE809183038111DB
:103FE00001C084E08150F0CF80911A0281110FC08E
:103FF00089E2EEEFF1E024E032E09191891303C011
:10400000DF0111971C922E173F07B9F7ADCF85E35B
:10401000F0CF8111F3C080919806827229ECE216EC
:104020002CE5F20609F4E2C008F079C095ECE91637
:104030009CE5F90609F4D5C008F058C0B3ECEB16BE
:10404000BCE5FB0609F4C1C008F0C6C0F2ECEF16EF
:10405000FCE5FF0609F48FC0D80112968C911297E7
:10406000ED90FC90882309F407C1C7010E94D20F8C
:10407000D82E682FC7010E94690BB7018D2D0E94B1
:10408000C40F0E949B097C01882EF801D280B58064
:10409000B2943FE0B322809177028770C1F0AD2CDB
:1040A000DD20B1F08F2D807F803421F080E28E0DF5
:1040B000883068F08091FB0282FF09C082E00E9494
:1040C000C410809177028770AA24A3948111A12C37
:1040D0009F2C92942FE09222FBE0F91508F43EC148
:1040E000E92DF0E0E75FF94C0C9489354FEA56E191
:1040F0006CEB76E127ECE2162CE5F20609F469C0D8
:1041000043ED56E169EC76E138ECE3163CE5F30665
:1041100008F45FC04CEB56E16FEA76E15AC09DECC3
:10412000E9169CE5F90609F466C0C8F44DED56E1C0
:104130006FEE76E1BBECEB16BCE5FB0609F449C07B
:1041400042EA56E165E976E1ECECEE16ECE5FE06B6
:1041500008F43FC04FEE56E16DED76E13AC0F6ED62
:10416000EF16FCE5FF0608F44FCD2DE5E216F2064A
:1041700009F44ACD71CF8091740480FF1EC08E7FF8
:104180008093740460917404709175048091760436
:10419000909177040E94A41580919503816080938B
:1041A00095033FEF80E792E0315080409040E1F787
:1041B00000C000000E94DE0D27CD81608093740452
:1041C00061E086950E9401171FCD44E257E16EE23F
:1041D00077E10E94FA0818CD4EE257E164E277E1F8
:1041E000F8CF49EC56E163ED76E1F3CF45E956E1CE
:1041F00062EA76E1EECF61E081E0E4CFAAE5EA167B
:10420000ADE5FA06A9F168F4E114ECE5FE06B9F0B3
:10421000FEEDEF16FCE5FF0609F01ECF0E944C17DD
:104220000CC02CE5E2162DE5F206C1F018F187EA84
:10423000E8168DE5F80609F00FCF0E948C15109254
:1042400098060E94C2129FEFA4E3BCE09150A040E8
:10425000B040E1F700C000000E9481088091FB029D
:1042600082FB882780F991E089270E94E010F4CE34
:1042700081E0FBCF80E0F9CFC7010E94350BD82E3B
:10428000FCCE2F2D2F70C22E8F2D807F19F0C2945F
:1042900090EFC922DD20B9F0CC2069F080E28E0DCC
:1042A000883010F0811009C080919806C82AC09209
:1042B00098060E945A108E2D4FC080918002C82A05
:1042C000C0928002F6CF8E2D0E943311CC2009F4CB
:1042D00045C080E28E0D883010F0811004C08C2D16
:1042E0000E94240B06C0C09480918002C822C09214
:1042F00080020E945A1032C03F2D3F70C32E8F2D76
:10430000807F803219F0C29480EFC8228820A1F00B
:1043100081E0881609F46AC0DD2009F474C0BB206E
:1043200009F46AC0D80115968C91159780FFC3CF08
:104330008F7015968C9360C02091FB0222FD34C0D3
:10434000DD2061F1CC2039F080919806C82AC09216
:1043500098060E945A1080E00E946811A92DA8506A
:10436000BB0B149710F40E94640EAA2009F401CC30
:104370008091770280FDFDCBF801128285958595AD
:1043800085950E94FC10C8010E94A41D80917702AF
:104390008595859585950E94B710EBCB80E00E94AE
:1043A0003311CC20D9F29BCFDD2099F0909181027E
:1043B0008C2D892BB11003C00E942911CFCFA1E011
:1043C000BA12FACF22FFCACF891741F28093810235
:1043D000C5CFB11006C00E941E0B8C2D0E94221169
:1043E000BDCFB1E0BB1609F4B9CFF5CFDD2031F078
:1043F000E5E0EB1508F4B2CF8C2DDECFF4E0FB1531
:1044000008F4ACCFEACFBB2041F3B9E38B1217C15C
:10441000EFEFF7EE23E0E150F0402040E1F700C07D
:1044200000008E2D0E94331199CF8F2D8695869591
:10443000837061F0813009F091CFC7019370D11082
:1044400002C090E080E00E94B80888CFC701937056
:10445000D11002C090E080E00E94CE087FCF8F2D67
:10446000837091F5D1107ACF4E2D429546954770C5
:10447000440F440F8E2D8F70042E01C0880F0A94B4
:10448000EAF72E2D2071E4FE07C02FE030E001C0D6
:10449000220F4A95EAF720953F2D369536953370D1
:1044A000323069F050F440918202313029F0822B91
:1044B00084230E94081152CF842B822BFACF282B01
:1044C000809182028227F5CF8695DD2011F08F2D15
:1044D0008170882309F442CF4E2D4295469547704E
:1044E000440F440F8E2D8F70042E01C0880F0A9444
:1044F000EAF72E2D2071E4FE07C02FE030E001C066
:10450000220F4A95EAF720953F2D36953695337060
:10451000323069F050F44091AF06313029F0822BEF
:1045200084230E94A4101ACF842B822BFACF282B2D
:104530008091AF068227F5CF9F2D9F70F92EDD2049
:1045400029F0892F0E94FC108E2D36CF8E2D0E94CF
:1045500022118F2D0E94B71001CF8E2DA2EF8A1647
:10456000B1F1A81570F0B0EF8B16D1F0E1EF8E1617
:1045700091F0DD2009F45EC0B1109DCE8F2D8F71BA
:104580002AC0F3EF8F1651F124EF8212F2CF8091FF
:10459000FB0282FD2FC08F2D8F71DD20D9F21BC051
:1045A000DD2081F034E03B1508F4D8CE2F2D2F719B
:1045B00081E090E001C0880F2A95EAF79091AF065C
:1045C0008927AFCF85E08B1508F4C8CEEFCF8F2DAC
:1045D0008F71D110BFCF0E94FC10C0CE80E0DD20D3
:1045E00009F49FCF9F2D9F7181E001C0880F9A959C
:1045F000EAF797CFDD2099F09F2D9F71F92E892F33
:104600000E94FC108091FB0282FF07C0A8E0FA9E86
:10461000C00111248360809377028F2DDCCF81E06D
:104620000E94C410B1E0BB1508F098CE82E00E9451
:10463000C41094CEBB2041F0893309F4E9CE8FE158
:104640009EE40197F1F7EBCE8F2D8F7183CFF0E1D0
:10465000EF16FFE5FF0609F4CECB21E1E2162FE5C8
:10466000F20609F4D2CBF0928A03E0928903F801B2
:104670008081918190938C0380938B038281FDEBE9
:10468000EF16FDE5FF0609F400CC08F0C0CB3BEBCC
:10469000E3163DE5F30609F4D5CB9CEBE9169DE561
:1046A000F90609F4E5CB882331F080914C03823080
:1046B00011F40E94971DC7019A9581159F4108F03A
:1046C00006CCF701FF27D80112968C91E43FF10543
:1046D00048F0E93FF10508F4FCCBE83BBDE5FB07FA
:1046E00009F469CC882309F425CCE15BFD45EA3067
:1046F000F10508F01FCCEB5EF94C0C94893530E1E4
:10470000E3163FE5F30609F47CCB81E1E8168FE57B
:10471000F80609F0A8CF82E075CB85E0F801DE014C
:10472000119601900D928A95E1F7D80112962C917D
:1047300089819A81211121CA0E94350BF82E25CA40
:104740001F93CF93DF9380914402807F09F049C08B
:1047500080914102882309F444C080917602D0916F
:10476000450260913F0270914002A0914202B091D7
:104770004302C62FC72316E0D81799F190E010978F
:1047800011F0CF3F19F401968770F6CF189F900172
:10479000199F300D1124F901EA5BFD4F4181471348
:1047A000F2CF40814613EFCF42814111ECCF4381DC
:1047B00054814A1B5B0B483C510528F78091440209
:1047C0008F70806180934402F901E55BFD4F808129
:1047D0008F70806180838FE392E00E94A41D0E940D
:1047E0002B0BDF91CF911F910895A1E1B0E0EBEF8A
:1047F000F3E20C940A358C0185E0F801DE011D9688
:1048000001900D928A95E1F7F801E2808FE3A82EDE
:1048100082E0B82E609142027091430261157105E9
:1048200009F426C190913F0240914002892F8423D0
:104830008F3F09F41DC120813181C380D480F09065
:104840004102F601E61BF70BFF2009F4DCC0809162
:104850004402582F507FE83CF10508F09FC05111E9
:104860006BC0FE2C431314C0921312C0E11010C091
:104870008F70806180934402C5010E94A41D8091C5
:104880004402F80185838F2D6196EAE00C94263569
:10489000C114D10429F0822F83238F3F09F003C173
:1048A00080E0F82FF170DF2E80FF3CC0809176020F
:1048B0004091450256E0841315C02D873E878D85B3
:1048C0009E850E940110292F22952F702230F0F032
:1048D000243018F59F70F1F0F8019581907FD1F4A4
:1048E000D12C1EC090E0589FF001599FF00D11246B
:1048F000EA5BFD4F6181361306C06081261303C059
:104900006281E6120FC001968770D5CF9F7011F0BB
:10491000882331F3805E883018F3C8010E94A41DFB
:10492000FD2CB1CFEE2009F4AECF8091440281601E
:1049300080934402F12CA7CF431306C0921304C006
:10494000F801EE2009F479C0C8010E940E108823F6
:1049500009F1EE20F9F080914402803270F020914C
:104960003F023091400238872F831986DB86CA8642
:104970008C87CE0107960E94A41D86E0F801AFE364
:10498000B2E001900D928A95E1F70E94A023FF24E6
:10499000F39479CFC8010E94A41DF9CF51110AC028
:1049A0008FE392E00E94A41D86E0F50111928A95A2
:1049B000E9F7C0CF43130FC092130DC0E1100BC035
:1049C000F8018583C8010E94A41D86E0F5011192BB
:1049D0008A95E9F758CFC8010E940E108823D1F2BA
:1049E000EE20C1F280914402803238F220913F02E1
:1049F000309140023A8329831B82DD82CC828E83F0
:104A0000CE010196B8CFE83CF105F8F6FE2CEE2079
:104A100009F243131FC092131DC08091440280FD10
:104A200010C0982F907F69F0F8018583903F31F096
:104A3000982F907F905F8F70892B8583C8010E948B
:104A4000A41D86E0F801AFE3B2E001900D928A95D3
:104A5000E1F719CFC8010E940E1081118ECF80910D
:104A60004402816080934402C8010E94A41D0BCFC0
:104A7000EE2009F48FCFC8010E940E10F82E882373
:104A800009F488CF86E0F801AFE3B2E001900D921F
:104A90008A95E1F780913F02909140020E940110B7
:104AA0000E94A023F0CE81E08E25FBCEA7E1B0E0EE
:104AB000ECE5F5E20C9411354B8B5C8B6D8B7E8BAA
:104AC0008F8B6111109280021A8A198A85E0FE018B
:104AD0007396DE011D9601900D928A95E1F786E0AE
:104AE000FE013D96DE01179601900D928A95E1F741
:104AF000CE0107960E94F523882359F016E0809195
:104B0000760290914502891345C06796E3E00C94C4
:104B10002D3586E0FE013796DE01119601900D924B
:104B20008A95E1F78A859B85892B41F38F8198854A
:104B300089238F3F19F32091450230E0C901019686
:104B400087709927409176024817190681F41092D0
:104B500098060E94C212109245021092760286E0D8
:104B6000EFE3F2E0DF011D928A95E9F7C7CF96E007
:104B7000929FD001939FB00D1124AA5BBD4FFE01FF
:104B8000319601900D929A95E1F7809345020E942B
:104B90002B0BB4CF819FC00111248A5B9D4F0E94D3
:104BA000F523882309F4B1CF8091760290E0019635
:104BB0008770992780937602A2CFA2E0B0E0E3EE5F
:104BC000F5E20C94063546EBA42E46E0B42E50E0F8
:104BD000E52E51E0F52E712C88248394912CD70179
:104BE0008D917D010E94000D00C0F50161905F0173
:104BF00036E0C32E31E0D32EF60110E000E0419103
:104C0000A42FA295AF70B0E090968C919401002EE5
:104C100001C0220F0A94EAF790E04F7002C0959508
:104C200087954A95E2F780FD93C0622A0F5F1F4F78
:104C30000430110521F7F701319780810E94140D8E
:104C4000F0EAFA95F1F7F5018291861519F0608284
:104C50007724739426E0E21621E0F20609F0BFCF34
:104C6000EE24E394F12CD6018D916D010E94000D8C
:104C700000C0C701002E01C0880F0A94EAF7582F20
:104C8000A6EBB6E090E0A92E91E0B92E482F409512
:104C9000F50181915F01282F22952F7030E0F901F5
:104CA00020A19D9130E08F7002C0359527958A959F
:104CB000E2F7BD0161507109852F892B20FF02C0E9
:104CC000842F8923FB0180838081981711F077243A
:104CD0007394F6E0AF16F1E0BF06D1F6F601319716
:104CE00080810E94140D20EA2A95F1F70F5F1F4F73
:104CF0000830110509F0B7CF0091F902772059F17A
:104D000081E0809306020E94A81C90930502809384
:104D1000040280910402909105020E94991C05975B
:104D2000F0F010E0065A1C4F46E050E066EB76E0EB
:104D3000C8010E949F35892B41F086E0E6EBF6E042
:104D4000D80101900D928A95E1F71092060207C0F2
:104D5000209562226BCF809106028111DACF0E94EA
:104D60003F0EF82EE091F902811185C0F0E0E65A7D
:104D7000FC4F86E0A5E8B2E001900D928A95E1F73C
:104D800066E070E085E892E00E94E4088093840287
:104D90004091170350E06091160370E0625F7C4F12
:104DA000CE0101960E94AC3589819A8190938D0243
:104DB00080938C0262E070E0CE0101960E94E408CC
:104DC00080938B02C0908E02D0908F02E090900270
:104DD000F09091028091070290910802A09109023F
:104DE000B0910A02C816D906EA06FB06D1F0C092B5
:104DF0000702D0920802E0920902F0920A020E9491
:104E00003F0E81110EC00E949208C61AD70AE80A06
:104E1000F90AC092F402D092F502E092F602F09202
:104E2000F702809199028823F1F080FF0DC08091F4
:104E3000920280FF1DC0909174049160909374045D
:104E400060E086950E9401178091990281FF09C058
:104E500020E04091950260919402809193020E941B
:104E6000B71510929902872D2296EEE00C94223508
:104E70000E94290EE9CF2CEB36E086E0D9011D9285
:104E80008A95E9F70E2F10E0065A1C4F8091B5065F
:104E90008A30E8F568E779E1C8010E94290D882386
:104EA00009F452C06EE37DE1C8010E94290D8823F8
:104EB00009F44AC06BEB78E1C8010E94290D8823F0
:104EC00009F442C065E678E1C8010E94290D8823F3
:104ED000D9F11092B50681E080930D020091F8029D
:104EE00010E0065A1C4F46E050E06CEB76E0C8013B
:104EF0000E949F35892B09F4B6CF86E0ECEBF6E0F3
:104F0000D80101900D928A95E1F77F2CACCF80916A
:104F10000B0290910C020E94991C843F914008F072
:104F2000B9CF80910D02882309F49DCF10920D0214
:104F3000E091F802F0E0E65AFC4F96E0DF011D92A6
:104F40009A95E9F7782E8FCF8091B5068F3F31F093
:104F50008F5F8093B5068A3008F4BDCF0E94A81CED
:104F600090930C0280930B02DCCFCDB7DEB7C65412
:104F7000D1090FB6F894DEBF0FBECDBF85B78068EC
:104F800085BF85B7806885BF84B7877F84BF0FB62C
:104F9000F894A895809160008861809360001092D9
:104FA00060000FBE80E890E00FB6F8948093610037
:104FB000909361000FBE8AE299E09093FB01809389
:104FC000FA010E94F9060E94C4078091E200846001
:104FD0008093E20078948091A5068823A1F0109137
:104FE000E9001F709091EC00892F817090FD80E89E
:104FF000182B1092E9008091E80083FD0E94CC12EA
:105000001F701093E90082E084BD93E095BD9AEF94
:1050100097BD80936E001092F4021092F5021092E8
:10502000F6021092F7020E944110811102C00E9404
:10503000850F0E94A41980910A010E94A4198091F1
:1050400006010E94140D809107010E94140D8091A9
:1050500008010E94140D809109010E94140D00E0C6
:1050600011E0D8018D918D010E94140DB1E0063040
:105070001B07B9F780910A0196E0811190E09093A7
:10508000F90286E0891B8093F8020E943F0E81118D
:1050900002C00E948F33E6EBF6E082EC96E0AAE5D0
:1050A000B3E011921D928E179F07D9F70E94BB198A
:1050B000811102C00E944C1782E090E00E94B53539
:1050C0008093010384E090E00E94B535182F82E2BE
:1050D00090E00E94B535982F812F9093FB0280932A
:1050E000FA020E94DD25EFE3FCE93197F1F700C0F9
:1050F00000000E94DD2580915A0380FF08C06FEFF9
:105100007FEF90E080E00E94E7350E94810883E015
:1051100090E00E94B5350E9408118091AF060E9470
:10512000F50B0E943F0E882309F4C6C180E08093EE
:105130003C0380E8809379040E9446326DE070E081
:105140008CE492E00E94A70E892BE9F580913C0344
:1051500063E070E081FDB2C189E492E00E94A70E95
:10516000892B89F56DE070E089E392E00E94A70E3B
:10517000892B49F50E949208605A75418F4F9F4FC5
:1051800060938406709385068093860690938706C5
:10519000ECE7F4E080E092E0DF019C011D922150F9
:1051A0003040E1F7F0938306E09382068FEF9FEFA4
:1051B00090937B0480937A0481E0809389068093A6
:1051C000880610923D038091FC02811136C00E9436
:1051D000BB19811104C00E944C170E94331788E04C
:1051E00090E00E94BD3560937404709375048093C1
:1051F0007604909377048091950383608093950360
:105200006E7F71F40E94331788E090E00E94BD35F4
:10521000609374047093750480937604909377047C
:105220000E9400098091740480FF04C060E08695AC
:105230000E94011781E08093FC0280910A0192E0B4
:10524000811190E09093160382E0382F391B309340
:10525000FE0290910A018093170390910A018093B6
:10526000FD0243ED51E091ED892E91E0992E25ED5F
:10527000E22E21E0F22E84019A0161E070E0D90172
:105280008D919D01E82FE295EF70F0E0B1A08F7055
:105290006B0101C0CC0C8A95EAF79C2D90959B215F
:1052A00091A382A18C2982A3F80181918F01E82F1B
:1052B000E295EF70F0E0B1A08F706B0101C0CC0CF3
:1052C0008A95EAF79C2D90959B2191A382A18C2928
:1052D00082A3EA16FB0699F68FE891E00197F1F7B1
:1052E00000C000001091170368E173E0FB018E2FEE
:1052F000861B811708F4E5C00E943F0E811102C091
:105300000E948F330E940D1B0E943F0E81112EC000
:1053100080EA9EE090936201809361012AE130E08F
:1053200030935D0120935C018AE390E090936001EB
:1053300080935F0146E159E050936A01409369010F
:105340003093650120936401909368018093670115
:105350004BED5AE1509372014093710130936D010E
:1053600020936C019093700180936F010E94BB1990
:10537000882389F08FE090E00E94BD358B01862F55
:105380008F770E94C21A001F0027001F1370110F91
:10539000102B109383030E948C0E83E190E00E94F7
:1053A000BD358B019C0160934203109343038093AE
:1053B0004403309345031092460310924703109222
:1053C00048031092490383E791E090938D06809300
:1053D0008C068091A50600E112E1853009F4B0C089
:1053E0000E94DD2502E013E08DED91E025969FAF50
:1053F0008EAF25974EE053E07C012AE533E0F801BB
:105400009191D9018D919D01D7016D917D018623E7
:105410004E175F0709F4A1C0981791F30E943F0E41
:10542000582E6DEDE62E61E0F62E7AE5C72E73E07C
:10543000D72EA12CF601B1906F01D7018D917D017E
:10544000B822F80171908F017B1469F17B24912CB3
:1054500088248394872D8821F1F05520E1F09EAEB9
:10546000AFAE91E08B2D882109F490E021969FAF9B
:1054700021970E94A81C8160782F23969FAF8EAF42
:1054800023974EAD5FAD21966FAD219723968FADDB
:1054900023970E9456259394880CF8E09F12DACF48
:1054A000F8013197B082A3942CE0A212C3CF0E94DE
:1054B0009208EE24E39472C082E039CE86E492E052
:1054C0004DCEDA012D91AD01822F82958F7090E043
:1054D000DC0190968C9190E02F7002C09595879595
:1054E0002A95E2F78170D4019D914D01292F2295D3
:1054F0002F7030E0D90190962C9130E09F7002C05F
:10550000359527959A95E2F790E020FD92E0892B5A
:105510008193EDCE8091A5069923A1F00E94DD250F
:10552000ADEDB1E0EAE5F3E081919D91892309F0C9
:10553000B2C686E6C82E83E0D82ECE16DF06A1F7C7
:105540009091A4068091A506853021F310929806CB
:105550000E94C2120E94640E43CF98135FCF0E9434
:10556000A81C8C018091FF02909100030817190775
:10557000A1F08FEF89AF8AAF1BAE0E94A81C81609B
:10558000782F9DAF8CAF49AD5AAD6BAD8DAD0E94FC
:105590005625109300030093FF02E12C0E943F0E5A
:1055A000A12CF12C52E0C52ED12C80911703A81606
:1055B00008F4E1C1F1100E941B0B80918906882339
:1055C000B1F180913E0390913F030E94991CC297D4
:1055D00008F041C220917A0430917B0421153105F5
:1055E00009F03EC380918806882309F10E94920841
:1055F00000918406109185062091860630918706D9
:10560000601B710B820B930B6F3F7F4F8F4F9F4738
:1056100070F480918906882351F062E070E088E0A0
:1056200093E00E94A70E892B11F410928806E110D6
:1056300001C0F1100E94D10E4091530350915403C8
:1056400060915503709156038091570390915803D0
:105650000E94CF1920935303309354034093550372
:1056600050935603609357037093580386E0E3E525
:10567000F3E0DE019D9601900D928A95E1F786E0B8
:10568000FE01BD96DE01979601900D928A95E1F795
:1056900086E0FE01B796DE01119601900D928A9583
:1056A000E1F786E0FE013196A3E5B3E001900D92AB
:1056B0008A95E1F786E0E3E5F3E0DE019D9601904F
:1056C0000D928A95E1F786E0FE01BD96DE01119606
:1056D00001900D928A95E1F70FA518A9912F902BB3
:1056E00080914C03992309F4DBC3813009F494C3FE
:1056F000823009F0C7C30E94A81C90934B0380938B
:105700004A0386E0FE013196DE01919601900D92EA
:105710008A95E1F786E0FE01B196DE01D39601900D
:105720000D928A95E1F786E0FE01F396DE0111966F
:1057300001900D928A95E1F786E0FE013196A3E58E
:10574000B3E001900D928A95E1F746E050E06DE4F8
:1057500073E083E593E00E949F35892B79F0E09117
:105760008C06F0918D06309749F082E080935303C8
:105770000480F581E02D83E593E0099510925503AF
:1057800010925603109257031092580386E0E3E5F7
:10579000F3E0ADE4B3E001900D928A95E1F70E9449
:1057A000640E90915903891721F0809359030E9448
:1057B00092088091A506843009F4A0C30E943F0E90
:1057C000882309F406CE0E94920820916C032111CF
:1057D0006DC0009168031091690320916A033091B4
:1057E0006B036B017C01C01AD10AE20AF30A97012C
:1057F0008601043F11402105310508F457C060932C
:1058000068037093690380936A0390936B0380919C
:1058100066039091670301969093670380936603F4
:1058200019828E010F5F1F4F21E050E040E060E0E1
:105830008AE00E940F18811106C080916603909142
:1058400067030A979CF181E080936C038093720355
:105850009981911101C080E080937303809171035D
:1058600010E0882329F00E94750E11E0811112E0EA
:1058700080917303882309F40AC50E94750E811173
:1058800008C582E0182B0E9438106B017C01DC01F6
:10589000CB018C7FBC01CD01612BC616D706E80673
:1058A000F90611F00E94670F0E948C0E809173031D
:1058B000882309F48ECD0E9492086B017C018091AF
:1058C0006D0390916E03A0916F03B0917003A701D7
:1058D0009601281B390B4A0B5B0BDA01C9010497AF
:1058E000A105B10580F119821A821B821C828E01EA
:1058F0000F5F1F4F24E050E040E060E08BE00E942B
:105900000F188823C1F069817A8180917803909182
:1059100079030E94ED0C90937903809378036B8157
:105920007C8180917A0390917B030E94ED0C90938F
:105930007B0380937A03C0926D03D0926E03E09252
:105940006F03F092700380917D03882309F441CDA9
:1059500080917C03898310E000E020E0AE014F5F7E
:105960005F4F61E08CE00E940F18882309F431CD6D
:1059700010927D032ECD0A2D10E0F801ED52FE4F5E
:105980008081E82FE295EF70F0E0E0A1F0E08F7009
:1059900002C0F595E7958A95E2F7E170D801AF521C
:1059A000BE4F2C91A22FA295AF70B0E090968C9133
:1059B00090E02F7002C0959587952A95E2F780FDBB
:1059C00048C080E08E2BD801A85EBC4FEC919E2F82
:1059D00093708917E1F1EE0FEE0FE82BEC93B09086
:1059E0001603BA0CEF70F0E0EF53FE4F0E5E1C4F43
:1059F0008081D8019C91890F8C9320E0823064F0E3
:105A0000EB2DF0E0E25FFC4F80818F5F808360E0F0
:105A10008B2D0E94B41C21E0F80180818F3F64F43B
:105A2000EB2DF0E0E25FFC4F80818150808361E0EC
:105A30008B2D0E94B41C21E0D8018C91082E000C03
:105A4000990BB6010E945335F8018083F22AA39482
:105A5000ACCD82E0B7CF0E94A81C90933F03809307
:105A60003E038CE794E090938306809382060E9425
:105A70003F0E882309F4EEC010918903012F60E0E6
:105A800089E992E00E94621280918C038F708A30C3
:105A900008F0D2C0805D60E00E94D11160E085E92D
:105AA00092E00E94621280918B038F708A3008F01E
:105AB000C5C0805D60E00E94D111002309F4C4C01C
:105AC00060E082E992E00E946212812F82958F70DD
:105AD0008A3008F0B5C0805D60E00E94D111812F4E
