:100000000C9473060C9490060C9490060C945A343D
:100010000C9490060C9490060C9490060C94900608
:100020000C9490060C9490060C94AB1C0C94671CDA
:100030000C941E290C9490060C9490060C94900637
:100040000C9490060C9490060C9490060C949006D8
:100050000C9490060C94841D0C9490060C949006BD
:100060000C9490060C9490060C9490060C949006B8
:100070000C9490060C9490060C9490060C949006A8
:100080000C9490060C9490060C9490060C94900698
:100090000C9490060C9490060C9490060C94900688
:1000A0000C9490060C9490060C949006050109029D
:1000B000A10185020901A1000509190129081500FE
:1000C0002501950875018102050109300931158165
:1000D000257F95027508810609381581257F9501D0
:1000E00075088106050C0A38021581257F95017572
:1000F000088106C0C005010980A101850319012AF4
:10010000B700150126B700950175108100C0050CD8
:100110000901A101850419012AA002150126A002E6
:10012000950175108100C00660FF0961A101096297
:10013000150026FF00952075088102096315002629
:10014000FF00952075089102C005010906A101056F
:100150000719E029E7150025019508750181029529
:1001600001750881010507190029FF150026FF0008
:100170009506750881000508190129059505750181
:100180009102950175039101C0000000000000007C
:10019000000000000000000000000000000000005F
:1001A000000000000000000000000000007E0F00C2
:1001B000D4FFFFFFC700000078000000000000002F
:1001C000002A2B28000000000000000000000000B2
:1001D0000000000029000000002C1E3420212224F1
:1001E000342627252E362D3738271E1F202122237F
:1001F0002425263333362E37381F04050607080911
:100200000A0B0C0D0E0F10111213141516171819D6
:100210001A1B1C1D2F3130232D3504050607080934
:100220000A0B0C0D0E0F10111213141516171819B6
:100230001A1B1C1D2F3130354C00DA0281FFD9F119
:10024000DB20A4A62EAF00A0C000A1C800AED580C0
:10025000A81FD300408D1420006162636465666747
:1002600068696A6B6C6D6E6F707172737475767796
:1002700078797A313233343536373839305245422D
:10028000545F2D3D5B5D5C233B27602C2E2F20208F
:100290002700204B00202043004B6579203A202086
:1002A0005200202044003030202053002020202005
:1002B000204350490042616C6C3A0052543A002F7E
:1002C000004D563A004C3A008081828384858687AF
:1002D00088898A8B8C8D8E8F9091929394A0A1A205
:1002E000A3A4A5A6A7A8A9AAABACADAEAFB0B1B266
:1002F000B3B4C0C1C2C3C4C5C6C7C8C9CACBCCCDBC
:10030000CECFD0D1D2D3D40000010101010101012F
:1003100001010202020202020202020303030303BA
:100320000303030404040404040405050505050689
:100330000606060607070707070808080809090947
:10034000090A0A0A0B0B0B0C0C0C0D0D0D0E0E0EF0
:100350000F0F0F1010111111121213131414151581
:1003600016161717181819191A1A1B1B1C1D1D1EF3
:100370001E1F202021222223242425262627282947
:10038000292A2B2C2D2D2E2F303132323334353675
:100390003738393A3B3C3D3E3F4041424344454675
:1003A0004748494A4C4D4E4F505153545556585951
:1003B0005A5B5D5E5F616264656668696B6C6D6FF8
:1003C0007072737577787A7B7D7E8082838587886B
:1003D0008A8C8E8F91939596989A9C9EA0A2A3A5A5
:1003E000A7A9ABADAFB1B3B5B7BABCBEC0C2C4C6A6
:1003F000C9CBCDCFD1D4D6D8DBDDDFE2E4E7E9EB62
:10040000EEF0F3F5F8FAFDFF0000000000003E5B9F
:100410004F5B3E003E6B4F6B3E001C3E7C3E1C0023
:10042000183C7E3C18001C577D571C001C5E7F5EEC
:100430001C0000183C180000FFE7C3E7FF0000188D
:1004400024180000FFE7DBE7FF0030483A060E0003
:10045000262979292600407F05050700407F0525CC
:100460003F005A3CE73C5A007F3E1C1C0800081C19
:100470001C3E7F0014227F2214005F5F005F5F003C
:1004800006097F017F00006689956A0060606060F0
:10049000600094A2FFA2940008047E0408001020CB
:1004A0007E20100008082A1C0800081C2A080800E2
:1004B0001E10101010000C1E0C1E0C0030383E38A0
:1004C0003000060E3E0E0600000000000000000096
:1004D0005F000000000700070000147F147F140075
:1004E000242A7F2A1200231308646200364956200A
:1004F0005000000807030000001C224100000041DA
:10050000221C00002A1C7F1C2A0008083E08080044
:1005100000807030000008080808080000006060D3
:1005200000002010080402003E5149453E000042F0
:100530007F4000007249494946002141494D33003E
:100540001814127F10002745454539003C4A494997
:100550003100412111090700364949493600464911
:1005600049291E0000001400000000403400000073
:100570000008142241001414141414000041221421
:1005800008000201590906003E415D594E007C12E7
:1005900011127C007F49494936003E414141220009
:1005A0007F4141413E007F49494941007F09090996
:1005B00001003E41415173007F0808087F0000415F
:1005C0007F4100002040413F01007F08142241008C
:1005D0007F40404040007F021C027F007F040810E3
:1005E0007F003E4141413E007F09090906003E412E
:1005F00051215E007F0919294600264949493200E8
:1006000003017F0103003F4040403F001F20402086
:100610001F003F4038403F00631408146300030488
:10062000780403006159494D4300007F4141410076
:10063000020408102000004141417F000402010231
:1006400004004040404040000003070800002054E0
:10065000547840007F2844443800384444442800FB
:10066000384444287F0038545454180000087E0948
:1006700002001824241C78007F0804047800004439
:100680007D4000002040403D00007E1028440000D6
:1006900000417F4000007C04780478007C0804045A
:1006A00078003844444438007C1824241800182466
:1006B00024187C007C080404080048545454240086
:1006C00004043F4424003C4040207C001C20402087
:1006D0001C003C4030403C004428102844004C9012
:1006E00090907C004464544C440000083641000063
:1006F00000007700000000413608000002010204FB
:1007000002003C2623263C00000000000000000000
:10071000000000000000000000F81E030101020CB0
:100720000808080808101010101804020206FC003F
:1007300000000000000000000000000000F01E03A8
:100740000101030C0808080808080808080C06033B
:10075000010103FE00000000000000000000000096
:100760000000F03E030103060C0C0C080808080802
:100770000808080C060101031EE00000000000004C
:10078000000000000000E0F0F0F0E0ECEEF7F370A5
:1007900020007C7C7C7E007E7E7E7F7F7F000080D0
:1007A000C0E07E5B4F5BFEC00000C000DCD7DEDE39
:1007B000DED7DC00C00000000000000000000000E8
:1007C0000000000000000000000000000000000029
:1007D000C020008060180000C07F00000000000002
:1007E000020200000000000000020200000007F802
:1007F0000000000000C020008060100000FF00002A
:1008000000000000030300000000000000030300DC
:1008100000000003FE0000000000C0200080601007
:100820000000FF00000000000003030000000000C3
:10083000000000030300000000FF000000000000B3
:100840000000000000000F1F3F7F7F7F7F7F3F1E63
:100850000C001F1F1F3F003F3F3F7F7F7F00307B0B
:100860007F7830202030787F3B0003000F7F0F0F10
:100870000F7F0F00030000000000000000000000D8
:100880000000000000000000000000000000000761
:1008900018200007182000001F30203018081020F2
:1008A0002030181020202030180810204020301F41
:1008B000000000000718200007182000001F30204B
:1008C00020100808102020300808081030203018A8
:1008D000081830201F00000000071820000718200B
:1008E00000001F3020301818302030180830203019
:1008F0001808081830202038080700000000000001
:1009000000000000000000000000000000000000E7
:1009100000000000000000000000000000000000D7
:1009200000000000000000000000000000000000C7
:1009300000000000000000000000000000000000B7
:10094000000000000000000000AF00AE29001E0003
:100950001F00000020002100220000002B001400D6
:100960001A0002530800150017002800E0000400D8
:1009700016000000070009000A00000001511D00D8
:100980001B0000000600190005003000E200E30033
:10099000000000000608904391412C424F00500097
:1009A0005100520000000000000000002D00270050
:1009B0002600000025002400230000002F00130063
:1009C000120028000C0018001C002900340033001D
:1009D0000F0000000E000D000B0000008700380023
:1009E00037000000360010001100320089002E0090
:1009F000000000001908E30028002A002B022B0049
:100A00001D0A1D08000000000000000029021E024F
:100A10002F00000020022102220200002B021402FB
:100A20001A0201000802150217020100E002040286
:100A300016020000070209020A02000001001D025E
:100A40001B0200000602190205023002E202E30264
:100A50000000000001000100010001000100010090
:100A600001000100000000000000000087022702D2
:100A70002602000025022402230200002F02130296
:100A8000120201000C0218021C020100340233029F
:100A90000F0200000E020D020B0200008702380256
:100AA00037020000360210021102320289022E02C1
:100AB0000000000001000100010001000100010030
:100AC00001000100000000000000000001003A00E9
:100AD0003B0000003C003D003E0000000100010022
:100AE0002400010025002600010001000100010092
:100AF0002100000022002300330200000100010059
:100B00001E0000001F0020002D0225020100010030
:100B10000000000001000100010001002B002B0279
:100B2000010001000000000000000000440043003C
:100B300042000000410040003F000000450001006D
:100B40004E00010052004B000100010001004D0069
:100B50004F000000510050004A0000000100010059
:100B6000F6000000F500F400F800F70001000100B5
:100B7000000000000100010001000100010001006F
:100B8000010001000000000000000000C25C010044
:100B9000010000000100010001000000C35CC55C11
:100BA000C75C0100C95C010001000100C45CC65CB7
:100BB000C85C0000CA5CB85DB75D0000BC5DBD5D8F
:100BC000BE5D0000BF5DBA5DB95DDE5C005CBB5D13
:100BD000000000000100010001000100010001000F
:100BE000010001000000000000000000D25CD15CA8
:100BF000D05C0000CF5CCE5CCD5C00000100010049
:100C00005D5D0100D55CD45CD35C0100B15DB25D7B
:100C1000B55D0000B35DB45DB65D0000010001008C
:100C200001000000010001000100DE5C0100010084
:100C300000000000010001000100010001000100AE
:100C400001000100000000000000000009025B003C
:100C5000030100A0FA0904000001030101000921B9
:100C60001101000122400007058103080001090469
:100C700001000203000000092111010001222200ED
:100C80000705820320000107050303200001090472
:100C900002000103000000092111010001227B0074
:100CA000070584032000011201000200000008591A
:100CB0004D00010200010200010E036D0074006B83
:100CC00000360034006500000016036D0065006EFC
:100CD00000740061006B006F005F0079006100002C
:100CE00000040309040011241FBECFEFDAE0DEBFC9
:100CF000CDBF11E0A0E0B1E0E8E5FDE602C005905F
:100D00000D92AA3FB107D9F726E0AAEFB1E001C0E2
:100D10001D92A43CB207E1F70E9445290C94773656
:100D20000C9400008F929F92AF92BF92CF92DF926D
:100D3000EF92FF9290918C01981305C09091B406A8
:100D4000903209F44BC080938C0190E29093B406EA
:100D5000C82ED12CF12CE12C1092B306C701B6019C
:100D60002AE030E040E050E00E94E135605D603311
:100D700031F0C114D104E104F10409F460E260939C
:100D8000B20660E28AE0C816D104E104F10490F0F2
:100D90008AE0882E912CA12CB12CC701B601A501A7
:100DA00094010E94E135CA01B901A50194010E9494
:100DB000E135605D6093B10620E284E6C816D10497
:100DC000E104F10448F0C701B60124E630E040E058
:100DD00050E00E94E135205D2093B00680EB96E064
:100DE000FF90EF90DF90CF90BF90AF909F908F904B
:100DF0000895E8EDF0E080818E7F80831092E2001C
:100E00001092DA001092E100A0EEB0E08C918160C7
:100E10008C9380818F77808319BCA7EDB0E08C9193
:100E20008E7F8C9380818F7E8083109297060895A9
:100E30002091E4003091E50095E6A9012091EC00B5
:100E4000822F817020FF06C08091E80080FF06C0DD
:100E500080E008952091E80022FD1AC08091A50647
:100E6000882389F0853089F08091EB0085FD0FC0E3
:100E70002091E4003091E50042175307F9F29150B8
:100E8000E1F684E0089582E0089583E0089581E02A
:100E90000895EF92FF920F931F93CF937C018B01E4
:100EA0000E941807C82F811117C08091E80085FDA6
:100EB0000BC08091E8008E778093E8000E941807AD
:100EC000882399F3C82F08C0F70181917F0180938F
:100ED000F1000150110949F78C2FCF911F910F910B
:100EE000FF90EF9008958091A70687FF13C080912F
:100EF000E80082FF06C08091E8008B778093E800CD
:100F000004C08091A5068111F2CF08958091A506B5
:100F10008823D9F38091E80080FFF8CF8091E80022
:100F20008E77ECCF982F9093E900242F762F50E006
:100F3000891731F07091EC002091ED005091F00094
:100F400021FD07C09F5F973071F78093E90081E032
:100F500008953091EB003E7F3093EB003091ED002F
:100F60003D7F3093ED003091EB0031603093EB002A
:100F70007093EC002093ED005093F0002091EE0070
:100F800027FDE0CF80E00895B0E0A0E0EAECF7E0D4
:100F90000C949435C8EDD0E088818F7E8883E7ED8E
:100FA000F0E080818160808384E082BF81E0809373
:100FB000970688818E7F888302EE10E0F801108208
:100FC0001092DA0081EEC82ED12CF60110828881B1
:100FD0008F77888388818068888388818F7D8883E4
:100FE00019BC1092A5061092A6061092A4061092A3
:100FF000A30690EEE92EF12CF70180818B7F808390
:1010000088818160888342E060E080E00E949207EE
:10101000F60180818E7F8083F801808181608083EA
:10102000808188608083F70180818E7F80838881C2
:1010300080618883CDB7DEB7E8E00C94B035FC0161
:101040008091AD069091AE0686179707A0F06115C6
:10105000710529F49091E8009E779093E80090E064
:101060006115710551F4911108C08091E80082FF6B
:1010700034C080E00895BC01F2CF8091A50688239A
:10108000C1F18530C1F18091E80083FD30C08091CD
:10109000E80082FDEACF8091E80080FFE1CF8091F7
:1010A000F3002091F200382F6115710519F02830F6
:1010B000310558F091E02830310509F090E0209199
:1010C000E8002E772093E800CBCF81918093F10048
:1010D000615071092F5F3F4FE7CF8091A5068823AC
:1010E00041F0853041F08091E80083FFBECF81E080
:1010F000089582E0089583E00895089580919A0606
:10110000089587E797E7909301088093000888E1A6
:101110009AE00FB6F894A895809360000FBE909364
:101120006000FFCF2FB7F894609190067091910600
:1011300080919206909193062FBF08959C01FC0127
:1011400032969FEF80E04191461751F09F3F19F48E
:10115000411101C0982F8F5F8630A9F79F3F09F496
:101160000895290F311D97FD3A95F901628308957D
:1011700020918D0630918E062817390771F09093D3
:101180008E0680938D06E0918B06F0918C06309749
:1011900021F00084F185E02D0995089520918906BC
:1011A00030918A062817390771F090938A06809348
:1011B0008906E0918B06F0918C06309721F006802D
:1011C000F781E02D09950895FC01680F791F8FEFD5
:1011D00091E32191822728E030E087FF09C0880F42
:1011E000892721503109C9F7E617F70791F70895C4
:1011F000880FF7CFFA01811101C0FB01099508950D
:1012000080917304982F9E7F71F480917304817094
:1012100082608093730480917604893718F088E7A0
:10122000809376040895843080F7F5CFCF93DF93D1
:10123000E6E5F3E083819481A581B681E9018883A5
:101240009983AA83BB831482138216821582DF914D
:10125000CF91089580E0089563E070E088E992E01E
:101260000E94E40890919702891318C0E0919802B7
:10127000ED30A4F488E0E802F0011124E55FFE4FB0
:101280000680F781E02D309749F02BEB32E040915A
:101290009A026BE972E08091990209950895E1E85C
:1012A000F2E0808D80934301818D809356010895F3
:1012B0009091F70292FF06C0282F28712830F9F488
:1012C000877F846093FF06C0282F28712831F1F4AE
:1012D000877E84612091F80220FF06C0382F387184
:1012E0003830D9F4877F816021FF06C0282F28710C
:1012F0002831D1F4877E816194FD877E0895282F5F
:1013000024712430F9F68B7F8860DCCF282F24717C
:10131000243101F78B7E8861DDCF382F3171313078
:1013200019F78E7F8860E0CF282F2171213121F7B6
:101330008E7E8861E1CFCF93DF93EC0182389105F7
:10134000B1F108F040C08133910509F49DC048F522
:101350008932910509F48DC08A9709F49CC0C115A2
:1013600022E5D20708F0BDC0C11531E5D30708F06A
:1013700024C1C83ED10508F0A3C0C13ED10588F5FF
:10138000C83AD10508F08EC0C53AD10508F0F6C0BC
:10139000C130D10531F1209721F1C430D10508F5D4
:1013A00045C08533910509F45FC0C997C1F68091A6
:1013B000F702837009F036C18091F80283FF11C0F3
:1013C000C9E2D0E00EC0833E910599F170F4803EF1
:1013D000910501F1823E910511F68091F70282FD9F
:1013E00021C0CE01DF91CF910895863E910561F134
:1013F000873E910571F1843E910509F0B0CF80914F
:10140000F80281FFEECF8091F702C7EED0E084FDB5
:101410000DC0E7CF8091F70280FD33C09091F802B4
:1014200090FFDFCFC3EED0E084FFDBCFD0E0C0E0A1
:10143000D8CF8091F70282FDF2C09091F80290FD22
:10144000F1C084FFCECFF2CF8091F70283FDDDCFD4
:10145000C8CF8091F70283FDE8C09091F80291FF18
:10146000F0CFC4EED0E0BDCF8091F70285FFB9CFB9
:10147000A7CF8091F70285FDDBC08091F80283FF42
:10148000B0CFC9E3D0E0ADCF8091F70286FFA9CFFE
:10149000CAE2D0E0A6CF8091F70286FFA2CFC1E3D7
:1014A000D0E09FCFCF3BD10508F6C85AD0E0CC0F93
:1014B000DD1FCF56DE4F0990D881C02DD46491CF67
:1014C000C11540E5D40708F064C0C11580E4D80711
:1014D00008F05CC0CE019A9581159F4108F481CF38
:1014E000A5CFC11536E5D30718F5C11545E5D407D5
:1014F00008F07CC0C11584E5D80708F072C09E01D1
:10150000237033279C2F96959695C115D34508F4E3
:1015100059C0C1E0D0E002C0CC0FDD1F2A95E2F730
:1015200030E2939FC0011124C82BD92BDA6859CF20
:10153000C1158AE5D80778F4C11529E5D20708F066
:1015400060C0C11538E5D30708F470CFDC2FCC2775
:10155000C06FD06A46CFCE0190568115904208F0F8
:1015600065CF8D2F8F710E94580990E0982F8827A2
:1015700088279F719C012C2BE90141C0C55AD0E0FE
:10158000C257DE4FC881D0E0D0642BCFDF70D06A65
:1015900028CFCE018370992721E030E002C0220FCE
:1015A000331F8A95E2F7C695C69580E2C89FE00191
:1015B0001124C22BD32BDD6814CFDC2FCC27C16FB5
:1015C000D06A0FCFC1E0D0E002C0CC0FDD1F2A955A
:1015D000E2F720E2929FC0011124C82BD92BDC68CE
:1015E00000CFDC2FCC27C46FD06AFBCE8C2F0E949B
:1015F0005809C82FD0E0DC2FCC27CC27DF71D06270
:10160000F0CE8C2F8F700E94580934E0D695C79584
:101610003A95E1F7CF709C2FEC01D069E2CEC2EE93
:10162000D0E0DFCEC0EED0E0DCCEC6EED0E0D9CE4A
:10163000C5E3D0E0D6CE0E949208089580917E0244
:10164000811110927E0208958095909198069823BA
:101650009093980608958091730290914202981396
:1016600001C008958F5F8770FACF9C3080F5883075
:1016700070F548E0949F90011124820F932F911DE3
:10168000682F677023E0969587952A95E1F7FC010E
:10169000EE0FFF1FE80FF91FE85EFD4F50E040E03E
:1016A00080E0219130E0062E02C0369527950A94FD
:1016B000E2F721703327042E01C0220F0A94EAF7C3
:1016C000822B4F5F5F4F4330510559F7089580E0FB
:1016D00008959C3098F5883088F548E0949F9001F3
:1016E0001124820F932F911D282F277041E001C0F4
:1016F000440F2A95EAF723E0969587952A95E1F716
:10170000FC01EE0FFF1FE80FF91FE85EFD4F90E0B0
:1017100080E070E05191DF0111979B01082E02C01B
:10172000369527950A94E2F72170219525272423E1
:1017300025272C9301968330910561F70895982F02
:1017400092959F7011F0892F94E0282F2695269569
:1017500011F09E5F822F869509F09F5F892F089573
:101760009C013A9521153F4150F5FC01EE27F1709F
:10177000BC0166277270AC01442754709C0122277B
:10178000387094FF0EC080E1EF2B09F480E0672BE6
:1017900009F08062452B09F08064232B89F0806872
:1017A000089581E0EF2B09F480E0672B09F0826057
:1017B000452B09F08460232B19F08860089580E0A0
:1017C0000895CF93C82F809164038C1751F00E9425
:1017D0009208609365037093660380936703909308
:1017E0006803C0936403CF910895CF93C82F0E94DC
:1017F0009F0B91E0833009F090E0892F0E94E10B6C
:1018000080918503823031F4109285038C2F8B7F79
:1018100009F0C82F8C2FCF910895B0E0A0E0E3E14C
:10182000FCE00C949435FC01EB019091690391115B
:1018300001C094E06081718191509B01092E02C02A
:10184000359527950A94E2F7D901092E02C0AA0F0F
:10185000BB1F0A94E2F76A1B7B0B71836083628172
:1018600073818B01092E02C0159507950A94E2F742
:10187000D80102C0AA0FBB1F9A95E2F76A1B7B0B27
:101880007383628381E80138BFEF1B072CF0802F40
:10189000003811050CF08FE78D8321389FEF390751
:1018A00054F1203831054CF5922F91959C834423B7
:1018B00019F081958D832C830E9492082D8121112E
:1018C00003C02C812223D9F060936A0370936B03C9
:1018D00080936C0390936D0380916E039BE0980F4F
:1018E000973120F4080F00936E031D82CDB7DEB749
:1018F000E8E00C94B03521E8D7CF2FE7D5CFC090E2
:101900006A03D0906B03E0906C03F0906D036C1948
:101910007D098E099F096436710581059105E0F204
:1019200010926E03D9CFFC01DB012281338191E853
:1019300021388FEF38072CF0922F203831050CF02A
:101940009FE712969C9312972081318121388FEF67
:101950003807A4F0203831059CF413962C93139784
:10196000442339F0919512969C93129721951396E2
:101970002C931182108213821282089521E8EDCFF8
:101980002FE7EBCFCF93DF93FC0120E297FF04C05A
:10199000F195E195F1092DE2CAE0D0E0CF01BE0159
:1019A0000E94CD35805D809311026115710569F447
:1019B0002093100220E220930F0220E220930E02D7
:1019C0008EE092E0DF91CF910895CB01BE010E949D
:1019D000CD35805D80931002CF0164E670E00E94F7
:1019E000CD356115710539F3605D60930F02E6CF67
:1019F0009C01860F971F37FD07C077FD04C097FF36
:101A000002C08FEF9FE7089577FFFDCF97FDFBCFD3
:101A100080E090E80895E82FE295EF70F0E031A1C2
:101A2000282F2F7081E090E001C0880F2A95EAF7F7
:101A3000382B31A392A18095892382A30895E82FA2
:101A4000E295EF70F0E031A1282F2F7081E090E057
:101A500001C0880F2A95EAF7982F9095932391A3B8
:101A600092A1892B82A30895B0E0A0E0EAE3FDE013
:101A70000C9494357C016B018091B50601E010E077
:101A80008A3010F40AE010E0C1E0D0E06CEB76E0C0
:101A9000C701F6010995811104C021960C171D0795
:101AA0002CF4CDB7DEB7E8E00C94B035CC9F9001B4
:101AB000CD9F300D300D112490E080E045E34A9534
:101AC000F1F70000019682179307C1F7DFCF8093EB
:101AD000940670939606609395068091A5068430CF
:101AE000F9F48093E9008FEF9091E800815095FD23
:101AF00006C095ED9A95F1F700008111F5CF809120
:101B0000E80085FF0DC050E040E063E070E084E94C
:101B100096E00E9449078091E8008E778093E80064
:101B20000895BC0184E00E94670D0895BC0183E024
:101B30000E94670D08959C0184E08093E9009FEF67
:101B40008091E800915085FD06C085ED8A95F1F7FA
:101B500000009111F5CF8091E80085FF0CC050E0A6
:101B600040E066E070E0C9010E9449078091E8000A
:101B70008E778093E8000895CF93DF93EC0181E0A6
:101B80008093E9008FEF9091E800815095FD06C0A9
:101B900095ED9A95F1F700008111F5CF8091E8005D
:101BA00085FF14C050E040E068E070E0CE010E9484
:101BB00049078091E8008E778093E80088E0FE0175
:101BC000ABE9B6E001900D928A95E1F7DF91CF91F4
:101BD0000895609188018091730480FF20C08091F6
:101BE000870143E0849FC00111248B569C4F539A78
:101BF0002BB1277F3BB138605FB7F894FC01649F3D
:101C0000E00DF11D1124BF0168177907D1F45FBF02
:101C10008FE594E00197F1F700C0000008958091EE
:101C2000890190918A0123E0829FF0011124EB56F3
:101C3000FC4F8917A0F61182108212828F5F3396B3
:101C4000F8CFFC014191CF01E8E03BB9000000C0B2
:101C500047FF2BB9440F000000C000C000C02BB9E3
:101C600000C0EA9591F7D0CFE3E7F4E080818E7F62
:101C70008083E2E9F3E08281816082832FEF80E755
:101C800092E0215080409040E1F700C000000E94A7
:101C9000E90D089580918002811119C082E390E0DE
:101CA0002091E30027FD10C0EFE3FCE93197F1F745
:101CB00000C000000197A1F782E0809380020E949B
:101CC000F9061092A50603C081E08093800281E0AE
:101CD00090918002913011F080E0089508950E9463
:101CE0004A0E882359F0E0918B06F0918C063097CC
:101CF00029F00190F081E02D0995089580E0089584
:101D000057985F9A879A8F9825E02A95F1F70000F7
:101D100089B187988F9A90EA9A95F1F790E0880FA9
:101D2000892F881F990B21E08227817008950E94D6
:101D3000800E882371F080E08093870182E2809397
:101D400088011092890184E480938A0180938B0139
:101D5000089582E2F1CF80915603F90180830E94B9
:101D6000970E0895B0E0A0E0E8EBFEE00C94943507
:101D70006C017B0164E670E088E70E94D432EC01DC
:101D800097FD12C010E000E0F601E00FF11F849112
:101D900064E670E00E944033EC01892B29F40F5F68
:101DA0001F4F0E151F0581F70E94B633CE01CDB728
:101DB000DEB7E8E00C94B0358091870690918806F4
:101DC000911103C091E089270895882369F062E0AA
:101DD00070E08AE499E00E94B20E892B19F080919C
:101DE000870608951092870680918706EBCFCF93E0
:101DF000C0918706809188068823D1F00E949208BE
:101E0000605A75418F4F9F4F60938306709384068D
:101E10008093850690938606C11108C062E070E049
:101E200088E499E00E94B20E892B29F0C0918706C0
:101E30008C2FCF91089581E080938706F7CFCF93C1
:101E4000DF93C7E2D3E060E0CE010E9443362196E3
:101E5000C11584E0D807B9F7DF91CF9108951F939A
:101E6000CF93DF93122F8430E0F46C30D0F44830FD
:101E7000C0F490E1699FE001112450E0440F551F28
:101E8000C40FD51F90EC899FC00DD11D1124632F65
:101E9000CE0187960E944336612FCE0188960E941C
:101EA0004336DF91CF911F910895AF92BF92CF92A9
:101EB000DF92EF92FF921F93CF93DF938CE4C82EB3
:101EC00089E0D82ED0E07601C0E014C0F50125915C
:101ED0003491412F6C2F8D2F0E942F0F82E0A80E7E
:101EE000B11C1F5F183091F780E1E80EF11CCF5F45
:101EF000CC3019F0570110E0E9CFDF5F80ECC80E5D
:101F0000D11CD43001F7DF91CF911F91FF90EF905A
:101F1000DF90CF90BF90AF90089586E290E00E944E
:101F200043360895CF93C82F6FEF811163E283E2A8
:101F300090E00E9443366FEFC11164E084E290E0CC
:101F40000E9443366FEFC11169E285E290E00E9482
:101F50004336CF91089580E00E94920F60E070E0D8
:101F6000CB010E948D0F0E94550F0E941F0F81E030
:101F70000E94920F08950F931F93CF93DF938430A5
:101F800030F56C3020F5483010F520E1629F80017B
:101F9000112450E0440F551F040F151F30EC839F90
:101FA000000D111D1124C80187960E942F36C82FDD
:101FB000D0E0DC2FCC27C80188960E942F369E01E6
:101FC000282BC901DF91CF911F910F91089590E0C7
:101FD00080E0F8CF462F843040F47C3030F4683015
:101FE00020F4672F0E94BB0F089590E080E00895D1
:101FF000CF92DF92FF920F931F93CF93DF936C01E9
:102000000091AF0680917F02082BC7E0D0E010E07E
:10201000FC2EC8010C2E02C0959587950A94E2F714
:1020200080FD0CC02197A0F7F12C8F2DDF91CF916F
:102030001F910F91FF90DF90CF900895B6018C2FE4
:102040000E94EA0F0E949B09019761F3EECFCF93A4
:10205000DF93EC010E94F80FBE010E94EA0F0E947C
:102060009B09DF91CF910895FC0183819481892B95
:1020700029F08081918189238F3F51F480E0089578
:10208000843FE1F717C0883EA8F0813FB9F712C03E
:10209000808191810E94271092959F70963099F3CC
:1020A00058F4925F9F70923048F7803F19F040F7E4
:1020B000883E20F781E008959A5FF4CF86E290E0B1
:1020C0000E942F36682F70E090E080E0089583E250
:1020D00090E00E942F36833289F484E290E00E94DF
:1020E0002F36843059F485E290E00E942F3691E03B
:1020F000893209F090E0892F8170089580E0FCCF4B
:102100008091980690917D02892B8093FC0190919B
:102110007E02992391F0892B8093FC0120E08EEFC1
:1021200091E0FC013191CF0131112F5FF2E0843059
:102130009F07B9F721110E941E0B48E050E065E7A8
:1021400072E08CEF91E00E941936892BA9F088E0AB
:10215000ECEFF1E0A5E7B2E001900D928A95E1F78E
:10216000E0918B06F0918C06309731F00280F3817C
:10217000E02D8CEF91E00995089590E080E00E94B9
:10218000CE0890E080E00E94B80810927D020E9484
:10219000801008950E94F50B8093AF060E94BD1039
:1021A00008958091AF06982F9670963021F488603C
:1021B0000E94CA100895877FFBCF21E030E001C064
:1021C000220F8A95EAF720958091AF0682230E941C
:1021D000CA100895909174028095892380937402A7
:1021E000282F277091F4282F082E000C330B9217FC
:1021F000130659F09091F80292FF07C085958595D6
:1022000085950E94DD10109274020895CF93C091BD
:10221000F802C2FB992790F9981791F080FBC2F958
:10222000C093F8026091F70284E090E00E94433688
:102230006C2F82E290E00E94433682E00E94EA1016
:10224000CF91089521E030E001C0220F8A95EAF78E
:102250008091AF06822B0E94CA10089580937F025E
:102260000E94BD100895882341F0809590917D02D1
:10227000892380937D020E9480100895882339F07D
:1022800090917D02982B90937D020E94801008957A
:10229000882321F00E94240B0E9480100895882337
:1022A00039F090919806982B909398060E94801090
:1022B0000895882391F19CEF980F913A80F4EEEF06
:1022C000F1E024E032E09191891303C0DF0111971E
:1022D0001C922E173F07B9F70E948010089590E2D4
:1022E000980F983050F4877091E001C0990F8A954B
:1022F000EAF7892F0E94240BEFCF9BE5980F9330CC
:1023000028F490E080E00E94CE080895885A873132
:1023100020F490E080E00E94B8080895CF93C82F81
:102320008823B1F08CEF8C0F813A00F5EEEFF1E0ED
:1023300084E092E0DF012D91C21761F08A179B07BC
:10234000D1F76C2F8CEF91E00E949E080E948010C4
:10235000CF9108952191C21303C0DF0111971C9200
:102360008E179F07B9F70E948010EBCF80E28C0F89
:10237000883068F4C77021E030E001C0220FCA95B0
:10238000EAF780919806822B80939806DFCFEBE5E1
:10239000EC0FE33040F4F0E0E257FE4F808190E034
:1023A0000E94CE08D5CFC85AC73190F6EC2FF0E086
:1023B000EE0FFF1FEF56FE4F808191810E94B808FB
:1023C000C7CF1F93CF93DF93182FEB010E948E117D
:1023D0008FE99FE00197F1F700C000002197C1F756
:1023E000812F0E945911DF91CF911F910895CF92B3
:1023F000DF92EF92FF921F93CF93DF939091FC02B5
:10240000992309F447C0813009F453C0882309F4A3
:102410004AC0823009F453C0833009F452C08D2F72
:102420009C2F0E94F80F6D2F7C2F0E94EA0FEC0169
:1024300095E0E92EF12CC933D10519F480E5E82E99
:10244000F12C6E0180EEC81AD108CE010E94B00BAB
:10245000182F98E0C916D10410F02097A1F50E941A
:102460004F118C2F0E948E118FE99FE00197F1F799
:1024700000C0000091E0E91AF108B1F78C2F0E942A
:10248000591188E0C816D10410F0CD2BF9F4812F32
:102490000E94481181E0DF91CF911F91FF90EF9052
:1024A000DF90CF900895C5E0D2E06111B8CFD3E0BE
:1024B000B6CFC5E0D0E06111B2CFD1E0B0CFCBE074
:1024C000F3CFCBE0F7CF0E943E11CBCF812F0E94FC
:1024D0003311E0CF1F93CF93DF93162F8A3039F457
:1024E00081E00E942813DF91CF911F9108958D30D4
:1024F00011F480E0F6CFC0918106D091820696E07B
:10250000FE01ABE7B6E001900D929A95E1F7803EAF
:1025100090F186E0FE0111928A95E9F7C09181065B
:10252000D0918206111133C046E050E0BE018BE726
:1025300096E00E9419369E012B573440892B91F565
:102540002A5F3F4F40917804642F70E0C9010E94D8
:102550007635481B463010F4240F311D211572E0EA
:10256000370710F030E020E025583B4F30938206CB
:1025700020938106B8CFF6E08F9FB0011124685FE9
:102580007B4F46E050E0CE010E941036C7CF9E013F
:102590002A5F3F4FFE012E173F0731F28081809561
:1025A0008193F9CFC90145E0969587954A95E1F762
:1025B00041E050E0BA0102C0660F771F8A95E2F74A
:1025C000CB016091790470917A04862B972BB90125
:1025D0006B5F7F4FE5E076956795EA95E1F702C07E
:1025E000440F551F6A95E2F7842B952B90937A043C
:1025F00080937904A5CF1F93CF93DF93EC01162F1F
:10260000FE018491811104C0DF91CF911F91089543
:10261000612F0E946A122196F3CFFF920F931F93AE
:10262000CF93DF93EC01F62EFC0101900020E9F737
:102630008F0101501109C017D10728F0CDB7DEB7BF
:10264000E5E00C94B3356F2D89910E946A12F3CFA7
:10265000CF93382FE0918106F0918206EB57F4403A
:1026600020917804622F70E0CF010E947635281BFC
:10267000822F332369F066E00E94C135C82FC15014
:1026800010F4CF91089560E080E20E946A12F7CFC3
:102690009F01280F311D2115324018F080E0F0E035
:1026A000E0E08E0F9F2F911D85589B4F90938206DF
:1026B00080938106E6CFEEEFF1E086E0DF011D9228
:1026C0008A95E9F70E94BD100895AAE2B0E0EBE612
:1026D000F3E10C94993587EA96E02091F100DC0152
:1026E0002D93CD01B6E08F3A9B07B9F78091A806EC
:1026F000833009F472C0B8F4813009F449C08230E3
:1027000009F4B5C08091E80083FF8DC28091A706CF
:102710009091A8069A3008F086C2E92FF0E0E758B9
:10272000F94C0C9403368A3009F490C08B3009F4CC
:1027300071C0893039F78091A706813219F78091ED
:10274000AB069091AC06009711F00297D9F68091F4
:10275000E800877F8093E8008091E80082FF38C01E
:102760009091F3008091F200029731F48091F10092
:10277000813011F0863021F48091F10080939A0627
:102780008091E8008B778093E8000E947307BACFAE
:102790008091A706813A09F0B5CF8091E800877F44
:1027A0008093E8008091AB069091AC06892B61F490
:1027B00068E08BE996E070E00E941F088091E800D5
:1027C0008B778093E8009ECF60E090E080E0F3CFCD
:1027D0008091A5068111C0CF95CF8091A706813A3F
:1027E00009F090CF8091AB069091AC06892B09F04F
:1027F00089CF8091E800877F8093E8008091E8008E
:1028000080FFFCCF809186018093F1008091E800E9
:102810008E77B9CF8091A706813209F073CF80916E
:10282000AB069091AC06892B09F06CCF8091E80043
:10283000877F8093E8000E9473078091A9068093A8
:102840008601109298060E945B135CCF8091A706C8
:10285000813209F057CF8091E800877F8093E800AC
:102860000E9473078091AA06809399064BCF8091AE
:10287000A706813A09F046CF8091E800877F8093D0
:10288000E8008091E80080FFFCCF80919906BCCFE2
:10289000803899F0823809F0C6C18091AB068F70FC
:1028A000873008F0C0C18093E9008091EB0085FB80
:1028B000882780F91092E90006C08091A3069091C4
:1028C000A406911182609091E800977F9093E800B0
:1028D0008093F1001092F1008091E8008E779FC103
:1028E000882309F48DC1823009F09DC18091A90629
:1028F000811190C18091AB068F702FEF280F263089
:1029000008F091C18093E9002091EB0020FF82C183
:10291000933031F48091EB0080628093EB007AC1B8
:102920009091EB0090619093EB0021E030E001C0CA
:10293000220F8A95EAF72093EA001092EA0080912C
:10294000EB008860EACF81116EC11091A9061F7754
:102950008091E3008078812B8093E3008091E800F0
:10296000877F8093E8000E9473078091E80080FFD2
:10297000FCCF8091E30080688093E30082E0111136
:1029800083E08093A5064FC18058823008F04BC188
:102990002091A9063091AA062C3DE3E03E07A1F55F
:1029A00083E08A838AE289834FB7F894DE01139625
:1029B00020E03EE051E2E32FF0E050935700E49135
:1029C00020FF03C0E295EF703F5FEF708E2F90E025
:1029D000EA30C0F0C7968D939D932F5F243159F74D
:1029E0004FBF8091E800877F8093E8006AE270E043
:1029F000CE0101960E941F088091E8008B7780939A
:102A0000E80011C1C096E7CF8091AB069091AC066B
:102A1000432F55274330510509F44AC078F541301A
:102A2000510509F47AC08BE590E0ECE4FCE042301B
:102A3000510509F0F8C02091E800277F2093E800B5
:102A40002091AD063091AE068217930708F49C01E1
:102A500040E02115310509F065C0411163C0809146
:102A6000E80082FDC9CF8091A506882329F2853030
:102A700019F28091E80083FFF2CFBECF41325105B9
:102A800009F43CC04232510509F0CDC083309105B4
:102A900008F0C9C0FC01EE0FFF1FE251FE4F01908C
:102AA000F081E02D85519E4FDC018C9190E01AC0A1
:102AB000332721303105D1F02115310561F0223065
:102AC000310509F0B0C0E9EBFCE0E4918E2F90E015
:102AD000E9EBFCE007C0E1EEFCE0E4918E2F90E032
:102AE000E1EEFCE0009709F49EC0A5CFE9ECFCE024
:102AF000E4918E2F90E0E9ECFCE0F4CF8330910577
:102B000008F091C0880F991FFC01EC50FE4F019016
:102B1000F081E02D89E090E08ECF82E190E0E7EA5D
:102B2000FCE089CF8091A506882309F465CF853024
:102B300009F462CF8091E80083FD5ECF8091E800C8
:102B400082FD8DCF8091E80080FF83CF9091F300CC
:102B50008091F2002115310519F08830910550F06F
:102B600041E0089709F040E08091E8008E7780937B
:102B7000E8006FCF44914093F10031962150310924
:102B80000196E8CF803809F04EC08091E800877F39
:102B90008093E8008091A6068093F1009DCE81117C
:102BA00042C01091A9061230F0F58091E800877FAD
:102BB0008093E8001093A6060E947307112311F07A
:102BC00084E005C08091E30087FDFACF81E0809327
:102BD000A50642E061EC81E00E94920742E261ECCE
:102BE00084E00E94920742E261EC82E00E94920738
:102BF00042E260EC83E00E9492078091A50613C038
:102C00008091A906813079F481E0933009F080E069
:102C10008093A4061092E9008091E800877F80935A
:102C2000E8000E9473078091E80083FF0AC080914A
:102C3000E800877F8093E8008091EB0080628093BA
:102C4000EB00AA96E3E00C94B535109298060E942A
:102C50005B132FEF84E39CE0215080409040E1F72C
:102C600000C0000088E19AE00FB6F894A895809320
:102C700060000FBE90936000FFCFCF92DF92EF9283
:102C8000FF926B017C010E940009B701A60188E058
:102C900090E00E945536FF90EF90DF90CF9008951E
:102CA000B0E0A0E0E6E5F6E10C949035182FC62FD1
:102CB000D42F822E0091730400FF4CC0E02FE695C4
:102CC000F0E0E751FE4F808180939203802F8E7F4A
:102CD0008230E9F4E42F493708F0E8E7F0E0E85FF4
:102CE000FC4FC1113CC02491F22FE22F00FF0FC016
:102CF0008091890190918A0133E0839FD001112452
:102D0000AB56BC4F891708F49FC00E94E90D809113
:102D10007404811308C0809175048C1304C08091E1
:102D200076048D1729F08091940382608093940338
:102D300010937404C0937504D0937604882051F0E6
:102D4000609173047091740480917504909176047D
:102D50000E943D16CDB7DEB7ECE00C94AC35EC2EFE
:102D6000F12CE4919E2ECE2ED12C26E0129FC00194
:102D700011242FEF30E0B9010E947635812F90E0C9
:102D8000880F991FF5E5F69FA001F79F500D1124BC
:102D9000841B950BB82EBB0CB80EA9014E195F0908
:102DA0004C9DC0014D9D900D5C9D900D1124F92FFF
:102DB000CB9DA0011124452F5527D901A41BB50B8C
:102DC000AC9DA001AD9D500DBC9D500D1124D901AD
:102DD000AB19B1095D01AE9CD001AF9CB00DBE9C9A
:102DE000B00D1124AB2FBB272A1B3B0B2C9DD00110
:102DF0002D9DB00D3C9DB00D11242B2F623071051F
:102E0000A1F050F46115710509F470CF61307105BE
:102E100081F0292FF52F6ACF6430710569F080F0B9
:102E20006630710509F462CFF4CF2E2FE92FFB2F06
:102E30005DCF2E2FE52F5ACF292FFE2FEB2F56CF08
:102E4000E92FF92D252F52CF1196EC9311972C9342
:102E50001296FC9312978F5F139654CFE3E7F4E03A
:102E600043812CE0421B08F440E021E06281818133
:102E70000E9450160895E3E7F4E043812CE0420FEE
:102E800008F44FEF21E0628181810E94501608957D
:102E9000E3E7F4E0628121E1621B08F460E021E0F5
:102EA000438181810E9450160895E3E7F4E0628136
:102EB00021E1620F08F46FEF21E0438181810E94DC
:102EC00050160895E3E7F4E0818121E043816281B7
:102ED00081510E9450160895E3E7F4E0818121E0DA
:102EE000438162818F5E0E9450160895809177041D
:102EF000882319F081508093770460917304709156
:102F0000740480917504909176040E943D16089592
:102F100080917704833018F48F5F809377046091F9
:102F200073047091740480917504909176040E94EA
:102F30003D1608958091730480FF1EC081708260E9
:102F4000809373048091940381608093940366233B
:102F500051F06091730470917404809175049091A4
:102F600076040E943D1620E040917604609175043D
:102F7000809174040E945016089580917304869580
:102F8000815009F481E061E00E949A17089561E0A0
:102F900081E00E949A170895E3E7F4E083E08083DC
:102FA00011828FEF828388E783831482A2E9B3E0E2
:102FB00012968C911297836012968C936081718126
:102FC000828193810E943D16089568EE7EEF90E025
:102FD00080E00E94613660E082E090E00E9443362B
:102FE00060E083E090E00E94433610927F0260E050
:102FF00084E090E00E94433664E082E290E00E9428
:10300000433660E085E090E00E94433660E086E071
:1030100090E00E9443366FEF87E090E00E944336D5
:1030200040E050E0BA0188E090E00E94553660E050
:103030008DE090E00E94433640E050E0BA0188E124
:1030400090E00E94553660E087E190E00E944336B0
:1030500040E050E0BA018CE190E00E94553670E00B
:1030600060E080E290E00E94613640E050E0BA010A
:1030700088E190E00E94553680E00E94920F0E9405
:10308000AB0F40E050E0BA018FE090E00E9455366F
:10309000EBE7F3E015821682178281E0808382E3FA
:1030A00090E0928381838AE090E0948383834081DF
:1030B00051816281738183E190E00E9455360895C9
:1030C000B0E0A0E0E6E6F8E10C9495357901C82F70
:1030D000880FDD0B41155105A9F0FE0193E0EE0FBD
:1030E000FF1F9A95E1F7E55FFE4F818192818F572F
:1030F0009D4F208130E04217530708F49A01A9013F
:103100000E942636CE010E940035D82E8823D1F0A9
:1031100001151105B9F083E0CC0FDD1F8A95E1F7A9
:10312000FE01E55FFE4F438150E00417150708F4E8
:10313000A801C55FDE4F6C817D816F577D4FC70150
:103140000E9426368D2DCDB7DEB7E7E00C94B13561
:10315000A5E0B0E0EEEAF8E10C9492358D83E62E1E
:103160005A01F22E68018091B5068A3028F080E07D
:103170002596EAE00C94AE358D818A30C4F31A822C
:1031800019828A836B832C8363E070E0CE01029600
:103190000E94E4088983E0924301F092560110E016
:1031A00000E030E020E044E050E0BE016F5F7F4F80
:1031B00086E00E9460188823D1F24E2D50E030E066
:1031C00020E0B50187E00E946018882381F230E09A
:1031D00020E041E050E0BE016B5F7F4F88E00E943D
:1031E0006018882321F20F2D10E0960150E040E096
:1031F00070E060E089E00E946018BACFA8E0B0E01B
:10320000E4E0F9E10C94983585E0E3E7F4E0DE01D1
:10321000119601900D928A95E1F780919203909119
:103220009303A09194038E839F83A8872885409160
:10323000ED025091EE026091EF027091F0023FB703
:10324000F8948091900690919106A0919206B09189
:1032500093063FBF841B950BA60BB70B84369105D5
:10326000A105B10510F42223C1F010E000E030E028
:1032700020E048E050E0BE016F5F7F4F85E00E9494
:103280006018882369F00E9492086093ED027093A1
:10329000EE028093EF029093F0021092940381E08B
:1032A0002896E4E00C94B435A4E0B0E0EAE5F9E156
:1032B0000C9498354091E9025091EA026091EB023A
:1032C0007091EC022FB7F89480919006909191063E
:1032D000A0919206B09193062FBF841B950BA60B6D
:1032E000B70B11E084369105A105B10538F10E94B4
:1032F0004A0E882341F10E9492086E5F7F4F8F4FE4
:103300009F4F69837A838B839C8310E000E030E0D9
:1033100020E044E050E0BE016F5F7F4F84E00E94F8
:103320006018182F882351F00E9492086093E902D8
:103330007093EA028093EB029093EC02812F249623
:10334000E4E00C94B4350E9492080091F1021091CF
:10335000F2022091F3023091F402600F711F821F7C
:10336000931FCBCFA1E0B0E0E8EBF9E10C948F35EF
:10337000762E4A015901680101E010E09E012F5F9D
:103380003F4F50E040E070E060E00E946018182F6E
:10339000882309F440C0F401408151816281738126
:1033A0002FB7F8948091900690919106A091920683
:1033B000B09193062FBF841B950BA60BB70B8436D9
:1033C0009105A105B10538F4B701C6010E94E408D2
:1033D0009981891701F18701950150E040E070E083
:1033E00060E0872D0E946018B82EB701C6010E94C8
:1033F000E40811E09981981310E01B2139F00E9434
:103400009208F4016083718382839383812F2196D4
:10341000EDE00C94AB35A701B601C5010E9426363C
:10342000F5CFA2E0B0E0E7E1FAE10C94933582E059
:10343000E82EF12C09E812E09E012F5F3F4F45EE88
:1034400052E063E082E00E94B219C82E882339F16D
:1034500000E080E01DC0D090FB02D00E2D2D30E0AA
:10346000A901445F5C4F7A01E1E0F0E0EC0FFD1F41
:10347000E00FF11D1081FA019081191BB12E1B1470
:103480009CF0912F17FD90E0191B111118C00F5FD0
:103490009091FA020917F8F281110E941B0B8C2DF2
:1034A0002296E9E00C94AF35BA94F70180818F5FE2
:1034B000808360E08D2D0E94F7118C2DE0CF1F5F7F
:1034C000F70180818150808361E08D2D0E94F7118A
:1034D0008C2DDBCFA6E0B0E0E0E7FAE10C94943568
:1034E0006B0186E0E82EF12C02E812E09E012F5FCE
:1034F0003F4F41EE52E061E080E00E94B219882324
:1035000049F096E0FE013196ABEDB2E001900D92EC
:103510009A95E1F796E0EBEDF2E0D60101900D927D
:103520009A95E1F72696E8E00C94B0350E94800E5B
:1035300080930A0180910A01882359F01092870133
:1035400085E2809388010E944A0E81110E94143402
:10355000089585E280938701F4CF90E080E00E9497
:103560003D36883E9E4F19F40E946710089580E012
:10357000089528E030E043E060E086E30E94FC31FB
:103580000895ACE0B0E0E7ECFAE10C9494354F8399
:10359000588769877A878B879C8780915603882311
:1035A00099F00E94B91A80E50E9474328AEB8A95DC
:1035B000F1F700C00E948C328878992780389105F5
:1035C00009F487C00E94A4320E944A0E882309F49D
:1035D0006BC00E9492080091130210911402209176
:1035E0001502309116026B017C01C01AD10AE20A61
:1035F000F30A97018601083011052105310508F409
:1036000053C0609313027093140280931502909339
:1036100016020091650310916603209167033091B3
:103620006803601B710B820B930B6233710581057C
:10363000910580F410925A031092590310925C0382
:1036400010925B0310925E0310925D031092600370
:1036500010925F03109164030E94800E482FBE01F8
:10366000695F7F4F89E593E0112309F45FC00E94F1
:103670000D0C00916403109156030E94800E41E0EE
:103680004827BE01695F7F4F8DE593E0011709F47C
:1036900050C00E940D0C86E0FE013796A3E7B3E010
:1036A00001900D928A95E1F786E0FE013796DE01E2
:1036B000119601900D928A95E1F729813A814B810B
:1036C0005C816D817E8180E090E02C96E8E00C9436
:1036D000B0350E948C320E948C327C010E948C3268
:1036E00020E0E22AF82A0E948C328C010E948C325F
:1036F00020E0022B182B0E94A432F894B70180918D
:10370000590390915A030E94F80C90935A038093A6
:103710005903B80180915B0390915C030E94F80CFF
:1037200090935C0380935B0378944ECF0E94930C3C
:10373000A0CF0E94930CAFCFCF93DF93D82FC62F8B
:103740000E94B91A8D2F80680E9474328C2F0E94BB
:1037500074328AEB8A95F1F700C00E94A43283E4A8
:1037600092E00197F1F700C00000DF91CF9108953A
:10377000CF9362E370E00E947635C72F8EE00E94FF
:103780009C1B6C2F8FE00E949C1B60E080E50E94D8
:103790009C1BCF9108959C0182384EE3940710F052
:1037A00021E83EE3309362032093610341E04093BC
:1037B000630340915603442331F0892B29F0C9015A
:1037C00001970E94B81B089587EE93E0FACFFB01A2
:1037D000808191810E94CB1B0895209161033091DB
:1037E00062032115310511F428EE33E0820F931F97
:1037F0001816190614F081E090E00E94CB1B089582
:10380000CF93DF93C82F0E94B91A8C2F0E94743275
:103810008FE792E00197F1F700C000000E948C3220
:10382000EC010E94A4329AE69A95F1F700C0CE010D
:103830009927DF91CF910895CF93DF930E94800E57
:10384000811142C00E94F431269A0E94B91A6AE599
:103850008AE30E949C1B2FEF80E792E0215080407A
:103860009040E1F700C0000082E00E94001C83E06D
:103870000E94001C84E00E94001C85E00E94001C45
:1038800086E00E94001C60E080E10E949C1B80E0BA
:103890000E94001CD82F81E00E94001CC82F0E94AB
:1038A000A432D73419F481E0C13009F080E081708E
:1038B00080935603882341F087EE93E00E94B81B63
:1038C00060E080E50E949C1BDF91CF9108951F92DC
:1038D0000F920FB60F9211242F933F934F935F9344
:1038E0006F937F938F939F93AF93BF93CF93DF9308
:1038F000EF93FF93D091E900DF708091EC00C82F27
:10390000C17080FDC0E81092E9008091F000877FCF
:103910008093F00078940E9465131092E9008091E2
:10392000F00088608093F000CD2BCF70C093E90049
:10393000FF91EF91DF91CF91BF91AF919F918F91C7
:103940007F916F915F914F913F912F910F900FBE9B
:103950000F901F9018951F920F920FB60F9211247F
:103960002F933F934F935F936F937F938F939F9387
:10397000AF93BF93EF93FF938091E10082FF09C063
:103980008091E20082FF05C08091E1008B7F8093EF
:10399000E1008091DA0080FF24C08091D80080FF90
:1039A00020C08091DA008E7F8093DA008091D90068
:1039B00080FF9DC080E189BD82E189BD09B400FE20
:1039C000FDCF81E08093A50680919706811109C003
:1039D0000E94F9060E94C4078091E20084608093EF
:1039E000E2008091E10080FF17C08091E20080FF3B
:1039F00013C08091E2008E7F8093E2008091E2000C
:103A000080618093E2008091D80080628093D8002A
:103A100019BC85E08093A5068091E10084FF2BC04E
:103A20008091E20084FF27C080E189BD82E189BDE9
:103A300089B5982F917080FFFBCF8091D8008F7D42
:103A40008093D8008091E1008F7E8093E100809187
:103A5000E2008F7E8093E2008091E200816080939B
:103A6000E2008091A606882309F447C084E0809391
:103A7000A5068091A5068091E10083FF27C0809173
:103A8000E20083FF23C08091E100877F8093E10003
:103A900082E08093A5061092A6068091E1008E7FB9
:103AA0008093E1008091E2008E7F8093E20080911C
:103AB000E20080618093E20042E060E080E00E94EA
:103AC00092078091F00088608093F000FF91EF9161
:103AD000BF91AF919F918F917F916F915F914F9126
:103AE0003F912F910F900FBE0F901F90189519BC0A
:103AF0001092A5061092970674CF8091E30087FD7F
:103B000093E09093A506B5CF78941F921FB61F92AD
:103B100011248F939F93AF93BF93809190069091C0
:103B20009106A0919206B09193060196A11DB11D38
:103B30008093900690939106A0939206B09393067B
:103B4000BF91AF919F918F911F901FBE1F901895AD
:103B50009C014FB7F8948091900690919106A091A6
:103B60009206B09193064FBF821B930B08952FB717
:103B7000F8948091900690919106A0919206B09150
:103B800093062FBF089582E00E9422110E94B71D64
:103B9000909384038093830382E080938503089548
:103BA000AEE1B0E0E6EDFDE10C94983540918C0378
:103BB00050918D0360918E0370918F0380919003DB
:103BC000909191030E94C11A20938C0330938D032E
:103BD00040938E0350938F036093900370939103EF
:103BE00086E0ECE8F3E0DE01179601900D928A95ED
:103BF000E1F786E0FE013796DE011D9601900D92F9
:103C00008A95E1F786E0FE013D96DE01119601906E
:103C10000D928A95E1F786E0FE013196ACE8B3E0BB
:103C200001900D928A95E1F786E0ECE8F3E0DE0181
:103C3000599601900D928A95E1F786E0FE017996FA
:103C4000DE01179601900D928A95E1F71B8D0C8D80
:103C5000912F902B80918503992309F4A2C0813084
:103C600009F45BC0823009F08EC00E94B71D9093AA
:103C700084038093830386E0FE013796DE0111966C
:103C800001900D928A95E1F786E0FE013196DE0102
:103C9000539601900D928A95E1F786E0FE017396A6
:103CA000DE01179601900D928A95E1F786E0FE01FC
:103CB0003796ACE8B3E001900D928A95E1F746E0C3
:103CC00050E066E873E08CE893E00E941936892B97
:103CD00079F0E0918B06F0918C06309749F082E004
:103CE00080938C030480F581E02D8CE893E00995A6
:103CF00010928E0310928F031092900310929103F2
:103D000086E0ECE8F3E0A6E8B3E001900D928A9536
:103D1000E1F76E96E4E00C94B43580917B03882340
:103D200009F4A9CF8091AF060E949F0B8111A3CF08
:103D3000812F110F990B97FF03C0919581959109E0
:103D4000002E000C110B17FF03C0119501951109EE
:103D5000800F911F2091790330917A03820F931F76
:103D600090937A038093790320917C0330917D03B3
:103D7000821793070CF47FCF10927A031092790385
:103D80000E94C31D78CF0E94B71D90938403809337
:103D9000830381E08093850310927A031092790364
:103DA0006ACF8130E1F0823019F5809183039091E0
:103DB00084030E94A81D40917E0350917F0364E616
:103DC000649F9001659F300D11242817390708F072
:103DD00052CF1092850382E00E94DD104CCF80917B
:103DE0008303909184030E94A81DC39708F443CFD6
:103DF00010927A0310927903109285033CCFA2E1CE
:103E0000B0E0E5E0FFE10C948B358C01DC0113960A
:103E10008D919C911497892B39F08C9111969C91DE
:103E200089238F3F09F0E2C56296E1E10C94A73542
:103E30000E94F80FF82E682F89819A810E94690BE1
:103E400069817A818F2D0E94EA0F7C01F8018281BD
:103E5000882309F4BDC5C70182519F45409708F0EA
:103E60005FC58FEF93E00E942F36811128C0FEEED0
:103E7000EF0E57E2852E53E0952EE11032C01C82E2
:103E80001B82442443944AE0342E74018FEFE81AD5
:103E9000F80AC4010E942F3689831A82882379F098
:103EA0009FEF980F933058F58A83498292E0890EEC
:103EB000911CC7010E942F368B83811121C08091F4
:103EC0007402877009F4B0CFF8018281882309F465
:103ED000ABCF8091F80282FFA7CF82E00E94EA1068
:103EE000A3CF811424E0920651F3C4010E942F361F
:103EF000811101C0EA943FEF831A930ABECF4701B4
:103F0000DE0111967D01F7012081222309F4BDCF46
:103F1000213009F06DC091818281913061F4F2E02D
:103F2000EF0EF11C65E070E0893311F460E570E09C
:103F30000E94E11107C0923039F522E0E20EF11C37
:103F40000E948E11FFEFEF1AFF0A8FE99FE00197A1
:103F5000F1F700C00000AFE9BFE01197F1F700C032
:103F60000000EFE9FFE03197F1F700C000008FE9B2
:103F70009FE00197F1F700C00000AFE9BFE01197A3
:103F8000F1F700C00000BFCF933031F432E0E30E10
:103F9000F11C0E945911D6CF943021F08FEFE81A0E
:103FA000F80AD0CF92E0E90EF11C30E020E0B70132
:103FB0006F5F7F4FD70111964C918053990B8A30D8
:103FC000910558F02150310908F4BCCFEFE9FFE02A
:103FD0003197F1F700C00000F5CF329EF001339E1B
:103FE000F00D11249C012E0F3F1F842F7B01DFCF8A
:103FF000E22FF0E0E754FE4F5490822F869586958D
:10400000869590E0FC01E755FE4F64902770712C77
:10401000022E02C0759467940A94E2F731E063229D
:104020007724FC01E756FE4FA490B12C022E02C06B
:10403000B594A7940A94E2F7A1E0AA22BB24FC015C
:10404000E757FE4FC490D12C02C0D594C7942A954F
:10405000E2F7B1E0CB22DD246114710419F081EEA6
:104060000E948E11A114B10419F086EE0E948E11E7
:10407000E9E365E070E05E1202C060E570E0852D66
:104080000E94E111A114B10419F086EE0E945911A9
:104090006114710419F081EE0E945911C114D10408
:1040A00009F450CF65E070E08CE242CF81E00E94DD
:1040B00022110E94D11003CF81E00E94DD10F9CFC0
:1040C00082E0F5CFAEEBEA16ADE5FA0609F446C09C
:1040D000BFEBEB16BDE5FB0609F04EC4882309F4DF
:1040E000EECE80917E0390917F03019718161906FA
:1040F0000CF440C081E090E03DC0882309F4DFCE9D
:1041000080917B0391E0892780937B0340917B031F
:1041100050917C0360917D0370917E0383E190E078
:104120000E945536CCCE882309F4C9CE80917C03F9
:1041300090917D03059690937D0380937C03E6CF59
:10414000882309F4BCCE80917C0390917D03059770
:104150008530910584F785E090E0EDCF882309F460
:10416000AECE80917E0390917F030196883EE3E07E
:104170009E072CF490937F0380937E03C7CF87EE36
:1041800093E0F8CFF70108C4E45FF10921E030E0E3
:1041900001C0220FEA95EAF796E0ECE8F3E0DE01D1
:1041A000179601900D929A95E1F796E0FE013796E9
:1041B000DE011D9601900D929A95E1F7988588236E
:1041C00089F1292B2E8786E0FE013D96DE011196AE
:1041D00001900D928A95E1F786E0FE013196ACE8F8
:1041E000B3E001900D928A95E1F7F8018281F6E142
:1041F000EF16FCE5FF0609F075C0882309F45DC0E1
:10420000809198068A7A91E009F490E090931702E1
:1042100069E2811165E38CEF91E00E949E080E94A3
:1042200080104DCE20952923CDCF90E080E00E94D4
:10423000CB1B1092690343CE80916103909162037E
:1042400062E370E00E947635462F50916903577003
:10425000852F880F572F5170582B60E070E08FE04A
:1042600090E05ECF84E690E00E94ED1B28CE8CE9C2
:104270009FEFFACF88EE93E0F7CF88E19CEFF4CF81
:104280009091640381E089270E94E10B18CE809110
:104290006903811101C084E08F5F18160CF081E082
:1042A000883008F087E08093690309CE8091690324
:1042B000811101C084E08150F0CF809117028111FB
:1042C0000FC089E2EEEFF1E024E032E09191891332
:1042D00003C0DF0111971C922E173F07B9F79FCF3C
:1042E00085E3F0CF8111F3C080919806827229ECAA
:1042F000E2162CE5F20609F4E2C008F079C095EC6C
:10430000E9169CE5F90609F4D5C008F058C0B3ECED
:10431000EB16BCE5FB0609F4C1C008F0C6C0F2EC20
:10432000EF16FCE5FF0609F48FC0D80112968C91B8
:104330001297ED90FC90882309F407C1C7010E94F1
:10434000F80FD82E682FC7010E94690BB7018D2D79
:104350000E94EA0F0E949B097C01882EF801D280FE
:10436000B580B2943FE0B322809174028770C1F0AF
:10437000AD2CDD20B1F08F2D807F803421F080E2E4
:104380008E0D883068F08091F80282FF09C082E0CB
:104390000E94EA10809174028770AA24A39481116C
:1043A000A12C9F2C92942FE09222FBE0F91508F4A7
:1043B0003EC1E92DF0E0ED57F94C0C94033648E48A
:1043C00057E165E577E127ECE2162CE5F20609F402
:1043D00069C04CE657E162E677E138ECE3163CE56C
:1043E000F30608F45FC045E557E168E477E15AC099
:1043F0009DECE9169CE5F90609F466C0C8F446E7A9
:1044000057E168E877E1BBECEB16BCE5FB0609F485
:1044100049C04BE357E16EE277E1ECECEE16ECE5D8
:10442000FE0608F43FC048E857E166E777E13AC086
:10443000F6EDEF16FCE5FF0608F441CD2DE5E2169A
:10444000F20609F43CCD71CF8091730480FF1EC049
:104450008E7F8093730460917304709174048091D3
:104460007504909176040E943D16809194038160BA
:10447000809394033FEF80E792E03150804090407A
:10448000E1F700C000000E94E90D19CD8160809322
:10449000730461E086950E949A1711CD4DEB57E1A8
:1044A00067EC77E10E94FA080ACD47EC57E16DEB23
:1044B00077E1F8CF42E657E16CE677E1F3CF4EE2E1
:1044C00057E16BE377E1EECF61E081E0E4CFAAE56D
:1044D000EA16ADE5FA06A9F168F4E114ECE5FE068A
:1044E000B9F0FEEDEF16FCE5FF0609F01ECF0E94C5
:1044F000E5170CC02CE5E2162DE5F206C1F018F127
:1045000087EAE8168DE5F80609F00FCF0E94251618
:10451000109298060E945B139FEFA4E3BCE09150B9
:10452000A040B040E1F700C000000E9481088091E7
:10453000F80282FB882780F991E089270E94061102
:10454000F4CE81E0FBCF80E0F9CFC7010E94350BAC
:10455000D82EFCCE2F2D2F70C22E8F2D807F19F0DC
:10456000C29490EFC922DD20B9F0CC2069F080E23E
:104570008E0D883010F0811009C080919806C82AED
:10458000C09298060E9480108E2D4FC080917D02AF
:10459000C82AC0927D02F6CF8E2D0E945911CC20E0
:1045A00009F445C080E28E0D883010F0811004C0FF
:1045B0008C2D0E94240B06C0C09480917D02C822DD
:1045C000C0927D020E94801032C03F2D3F70C32EEA
:1045D0008F2D807F803219F0C29480EFC82288200E
:1045E000A1F081E0881609F46AC0DD2009F474C0E6
:1045F000BB2009F46AC0D80115968C91159780FFED
:10460000C3CF8F7015968C9360C02091F80222FD65
:1046100034C0DD2061F1CC2039F080919806C82AA1
:10462000C09298060E94801080E00E948E11A92DF1
:10463000A850BB0B149710F40E946F0EAA2009F427
:10464000F3CB8091740280FDEFCBF8011282859547
:10465000859585950E942211C8010E94FF1E8091B8
:1046600074028595859585950E94DD10DDCB80E0EF
:104670000E945911CC20D9F29BCFDD2099F0909166
:104680007E028C2D892BB11003C00E944F11CFCF19
:10469000A1E0BA12FACF22FFCACF891741F2809364
:1046A0007E02C5CFB11006C00E941E0B8C2D0E9449
:1046B0004811BDCFB1E0BB1609F4B9CFF5CFDD206D
:1046C00031F0E5E0EB1508F4B2CF8C2DDECFF4E04D
:1046D000FB1508F4ACCFEACFBB2041F3B9E38B1252
:1046E00017C1EFEFF7EE23E0E150F0402040E1F793
:1046F00000C000008E2D0E94591199CF8F2D8695F4
:104700008695837061F0813009F091CFC701937075
:10471000D11002C090E080E00E94B80888CFC701A5
:104720009370D11002C090E080E00E94CE087FCF4D
:104730008F2D837091F5D1107ACF4E2D42954695ED
:104740004770440F440F8E2D8F70042E01C0880FC8
:104750000A94EAF72E2D2071E4FE07C02FE030E026
:1047600001C0220F4A95EAF720953F2D36953695E0
:104770003370323069F050F440917F02313029F0CB
:10478000822B84230E942E1152CF842B822BFACFAE
:10479000282B80917F028227F5CF8695DD2011F0AE
:1047A0008F2D8170882309F442CF4E2D4295469576
:1047B0004770440F440F8E2D8F70042E01C0880F58
:1047C0000A94EAF72E2D2071E4FE07C02FE030E0B6
:1047D00001C0220F4A95EAF720953F2D3695369570
:1047E0003370323069F050F44091AF06313029F027
:1047F000822B84230E94CA101ACF842B822BFACFDB
:10480000282B8091AF068227F5CF9F2D9F70F92E20
:10481000DD2029F0892F0E9422118E2D36CF8E2D7A
:104820000E9448118F2D0E94DD1001CF8E2DA2EF26
:104830008A16B1F1A81570F0B0EF8B16D1F0E1EF48
:104840008E1691F0DD2009F45EC0B1109DCE8F2D43
:104850008F712AC0F3EF8F1651F124EF8212F2CF3D
:104860008091F80282FD2FC08F2D8F71DD20D9F24B
:104870001BC0DD2081F034E03B1508F4D8CE2F2D8D
:104880002F7181E090E001C0880F2A95EAF790919E
:10489000AF068927AFCF85E08B1508F4C8CEEFCFE0
:1048A0008F2D8F71D110BFCF0E942211C0CE80E01A
:1048B000DD2009F49FCF9F2D9F7181E001C0880FFB
:1048C0009A95EAF797CFDD2099F09F2D9F71F92EE9
:1048D000892F0E9422118091F80282FF07C0A8E070
:1048E000FA9EC00111248360809374028F2DDCCF67
:1048F00081E00E94EA10B1E0BB1508F098CE82E09A
:104900000E94EA1094CEBB2041F0893309F4E9CE2D
:104910008FE19EE40197F1F7EBCE8F2D8F7183CF5E
:10492000F0E1EF16FFE5FF0609F4C0CB21E1E21646
:104930002FE5F20609F4C4CBF0927003E0926F0306
:10494000F801808191819093720380937103828139
:10495000FDEBEF16FDE5FF0609F4F2CB08F0B2CB54
:104960003BEBE3163DE5F30609F4C7CB9CEBE916F8
:104970009DE5F90609F4D7CB882331F080918503B2
:10498000823011F40E94C31DC7019A9581159F4181
:1049900008F0F8CBF701FF27D80112968C91E43F7D
:1049A000F10548F0E93FF10508F4EECBE83BBDE541
:1049B000FB0709F469CC882309F417CCE15BFD45BA
:1049C000EA30F10508F011CCE157F94C0C940336AC
:1049D00030E1E3163FE5F30609F46ECB81E1E8161A
:1049E0008FE5F80609F0A8CF82E067CB85E0F801F3
:1049F000DE01119601900D928A95E1F7D801129689
:104A00002C9189819A81211113CA0E94350BF82EAD
:104A100017CA1F93CF93DF9380914102807F09F0E3
:104A200049C080913E02882309F444C080917302FA
:104A3000D091420260913C0270913D02A0913F02F0
:104A4000B0914002C62FC72316E0D81799F190E025
:104A5000109711F0CF3F19F401968770F6CF189F89
:104A60009001199F300D1124F901ED5BFD4F41813B
:104A70004713F2CF40814613EFCF42814111ECCF73
:104A8000438154814A1B5B0B483C510528F78091B8
:104A900041028F70806180934102F901E85BFD4F14
:104AA00080818F70806180838CE392E00E94FF1E82
:104AB0000E942B0BDF91CF911F910895A1E1B0E0EF
:104AC000E4E6F5E20C9492358C0185E0F801DE0114
:104AD0001D9601900D928A95E1F7F801E2808CE332
:104AE000A82E82E0B82E60913F02709140026115BD
:104AF000710509F426C190913C0240913D02892F35
:104B000084238F3F09F41DC120813181C380D4806B
:104B1000F0903E02F601E61BF70BFF2009F4DCC023
:104B200080914102582F507FE83CF10508F09FC06A
:104B300051116BC0FE2C431314C0921312C0E1102C
:104B400010C08F70806180934102C5010E94FF1EDA
:104B500080914102F80185838F2D6196EAE00C94E3
:104B6000AE35C114D10429F0822F83238F3F09F081
:104B700003C180E0F82FF170DF2E80FF3CC08091F0
:104B800073024091420256E0841315C02D873E8780
:104B90008D859E850E942710292F22952F70223007
:104BA000F0F0243018F59F70F1F0F8019581907FB6
:104BB000D1F4D12C1EC090E0589FF001599FF00D08
:104BC0001124ED5BFD4F6181361306C06081261311
:104BD00003C06281E6120FC001968770D5CF9F7027
:104BE00011F0882331F3805E883018F3C8010E94E9
:104BF000FF1EFD2CB1CFEE2009F4AECF8091410213
:104C0000816080934102F12CA7CF431306C0921319
:104C100004C0F801EE2009F479C0C8010E943410E4
:104C2000882309F1EE20F9F080914102803270F082
:104C300020913C0230913D0238872F831986DB8614
:104C4000CA868C87CE0107960E94FF1E86E0F80177
:104C5000ACE3B2E001900D928A95E1F70E9409253C
:104C6000FF24F39479CFC8010E94FF1EF9CF5111A0
:104C70000AC08CE392E00E94FF1E86E0F5011192CB
:104C80008A95E9F7C0CF43130FC092130DC0E1100E
:104C90000BC0F8018583C8010E94FF1E86E0F50164
:104CA00011928A95E9F758CFC8010E9434108823E1
:104CB000D1F2EE20C1F280914102803238F220918F
:104CC0003C0230913D023A8329831B82DD82CC82F3
:104CD0008E83CE010196B8CFE83CF105F8F6FE2CA4
:104CE000EE2009F243131FC092131DC080914102B0
:104CF00080FD10C0982F907F69F0F8018583903F68
:104D000031F0982F907F905F8F70892B8583C80139
:104D10000E94FF1E86E0F801ACE3B2E001900D9224
:104D20008A95E1F719CFC8010E94341081118ECF06
:104D300080914102816080934102C8010E94FF1E60
:104D40000BCFEE2009F48FCFC8010E943410F82E4B
:104D5000882309F488CF86E0F801ACE3B2E0019043
:104D60000D928A95E1F780913C0290913D020E945C
:104D700027100E940925F0CE81E08E25FBCEA7E109
:104D8000B0E0E5ECF6E20C9499354B8B5C8B6D8BC7
:104D90007E8B8F8B611110927D021A8A198A85E0B1
:104DA000FE017396DE011D9601900D928A95E1F742
:104DB00086E0FE013D96DE01179601900D928A95E0
:104DC000E1F7CE0107960E945E25882359F016E090
:104DD0008091730290914202891345C06796E3E087
:104DE0000C94B53586E0FE013796DE0111960190F0
:104DF0000D928A95E1F78A859B85892B41F38F81F6
:104E0000988589238F3F19F32091420230E0C90130
:104E1000019687709927409173024817190681F40B
:104E2000109298060E945B13109242021092730235
:104E300086E0ECE3F2E0DF011D928A95E9F7C7CF47
:104E400096E0929FD001939FB00D1124AD5BBD4FB2
:104E5000FE01319601900D929A95E1F780934202FE
:104E60000E942B0BB4CF819FC00111248D5B9D4FFD
:104E70000E945E25882309F4B1CF8091730290E0EF
:104E800001968770992780937302A2CFA2E0B0E0C9
:104E9000ECE4F7E20C948E3546EBA42E46E0B42EFB
:104EA00050E0E52E51E0F52E712C88248394912C4E
:104EB000D7018D917D010E940B0D00C0F50161901D
:104EC0005F0136E0C32E31E0D32EF60110E000E0A2
:104ED0004191A42FA295AF70B0E090968C9194016F
:104EE000002E01C0220F0A94EAF790E04F7002C032
:104EF000959587954A95E2F780FD93C0622A0F5FEA
:104F00001F4F0430110521F7F701319780810E946E
:104F10001F0DF0EAFA95F1F7F5018291861519F067
:104F200060827724739426E0E21621E0F20609F00D
:104F3000BFCFEE24E394F12CD6018D916D010E9438
:104F40000B0D00C0C701002E01C0880F0A94EAF7BC
:104F5000582FA6EBB6E090E0A92E91E0B92E482F8D
:104F60004095F50181915F01282F22952F7030E047
:104F7000F90120A19D9130E08F7002C035952795F1
:104F80008A95E2F7BD0161507109852F892B20FFB9
:104F900002C0842F8923FB0180838081981711F040
:104FA00077247394F6E0AF16F1E0BF06D1F6F60170
:104FB000319780810E941F0D20EA2A95F1F70F5F3B
:104FC0001F4F0830110509F0B7CF0091F602772086
:104FD00059F181E0809306020E94B71D909305026B
:104FE0008093040280910402909105020E94A81D02
:104FF0000597F0F010E0015C1C4F46E050E066EBD6
:1050000076E0C8010E941936892B41F086E0E6EB74
:10501000F6E0D80101900D928A95E1F71092060210
:1050200007C0209562226BCF809106028111DACFF2
:105030000E944A0EF82EE091F602811185C0F0E040
:10504000E15CFC4F86E0A2E8B2E001900D928A9507
:10505000E1F766E070E082E892E00E94E408809365
:1050600081024091150350E06091140370E0645F89
:105070007C4FCE0101960E94263689819A819093B9
:105080008A028093890262E070E0CE0101960E945C
:10509000E40880938802C0908B02D0908C02E0904C
:1050A0008D02F0908E028091070290910802A091EB
:1050B0000902B0910A02C816D906EA06FB06D1F029
:1050C000C0920702D0920802E0920902F0920A020E
:1050D0000E944A0E81110EC00E949208C61AD70A79
:1050E000E80AF90AC092F102D092F202E092F302C9
:1050F000F092F402809196028823F1F080FF0DC0B7
:1051000080918F0280FF1DC09091730491609093F5
:10511000730460E086950E949A178091960281FF41
:1051200009C020E04091920260919102809190022A
:105130000E94501610929602872D2296EEE00C9453
:10514000AA350E94340EE9CF2CEB36E086E0D90177
:105150001D928A95E9F70E2F10E0015C1C4F80919B
:10516000B5068A30E8F56AE67AE1C8010E94340D96
:10517000882309F452C061E17AE1C8010E94340D2C
:10518000882309F44AC064E579E1C8010E94340D1E
:10519000882309F442C06EEF78E1C8010E94340D03
:1051A0008823D9F11092B50681E080930D02009119
:1051B000F50210E0015C1C4F46E050E06CEB76E03D
:1051C000C8010E941936892B09F4B6CF86E0ECEBB2
:1051D000F6E0D80101900D928A95E1F77F2CACCFD3
:1051E00080910B0290910C020E94A81D843F914077
:1051F00008F0B9CF80910D02882309F49DCF109259
:105200000D02E091F502F0E0E15CFC4F96E0DF0179
:105210001D929A95E9F7782E8FCF8091B5068F3F32
:1052200031F08F5F8093B5068A3008F4BDCF0E94BD
:10523000B71D90930C0280930B02DCCF1F921FB618
:105240001F9211248F939F93AF93BF9380918F06EA
:10525000811113C08091900690919106A0919206C1
:10526000B09193064196A11DB11D80939006909335
:105270009106A0939206B0939306BF91AF919F9130
:105280008F911F901FBE1F901895CDB7DEB7AF97B7
:105290000FB6F894DEBF0FBECDBF85B7806885BF5F
:1052A00085B7806885BF84B7877F84BF0FB6F894C1
:1052B000A8958091600088618093600010926000E2
:1052C0000FBE80E890E00FB6F89480936100909351
:1052D00061000FBE8AE299E09093FB018093FA018E
:1052E0000E94F9060E94C4078091E20084608093C6
:1052F000E20078948091A5068823A1F01091E9003E
:105300001F709091EC00892F817090FD80E8182B20
:105310001092E9008091E80083FD0E9465131F70E0
:105320001093E90082E084BD93E095BD9AEF97BDAC
:1053300080936E001092F1021092F2021092F3022A
:105340001092F4020E946710811102C00E94AB0FFC
:105350000E94961A80910A010E94961A8091060175
:105360000E941F0D809107010E941F0D809108016E
:105370000E941F0D809109010E941F0D00E011E0A5
:10538000B6E0EB2EB1E0FB2ED8018D918D010E948D
:105390001F0DE016F106C1F780910A0196E0811118
:1053A00090E09093F60286E0891B8093F5020E94BC
:1053B0004A0E811102C00E941734E6EBF6E0AFE31B
:1053C000B3E011921D9226E0E23CF207D1F70E9471
:1053D000AD1A811102C00E94E51782E090E00E94A0
:1053E0002F368093FF0284E090E00E942F36182F22
:1053F00082E290E00E942F36982F812F9093F8023E
:105400008093F7020E9446278FE39CE90197F1F70A
:1054100000C000000E94462780913F0380FF08C023
:105420006FEF7FEF90E080E00E9461360E9481087C
:1054300083E090E00E942F360E942E118091AF06EB
:105440000E94F50B0E944A0E882309F4C1C180E036
:1054500080933A0380E8809378040E94CE326DE016
:1054600070E08CE492E00E94B20E892BE9F5809105
:105470003A0363E070E081FDADC189E492E00E94EF
:10548000B20E892B89F56DE070E089E392E00E940D
:10549000B20E892B49F50E949208605A75418F4FD0
:1054A0009F4F609383067093840680938506909344
:1054B0008606EBE7F4E080E092E0DF019C011D92BC
:1054C00021503040E1F7F0938206E09381068FEFA0
:1054D0009FEF90937A048093790481E0809388060B
:1054E0008093870610923B038091F902811136C0A8
:1054F0000E94AD1A811104C00E94E5170E94CC17CA
:1055000088E090E00E9437366093730470937404CF
:1055100080937504909376048091940383608093C4
:1055200094036E7F71F40E94CC1788E090E00E9493
:10553000373660937304709374048093750490936A
:1055400076040E9400098091730480FF04C060E02B
:1055500086950E949A1781E08093F90280910A0152
:1055600092E0811190E09093140382E0382F391B70
:105570003093FB0290910A018093150390910A01E8
:105580008093FA0243ED51E0A1EDAA2EA1E0BA2EDC
:1055900085019A0161E070E0D9018D919D01E82FAC
:1055A000E295EF70F0E0D1A08F707B0101C0EE0CAE
:1055B0008A95EAF79E2D90959D2191A382A18E292F
:1055C00082A3F80181918F01E82FE295EF70F0E05E
:1055D000D1A08F707B0101C0EE0C8A95EAF79E2D59
:1055E00090959D2191A382A18E2982A3A55DB140B2
:1055F00099F68FE891E00197F1F700C00000109153
:10560000150366E173E0FB018E2F861B811708F4FA
:10561000E4C00E944A0E811102C00E9417340E9409
:105620001C1C0E944A0E81112EC08BEA9EE09093B2
:105630006201809361012AE130E030935D012093A3
:105640005C018AE390E09093600180935F0146E102
:1056500059E050936A0140936901309365012093AA
:105660006401909368018093670147EE5BE150937A
:1056700072014093710130936D0120936C019093FE
:10568000700180936F010E94AD1A8823A9F08FE00A
:1056900090E00E943736172F862F912F917022E3CA
:1056A000FC012E9FC0012F9F900D11240E94CB1B47
:1056B00016951770109369030E94970E83E190E08E
:1056C0000E9437368B019C0160937B0310937C030F
:1056D00080937D0330937E0310927F0310928003AA
:1056E000109281031092820381E08093FC0283E791
:1056F00091E090938C0680938B068091A50600E143
:1057000012E1853009F4D4C00E94462770E0E72EEC
:1057100073E0F72E4DED51E05DA74CA74CE053E050
:105720000DED11E02FE333E0F7019191D9018D9157
:105730009D01D8016D918D0186234E175F0709F4F5
:10574000C3C0981791F30E944A0E582E5DEDC52EE6
:1057500051E0D52E6FE3A62E63E0B62E00E0F501F2
:1057600011915F01D6018D916D011823F7017190A0
:105770007F01711629F17126912C88248394872D3D
:105780008821B1F05520A1F09EA20FA391E0812FB6
:10579000882109F490E098A70E94B71D8160782FB6
:1057A0009AA789A74EA15FA168A58AA50E94BF26D6
:1057B0009394880CF8E09F12E2CFF70131971083A1
:1057C0000F5F0C3061F60E949208CC24C3949DC0F8
:1057D00082E03ECE86E492E052CEDA012D91AD0118
:1057E000822F82958F7090E0DC0190968C9190E0F2
:1057F0002F7002C0959587952A95E2F78170D501A3
:105800009D915D01292F22952F7030E0D90190964E
:105810002C9130E09F7002C0359527959A95E2F75C
:1058200090E020FD92E0892B8193EECE8091A50639
:10583000843051F10E94DC0E0E94D01D10928F0620
:10584000E8E1CE2ED12CF0E4EF2E0FB6F894A89517
:10585000C09260000FBEE092600083B7817F8460D9
:1058600083BF83B7816083BF7894889583B78E7F29
:1058700083BF0FB6F894A8958091600088618093EB
:105880006000109260000FBE8091A406882381F012
:105890000E944627ADEDB1E0EFE3F3E081919D91E9
:1058A000892309F089C52BE433E02E173F07B1F7B0
:1058B0008091A506853009F4B9CF109298060E9410
:1058C0005B130E946F0E20CF98133DCF0E94B71D2F
:1058D0008C018091FD029091FE0208171907A1F03A
:1058E0008FEF89A38AA31BA20E94B71D8160782F26
:1058F0009DA38CA349A15AA16BA18DA10E94BF2693
:105900001093FE020093FD02C12C0E944A0EE12C6E
:10591000D12C80911503E81608F427C1D1100E94FC
:105920001B0B80918806882351F180913C03909154
:105930003D030E94A81DC29708F088C120917904F8
:1059400030917A042115310509F099C280918706BA
:105950008823A9F00E949208009183061091840682
:105960002091850630918606601B710B820B930B8C
:105970006F3F7F4F8F4F9F4710F40E94DC0EC11086
:1059800001C0D1100E94F70E0E94D01D0E946F0E20
:1059900090913E03891721F080933E030E94920864
:1059A0008091A506843009F43FC30E944A0E8823E3
:1059B00009F4A3CE0E9492082091510321116DC0D9
:1059C00000914D0310914E0320914F0330915003ED
:1059D0006B017C01C01AD10AE20AF30A9701860121
:1059E000043F11402105310508F457C060934D0371
:1059F00070934E0380934F039093500380914B0319
:105A000090914C03019690934C0380934B03198221
:105A10008E010F5F1F4F21E050E040E060E08AE020
:105A20000E94A818811106C080914B0390914C03ED
:105A30000A979CF181E080935103809357039981E9
:105A4000911101C080E0809358038091560310E0CB
:105A5000882329F00E94800E11E0811112E08091CC
:105A60005803882309F4A4C40E94800E8111A2C4A3
:105A700082E0182B0E945E106B017C01DC01CB01DF
:105A80008C7FBC01CD01612BC616D706E806F9064E
:105A900011F00E948D0F0E94970E80915803882369
:105AA00009F42BCE0E9492086B017C018091520375
:105AB00090915303A0915403B0915503A70196010F
:105AC000281B390B4A0B5B0BDA01C9010497A105AE
:105AD000B10580F119821A821B821C828E010F5F30
