:100000000C9473060C9490060C9490060C94B334E4
:100010000C9490060C9490060C9490060C94900608
:100020000C9490060C9490060C94BA1C0C94761CBC
:100030000C94B1290C9490060C9490060C949006A4
:100040000C9490060C9490060C9490060C949006D8
:100050000C9490060C94931D0C9490060C949006AE
:100060000C9490060C9490060C9490060C949006B8
:100070000C9490060C9490060C9490060C949006A8
:100080000C9490060C9490060C9490060C94900698
:100090000C9490060C9490060C9490060C94900688
:1000A0000C9490060C9490060C949006050109029D
:1000B000A10185020901A1000509190129081500FE
:1000C0002501950875018102050109300931158165
:1000D000257F95027508810609381581257F9501D0
:1000E00075088106050C0A38021581257F95017572
:1000F000088106C0C005010980A101850319012AF4
:10010000B700150126B700950175108100C0050CD8
:100110000901A101850419012AA002150126A002E6
:10012000950175108100C00660FF0961A101096297
:10013000150026FF00952075088102096315002629
:10014000FF00952075089102C005010906A101056F
:100150000719E029E7150025019508750181029529
:1001600001750881010507190029FF150026FF0008
:100170009506750881000508190129059505750181
:100180009102950175039101C0000000000000007C
:10019000000000000000000000000000000000005F
:1001A000000000000000000000000000007E0F00C2
:1001B000D4FFFFFFC700000078000000000000002F
:1001C000002A2B28000000000000000000000000B2
:1001D0000000000029000000002C1E3420212224F1
:1001E000342627252E362D3738271E1F202122237F
:1001F0002425263333362E37381F04050607080911
:100200000A0B0C0D0E0F10111213141516171819D6
:100210001A1B1C1D2F3130232D3504050607080934
:100220000A0B0C0D0E0F10111213141516171819B6
:100230001A1B1C1D2F3130354C00DA0281FFD9F119
:10024000DB20A4A62EAF00A0C000A1C800AED580C0
:10025000A81FD300408D1420006162636465666747
:1002600068696A6B6C6D6E6F707172737475767796
:1002700078797A313233343536373839305245422D
:10028000545F2D3D5B5D5C233B27602C2E2F20208F
:100290002700204B00202043004B6579203A202086
:1002A0005200202044003030202053002020202005
:1002B000204350490042616C6C3A0052543A002F7E
:1002C000004D563A004C3A008081828384858687AF
:1002D00088898A8B8C8D8E8F9091929394A0A1A205
:1002E000A3A4A5A6A7A8A9AAABACADAEAFB0B1B266
:1002F000B3B4C0C1C2C3C4C5C6C7C8C9CACBCCCDBC
:10030000CECFD0D1D2D3D40000010101010101012F
:1003100001010202020202020202020303030303BA
:100320000303030404040404040405050505050689
:100330000606060607070707070808080809090947
:10034000090A0A0A0B0B0B0C0C0C0D0D0D0E0E0EF0
:100350000F0F0F1010111111121213131414151581
:1003600016161717181819191A1A1B1B1C1D1D1EF3
:100370001E1F202021222223242425262627282947
:10038000292A2B2C2D2D2E2F303132323334353675
:100390003738393A3B3C3D3E3F4041424344454675
:1003A0004748494A4C4D4E4F505153545556585951
:1003B0005A5B5D5E5F616264656668696B6C6D6FF8
:1003C0007072737577787A7B7D7E8082838587886B
:1003D0008A8C8E8F91939596989A9C9EA0A2A3A5A5
:1003E000A7A9ABADAFB1B3B5B7BABCBEC0C2C4C6A6
:1003F000C9CBCDCFD1D4D6D8DBDDDFE2E4E7E9EB62
:10040000EEF0F3F5F8FAFDFF0000000000003E5B9F
:100410004F5B3E003E6B4F6B3E001C3E7C3E1C0023
:10042000183C7E3C18001C577D571C001C5E7F5EEC
:100430001C0000183C180000FFE7C3E7FF0000188D
:1004400024180000FFE7DBE7FF0030483A060E0003
:10045000262979292600407F05050700407F0525CC
:100460003F005A3CE73C5A007F3E1C1C0800081C19
:100470001C3E7F0014227F2214005F5F005F5F003C
:1004800006097F017F00006689956A0060606060F0
:10049000600094A2FFA2940008047E0408001020CB
:1004A0007E20100008082A1C0800081C2A080800E2
:1004B0001E10101010000C1E0C1E0C0030383E38A0
:1004C0003000060E3E0E0600000000000000000096
:1004D0005F000000000700070000147F147F140075
:1004E000242A7F2A1200231308646200364956200A
:1004F0005000000807030000001C224100000041DA
:10050000221C00002A1C7F1C2A0008083E08080044
:1005100000807030000008080808080000006060D3
:1005200000002010080402003E5149453E000042F0
:100530007F4000007249494946002141494D33003E
:100540001814127F10002745454539003C4A494997
:100550003100412111090700364949493600464911
:1005600049291E0000001400000000403400000073
:100570000008142241001414141414000041221421
:1005800008000201590906003E415D594E007C12E7
:1005900011127C007F49494936003E414141220009
:1005A0007F4141413E007F49494941007F09090996
:1005B00001003E41415173007F0808087F0000415F
:1005C0007F4100002040413F01007F08142241008C
:1005D0007F40404040007F021C027F007F040810E3
:1005E0007F003E4141413E007F09090906003E412E
:1005F00051215E007F0919294600264949493200E8
:1006000003017F0103003F4040403F001F20402086
:100610001F003F4038403F00631408146300030488
:10062000780403006159494D4300007F4141410076
:10063000020408102000004141417F000402010231
:1006400004004040404040000003070800002054E0
:10065000547840007F2844443800384444442800FB
:10066000384444287F0038545454180000087E0948
:1006700002001824241C78007F0804047800004439
:100680007D4000002040403D00007E1028440000D6
:1006900000417F4000007C04780478007C0804045A
:1006A00078003844444438007C1824241800182466
:1006B00024187C007C080404080048545454240086
:1006C00004043F4424003C4040207C001C20402087
:1006D0001C003C4030403C004428102844004C9012
:1006E00090907C004464544C440000083641000063
:1006F00000007700000000413608000002010204FB
:1007000002003C2623263C00000000000000000000
:10071000000000000000000000F81E030101020CB0
:100720000808080808101010101804020206FC003F
:1007300000000000000000000000000000F01E03A8
:100740000101030C0808080808080808080C06033B
:10075000010103FE00000000000000000000000096
:100760000000F03E030103060C0C0C080808080802
:100770000808080C060101031EE00000000000004C
:10078000000000000000E0F0F0F0E0ECEEF7F370A5
:1007900020007C7C7C7E007E7E7E7F7F7F000080D0
:1007A000C0E07E5B4F5BFEC00000C000DCD7DEDE39
:1007B000DED7DC00C00000000000000000000000E8
:1007C0000000000000000000000000000000000029
:1007D000C020008060180000C07F00000000000002
:1007E000020200000000000000020200000007F802
:1007F0000000000000C020008060100000FF00002A
:1008000000000000030300000000000000030300DC
:1008100000000003FE0000000000C0200080601007
:100820000000FF00000000000003030000000000C3
:10083000000000030300000000FF000000000000B3
:100840000000000000000F1F3F7F7F7F7F7F3F1E63
:100850000C001F1F1F3F003F3F3F7F7F7F00307B0B
:100860007F7830202030787F3B0003000F7F0F0F10
:100870000F7F0F00030000000000000000000000D8
:100880000000000000000000000000000000000761
:1008900018200007182000001F30203018081020F2
:1008A0002030181020202030180810204020301F41
:1008B000000000000718200007182000001F30204B
:1008C00020100808102020300808081030203018A8
:1008D000081830201F00000000071820000718200B
:1008E00000001F3020301818302030180830203019
:1008F0001808081830202038080700000000000001
:1009000000000000000000000000000000000000E7
:1009100000000000000000000000000000000000D7
:1009200000000000000000000000000000000000C7
:1009300000000000000000000000000000000000B7
:10094000000000000000000000AF00AE29001E0003
:100950001F00000020002100220000002B001400D6
:100960001A0002530800150017002800E0000400D8
:1009700016000000070009000A00000001511D00D8
:100980001B0000000600190005003000E200E30033
:10099000000000000608904391412C424F00500097
:1009A0005100520000000000000000002D00270050
:1009B0002600000025002400230000002F00130063
:1009C000120028000C0018001C002900340033001D
:1009D0000F0000000E000D000B0000008700380023
:1009E00037000000360010001100320089002E0090
:1009F000000000001908E30028002A002B022B0049
:100A00001D0A1D08000000000000000029021E024F
:100A10002F00000020022102220200002B021402FB
:100A20001A0201000802150217020100E002040286
:100A300016020000070209020A02000001001D025E
:100A40001B0200000602190205023002E202E30264
:100A50000000000001000100010001000100010090
:100A600001000100000000000000000087022702D2
:100A70002602000025022402230200002F02130296
:100A8000120201000C0218021C020100340233029F
:100A90000F0200000E020D020B0200008702380256
:100AA00037020000360210021102320289022E02C1
:100AB0000000000001000100010001000100010030
:100AC00001000100000000000000000001003A00E9
:100AD0003B0000003C003D003E0000000100010022
:100AE0002400010025002600010001000100010092
:100AF0002100000022002300330200000100010059
:100B00001E0000001F0020002D0225020100010030
:100B10000000000001000100010001002B002B0279
:100B2000010001000000000000000000440043003C
:100B300042000000410040003F000000450001006D
:100B40004E00010052004B000100010001004D0069
:100B50004F000000510050004A0000000100010059
:100B6000F6000000F500F400F800F70001000100B5
:100B7000000000000100010001000100010001006F
:100B8000010001000000000000000000C25C010044
:100B9000010000000100010001000000C35CC55C11
:100BA000C75C0100C95C010001000100C45CC65CB7
:100BB000C85C0000CA5CAD5DAC5D0000B15DB25DBB
:100BC000B35D0000B45DAF5DAE5DDE5C005CB05D4A
:100BD000000000000100010001000100010001000F
:100BE000010001000000000000000000D25CD15CA8
:100BF000D05C0000CF5CCE5CCD5C00000100010049
:100C00005D5D0100D55CD45CD35C0100A65DA75D91
:100C1000AA5D0000A85DA95DAB5D000001000100B8
:100C200001000000010001000100DE5C0100010084
:100C300000000000010001000100010001000100AE
:100C400001000100000000000000000009025B003C
:100C5000030100A0FA0904000001030101000921B9
:100C60001101000122400007058103080001090469
:100C700001000203000000092111010001222200ED
:100C80000705820320000107050303200001090472
:100C900002000103000000092111010001227B0074
:100CA000070584032000011201000200000008591A
:100CB0004D00010200010200010E036D0074006B83
:100CC00000360034006500000016036D0065006EFC
:100CD00000740061006B006F005F0079006100002C
:100CE00000040309040011241FBECFEFDAE0DEBFC9
:100CF000CDBF11E0A0E0B1E0E8EBFDE602C0059059
:100D00000D92AA3FB107D9F726E0AAEFB1E001C0E2
:100D10001D92AA3BB207E1F70E94D8290C94A7368E
:100D20000C9400008F929F92AF92BF92CF92DF926D
:100D3000EF92FF9290918C01981305C09091AA06B2
:100D4000903209F44BC080938C0190E29093AA06F4
:100D5000C82ED12CF12CE12C1092A906C701B601A6
:100D60002AE030E040E050E00E941136605D6033E0
:100D700031F0C114D104E104F10409F460E260939C
:100D8000A80660E28AE0C816D104E104F10490F0FC
:100D90008AE0882E912CA12CB12CC701B601A501A7
:100DA00094010E941136CA01B901A50194010E9463
:100DB0001136605D6093A70620E284E6C816D10470
:100DC000E104F10448F0C701B60124E630E040E058
:100DD00050E00E941136205D2093A60686EA96E038
:100DE000FF90EF90DF90CF90BF90AF909F908F904B
:100DF0000895E8EDF0E080818E7F80831092E2001C
:100E00001092DA001092E100A0EEB0E08C918160C7
:100E10008C9380818F77808319BCA7EDB0E08C9193
:100E20008E7F8C9380818F7E808310928D060895B3
:100E30002091E4003091E50095E6A9012091EC00B5
:100E4000822F817020FF06C08091E80080FF06C0DD
:100E500080E008952091E80022FD1AC080919B0651
:100E6000882389F0853089F08091EB0085FD0FC0E3
:100E70002091E4003091E50042175307F9F29150B8
:100E8000E1F684E0089582E0089583E0089581E02A
:100E90000895EF92FF920F931F93CF937C018B01E4
:100EA0000E941807C82F811117C08091E80085FDA6
:100EB0000BC08091E8008E778093E8000E941807AD
:100EC000882399F3C82F08C0F70181917F0180938F
:100ED000F1000150110949F78C2FCF911F910F910B
:100EE000FF90EF90089580919D0687FF13C0809139
:100EF000E80082FF06C08091E8008B778093E800CD
:100F000004C080919B068111F2CF089580919B06C9
:100F10008823D9F38091E80080FFF8CF8091E80022
:100F20008E77ECCF982F9093E900242F762F50E006
:100F3000891731F07091EC002091ED005091F00094
:100F400021FD07C09F5F973071F78093E90081E032
:100F500008953091EB003E7F3093EB003091ED002F
:100F60003D7F3093ED003091EB0031603093EB002A
:100F70007093EC002093ED005093F0002091EE0070
:100F800027FDE0CF80E00895CF92DF92EF92FF92AD
:100F90000F931F93CF93DF93C8EDD0E088818F7EAE
:100FA0008883E7EDF0E080818160808384E082BF08
:100FB00081E080938D0688818E7F888302EE10E029
:100FC000F80110821092DA0081EEC82ED12CF601C1
:100FD000108288818F778883888180688883888160
:100FE0008F7D888319BC10929B0610929C061092EC
:100FF0009A061092990690EEE92EF12CF701808165
:101000008B7F808388818160888342E060E080E01C
:101010000E949207F60180818E7F8083F801808193
:1010200081608083808188608083F70180818E7FEA
:101030008083888180618883DF91CF911F910F9198
:10104000FF90EF90DF90CF900895FC018091A30670
:101050009091A40686179707A0F06115710529F4F1
:101060009091E8009E779093E80090E061157105FB
:1010700051F4911108C08091E80082FF34C080E0F3
:101080000895BC01F2CF80919B068823C1F1853081
:10109000C1F18091E80083FD30C08091E80082FDBD
:1010A000EACF8091E80080FFE1CF8091F3002091AA
:1010B000F200382F6115710519F02830310558F00C
:1010C00091E02830310509F090E02091E8002E777A
:1010D0002093E800CBCF81918093F100615071099A
:1010E0002F5F3F4FE7CF80919B06882341F08530EB
:1010F00041F08091E80083FFBECF81E0089582E057
:10110000089583E00895089580919006089587E7F3
:1011100097E7909301088093000888E19AE00FB662
:10112000F894A895809360000FBE90936000FFCF65
:101130002FB7F89460918606709187068091880693
:10114000909189062FBF08959C01FC0132969FEF74
:1011500080E04191461751F09F3F19F4411101C0C1
:10116000982F8F5F8630A9F79F3F09F40895290FC4
:10117000311D97FD3A95F901628308952091830608
:10118000309184062817390771F090938406809374
:101190008306E0918106F0918206309721F0008469
:1011A000F185E02D0994089520917F063091800605
:1011B0002817390771F09093800680937F06E0919D
:1011C0008106F0918206309721F00680F781E02DAC
:1011D00009940895FC01680F791F8FEF91E3219125
:1011E000822728E030E087FF09C0880F8927215037
:1011F0003109C9F7E617F70791F70895880FF7CF78
:10120000FA01811101C0FB01099480916904982FB2
:101210009E7F71F48091690481708260809369047B
:1012200080916C04893718F088E780936C040895E6
:10123000843080F7F5CFCF93DF93EDE4F3E0838143
:101240009481A581B681E90188839983AA83BB83B0
:101250001482138216821582DF91CF91089580E067
:10126000089578940895E0919702ED30A4F488E011
:10127000E802F0011124E55FFE4F0680F781E02DC2
:10128000309749F02AEB32E0409199026AE972E026
:101290008091980209940895E1E8F2E087898093AB
:1012A0004301808D8093560108959091F60292FF3C
:1012B00006C0282F28712830F9F4877F846093FFB7
:1012C00006C0282F28712831F1F4877E846120918F
:1012D000F70220FF06C0382F38713830D9F4877FE5
:1012E000816021FF06C0282F28712831D1F4877E24
:1012F000816194FD877E0895282F24712430F9F6AA
:101300008B7F8860DCCF282F2471243101F78B7EFE
:101310008861DDCF382F3171313019F78E7F8860C9
:10132000E0CF282F2171213121F78E7E8861E1CF16
:10133000CF93DF93EC0182389105A9F1D8F5813381
:10134000910509F496C048F58932910509F48AC0DF
:101350008A9709F495C0C11522E5D20708F0B6C0F6
:10136000C11531E5D30708F026C1C83ED10508F004
:101370009CC0C03ED10560F5C83AD10508F087C0D1
:10138000C53AD10508F0EFC0C130D10509F1209769
:10139000F9F0C430D105E0F440C08533910509F47B
:1013A0005AC0C997C1F68091F602837089F0C0EEE9
:1013B000D0E00EC0833E910599F170F4803E910516
:1013C00001F1823E910539F68091F60282FD21C03D
:1013D000CE01DF91CF910895863E910561F1873E60
:1013E000910571F1843E910509F0B5CF8091F70226
:1013F00081FFEECF8091F602C7EED0E084FD0DC0F4
:10140000E7CF8091F60280FD07C19091F70290FF2F
:10141000DFCFC3EED0E084FFDBCFD0E0C0E0D8CF99
:101420008091F60282FDFBC09091F70290FDBFCF44
:1014300084FFCECFF2CF8091F60283FDDDCFC8CFFF
:101440008091F60283FDEEC09091F70291FFF0CFFC
:10145000C4EED0E0BDCF8091F60285FFB9CFC9E2DE
:10146000D0E0B6CF8091F60285FFB2CFC5E3D0E0E1
:10147000AFCF8091F60286FFABCFCAE2D0E0A8CF13
:101480008091F60286FFA4CFC1E3D0E0A1CFCF3B8D
:10149000D10518F6C85AD0E0CC0FDD1FCF56DE4F6D
:1014A0000990D881C02DD46493CFC11540E5D407ED
:1014B00008F064C0C11580E4D80708F05CC0CE0114
:1014C0009A9581159F4108F483CFA7CFC11536E5C2
:1014D000D30718F5C11545E5D40708F084C0C11538
:1014E00084E5D80708F07AC09C2F969596959E01C2
:1014F00023703327C115D34508F462C0C1E0D0E0A2
:1015000002C0CC0FDD1F2A95E2F730E2939FC001A5
:101510001124C82BD92BDA685BCFC1158AE5D8070F
:1015200078F4C11599E5D90708F068C0C11528E518
:10153000D20708F472CFDC2FCC27C06FD06A48CF17
:10154000CE0190568115904208F067CF8D2F8F7194
:101550000E94550990E0982F882788279F719C0149
:101560002C2BE90149C0C55AD0E0C257DE4FC881D3
:10157000D0E0D0642DCFDF70D06A2ACFCE01E4E076
:1015800096958795EA95E1F783702C2F26952695F9
:10159000237040E2249F90011124382B8C2F8370FC
:1015A000C1E0D0E002C0CC0FDD1F8A95E2F7C22B6C
:1015B000D32BDC680DCFDC2FCC27C16FD06A08CFCE
:1015C000C1E0D0E002C0CC0FDD1F2A95E2F720E297
:1015D000929FC0011124C82BD92BEBCFDC2FCC2735
:1015E000C46FD06AF5CE8C2F0E945509C82FD0E069
:1015F000DC2FCC27CC27DF71D062EACE8C2F8F7006
:101600000E94550934E0D695C7953A95E1F7CF7019
:101610009C2FEC01D069DCCEC9E3D0E0D9CEC2EE7C
:10162000D0E0D6CEC6EED0E0D3CE0C949808809110
:101630007E02811110927E020895809590918E060F
:10164000982390938E0608958091730290914202A0
:10165000981301C008958F5F8770FACF990F990F83
:10166000990F890F982F977086958695869523E018
:10167000829FF0011124E85EFD4F50E040E080E0E1
:10168000219130E0092E02C0369527950A94E2F7A1
:1016900021703327042E01C0220F0A94EAF7822B0F
:1016A0004F5F5F4F4330510559F70895990F990FD8
:1016B000990F890F982F977041E001C0440F9A95B8
:1016C000EAF786958695869593E0899FF001112427
:1016D000E85EFD4F30E020E070E05191DF011197AE
:1016E000CB01022E02C0969587950A94E2F781708D
:1016F00081958527842385278C932F5F3F4F233047
:10170000310559F70895982F92959F7011F0892F00
:1017100094E0282F2695269511F09E5F822F8695BE
:1017200009F09F5F892F08959C013A9521153F414B
:1017300050F5FC01EE27F170BC0166277270AC0118
:10174000442754709C012227387094FF0EC080E11A
:10175000EF2B09F480E0672B09F08062452B09F03C
:101760008064232B89F08068089581E0EF2B09F4D1
:1017700080E0672B09F08260452B09F08460232B01
:1017800019F08860089580E00895CF93C82F809164
:101790005A038C1751F00E94980860935B03709372
:1017A0005C0380935D0390935E03C0935A03CF91D3
:1017B0000895CF93C82F0E94830B91E0833009F0E6
:1017C00090E0892F0E94C50B80917B03823031F419
:1017D00010927B038C2F8B7F09F0C82F8C2FCF9119
:1017E0000895CF92DF92EF92FF920F931F93CF93C2
:1017F000DF93FC01EB0190915F03911101C094E034
:101800006081718191509B01092E02C03595279509
:101810000A94E2F7D901092E02C0AA0FBB1F0A944D
:10182000E2F76A1B7B0B71836083628173818B019A
:10183000092E02C0159507950A94E2F7D80102C057
:10184000AA0FBB1F9A95E2F76A1B7B0B7383628317
:1018500081E80138BFEF1B072CF0802F00381105FD
:101860000CF08FE78D8321389FEF390774F1203812
:1018700031056CF5922F91959C83442319F0819545
:101880008D832C830E9498082D81211103C02C8107
:101890002223F9F0609360037093610380936203E5
:1018A00090936303809164039BE0980F973120F439
:1018B000080F009364031D82DF91CF911F910F9158
:1018C000FF90EF90DF90CF90089521E8D3CF2FE7DE
:1018D000D1CFC0906003D0906103E0906203F0909C
:1018E00063036C197D098E099F09643671058105B2
:1018F0009105C0F210926403D5CFFC01DB01228177
:10190000338191E821388FEF38072CF0922F20385F
:1019100031050CF09FE712969C931297208131813C
:1019200021388FEF3807A4F0203831059CF4139646
:101930002C931397442339F0919512969C93129708
:10194000219513962C93118210821382128208958E
:1019500021E8EDCF2FE7EBCF382F20E287FF02C041
:1019600031952DE24AE0832F642F0E94EF35905D80
:101970009093110281110BC02093100220E220935A
:101980000F0220E220930E028EE092E00895642F71
:101990000E94EF35905D90931002832F64E60E94C1
:1019A000EF35882361F3805D80930F02EBCF9C01BC
:1019B000860F971F37FD07C077FD04C097FF02C051
:1019C0008FEF9FE7089577FFFDCF97FDFBCF80E076
:1019D00090E80895E82FE295EF70F0E031A1282F0C
:1019E0002F7081E090E001C0880F2A95EAF7382B2C
:1019F00031A392A18095892382A30895E82FE295CF
:101A0000EF70F0E031A1282F2F7081E090E001C04D
:101A1000880F2A95EAF7982F9095932391A392A186
:101A2000892B82A30895AF92BF92CF92DF92EF925B
:101A3000FF921F93CF93DF936C015B018091AB0604
:101A4000EE24E394F12C8A3018F48AE0E82EF12C8D
:101A5000C1E0D0E0F89462EB76E0C601F5010995AB
:101A6000182F0E943109111104C02196EC16FD06B1
:101A70005CF4812FDF91CF911F91FF90EF90DF9069
:101A8000CF90BF90AF900895CC9F9001CD9F300D27
:101A9000300D112490E080E045E34A95F1F7000015
:101AA000019682179307C1F7D5CF80938A0670936A
:101AB0008C0660938B0680919B068430F9F48093AA
:101AC000E9008FEF9091E800815095FD06C095EDFB
:101AD0009A95F1F700008111F5CF8091E80085FF1C
:101AE0000DC050E040E063E070E08AE896E00E94BC
:101AF00049078091E8008E778093E8000895BC0143
:101B000084E00C94550DBC0183E00C94550D9C01B0
:101B100084E08093E9009FEF8091E800915085FD7B
:101B200006C085ED8A95F1F700009111F5CF8091FF
:101B3000E80085FF0CC050E040E066E070E0C901BD
:101B40000E9449078091E8008E778093E80008950D
:101B5000CF93DF93EC0181E08093E9008FEF9091C8
:101B6000E800815095FD06C095ED9A95F1F70000CB
:101B70008111F5CF8091E80085FF14C050E040E06E
:101B800068E070E0CE010E9449078091E8008E77FE
:101B90008093E80088E0FE01A1E9B6E001900D9293
:101BA0008A95E1F7DF91CF91089560918801809146
:101BB000690480FF20C08091870143E0849FC001B9
:101BC000112485579C4F539A2BB1277F3BB1386026
:101BD0005FB7F894FC01649FE00DF11D1124BF0173
:101BE00068177907D1F45FBF8FE594E00197F1F7AB
:101BF00000C0000008958091890190918A0123E03E
:101C0000829FF0011124E557FC4F8917A0F611823D
:101C1000108212828F5F3396F8CFFC014191CF0181
:101C2000E8E03BB9000000C047FF2BB9440F0000BB
:101C300000C000C000C02BB900C0EA9591F7D0CF1A
:101C4000E9E6F4E080818E7F8083E8E8F3E082813A
:101C5000816082832FEF80E792E0215080409040A6
:101C6000E1F700C000000C94D50D80918002811135
:101C700018C082E39091E30097FD10C0EFE3FCE908
:101C80003197F1F700C000008150A1F782E0809306
:101C900080020E94F90610929B0603C081E08093A7
:101CA000800281E090918002913011F080E00895EF
:101CB00008950E94350E882351F0E0918106F0913D
:101CC0008206309721F00190F081E02D099480E0A8
:101CD000089557985F9A879A8F9825E02A95F1F78B
:101CE000000089B187988F9A90EA9A95F1F790E071
:101CF000880F892F881F990B21E082278170089512
:101D00000E94690E882371F080E08093870182E24F
:101D1000809388011092890184E480938A018093E2
:101D20008B01089582E2F1CF80914D03F901808308
:101D30000C94800ECF92DF92EF92FF920F931F933D
:101D4000CF93DF936C017B0164E670E088E70E942B
:101D50000A33EC0197FD12C010E000E0F601E00F3D
:101D6000F11F849164E670E00E948433EC01892BBA
:101D700029F40F5F1F4F0E151F0581F70E940734CE
:101D8000CE01DF91CF911F910F91FF90EF90DF90E7
:101D9000CF90089580917D0690917E06911103C0A9
:101DA00091E089270895882369F062E070E08AE471
:101DB00099E00E949A0E892B19F080917D06089572
:101DC00010927D0680917D06EBCFCF93C0917D066A
:101DD00080917E068823D1F00E949808605A754150
:101DE0008F4F9F4F6093790670937A0680937B069E
:101DF00090937C06C11108C062E070E088E499E02D
:101E00000E949A0E892B29F0C0917D068C2FCF91CC
:101E1000089581E080937D06F7CFCF93DF93C7E2EB
:101E2000D3E060E0CE010E9473362196C11584E0B4
:101E3000D807B9F7DF91CF9108956F927F928F9273
:101E40009F92AF92BF92CF92DF92EF92FF920F9349
:101E50001F93CF93DF938CE4C82E89E0D82E07EF31
:101E600010E0E801C05CD10936011CC0F501859085
:101E70009490692DC7010E947336682DC7010196A1
:101E80000E94733682E0A80EB11C82E0E80EF11CBD
:101E9000CE15DF0559F780E1680E711C60960C17AE
:101EA0001D0731F07E0180E1E81AF1085301DECF11
:101EB00000541F4F80ECC80ED11C073F83E0180769
:101EC00081F6DF91CF911F910F91FF90EF90DF90FE
:101ED000CF90BF90AF909F908F907F906F9008951C
:101EE00086E290E00C947336CF93C82F6FEF811188
:101EF00063E283E290E00E9473366FEFC11164E009
:101F000084E290E00E9473366FEFC11169E285E2CE
:101F100090E0CF910C94733680E00E94740F60E0E3
:101F200070E0CB010E94700F0E941D0F0E940D0FE8
:101F300081E00C94740F0F931F93CF93DF9320E1F4
:101F4000629FE001112450E0440F551FC40FD51FBC
:101F500030EC839FC00DD11D1124CE0187960E94C5
:101F60005F36082F10E0102F0027CE0188960E94C0
:101F70005F369801282BC901DF91CF911F910F91F6
:101F80000895462F843038F47C3028F4683018F4F3
:101F9000672F0C949B0F90E080E00895CF92DF9222
:101FA000FF920F931F93CF93DF936C010091A506CF
:101FB00080917F02082BC7E0D0E010E0FC2EC80122
:101FC0000C2E02C0959587950A94E2F780FD0CC00F
:101FD0002197A0F7F12C8F2DDF91CF911F910F91B9
:101FE000FF90DF90CF900895B6018C2F0E94C10F13
:101FF0000E949809019761F3EECFCF93DF93EC0134
:102000000E94CE0FBE010E94C10FDF91CF910C94B0
:102010009809FC01808191810E94FD0F92959F702B
:10202000963091F058F4925F9F70923058F4803F50
:1020300019F030F4883E30F481E008959A5FF4CFCF
:10204000843FD1F380E00895883EB0F3813FD1F71B
:10205000F3CF86E290E00E945F36682F70E090E058
:1020600080E0089583E290E00E945F36833289F435
:1020700084E290E00E945F36843059F485E290E07B
:102080000E945F3691E0893209F090E0892F8170DB
:10209000089580E0FCCF80918E0690917D02892B7F
:1020A0008093FC0190917E02992391F0892B80937B
:1020B000FC0120E08EEF91E0FC013191CF01311164
:1020C0002F5FF2E084309F07B9F721110E94170BB0
:1020D00048E050E065E772E08CEF91E00E944936FD
:1020E000892BA9F088E0ECEFF1E0A5E7B2E00190E0
:1020F0000D928A95E1F7E0918106F0918206309782
:1021000031F00280F381E02D8CEF91E00994089585
:1021100090E080E00E94D40890E080E00E94BE0839
:1021200010927D020C944B100E94D90B8093A5064F
:102130000C9488108091A506982F9670963019F40B
:1021400088600C949410877FFCCF21E030E001C0C0
:10215000220F8A95EAF720958091A50682230C9498
:102160009410909174028095892380937402282F93
:10217000277091F4282F082E000C330B92171306AA
:1021800059F09091F70292FD07C085958595859548
:102190000E94A510109274020895CF93C091F70287
:1021A000C2FB992790F9981799F080FBC2F9C09368
:1021B000F7026091F60284E090E00E9473366C2F83
:1021C00082E290E00E94733682E0CF910C94B110CD
:1021D000CF91089521E030E001C0220F8A95EAF7FF
:1021E0008091A506822B0C94941080937F020C940E
:1021F0008810882341F0809590917D0289238093F7
:102200007D020C944B100895882339F090917D0243
:10221000982B90937D020C944B100895882321F005
:102220000E941D0B0C944B100895882339F0909157
:102230008E06982B90938E060C944B10089588234D
:1022400081F19CEF980F913A78F4EEEFF1E024E001
:1022500032E09191891303C0DF0111971C922E1770
:102260003F07B9F70C944B1090E2980F983050F458
:10227000877091E001C0990F8A95EAF7892F0E9433
:102280001D0BF0CF9BE5980F933020F490E080E099
:102290000C94D408885A873120F490E080E00C94A4
:1022A000BE080895CF93C82F882309F44EC08CEF41
:1022B0008C0F813AF8F4EEEFF1E084E092E0DF0178
:1022C0002D91C21759F08A179B07D1F76C2F8CEF0D
:1022D00091E00E94A408CF910C944B102191C2135D
:1022E00003C0DF0111971C928E179F07B9F70E9458
:1022F0004B10ECCF80E28C0F883068F4C77021E07F
:1023000030E001C0220FCA95EAF780918E06822B39
:1023100080938E06E0CFEBE5EC0FE33040F4F0E085
:10232000E257FE4F808190E0CF910C94D408C85AB8
:10233000C73158F4EC2FF0E0EE0FFF1FEF56FE4FC1
:1023400080819181CF910C94BE08CF9108951F9305
:10235000CF93DF93182FEB010E9452118FE99FE07A
:102360000197F1F700C000002197C1F7812FDF919D
:10237000CF911F910C941F110F931F93CF93DF9355
:102380009091FA029923E1F1813009F445C0882344
:10239000E9F1823009F446C0833009F445C08D2F3D
:1023A0009C2F0E94CE0F6D2F7C2F0E94C10FEC013D
:1023B0008C01005E11090830110510F00097B1F58D
:1023C0000E94940B0E9415118C2F0E945211C93348
:1023D000D10589F52FEF87EE93E0215080409040A2
:1023E000E1F700C000008C2F0E941F11CE010E9457
:1023F000940B0830110510F0CD2B11F50E940E1131
:1024000081E0DF91CF911F910F910895C5E0D2E057
:102410006111C5CFD3E0C3CFC5E0D0E06111BFCF1C
:10242000D1E0BDCFCBE0F3CFCBE0F7CF0E94940B50
:102430000E940411C9CF8FE19EE40197F1F7D1CF3B
:102440000E94F910DDCF1F93CF93DF93162F8A30B0
:1024500031F481E0DF91CF911F910C94E4128D3023
:1024600011F480E0F7CFC0917706D091780696E01E
:10247000FE01A1E7B6E001900D929A95E1F7803E4A
:10248000A8F186E0FE0111928A95E9F7C0917706DE
:10249000D0917806111136C046E050E0BE0181E7C8
:1024A00096E00E9449369E0121573440892BA9F5B8
:1024B0002A5F3F4F40916E04642F70E0C9010E9473
:1024C000CF35481B463010F4240F311D211572E022
:1024D000370710F030E020E02F583B4F309378065C
:1024E00020937706DF91CF911F910895F6E08F9F9B
:1024F000B0011124685F7B4F46E050E0CE010E949E
:102500004036C4CF9E012A5F3F4FFE012E173F0782
:1025100019F2808180958193F9CFC90145E09695A4
:1025200087954A95E1F741E050E0BA0102C0660F95
:10253000771F8A95E2F7CB0160916F047091700468
:10254000862B972BB9016B5F7F4FE5E076956795FA
:10255000EA95E1F702C0440F551F6A95E2F7842B14
:10256000952B9093700480936F04A2CF1F93CF9309
:10257000DF93EC01162FFE018491811104C0DF91DD
:10258000CF911F910895612F0E9423122196F3CFBE
:10259000FF920F931F93CF93DF93EC01F62EFC0174
:1025A00001900020E9F78F0101501109C017D107F0
:1025B00030F0DF91CF911F910F91FF9008956F2D13
:1025C00089910E942312F2CFCF93382FE0917706A2
:1025D000F0917806E157F44020916E04622F70E08C
:1025E000CF010E94CF35281B822F332369F066E08C
:1025F0000E94E335C82FC15010F4CF91089560E0D8
:1026000080E20E942312F7CF9F01280F311D211570
:10261000324018F080E0F0E0E0E08E0F9F2F911D37
:102620008F589B4F9093780680937706E6CFEEEF16
:10263000F1E086E0DF011D928A95E9F70C9488109D
:102640001F93CF93DF93CDB7DEB7AA970FB6F89459
:10265000DEBF0FBECDBF8DE996E02091F100DC0119
:102660002D93CD01B6E0853A9B07B9F780919E0680
:10267000833009F472C0B8F4813009F449C0823063
:1026800009F4B5C08091E80083FF8DC280919D065A
:1026900090919E069A3008F086C2E92FF0E0E75547
:1026A000F94C0C9433368A3009F490C08B3009F41D
:1026B00071C0893039F780919D06813219F7809178
:1026C000A1069091A206009711F00297D9F6809189
:1026D000E800877F8093E8008091E80082FF38C09F
:1026E0009091F3008091F200029731F48091F10013
:1026F000813011F0863021F48091F10080939006B2
:102700008091E8008B778093E8000E947307BACF2E
:1027100080919D06813A09F0B5CF8091E800877FCE
:102720008093E8008091A1069091A206892B61F424
:1027300068E081E996E070E00E9425088091E80059
:102740008B778093E8009ECF60E090E080E0F3CF4D
:1027500080919B068111C0CF95CF80919D06813AD3
:1027600009F090CF8091A1069091A206892B09F0E3
:1027700089CF8091E800877F8093E8008091E8000E
:1027800080FFFCCF809186018093F1008091E8006A
:102790008E77B9CF80919D06813209F073CF8091F9
:1027A000A1069091A206892B09F06CCF8091E800D8
:1027B000877F8093E8000E94730780919F06809333
:1027C000860110928E060E9417135CCF80919D06A1
:1027D000813209F057CF8091E800877F8093E8002D
:1027E0000E9473078091A00680938F064BCF809143
:1027F0009D06813A09F046CF8091E800877F80935B
:10280000E8008091E80080FFFCCF80918F06BCCF6C
:10281000803899F0823809F0C6C18091A1068F7086
:10282000873008F0C0C18093E9008091EB0085FB00
:10283000882780F91092E90006C08091990690914E
:102840009A06911182609091E800977F9093E8003A
:102850008093F1001092F1008091E8008E779FC183
:10286000882309F48DC1823009F09DC180919F06B3
:10287000811190C18091A1068F702FEF280F263013
:1028800008F091C18093E9002091EB0020FF82C104
:10289000933031F48091EB0080628093EB007AC139
:1028A0009091EB0090619093EB0021E030E001C04B
:1028B000220F8A95EAF72093EA001092EA008091AD
:1028C000EB008860EACF81116EC110919F061F77DF
:1028D0008091E3008078812B8093E3008091E80071
:1028E000877F8093E8000E9473078091E80080FF53
:1028F000FCCF8091E30080688093E30082E01111B7
:1029000083E080939B064FC18058823008F04BC112
:1029100020919F063091A0062C3DE3E03E07A1F5F3
:1029200083E08A838AE289834FB7F894DE011396A5
:1029300020E03EE051E2E32FF0E050935700E491B5
:1029400020FF03C0E295EF703F5FEF708E2F90E0A5
:10295000EA30C0F0C7968D939D932F5F243159F7CD
:102960004FBF8091E800877F8093E8006AE270E0C3
:10297000CE0101960E9425088091E8008B77809314
:10298000E80011C1C096E7CF8091A1069091A20600
:10299000432F55274330510509F44AC078F541309B
:1029A000510509F47AC08BE590E0ECE4FCE042309C
:1029B000510509F0F8C02091E800277F2093E80036
:1029C0002091A3063091A4068217930708F49C0176
:1029D00040E02115310509F065C0411163C08091C7
:1029E000E80082FDC9CF80919B06882329F28530BB
:1029F00019F28091E80083FFF2CFBECF413251053A
:102A000009F43CC04232510509F0CDC08330910534
:102A100008F0C9C0FC01EE0FFF1FE251FE4F01900C
:102A2000F081E02D85519E4FDC018C9190E01AC021
:102A3000332721303105D1F02115310561F02230E5
:102A4000310509F0B0C0E9EBFCE0E4918E2F90E095
:102A5000E9EBFCE007C0E1EEFCE0E4918E2F90E0B2
:102A6000E1EEFCE0009709F49EC0A5CFE9ECFCE0A4
:102A7000E4918E2F90E0E9ECFCE0F4CF83309105F7
:102A800008F091C0880F991FFC01EC50FE4F019097
:102A9000F081E02D89E090E08ECF82E190E0E7EADE
:102AA000FCE089CF80919B06882309F465CF8530AF
:102AB00009F462CF8091E80083FD5ECF8091E80049
:102AC00082FD8DCF8091E80080FF83CF9091F3004D
:102AD0008091F2002115310519F08830910550F0F0
:102AE00041E0089709F040E08091E8008E778093FC
:102AF000E8006FCF44914093F100319621503109A5
:102B00000196E8CF803809F04EC08091E800877FB9
:102B10008093E80080919C068093F1009DCE811106
:102B200042C010919F061230F0F58091E800877F37
:102B30008093E80010939C060E947307112311F004
:102B400084E005C08091E30087FDFACF81E08093A7
:102B50009B0642E061EC81E00E94920742E261EC58
:102B600084E00E94920742E261EC82E00E949207B8
:102B700042E260EC83E00E94920780919B0613C0C2
:102B800080919F06813079F481E0933009F080E0F4
:102B900080939A061092E9008091E800877F8093E5
:102BA000E8000E9473078091E80083FF0AC08091CB
:102BB000E800877F8093E8008091EB00806280933B
:102BC000EB00AA960FB6F894DEBF0FBECDBFDF9123
:102BD000CF911F910895CF92DF92EF92FF926B01F8
:102BE0007C010E940509B701A60188E090E0FF90F2
:102BF000EF90DF90CF900C9485368F929F92AF929A
:102C0000BF92CF92DF92EF92FF920F931F93CF93D9
:102C1000DF93182FC62FD42F822E0091690400FF56
:102C2000D8C0E02FE695F0E0E751FE4F8081809319
:102C30008803802F8E7F8230E9F4E42F493708F033
:102C4000E8E7F0E0E85FFC4FC11144C02491F22FA7
:102C5000E22F00FF0FC08091890190918A0133E03B
:102C6000839FD0011124A557BC4F891708F4A7C032
:102C70000E94D50D80916A04811308C080916B0475
:102C80008C1304C080916C048D1729F080918A0305
:102C9000826080938A0310936A04C0936B04D0937C
:102CA0006C04882009F495C06091690470916A04ED
:102CB00080916B0490916C04DF91CF911F910F91E3
:102CC000FF90EF90DF90CF90BF90AF909F908F904C
:102CD0000C94EB15EC2EF12CE4919E2ECE2ED12CE3
:102CE00026E0129FC00111242FEF30E0B9010E94AD
:102CF000CF35812F90E0880F991FF5E5F69FA00151
:102D0000F79F500D1124841B950BB82EBB0CB80EE9
:102D1000A9014E195F094C9DC0014D9D900D5C9D10
:102D2000900D1124F92FCB9DA0011124452F55277B
:102D3000D901A41BB50BAC9DA001AD9D500DBC9D50
:102D4000500D1124D901AB19B1095D01AE9CD00120
:102D5000AF9CB00DBE9CB00D1124AB2FBB272A1B1E
:102D60003B0B2C9DD0012D9DB00D3C9DB00D112431
:102D70002B2F62307105A1F050F46115710509F433
:102D800068CF6130710581F0292FF52F62CF643053
:102D9000710569F080F06630710509F45ACFF4CFFF
:102DA0002E2FE92FFB2F55CF2E2FE52F52CF292F76
:102DB000FE2FEB2F4ECFE92FF92D252F4ACF11965D
:102DC000EC9311972C931296FC9312978F5F1396A6
:102DD0004CCFDF91CF911F910F91FF90EF90DF903B
:102DE000CF90BF90AF909F908F900895E9E6F4E068
:102DF00043812CE0421B08F440E021E062818181A4
:102E00000C94FD15E9E6F4E043812CE0420F08F450
:102E10004FEF21E0628181810C94FD15E9E6F4E039
:102E2000628121E1621B08F460E021E0438181813D
:102E30000C94FD15E9E6F4E0628121E1620F08F4EB
:102E40006FEF21E0438181810C94FD15E9E6F4E008
:102E5000818121E04381628181510C94FD15E9E675
:102E6000F4E0818121E0438162818F5E0C94FD1545
:102E700080916D04882319F0815080936D046091D6
:102E8000690470916A0480916B0490916C040C94B5
:102E9000EB1580916D04833018F48F5F80936D047F
:102EA0006091690470916A0480916B0490916C0444
:102EB0000C94EB158091690480FF1EC081708260C4
:102EC0008093690480918A03816080938A036623DA
:102ED00051F06091690470916A0480916B04909143
:102EE0006C040E94EB1520E040916C0460916B042F
:102EF00080916A040C94FD1508958091690486956B
:102F0000815009F481E061E00C945A1761E081E09E
:102F10000C945A17E9E6F4E083E0808311828FEF86
:102F2000828388E783831482A8E8B3E012968C91A9
:102F30001297836012968C93608171818281938154
:102F40000C94EB1569EE7EEF90E080E00E949136E4
:102F500060E082E090E00E94733660E083E090E001
:102F60000E94733610927F0260E084E090E00E943D
:102F7000733660E082E290E00E94733660E085E0A4
:102F800090E00E94733660E086E090E00E94733625
:102F90006FEF87E090E00E94733640E050E0BA01A6
:102FA00088E090E00E94853660E08DE090E00E942D
:102FB000733640E050E0BA0188E190E00E94853627
:102FC00060E087E190E00E94733640E050E0BA0193
:102FD0008CE190E00E94853670E060E080E290E055
:102FE0000E94913640E050E0BA0188E190E00E94F2
:102FF000853680E00E94740F0E948C0F40E050E004
:10300000BA018FE090E00E948536E1E7F3E0158297
:103010001682178281E0808382E390E0928381832D
:103020008AE090E09483838340815181628173813F
:1030300083E190E00C948536DF92EF92FF920F933C
:103040001F93CF93DF937901C82F880FDD0B4115B4
:103050005105A9F0FE0193E0EE0FFF1F9A95E1F7ED
:10306000E55FFE4F818192818F579D4F208130E037
:103070004217530708F49A01A9010E945636CE015F
:103080000E945935D82E8823D1F001151105B9F0C9
:1030900083E0CC0FDD1F8A95E1F7FE01E55FFE4F6F
:1030A000438150E00417150708F4A801C55FDE4FFF
:1030B0006C817D816F577D4FC7010E9456368D2DE3
:1030C000DF91CF911F910F91FF90EF90DF900895C6
:1030D000AF92BF92CF92DF92EF92FF920F931F9326
:1030E000CF93DF9300D000D0CDB7DEB78C83E62E30
:1030F0005A01F22E68018091AB068A3080F080E0A0
:103100000F900F900F900F90DF91CF911F910F9123
:10311000FF90EF90DF90CF90BF90AF9008958C819B
:103120008A306CF389836A832B83609343012093F5
:10313000560110E000E030E020E043E050E0BE0146
:103140006F5F7F4F86E00E941C188823C1F24E2DCE
:1031500050E030E020E0B50187E00E941C18882391
:1031600071F230E020E041E050E0BE016C5F7F4F43
:1031700088E00E941C18882311F20F2D10E09601A0
:1031800050E040E070E060E089E00E941C18B8CF99
:103190000F931F93CF93DF93CDB7DEB728970FB66A
:1031A000F894DEBF0FBECDBF85E0E9E6F4E0DE01B6
:1031B000119601900D928A95E1F780918803909184
:1031C0008903A0918A038E839F83A88728854091D5
:1031D000EC025091ED026091EE027091EF023FB768
:1031E000F8948091860690918706A0918806B09108
:1031F00089063FBF841B950BA60BB70B8436910540
:10320000A105B10510F42223C1F010E000E030E088
:1032100020E048E050E0BE016F5F7F4F85E00E94F4
:103220001C18882369F00E9498086093EC02709340
:10323000ED028093EE029093EF0210928A0381E0F8
:1032400028960FB6F894DEBF0FBECDBFDF91CF91A9
:103250001F910F9108950F931F93CF93DF9300D089
:1032600000D0CDB7DEB74091E8025091E9026091FD
:10327000EA027091EB022FB7F89480918606909144
:103280008706A0918806B09189062FBF841B950BF5
:10329000A60BB70B11E084369105A105B10538F1F5
:1032A0000E94350E882369F10E9498086E5F7F4F57
:1032B0008F4F9F4F69837A838B839C8310E000E05C
:1032C00030E020E044E050E0BE016F5F7F4F84E0DB
:1032D0000E941C18182F882351F00E9498086093B0
:1032E000E8027093E9028093EA029093EB02812F47
:1032F0000F900F900F900F90DF91CF911F910F9132
:1033000008950E9498080091F0021091F102209116
:10331000F2023091F302600F711F821F931FC6CF1C
:103320007F928F929F92AF92BF92CF92DF92EF9255
:10333000FF920F931F93CF93DF930F92CDB7DEB71A
:10334000762E4A015901680101E010E09E012F5FCD
:103350003F4F50E040E070E060E00E941C18182FE2
:10336000882309F44BC0F40140815181628173814B
:103370002FB7F8948091860690918706A0918806D1
:10338000B09189062FBF841B950BA60BB70B843613
:103390009105A105B10538F4B701C6010E94EA08FC
:1033A0009981891759F18701950150E040E070E05B
:1033B00060E0872D0E941C18B82EB701C6010E943C
:1033C000EA0811E09981981310E01B2139F00E945E
:1033D0009808F4016083718382839383812F0F9017
:1033E000DF91CF911F910F91FF90EF90DF90CF90E1
:1033F000BF90AF909F908F907F900895A701B601E6
:10340000C5010E945636EACF9F92AF92BF92CF92EB
:10341000DF92EF92FF920F931F93CF93DF9300D031
:10342000CDB7DEB782E0E82EF12C09E812E09E016C
:103430002F5F3F4F44EE52E063E082E00E9490191C
:10344000B82E882321F1AE014F5F5F4F6A0180E003
:10345000A12C0091F9020A0DF60111916F01202FA4
:1034600030E0A901485F5C4F7A01FA019081191B95
:10347000912E1914F4F0912F17FD90E0191B1111E2
:1034800023C0F1E0AF1212C081110E94150B8B2DE9
:103490000F900F90DF91CF911F910F91FF90EF90C0
:1034A000DF90CF90BF90AF909F900895AA24A394EF
:1034B000D0CF9A94F70180818F5F808360E0802F66
:1034C0000E94BC118B2DD5CF1F5FF70180818150E9
:1034D000808361E0802F0E94BC118B2DD0CFCF92D2
:1034E000DF92EF92FF920F931F93CF93DF9300D061
:1034F00000D000D0CDB7DEB76B0186E0E82EF12C0E
:1035000002E812E09E012F5F3F4F40EE52E061E083
:1035100080E00E949019882349F096E0FE013196E0
:10352000AAEDB2E001900D929A95E1F796E0EAEDEE
:10353000F2E0D60101900D929A95E1F726960FB62A
:10354000F894DEBF0FBECDBFDF91CF911F910F91D9
:10355000FF90EF90DF90CF9008950E94690E8093C6
:103560000A0180910A01882359F01092870185E2AF
:10357000809388010E94350E882331F00C946C34BE
:1035800085E280938701F4CF089590E080E00E9467
:103590006D36893E9E4F11F40C94321080E00895F0
:1035A00028E030E043E060E086E30C943232CF92D2
:1035B000DF92EF92FF920F931F93CF93DF93CDB7DC
:1035C000DEB72C970FB6F894DEBF0FBECDBF4F838A
:1035D000588769877A878B879C8780914D038823DA
:1035E00099F00E94D01A80E50E94AA328AEB8A954F
:1035F000F1F700C00E94C23288789927803891057F
:1036000009F492C00E94DA320E94350E882309F430
:103610006BC00E949808009113021091140220912F
:103620001502309116026B017C01C01AD10AE20A20
:10363000F30A97018601083011052105310508F4C8
:1036400053C06093130270931402809315029093F9
:10365000160200915B0310915C0320915D03309191
:103660005E03601B710B820B930B62337105810546
:10367000910580F41092510310925003109253035D
:103680001092520310925503109254031092570354
:103690001092560310915A030E94690E482FBE01E2
:1036A000695F7F4F80E593E0112309F46BC00E94AE
:1036B000F10B00915A0310914D030E94690E41E0F5
:1036C0004827BE01695F7F4F84E593E0011709F445
:1036D0005CC00E94F10B86E0FE013796A9E6B3E0DC
:1036E00001900D928A95E1F786E0FE013796DE01A2
:1036F000119601900D928A95E1F729813A814B81CB
:103700005C816D817E8180E090E02C960FB6F8940C
:10371000DEBF0FBECDBFDF91CF911F910F91FF9004
:10372000EF90DF90CF9008950E94C2320E94C23283
:103730007C010E94C23220E0E22AF82A0E94C232B2
:103740008C010E94C23220E0022B182B0E94DA3238
:10375000F894B70180915003909151030E94D70CC7
:103760009093510380935003B8018091520390913C
:1037700053030E94D70C90935303809352030E94EB
:10378000310942CF0E947D0C94CF0E947D0CA3CFC3
:10379000CF93DF93D82FC62F0E94D01A8D2F806829
:1037A0000E94AA328C2F0E94AA320E94DA328FEC39
:1037B00092E00197F1F700C00000DF91CF910895EA
:1037C000682F893708F068E76093580391E0909379
:1037D000590390914D03992359F06150811101C013
:1037E00064E08FE00E94C81B60E080E50C94C81B79
:1037F0000895FB0180810C94E01B90915803911176
:1038000001C095E0282F880F330BA901490F511DE6
:10381000CA011816190614F081E090E00C94E01B20
:10382000CF93C82F0E94D01A8C2F0E94AA328FE704
:1038300092E00197F1F700C000000E94C232C82F49
:103840000E94DA329AE69A95F1F700C08C2FCF9158
:103850000895CF93DF930E94690E811144C00E94A6
:103860002A32269A0E94D01A6AE58AE30E94C81B6F
:103870002FEF80E792E0215080409040E1F700C0B8
:10388000000082E00E94101C83E00E94101C84E073
:103890000E94101C85E00E94101C86E00E94101CF3
:1038A00060E080E10E94C81B80E00E94101CD82FBD
:1038B00081E00E94101CC82F0E94DA32D23419F421
:1038C00081E0C13009F080E0817080934D0388234E
:1038D00051F064E08FE00E94C81B60E080E5DF915A
:1038E000CF910C94C81BDF91CF9108951F920F9236
:1038F0000FB60F9211242F933F934F935F936F93C3
:103900007F938F939F93AF93BF93CF93DF93EF9367
:10391000FF93D091E900DF708091EC00C82FC17057
:1039200080FDC0E81092E9008091F000877F8093CD
:10393000F00078940E9420131092E9008091F0002A
:1039400088608093F000CD2BCF70C093E900FF9189
:10395000EF91DF91CF91BF91AF919F918F917F9127
:103960006F915F914F913F912F910F900FBE0F90EC
:103970001F9018951F920F920FB60F9211242F933C
:103980003F934F935F936F937F938F939F93AF93E7
:10399000BF93EF93FF938091E10082FF09C0809174
:1039A000E20082FF05C08091E1008B7F8093E100FF
:1039B0008091DA0080FF24C08091D80080FF20C071
:1039C0008091DA008E7F8093DA008091D90080FFA9
:1039D0009DC080E189BD82E189BD09B400FEFDCFB3
:1039E00081E080939B0680918D06811109C00E9421
:1039F000F9060E94C4078091E20084608093E2008F
:103A00008091E10080FF17C08091E20080FF13C029
:103A10008091E2008E7F8093E2008091E2008061DD
:103A20008093E2008091D80080628093D80019BC16
:103A300085E080939B068091E10084FF2BC08091FC
:103A4000E20084FF27C080E189BD82E189BD89B59C
:103A5000982F917080FFFBCF8091D8008F7D80934D
:103A6000D8008091E1008F7E8093E1008091E20098
:103A70008F7E8093E2008091E20081608093E2007B
:103A800080919C06882309F447C084E080939B06BC
:103A900080919B068091E10083FF27C08091E20026
:103AA00083FF23C08091E100877F8093E10082E063
:103AB00080939B0610929C068091E1008E7F8093FC
:103AC000E1008091E2008E7F8093E2008091E2002D
:103AD00080618093E20042E060E080E00E94920713
:103AE0008091F00088608093F000FF91EF91BF918A
:103AF000AF919F918F917F916F915F914F913F9186
:103B00002F910F900FBE0F901F90189519BC109217
:103B10009B0610928D0674CF8091E30087FD93E0A1
:103B200090939B06B5CF78941F921FB61F921124D5
:103B30008F939F93AF93BF93809186069091870652
:103B4000A0918806B09189060196A11DB11D8093B0
:103B5000860690938706A0938806B0938906BF9146
:103B6000AF919F918F911F901FBE1F9018959C0140
:103B70004FB7F8948091860690918706A0918806A9
:103B8000B09189064FBF821B930B08952FB7F8940D
:103B90008091860690918706A0918806B09189064B
:103BA0002FBF089582E00E94EA100E94C61D9093E4
:103BB0007A038093790382E080937B0308950F93C7
:103BC0001F93CF93DF93CDB7DEB76E970FB6F89400
:103BD000DEBF0FBECDBF4091820350918303609141
:103BE00084037091850380918603909187030E94DE
:103BF000D71A209382033093830340938403509316
:103C00008503609386037093870386E0E2E8F3E020
:103C1000DE01179601900D928A95E1F786E0FE018C
:103C20003796DE01539601900D928A95E1F786E072
:103C3000FE017396DE01119601900D928A95E1F7CF
:103C400086E0FE013196A2E8B3E001900D928A95DC
:103C5000E1F786E0E2E8F3E0DE01179601900D92CD
:103C60008A95E1F786E0FE013796DE011196019014
:103C70000D928A95E1F719850A85912F902B8091F5
:103C80007B03992309F4BCC0813009F475C08230EC
:103C900009F0A8C00E94C61D90937A03809379030F
:103CA00086E0FE013196DE011D9601900D928A9507
:103CB000E1F786E0FE013D96DE01599601900D92F6
:103CC0008A95E1F786E0FE017996DE011196019072
:103CD0000D928A95E1F786E0FE013196A2E8B3E005
:103CE00001900D928A95E1F786E0E2E8F3E0DE01CB
:103CF000179601900D928A95E1F786E0ECE7F3E0E4
:103D0000DE01119601900D928A95E1F746E050E0B0
:103D1000BE016F5F7F4FCE0107960E944936892B07
:103D200079F0E0918106F0918206309749F082E0C7
:103D3000809382030480F581E02D82E893E0099569
:103D400010928403109285031092860310928703C9
:103D500086E0E2E8F3E0ACE7B3E001900D928A95EB
:103D6000E1F76E960FB6F894DEBF0FBECDBFDF91C0
:103D7000CF911F910F91089580917103882309F4C9
:103D80008FCF8091A5060E94830B811189CF812F4F
:103D9000110F990B97FF03C0919581959109002E02
:103DA000000C110B17FF03C0119501951109800F2D
:103DB000911F20916F0330917003820F931F909396
:103DC000700380936F032091720330917303821705
:103DD00093070CF465CF1092700310926F030E944A
:103DE000D21D5ECF0E94C61D90937A038093790303
:103DF00081E080937B031092700310926F0350CF89
:103E00008130E1F0823019F58091790390917A0345
:103E10000E94B71D409174035091750364E6649F3E
:103E20009001659F300D11242817390708F038CF0D
:103E300010927B0382E00E94A51032CF809179031B
:103E400090917A030E94B71DC39708F429CF10926E
:103E5000700310926F0310927B0322CF3F924F9218
:103E60005F926F927F928F929F92AF92BF92CF920A
:103E7000DF92EF92FF920F931F93CF93DF93CDB713
:103E8000DEB762970FB6F894DEBF0FBECDBF8C01D0
:103E9000DC0113968D919C911497892B39F08C91AC
:103EA00011969C9189238F3F09F0F1C562960FB658
:103EB000F894DEBF0FBECDBFDF91CF911F910F9160
:103EC000FF90EF90DF90CF90BF90AF909F908F903A
:103ED0007F906F905F904F903F9008950E94CE0F1B
:103EE000F82E682F89819A810E94560B69817A8108
:103EF0008F2D0E94C10F7C01F8018281882309F473
:103F0000B8C5C70182519F45409708F059C58FEF4A
:103F100093E00E945F36FEEEEF0E57E2852E53E0EF
:103F2000952E8823A9F180917402877009F4BECF81
:103F3000F8018281882309F4B9CF8091F70282FDCC
:103F4000B5CF82E062960FB6F894DEBF0FBECDBF4C
:103F5000DF91CF911F910F91FF90EF90DF90CF9065
:103F6000BF90AF909F908F907F906F905F904F9099
:103F70003F900C94B110811424E09206A1F2C40188
:103F80000E945F36811101C0EA943FEF831A930AC1
:103F9000E110F1CF1C821B82442443944AE0342E6A
:103FA00074018FEFE81AF80AC4010E945F36898312
:103FB0001A82882309F4B7CF9FEF980F933030F51A
:103FC0008A83498292E0890E911CC7010E945F3664
:103FD0008B83882309F4A7CFDE0111967D01F701B9
:103FE00020812223E9F2213009F050C091818281A1
:103FF000913071F4F2E0EF0EF11C65E070E089336E
:1040000011F460E570E00E94A71109C04701E4CFF8
:10401000923049F422E0E20EF11C0E945211FFEFAF
:10402000EF1AFF0ADCCF933031F432E0E30EF11CDB
:104030000E941F11F4CF943021F08FEFE81AF80A94
:10404000EECF92E0E90EF11C30E020E0B7016F5FA7
:104050007F4FD70111964C918053990B8A3091056F
:1040600050F021503109D8F2EFE9FFE03197F1F734
:1040700000C00000F6CF329EF001339EF00D1124F7
:104080009C012E0F3F1F842F7B01E0CFE22FF0E039
:10409000E754FE4F5490822F86958695869590E042
:1040A000FC01E755FE4F64902770712C022E02C070
:1040B000759467940A94E2F731E063227724FC0157
:1040C000E756FE4FA490B12C022E02C0B594A794DF
:1040D0000A94E2F7A1E0AA22BB24FC01E757FE4FB5
:1040E000C490D12C02C0D594C7942A95E2F7B1E0D0
:1040F000CB22DD246114710419F081EE0E9452116B
:10410000A114B10419F086EE0E945211E9E365E0B2
:1041100070E05E1202C060E570E0852D0E94A7117C
:10412000AB2819F086EE0E941F11672819F081EE66
:104130000E941F11CD2809F472CF65E070E08CE277
:1041400062CF81E00E94EA100E949A10ECCE81E0DA
:104150000E94A510F9CF82E0F5CF33EBE3163DE5E1
:10416000F30609F446C094EBE9169DE5F90609F05B
:1041700055C4882309F4D7CE8091740390917503B8
:104180000197181619060CF440C081E090E03DC07C
:10419000882309F4C8CE8091710391E08927809328
:1041A0007103409171035091720360917303709198
:1041B000740383E190E00E948536B5CE882309F42C
:1041C000B2CE80917203909173030596909373031E
:1041D00080937203E6CF882309F4A5CE8091720301
:1041E0009091730305978530910584F785E090E001
:1041F000EDCF882309F497CE8091740390917503D5
:104200000196883EA3E09A072CF49093750380935F
:104210007403C7CF87EE93E0F8CFE45FF10921E0A4
:1042200030E001C0220FEA95EAF796E0E2E8F3E019
:10423000DE01179601900D929A95E1F796E0FE0146
:104240003796DE011D9601900D929A95E1F79885BB
:10425000882389F1292B2E8786E0FE013D96DE0119
:10426000119601900D928A95E1F786E0FE01319654
:10427000A2E8B3E001900D928A95E1F7F8018281FE
:10428000F6E1EF16FCE5FF0609F067C0882309F4A4
:104290004FC080918E068A7A91E009F490E0909365
:1042A000170269E2811165E38CEF91E00E94A40896
:1042B0000E944B1038CE20952923CDCF80E00E945C
:1042C000E01B10925F032FCE4091580350915F0383
:1042D00050FB47F95695537060E070E08FE090E036
:1042E0006ACF81E00E94FD1B1ECE8FEFFBCF8AE0DC
:1042F000F9CF86EFF7CF90915A0381E089270E948A
:10430000C50B11CE80915F03811101C084E08F5FE6
:1043100018160CF081E0883008F087E080935F0386
:1043200002CE80915F03811101C084E08150F0CF03
:104330008091170281110FC089E2EEEFF1E024E0D5
:1043400032E09191891303C0DF0111971C922E175F
:104350003F07B9F7ADCF85E3F0CF8111F3C080916E
:104360008E06827229ECE2162CE5F20609F4E2C010
:1043700008F079C095ECE9169CE5F90609F4D5C07A
:1043800008F058C0B3ECEB16BCE5FB0609F4C1C05D
:1043900008F0C6C0F2ECEF16FCE5FF0609F48FC08A
:1043A000D80112968C911297ED90FC90882309F415
:1043B00004C1C7010E94CE0FD82E682FC7010E94EA
:1043C000560BB7018D2D0E94C10F0E9498097C01E8
:1043D000882EF801D280B580B2943FE0B32280915C
:1043E00074028770C1F0AD2CDD20B1F08F2D807F7D
:1043F000803421F080E28E0D883068F08091F702E1
:1044000082FD09C082E00E94B11080917402877021
:10441000AA24A3948111A12C9F2C92942FE0922284
:10442000FBE0F91508F43CC1E92DF0E0ED54F94C3E
:104430000C9433364EE057E16AE177E127ECE2165F
:104440002CE5F20609F469C04FE257E166E277E134
:1044500038ECE3163CE5F30608F45FC04AE157E1A7
:104460006EE077E15AC09DECE9169CE5F90609F487
:1044700066C0C8F448E357E169E477E1BBECEB16AA
:10448000BCE5FB0609F449C042E057E166EF76E17E
:10449000ECECEE16ECE5FE0608F43FC049E457E10B
:1044A00068E377E13AC0F6EDEF16FCE5FF0608F4A5
:1044B0003ACD2DE5E216F20609F435CD71CF8091A3
:1044C000690480FF1EC08E7F809369046091690437
:1044D00070916A0480916B0490916C040E94EB15BA
:1044E00080918A03816080938A033FEF80E792E0A6
:1044F000315080409040E1F700C000000E94D50D8F
:1045000012CD81608093690461E086950E945A17FC
:104510000ACD4DE757E166E877E10E94000903CD37
:1045200046E857E16DE777E1F8CF46E257E16FE201
:1045300077E1F3CF46EF56E162E077E1EECF61E05D
:1045400081E0E4CFAAE5EA16ADE5FA0691F168F458
:10455000E114ECE5FE06F1F0FEEDEF16FCE5FF06DA
:1045600009F01ECF0E94A217DECC2BE5E2162DE546
:10457000F20609F13CE5E3163DE5F30609F010CF3C
:104580008091F70282FB882780F991E089270E94B9
:10459000CD1006CF10928E060E9417138FEF94E372
:1045A000ACE081509040A040E1F700C000000E94C4
:1045B000870881E0ECCF80E0EACFC7010E942E0B94
:1045C000D82EFFCE2F2D2F70C22E8F2D807F19F069
:1045D000C29490EFC922DD20B9F0CC2069F080E2CE
:1045E0008E0D883010F0811009C080918E06C82A87
:1045F000C0928E060E944B108E2D50C080917D027D
:10460000C82AC0927D02F6CF8E2D0E941F11CC20A9
:1046100009F446C080E28E0D883010F0811004C08D
:104620008C2D0E941D0B06C0C09480917D02C82273
:10463000C0927D020E944B1033C03F2D3F70C32EAD
:104640008F2D807F803219F0C29480EFC82288209D
:10465000A1F081E0881609F482C0DD2009F48CC045
:10466000BB2009F482C0D80115968C91159780FF64
:10467000C3CF8F7015968C9378C02091F70222FFDC
:104680004BC0DD2009F442C0CC2039F080918E0669
:10469000C82AC0928E060E944B1080E00E945211E0
:1046A000A92DA850BB0B149710F40E94590EAA20F4
:1046B00009F4FCCB8091740280FDF8CBF8011282E2
:1046C0008595859585950E94EA10C8010E942E1F48
:1046D0008091740285958595859562960FB6F894BC
:1046E000DEBF0FBECDBFDF91CF911F910F91FF9025
:1046F000EF90DF90CF90BF90AF909F908F907F9082
:104700006F905F904F903F900C94A51080E00E94B6
:104710001F11CC2029F284CFDD20A1F090917E02E0
:104720008C2D892BB11003C00E941511B9CFA1E0C7
:10473000BA12FACF22FDB4CF981709F4B1CF809303
:104740007E02AECFB11006C00E94170B8C2D0E94C6
:104750000E11A6CFB1E0BB1609F4A2CFF5CFDD2034
:1047600031F0E5E0EB1508F49BCF8C2DDDCFF4E0C4
:10477000FB1508F495CFEACFBB2041F3B9E38B12C8
:1047800017C1EFEFF7EE23E0E150F0402040E1F7F2
:1047900000C000008E2D0E941F1182CF8F2D8695A4
:1047A0008695837061F0813009F07ACFC7019370EC
:1047B000D11002C090E080E00E94BE0871CFC70116
:1047C0009370D11002C090E080E00E94D40868CFBE
:1047D0008F2D837091F5D11063CF4E2D4295469564
:1047E0004770440F440F8E2D8F70042E01C0880F28
:1047F0000A94EAF72E2D2071E4FE07C02FE030E086
:1048000001C0220F4A95EAF720953F2D369536953F
:104810003370323069F050F440917F02313029F02A
:10482000822B84230E94F5103BCF842B822BFACF5E
:10483000282B80917F028227F5CF8695DD2011F00D
:104840008F2D8170882309F42BCF4E2D42954695EC
:104850004770440F440F8E2D8F70042E01C0880FB7
:104860000A94EAF72E2D2071E4FE07C02FE030E015
:1048700001C0220F4A95EAF720953F2D36953695CF
:104880003370323069F050F44091A506313029F090
:10489000822B84230E94941003CF842B822BFACF87
:1048A000282B8091A5068227F5CF9F2D9F70F92E8A
:1048B000DD2029F0892F0E94EA108E2D35CF8E2D14
:1048C0000E940E118F2D0E94A510EACE8E2DA2EF10
:1048D0008A16B1F1A81570F0B0EF8B16D1F0E1EFA8
:1048E0008E1691F0DD2009F45EC0B11085CE8F2DBB
:1048F0008F712AC0F3EF8F1651F124EF8212F2CF9D
:104900008091F70282FF2FC08F2D8F71DD20D9F2A9
:104910001BC0DD2081F034E03B1508F4C1CE2F2D03
:104920002F7181E090E001C0880F2A95EAF79091FD
:10493000A5068927AFCF85E08B1508F4B1CEEFCF60
:104940008F2D8F71D110BFCF0E94EA10A9CE80E0C9
:10495000DD2009F49FCF9F2D9F7181E001C0880F5A
:104960009A95EAF797CFDD2099F09F2D9F71F92E48
:10497000892F0E94EA108091F70282FD07C0A8E00B
:10498000FA9EC00111248360809374028F2DDCCFC6
:1049900081E00E94B110B1E0BB1508F081CE82E049
:1049A0000E94B1107DCEBB2041F0893309F4E9CEDD
:1049B0008FE19EE40197F1F7EBCE8F2D8F7183CFBE
:1049C000F0E1EF16FFE5FF0609F4BBCB21E1E216AB
:1049D0002FE5F20609F4BFCBF0926603E09265037F
:1049E000D8018D919C9111979093680380936703F0
:1049F00012968C91B2EBEB16BDE5FB0609F4EBCBFE
:104A000008F0ABCBF0EBEF16FDE5FF0609F4C0CBE9
:104A100021EBE2162DE5F20609F4D0CB882331F024
:104A200080917B03823011F40E94D21DC7019A95B8
:104A3000F70181159F4108F4FF27D80112968C9148
:104A4000E43FF10548F0E93FF10508F4E6CBED3A23
:104A5000BDE5FB0709F453CC882309F40FCCE65AD3
:104A6000FD45EA30F10508F009CCE154F94C0C940D
:104A7000333630E1E3163FE5F30609F468CB81E114
:104A8000E8168FE5F80609F0A7CF82E061CB85E054
:104A9000F801DE01119601900D928A95E1F7D80197
:104AA00012962C9189819A81211118CA0E942E0B8D
:104AB000F82E1CCA1F93CF93DF9380914102807F11
:104AC000A9F480913E02882389F080917302D091ED
:104AD000420260913C0270913D02A0913F02B09170
:104AE0004002C62FC72316E0D81304C0DF91CF9130
:104AF0001F91089590E0109711F0CF3F19F401969F
:104B00008770F2CF189F9001199F300D1124F90181
:104B1000ED5BFD4F41814713F2CF40814613EFCF4C
:104B200042814111ECCF438154814A1B5B0B483CCD
:104B3000510528F7809141028F7080618093410276
:104B4000F901E85BFD4F80818F70806180838CE389
:104B500092E00E942E1FDF91CF911F910C94240BA5
:104B6000AF92BF92CF92DF92EF92FF920F931F937B
:104B7000CF93DF93CDB7DEB761970FB6F894DEBF62
:104B80000FBECDBF8C0185E0F801DE011D960190BE
:104B90000D928A95E1F7F801E2808CE3A82E82E07D
:104BA000B82E60913F02709140026115710509F4C1
:104BB00032C190913C0240913D02892F84238F3F66
:104BC00009F429C120813181C380D480F0903E0254
:104BD000F601E61BF70BFF2009F4E8C080914102C3
:104BE000582F507FE83CF10508F0ABC0511177C059
:104BF000FE2C431321C092131FC0E1101DC08F7003
:104C0000806180934102C5010E942E1F8091410264
:104C1000F80185838F2D61960FB6F894DEBF0FBE25
:104C2000CDBFDF91CF911F910F91FF90EF90DF905B
:104C3000CF90BF90AF900895CD2829F0822F832385
:104C40008F3F09F003C180E0F82FF170DF2E80FF65
:104C50003CC0809173024091420256E0841315C01B
:104C60002D873E878D859E850E94FD0F292F2295D9
:104C70002F702230F0F0243018F59F70F1F0F80119
:104C80009581907FD1F4D12C1EC090E0589FF00107
:104C9000599FF00D1124ED5BFD4F6181361306C065
:104CA0006081261303C06281E6120FC001968770EF
:104CB000D5CF9F7011F0882331F3805E883018F3D0
:104CC000C8010E942E1FFD2CA5CFEE2009F4A2CF13
:104CD00080914102816080934102F12C9BCF43136C
:104CE00006C0921304C0F801EE2009F479C0C8018F
:104CF0000E940910882309F1EE20F9F08091410209
:104D0000803270F020913C0230913D0238872F8331
:104D10001986DB86CA868C87CE0107960E942E1FD5
:104D200086E0F801ACE3B2E001900D928A95E1F7DC
:104D30000E945A25FF24F3946DCFC8010E942E1FB4
:104D4000F9CF51110AC08CE392E00E942E1F86E039
:104D5000F50111928A95E9F7C0CF43130FC0921362
:104D60000DC0E1100BC0F8018583C8010E942E1F01
:104D700086E0F50111928A95E9F74CCFC8010E94AF
:104D800009108823D1F2EE20C1F2809141028032D5
:104D900038F220913C0230913D023A8329831B82F4
:104DA000DD82CC828E83CE010196B8CFE83CF1053E
:104DB000F8F6FE2CEE2009F243131FC092131DC01B
:104DC0008091410280FD10C0982F907F69F0F8011A
:104DD0008583903F31F0982F907F905F8F70892B63
:104DE0008583C8010E942E1F86E0F801ACE3B2E083
:104DF00001900D928A95E1F70DCFC8010E9409102C
:104E000081118ECF80914102816080934102C8015F
:104E10000E942E1FFFCEEE2009F48FCFC8010E9402
:104E20000910F82E882309F488CF86E0F801ACE356
:104E3000B2E001900D928A95E1F780913C02909149
:104E40003D020E94FD0F0E945A25E4CE81E08E258E
:104E5000FBCE1F93CF93DF93CDB7DEB767970FB627
:104E6000F894DEBF0FBECDBF4B8B5C8B6D8B7E8B02
:104E70008F8B611110927D021A8A198A85E0FE01DA
:104E80007396DE011D9601900D928A95E1F786E0FA
:104E9000FE013D96DE01179601900D928A95E1F78D
:104EA000CE0107960E94B025882389F016E08091F4
:104EB00073029091420289134BC067960FB6F89423
:104EC000DEBF0FBECDBFDF91CF911F91089586E069
:104ED000FE013796DE01119601900D928A95E1F759
:104EE0008A859B85892B11F38F81988589238F3F34
:104EF000E9F22091420230E0C901019687709927BA
:104F0000409173024817190681F410928E060E9490
:104F10001713109242021092730286E0ECE3F2E063
:104F2000DF011D928A95E9F7C1CF96E0929FD001EB
:104F3000939FB00D1124AD5BBD4FFE0131960190E2
:104F40000D929A95E1F7809342020E94240BAECF16
:104F5000819FC00111248D5B9D4F0E94B025882345
:104F600009F4ABCF8091730290E001968770992786
:104F7000809373029CCF4F925F926F927F928F9239
:104F80009F92AF92BF92CF92DF92EF92FF920F93D8
:104F90001F93CF93DF9300D0CDB7DEB74CEAC42E7A
:104FA00046E0D42E460150E0E52E51E0F52E512C7E
:104FB00066246394712CD7018D917D010E94EA0CC7
:104FC00000C0F40141904F0136E0A32E31E0B32E32
:104FD000F50110E000E04191A42FA295AF70B0E080
:104FE00090968C919301002E01C0220F0A94EAF74B
:104FF00090E04F7002C0959587954A95E2F780FD45
:105000008AC0422A0F5F1F4F0430110521F7F701B4
:10501000319780810E94FE0CF0EAFA95F1F7F401D5
:105020008291841519F040825524539426E0E216AB
:1050300021E0F20609F0BFCFEE24E394F12CD50174
:105040008D915D010E94EA0C00C0C701002E01C0D5
:10505000880F0A94EAF7582FACEAB6E090E0892E60
:1050600091E0992E482F4095F40121914F01822F14
:1050700082958F7090E0FC0180A13D9190E02F70AF
:1050800002C0959587952A95E2F7BD016150710997
:1050900080FD44C0852F832BFB01808380813817DE
:1050A00011F055245394F6E08F16F1E09F06E1F6D7
:1050B000F501319780810E94FE0C20EA2A95F1F7D4
:1050C0000F5F1F4F0830110509F0B9CF1091F5029D
:1050D000552039F181E0809306020E94C61D90930D
:1050E00005028093040280910402909105020E94BF
:1050F000B71D0597D0F0E12FF0E0EA5CFC4F82EBA2
:1051000096E0D6012D916D0121938A179B07C9F76F
:10511000109206020AC02095422274CF842F832366
:10512000BBCF809106028111DECF0E94350EF82E92
:10513000E091F50281119BC0F0E0EA5CFC4FF8942D
:1051400086E0A2E8B2E001900D928A95E1F766E070
:1051500070E082E892E00E94EA08809381020E9457
:105160003109F894E0910E03F0E0E85FFC4F808194
:1051700091819A83898390938A028093890262E065
:1051800070E0CE0101960E94EA08809388020E9496
:105190003109F894C0908B02D0908C02E0908D027F
:1051A000F0908E028091070290910802A09109026E
:1051B000B0910A02C816D906EA06FB06D1F0C092E1
:1051C0000702D0920802E0920902F0920A020E94BD
:1051D000350E81110EC00E949808C61AD70AE80A37
:1051E000F90AC092F002D092F102E092F202F0923B
:1051F000F3020E943109F894809196028823F1F01D
:1052000080FF0DC080918F0280FF2EC090916904B5
:1052100091609093690460E086950E945A1780918E
:10522000960281FF09C020E04091920260919102B4
:10523000809190020E94FD15109296020E94310901
:10524000852D0F900F90DF91CF911F910F91FF90BF
:10525000EF90DF90CF90BF90AF909F908F907F9016
:105260006F905F904F9008950E94200ED8CF22EB50
:1052700036E086E0D9011D928A95E9F70E2F10E0FD
:105280000A5C1C4F8091AB068A30E8F56FE67AE144
:10529000C8010E94130D882309F452C064E07AE12A
:1052A000C8010E94130D882309F44AC06BE279E11A
:1052B000C8010E94130D882309F442C068EC78E10C
:1052C000C8010E94130D8823D9F11092AB0681E02A
:1052D00080930D020091F40210E00A5C1C4F46E03E
:1052E00050E062EB76E0C8010E944936892B09F450
:1052F000A7CF86E0E2EBF6E0D80101900D928A9507
:10530000E1F75F2C9DCF80910B0290910C020E94DF
:10531000B71D843F914008F0B9CF80910D028823DA
:1053200009F48ECF10920D02E091F402F0E0EA5CF5
:10533000FC4F96E0DF011D929A95E9F7582E80CF39
:105340008091AB068F3F31F08F5F8093AB068A3040
:1053500008F4BDCF0E94C61D90930C0280930B02EF
:10536000DCCF1F921FB61F9211248F939F93AF9390
:10537000BF9380918506811113C08091860690911C
:105380008706A0918806B09189064196A11DB11D9E
:105390008093860690938706A0938806B09389062B
:1053A000BF91AF919F918F911F901FBE1F90189535
:1053B000CDB7DEB7AF970FB6F894DEBF0FBECDBF47
:1053C00084B7877F84BF0FB6F894A895809160005A
:1053D000886180936000109260000FBE80E890E0CA
:1053E0000FB6F89480936100909361000FBE85B76B
:1053F000806885BF85B7806885BF8FE299E090930C
:10540000FB018093FA010E94F9060E94C407809173
:10541000E20084608093E200789480919B06882368
:10542000A1F01091E9001F709091EC00892F81701C
:1054300090FD80E8182B1092E9008091E80083FD30
:105440000E9420131F701093E90082E084BD93E056
:1054500095BD9AEF97BD80936E001092F002109266
:10546000F1021092F2021092F3020E9432108111A6
:1054700002C00E948C0F0E94AD1A80910A010E9406
:10548000AD1A809106010E94FE0C809107010E94D6
:10549000FE0C809108010E94FE0C809109010E947F
:1054A000FE0C00E011E026E0E22E21E0F22ED80111
:1054B0008D918D010E94FE0CE016F106C1F78091DE
:1054C0000A0196E0811190E09093F50286E0891B35
:1054D0008093F4020E94350E811102C00E946F3445
:1054E000ECEAF6E088EB96E0A6E3B3E011921D92B9
:1054F0008E179F07D9F70E94C51A811102C00E941A
:10550000A21782E090E00E945F368093FB0284E065
:1055100090E00E945F36182F82E290E00E945F3692
:10552000982F812F9093F7028093F6020E94BB2759
:10553000EFE3FCE93197F1F700C000000E94BB27C0
:105540008091360380FF08C06FEF7FEF90E080E02E
:105550000E9491360E94870883E090E00E945F36A7
:105560000E94F5108091A5060E94D90B0E94350E6D
:10557000882309F43CC380E08093310380E8809362
:105580006E040E9404336DE070E08CE492E00E94AF
:105590009A0E892BE9F58091310363E070E081FD7B
:1055A00028C389E492E00E949A0E892B89F56DE068
:1055B00070E089E392E00E949A0E892B49F50E94DF
:1055C0009808605A75418F4F9F4F6093790670938A
:1055D0007A0680937B0690937C06E1E7F4E080E016
:1055E00092E0DF019C011D9221503040E1F7F093E1
:1055F0007806E09377068FEF9FEF90937004809387
:105600006F0481E080937E0680937D0610923203C2
:105610008091F802811136C00E94C51A811104C020
:105620000E94A2170E948A1788E090E00E946736C5
:105630006093690470936A0480936B0490936C0484
:1056400080918A03836080938A036E7F71F40E9445
:105650008A1788E090E00E9467366093690470932F
:105660006A0480936B0490936C040E9405098091F6
:10567000690480FF04C060E086950E945A1781E0AB
:105680008093F80265ED71E041ED51E0A3EDB1E0EA
:1056900021E030E08D91E82FE295EF70F0E0F1A08D
:1056A0008F70890101C0000F8A95EAF7902F9095BD
:1056B0009F2191A382A1802B82A3FA018191AF0146
:1056C000E82FE295EF70F0E0F1A08F70890101C042
:1056D000000F8A95EAF7902F90959F2191A382A1C0
:1056E000802B82A36A177B07A9F68FE891E00197C8
:1056F000F1F700C0000083B186FB882780F91D996F
:105700007BC290E0892B80930F0383B183FB8827B2
:1057100080F91A9973C290E0892B809310038091CD
:105720000A0192E0811190E090930E0382E0891BC0
:105730008093F9020E94291C0E94350E811102C03B
:105740000E946F340E94350E81112EC084E99EE0C4
:10575000909362018093610129E130E030935D0113
:1057600020935C0189E390E09093600180935F0156
:105770004BE159E050936A01409369013093650110
:1057800020936401909368018093670149EF5BE186
:10579000509372014093710130936D0120936C011D
:1057A0009093700180936F010E94C51A882389F03D
:1057B0008FE090E00E9467368B01862F8F770E94E2
:1057C000E01B001F0027001F1370110F102B1093F8
:1057D0005F030E94800E83E190E00E9467368B0198
:1057E0009C01609371031093720380937303309351
:1057F000740310927503109276031092770310923F
:10580000780381E08093FA0283E791E09093820627
:105810008093810680919B0600E112E1853009F4B6
:1058200031C20E94BB27682E81110E9498082DED7D
:1058300031E03CA72BA74CEF52E0D90126E333E03F
:1058400010E000E0C02EF901F1909F018D91F82247
:10585000FA018191AF018F1509F425C28F25D12C52
:10586000EE24E3949E2D982309F418C20E94350E6D
:10587000882399F0D9A2CAA2FE2081E009F480E031
:105880008BA30E94C61D8160782F9DA38CA349A184
:105890005AA16BA18DA10E942927F801E450FD4F68
:1058A0008081E826E0820E94350EAFE0EA2EA3E078
:1058B000FA2E0CE013E0B1EDCB2EB1E0DB2E83ED40
:1058C000A82E81E0B82E412C712CD701ED917D01DD
:1058D000EE0FEE0FD5012D915D01A22FA295AF70B5
:1058E000B0E090968C9190E02F7002C095958795CE
:1058F0002A95E2F781709927D6014D916D01A42F69
:10590000A295AF70B0E090962C9130E04F7002C03D
:10591000359527954A95E2F7A9014170552720FF53
:1059200002C042E050E0842BE82BD7011197EC93A2
:1059300050900E03540C4801EF70F0E0EF53FE4F0F
:105940008081F8019081890F808320E0823064F0AB
:10595000E52DF0E0E85FFC4F80818F5F808360E0A1
:10596000852D0E94BC1121E0D8018C918F3F64F4F9
:10597000E52DF0E0E85FFC4F80818150808361E09D
:10598000852D0E94BC1121E00F5F1F4FF801319758
:10599000D4018C91082E000C990B62E070E00E94FB
:1059A000FD358083722AB1E04B1294C111F00E9440
:1059B000150B80917E06882351F1809133039091DD
:1059C00034030E94B71DC29708F087C120916F046D
:1059D000309170042115310509F084C280917D0653
:1059E0008823A9F00E9498080091790610917A0600
:1059F00020917B0630917C06601B710B820B930B10
:105A00006F3F7F4F8F4F9F4710F40E94CA0E611067
:105A100001C071100E94E50E0E94DF1D0E94590E08
:105A20009091350389138093350380919B068430D0
:105A300009F42DC30E94350E882309F4EBCE0E9491
:105A400098082091480321116DC0009144031091E2
:105A5000450320914603309147036B017C01C01A36
:105A6000D10AE20AF30A97018601043F1140210599
:105A7000310508F457C06093440370934503809345
:105A8000460390934703809142039091430301960C
:105A9000909343038093420319828E010F5F1F4F3F
:105AA00021E050E040E060E08AE00E946818811147
:105AB00006C080914203909143030A979CF181E0D4
:105AC0008093480380934E039981911101C080E037
:105AD00080934F0380914D0310E0882329F00E94AA
