:100000000C945D060C947A060C947A060C9441329A
:100010000C947A060C947A060C947A060C947A0660
:100020000C947A060C947A060C94C21B0C947E1BDA
:100030000C947A060C947A060C947A060C947A0640
:100040000C947A060C947A060C947A060C947A0630
:100050000C947A060C949B1C0C947A060C947A06E9
:100060000C947A060C947A060C947A060C947A0610
:100070000C947A060C947A060C947A060C947A0600
:100080000C947A060C947A060C947A060C947A06F0
:100090000C947A060C947A060C947A060C947A06E0
:1000A0000C947A060C947A060C947A0605010902DF
:1000B000A10185020901A1000509190129081500FE
:1000C0002501950875018102050109300931158165
:1000D000257F95027508810609381581257F9501D0
:1000E00075088106050C0A38021581257F95017572
:1000F000088106C0C00660FF0961A1010962150000
:1001000026FF009520750881020963150026FF006F
:10011000952075089102C005010906A1010507197E
:10012000E029E71500250195087501810295017503
:100130000881010507190029FF150026FF00950613
:100140007508810005081901290515002501950587
:1001500075019102950175039101C0000000000036
:10016000000000000000000000000000000000008F
:100170000000000000000000000000000000007E01
:100180000F00D4FFFFFFC700000078000000000050
:100190000000002A2B2800000000000000000000E2
:1001A00000000000000029000000002C1E34202167
:1001B0002224342627252E362D3738271E1F2021AE
:1001C00022232425263333362E37381F040506070D
:1001D00008090A0B0C0D0E0F101112131415161727
:1001E00018191A1B1C1D2F3130232D350405060745
:1001F00008090A0B0C0D0E0F101112131415161707
:1002000018191A1B1C1D2F3130354C00DA0281FFE2
:10021000D9F1DB20A4A62EAF00A0C0D30000A1C856
:10022000D30000AED580A81F408D1420000001012E
:1002300001010101010101020202020202020202A5
:100240000303030303030303040404040404040575
:100250000505050506060606060707070707080839
:100260000808090909090A0A0A0B0B0B0C0C0C0DEA
:100270000D0D0E0E0E0F0F0F101011111112121383
:10028000131414151516161717181819191A1A1BFE
:100290001B1C1D1D1E1E1F2020212222232424255D
:1002A0002626272829292A2B2C2D2D2E2F30313296
:1002B00032333435363738393A3B3C3D3E3F4041A6
:1002C00042434445464748494A4C4D4E4F5051538E
:1002D00054555658595A5B5D5E5F61626465666845
:1002E000696B6C6D6F7072737577787A7B7D7E80C9
:1002F00082838587888A8C8E8F91939596989A9C15
:100300009EA0A2A3A5A7A9ABADAFB1B3B5B7BABC28
:10031000BEC0C2C4C6C9CBCDCFD1D4D6D8DBDDDFF9
:10032000E2E4E7E9EBEEF0F3F5F8FAFDFF00000098
:100330000000003E5B4F5B3E003E6B4F6B3E001C7F
:100340003E7C3E1C00183C7E3C18001C577D571C10
:10035000001C5E7F5E1C0000183C180000FFE7C315
:10036000E7FF00001824180000FFE7DBE7FF00307C
:10037000483A060E00262979292600407F05050700
:1003800000407F05253F005A3CE73C5A007F3E1C59
:100390001C0800081C1C3E7F0014227F2214005FF2
:1003A0005F005F5F0006097F017F00006689956A34
:1003B0000060606060600094A2FFA2940008047E68
:1003C00004080010207E20100008082A1C080008DD
:1003D0001C2A0808001E10101010000C1E0C1E0C09
:1003E0000030383E383000060E3E0E060000000099
:1003F00000000000005F000000000700070000147C
:100400007F147F1400242A7F2A12002313086462B9
:1004100000364956205000000807030000001C2247
:100420004100000041221C00002A1C7F1C2A0008F9
:10043000083E08080000807030000008080808081E
:10044000000000606000002010080402003E5149D6
:10045000453E0000427F4000007249494946002164
:1004600041494D33001814127F1000274545453986
:10047000003C4A49493100412111090700364949E8
:10048000493600464949291E0000001400000000BA
:100490004034000000000814224100141414141405
:1004A000000041221408000201590906003E415D86
:1004B000594E007C1211127C007F49494936003E9A
:1004C00041414122007F4141413E007F494949412C
:1004D000007F09090901003E41415173007F08086E
:1004E000087F0000417F4100002040413F01007F24
:1004F00008142241007F40404040007F021C027FE0
:10050000007F0408107F003E4141413E007F090901
:100510000906003E4151215E007F09192946002647
:10052000494949320003017F0103003F4040403FF9
:10053000001F2040201F003F4038403F0063140848
:100540001463000304780403006159494D4300001B
:100550007F41414100020408102000004141417FD9
:100560000004020102040040404040400000030734
:100570000800002054547840007F28444438003854
:100580004444442800384444287F003854545418C4
:100590000000087E0902001824241C78007F08044B
:1005A00004780000447D4000002040403D00007E73
:1005B000102844000000417F4000007C047804784B
:1005C000007C08040478003844444438007C182433
:1005D000241800182424187C007C0804040800480F
:1005E000545454240004043F4424003C4040207CE4
:1005F000001C2040201C003C4030403C004428109F
:100600002844004C9090907C004464544C4400007A
:100610000836410000000077000000004136080065
:10062000000201020402003C2623263C00000000D8
:100630000000000000000000000000000000F81EA4
:10064000030101020C080808080810101010180413
:10065000020206FC00000000000000000000000094
:100660000000F01E030101030C0808080808080830
:1006700008080C0603010103FE0000000000000052
:1006800000000000000000F03E030103060C0C0C0B
:1006900008080808080808080C060101031EE00005
:1006A0000000000000000000000000E0F0F0F0E0BA
:1006B000ECEEF7F37020007C7C7C7E007E7E7E7FFB
:1006C0007F7F000080C0E07E5B4F5BFEC00000C00B
:1006D00000DCD7DEDEDED7DC00C00000000000005A
:1006E000000000000000000000000000000000000A
:1006F0000000000000C020008060180000C07F00E3
:1007000000000000000202000000000000000202E1
:1007100000000007F80000000000C020008060100A
:100720000000FF00000000000003030000000000C4
:10073000000003030000000003FE0000000000C0F2
:1007400020008060100000FF000000000000030394
:100750000000000000000000030300000000FF0094
:1007600000000000000000000000000F1F3F7F7F1E
:100770007F7F7F3F1E0C001F1F1F3F003F3F3F7FBB
:100780007F7F00307B7F7830202030787F3B0003F4
:10079000000F7F0F0F0F7F0F00030000000000000D
:1007A0000000000000000000000000000000000049
:1007B000000000000718200007182000001F30204C
:1007C0003018081020203018102020203018081071
:1007D000204020301F0000000007182000071820CC
:1007E00000001F30202010080810202030080808C2
:1007F0001030203018081830201F000000000718A3
:10080000200007182000001F30203018183020303A
:100810001808302030180808183020203808070041
:1008200000000000000000000000000000000000C8
:1008300000000000000000000000000000000000B8
:1008400000000000000000000000000000000000A8
:100850000000000000000000000000000000000098
:100860000000000000000000000000000000AF6178
:1008700062636465666768696A6B6C6D6E6F7071E0
:1008800072737475767778797A31323334353637D6
:10089000383930524542545F2D3D5B5D5C233B2728
:1008A000602C2E2F20202700204B00202043004BBF
:1008B0006579203A2020520020204400303020204A
:1008C000530020202020204350490042616C6C3AA4
:1008D0000052543A002F004D563A004C3A008081A5
:1008E00082838485868788898A8B8C8D8E8F909170
:1008F000929394A0A1A2A3A4A5A6A7A8A9AAABACD1
:10090000ADAEAFB0B1B2B3B4C0C1C2C3C4C5C6C747
:10091000C8C9CACBCCCDCECFD0D1D2D3D40000AEB3
:1009200029001E001F0000002000210022000000FE
:100930002B0014001A00625208001500170028004E
:10094000E000040016000000070009000A00000093
:1009500021521D001B000000060019000500300098
:10096000E200E300000000000608904391412C42A1
:100970004F00500051005200000000000000000035
:100980002D00270026000000250024002300000081
:100990002F001300120028000C0018001C00290072
:1009A000340033000F0000000E000D000B000000AB
:1009B00087003800370000003600100011003200B8
:1009C00089002E00000000001908E30028002A001A
:1009D0002B022B001D0A1D08000000000000000073
:1009E00029021E022F000000200221022202000024
:1009F0002B0214021A02010008021502170201005C
:100A0000E002040216020000070209020A020000C6
:100A100001001D021B02000006021902050230023D
:100A2000E202E302000000000100010001000100F9
:100A300001000100010001000000000000000000B2
:100A4000870227022602000025022402230200005A
:100A50002F021302120201000C0218021C020100F4
:100A6000340233020F0200000E020D020B020000DE
:100A700087023802370200003602100211023202E9
:100A800089022E02000000000100010001000100A7
:100A90000100010001000100000000000000000052
:100AA00001003A003B0000003C003D003E00000019
:100AB00001000100240001002500260001000100C2
:100AC0000100010021000000220023003302000089
:100AD000010001001E0000001F0020002D02250261
:100AE0000100010000000000010001000100010000
:100AF0002B002B020100010000000000000000009C
:100B00004400430042000000410040003F0000005C
:100B1000450001004E00010052004B0001000100A1
:100B200001004D004F000000510050004A0000003D
:100B300001000100D3000000D200D100D500D40094
:100B4000010001000000000001000100010001009F
:100B50000100010001000100000000000000000091
:100B600020780100010000000100010001000000E8
:100B70002178237825780100277801000100010001
:100B800022782478267800002878477E467E000068
:100B90004B7E4C7E4D7E00004E7E497E487E037C1F
:100BA000007C4A7E000000000100010001000100FD
:100BB0000100010001000100000000000000000031
:100BC00030782F782E7800002D782C782B78000044
:100BD0000100010034780100337832783178010067
:100BE000407E417E447E0000427E437E457E000082
:100BF0000100010001000000010001000100037C70
:100C0000007C010000000000010001000100010063
:100C100001000100010001000000000000000000D0
:100C200009025B00030100A0FA09040000010301AE
:100C30000100092111010001224400070581030878
:100C40000001090401000203000000092111010054
:100C5000012222000705820320000107050303206B
:100C60000001090402000103000000092111010034
:100C7000012249000705840320000112010002003F
:100C8000000008594D00010002010200010E036D31
:100C90000074006B00360034006500000016036D20
:100CA0000065006E00740061006B006F005F0079EA
:100CB0000061000000040309040011241FBECFEFEF
:100CC000DAE0DEBFCDBF11E0A0E0B1E0ECEDF9E687
:100CD00002C005900D92A23AB107D9F726E0A2EA28
:100CE000B1E001C01D92AD35B207E1F70E943A298B
:100CF0000C94A4340C9400008F929F92AF92BF92F8
:100D0000CF92DF92EF92FF9290917801981305C0F5
:100D100090914D06903209F44BC08093780190E297
:100D200090934D06C82ED12CF12CE12C10924C063C
:100D3000C701B6012AE030E040E050E00E94C8332D
:100D4000605D603331F0C114D104E104F10409F4B1
:100D500060E260934B0660E28AE0C816D104E104C9
:100D6000F10490F08AE0882E912CA12CB12CC701BF
:100D7000B601A50194010E94C833CA01B901A501B9
:100D800094010E94C833605D60934A0620E284E6C5
:100D9000C816D104E104F10448F0C701B60124E605
:100DA00030E040E050E00E94C833205D20934906C7
:100DB00089E496E0FF90EF90DF90CF90BF90AF90E6
:100DC0009F908F900895482F2091480690910F068C
:100DD00057E0291302C080E0089530E0529FF001EF
:100DE000539FF00D1124E05FF94F8181681306C015
:100DF0008081481303C085818111EECF2F5F3F4F63
:100E00002770E7CFE8EDF0E080818E7F808310923D
:100E1000E2001092DA001092E100A0EEB0E08C91B6
:100E200081608C9380818F77808319BCA7EDB0E0BF
:100E30008C918E7F8C9380818F7E80831092F705BA
:100E400008952091E4003091E50095E6A9012091F4
:100E5000EC00822F817020FF06C08091E80080FFA7
:100E600006C080E008952091E80022FD1AC080911C
:100E70000506882389F0853089F08091EB0085FD97
:100E80000FC02091E4003091E50042175307F9F2BA
:100E90009150E1F684E0089582E0089583E008959A
:100EA00081E008958091070687FF13C08091E800D4
:100EB00082FF06C08091E8008B778093E80004C031
:100EC000809105068111F2CF08958091050688234F
:100ED000D9F38091E80080FFF8CF8091E8008E7709
:100EE000ECCF982F9093E900242F762F50E08917AC
:100EF00031F07091EC002091ED005091F00021FD57
:100F000007C09F5F973071F78093E90081E00895F3
:100F10003091EB003E7F3093EB003091ED003D7F50
:100F20003093ED003091EB0031603093EB00709323
:100F3000EC002093ED005093F0002091EE0027FD8F
:100F4000E0CF80E00895B0E0A0E0E9EAF7E00C949B
:100F50007B33C8EDD0E088818F7E8883E7EDF0E0B9
:100F600080818160808384E082BF81E08093F70587
:100F700088818E7F888302EE10E0F8011082109243
:100F8000DA0081EEC82ED12CF601108288818F778D
:100F9000888388818068888388818F7D888319BC55
:100FA000109205061092060610920406109203068F
:100FB00090EEE92EF12CF70180818B7F8083888170
:100FC0008160888342E060E080E00E947107F60162
:100FD00080818E7F8083F801808181608083808121
:100FE00088608083F70180818E7F80838881806123
:100FF0008883CDB7DEB7E8E00C949733FC0180918D
:101000000D0690910E0686179707A0F061157105E1
:1010100029F49091E8009E779093E80090E06115A4
:10102000710551F4911108C08091E80082FF34C02D
:1010300080E00895BC01F2CF809105068823C1F1BC
:101040008530C1F18091E80083FD30C08091E800D7
:1010500082FDEACF8091E80080FFE1CF8091F3002C
:101060002091F200382F6115710519F028303105F3
:1010700058F091E02830310509F090E02091E80027
:101080002E772093E800CBCF81918093F1006150BF
:1010900071092F5F3F4FE7CF80910506882341F00C
:1010A000853041F08091E80083FFBECF81E0089554
:1010B00082E0089583E0089508958091FA050895E7
:1010C00087E797E7909301088093000888E19AE00A
:1010D0000FB6F894A895809360000FBE90936000BF
:1010E000FFCF2FB7F8946091F3057091F4058091CC
:1010F000F5059091F6052FBF08959C01FC013296ED
:101100009FEF80E04191461751F09F3F19F4411144
:1011100001C0982F8F5F8630A9F79F3F09F408958B
:10112000290F311D97FD3A95F90162830895FC015D
:10113000680F791F8FEF91E32191822728E030E03B
:1011400087FF09C0880F892721503109C9F7E617A1
:10115000F70791F70895880FF7CFFA01811101C0C1
:10116000FB010995089580918603982F9E7F71F465
:1011700080918603817082608093860380918903C9
:10118000893718F088E7809389030895843080F7C1
:10119000F5CFCF93DF93E7E9F3E083819481A581D5
:1011A000B681E90188839983AA83BB831482138261
:1011B00016821582DF91CF91089580E0089563E053
:1011C00070E082E192E00E949708909111028913E9
:1011D00018C0E0911202EB30A4F488E0E802F001BC
:1011E0001124E55FFE4F0680F781E02D309749F02E
:1011F00025E332E04091140265E172E08091130230
:1012000009950895EBE0F1E0ABEFB1E058968C91D1
:10121000589780A759968C9183AF089590916D024D
:1012200092FF10C041E0282F2471243009F040E0E3
:1012300031E0282F2871283009F030E0431711F0F1
:101240002CE0822793FF10C041E0282F2471243125
:1012500009F040E031E0282F2871283109F030E012
:10126000431711F02CE0822730916E0230FF10C03E
:1012700051E0282F2171213009F050E041E0282F62
:101280002871283009F040E0541711F029E0822736
:1012900031FF10C041E0282F2171213109F040E0D9
:1012A00031E0282F2871283109F030E0431711F080
:1012B00029E0822794FD877E089582389105B9F14F
:1012C000B0F48133910509F47DC048F48932910569
:1012D00009F46DC08A32910509F47BC00895853305
:1012E000910509F45FC08933910509F10895833EA2
:1012F0009105D9F138F4803E910529F1823E91059E
:1013000079F10895863E9105D9F1873E910509F45A
:101310003EC0843E910541F520916E0221FF24C01C
:1013200080916D0284FD19C087EE90E008952091B0
:101330006D02237009F05AC020916E0223FF14C081
:1013400089E290E0089520916D0220FD38C030912F
:101350006E0230FF09C024FF43C090E080E0089592
:1013600020916D0222FDF7CF089520916D0222FD9C
:101370003AC030916E0230FD39C024FFF5CFEDCF79
:1013800020916D0223FFF0CF24FDE7CFCDCF209138
:101390006D0223FD2EC030916E0231FFEECF84EE40
:1013A00090E0089520916D0225FFDECFC9CF2091F6
:1013B0006D0225FD21C020916E0223FFD5CF89E368
:1013C00090E0D2CF20916D0226FFCECF8AE290E04E
:1013D000089520916D0226FFC7CF81E390E0089524
:1013E00083EE90E0089582EE90E0089580EE90E024
:1013F000089586EE90E0089585E390E008951F93A8
:10140000CF93DF930E945D09EC01C11582E5D807F7
:1014100008F03FC0C11590E5D90708F0C2C0C83E2A
:10142000D105C0F4C03ED10580F4C53AD10548F4D9
:10143000C430D10550F4C130D10539F0D0E0C0E05E
:1014400004C0CD3CD105D0F3D065CE01DF91CF9162
:101450001F910895C11580E4D80708F053C0C11545
:1014600090E2D90708F0B7C0C11581E0D80730F382
:101470008D2F0E940E09182FCE0199270E945D0919
:10148000C12FD0E0DC2FCC27CC27DF71C82BD92B84
:10149000DCCFC03892E5D907A8F4C03682E5D8077A
:1014A00008F063C0C03492E5D90708F049C0C032E3
:1014B00082E5D80788F1CF71D0E0DC2FCC27C16F4F
:1014C000D06AC3CFC03C92E5D90780F48C2F8F71CE
:1014D000C03AD24508F45EC00E940E09C82FD0E081
:1014E000DC2FCC27CC27DF71D062AFCFC03E82E5A6
:1014F000D80708F0A3CFDC2FCC27CC27DF71C06F33
:10150000D06AA3CFCE0199270E945D09CC27DF7056
:10151000C82BD92BD06A99CF2C2F2695269590E2EF
:10152000299F900111248C2F8370C1E0D0E002C06C
:10153000CC0FDD1F8A95E2F7C22BD32BDD6885CF58
:101540002C2F26952695277080E2289F9001112444
:101550008C2F8370C1E0D0E002C0CC0FDD1F8A95D4
:10156000E2F7C22BD32BDC6870CF2C2F2695269563
:10157000277090E2299F900111248C2F8370C1E085
:10158000D0E002C0CC0FDD1F8A95E2F7C22BD32B2F
:10159000DA685BCFC82FD0E0DC2FCC27C46FD06ACD
:1015A00054CF8C2F8F710E940E0955E0D695C795A8
:1015B0005A95E1F7CF70D0E0DC2FCC27282F30E010
:1015C00084FF05C044E0220F331F4A95E1F7C22B88
:1015D000D32BD0693ACF8D2F8F710E940E09182F0F
:1015E000CE0199270E945D09C12FD0E0DC2FCC27C6
:1015F000CC27DF71C82BD92B77CF80959091F80538
:1016000098239093F80508958091480690910F06CD
:10161000981301C008958F5F8770FACF9C3080F5D2
:10162000883070F548E0949F90011124820F932F29
:10163000911D682F677023E0969587952A95E1F7AD
:10164000FC01EE0FFF1FE80FF91FEF53FE4F50E0B4
:1016500040E080E0219130E0062E02C036952795CB
:101660000A94E2F721703327042E01C0220F0A9456
:10167000EAF7822B4F5F5F4F4330510559F70895CA
:1016800080E008959C3098F5883088F548E0949F74
:1016900090011124820F932F911D282F277041E074
:1016A00001C0440F2A95EAF723E0969587952A957D
:1016B000E1F7FC01EE0FFF1FE80FF91FEF53FE4F9C
:1016C00090E080E070E05191DF0111979B01082EBE
:1016D00002C0369527950A94E2F7217021952527B7
:1016E000242325272C9301968330910561F70895D3
:1016F0008093F7010895982F92959F7011F0892F8C
:1017000094E0282F2695269511F09E5F822F8695CE
:1017100009F09F5F892F0895CF93C82F8091A5036B
:101720008C1751F00E9471086093A6037093A70371
:101730008093A8039093A903C093A503CF91089524
:10174000CF93C82F0E947B0B91E0833009F090E08B
:10175000892F0E948C0B80917F02823031F410928D
:101760007F028C2F8B7F09F0C82F8C2FCF9108958B
:101770000E94A00B8093BC0308959091BC0321E0CC
:1017800030E0F90101C0EE0F8A95EAF7D90102C0F5
:10179000AA0FBB1F6A95E2F7EA2B01C0220F4A95F8
:1017A000EAF7892F8E23E81305C0292B822F0E9488
:1017B000B80B089520952923F9CF21E030E001C02E
:1017C000220F8A95EAF720958091BC0382230E941C
:1017D000B80B08959091EC01809589238093EC01DA
:1017E000282F277069F4891759F090916E0292FFA3
:1017F00007C08695869586950E94DD0B1092EC01B8
:10180000089521E030E001C0220F8A95EAF7809127
:10181000BC03822B0E94B80B0895B0E0A0E0E3E186
:10182000FCE00C947B33FC01EB019091AA03911135
:1018300001C094E06081718191509B01092E02C02A
:10184000359527950A94E2F7D901092E02C0AA0F0F
:10185000BB1F0A94E2F76A1B7B0B71836083628172
:1018600073818B01092E02C0159507950A94E2F742
:10187000D80102C0AA0FBB1F9A95E2F76A1B7B0B27
:101880007383628381E80138BFEF1B072CF0802F40
:10189000003811050CF08FE78D8321389FEF390751
:1018A00054F1203831054CF5922F91959C834423B7
:1018B00019F081958D832C830E9471082D8121114F
:1018C00003C02C812223D9F06093AB037093AC0347
:1018D0008093AD039093AE038091AF039BE0980F8C
:1018E000973120F4080F0093AF031D82CDB7DEB708
:1018F000E8E00C94973321E8D7CF2FE7D5CFC090FD
:10190000AB03D090AC03E090AD03F090AE036C1944
:101910007D098E099F096436710581059105E0F204
:101920001092AF03D9CFFC01DB012281338191E812
:1019300021388FEF38072CF0922F203831050CF02A
:101940009FE712969C9312972081318121388FEF67
:101950003807A4F0203831059CF413962C93139784
:10196000442339F0919512969C93129721951396E2
:101970002C931182108213821282089521E8EDCFF8
:101980002FE7EBCFCF93DF93FC0120E297FF04C05A
:10199000F195E195F1092DE2CAE0D0E0CF01BE0159
:1019A0000E94B433805D8093B9016115710569F4BB
:1019B0002093B80120E22093B70120E22093B601E2
:1019C00086EB91E0DF91CF910895CB01BE010E949B
:1019D000B433805D8093B801CF0164E670E00E946B
:1019E000B4336115710539F3605D6093B701E6CFDB
:1019F0009C01860F971F37FD07C077FD04C097FF36
:101A000002C08FEF9FE7089577FFFDCF97FDFBCFD3
:101A100080E090E80895E82FE295EF70F0E031A1C2
:101A2000282F2F7081E090E001C0880F2A95EAF7F7
:101A3000382B31A392A18095892382A30895E82FA2
:101A4000E295EF70F0E031A1282F2F7081E090E057
:101A500001C0880F2A95EAF7982F9095932391A3B8
:101A600092A1892B82A30895B0E0A0E0EAE3FDE013
:101A70000C947B337C016B0180914E0601E010E0F9
:101A80008A3010F40AE010E0C1E0D0E065E576E0CD
:101A9000C701F6010995811104C021960C171D0795
:101AA0002CF4CDB7DEB7E8E00C949733CC9F9001CF
:101AB000CD9F300D300D112490E080E045E34A9534
:101AC000F1F70000019682179307C1F7DFCF0F935C
:101AD0001F93CF93DF938B01EA0190910506943019
:101AE00061F58093E9008FEF9091E800815095FDBA
:101AF00006C095ED9A95F1F700008111F5CF809120
:101B0000E80085FF1AC00E942107811111C0809151
:101B1000E80085FD06C08091E8008E778093E8009C
:101B2000F2CFF80181918F018093F100219779F72D
:101B30008091E8008E778093E800DF91CF911F912C
:101B40000F91089546E050E0BC0184E00E94670DCB
:101B50000895CF93DF93EC0148E050E0BC0181E0B1
:101B60000E94670D88E0FE01ABEFB5E001900D9299
:101B70008A95E1F7DF91CF9108956091740180918A
:101B8000860380FF20C08091730143E0849FC001E1
:101B9000112488559D4F539A2BB1277F3BB1386054
:101BA0005FB7F894FC01649FE00DF11D1124BF01A3
:101BB00068177907D1F45FBF8FE594E00197F1F7DB
:101BC00000C000000895809175019091760123E096
:101BD000829FF0011124E855FD4F8917A0F611826C
:101BE000108212828F5F3396F8CFFC014191CF01B2
:101BF000E8E03BB9000000C047FF2BB9440F0000EC
:101C000000C000C000C02BB900C0EA9591F7D0CF4A
:101C1000E6E8F3E080818E7F8083E5EAF2E082816E
:101C2000816082830E94BD0D08958091FA01811127
:101C300019C082E390E02091E30027FD10C0EFE39C
:101C4000FCE93197F1F700C000000197A1F782E0AD
:101C50008093FA010E9402071092050603C081E0FA
:101C60008093FA0181E09091FA01913011F080E0C7
:101C7000089508950E94150E882359F0E091F1050A
:101C8000F091F205309729F00190F081E02D09954F
:101C9000089580E008950F931F930E94150E8823E6
:101CA00029F00E9471081F910F9108950E947108F8
:101CB00000916702109168022091690230916A02D6
:101CC000600F711F821F931FEECF57985F9A879AFC
:101CD0008F9825E02A95F1F7000089B187988F9AAF
:101CE00090EA9A95F1F790E0880F892F881F990B59
:101CF00021E08227817008950E94650E882371F08B
:101D000080E08093730182E28093740110927501E8
:101D100084E48093760180937701089582E2F1CF85
:101D200080919703F90180830E947C0E0895CF93E0
:101D3000DF93C9E2D3E060E0CE010E9470342196C7
:101D4000C11584E0D807B9F7DF91CF9108951F93AB
:101D5000CF93DF93122F8430E0F46C30D0F448300E
:101D6000C0F490E1699FE001112450E0440F551F39
:101D7000C40FD51F90EC899FC00DD11D1124632F76
:101D8000CE0189960E947034612FCE018A960E94FE
:101D90007034DF91CF911F910895AF92BF92CF928F
:101DA000DF92EF92FF921F93CF93DF9380E2C82ED2
:101DB00089E0D82ED0E07601C0E014C0F50125916D
:101DC0003491412F6C2F8D2F0E94A70E82E0A80E18
:101DD000B11C1F5F183091F780E1E80EF11CCF5F56
:101DE000CC3019F0570110E0E9CFDF5F80ECC80E6E
:101DF000D11CD43001F7DF91CF911F91FF90EF906C
:101E0000DF90CF90BF90AF90089588E290E00E945D
:101E100070340895CF93C82F6FEF811163E285E28C
:101E200090E00E9470346FEFC11164E086E290E0B0
:101E30000E9470346FEFC11169E287E290E00E9466
:101E40007034CF91089580E00E940A0F60E070E046
:101E5000CB010E94050F0E94CD0E0E94970E81E0DB
:101E60000E940A0F08950F931F93CF93DF9384303E
:101E700030F56C3020F5483010F520E1629F80018C
:101E8000112450E0440F551F040F151F30EC839FA1
:101E9000000D111D1124C80189960E944C34C82FD1
:101EA000D0E0DC2FCC27C8018A960E944C349E01DA
:101EB000282BC901DF91CF911F910F91089590E0D8
:101EC00080E0F8CF462F7C3040F4683030F4843026
:101ED00020F4672F0E94330F089590E080E008956A
:101EE000CF92DF92FF920F931F93CF93DF936C01FA
:101EF0000091BC038091F701082BC3E0D0E010E013
:101F0000FC2EC8010C2E02C0959587950A94E2F725
:101F100080FD0CC02197A0F7F12C8F2DDF91CF9180
:101F20001F910F91FF90DF90CF900895B6018C2FF5
:101F30000E94620F0E94FF09019761F3EECFCF93D9
:101F4000DF93EC010E94700FBE010E94620F0E949D
:101F5000FF09DF91CF910895FC0124812223C1F074
:101F6000808191810E949F0F92959F70963091F091
:101F700058F4925F9F70923058F4803F19F030F41B
:101F8000883E30F481E008959A5FF4CF843FD1F326
:101F900080E00895883EB0F3813FD1F7F3CFA6E00B
:101FA000B0E0E5EDFFE00C94803349835A8349812A
:101FB0005A819923A1F0222391F0CA010E94700F47
:101FC000182F682F89819A810E94420B69817A813A
:101FD000812F0E94620F2696E3E00C949C33CA0185
:101FE0000E940E0B182FF2CF88E290E00E944C3432
:101FF000682F70E090E080E0089585E290E00E9414
:102000004C34833289F486E290E00E944C34843070
:1020100059F487E290E00E944C3491E0893209F053
:1020200090E0892F8170089580E0FCCFCF9390914C
:10203000A00280919A02981323C08091A102882364
:1020400021F090919B0289131BC08091A2028823EA
:1020500021F090919C02891313C08091A4028823DF
:1020600021F090919E0289130BC09091A3029923B5
:1020700029F081E020919D02291303C080E001C076
:1020800081E0C82FC17080FF0FC0E091F105F09191
:10209000F205309749F082E080939F020480F58139
:1020A000E02D8FE992E009959091A00286E0EFE99A
:1020B000F2E0DF01282F1D922A95E9F79093A00204
:1020C000A9E9B2E001900D928A95E1F781E0C11192
:1020D00003C0911101C080E08170CF9108952FE27B
:1020E000280F283078F481E090E001C0880F2A950D
:1020F000EAF72091A002662331F0822B8093A002A0
:102100000E941610089580958223F8CF8091F805DB
:102110009091F601892B8093A4019091F501992368
:1021200091F0892B8093A40120E086EA91E0FC01E4
:102130003191CF0131112F5FF1E08C3A9F07B9F750
:1021400021111092F50148E050E06DEE71E084EA53
:1021500091E00E943634892BA9F088E0E4EAF1E0AE
:10216000ADEEB1E001900D928A95E1F7E091F105B5
:10217000F091F205309731F00280F381E02D84EA8E
:1021800091E009950895E6EAF1E086E0DF011D920D
:102190008A95E9F71092F6010E9486100895AAE246
:1021A000B0E0E5EDF0E10C94803387E096E020911B
:1021B000F100DC012D93CD01B6E08F309B07B9F71C
:1021C00080910806833009F472C0B8F4813009F4B4
:1021D00049C0823009F4B5C08091E80083FF8DC208
:1021E00080910706909108069A3008F086C2E92F80
:1021F000F0E0EA55FB4C0C94EA338A3009F490C0C5
:102200008B3009F471C0893039F78091070681322B
:1022100019F780910B0690910C06009711F0029728
:10222000D9F68091E800877F8093E8008091E800EC
:1022300082FF38C09091F3008091F200029731F450
:102240008091F100813011F0863021F48091F1000D
:102250008093FA058091E8008B778093E8000E94D4
:102260005207BACF80910706813A09F0B5CF809125
:10227000E800877F8093E80080910B0690910C0620
:10228000892B61F468E08BEF95E070E00E94FE0717
:102290008091E8008B778093E8009ECF60E090E02B
:1022A00080E0F3CF809105068111C0CF95CF80915A
:1022B0000706813A09F090CF80910B0690910C06A9
:1022C000892B09F089CF8091E800877F8093E8000F
:1022D0008091E80080FFFCCF809172018093F10033
:1022E0008091E8008E77B9CF80910706813209F09E
:1022F00073CF80910B0690910C06892B09F06CCF5F
:102300008091E800877F8093E8000E9452078091C7
:102310000906809372011092F8050E94C3105CCFE9
:1023200080910706813209F057CF8091E800877FBE
:102330008093E8000E94520780910A068093F90575
:102340004BCF80910706813A09F046CF8091E80093
:10235000877F8093E8008091E80080FFFCCF809128
:10236000F905BCCF803899F0823809F0C6C1809158
:102370000B068F70873008F0C0C18093E900809110
:10238000EB0085FB882780F91092E90006C0809158
:10239000030690910406911182609091E800977F66
:1023A0009093E8008093F1001092F1008091E80092
:1023B0008E779FC1882309F48DC1823009F09DC1B9
:1023C00080910906811190C180910B068F702FEFCB
:1023D000280F263008F091C18093E9002091EB008E
:1023E00020FF82C1933031F48091EB0080628093B2
:1023F000EB007AC19091EB0090619093EB0021E0AB
:1024000030E001C0220F8A95EAF72093EA0010928B
:10241000EA008091EB008860EACF81116EC11091D3
:1024200009061F778091E3008078812B8093E30079
:102430008091E800877F8093E8000E945207809196
:10244000E80080FFFCCF8091E30080688093E30088
:1024500082E0111183E0809305064FC180588230DD
:1024600008F04BC12091090630910A062C3DE3E0AB
:102470003E07A1F583E08A838AE289834FB7F89407
:10248000DE01139620E03EE051E2E32FF0E05093AE
:102490005700E49120FF03C0E295EF703F5FEF70BB
:1024A0008E2F90E0EA30C0F0C7968D939D932F5FFA
:1024B000243159F74FBF8091E800877F8093E8006F
:1024C0006AE270E0CE0101960E94FE078091E8006A
:1024D0008B778093E80011C1C096E7CF80910B06FF
:1024E00090910C06432F55274330510509F44AC0FB
:1024F00078F54130510509F47AC08BE590E0E0E2CF
:10250000FCE04230510509F0F8C02091E800277F37
:102510002093E80020910D0630910E068217930754
:1025200008F49C0140E02115310509F065C0411116
:1025300063C08091E80082FDC9CF809105068823A1
:1025400029F2853019F28091E80083FFF2CFBECFE7
:102550004132510509F43CC04232510509F0CDC069
:102560008330910508F0C9C0FC01EE0FFF1FEB5648
:10257000FE4F0190F081E02D8E569E4FDC018C9134
:1025800090E01AC0332721303105D1F021153105F3
:1025900061F02230310509F0B0C0EDE8FCE0E491D3
:1025A0008E2F90E0EDE8FCE007C0E5EBFCE0E49165
:1025B0008E2F90E0E5EBFCE0009709F49EC0A5CFDC
:1025C000EDE9FCE0E4918E2F90E0EDE9FCE0F4CF42
:1025D0008330910508F091C0880F991FFC01E556E2
:1025E000FE4F0190F081E02D89E090E08ECF82E1F6
:1025F00090E0EBE7FCE089CF80910506882309F4A1
:1026000065CF853009F462CF8091E80083FD5ECF0D
:102610008091E80082FD8DCF8091E80080FF83CF1C
:102620009091F3008091F2002115310519F0883066
:10263000910550F041E0089709F040E08091E800F2
:102640008E778093E8006FCF44914093F1003196EC
:10265000215031090196E8CF803809F04EC08091B1
:10266000E800877F8093E800809106068093F10060
:102670009DCE811142C0109109061230F0F5809173
:10268000E800877F8093E800109306060E945207B7
:10269000112311F084E005C08091E30087FDFACF9B
:1026A00081E08093050642E061EC81E00E947107C1
:1026B00042E261EC84E00E94710742E261EC82E058
:1026C0000E94710742E260EC83E00E9471078091F2
:1026D000050613C080910906813079F481E09330BA
:1026E00009F080E0809304061092E9008091E800F0
:1026F000877F8093E8000E9452078091E80083FF63
:102700000AC08091E800877F8093E8008091EB0009
:1027100080628093EB00AA96E3E00C949C331092C5
:10272000F8050E94C3102FEF84E39CE02150804005
:102730009040E1F700C0000088E19AE00FB6F894FD
:10274000A895809360000FBE90936000FFCF882310
:1027500021F00E94FD0A0E9486100895882339F016
:102760009091F805982B9093F8050E948610089593
:10277000882349F19CEF980F913A80F4E6EAF1E062
:102780002CEA31E09191891303C0DF0111971C926B
:102790002E173F07B9F70E948610089590E2980F10
:1027A000983050F4877091E001C0990F8A95EAF74C
:1027B000892F0E94FD0AEFCF93E3980F933118F40D
:1027C00060E00E946F100895CF93C82F8823A9F06E
:1027D0008CEF8C0F813A00F5E6EAF1E0DF018D9194
:1027E000C81769F081E0AC3AB807C9F76C2F84EAE2
:1027F00091E00E947D080E948610CF9108958191FA
:10280000C81303C0DF0111971C9281E0EC3AF8076E
:10281000B1F70E948610EACF80E28C0F883068F40E
:10282000C77021E030E001C0220FCA95EAF780911D
:10283000F805822B8093F805DECF83E38C0F83317C
:10284000E0F661E08C2F0E946F10D7CF1F93CF93DB
:10285000DF93182FEB010E94E4138FE99FE00197AB
:10286000F1F700C000002197C1F7812F0E94B81333
:10287000DF91CF911F9108951F93CF93DF93162F70
:102880008A3039F481E00E94FA14DF91CF911F91D0
:1028900008958D3011F480E0F6CFC0919403D0916B
:1028A000950396E0FE01AEE8B3E001900D929A9593
:1028B000E1F7803E90F186E0FE0111928A95E9F7FA
:1028C000C0919403D0919503111133C046E050E0BC
:1028D000BE018EE893E00E9436349E01255E3340AF
:1028E000892B91F52A5F3F4F40919603642F70E04A
:1028F000C9010E945D33481B463010F4240F311D7E
:10290000211572E0370710F030E020E02B513C4FEA
:102910003093950320939403B8CFF6E08F9FB001D6
:102920001124635D7C4F46E050E0CE010E942D34BF
:10293000C7CF9E012A5F3F4FFE012E173F0731F29E
:10294000808180958193F9CFC90145E0969587955F
:102950004A95E1F741E050E0BA0102C0660F771FE7
:102960008A95E2F7CB016091E7057091E805862B27
:10297000972BB9016B5F7F4FE5E076956795EA95F8
:10298000E1F702C0440F551F6A95E2F7842B952B9F
:102990009093E8058093E705A5CF1F93CF93DF932E
:1029A000EC01162FFE018491811104C0DF91CF91BB
:1029B0001F910895612F0E943C142196F3CFFF923E
:1029C0000F931F93CF93DF93EC01F62EFC01019040
:1029D0000020E9F78F0101501109C017D10728F035
:1029E000CDB7DEB7E5E00C949A336F2D89910E9444
:1029F0003C14F3CFCF93382FE0919403F0919503DB
:102A0000E55EF34020919603622F70E0CF010E94B3
:102A10005D33281B822F332369F066E00E94A833C0
:102A2000C82FC15010F4CF91089560E080E20E9459
:102A30003C14F7CF9F01280F311D2115324018F0AB
:102A400080E0F0E0E0E08E0F9F2F911D8B519C4FB6
:102A50009093950380939403E6CFB0E0A0E0E3E386
:102A6000F5E10C947B336C017B0164E670E088E750
:102A70000E94BB308C01E601EC0CFD1C17FD0BC065
:102A8000FE01849164E670E00E9427318C0121965A
:102A9000CE15DF0599F70E949D3181E001151105E2
:102AA00009F080E0CDB7DEB7E8E00C949733CF9320
:102AB000C091ED058091F0058823D1F00E94710846
:102AC000605A75418F4F9F4F6093E9057093EA05F7
:102AD0008093EB059093EC05C11108C062E070E0B3
:102AE0008DE698E00E942D15811105C0C091ED057D
:102AF0008C2FCF91089581E08093ED05F7CFB0E062
:102B0000A0E0E5E8F5E10C94773349015A016B0147
:102B10007C010E94B3088401A4016A2D7B2D88E00A
:102B200090E00E94823494014A2D5B2DB601C701CA
:102B300000E20E941234622F84E290E00E9470341E
:102B4000CDB7DEB7ECE00C949333B0E0A0E0EBEA55
:102B5000F5E10C947733182FC62FD42F822E0091D5
:102B6000860300FF50C080918703811308C08091C5
:102B70008803861304C080918903841729F080910B
:102B8000A70282608093A702E02FE695F0E0E85765
:102B9000FE4F80818093A502802F8E7F8230E9F4E2
:102BA000ED2FD93708F0E8E7F0E0E35DFD4FC11104
:102BB0002FC02491F22FE22F00FF0FC080917501EA
:102BC0009091760133E0839FD0011124A855BD4F29
:102BD000891708F492C00E94BD0D10938703C0931B
:102BE0008803D0938903882071F020918603609137
:102BF0008A0370918B03312FAE0180918C039091E9
:102C00008D030E947F15CDB7DEB7ECE00C949333B3
:102C1000EC2EF12CE4919E2ECE2ED12C26E0129F8C
:102C2000C00111242FEF30E0B9010E945D33812FE4
:102C300090E0880F991FF5E5F69FA001F79F500DD2
:102C40001124841B950BB82EBB0CB80EA9014E198C
:102C50005F094C9DC0014D9D900D5C9D900D112410
:102C6000F92FCB9DA0011124452F5527D901A41B75
:102C7000B50BAC9DA001AD9D500DBC9D500D112418
:102C8000D901AB19B1095D01AE9CD001AF9CB00D6B
:102C9000BE9CB00D1124AB2FBB272A1B3B0B2C9DD8
:102CA000D0012D9DB00D3C9DB00D11242B2F623015
:102CB0007105A1F050F46115710509F47DCF613003
:102CC000710581F0292FF52F77CF6430710569F0F8
:102CD00080F06630710509F46FCFF4CF2E2FE92F05
:102CE000FB2F6ACF2E2FE52F67CF292FFE2FEB2F3B
:102CF00063CFE92FF92D252F5FCF1196EC93119714
:102D00002C931296FC9312978F5F139661CFE6E88F
:102D1000F3E043812CE0421B08F440E021E06281B3
:102D200081810E94A5150895E6E8F3E043812CE037
:102D3000420F08F44FEF21E0628181810E94A515C6
:102D40000895E6E8F3E0628121E1621B08F460E0A7
:102D500021E0438181810E94A5150895E6E8F3E012
:102D6000628121E1620F08F46FEF21E043818181EC
:102D70000E94A5150895E6E8F3E0818121E04381F2
:102D8000628181510E94A5150895E6E8F3E08181F2
:102D900021E0438162818F5E0E94A5150895809194
:102DA0008A03882319F0815080938A032091860337
:102DB00030918703409188035091890360918A0381
:102DC00070918B0380918C0390918D030E947F15ED
:102DD000089580918A03833018F48F5F80938A036B
:102DE0002091860330918703409188035091890395
:102DF00060918A0370918B0380918C0390918D0375
:102E00000E947F1508952091860320FF24C0217021
:102E10002260209386038091A70281608093A7029D
:102E2000662381F030918703409188035091890394
:102E300060918A0370918B0380918C0390918D0334
:102E40000E947F1520E04091890360918803809162
:102E500087030E94A5150895809186038695815069
:102E600009F481E061E00E940317089561E081E0C8
:102E70000E9403170895E6E8F3E083E0808311825F
:102E80008FEF828388E783831482A5EAB2E01296EB
:102E90008C911297836012968C93758123E030E0B9
:102EA0004FEF58E760E0868197810E947F15089573
:102EB00090916E0292FB222720F9281779F080FB6F
:102EC00092F990936E0260916D0270916E0284E0AF
:102ED00090E00E948E3482E00E94EA0B089590E018
:102EE00080E00E945A34863E9E4F19F40E94FD0FE6
:102EF000089580E00895B0E0A0E0E1E8F7E10C94E7
:102F00007C337901C82F880FDD0B41155105A9F0DD
:102F1000FE0193E0EE0FFF1F9A95E1F7E55FFE4F8C
:102F20008181928185509E4F208130E04217530766
:102F300008F49A01A9010E944334CE010E94E732AD
:102F4000D82E8823D1F001151105B9F083E0CC0FFC
:102F5000DD1F8A95E1F7FE01E55FFE4F438150E0FA
:102F60000417150708F4A801C55FDE4F6C817D8149
:102F700065507E4FC7010E9443348D2DCDB7DEB71B
:102F8000E7E00C949833A5E0B0E0E9ECF7E10C94AD
:102F900079338D83E62E5A01F22E680180914E0618
:102FA0008A3028F080E02596EAE00C9495338D81F4
:102FB0008830C4F31A8219828A836B832C8363E07E
:102FC00070E0CE0102960E9497088983E092330157
:102FD000F092460110E000E030E020E044E050E0F4
:102FE000BE016F5F7F4F84E00E947B178823D1F280
:102FF0004E2D50E030E020E0B50185E00E947B17C7
:10300000882381F230E020E041E050E0BE016B5FB8
:103010007F4F86E00E947B17882321F20F2D10E05E
:10302000960150E040E070E060E087E00E947B178E
:10303000BACFABE0B0E0EFE1F8E10C947F3388E089
:10304000E6E8F3E0DE01119601900D928A95E1F732
:103050008091A5029091A602A091A70289879A87E4
:10306000AB872B85409163025091640260916502A9
:10307000709166023FB7F8948091F3059091F40542
:10308000A091F505B091F6053FBF841B950BA60BEB
:10309000B70B84369105A105B10510F42223C1F0C8
:1030A00010E000E030E020E04BE050E0BE016F5F58
:1030B0007F4F83E00E947B17882369F00E9471088C
:1030C000609363027093640280936502909366023A
:1030D0001092A70281E02B96E4E00C949B33A4E0CD
:1030E000B0E0E5E7F8E10C947F3340915F02509146
:1030F000600260916102709162022FB7F894809132
:10310000F3059091F405A091F505B091F6052FBF58
:10311000841B950BA60BB70B11E084369105A10516
:10312000B10518F10E944B0E6E5F7F4F8F4F9F4F7E
:1031300069837A838B839C8310E000E030E020E099
:1031400044E050E0BE016F5F7F4F82E00E947B173A
:10315000182F882351F00E94710860935F027093CA
:1031600060028093610290936202812F2496E4E0D2
:103170000C949B33A7E0B0E0E0ECF8E10C947D33D5
:103180007B0101E010E09E01295F3F4F50E040E0ED
:1031900070E060E080E00E947B17182F882309F41C
:1031A00053C040915B0250915C0260915D0270914E
:1031B0005E022FB7F8948091F3059091F405A091E9
:1031C000F505B091F6052FBF841B950BA60BB70B29
:1031D00084369105A105B10548F466E070E08CEFF6
:1031E00091E00E9497089F81891771F106E010E035
:1031F0009E012F5F3F4F50E040E070E060E081E0D3
:103200000E947B17082F66E070E08CEF91E00E942F
:10321000970811E09F81981310E0102301F10E949C
:10322000710860935B0270935C0280935D029093DF
:103230005E0286E0FE013196A5E5B2E001900D92B6
:103240008A95E1F711E00BC086E0ECEFF1E0DE01DA
:10325000119601900D928A95E1F71111EACF86E05F
:10326000E5E5F2E0D70101900D928A95E1F7812F13
:103270002796E6E00C9499330E94650E80930A012C
:1032800080910A01882359F01092730185E280939E
:1032900074010E94150E81110E94FB31089585E290
:1032A00080937301F4CFA8E0B0E0E9E5F9E10C9474
:1032B000813366EE7EEF90E080E00E948E3460E025
:1032C00082E090E00E94703460E083E090E00E9431
:1032D00070341092F70160E074E184E090E00E94A5
:1032E0008E3460E086E090E00E9470346FEF87E0FB
:1032F00090E00E94703440E050E0BA0188E090E035
:103300000E94823460E084E290E00E94703460E0C9
:1033100087E190E00E94703460E08CE090E00E94D1
:10332000703460E08DE090E00E94703419821A825F
:103330001B821C821D821E821F82188648E050E07C
:1033400068E170E0CE0101960E94603440E050E0F8
:10335000BA0180E290E00E94823480E00E940A0F6D
:103360000E94230F40E050E0BA018FE090E00E94FD
:103370008234EDEBF3E015821682178281E08083C0
:1033800084E690E0928381838AE090E09483838353
:10339000408151816281738183E190E00E94823497
:1033A0002896E2E00C949D3328E030E043E060E0B2
:1033B00086E30E94E32F0895ACE0B0E0E2EEF9E18D
:1033C0000C947B334F83588769877A878B879C87D8
:1033D00080919703882399F00E94D41980E50E9478
:1033E0005B308AEB8A95F1F700C00E9473308878D1
:1033F00099278038910509F487C00E948B300E947C
:10340000150E882309F46BC00E9471080091BB015E
:103410001091BC012091BD013091BE016B017C0176
:10342000C01AD10AE20AF30A970186010830110591
:103430002105310508F453C06093BB017093BC01B2
:103440008093BD019093BE010091A6031091A70344
:103450002091A8033091A903601B710B820B930B81
:10346000623371058105910580F410929B031092DF
:103470009A0310929D0310929C0310929F03109246
:103480009E031092A1031092A0031091A5030E9425
:10349000650E482FBE01695F7F4F8AE993E01123D3
:1034A00009F45FC00E940D0C0091A50310919703D1
:1034B0000E94650E41E04827BE01695F7F4F8EE99B
:1034C00093E0011709F450C00E940D0C86E0FE0144
:1034D0003796A4EBB3E001900D928A95E1F786E070
:1034E000FE013796DE01119601900D928A95E1F763
:1034F00029813A814B815C816D817E8180E090E001
:103500002C96E8E00C9497330E9473300E9473303D
:103510007C010E94733020E0E22AF82A0E94733076
:103520008C010E94733020E0022B182B0E948B30FC
:10353000F894B70180919A0390919B030E94F80C34
:1035400090939B0380939A03B80180919C03909180
:103550009D030E94F80C90939D0380939C037894A4
:103560004ECF0E94930CA0CF0E94930CAFCFCF936D
:10357000DF93D82FC62F0E94D4198D2F80680E9408
:103580005B308C2F0E945B308AEB8A95F1F700C08C
:103590000E948B3083E492E00197F1F700C00000B5
:1035A000DF91CF910895CF9362E370E00E945D3385
:1035B000C72F8EE00E94B71A6C2F8FE00E94B71AB7
:1035C00060E080E50E94B71ACF9108959C0182388F
:1035D0004EE3940710F021E83EE33093A3032093D9
:1035E000A20341E04093A40340919703442331F0A8
:1035F000892B29F0C90101970E94D31A089587EEFB
:1036000093E0FACFFB01808191810E94E61A089530
:103610002091A2033091A3032115310511F428EE66
:1036200033E0820F931F1816190614F081E090E022
:103630000E94E61A0895CF93DF93C82F0E94D419F1
:103640008C2F0E945B308FE792E00197F1F700C06A
:1036500000000E947330EC010E948B309AE69A952C
:10366000F1F700C0CE019927DF91CF910895CF9354
:10367000DF930E94DB2F269A0E94D4196AE58AE321
:103680000E94B71A2FEF80E792E0215080409040CF
:10369000E1F700C0000082E00E941B1B83E00E9453
:1036A0001B1B84E00E941B1B85E00E941B1B86E005
:1036B0000E941B1B60E080E10E94B71A80E00E941C
:1036C0001B1BD82F81E00E941B1BC82F0E948B3030
:1036D000D73419F481E0C13009F080E08170809323
:1036E0009703882341F087EE93E00E94D31A60E0AD
:1036F00080E50E94B71ADF91CF9108951F920F9233
:103700000FB60F9211242F933F934F935F936F93B4
:103710007F938F939F93AF93BF93CF93DF93EF9359
:10372000FF93D091E900DF708091EC00C82FC17049
:1037300080FDC0E81092E9008091F000877F8093BF
:10374000F00078940E94CF101092E9008091F00070
:1037500088608093F000CD2BCF70C093E900FF917B
:10376000EF91DF91CF91BF91AF919F918F917F9119
:103770006F915F914F913F912F910F900FBE0F90DE
:103780001F9018951F920F920FB60F9211242F932E
:103790003F934F935F936F937F938F939F93AF93D9
:1037A000BF93EF93FF938091E10082FF09C0809166
:1037B000E20082FF05C08091E1008B7F8093E100F1
:1037C0008091DA0080FF24C08091D80080FF20C063
:1037D0008091DA008E7F8093DA008091D90080FF9B
:1037E0009DC080E189BD82E189BD09B400FEFDCFA5
:1037F00081E0809305068091F705811109C00E9440
:1038000002070E94A3078091E20084608093E20097
:103810008091E10080FF17C08091E20080FF13C01B
:103820008091E2008E7F8093E2008091E2008061CF
:103830008093E2008091D80080628093D80019BC08
:1038400085E0809305068091E10084FF2BC0809184
:10385000E20084FF27C080E189BD82E189BD89B58E
:10386000982F917080FFFBCF8091D8008F7D80933F
:10387000D8008091E1008F7E8093E1008091E2008A
:103880008F7E8093E2008091E20081608093E2006D
:1038900080910606882309F447C084E080930506DA
:1038A000809105068091E10083FF27C08091E200AE
:1038B00083FF23C08091E100877F8093E10082E055
:1038C00080930506109206068091E1008E7F80931A
:1038D000E1008091E2008E7F8093E2008091E2001F
:1038E00080618093E20042E060E080E00E94710726
:1038F0008091F00088608093F000FF91EF91BF917C
:10390000AF919F918F917F916F915F914F913F9177
:103910002F910F900FBE0F901F90189519BC109209
:1039200005061092F70574CF8091E30087FD93E0C0
:1039300090930506B5CF78941F921FB61F9211245D
:103940008F939F93AF93BF938091F3059091F4056C
:10395000A091F505B091F6050196A11DB11D8093CA
:10396000F3059093F405A093F505B093F605BF9188
:10397000AF919F918F911F901FBE1F9018959C0132
:103980004FB7F8948091F3059091F405A091F50557
:10399000B091F6054FBF821B930B08952FB7F89493
:1039A0008091F3059091F405A091F505B091F6058D
:1039B0002FBF08952F923F925F926F927F928F92C6
:1039C0009F92AF92BF92CF92DF92EF92FF920F93AE
:1039D0001F93CF93DF938091F005882309F433C1BF
:1039E0008091EE059091EF050E94BF1CC29708F4EC
:1039F000FFC00E94CE1C9093EF058093EE0585EEEC
:103A000093E090939503809394030E94150E88236E
:103A100009F439C1C091B003DC2F60E08FEA98E06F
:103A20000E94CD148091B3038F708A3008F01DC1BD
:103A3000805D60E00E943C1460E08BEA98E00E94A8
:103A4000CD148091B2038F708A3008F010C1805D70
:103A500060E00E943C14DD2309F40FC160E088EAB5
:103A600098E00E94CD148C2F82958F708A3008F0D8
:103A700000C1805D60E00E943C148C2F8F708A3002
:103A800008F0F9C0805D60E00E943C148CEF8C0F60
:103A9000853308F0F2C060E084EA98E00E94CD141B
:103AA0008C2F8450990BFC01E159F74F849160E011
:103AB0000E943C1460E08BEC98E00E94CD14809151
:103AC000B603082E000C990B0E94C20C60E00E9405
:103AD000DF148091B703082E000C990B0E94C20CD2
:103AE00060E00E94DF148091B903082E000C990B4E
:103AF0000E94C20C60E00E94DF148091B803082E7F
:103B0000000C990B0E94C20C60E00E94DF1460E080
:103B100082EC98E00E94CD148091A2039091A303BF
:103B2000009711F488EE93E064E670E00E945D3344
:103B3000CB010E94C20C60E001960E94DF1460E09D
:103B40008CEB98E00E94CD148091A503811199C05F
:103B500080E360E00E943C1460E088EB98E00E9403
:103B6000CD148091AA03811101C084E060E0805DE2
:103B70000E943C146091BD038BED98E00E94CD142F
:103B8000C091BD038091BC030E947B0B0E947C0608
:103B90006C2F0E94DF146091BD0387ED98E00E94B6
:103BA000CD14C091BD038091BA030E947C066C2F96
:103BB0000E94DF146091BD0385ED98E00E94CD1452
:103BC000C091BD038091BE030E947C066C2F0E94B1
:103BD000DF146091BD0381ED98E00E94CD14C09187
:103BE000BD038091C0030E947C066C2F0E94DF14ED
:103BF0008091E7059091E805892B09F04AC08091F2
:103C0000ED05882301F10E9471080091E9051091EA
:103C1000EA052091EB053091EC05601B710B820BDE
:103C2000930B6F3F7F4F8F4F9F4768F48091F00554
:103C3000882349F062E070E08EE199E00E942D1542
:103C400081111092ED05DF91CF911F910F91FF909F
:103C5000EF90DF90CF90BF90AF909F908F907F902C
:103C60006F905F903F902F900895895AE2CE895AC5
:103C7000EFCE895AFFCE895A06CF81E00E94FA140E
:103C800019CF81E366CF60E08EED98E00E94CD14FD
:103C9000AFCF8091F005882309F4B1CF8091E6057C
:103CA0008111ADCF0E9457152091E7053091E805AD
:103CB0002115310509F4A3CF80E041E050E0082F41
:103CC00010E01A01082E02C0220C331C0A94E2F7FD
:103CD000B10162237323672B11F48F5FF0CF9091B2
:103CE000E50590FF95C0880F880F880F80936D01C0
:103CF00010927001895F80936E0183E0809371015F
:103D000024E630E047E050E06BE671E088E70E948F
:103D10005531892B09F073CFA80125E0440F551FB9
:103D20002A95E1F78091E50580FF84C0E5ECF3E09A
:103D300080E2DF011D928A95E9F7AEE8B1E00AE87A
:103D400011E082E9C82E81E0D82E97E0592E772421
:103D500073948D91E80129918E01240F352F311D27
:103D60002B513C4FE82FF0E0EB53FC4F90E080E00C
:103D7000652C681A872C082E01C0880C0A94EAF773
:103D80007901A12CE701B9907E01B820662D6A194E
:103D90006770962E062E000C770BDB2D01C0DD0F11
:103DA0009A94EAF77195619571096770772701C058
:103DB000B6946A95EAF7BD2A6081962E9B28908278
:103DC000A39468E0A612DECF019631968830910563
:103DD00079F6CA16DB0609F0BCCF04E610E020E253
:103DE00030E045EC53E060E488E70E947631892BAF
:103DF00009F005CFE101C095D0958091E70590913C
:103E0000E805C823D923D093E805C093E705F7CE8A
:103E10008295880F807680936D019801369527955D
:103E20003695279520937001815E80936E012093D3
:103E3000710166CF4B515C4F04E610E020E230E0A8
:103E4000D2CF82E00E94010C0E94CE1C90937E0291
:103E500080937D0282E080937F020895A8E0B0E025
:103E6000E4E3FFE10C9473338C01DC0114968C9134
:103E70001497882309F4BEC021E04C9111965C91FF
:103E8000119712966C91129713967C911397159631
:103E90009C910E94CF0F7C01F8018581882309F451
:103EA0006AC1C70197578038910508F064C1FFE0E7
:103EB000FE1508F48FC08FEF93E00E944C348111FF
:103EC00089C069E2A62E63E0B62EE1104DC0FE0166
:103ED000339686E0DF011D928A95E9F75AE0452E78
:103EE0007501BFEFEB1AFB0AC5010E944C348983B0
:103EF0001A82882309F46EC0813009F07FC0650101
:103F0000E2E0CE0ED11CC7010E944C348A83882384
:103F100009F460C09FEF980F9330A0F5F3E0AF0E67
:103F2000B11CC6010E944C348B83882309F452C013
:103F30001C82DE0111967D01F7012081222381F28E
:103F4000213009F0BAC091818281913009F058C0C6
:103F5000F2E0EF0EF11C65E070E0893311F460E5EA
:103F600070E00E94261453C0A11424E0B20691F11F
:103F7000C5010E944C34811101C0EA943FEFA31A9D
:103F8000B30AA3CF56018430A1F642E0E42EF12C0F
:103F900056012FEFA21AB20AC6010E944C34E1E08A
:103FA000F0E0EC0FFD1FEE0DFF1D8083882391F0E4
:103FB0008C3741F4E2E0F0E0EC0FFD1FEE0DFF1D49
:103FC0001082B7CF3FEFE31AF30A650187E0E816E6
:103FD000F104F1F68091EC01877061F0D80115963B
:103FE0008C91882339F080916E0282FF03C082E0B9
:103FF0000E94EA0B2896E0E10C948F33570199CF89
:10400000923039F522E0E20EF11C0E94E413FFEF3A
:10401000EF1AFF0A8FE99FE00197F1F700C0000057
:10402000AFE9BFE01197F1F700C00000EFE9FFE052
:104030003197F1F700C000008FE99FE00197F1F799
:1040400000C00000AFE9BFE01197F1F700C0000029
:1040500073CF933031F432E0E30EF11C0E94B813B9
:10406000D6CF943021F08FEFE81AF80AD0CF92E043
:10407000E90EF11C30E020E0B7016F5F7F4FD70100
:1040800011964C918053990B8A30910558F021502C
:10409000310908F4BCCFEFE9FFE03197F1F700C038
:1040A0000000F5CF429EF001439EF00D11249C01CB
:1040B0002E0F3F1F842F7B01DFCFE22FF0E0E5576B
:1040C000FE4F5490822F86958695869590E0FC0150
:1040D000E558FE4F64902770712C022E02C0759433
:1040E00067940A94E2F731E063227724FC01E559F2
:1040F000FE4F8490912C022E02C0959487940A94CE
:10410000E2F7A1E08A229924FC01E55AFE4FC4900F
:10411000D12C02C0D594C7942A95E2F7B1E0CB2206
:10412000DD246114710419F081EE0E94E4138114FE
:10413000910419F086EE0E94E413E9E365E070E073
:104140005E1202C060E570E0852D0E942614811485
:10415000910419F086EE0E94B8136114710419F0ED
:1041600081EE0E94B813C114D10409F450CF65E068
:1041700070E08CE2F6CEF092B103E092B003F80169
:10418000808191819093B3038093B2038581FCE495
:10419000EF16FEE7FF0609F476C0C0F53AE4E31631
:1041A0003EE7F30609F44CC09BE4E9169EE7F906E6
:1041B00009F45CC0882331F080917F02823011F4D1
:1041C0000E94211FC7019A9581159F4108F07DC06B
:1041D000F701FF27D80115968C91E13DF10548F0D4
:1041E000E93DF10508F473C0E734BEE7FB0709F4C5
:1041F000BEC0882309F46FC0E054FE47EA30F105E1
:1042000008F069C0E055FB4C0C94EA33ADE4EA16C3
:10421000AEE7FA0609F445C0BEE4EB16BEE7FB06BE
:1042200049F6882309F4D6CE8091C0039091C1034A
:104230000197181619060CF440C081E090E03DC0CB
:10424000882309F4C7CE8091BD0391E0892780932C
:10425000BD034091BD035091BE036091BF037091B7
:10426000C00383E190E00E948234B4CE882309F435
:10427000B1CE8091BE039091BF0305969093BF038A
:104280008093BE03E6CF882309F4A4CE8091BE03B9
:104290009091BF0305978530910584F785E090E004
:1042A000EDCF882309F496CE8091C0039091C1038D
:1042B0000196883EE3E09E072CF49093C10380931F
:1042C000C003C7CF87EE93E0F8CFF70183CF682F05
:1042D0008E2F0E946F10F8018581F6E1EF16FCE742
:1042E000FF0609F072C0882309F45AC08091F805CE
:1042F0008A7A91E009F490E09093BF0169E281111C
:1043000065E384EA91E00E947D080E94861062CEF7
:1043100090E080E00E94E61A1092AA035BCE8091A2
:10432000A2039091A30362E370E00E945D33462FE5
:104330005091AA035770852F880F572F5170582B13
:1043400060E070E08FE090E08ECF84E690E00E9425
:10435000081B40CE8CE99FEFFACF88EE93E0F7CFB1
:1043600088E19CEFF4CF9091A50381E089270E941A
:104370008C0B30CE8091AA03811101C084E08F5F45
:1043800018160CF081E0883008F087E08093AA03CB
:1043900021CE8091AA03811101C084E08150F0CF29
:1043A0008091BF0181110FC089E2E6EAF1E02CEAB9
:1043B00031E09191891303C0DF0111971C922E17F0
:1043C0003F07B9F7A2CF85E3F0CF811114C38091E5
:1043D000F8058272F701E052F847E531F10508F07F
:1043E00063C0E654FB4C0C94EA338091860380FF53
:1043F0001CC0282F2E7F2093860330918703409185
:1044000088035091890360918A0370918B03809196
:104410008C0390918D030E947F158091A70281608B
:104420008093A7020E94BD0DD5CD81608093860345
:1044300061E086950E940317CDCD4CE257E166E31B
:1044400077E10E94AD08C6CD46E357E16CE277E123
:10445000F8CF4BEB56E165EC76E1F3CF45EC56E156
:104460006BEB76E1EECF41EA56E16EEA76E1E9CF19
:104470004EEA56E161EA76E1E4CF47E856E164E9C5
:1044800076E1DFCF44E956E167E876E1DACF4FEC39
:1044900056E169EE76E1D5CF49EE56E16FEC76E173
:1044A000D0CF61E081E0C6CF27E7E2162CE7F20625
:1044B00009F460C038E7E3163CE7F30609F45EC090
:1044C000F8018581E080F180882309F49FC0C7014D
:1044D0000E94700FD82E682FC7010E94420BB701AF
:1044E0008D2D0E94620F0E94FF097C01882ED80149
:1044F0001596AC90159716969C9092943FE0932257
:104500008091EC018770F1F0CA2CAA20E1F08F2D88
:10451000807F803451F080E28E0D883098F09110C9
:1045200004C08F2D807E803269F080916E0282FF00
:1045300009C082E00E94EA0B8091EC018770CC24D4
:10454000C3948111C12CBF2CB2942FE0B222BBE0E6
:10455000BB1508F4C3C0EB2DF0E0E153FB4C0C9409
:10456000EA3381E00E94010C43E062E081E00E94B6
:10457000BD0B30CD81E00E94DD0BF6CF82E0FBCF9A
:1045800083E0E8168CE7F80671F160F4E114ACE71B
:10459000FA06D1F0B1E0EB16BCE7FB0609F090CFCC
:1045A0000E948F13EBE5EE16ECE7FE0669F1FCE5E1
:1045B000EF16FCE7FF06F1F02AE5E2162CE7F2061B
:1045C00009F07ECF81E01DC01092F8050E94C31053
:1045D0003FEF84E39CE0315080409040E1F700C021
:1045E00000000E9460086FEF7FEF90E080E00E9483
:1045F0008E34D6CF80916E0282FB882780F991E0BD
:1046000089270E9458175CCF80E0FBCFC7010E942A
:104610000E0BD82E64CFEF2DEF70DE2E8F2D807F06
:1046200019F0D29490EFD922AA20B9F0DD2069F0D8
:1046300080E28E0D883010F0811009C08091F8055D
:10464000D82AD092F8050E9486108E2D45C0809100
:10465000F601D82AD092F601F6CF8E2D0E94B8131B
:10466000DD20E1F180E28E0D883010F0811004C071
:104670008D2D0E94FD0A06C0D0948091F601D822AB
:10468000D092F6010E94861029C0FF2DFF70DF2E08
:104690008F2D807F803219F0D29480EFD82288202D
:1046A00059F021E0821609F481C0AA2009F48DC0D6
:1046B000992009F44FC0C9CF80916E0282FD46C097
:1046C000AA20F1F1DD2039F08091F805D82AD092A6
:1046D000F8050E94861080E00E94E413AB2DA850DC
:1046E000BB0B149710F40E943A0ECC20A9F08091D5
:1046F000EC0180FD11C0F80115828695869586959E
:104700000E94010CC8010E942E1F8091EC01869529
:10471000869586950E94DD0B20E0D8014C9111967C
:104720005C91119712966C91129713967C91139746
:1047300014968C91149715969C910E94CF0F5ACC89
:1047400080E00E94B813DD2049F292CFAA20A1F0A8
:10475000911004C08D2D0E94AE13C0CF31E0931292
:10476000BDCF8091F5019D2D9823D91609F4B6CFC0
:10477000D82AD092F501B2CF9110B0CF8D2D0E94E2
:10478000A7139091F5018D2D892329F08D2D80950A
:1047900089238093F5018091C0019D2D982309F410
:1047A0009DCFD094D822D092C00198CFAA2029F0D2
:1047B00085E0891508F492CFCDCF94E0991508F4DF
:1047C0008DCF8D2D0E94A71389CF9920D1F3A9E316
:1047D0008A1209C1BFEFE7EEF3E0B150E040F040CC
:1047E000E1F700C000008E2D0E94B81377CF6A2D2C
:1047F0008E2D0E946F1072CF8F2D837091F5A110B6
:104800006DCF4E2D429546954770440F440F8E2D27
:104810008F70042E01C0880F0A94EAF72E2D2071A4
:10482000E4FE07C02FE030E001C0220F4A95EAF70E
:1048300020953F2D369536953370323069F050F41F
:104840004091F701313029F0822B84230E94780BAC
:1048500045CF842B822BFACF282B8091F70182271A
:10486000F5CF8695AA2011F08F2D8170882309F449
:1048700035CF4E2D429546954770440F440F8E2DEF
:104880008F70042E01C0880F0A94EAF72E2D207134
:10489000E4FE07C02FE030E001C0220F4A95EAF79E
:1048A00020953F2D369536953370323069F050F4AF
:1048B0004091BC03313029F0822B84230E94B80B35
:1048C0000DCF842B822BFACF282B8091BC0382271B
:1048D000F5CF9F2D9F70F92EAA2029F0892F0E94D5
:1048E000010C8E2D38CF8E2D0E94A7138F2D0E9484
:1048F000DD0BF4CE8E2DA2EF8A16B1F1A81570F063
:10490000B0EF8B16D1F0E1EF8E1691F0AA2009F4EA
:104910005EC091109ACE8F2D8F712AC0F3EF8F1643
:1049200051F124EF8212F2CF80916E0282FD2FC0EE
:104930008F2D8F71AA20D9F21BC0AA2081F034E0FC
:10494000391508F4CBCE2F2D2F7181E090E001C0F6
:10495000880F2A95EAF79091BC038927AFCF85E0AD
:10496000891508F4BBCEEFCF8F2D8F71A110BFCF6B
:104970000E94010CB3CE80E0AA2009F49FCF9F2DA6
:104980009F7181E001C0880F9A95EAF797CFAA201E
:1049900099F09F2D9F71F92E892F0E94010C809113
:1049A0006E0282FF07C0A8E0FA9EC0011124836056
:1049B0008093EC018F2DDCCF81E00E94EA0BB1E007
:1049C000B91508F08BCE82E00E94EA0B87CE9920C1
:1049D00079F0893341F4EFEFF7EE23E0E150F04056
:1049E0002040E1F7FECE8FE19EE40197F1F7F9CE8A
:1049F0008F2D8F717CCFB7E7EB16BCE7FB0609F470
:104A0000B0CDE8E7EE16ECE7FE0609F0B9CD82E09E
:104A1000A9CDCF93DF938091EB01807F09F04DC04A
:104A20008091EA01882309F448C0E091480650913A
:104A30000F06C091E601D091E5016091E701709108
:104A4000E80147E05E17C9F18E2F90E0E49FF00186
:104A50001124E05FF94F2481222391F1489FF00156
:104A6000499FF00D1124DF01A05FB94F11962C91E1
:104A700011972C1325C02C912D1322C015962C9123
:104A8000159721111DC012962D913C91261B370BB5
:104A9000283C3105A8F48091EB018F7080618093F0
:104AA000EB01EA5EF94F80818F708061808385EE33
:104AB00091E00E942E1F0E94040BDF91CF91089578
:104AC000FC013196E770BECFA4E1B0E0EAE6F5E282
:104AD0000C9477338C0186E0F801DE011F9601907B
:104AE0000D928A95E1F7F8018481E58095EEA92E73
:104AF00091E0B92E9091E901911128C0882319F114
:104B0000EE20F1F0C8010E94AC0FF82E8823C1F00E
:104B100087E0F801D50101900D928A95E1F7809127
:104B2000E901813031F48091E5019091E6010E9424
:104B30009F0F0E9409258F2D6496ECE00C9493330F
:104B4000C8010E942E1FFF24F394F5CFD080C180AE
:104B500082809380F090EA012091E7013091E80192
:104B6000A401421B530BFF2009F4D9C0483C510556
:104B700008F092C08823F9F29091E6018091EB0150
:104B8000282F207F09F056C0C91214C09091E5016A
:104B9000D91210C0E11048C08F7080618093EB0182
:104BA00085EE91E00E942E1F8091EB01F801868333
:104BB000F12CC1CFE11038C06C2D8D2D0E94E30681
:104BC0006C2D8D2D0E94E306E82E8111F1CFDF863A
:104BD000C88A8F8598890E949F0F292F22952F7050
:104BE000243058F49F70223088F0992399F0F8010E
:104BF0009681907F79F4FE2C9ECF2A5F2F70223011
:104C000068F0C8010E942E1FEF2CF5CF992311F0F8
:104C1000882389F3805E883070F3F3CF803F58F3A8
:104C2000815F833070F7E7CF8091EB0181608093E3
:104C3000EB01BECFC91207C09091E501D91203C0A4
:104C4000EE2009F48DC0C8010E94AC0F882309F43E
:104C500077CFEE2009F474CF8091EB01803288F099
:104C60002091E5013091E601398728879B868A8665
:104C70009091E9019C871D868E87CE0108960E943F
:104C80002E1F87E0F801A5EEB1E001900D928A9504
:104C9000E1F70E94092557CF9091EB01292F207F42
:104CA00051F485EE91E00E942E1F87E0F5011192EC
:104CB0008A95E9F77DCF882309F43DCF8091E601FD
:104CC0008C1110C08091E501D8120CC0E1100AC00F
:104CD0009683C8010E942E1F87E0F50111928A95E4
:104CE000E9F729CFC8010E94AC0F882309F428CF27
:104CF000EE2009F425CF8091EB01803210F2209153
:104D0000E5013091E6013A8329839C828B82909160
:104D1000E9019D831E828F83CE010196B0CF483C6E
:104D20005105D0F6882309F40ECFFE2CEE2009F4AD
:104D300007CF8091E6018C1120C08091E501D81247
:104D40001CC08091EB0180FD0FC0982F907F61F017
:104D50008683903F31F0982F907F905F8F70892BE2
:104D60008683C8010E942E1F87E0F801A5EEB1E0FE
:104D700001900D928A95E1F7DECEC8010E94AC0F3A
:104D800081117FCF8091EB0181608093EB01C8019D
:104D90000E942E1FD0CEABE1B0E0E1EDF6E20C9424
:104DA0007F334E8B5F8B688F798F8A8F9B8F192F04
:104DB00091111092F6011D8A86E0FE017696DE01C1
:104DC0001F9601900D928A95E1F70A8D002341F01C
:104DD00021E04F85588969897A89C8010E94CF0FDF
:104DE0000B8B1C8B87E0FE013F96DE01189601902D
:104DF0000D928A95E1F7CE0108960E9464258111F3
:104E00000CC087E0FE013896DE01119601900D92EC
:104E10008A95E1F78C8581110BC017E080914806D7
:104E200090910F06891333C06B96E4E00C949B338A
:104E300020910F0630E0C9010196877099274091B3
:104E400048064817190699F097E0929FD001939F62
:104E5000B00D1124A05FB94FFE01319601900D9263
:104E60009A95E1F780930F060E94040BD6CF10921B
:104E7000F8050E94C31010920F061092480687E0B2
:104E8000E5EEF1E0DF011D928A95E9F7C6CF819F3B
:104E9000C0011124805F994F0E946425882321F26C
:104EA0008091480690E00196877099278093480684
:104EB000B5CFA6E0B0E0EFE5F7E20C947F330E94B7
:104EC000CE1C8C018091F8019091F9018017910717
:104ED00081F019821A820E94CE1C682F49815A8162
:104EE000792F80E090E00E94CB261093F901009387
:104EF000F8012696E4E00C949B33ACE0B0E0E3E8E4
:104F0000F7E20C947333CE0101967C018CE0D7015B
:104F10001D928A95E9F73701570190E0C92E91E07B
:104F2000D92E44244394512CF60181916F010E94A3
:104F30000B0D00C086E0882E81E0982EF40110E071
:104F400000E02191A22FA295AF70B0E090968C91D5
:104F500090E02F7002C0959587952A95E2F780FD25
:104F60000AC0D5018C919201002E01C0220F0A9433
:104F7000EAF7822B8C930F5F1F4F0430110509F75E
:104F8000F601319780810E941F0DB0EABA95F1F7C2
:104F9000EFEFAE1ABE0AF6E0CF16F1E0DF0621F61B
:104FA000DD24D394D4018D914D010E940B0D00C0DE
:104FB0003D2D002E01C0330F0A94EAF7F70140E0BF
:104FC00051E0DA012D91AD01822F82958F7090E032
:104FD000DC0190968C9190E02F7002C0959587959A
:104FE0002A95E2F780FD03C08081832B8083319670
:104FF000B1E046305B0729F7F401319780810E94C8
:105000001F0DE0EAEA95F1F70F5F1F4F0830110519
:1050100049F6EFE4F6E097012A5F3F4FD12CD30128
:105020008D913D019191891729F0DF0111978C93A2
:10503000DD24D3942615370591F700916C02DD200D
:1050400041F181E08093AE010E94CE1C9093AD01AE
:105050008093AC018091AC019091AD010E94BF1C86
:105060000597D8F010E00E571D4F46E050E06FE472
:1050700076E0C8010E943634892B41F086E0EFE4E7
:10508000F6E0D80101900D928A95E1F71092AE01F9
:1050900004C08091AE018111DDCF0E94150EC82E93
:1050A000E0916C02811175C0F0E0EE57FD4F86E093
:1050B000ACEFB1E001900D928A95E1F766E070E007
:1050C0008CEF91E00E9497088093FB018090020290
:1050D00090900302A0900402B09005028091AF016D
:1050E0009091B001A091B101B091B20188169906DA
:1050F000AA06BB06D1F08092AF019092B001A092B7
:10510000B101B092B2010E94150E81110EC00E9431
:105110007108861A970AA80AB90A809267029092C3
:105120006802A0926902B0926A028BE0E6E0F2E0C7
:10513000D70101900D928A95E1F78091060286953C
:1051400000910702F0900802E0900902109110020D
:10515000109210021123A9F010FF0BC0998190FF4B
:1051600015C09091860391609093860360E00E9441
:10517000031711FF06C020E04E2D6F2D802F0E94D7
:10518000A5158D2D2C96E0E10C948F330E94080E0E
:10519000F0CF25E536E086E0D9011D928A95E9F742
:1051A0000E2F10E00E571D4F80914E068A30A8F545
:1051B0006AEB78E1C8010E94340D882309F449C0E4
:1051C0006FE678E1C8010E94340D882309F441C0DC
:1051D00069E178E1C8010E94340D8823D1F1109271
:1051E0004E0681E08093B50100916B0210E00E57EE
:1051F0001D4F46E050E065E576E0C8010E94363478
:10520000892B09F4BECF86E0E5E5F6E0D8010190F0
:105210000D928A95E1F7DC2CB4CF8091B301909187
:10522000B4010E94BF1C843F914010F68091B501EB
:10523000882309F4A6CF1092B501E0916B02F0E04B
:10524000EE57FD4F96E0DF011D929A95E9F7D82EB3
:1052500098CF80914E068F3F31F08F5F80934E063E
:105260008A3008F4BECF0E94CE1C9093B401809384
:10527000B301DCCFCDB7DEB7EE970FB6F894DEBF43
:105280000FBECDBF85B7806885BF85B7806885BFF5
:1052900084B7877F84BF0FB6F894A895809160008B
:1052A000886180936000109260000FBE80E890E0FB
:1052B0000FB6F89480936100909361000FBE8DED5E
:1052C00098E09093A3018093A2010E9402070E949C
:1052D000A3078091E20084608093E200789480913B
:1052E00005068823A1F01091E9001F709091EC0051
:1052F000892F817090FD80E8182B1092E900809131
:10530000E80083FD0E94CF101F701093E90082E037
:1053100084BD93E095BD9AEF97BD80936E00109287
:105320006702109268021092690210926A020E944B
:10533000FD0F811102C00E94230F0E943C19809131
:105340000A010E943C19809106010E941F0D809164
:1053500007010E941F0D809108010E941F0D80917E
:1053600009010E941F0D00E011E046E0E42E41E03B
:10537000F42ED8018D918D010E941F0DE016F106CB
:10538000C1F780910A0196E0811190E090936C0240
:1053900086E0891B80936B020E94150E811102C06A
:1053A0000E94FE31EFE4F6E0A2E8B2E011921D9215
:1053B00026E0EB35F207D1F70E946F17811102C08A
:1053C0000E94531982E090E00E944C348093700256
:1053D00084E090E00E945A3490936E0280936D02B4
:1053E0000E947D278FE39CE90197F1F700C0000040
:1053F0000E947D278091820280FF08C06FEF7FEFBF
:1054000090E080E00E948E340E94600883E090E08B
:105410000E944C340E94780B8091BC030E94A00B28
:105420000E94150E882309F4ACC180E08093E50545
:1054300080E8809396030E94B5306BE070E082E2D2
:1054400092E00E942D158823E9F18091E50565E041
:1054500070E081FD98C18DE192E00E942D158823B6
:1054600089F16DE070E08BE092E00E942D158823B9
:1054700049F10E947108605A75418F4F9F4F6093A8
:10548000E9057093EA058093EB059093EC05E5EE52
:10549000F3E080E092E0DF019C011D92215030405A
:1054A000E1F7F0939503E09394038FEF9FEF9093D0
:1054B000E8058093E70581E08093F0058093ED0592
:1054C0001092E60580916F02811176C00E946F17DD
:1054D000811104C00E9453190E943B1788E090E09C
:1054E0000E9454344B015C0184E290E00E944C34F1
:1054F000282F30E040E050E060E070E080E090E095
:1055000000E20E94F733282939294A295B29209390
:1055100086033093870340938803509389036093F5
:105520008A0370938B0380938C0390938D038091F7
:10553000A70283608093A7022E7F89F50E943B1704
:1055400088E090E00E9454346B017C0184E290E09A
:105550000E944C34282F30E040E050E060E070E0E2
:1055600080E090E00E94F733B22FA32FF42FE52FB5
:105570005B0197018601BC29A12BFE29E32BB09387
:105580008603A0938703F0938803E09389036093D5
:105590008A03B0928B0380938C0390938D030E94B7
:1055A000B3088091860380FF04C060E086950E9466
:1055B000031781E080936F020E94150E811102C0D3
:1055C0000E94FE310E94371B0E94150E81112EC0D1
:1055D00080E99EE090935201809351012AE130E0EE
:1055E00030934D0120934C018AE390E09093500159
:1055F00080934F0149EC58E050935A014093590170
:105600003093550120935401909358018093570192
:1056100042E05BE1509362014093610130935D0190
:1056200020935C019093600180935F010E946F174B
:105630008823A9F08FE090E00E945434172F862F22
:10564000912F917022E3AC01249FC001259F900D02
:1056500011240E94E61A169517701093AA030E944F
:105660007C0E83E190E00E9454348B019C01609396
:10567000BD031093BE038093BF033093C003109209
:10568000C1031092C2031092C3031092C40383E6B5
:1056900091E09093F2058093F10528E7A22EB12CBA
:1056A00088248A94912C80910506853069F4909124
:1056B000040680910506853009F468C01092F8054B
:1056C0000E94C3100E943A0E0E947D2701E712E05B
:1056D0009CE7E92E91E0F92EB70122E832E0F801CB
:1056E0009191D9018D919D01DB014D91BD018423E3
:1056F000B2E0ED37FB0709F45EC0981789F30E940A
:10570000150E282E82E8C82E82E0D82E612CF601D4
:1057100071906F01D7018D917D017822F801319050
:105720008F01371431F13724512C44244394832DB5
:105730008421B9F02220A9F059AE6AAE0E94CE1C95
:105740009CAF8BAFF1E0FDAF91E0872D842109F490
:1057500090E09EAF49AD5AAD6BAD7CAD8DAD0E9472
:10576000CB265394440C28E05212E1CFF801319734
:10577000708263943CE06312CACF0E944B0E11E02A
:105780001FC082E053CE88E192E067CE809105068B
:10579000992309F48ECF0E947D27ACE7B1E0E2E8BF
:1057A000F2E081919D91892309F0E2C352E0EE3845
:1057B000F507B9F77CCF9813A2CF0E94592710E0C4
:1057C0000E94150E40919F025091A0026091A1028B
:1057D0007091A2028091A3029091A4020E94DC1910
:1057E00020939F023093A0024093A1025093A20203
:1057F0006093A3027093A40286E0EFE9F2E0DE0179
:105800009D9601900D928A95E1F786E0FE01BD9686
:10581000DE01979601900D928A95E1F786E0FE01F0
:10582000B796DE01119601900D928A95E1F786E018
:10583000FE013196AFE9B2E001900D928A95E1F751
:1058400086E0EFE9F2E0DE019D9601900D928A95E7
:10585000E1F786E0FE01BD96DE01119601900D9202
:105860008A95E1F7FFA408A9902F9F2980917F02D4
:10587000992309F484C0813009F43EC0823009F0D4
:1058800070C00E94CE1C90937E0280937D0286E0C1
:10589000FE013196DE01919601900D928A95E1F715
:1058A00086E0FE01B196DE01D39601900D928A95B5
:1058B000E1F786E0FE01F396DE01119601900D926C
:1058C0008A95E1F786E0FE013196AFE9B2E00190FA
:1058D0000D928A95E1F70E94161081117EC0809189
:1058E00080021092800280FF7BC00E944B0E0E94BB
:1058F000DA1C0E94571578C08091BD03882339F2C5
:105900008091BC030E947B0B8111C1CF802F000FBF
:10591000990B97FF03C09195819591092F2DFF0C4D
:10592000330B37FF03C0319521953109820F931F47
:105930002091BA033091BB03820F931F9093BB0356
:105940008093BA032091BE033091BF03821793075F
:105950000CF49DCF1092BB031092BA030E94211F3A
:1059600096CF0E94CE1C90937E0280937D0241E0F0
:1059700040937F021092BB031092BA0388CF81300C
:10598000E1F0823019F580917D0290917E020E94B3
:10599000BF1C4091C0035091C10364E6649F900115
:1059A000659F300D11242817390708F070CF109229
:1059B0007F0282E00E94DD0B6ACF80917D02909190
:1059C0007E020E94BF1CC39708F461CF1092BB03F4
:1059D0001092BA0310927F025ACF81E090E081CFFB
:1059E0000E94DA1C111185CF0E943A0E909181021B
:1059F000891721F0809381020E9471088091050629
:105A0000843009F4E1C00E94150E882309F44BCEBE
:105A10000E9471082091940221116EC000919002A1
:105A20001091910220919202309193026B017C01BE
:105A3000C01AD10AE20AF30A97018601043F114015
:105A40002105310508F458C06093900270939102CB
:105A5000809392029093930280918E0290918F0294
:105A6000019690938F0280938E0219828E010F5FB0
:105A70001F4F21E050E040E060E088E00E94C31743
:105A8000811106C080918E0290918F020A97A4F135
:105A900051E0509394025093980381E099819111C1
:105AA00001C080E0809399038091970310E08823E0
:105AB00029F00E94650E11E0811112E08091990396
:105AC000882309F451C20E94650E81114FC282E001
:105AD000182B0E94F40F6B017C01DC01CB018C7F41
